:020000040800F2
:10000000A80400209D010008B3170008AF110008E4
:10001000B1170008A9020008E91900080000000053
:10002000000000000000000000000000B7170008FA
:10003000AB02000800000000B5170008B91700085F
:10004000B7010008B7010008B7010008B7010008B0
:10005000B7010008B7010008B7010008B7010008A0
:10006000B7010008B7010008B7010008B701000890
:10007000B7010008B7010008B7010008B701000880
:10008000B7010008B7010008B7010008B701000870
:10009000B7010008B7010008B7010008B701000860
:1000A000B7010008B7010008B7010008B701000850
:1000B000B7010008B7010008B7010008B701000840
:1000C000B7010008B7010008B7010008B701000830
:1000D000B7010008B7010008B7010008B701000820
:1000E000B7010008B7010008B7010008B701000810
:1000F000B7010008B7010008B7010008B701000800
:10010000B7010008B7010008B7010008B7010008EF
:10011000B7010008B7010008B7010008B7010008DF
:10012000B7010008B7010008B7010008B7010008CF
:10013000B7010008B7010008B7010008B7010008BF
:10014000B7010008B7010008B7010008B7010008AF
:10015000B7010008B7010008B7010008B70100089F
:10016000B7010008B7010008B7010008B70100088F
:10017000B7010008B7010008B7010008000000003F
:10018000B7010008B7010008DFF80CD000F07AF8DA
:1001900000480047C91E0008A80400200648804700
:1001A00006480047FEE7FEE7FEE7FEE7FEE7FEE75C
:1001B000FEE7FEE7FEE7FEE74118000889010008B8
:1001C0002DE9F05F0546002092469B46884606468C
:1001D000814640241BE0284641464746224600F01F
:1001E00041F853465A46C01A914110D31146184659
:1001F000224600F028F82D1A67EB01084F462246E8
:100200000120002100F01FF817EB00094E41201ECD
:10021000A4F10104DFDC484631462A464346BDE8E6
:10022000F09FD2B201E000F8012B491EFBD27047CB
:100230000022F6E710B513460A4604461946FFF7B2
:10024000F0FF204610BD202A04DB203A00FA02F11C
:10025000002070479140C2F1200320FA03F31943B4
:1002600090407047202A04DB203A21FA02F0002156
:10027000704721FA02F3D040C2F1200291400843B6
:1002800019467047064C074D06E0E06840F0010350
:1002900094E8070098471034AC42F6D3FFF778FF94
:1002A0004C1F00086C1F0008FEE7704770470000F5
:1002B00070B5044600F0EAF80546601C02D0044818
:1002C0000078044400F0E2F8401BA042FAD370BD6D
:1002D000000000202DE9F84F00224FF0010803250F
:1002E0004FF00F0E0B6808FA02F42340A3426ED1C0
:1002F0004E68012E05D0022E03D0112E01D0122EF1
:1003000012D186684FEA420C05FA0CF7BE43CF685B
:1003100007FA0CF7374387604668A6430C79C4F3A5
:100320000014944034434460C668570005FA07FC43
:100330008C6826EA0C06BC403443C4604C68022C2E
:1003400001D0122C13D1D40800EB8404A346D4F8B6
:10035000209054074FEAD46A0EFA0AF629EA0609F1
:100360000E6906FA0AF646EA0906CBF82060066826
:100370000C7926EA0C0604F00304BC403443046004
:100380004C68E40065D5364C266846F48046266005
:10039000246822F0030604F480440094314C344471
:1003A000A446D4F808489607370F0EFA07F6B44368
:1003B0002D4EB04201D1002624E02C4EB04201D196
:1003C00001261FE02A4EB04202D102261AE040E088
:1003D000284EB04201D1032614E0274EB04201D18D
:1003E00004260FE0254EB04201D105260AE0244E36
:1003F000B04201D1062605E0224EB04201D10726C7
:1004000000E00826BE402643CCF808681E4E34683B
:100410004F689C43FF0300D51C4334601A4C241DD5
:1004200026684F689E43BF0300D51E432660164EC4
:10043000083634684F689C43FF0200D51C43346083
:10044000114E0C3634684F689C43BF0200D51C43E4
:100450003460521C102AFFF445AFBDE8F88F00004D
:1004600044380240003001400000024000040240D5
:1004700000080240000C024000100240001402403C
:1004800000180240001C0240003C01400148806806
:10049000704700000000002070B5040025D094F8DB
:1004A0003D00002520B984F83C50204600F04CFA6D
:1004B000242084F83D002068016821F001010160DA
:1004C0002068016841F4004101602068016821F45E
:1004D0000041016000F092FB4D4A6168914201D8F1
:1004E0004C4900E04C49884201D2012070BD4B4983
:1004F0002368B0FBF1F15E6826F03F060E435E60B4
:100500006368934206D94FF4967359434FF47A7354
:10051000B1FBF3F12368491C1E6A26F03F06314304
:1005200019626168914210D84900401EB0FBF1F297
:10053000521CC2F30B02042A01D2042022E0B0FBB9
:10054000F1F0401CC0F30B001CE0A268F2B301EB19
:10055000C10303EB0116431EB3FBF6F35B1C43F42C
:1005600080431B0549D092B301EBC10202EB01119C
:10057000401EB0FBF1F0401CC0F30B0040F4804083
:1005800040F400402168CA694CF6FF739A43104357
:10059000C861D4E9071001432068026822F0C00254
:1005A00011430160D4E9030101432068826848F2E5
:1005B000FF339A4311438160D4E905010843216860
:1005C000CA6822F0FF021043C86001E00EE016E0A6
:1005D0002068016841F0010101602564202084F851
:1005E0003D00256384F83E50002070BD01EB4106BC
:1005F000431EB3FBF6F35B1CB3E70120C2E701EB3C
:100600004101401EB0FBF1F0401CC0F30B00B7E706
:10061000A086010080841E0000093D0040420F00BA
:100620002DE9FF4F83B09A46DDE9119793460446C2
:10063000DDF84080FFF72AFF054694F83D002028AA
:1006400070D11923012271492046009500F0C0FEA7
:100650000028F5D194F83C00012863D0012084F8EB
:100660003C0020680168C90703D1016841F001011D
:1006700001602068016821F400610160222084F893
:100680003D00402084F83E0000262664C4F8248003
:10069000A4F82A90608D20855D48E062CDE9007560
:1006A00053465A462046049900F09AFD00287CD112
:1006B000208DD0B1012821D00228206824D04169A2
:1006C00080690090208D032869D801282BD05149DA
:1006D00002283B464FF00002009559D0884620463C
:1006E00000F076FE002860D13CE020684169816915
:1006F0000091016841F40071016077E020680168B1
:1007000021F480610160F0E7016821F480610160FB
:100710002068016841F400610160206841698069D6
:10072000009063E06FE02A463946204600F0CFFE95
:1007300098BB20680069616A08704EE02068016813
:1007400041F40071016020680069616A0870606AA4
:10075000401C6062218D491E2185618D491E618585
:10076000216838E02068016821F480610160206818
:100770000069616A0870606A401C6062208D401EDA
:100780002085608D401E60853B46002241460095D5
:10079000204600F01DFE00B9D0E706E0FFE72A463C
:1007A0003946204600F093FE18B1012007B0BDE89D
:1007B000F08F20680069616A0870606A401C60629E
:1007C000218D491E2185618D491E618521684A69F7
:1007D000D24352070AD409690170606A401C606202
:1007E000208D401E2085608D401E6085208D002854
:1007F0007FF468AF202084F83D0084F83E6084F8E0
:100800003C600020D2E70220D0E700000200100088
:100810000000FFFF040001002DE9FF4F83B09A465E
:10082000DDE9119793460446DDF84080FFF72EFE80
:10083000054694F83D0020287FD119230122404924
:100840002046009500F0C4FD002876D194F83C00C5
:10085000012872D0012084F83C0020680168C90793
:1008600003D1016841F0010101602068016821F4B1
:1008700000610160212084F83D00402084F83E00A2
:1008800000262664C4F82480A4F82A90608D208570
:100890002C48E062CDE9007553465A46204604993B
:1008A00000F01CFD70B930E02A463946204600F0C1
:1008B00041FE58B1206C042804D12068016841F43D
:1008C00000710160012007B0BDE8F08F606A216807
:1008D00000780861606A401C6062218D491E89B2FF
:1008E0002185628D521E628522685369DB435B0756
:1008F0000BD469B100781061606A401C6062208D81
:10090000401E2085608D401E6085208D0028CBD143
:100910002A463946204600F035FD0028CAD154F851
:100920003D0B016841F400710160202004F81E09AC
:10093000E67766770020C6E7FFE70220C3E70000FE
:10094000020010000000FFFF10B586B0044614211D
:100950006846FFF76DFC13492068884220D1124891
:10096000016841F0020101600068694600F0020080
:100970000590C020009012200190012002900320D9
:100980000390042004900948FFF7A4FC06481030A7
:10099000016841F400110160006800F40010059046
:1009A00006B010BD00540040303802400004024040
:1009B000024881680278114481607047000000207D
:1009C0000B4810B5016841F400710160016841F401
:1009D00080610160016841F480710160032000F0D2
:1009E00061F8002000F006F800F024F8002010BDA7
:1009F000003C024070B50D4D04464FF47A712878E2
:100A0000B1FBF0F00A490968B1FBF0F000F0F6FA2A
:100A100048B9102C07D200222146501E00F022F8BF
:100A200000206C6070BD012070BD0000000000203F
:100A30000C0000200A4808B5016841F480410160BB
:100A4000006800F4804000900548001F016841F0F4
:100A500080510160006800F08050009008BD0000E7
:100A600044380240F0B40E4B1B680C46C3F302231B
:100A7000C3F10705042D00D90425191D072901D24A
:100A8000002300E0DB1E012606FA05F1491E214085
:100A900099409E40761E16403143F0BC00F0B6BF30
:100AA0000CED00E0064900F0070208684FF6FF036E
:100AB000184040EA0220034A1043086070470000D3
:100AC0000CED00E00000FA052DE9F0470E460500A8
:100AD00065D0DFF81481D8F80000F7B200F00F00FD
:100AE000B04207D288F80070D8F8000000F00F007C
:100AF000B04254D128683D4C810712D5400703D538
:100B0000206840F4E05020602878000703D5206872
:100B100040F4604020602068A96820F0F00008439D
:100B200020602878C0072DD030496868083901282E
:100B300012D0022813D0032811D009688907002990
:100B40002DDA216821F0030101432160FFF79EFCAB
:100B5000814641F2883A0EE009688903EFE70968A7
:100B60008901ECE7FFF792FCA0EB0901514502D99E
:100B70000320BDE8F0872068696800F00C00B0EB46
:100B8000810FEFD1D8F80010404601F00F01B142BB
:100B900007D90770006800F00F00B04201D00120B3
:100BA000E7E72878400705D52068E96820F4E05099
:100BB000084320602878000706D52068296920F4BA
:100BC000604040EAC100206000F038F82168084A1F
:100BD000C1F30311515CC84006490860064800682B
:100BE000FFF708FF0020C4E7003C0240083802403D
:100BF000341F00080C0000200400002004480549B0
:100C000000680968044AC1F38221515CC8407047FA
:100C10000C00002008380240441F00080448054921
:100C200000680968044AC1F34231515CC84070470A
:100C30000C00002008380240441F0008154810B579
:100C4000006810F00C02144813D01449042A0FD085
:100C5000082A0ED10F4C241F2268236802F03F029D
:100C60005B0207D52068C0F38810A0FB010106E0F5
:100C7000084610BD2168C1F38811A1FB00010023C3
:100C8000FFF79EFA2168C1F30141491C4900B0FBFE
:100C9000F1F010BD083802400024F40040787D01D6
:100CA0002DE9F84F04006ED02078DFF83C93C007A0
:100CB000A9F104054AD009F104000168C1F38101DA
:100CC000012908D00068C0F3810002280AD1D9F8B0
:100CD0000000400206D52868800337D560680028E8
:100CE000E1D033E06068B0F5803F10D0B0F5A02FC0
:100CF000286810D020F480302860286820F48020F4
:100D000028606068A8B1FFF7C1FB06460DE02868BF
:100D100040F48030F4E740F480202860F7E700BF1B
:100D2000FFF7B4FB801B642873D828688003F7D5CD
:100D30000CE0FFF7ABFB064605E000BFFFF7A6FBA4
:100D4000801B6428F0D828688003F7D42078DFF867
:100D50009C8280074FF0000A3ED5A348001D016821
:100D600011F00C0F08D00068C0F3810002280BD1ED
:100D7000D9F80000400207D42868800716D5E0683B
:100D8000012800D112E02BE1E068B8B10120C8F8D9
:100D90000000FFF77BFB064605E000BFFFF776FB90
:100DA000801B0228C0D828688007F7D528682169E9
:100DB00020F0F80040EAC10028600DE0C8F800A06B
:100DC000FFF764FB064604E0FFF760FB801B022888
:100DD0001FD828688007F7D42078000722D5824ED4
:100DE00083486169703671B101210160FFF74EFBE4
:100DF000074604E0FFF74AFBC01B022809D8306809
:100E00008007F7D50EE0C0F800A0FFF73FFB0746CC
:100E100005E082E0FFF73AFBC01B02287DD830686E
:100E20008007F7D42078400768D5DFF8BCB10027E9
:100E30000BF13C0BDBF80000C0000BD4DBF800101A
:100E400041F08051CBF80010DBF80000012700F0E2
:100E500080500090674E3068C00510D4306840F470
:100E600080703060FFF712FB009005E0FFF70EFB8B
:100E70000099401A022850D83068C005F6D55A4E5D
:100E8000A0686C3601280FD00528306810D020F0FB
:100E900001003060306820F004003060A068B8B114
:100EA000FFF7F4FA00900FE0306840F00100F4E73B
:100EB00040F004003060F7E7FFF7E8FA0099411AC4
:100EC00041F28830814266D830688007F4D50EE060
:100ED000FFF7DCFA009007E0FFF7D8FA0099411A13
:100EE00041F28830814256D830688007F4D42FB15F
:100EF000DBF8001021F08051CBF80010A069C8B3D6
:100F00003949091D0968C1F3810102294AD0022823
:100F1000504607D0C8F8600000E03CE0FFF7B6FAA2
:100F200004463BE04746C8F86000FFF7AFFA0646C4
:100F300005E000BFFFF7AAFA801B02282BD828681B
:100F40008001F7D4D4E907010843A16A2A4A490875
:100F500002EB0141626A41EA8211084394F82C10C5
:100F600040EA0161C9F8001001203866FFF78EFAE7
:100F7000044606E036E000BFFFF788FA001B0228AF
:100F800009D828688001F7D52CE000BFFFF77EFA6A
:100F9000001B022802D90320BDE8F88F28688001D1
:100FA000F4D41FE00128F7D0D9F80000E26900F47A
:100FB0008001914214D1226A00F03F0191420FD189
:100FC00047F6C071626A0140914209D1A26A00F4F9
:100FD0004031914204D1E16A00F07060884201D052
:100FE0000120D9E70020D7E704380240000047423B
:100FF000800E4742007000400000FFFF10B5401E09
:10100000B0F1807F01D3012010BD4FF0E02460617A
:101010000F21601700F0FAFC0020A061072020617A
:10102000002010BD70B5040004D094F839000025EC
:1010300010B106E0012070BD84F83850204600F061
:1010400023F8242084F839002068C16821F4005175
:10105000C160204600F002FC2068016921F4904143
:1010600001612068416921F02A0141612068C1685D
:1010700041F40051C160E563202084F8390084F810
:101080003A00002070BD000010B586B0044614215F
:101090006846FFF7CDF814492068884221D11348EB
:1010A0000021026842F010020260006800F01000A7
:1010B00005900E481438026842F001020260006890
:1010C00000F0010005904FF4C06000900220CDE9CF
:1010D0000101032003900720049069460448FFF7AC
:1010E000F9F806B010BD000000100140443802407D
:1010F000000002402DE9F843044690F839001F46ED
:1011000016460D46202850D1B5B1AEB194F838003E
:1011100001284AD0012084F838004FF00008C4F8B4
:101120003C80212084F83900FFF7B0F9A68481467D
:10113000E68484F8388026E00120BDE8F883E08C5E
:10114000401EE084A0684B46B0F5805F4FF000027F
:101150004FF080012046009703D000F013FCE8B95F
:101160000DE000F00FFCC8B928882168C0F3080022
:101170004860206908B16D1C05E0AD1C03E02168E2
:1011800015F8010B4860E08C0028D8D14B460022AE
:1011900040212046009700F0F5FB08B10320CCE782
:1011A000202084F839000020C7E70220C5E7FEE7C9
:1011B00001684A69D24352050FD46FF480624A61D4
:1011C000002140F8301F202242738173026942F0EF
:1011D0000402026101730120704700207047000083
:1011E0002DE9F84F0446006889460B9D0168984632
:1011F000174641F4806101602068016841F4807104
:10120000016000954FF0011B0022594620460A9BC1
:1012100000F0DEF84FF4007A40B120680068C005A5
:1012200001D5C4F840A00320BDE8F88F216809F07B
:10123000FE0008612B46284920460A9A00F0FCF877
:10124000F0BB20684169806900902A4620460A99CF
:1012500000F070F940B1206C04283AD12068016890
:1012600041F40071016034E0FEB2B8F1010F09D021
:101270002168380A08612A4620460A9900F05AF97E
:101280000028E8D1206806612A4620460A9900F025
:1012900051F90028DFD12068016841F480710160B4
:1012A00000950022594620460A9B00F091F800283C
:1012B000B3D1216809F0FF0040F00100086100E0AF
:1012C00007E02B46044920460A9A00F0B5F80028AA
:1012D000AAD00120A8E70000020001002DE9F84390
:1012E000044600680D46DDE90897016898461646F1
:1012F00041F4807101604B4600224FF001112046FD
:10130000009700F065F848B120680068C00502D574
:101310004FF4007020640320BDE8F883216805F0D5
:10132000FE0008613B464A461549204600F084F815
:1013300088B920684169806900903A46494620464C
:1013400000F0F8F848B1206C042804D12068016846
:1013500041F4007101600120DEE7F5B2B8F1010F40
:1013600009D02168300A08613A464946204600F013
:10137000E1F80028E7D1206805610020CCE70000F3
:101380000200010070B516460D4604460DE02046E9
:10139000FFF70EFF08B1012070BD681C05D0FFF7F4
:1013A00075F8801BA84207D835B120684069C04352
:1013B0004007ECD4002070BD002044F8300F2021FD
:1013C0006173A073216941F0200121612073E2E77C
:1013D0002DE9F0471E4690460D460446C1F30747E7
:1013E000DDF8209008E0701C06D0FFF74FF8A0EB66
:1013F0000900B0420FD876B12068012F18D080695B
:1014000025EA00000004000C14D000214145EAD078
:101410000020BDE8F087002044F8300F20216173E0
:10142000A073216941F02001216120730120F0E7C0
:101430004069E5E70121E9E72DE9F0479A46914641
:101440000E46044600254FF02008C1F3074725E06B
:1014500020684069C043400514D42068016841F405
:101460000071016021686FF480604861256384F831
:101470003D8084F83E50206C40F00400206484F8E5
:101480003C501FE0B9F1FF3F08D0FEF7FFFFA0EB93
:101490000A0149450CD8B9F1000F09D02068012F85
:1014A00013D0806926EA00000004000C0BD0CFE7BF
:1014B00044F8305F84F80D80A573206940F0200067
:1014C000206125730120BDE8F0874069EAE72DE936
:1014D000F041002590460E460446202717E040695B
:1014E000C043C0060CD454F8301B6FF010004861A4
:1014F00044F810596777A577206A2062257717E0AE
:10150000FEF7C4FFA0EB0800B04208D83EB1206847
:101510004169C9434906E2D40020BDE8F08144F89E
:10152000305F6773A573206940F020002061257348
:101530000120F2E770B516460D4604460DE0204640
:10154000FFF736FE08B1012070BD681C05D0FEF71C
:101550009DFF801BA84207D835B120684069C04371
:101560000006ECD4002070BD002044F8300F20218C
:101570006173A073216941F0200121612073E2E7CA
:1015800010B51E48FEF788FF80216B2000F096F80A
:1015900000216B2000F092F8032000F05AF80020A0
:1015A00000F052F8322000F071F80021382000F0ED
:1015B00085F800216A2000F081F80021232000F046
:1015C0007DF88021372000F079F8752000F022F8AE
:1015D000044601460AA000F009FA682C01D0012057
:1015E00010BD01216B2000F069F800216C2000F093
:1015F00065F8322000F04AF8002010BD14000020E9
:101600000D0A4D5055363035303A30782532780D48
:101610000A0000001FB500218DF80C1040F6FF7382
:10162000012203A98DE80E0013460246D121054888
:10163000FEF7F6FF6420FEF73BFE9DF80C0004B0B9
:1016400010BD000014000020C006010E1C2000F098
:1016500035B8C006010E1B2000F030B8BC2801D3FD
:10166000012110E0622801D302210CE02A2801D3D5
:10167000032108E0142801D3042104E00A2801D33F
:10168000052100E006211A2000F018B810B5044624
:101690004FF47A70844201D9044602E0042C00D24F
:1016A0000424B0FBF4F0401EC1B2192000F006F88B
:1016B0006008BDE81040FFF7D1BF00001FB540F63D
:1016C000FF738DF80C10012203A98DE80E0013465C
:1016D0000246D0210448FFF79FF86420FEF7E8FD9A
:1016E00004B0002010BD000014000020114808B50F
:1016F000016841F004010160016801F004010091FA
:10170000016841F080010160016801F080010091F1
:10171000016841F001010160016801F001010091DF
:10172000016841F002010160006800F002000090D1
:1017300008BD0000303802400D4810B50B4901606B
:101740000C49416000214FF480428160C0E90312DE
:1017500041618161C1610162FEF79EFE002803D0F4
:10176000BDE81040FEF7A2BD10BD000000540040CF
:1017700014000020801A06000C4810B50A490160C8
:101780004FF4E1314160002181600C22C160C0E969
:1017900004128161C161FFF745FC002803D0BDE858
:1017A0001040FEF783BD10BD00100140680000200E
:1017B000FEE7704770477047FFF7FAB830B593B04F
:1017C00030216846FEF734FD14210CA8FEF730FDE9
:1017D00019480025016841F080510160006800F05F
:1017E000805011901548016841F480410160006803
:1017F000022400F4804011900120039010200490F6
:10180000009406940820CDE90750A820CDE90904EA
:1018100004200B906846FFF743FA0CA90F2081E8DB
:1018200031004FF4A0500F90E002109005210CA859
:10183000FFF74AF913B030BD403802400070004055
:101840000548016841F47001016003494FF00060F0
:10185000803908607047000088ED00E02DE9F04114
:10186000044600680169E26821F4405111430161B6
:101870002169A068E269084361691143084321684E
:10188000CA6849F20C639A430243CA6020684169FE
:10189000A26921F4407111434161E069192764256F
:1018A0003226B0F5004F354A354920684FF0000820
:1018B00006D0884201D0904236D1FFF7AFF935E02B
:1018C000884201D0904202D1FFF7A8F901E0FFF76A
:1018D00095F961684A18A0FB070148EB0803FEF779
:1018E0006FFC0146B0FBF5F00201B1FBF5F06FF0C3
:1018F0001803584301EB800006EBC000B0FBF5F085
:1019000000F0F80002EB4002B1FBF5F0584301EBA8
:10191000800006EBC000B0FBF5F000F00700216886
:1019200010448860BDE8F081FFF768F961688B0FAB
:101930008A00A0FB0701FEF743FC0146B0FBF5F06F
:101940006FF01802504301EB800006EB0010B0FB73
:10195000F5F000F0F002B1FBF5F002EB0012B1FB84
:10196000F5F06FF01803584301EB800006EB001010
:10197000B0FBF5F000F00F00D1E7000000140140CB
:10198000001001402DE9F041984617460E460446E6
:10199000069D1DE0681C1BD02DB1FEF777FDA0EB66
:1019A0000800A84214D92068C16821F4D071C16030
:1019B0002068416921F001014161202084F839004B
:1019C00084F83A00002084F838000320BDE8F08154
:1019D0002068006836EA000004D00020B842D9D060
:1019E0000020F3E70120F9E7FEE700000FB4054B04
:1019F00010B503A9044A029800F028F810BC5DF85D
:101A000014FB0000B11E0008100000200907090E99
:101A1000002804DB00F1E02080F80014704700F09B
:101A20000F0000F1E02080F8141D704702E008C8A4
:101A3000121F08C1002AFAD170477047002001E048
:101A400001C1121F002AFBD1704700002DE9FF4F92
:101A50008DB00F460546002606E025280BD0DDE9AF
:101A60000F1290476D1C761C28780028F5D111B014
:101A70003046BDE8F08F0024A246A1460122EC4981
:101A800000E0044315F8013F203B02FA03F008424E
:101A9000F7D128782A2810D06FF02F022878A0F1EB
:101AA0003001092914D80AEB8A0102EB410144F004
:101AB000020400EB010A6D1CF0E701CF5FEA000AA7
:101AC00003D544F40054CAF1000A44F002046D1C2A
:101AD00028782E2817D115F8010F44F004042A287D
:101AE0000ED06FF02F022878A0F1300109290AD812
:101AF00009EB890102EB410100EB01096D1CF2E7E2
:101B000057F8049B6D1C28786C280FD006DC4C28F5
:101B100017D068280DD06A2814D104E0742810D09A
:101B20007A280FD10DE044F400140AE044F4801444
:101B300001E044F440146978814202D104F5801434
:101B40006D1C6D1C2A786E2A1FD00CDC632A31D0E4
:101B500004DC002A8BD0582A11D1A3E0642A68D073
:101B6000692A0CD165E0732A2ED004DC6F2A73D069
:101B7000702A04D19BE0752A6FD0782A6ED0104667
:101B8000DDE90F129047761C50E1C4F302500228A1
:101B900006D0032809D0042801CF09D0066045E10A
:101BA00001CFF117C0E9006140E101CF06803DE1BE
:101BB00006703BE117F8040B8DF8000000208DF84B
:101BC0000100EB46012003E057F804BB4FF0FF3063
:101BD00061074FF0000102D40DE008F101018846D1
:101BE00049450FDA8045F8DB1BF808100029F4D1CD
:101BF00008E008F1010188468142FADB1BF8081071
:101C00000029F6D1DDE90F23AAEB08008146214621
:101C100000F036F9304400EB080604E0DDE90F126D
:101C20001BF8010B9047B8F10108F7D2214648464E
:101C3000F7E00A21C4F302534FF0000B0891022B86
:101C400004D001CFC117032B09D00AE0FF1D27F0F4
:101C50000707F7E8020108E032E01FE020E000B2E9
:101C6000C117042B01D140B2C117031E71F100034B
:101C700007DA4FF0000CD0EB0C006CEB01012D23C8
:101C800002E0230504D52B238DF82430012303E043
:101C9000E30701D02023F7E7984658E00A2110E037
:101CA00010210EE010204FF0000B08900CE01021E6
:101CB0004FF0000B44F004044FF00809089103E0D2
:101CC00008214FF0000B0891C4F30253022B04D0FB
:101CD00001CF0021032B06D006E0FF1D27F00707E8
:101CE000F7E8020103E080B2042B00D1C0B24FF04C
:101CF000000823072BD5702A07D0DDF820C08CF010
:101D0000100C5CEA0B0C05D00EE040238DF824305B
:101D1000012308E050EA010306D030238DF8243077
:101D20008DF8252002239846DDF820C08CF0080CA1
:101D30005CEA0B0C0BD150EA010301D1630706D515
:101D400030238DF824304FF00108A9F10109582AF9
:101D500004D038A20B9208AA0A920BE03AA2F9E743
:101D60005B46089AFEF72CFA0B9B9B5C0A9A521E64
:101D70000A92137050EA0102F2D10A98ADEB00000A
:101D800000F1200B600702D524F4803401E04FF00D
:101D90000109D94502DDA9EB0B0000E0002000EBB2
:101DA0000B0141440890AAEB010AE00306D4DDE9E7
:101DB0000F232146504600F063F806444FF0000917
:101DC00008E009A911F80900DDE90F12904709F1AF
:101DD0000109761CC145F4DBE0030CD5DDE90F23D6
:101DE0002146504600F04CF8064404E0DDE90F12AD
:101DF00030209047761C0899481E08900029F5DC91
:101E000008E00A980A990078491C0A91DDE90F1246
:101E10009047761CBBF10001ABF1010BF1DC2146D0
:101E20005046DDE90F2300F019F806446D1C1BE64F
:101E300009280100303132333435363738396162A0
:101E40006364656600000000303132333435363764
:101E50003839414243444546000000002DE9F04135
:101E6000044600251E461746880404D405E039467A
:101E70002020B0476D1C641EF9D52846BDE8F081CE
:101E80002DE9F041044600251E469046C80301D5C1
:101E9000302700E02027880404D505E04146384675
:101EA000B0476D1C641EF9D52846BDE8F0810000DE
:101EB00013B54FF6FF73012269460248FFF71AF97E
:101EC00000981CBD680000201FB50025FEF778FDB6
:101ED000FFF774FCFFF70AFCFFF72EFCFFF74CFC42
:101EE000FFF74EFB042003ACCDE9004040F6FF763F
:101EF00000230322AD2102960A48FEF791FB012739
:101F0000CDE9004703230022AD2106480296FEF7E3
:101F100087FB6420FEF7CCF9294603A0FFF766FD96
:101F2000EEE700001400002062757368753A2564BE
:101F30000000000000000000000000000102030497
:101F40000607080900000000010203046C1F0008D6
:101F500000000020140000002C1A0008801F000858
:101F600014000020940400003C1A00080100000046
:101F700010000000000000000024F4000000000039
:040000050800018965
:00000001FF
