:020000040800F2
:10000000E84D0020A1010008112700087F24000806
:100010000D270008B90B0008892A0008000000001D
:100020000000000000000000000000001B27000886
:10003000E70C000800000000192700081D27000831
:10004000BB010008BB010008BB010008BB010008A0
:10005000BB010008BB010008BB010008BB01000890
:10006000BB010008BB010008BB010008BB01000880
:10007000BB010008BB010008BB010008BB01000870
:10008000BB010008BB010008BB010008BB01000860
:10009000BB010008BB010008BB010008BB01000850
:1000A000BB010008BB010008BB010008BB01000840
:1000B000BB010008BB010008BB010008BB01000830
:1000C000BB010008BB010008BB010008BB01000820
:1000D000BB010008BB010008BB010008BB01000810
:1000E000BB010008BB010008BB010008BB01000800
:1000F000BB010008BB010008BB010008BB010008F0
:10010000BB010008BB010008BB010008BB010008DF
:10011000BB010008BB010008BB010008BB010008CF
:10012000BD0B0008BB010008CD0B0008BB01000897
:10013000BB010008BB010008BB010008BB010008AF
:10014000BB010008BB010008BB010008BB0100089F
:10015000BB010008BB010008BB010008BB0100088F
:10016000BB010008BB010008BB010008BB0100087F
:10017000BB010008BB010008BB0100080000000033
:10018000BB010008BB010008DFF810D000F0D4FA72
:100190000048004705380008AFF30080E84D002014
:1001A0000648804706480047FEE7FEE7FEE7FEE711
:1001B000FEE7FEE7FEE7FEE7FEE7FEE7DD270008D5
:1001C000890100089FED391A10B4B0EE410A5FEAC8
:1001D000910C1ED0BCF1004F4CD2BCF1000FC4BF3B
:1001E0000346644615DD00BFD3ED000A00EEA00A09
:1001F000D3ED010A00EEA00AD3ED020A00EEA00A38
:10020000D3ED030A1033641E00EEA00AECD100EB1C
:100210000C1011F003031AD0B3F1004F3FD2002BA2
:1002200015DD001F13F0010F04D0D0ED010A001DF1
:1002300000EEA00A5B080AD0D0ED010A00EEA00A89
:10024000D0ED020A08305B1E00EEA00AF4D100EEE9
:10025000901AF8EE601AC0EE210AF5EEC00AF1EE2F
:1002600010FAA6BFB1EEE00A82ED000A82ED001A94
:1002700010BC7047D0ED000A00EEA00AD0ED010AD4
:1002800000EEA00AD0ED020A00EEA00AD0ED030AAB
:100290001030BCF1010C00EEA00AEBD1B9E7F0EC94
:1002A000010A5B1E00EEA00AF9D1D0E700000000B1
:1002B0002DE9F05F0546002092469B46884606469B
:1002C000814640241BE0284641464746224600F02E
:1002D00020F853465A46C01A914110D31146184689
:1002E000224600F061F82D1A67EB01084F462246BE
:1002F0000120002100F058F817EB00094E41201EA4
:10030000A4F10104DFDC484631462A464346BDE8F5
:10031000F09F202A04DB203A21FA02F000217047E6
:1003200021FA02F3D040C2F120029140084319465D
:100330007047D2B201E000F8012B491EFBD2704792
:100340000022F6E710B513460A4604461946FFF7A1
:10035000F0FF204610BD00F0004230F000400AD00F
:10036000C10D01F56071C0F3160042EA0151C208E7
:1003700040071143704700200146704730B50B46D7
:10038000014600202022012409E021FA02F59D42C5
:1003900005D303FA02F5491B04FA02F52844151E99
:1003A000A2F10102F1DC30BD202A04DB203A00FA80
:1003B00002F1002070479140C2F1200320FA03F3BC
:1003C0001943904070472DE9FE4F804681EA0300B3
:1003D000C00F0C46009021F0004123F00045B8EB1F
:1003E0000200A94105D24046214690461C460B46D4
:1003F000024623F00040104347D0270DC7F30A0000
:10040000C3F30A510290401A019040286BDAC3F3FB
:10041000130040F4801B0098924620B10023D2EBD9
:10042000030A63EB0B0B01985946C0F1400250469A
:10043000FFF7BAFF06460D4650465946019A00F0AE
:100440008DF910EB08006141002487EA115284EA1B
:10045000E7731A4340D0009A62B3019A012A4FEA27
:10046000075215DC001B61EB02014FF0004202EA6B
:100470000752CDE90042001C41F5801132462B465F
:1004800000F08DF903B0BDE8F08F40462146F9E752
:10049000001B61EB0201001C41F5801300185B4159
:1004A0002018A2F5001747EB030140EAD570B619F2
:1004B0006D4111E06D084FEA360645EAC0754FEA16
:1004C0000752001B61EB0201001C41F58011490835
:1004D0004FEA30000019514132462B4603B0BDE8C7
:1004E000F04F00F04DB90098012240000023D0EBFE
:1004F000020263EBE073009821464FEAE074B8EB28
:10050000000061EB0401E9E783F000435BE781F061
:10051000004158E72DE9FE4F81EA030404F000444E
:1005200021F0004100944FF0000B23F0004350EA0B
:1005300001045ED052EA03045BD0C3F30A54C1F352
:100540000A552C44A4F2F3340194A0FB0254C1F3E5
:10055000130141F48011C3F3130343F4801301FB2F
:10056000024400FB034E840A970A44EA815447EA96
:100570008357A4FB076802958D0A05FB07854FEAA0
:10058000932C04FB0C542705029D4FEA065847EABA
:100590001637B5EB08056EEB070C870E920E47EA8F
:1005A000811742EA8312A7FB0201B6EB0B0164EB51
:1005B00000042B0D43EA0C335E1844EB1C50DA4662
:1005C0005146E7FB0201C5F313044FEA0B3343EA3C
:1005D00014534FEA0432019C43EA0603A4F10C04CD
:1005E0000294009CCDE900B400F0D9F803B0BDE856
:1005F000F08F00200146F9E72DE9F04D81EA030470
:1006000004F0004B21F0004514464FF0000A23F09F
:10061000004150EA050220D054EA01021DD0C5F382
:100620000A570246C5F31303C1F31300C1F30A5678
:1006300040F4801543F48013A7EB0608101BD64640
:1006400008F2FD3873EB050002D308F1010801E060
:1006500092185B41B8F1000F03DA00200146BDE8B3
:10066000F08D00204FF48011064684460EE0171BE3
:1006700073EB050705D3121B63EB050306434CEA36
:10068000010C49084FEA300092185B4150EA01071B
:10069000EDD152EA030012D082EA040083EA050198
:1006A000084305D0101BAB4106D20122002306E00F
:1006B00000224FF0004302E06FF0010253101AEBEA
:1006C00006004CEB085110EB0A0041EB0B01BDE8B2
:1006D000F04D00F055B8C1F30A52C1F3130140F2D6
:1006E000FF3341F480119A4202DA0020014670473C
:1006F00040F233439A42A2F2334202DC5242FFF705
:1007000008BEFFF751BE000030B5041E71F10004B1
:1007100004DB4FF00044404264EB0101141E73F10E
:10072000000405DB1C464FF00043524263EB040318
:10073000994208BF904230BD064C074D06E0E06884
:1007400040F0010394E8070098471034AC42F6D318
:10075000FFF71EFD683A0008883A0008202A06DBE9
:10076000CB17203A41FA02F043EAE07306E041FA7F
:1007700002F3D040C2F1200291400843194670476D
:1007800010B5141E73F1000408DA401C41F1000199
:1007900092185B411A4301D120F0010010BD2DE9F0
:1007A000F04D92469B4611B1B1FA81F202E0B0FAE7
:1007B00080F220329046FFF7F7FD04460F4640EAEC
:1007C0000A0041EA0B0153465A46084313D011462A
:1007D00053EA010019D0C8F140025046FFF799FDD5
:1007E00005460E46504659464246FFF7DDFD084392
:1007F00005D0012004E020463946BDE8F08D0020F8
:10080000054346EAE0762C4337430A986305E40A39
:10081000A0EB08000022FD0A44EA47540A3002D542
:1008200000200146E9E7010510196941DDE90845A5
:1008300000196941BDE8F04DA2E770B58D1810F8B8
:10084000014B14F0030201D110F8012B231106D142
:1008500010F8013B03E010F8016B01F8016B521E28
:10086000F9D1ABB110F8012B04F00C048A1A0C2C4E
:1008700003D0A2EB84129B1C08E010F8014BA2EB02
:100880000422F8E712F8014B01F8014B5B1EF9D581
:10089000A942D4D3002070BD10B50122110318481D
:1008A00001F064F800224FF40051154801F05EF8A1
:1008B00001229103124801F059F800224FF48041BF
:1008C0000F4801F053F800211D2000F05BF84A2189
:1008D0001E2000F057F800211F2000F053F860217F
:1008E000202000F04FF801225103054801F03EF8A6
:1008F00000224FF40051024801F038F810BD00000A
:10090000001802402DE9F84F074688461446042097
:100910000090062513E0681EC2003E46C1463046E0
:100920004946FFF7F6FC00F0FF0A0098411CC9B2E7
:1009300083460091514600F025F8681EC5B2002D8F
:10094000E9DCC4F30721212000F01CF8E1B22220E9
:1009500000F018F8C4F30721232000F013F8E1B2E7
:10096000242000F00FF801225103054800F0FEFF9B
:1009700000224FF40051024800F0F8FFBDE8F88F64
:100980000018024070B504460D4605EB04200649E8
:10099000086000228914054800F0E8FF01221103D5
:1009A000024800F0E3FF70BD14140240001802403A
:1009B00070B50546AC6B206C00F0500050BB206C4D
:1009C00040F4007020642068806800F04050E8B96E
:1009D000207ED8B92068C06A00F4700020B1206879
:1009E000806800F4806088B92068406820F02000AA
:1009F00021684860206C20F480702064206C00F432
:100A0000805018B9206C40F001002064204600F0AE
:100A100035FA0BE0206C00F0100018B1204600F011
:100A200051FA03E0A06BC16C2846884770BD70B5D1
:100A30000546AC6B40202064606C40F004006064AC
:100A4000204600F03FFA70BD70B50446A56B2846FD
:100A500000F016FA70BD000055494A6822F4403291
:100A60004A604A6843681A434A600268526822F43E
:100A7000807203685A6002685368026943EA02227E
:100A800003685A600268526822F0407203685A6034
:100A90000268526883681A4303685A600268926861
:100AA00022F4006203689A6002689268C3681A437D
:100AB00003689A603F4B826A9A4218D00268926833
:100AC00022F0706203689A6002689268836A1A432F
:100AD00003689A600268926822F0405203689A6044
:100AE00002689268C36A1A4303689A600BE002685E
:100AF000926822F0706203689A600268926822F03D
:100B0000405203689A600268926822F00202036809
:100B10009A6002689368027E43EA420203689A6020
:100B20002022125CA2B10268526842F4006203689B
:100B30005A600268526822F4604203685A60026890
:100B40005368426A521E43EA423203685A6005E023
:100B50000268526822F4006203685A600268D26A2E
:100B600022F470020368DA620268D36A828B521E32
:100B700043EA02520368DA620268926822F4007261
:100B800003689A600268936890F8302043EA422232
:100B900003689A600268926822F4806203689A602F
:100BA00002689368426943EA822203689A60704748
:100BB000002301400100000F00BFFEE710B502480E
:100BC00000F0DEFB10BD0000E00C002010B5024874
:100BD00000F0D6FB10BD0000400D00200146087853
:100BE00010381823B0FBF3F20848805CC865032A6C
:100BF00005D908686FF30900001D886503E00868DF
:100C00006FF309008865886D70470000B0390008EF
:100C1000014600208A6A8B69CBB932B1012A0DD016
:100C2000022A03D0032A10D10EE000BFCB6A03F0E2
:100C30008073B3F1807F00D1012007E0CB6AB3F16C
:100C4000C07F00D1012001E000E000BF34E08B69EB
:100C5000B3F5005F1AD132B1012A07D0022A03D0BE
:100C6000032A11D10AE000BF01200EE0CB6A03F095
:100C70008073B3F1807F00D1012006E0CB6AB3F12D
:100C8000C07F00D1012000E000BF15E032B1012A91
:100C900005D0022A04D0032A0CD103E000BF00BF14
:100CA000012008E0CB6A03F08073B3F1807F00D1AC
:100CB000012000E000BF00BF704730B50468246821
:100CC00024F4802405682C60046863608468402CE8
:100CD00004D10468A2600468E16003E00468A160D4
:100CE0000468E26030BD704772B600BFFEE70000E6
:100CF00038B502460020009000BF92F83C00012861
:100D000001D1022038BD012082F83C0000BF0868F4
:100D1000092816D91068C0680C780A3C04EB440511
:100D20000724AC40A0431468E0600C780A3C04EB54
:100D300044048868A0401468E46820431468E060B4
:100D400013E0106800690C7804EB44050724AC40FC
:100D5000A043146820610C7804EB44048868A04028
:100D6000146824692043146820614868072817D252
:100D70001068406B0C79641E04EB84051F24AC40A2
:100D8000A04314686063088880B20C79641E04EB89
:100D90008404A0401468646B20431468606331E0ED
:100DA00048680D2817D21068006B0C79E41F04EB1B
:100DB00084051F24AC40A04314682063088880B2D7
:100DC0000C79E41F04EB8404A0401468246B2043D6
:100DD0001468206316E01068C06A0C790D3C04EBBF
:100DE00084051F24AC40A0431468E062088880B2E8
:100DF0000C790D3C04EB8404A0401468E46A2043A1
:100E00001468E062194B1A4C1068A04206D10868B9
:100E1000122803D1586840F480005860144C1068C0
:100E2000A0421CD10868102802D00868112816D1E9
:100E3000586840F400005860086810280FD10D4829
:100E400000680D4CB0FBF4F000EB80004000009017
:100E500002E00098401E009000980028F9D100BFE1
:100E6000002082F83C0000BF00BF4BE70023014098
:100E700000200140480C002040420F007047000055
:100E800010B504460B4920680968884205D1002046
:100E900009490870074800F0DDF908492068096829
:100EA000884205D1002006490870044800F0D2F9B4
:100EB00010BD0000500C0020380C0020980C0020C1
:100EC000390C00207047000070B5044600250CB9AD
:100ED000012070BD1549A06A884200D000BF206C77
:100EE00030B9204600F024F80020606484F83C000B
:100EF000206C00F0100088B9206C20F4885040F07D
:100F0000020020642046FFF7A7FD00206064206CEB
:100F100020F0020040F00100206400E0012500BF45
:100F2000002084F83C0000BF2846D2E70100000FF3
:100F300010B586B00446142101A8FFF701FA514903
:100F4000206888424AD100BF002000904E480068C7
:100F500040F480704C4908600846006800F48070D6
:100F6000009000BF00BF00BF00200090464814382A
:100F7000006840F0010044491439086008460068E0
:100F800000F00100009000BF00BF0120019003208D
:100F900002900020039001A93C4800F0E5FB3C488A
:100FA0003C4908600020486000213A488160C160E7
:100FB0004FF48061016149004161890081614911FB
:100FC000C16100210162416200F0FAFA08B1FFF745
:100FD0008BFE00BF2F48A063846350E02E49206839
:100FE00088424CD100BF002000902748006840F4A0
:100FF0000070254908600846006800F40070009001
:1010000000BF00BF00BF002000901F4814380068D8
:1010100040F001001C49143908600846006800F0DF
:101020000100009000BF00BF022001900320029049
:101030000020039001A9154800F096FB14483030B9
:10104000164908604FF00070486000211348816025
:10105000C1604FF480610161490041618900816193
:101060004911C16100210162416200F0A9FA08B191
:10107000FFF73AFE00BF0948A063846300BF06B0D3
:1010800010BD000000200140443802400000024032
:1010900010640240E00C002000210140400D0020BF
:1010A000F8B504460D4616460020009000BF94F89F
:1010B0003C00012801D10220F8BD012084F83C0049
:1010C00000BF2068806800F00100A0B92068806837
:1010D00040F0010021688860554800685549B0FB20
:1010E000F1F000EB4000009002E00098401E0090FC
:1010F00000980028F9D12068806800F48070B0F56D
:10110000807F05D12068806820F480702168886025
:101110002068806800F0010000287ED0206C40F23A
:101120000161884340F4807020642068406800F4C6
:10113000806028B1206C20F4005040F4805020647E
:10114000206C00F48050B0F5805F04D1606C20F01A
:101150000600606401E00020606400BF002084F8A5
:101160003C0000BF344F3548A16BC8633448A16BC5
:1011700008643448A16BC8646FF0220021680860DD
:101180002068406840F0806021684860206880687E
:1011900040F4807021688860226802F14C01334677
:1011A0002A46A06B00F082FA786800F01F0018BB96
:1011B00025492068884213D024492068884204D1F8
:1011C000381D006800F01F0050B121492068884296
:1011D0002BD11948001D006800F01F00102824D2F0
:1011E0002068806800F04050F8B92068806840F0BE
:1011F00080402168886018E013492068884214D133
:101200002068806800F0405078B92068806840F01D
:1012100080402168886008E0FFE7206C40F0100003
:101220002064606C40F001006064002044E700002E
:10123000480C002040420F0000230140B109000883
:10124000490A00082F0A000800200140002101403F
:101250000022014070B50446002500BF94F83C0010
:10126000012801D1022070BD012084F83C0000BF9C
:101270002068806820F0010021688860206880680C
:1012800000F00100F8B92068806820F480702168BF
:101290008860A06B90F83500022808D1A06B00F0A0
:1012A00019F805461DB1206C40F04000206420680C
:1012B000406820F0806021684860206C20F48850ED
:1012C00040F00100206400BF002084F83C0000BF13
:1012D0002846C8E770B50446A56D00F04DFB0646EC
:1012E00094F83500022808D08020606500BF0020F7
:1012F00084F8340000BF012070BD2068006820F031
:101300001600216808602068406920F0800021688C
:101310004861206C08B9A06C28B12068006820F0F2
:101320000800216808602068006820F0010021683A
:1013300008600FE000F020FB801B05280AD9202060
:10134000606500BF002084F8340000BF032084F8EB
:101350003500D1E72068006800F001000028E9D1DD
:1013600094F85C103F208840A86000BF002084F8FB
:10137000340000BF012084F835000020BCE70000E5
:10138000F8B50446002000908C4800684FF41651D0
:10139000B0FBF1F7A56D2E6894F85C10082088402A
:1013A000304098B12068006800F0040070B12068F7
:1013B000006820F004002168086094F85C100820A0
:1013C0008840A860606D40F00100606594F85C1092
:1013D00001208840304068B12068406900F08000FA
:1013E00040B194F85C1001208840A860606D40F026
:1013F0000200606594F85C1004208840304068B1B9
:101400002068006800F0020040B194F85C100420ED
:101410008840A860606D40F00400606594F85C103E
:1014200010208840304078B32068006800F0080041
:1014300050B394F85C1010208840A86020680068C1
:1014400000F4802080B12068006800F4002028B9F2
:10145000206CC8B12046216C884715E0A06C98B17B
:101460002046A16C88470FE02068006800F4807077
:1014700028B92068006820F0080021680860206C06
:1014800010B12046216C884794F85C1020208840D9
:101490003040002865D02068006800F01000002867
:1014A0005FD094F85C1020208840A86094F8350044
:1014B000052828D12068006820F0160021680860FF
:1014C0002068406920F0800021684861206C08B9DC
:1014D000A06C28B12068006820F00800216808602E
:1014E00094F85C103F208840A86000BF002084F87A
:1014F000340000BF012084F83500206D10B1204673
:10150000216D8847F8BD2068006800F4802080B114
:101510002068006800F4002028B9606C10B12046F3
:10152000616C88471DE0E06BD8B12046E16B8847CD
:1015300017E02068006800F4807068B920680068CF
:1015400020F010002168086000BF002084F83400FB
:1015500000BF012084F83500E06B10B12046E16B3C
:101560008847606D38B3606D00F00100F0B1052070
:1015700084F835002068006820F0010021680860C8
:1015800000BF0098401C0090B84200D905E02068D8
:10159000006800F001000028F3D100BF00BF002068
:1015A00084F8340000BF012084F83500E06C10B1ED
:1015B0002046E16C884700BFA4E70000480C0020EB
:1015C0002DE9F0410446002500F0D6F9074614B98C
:1015D0000120BDE8F081606A00B100BF00BF0020BB
:1015E00084F8340000BF022084F8350020680068C9
:1015F00020F00100216808600AE000F0BDF9C01B7E
:10160000052805D920206065032084F83500E0E72F
:101610002068006800F001000028EED1206805680D
:1016200021480540D4E901010843E16808432169E4
:10163000084361690843A1690843E1690843216AD5
:1016400008430543606A042803D1D4E90B01084329
:101650000543206805602068456925F00705606A34
:101660000543606A04280DD1A06A0543E06A48B1C9
:101670002046FFF7CDFA28B140206065012084F8AC
:101680003500A6E7206845612046FFF7A7FA064621
:1016900094F85C103F208840B06000206065012015
:1016A00084F83500002094E73F8010F02DE9F047E2
:1016B00004460D4616461F464FF00008D4F85890D1
:1016C00000BF94F83400012802D10220BDE8F08761
:1016D000012084F8340000BF94F83500012825D19A
:1016E000022084F83500002060653B4632462946DA
:1016F0002046FFF7E2FA94F85C103F208840C9F8D2
:1017000008002068006840F0160021680860206C1E
:1017100028B12068006840F008002168086020684F
:10172000006840F001002168086006E000BF00206A
:1017300084F8340000BF4FF002084046C6E70000BE
:1017400070B5044600F018F906462546681C10B12D
:1017500004480078054400BF00F00EF9801BA84241
:10176000FAD370BD440C0020F8B502460B460025A4
:10177000002400200021DEE0012606FA01F51E68A3
:1017800006EA0504AC4275D11E7906F00306012E67
:1017900004D01E7906F00306022E13D190684F0084
:1017A0000326BE40B0434F00DE68BE403043906029
:1017B000506801268E40B0431E79C6F300168E4055
:1017C000304350601E7906F00306032E09D0D0681E
:1017D0004F000326BE40B0434F009E68BE403043DA
:1017E000D0601E7906F00306022E13D1CF0802F155
:1017F000200656F827004E07F70E0F26BE40B043CE
:101800004F07FF0E1E69BE403043CF0802F120068D
:1018100046F8270010684F000326BE40B0431E79EB
:1018200006F003064F00BE40304310605E6806F0CD
:101830008056B6F1805F7DD100BF00260096404EF5
:10184000366846F480463E4F3E603E46366806F4B3
:101850008046009600BF00BF3A4E8F0856F827001A
:101860008E07370F0F26BE40B043374EB24202D12B
:10187000002624E05EE0354EB24201D101261EE092
:10188000334EB24201D1022619E0324EB24201D1AA
:10189000032614E0304EB24201D104260FE02F4E51
:1018A000B24201D105260AE02D4EB24201D10626F0
:1018B00005E02C4EB24201D1072600E008268F0732
:1018C0003F0FBE4030431F4E8F0846F82700264E7C
:1018D0003068A0435E6806F48036B6F5803F00D1DC
:1018E0002043214E3060361D3068A0435E6806F408
:1018F0000036B6F5003F00D120431B4E361D306048
:10190000361D3068A0435E6806F48016B6F5801F69
:1019100000D12043144E08363060361D3068A04395
:101920005E6806F40016B6F5001F00D120430E4E87
:101930000C363060491C1029FFF41EAFF8BD0000C2
:1019400044380240083801400000024000040240D0
:1019500000080240000C0240001002400014024047
:1019600000180240001C0240003C01400AB18161A5
:1019700001E00B0483617047014800687047000074
:101980003C0C0020034800680349097808440149D9
:10199000086070473C0C0020440C002010B50D4836
:1019A000006840F400700B4908600846006840F485
:1019B000806008600846006840F48070086003207A
:1019C00000F0A2F8002000F007F800F02BF800204B
:1019D00010BD0000003C024070B504460E4800787F
:1019E0004FF47A71B1FBF0F00C490968B1FBF0F5E6
:1019F000284600F043FC08B1012070BD102C07D22E
:101A000000222146501E00F041F80548046001E024
:101A10000120F2E70020F0E7440C0020480C0020F1
:101A2000400C002008B500BF002000900E48006860
:101A300040F480400C4908600846006800F480408B
:101A4000009000BF00BF00BF00200090081F00688A
:101A500040F08050091F08600846006800F0805080
:101A6000009000BF00BF08BD443802400146084650
:101A7000002809DB00F01F0301229A4043099B0064
:101A800003F1E023C3F8002100BF70472DE9F05FA8
:101A900080460D461646002701F020F807463946D5
:101AA0002A46334601F00700C0F1070ABAF1040FD5
:101AB00002D94FF0040A01E0C0F1070AD14600F153
:101AC000040ABAF1070F02D24FF0000A01E0A0F1B8
:101AD000030AD4464FF0010A0AFA09FAAAF1010AE8
:101AE0000AEA020A0AFA0CFA4FF0010B0BFA0CFB95
:101AF000ABF1010B0BEA030B4AEA0B04214640460B
:101B000000F0F4FFBDE8F09F00BF00F00702064BB5
:101B100019684FF6FF031940044B0B4343EA0221B7
:101B2000014B196000BF70470CED00E00000FA05A2
:101B30007047000070B504460D460CB9012070BD19
:101B40005848006800F00700A84209D255490D70B6
:101B50000846006800F00700A84201D00120EEE727
:101B6000207800F0020002281DD1207800F0040047
:101B7000042805D14C48006840F4E0504A49086008
:101B8000207800F00800082805D14748006840F494
:101B90006040454908604448006820F0F000A168B2
:101BA000084341490860207800F00100A8B360684C
:101BB000012807D13C4808380068C0F34040B8B954
:101BC0000120BCE76068022802D06068032807D1C2
:101BD000354808380068C0F3406048B90120AEE7D6
:101BE000314808380068C0F3400008B90120A6E772
:101BF0002D48006820F00300616808432A49086006
:101C0000FFF7BAFE064609E0FFF7B6FE801B41F279
:101C10008831884202D9032091E707E02248006812
:101C200000F00C006168B0EB810FEDD11D48006839
:101C300000F00700A84209D91A490D70084600684B
:101C400000F00700A84201D0012078E7207800F0DA
:101C50000400042807D11448006820F4E050E1682B
:101C6000084311490860207800F00800082808D1CE
:101C70000D48006820F46040216940EAC1000A492B
:101C8000086000F045F808490968C1F30311074AE4
:101C9000515CC8400649086006480068FFF79CFE92
:101CA00000204CE7003C024008380240B8390008E8
:101CB000480C0020400C002001200149C8647047F6
:101CC000000047420148006870470000480C0020AF
:101CD00000B5FFF7F7FF04490968C1F38221034A01
:101CE000515CC84000BD000008380240C8390008F7
:101CF00000B5FFF7E7FF04490968C1F34231034A21
:101D0000515CC84000BD000008380240C8390008D6
:101D10002DE9F047002400250026A146254800684B
:101D200000F00C0020B1042805D008283AD105E0C5
:101D3000DFF8849039E0DFF8849036E01D48001F1A
:101D4000006800F03F041B48001F006800F480009A
:101D500078B11A481749091F0968C1F38811A0FB17
:101D600001700146224600233846FEF7A1FA0546D7
:101D70000EE011480F49091F0968C1F38811A0FB43
:101D800001700146224600233846FEF791FA0546C7
:101D90000848001F0068C0F30140401C4600B5FB26
:101DA000F6F902E0DFF8109000BF00BF4846BDE83A
:101DB000F0870000083802400024F40000127A0086
:101DC00010B50648006800F08000802805D1FFF7B4
:101DD000AFFE80200149891C087010BD0C380240FC
:101DE000F8B504460CB90120F8BD207800F00100D8
:101DF000002874D0F948006800F00C0004280DD0C9
:101E0000F648006800F00C00082813D1F348001FC2
:101E1000006800F48000B0F5800F0BD1EF4808385F
:101E20000068C0F34040002859D06068002856D1AF
:101E30000120D9E700BF6068B0F5803F08D1E748CE
:101E40000838006840F48030E449083908601EE032
:101E50006068B0F5A02F0DD1E0480838006840F464
:101E60008020DE49083908600846006840F4803068
:101E700008600CE0D9480838006820F48030D74961
:101E8000083908600846006820F48020086000BF18
:101E9000606890B1FFF770FD054606E0FFF76CFD46
:101EA000401B642801D903209EE7CC48083800680D
:101EB000C0F340400028F1D011E0FFF75DFD05467A
:101EC00006E0FFF759FD401B642801D903208BE78A
:101ED000C24808380068C0F340400028F1D120789B
:101EE00000F0020002285FD1BC48006800F00C003E
:101EF00058B1BA48006800F00C0008281CD1B74857
:101F0000001F006800F48000B0B9B44808380068C9
:101F1000C0F3400020B1E068012801D0012063E750
:101F2000AE480838006820F0F800216940EAC10096
:101F3000AA490839086037E0E06800B30120A849E1
:101F40000860FFF719FD054606E0FFF715FD401B89
:101F5000022801D9032047E7A04808380068C0F3E9
:101F600040000028F1D09D480838006820F0F800B3
:101F7000216940EAC10099490839086014E000204D
:101F800097490860FFF7F8FC054606E0FFF7F4FC08
:101F9000401B022801D9032026E790480838006832
:101FA000C0F340000028F1D1207800F00800082894
:101FB0002CD16069A8B101208A490860FFF7DCFCD8
:101FC000054606E0FFF7D8FC401B022801D9032094
:101FD0000AE782486C300068C0F340000028F1D066
:101FE00014E000207F490860FFF7C6FC054606E0C4
:101FF000FFF7C2FC401B022801D90320F4E6774812
:102000006C300068C0F340000028F1D1207800F067
:102010000400042870D1002770483830006800F0B0
:10202000805090B900BF002000906C4838300068A4
:1020300040F080506949383108600846006800F077
:102040008050009000BF00BF01276748006800F47F
:102050008070B0B96448006840F4807062490860DC
:10206000FFF78AFC054606E0FFF786FC401B0228C6
:1020700001D90320B8E65C48006800F480700028AD
:10208000F2D000BFA068012808D154486830006829
:1020900040F001005149683108601DE0A068052842
:1020A0000DD14E486830006840F004004B4968315B
:1020B00008600846006840F0010008600CE04748EE
:1020C0006830006820F00100444968310860084623
:1020D000006820F00400086000BFA068A8B1FFF706
:1020E0004BFC054609E0FFF747FC401B41F28831F5
:1020F000884202D9032077E626E038486830006835
:10210000C0F340000028EED013E0FFF735FC054691
:1021100008E0FFF731FC401B41F28831884201D9C9
:10212000032061E62D4868300068C0F340000028B5
:10213000EFD1012F07D129483830006820F08050B6
:1021400026493831086000BFA069002845D02348DF
:10215000006800F00C0008285DD0A069022845D175
:1021600000201F490866FFF707FC054606E0FFF759
:1021700003FC401B022801D9032035E61748083824
:102180000068C0F340600028F1D1D4E9070108439A
:10219000616A40EA81110122A06AC2EB500041EA63
:1021A00000412C20005D41EA00600C49091F0860D5
:1021B00001200B490866FFF7DFFB054606E0FFF745
:1021C000DBFB401B022801D903200DE60348083839
:1021D0000068C0F340600028F1D049E008380240B0
:1021E00000004742800E4742007000400020214915
:1021F0000866FFF7C1FB054606E0FFF7BDFB401B85
:10220000022801D90320EFE51B480068C0F34060B5
:102210000028F2D12CE0A069012800D1E4E516489D
:10222000001D0668A069012820D006F48001E0693D
:1022300081421BD106F03F01206A814216D147F648
:10224000C0703040616AB0EB811F0FD106F440319D
:102250000122A06AC2EB5000B1EB004F06D106F09C
:1022600070612C20005DB1EB006F01D00120BBE557
:102270000020B9E5000047420038024070B504462E
:102280002546681EB0F1807F01D301200FE0681E53
:102290004FF0E02148610F214FF0FF3000F026FCA5
:1022A00000204FF0E021886107200861002070BD08
:1022B00010B504460CB9012010BDA06900B100E0C2
:1022C00000BF94F83D0028B9002084F83C00204667
:1022D00000F028F8242084F83D002068C06820F42D
:1022E00000502168C860204600F082FA206800692A
:1022F00020F49040216808612068406920F02A009D
:10230000216848612068C06840F400502168C860B6
:1023100000202064202084F83D0084F83E00002046
:10232000CAE7000010B586B00446142101A8FEF7E4
:1023300007F81B492068884230D100BF0020009078
:102340001848006840F01000164908600846006808
:1023500000F01000009000BF00BF00BF0020009000
:1023600010481438006840F001000E491439086024
:102370000846006800F00100009000BF00BF4FF465
:10238000C06001900220029000200390032004907E
:102390000720059001A90448FFF7E6F906B010BD33
:1023A0000010014044380240000002402DE9F84F7F
:1023B00004460E46174699464FF0000A94F83D0031
:1023C00020285AD106B117B90120BDE8F88F00BF07
:1023D00094F83C00012801D10220F6E7012084F89E
:1023E0003C0000BF00202064212084F83D00FFF75E
:1023F000C3FA8246A784E784A068B0F5805F04D161
:10240000206910B90025B04602E035464FF00008BB
:1024100000BF002084F83C0000BF1BE053460022B0
:1024200080212046CDF8009000F0F8FA08B1032092
:10243000CBE745B9B8F80000C0F308002168486050
:1024400008F1020803E02878216848606D1CE08CE0
:10245000401EE084E08C0028E0D153460022402159
:102460002046CDF8009000F0D9FA08B10320ACE77F
:10247000202084F83D000020A7E70220A5E700BF48
:10248000FEE700001FB5002000900190029003902D
:102490001648174908604FF48030486000211448FE
:1024A0008160016101210176002180F82010C16264
:1024B000104981620021C1600121C161002180F8C1
:1024C000301001214161FEF7FFFC08B1FEF70CFC62
:1024D00000200090012001900020029069460448ED
:1024E000FEF706FC08B1FEF7FFFB1FBD0020014010
:1024F000500C00200100000F1FB50020009001903B
:10250000029003901648174908604FF480304860E5
:10251000002114488160016101210176002180F8C9
:102520002010C162104981620021C1600121C16196
:10253000002180F8301001214161FEF7C5FC08B18F
:10254000FEF7D2FB01200090019000200290694626
:102550000448FEF7CDFB08B1FEF7C6FB1FBD000027
:1025600000210140980C00200100000F08B500BFB9
:10257000002000900E48006840F480000C4908607C
:102580000846006800F48000009000BF00BF0022F1
:1025900011463820FFF77AFA3820FFF767FA002251
:1025A00011463A20FFF772FA3A20FFF75FFA08BDAA
:1025B0003038024000B587B0142102A8FDF7C0FEF4
:1025C00000BF002001904048006840F020003E49D4
:1025D00008600846006800F02000019000BF00BFBE
:1025E00000BF002001900846006840F080000860AD
:1025F0000846006800F08000019000BF00BF00BFE7
:10260000002001900846006840F00100086008467C
:10261000006800F00100019000BF00BF00BF002073
:1026200001900846006840F04000086008460068D5
:1026300000F04000019000BF00BF00BF00200190EB
:102640000846006840F0020008600846006800F094
:102650000200019000BF00BF012243F6FF711B483A
:10266000FFF784F901224FF43E411948FFF77EF944
:1026700000224FF480411648FFF778F943F6FF70C7
:1026800002900120039004900320059002A90F48B6
:10269000FFF76AF84FF4FC40029001200390049089
:1026A0000320059002A90A48FFF75EF84FF40040A6
:1026B00002900120039004900020059002A9044894
:1026C000FFF752F807B000BD303802400014024056
:1026D0000018024010B50B480B4908604FF4E13078
:1026E0004860002108488160C16001610C2141619E
:1026F00000218161C161FFF7DBFD08B1FEF7F4FA4B
:1027000010BD000000100140A00D002000BFFEE73A
:10271000FFF756FB00BFFEE77047704710B5FFF7A5
:1027200031F910BD00B593B0302107A8FDF708FEC0
:10273000142102A8FDF704FE00BF002001902548E7
:10274000006840F08050234908600846006800F0A7
:102750008050019000BF00BF00BF002001901E48C4
:10276000006840F480401C4908600846006800F496
:102770008040019000BF00BF012007900004089036
:1027800002200D9041050E9104210F91A821109176
:10279000022111910421129107A8FFF721FB08B132
:1027A000FEF7A2FA0F20029002200390002004906E
:1027B0004FF4A05005904FF480500690052102A8D8
:1027C000FFF7B8F908B1FEF78FFAFFF775FA13B003
:1027D00000BD00004038024000700040034800681F
:1027E00040F47000014908607047000088ED00E087
:1027F0002DE9F84F04462068006920F44050E16854
:102800000843216808612169A06808436169084399
:10281000E169084300902068C06849F20C61884370
:10282000009908432168C8602068406920F440701E
:10283000A16908432168486176492068884203D02D
:1028400075492068884203D1FFF752FA814602E0B9
:10285000FFF73EFA8146E069B0F5004F6CD10220E7
:102860006168A0FB015003461920A9FB00700146D6
:102870002A463846FDF71CFD6421B0FBF1F04FEA13
:10288000001A02206168A0FB01510B461920A9FB28
:1028900000712A463846FDF70BFD83460220616829
:1028A000A0FB015003461920A9FB00712A463846B7
:1028B000FDF7FEFC6421B0FBF1F000EBC00101EB81
:1028C0000010ABEB8000322101EBC0006421B0FBB3
:1028D000F1F000F0F8000AEB400A02206168A0FB6A
:1028E000015003461920A9FB007001462A463846CC
:1028F000FDF7DEFC834602206168A0FB0150034621
:102900001920A9FB00712A463846FDF7D1FC642145
:10291000B0FBF1F000EBC00101EB0010ABEB80006D
:10292000322101EBC0006421B0FBF1F000F00700A0
:102930005044216888606AE004206168A0FB01506F
:1029400003461920A9FB007001462A463846FDF7C8
:10295000AFFC824604206168A0FB015003461920A9
:10296000A9FB007001462A463846FDF7A1FC642108
:10297000B0FBF1F000EBC00101EB0010AAEB80000E
:10298000322101EB00106421B0FBF1F000F0F00AFD
:1029900004206168A0FB017003461920A9FB0051C7
:1029A0003A462846FDF784FC6421B0FBF1F00AEBBF
:1029B000001A04206168A0FB01510B461920A9FBF5
:1029C00000712A463846FDF773FC8346042061688F
:1029D000A0FB015003461920A9FB007001462A46BE
:1029E0003846FDF765FC6421B0FBF1F000EBC00157
:1029F00001EB0010ABEB8000322101EB00106421F1
:102A0000B0FBF1F000F00F00504421688860BDE891
:102A1000F88F000000100140001401402DE9F04142
:102A200004460D4617469846069E21E0701CF8B1F4
:102A30002EB1FEF7A1FFA0EB0800B04218D9206824
:102A4000C06820F4D0702168C8602068406920F018
:102A5000010021684861202084F83D0084F83E0090
:102A600000BF002084F83C0000BF0320BDE8F081D7
:102A7000206800682840A84201D1012000E0002021
:102A8000B842D3D00020F1E700BFFEE70FB4054BFA
:102A900010B503A9044A029800F014FB10BC5DF8BD
:102AA00014FB0000E53700084C0C002003B401982B
:102AB0004100009850EAC12018BF04204A0D18BFF9
:102AC00040F0010040F2FF72B2EB515F08BF40F0EE
:102AD0000200012808BF052002B0704702480068C4
:102AE000C0F30220704700000CED00E010B5002894
:102AF00004DB0A07130E054A135406E00A07140EF6
:102B0000034A00F00F031B1FD45410BD00E400E083
:102B100018ED00E00000000070B59B482DED020BA1
:102B20002DED068B079D25F00044A04218DC974848
:102B3000844202DC0AD1069840B19DED060BBDEC43
:102B4000068B02B0BDE8704000F0CEB9002DCCBFBE
:102B50009FED8F0B9FED900BBDEC068B02B070BD0F
:102B60008F48A04215DD8F48A042D8BF4FF0FF34F8
:102B700058DD9DED060B51EC100BFFF797FF042875
:102B800008BF00F0BDF99DED060BBDEC068B02B051
:102B900070BD9DED060B51EC100B00F016FECDE95B
:102BA000060181489FED828BA0423CDD8248A04215
:102BB0001FDD00249FED82AB9DED060B53EC1A2B1D
:102BC00051EC100BFDF7FFFB9DED060B41EC190BD3
:102BD00053EC1A2B51EC100BFDF79CFC53EC182B0B
:102BE000FDF792FC53EC192BFDF706FDCDE906012C
:102BF00049E09DED060B012453EC182B51EC100B12
:102C0000FDF7E1FB9DED060B41EC190B53EC182B86
:102C100051EC100BFDF778FC53EC192BFDF7ECFC95
:102C2000CDE906012FE06848A0421FDD02249FED98
:102C3000689B9DED060B53EC192B51EC100BFDF727
:102C400069FC53EC182BFDF7BEFB9DED060B41EC28
:102C5000180B53EC192B51EC100BFDF755FC53ECF2
:102C6000182BFDF7C9FCCDE906010CE09DED060B24
:102C7000032453EC102B9FED580B51EC100BFDF778
:102C8000BBFCCDE906019DED060B53EC102B51EC7E
:102C9000100BFDF73FFC41EC180B53EC182BFDF724
:102CA00039FC41EC190B4E480621B0EE490AF0EE12
:102CB000690A784400F09CF853EC182B51EC100B87
:102CC000FDF728FC41EC180B4648B0EE490AF0EE3F
:102CD000690A0521784400F08BF853EC192B51EC6C
:102CE000100BFDF717FC41EC100B51EC180B53ECDB
:102CF000102B002C0EDAFDF766FB9DED061B53EC46
:102D0000112BFDF707FC9DED061B53EC112BFDF776
:102D1000FEFB35E0FDF757FB9DED061B53EC112B39
:102D2000FDF7F8FB41EC100B2F48784400EBC40092
:102D300090ED001B51EC100B53EC112BFDF7E4FB55
:102D40009DED061B53EC112BFDF7DEFB41EC100B48
:102D50002648784400EBC40090ED001B51EC100BAA
:102D600053EC112BFDF7D3FB41EC100B002DA2BF50
:102D7000BDEC068B02B070BD51EC100B81F0004130
:102D800041EC100B01E70000000010440000F07F50
:102D9000182D4454FB21F93F182D4454FB21F9BF51
:102DA0000000DC3F0000203E0000F33F0000000078
:102DB000000000000000F03F0000E63F00000000BF
:102DC0000000000000000040008003400000000000
:102DD000000000000000F83F000000000000F0BF0D
:102DE000820D0000380D0000C20C00007A0C0000BB
:102DF00070B504462DED028B4D1E00EBC500B0EE04
:102E0000408AF0EE608A90ED000B35F0060017D096
:102E100053EC182B51EC100BFDF77CFB41EC100B25
:102E20006D1E04EBC50090ED001B51EC100B53EC34
:102E3000112BFDF7C8FA41EC100B35F00600E7D175
:102E4000022D36D0042D1CD0062D1CBFBDEC028BEC
:102E500070BD53EC182B51EC100BFDF75BFB94EDA0
:102E60000A1B53EC112BFDF7AEFA53EC182BFDF7B0
:102E700051FB94ED081B53EC112BFDF7A4FA41EC28
:102E8000100B53EC182B51EC100BFDF743FB94ED9A
:102E9000061B53EC112BFDF796FA53EC182BFDF79C
:102EA00039FB94ED040B53EC102BFDF78CFA41EC3D
:102EB000100B53EC182B51EC100BFDF72BFB94ED82
:102EC000021B53EC112BFDF77EFA53EC182BFDF788
:102ED00021FB94ED001B53EC112BFDF774FABDECB4
:102EE000028B41EC100B70BD10B553EC102B51EC64
:102EF000100BFDF768FA41EC100B10BD000000004C
:102F00009FED050B10B553EC102B51EC100BFDF79A
:102F100001FB41EC100B10BD000000000000001090
:102F200002E008C8121F08C1002AFAD17047704792
:102F3000002001E001C1121F002AFBD170470000F0
:102F40002DE9FF5F82B00021DDE90430020DDDF8DC
:102F500040B0034318D044F61050A2F2FF3242436F
:102F60001514119801281FD0A5EB0B00401C5FEA37
:102F7000000A4FF000064E4FDFF83891B046504639
:102F800015D5CAF1000413E0119801244AA30128C1
:102F900001D16FEA0B010298119AC0E90031C0E932
:102FA000024206B0BDE8F09FCBF10000DFE7044627
:102FB0000021404A491842EB0450CDE9001012E0CC
:102FC000E00707D032463B4640464946FDF7A2FAA5
:102FD0008046894632463B4610461946FDF79AFA26
:102FE00006460F466410002CEAD1DDE90401DDE954
:102FF0000023BAF1000F06DAFDF78CFA42464B4681
:10300000FDF788FA05E0FDF7F7FA42464B46FDF773
:10301000F3FA04460E460022284BFDF775FB03D851
:103020004FF0FF30014607E00022254B2046314695
:10303000FDF7C9F9FDF74FFB102409E0002C0ADB6E
:103040000A220023FDF734F9039B30321A55641E1F
:1030500050EA0102F2D1641C039AC4F11103144432
:10306000119A012A03D0012208430DD10AE0084336
:1030700004D000204FF0110B119072E7A3EB0B0569
:103080006D1E0DE05B4504DD4FF0000205F101050A
:1030900004E003DA4FF00002A5F10105002AECD0AC
:1030A00002981199C0E90231C0E9004579E70000B2
:1030B000000014400000F03F300000000000F0432A
:1030C0000000E03F2DE9FF4F95B09A46884606463E
:1030D0000025EEE1252877D100242746F94A012171
:1030E000039400E0044316F8013F203B01FA03F08B
:1030F0001042F7D130782A2811D06FF02F033078A2
:10310000A0F13002092A16D8039A44F0020402EB17
:10311000820203EB42021044761C0390EFE758F85A
:10312000042B0392002A03DA504244F40054039023
:1031300044F00204761C30782E2816D116F8010FC0
:1031400044F004042A280DD06FF02F023078A0F14B
:103150003003092B09D807EB870302EB4303C71899
:10316000761CF3E758F8047B761C30786C280FD077
:1031700006DC4C2817D068280DD06A2814D104E04A
:10318000742810D07A280FD10DE044F400140AE01E
:1031900044F4801401E044F440147278824202D175
:1031A00004F58014761C761C307866280BD013DC6E
:1031B000582877D009DC002875D04528F6D0462855
:1031C000F4D047281AD193E118E0632835D0642859
:1031D00079D0652812D18BE1702873D008DC67287C
:1031E000F1D069286FD06E280DD06F2806D1ACE0E1
:1031F00073282CD0752874D0782853D0524617994C
:1032000090476D1C54E1C4F30250022809D00328F2
:103210000DD0D8F8001004280DD00D6008F1040876
:1032200046E1D8F80010EA17C1E90052F6E7D8F8ED
:1032300000100D80F2E70D70F0E718F8041B8DF810
:10324000001000208DF80100EB46012003E058F843
:1032500004BB4FF0FF3061074FF0000102D40DE0D6
:1032600009F101018946B9420FDA8145F8DB1BF803
:1032700009100029F4D108E009F1010189468142D1
:10328000FADB1BF809100029F6D103985346A0EB8E
:10329000090721463846179A00F080FA284400EBC7
:1032A000090507E044E008E10DE01BF8010B524678
:1032B00017999047B9F10109F7D25346214638468C
:1032C000179AF2E039E00A21C4F302524FF0000BE2
:1032D0000091022A06D058F8040BC117032A09D01E
:1032E0000AE023E008F1070020F00702F2E80201FB
:1032F000904605E000B2C117042A01D140B2C117BF
:10330000002906DA0A460021404261EB02012D2223
:1033100002E0220504D52B228DF80420012203E0CF
:10332000E20701D02022F7E7914657E00A2100E0AA
:1033300010214FF0000B00910BE010214FF0000B1B
:1033400044F004040827009103E008204FF0000B2C
:103350000090C4F30252022A05D058F8040B002151
:10336000032A08D008E008F1070020F00702F2E87D
:103370000201904603E080B2042A00D1C0B24FF0AF
:10338000000922072AD53278702A07D0DDF800C05C
:103390008CF0100C5CEA0B0C05D00EE040228DF88E
:1033A0000420012208E050EA010306D030238DF802
:1033B00004308DF8052002229146009B83F008031B
:1033C00053EA0B030AD150EA010201D1620705D585
:1033D00030228DF804204FF001097F1E3278582AE0
:1033E00004D039A20C920CAA02920BE03BA2F9E79E
:1033F0005B46009AFCF75CFF0C9B9B5C029A521E9A
:103400000292137050EA0102F2D1029804A9081A3C
:1034100000F1200B600702D524F4803400E001277E
:103420005F4502DDA7EB0B0000E0002000EB0B0185
:10343000009003984944401A0390E00306D4534691
:103440002146179A039800F0A9F90544002706E0E1
:1034500001A85246C05D179990476D1C7F1C4F45CF
:10346000F6DBE0030CD553462146179A039800F08B
:1034700095F9054404E030205246179990476D1C99
:103480000099481E00900029F5DC08E00298029996
:1034900052460078491C0291179990476D1CBBF168
:1034A0000001ABF1010BF1DC5BE100F065F90544D3
:1034B000761C307800287FF40DAE19B02846BDE8A0
:1034C000F08F0000092801003031323334353637AF
:1034D0003839616263646566000000003031323360
:1034E0003435363738394142434445460000000000
:1034F000600700D4062708F1070020F00700F0E875
:103500000223804603F0004C5FEA0C0001D097A034
:1035100009E0200501D596A005E0E00701D095A0BF
:1035200001E0AFF24C001390307823F0004365289F
:103530000CD006DC452809D046281DD047287FD16D
:103540003BE0662818D067287AD136E00021112F99
:1035500001DB112000E0781CCDE9000104A90CA8D2
:10356000FFF7EEFCDDE90D010C9A4FF0000B07F1BF
:103570000109109200914EE04FF000400097CDE914
:10358000011004A90CA8FFF7DBFCDDE90D020C9B80
:103590000F994FF0000B91461093009211B9791CCE
:1035A00000EB0109B7EB090003D4C0F1FF3B07F1C1
:1035B0000109A9EB0700019042E0012F00DA012781
:1035C0000021112F01DD112000E03846CDE9000176
:1035D00004A90CA8FFF7B4FCDDE90D010C9A0091D9
:1035E0004FF0000BB946109221070FD4009A4A45BC
:1035F00003DA914601E0A9F10109B9F1010F05DDF6
:10360000109AA9F10101515C3029F4D0B84202DAD4
:1036100010F1040F03DA0121CDE9011010E00028B8
:1036200003DC8344A9EB000102E0411C494500DDB5
:103630008946A0EB0B00401C01904FF00040029027
:10364000200705D40198484502DB4FF0FF30019078
:1036500000208DF84B0002980DF14B07B0F1004FA0
:1036600025D002200C902B200D90029800280CDA17
:10367000404202902D200D9007E00A210298FCF7AD
:103680007DFE3031029007F8011D0C99481E0C9008
:103690000029F2DC02980028EFD1791E0D980870FD
:1036A000307800F0200040F0450007F8020D11A826
:1036B000C01BC01D02901398007800B1012000EBE0
:1036C0000901019801EBE071029801440398401A46
:1036D000401E0390E00306D453462146179A0398F0
:1036E00000F05CF805441398007818B15246179919
:1036F00090476D1CE00323D553462146179A039843
:1037000000F04CF805441BE0BBF1000F07DB00980C
:10371000584504DD1098179910F80B0001E017992F
:1037200030205246904701980BF1010B401E05F1E5
:103730000105019004D12E205246179990476D1C27
:10374000B9F10001A9F10109DEDC05E017F8010B70
:103750005246179990476D1C0299481E0290002905
:10376000F4DC53462146179A03989EE62D0000008C
:103770002B000000200000002DE9F0410446002548
:103780001E461746880404D405E039462020B04779
:103790006D1C641EF9D52846BDE8F0812DE9F04185
:1037A000044600251E469046C80301D5302700E098
:1037B0002027880404D505E041463846B0476D1CF3
:1037C000641EF9D52846BDE8F08182B0CDE900013C
:1037D00021F0004001909DED000B02B051EC100B68
:1037E0007047000038B504460D46E0B20090022351
:1037F000012269460248FEF7D9FD002038BD0000CD
:10380000A00D00202DED048BADF5CA6DFEF7C6F8B6
:10381000FEF788FFFEF7CEFEFEF7A8FEFEF732FEAB
:10382000FEF76AFEFEF756FFFDF736F80025A5E025
:10383000554800EBC501D1E900614FF47A6230468A
:10384000FDF760F83220FDF77BFFC8220DF5986187
:103850004E48FDF725FCC822CCA94D48FDF720FCB9
:1038600000BF4C4800780028FBD14B480078002866
:10387000F7D1002429E00DF5986030F8140000EE2F
:10388000100AB8EE400ADFED450A20EE200ADFED0F
:10389000440A80EE201A68A800EB840080ED001A2C
:1038A000CCA830F8140000EE100AB8EE400ADFEDA4
:1038B0003B0A20EE200ADFED3A0A80EE201A04A827
:1038C00000EB840080ED001A641C642CD3D303AA9F
:1038D000642168A8FCF776FC02AA642104A8FCF71E
:1038E00071FCDDED030A60EEA00A9DED021ADDED2C
:1038F000021AB0EE600A01EE210AB5EEC00AF1EE3E
:1039000010FA04DBF1EEC00ACDED010A04E0DFEDB0
:10391000250ACDED010A00BF9DED030ADDED020A87
:1039200080EE201A11EE106A3046FCF714FD41ECCF
:10393000180BB0EE480AF0EE680AFFF7EDF8B0EEAB
:10394000409AF0EE609A0198FCF705FD41EC180BE7
:1039500053EC182B14A0FFF799F801200D490870BB
:103960000D490870C8220DF598610848FDF798FBCD
:10397000C822CCA90648FDF793FB6D1CB5F5C37FA3
:10398000FFF456AF00BFFEE700000020500C0020FF
:10399000980C0020380C0020390C002033335340A1
:1039A0000000804500000000252E32660D0A000050
:1039B00000061016000610160000000000000000AF
:1039C00001020304060708090000000001020304C5
:1039D0004FBB610567ACDD3F182D4454FB21E93F27
:1039E0009BF681D20B73EF3F182D4454FB21F93F16
:1039F000E2652F227F2B7A3C075C143326A6813C9C
:103A0000BDCBF07A8807703C075C143326A6913C46
:103A1000C4EB98999999C9BF711623FEC671BCBFB2
:103A20006D9A74AFF2B0B3BF9AFDDE522DDEADBF1A
:103A30002F6C6A2C44B4A2BF0D5555555555D53F32
:103A4000FF8300922449C23F6E204CC5CD45B73F4D
:103A5000513DD0A0660DB13FEB0D76244B7BA93FC5
:103A600011DA22E33AAD903F883A000800000020C6
:103A7000500C00003A08000854440008500C002084
:103A800098410000302F0008100E41A70D74DA0095
:103A900000002E6B754CF008100E1B2FDD24060164
:103AA000000008F344FD1B081006F4B6ACD531083D
:103AB0001006E17A14AE47081006CE3E7C865D08FB
:103AC0001006BB02E45E73081006A8C64B378908CF
:103AD0001006958AB30F9F081006824E1BE8B408A3
:103AE00010066F1283C0CA0810065BD6EA98E00879
:103AF0001006489A5271F608200A355EBA490C023F
:103B000000002201110810060FE689FA371010068E
:103B1000FCA9F1D24D081006E96D59AB63081006F7
:103B2000D631C18379081006C3F5285C8F081006CA
:103B3000AFB99034A50810069C7DF80CBB081006A0
:103B4000894160E5D00810067605C8BDE608100674
:103B500063C92F96FC08100E508D976E120300005B
:103B60003D51FF46280810062A15671F3E0810061B
:103B700017D9CEF753081006039D36D069201006DA
:103B8000F0609EA87F0811EE1381950813CAE879AA
:103B9000110812B7EF12C1081006A4703D0AD70829
:103BA00010069134A5E2EC08227E7710090400008B
:103BB0006ABC7493180810065780DC6B2E082244E8
:103BC00001110810063108AC1C5A0810061ECC134F
:103BD000F56F0810060B907BCD85301006F853E387
:103BE000A59B081006E5174B7EB1081006D2DBB284
:103BF00056C7081006BE9F1A2FDD081006AB638259
:103C000007F308100E9827EADF0805000085EB513E
:103C1000B81E082272F1110810065F7321694A0864
:103C2000134C37F21108100639FBF019760810060C
:103C300026BF58F28B08256712A13811EE13A3B7DF
:103C40000813EC0A79110821EF12E3081006C69256
:103C50005F2CF90812B37610060F060000A0771249
:103C6000240810068DDE96B53A08100679A2FE8D5E
:103C70005008226601110817532AE2110810064065
:103C8000EE3517920810062DB29DEFA708261A6987
:103C900011081006073A6DA0D3481006F4FDD47839
:103CA000E9081006E1C13C51FF082409CD85A4298B
:103CB00015070000DE122B0829571240081394D173
:103CC000F1110810068195438B6C08166EDF128285
:103CD0000810065B1D133C98082A48591108163530
:103CE0006712C30811EE13C5D908220E791150319D
:103CF000EF1009080000E8B4814E1B081006D578C3
:103D0000E926310812C2771246081006AF00B9D76B
:103D10005C0810069CC420B0720813898801110841
:103D200019CE13609E08100662105839B4081006A8
:103D30004FD4BF11CA08363C6910080000295C8FB7
:103D4000C2F50818071620F79A0B091819CF122187
:103D5000081BF0A7D1110815DE13244D08295712AE
:103D6000620813B6F3F111081006A3B765AD8E080B
:103D700025DF12A4081B7D3FD211082A6A591108B9
:103D800016576712E6081006448B6CE7FB082230D2
:103D90007920040A0000EF12270818040AD7A35A52
:103DA000130000761349530821771269081006D1D1
:103DB00022DBF97E081006BEE642D2940813ABAAB5
:103DC0000111081F986E49031108100684327A5BAE
:103DD000D608100671F6E133EC083D470318040BD2
:103DE00000005613E417081006384219BD2D081AB2
:103DF00025CF1243082A12D111201006FF8D5046FC
:103E00006F08295712850823D815F110080000C53E
:103E1000D987CFB00825DF12C6081B9F61D21108D1
:103E20001B8C255911082679671A0C1811EE121EE1
:103E300008225379110821EF12490810062CF9C500
:103E4000925F081176136B75082177128B302D372E
:103E50000412A1081006E00865F4B60813CDCC01E1
:103E600011081EBABF0312E2082FA754C2031F0095
:103E70000045032C06560E0D0000470312240829A6
:103E800056123A0810065A643BDF4F081A47CF1201
:103E900065082A34D11108100621B0726891081AF9
:103EA0000E5712A73813FA37F111081FE7FB390430
:103EB000110825DF12E8081D360413A2FE081BAE08
:103EC000475914050E00009B67122A08100688CF78
:103ED000B02B400832757919182DC10311082DAF88
:103EE000041281081176138D9708217712AD082DE1
:103EF000370412C3081006022B8716D94813EFEEB9
:103F00000111082EDCBF031A0F181E76C203110818
:103F10001006B63A267830082D470312460819567F
:103F200013285C082D260512720829CF1287082A4B
:103F300056D111081C0443D2942A05191819571296
:103F4000C908221DF111082E093904115835DF1C4A
:103F500004100000360413C420081DAD04139D3660
:103F6000082567124C081EAA27051262081397B588
:103F70007911082E84C10311081E71AF0412A30821
:103F8000117613AFB908217712CF082D370412E547
:103F9000081006244DA938FB083211011C0400004A
:103FA000FEBF031226081006EB98E0C13C081FD89C
:103FB0005CA20511081EC547031268081956134B69
:103FC0007E081D26051323940829CF12A9083A78E4
:103FD000D1170000DE13ACD5081A525712EB082295
:103FE0003FF11A12182D390411081619DF122D0885
:103FF0002D9F051242181BF28B5911082567126E6E
:10400000082D27051284081DBE0313489A0812A61E
:10401000EF12B0081E93AF0412C5081F80233A04A4
:104020001108217712F1083D3704100913000046EA
:104030006FCB5A1D0822330111082DBF0312490806
:104040002E0D910611201FFA7EA20511081EE747CA
:1040500003128A081FD406B10411081D2605134552
:10406000B60829CF12CC082D8F0612E10815DE13F1
:10407000CEF7083957200514000061F111082E4EC3
:1040800039041108163BDF124F081E289F051265E0
:10409000083A1459270000671290302D270512A600
:1040A000081DBE03136ABC0821EF12D2081EB5AF6B
:1040B0000412E8081FA2453A041108268FE12C04D7
:1040C000150000370412290810066891ED7C3F089E
:1040D00022550111082DBF03126B082D7F07128195
:1040E0000810061CA18CDE960826096911381EF6F8
:1040F000070712C2081006E3ECC367D80829CF12DD
:10410000EE083D8F061404160000DE13F01908298E
:1041100057122F082D17061245082E703904110862
:104120002E5D810711081E4A9F051287082A3759FC
:104130001108256712B2082D270512C8481DBE03B5
:10414000138CDE0821EF12F4083DAF0410051700B0
:1041500000C47612200812B1771235081E9E37046B
:10416000124B082DF70712610822770111082DBFA5
:1041700003128D082D7F0712A30810063EC3AE0060
:10418000B9082D470312CE083E18B10419182DF9AD
:104190000711582AF2CF2C041800008F06122608A7
:1041A00025DE123C0829571251082D170612670800
:1041B0001F92A6390411083E7F810719181D9F051B
:1041C00012A9082A595911082E46A10511082D27B0
:1041D0000512EA081DBE033006AE00190000EF11FB
:1041E000082DAF04122C082D6F0812420812D37745
:1041F0001258081EC03704126D081EADF70712834F
:1042000008139A990111082DBF0312AF082D7F07DB
:1042100012C5081D6E081322DB082D470312F00893
:104220003D07072C051A000027F90711081A14CFBB
:104230001232082A01D1111815DE13355E082957EC
:104240001274082D17061289082FB4C839042700E4
:1042500000DF12B5081E8E9F0512CB082A7B59116C
:10426000082E68A10511082E55E9082C041B000032
:10427000E70812220821EF1238082DAF04124E0869
:104280002D6F081264202177127A081EE23704127B
:1042900090081ECFF70712A50813BCBB0111081E1A
:1042A000A9BF0312D1082D7F0712E7081D6E081D54
:1042B000D9091DA00925692C041C00000707122834
:1042C000081D260513CE3E081A36CF1254082A239D
:1042D000D111082E101906112829571296082D17EA
:1042E0000612AC082DD70912C10825DF12D7082DF8
:1042F0009F0512ED083D5F091A1D182DA105110833
:104300002E77E9081108226479110821EF125A0862
:104310002DAF041270082D6F081286082177129CA9
:10432000082D370412B2401EF1F70712C80813DE39
:10433000DD0111081ECBBF0312F3082EB87F071E44
:104340001EA0091E29D90911082D47031235082D71
:104350000707124B082DC70A12600829CF127608EA
:104360002A45D111082E32190611083E1F61091D78
:10437000A00921F111482DD70912E40825DF12F90F
:10438000083D9F052C041F00005F091225082567C2
:10439000123B081E99270512510832867919182DEB
:1043A000C10311082DAF041292082D6F0812A8083E
:1043B000217712BE082D370412D4082DF70712EA10
:1043C0000831011A20182DBF0311081EDA7F0712C9
:1043D0002B081EC73F0B1241082D47031257082D0B
:1043E0000707126D082DC70A12830829CF129808F3
:1043F0002D8F0612AE083E54190619182D61095E5C
:1044000020B80B11083DD7091E21A0092D81075E98
:1044100021B80B5E21B80B5E21B80B5E21B80B5E94
:1044200021B80B5E21B80B5E21B80B11082D6F0867
:104430005FCA21B80B5E21B80B5E21B80B5E22B8B3
:104440000B1108430101D31D530632000B3324F432
:04445000E500000083
:040000050800018965
:00000001FF
