:020000040800F2
:1000000098040020A1010008370C0008450B0008E7
:10001000350C0008AD020008E90C000800000000E3
:100020000000000000000000000000003D0C00087F
:10003000AF020008000000003B0C00083F0C000865
:10004000BB010008BB010008BB010008BB010008A0
:10005000BB010008BB010008BB010008BB01000890
:10006000BB010008BB010008BB010008BB01000880
:10007000BB010008BB010008BB010008BB01000870
:10008000BB010008BB010008BB010008BB01000860
:10009000BB010008BB010008BB010008BB01000850
:1000A000BB010008BB010008BB010008BB01000840
:1000B000BB010008BB010008BB010008BB01000830
:1000C000BB010008BB010008BB010008BB01000820
:1000D000BB010008BB010008BB010008BB01000810
:1000E000BB010008BB010008BB010008BB01000800
:1000F000BB010008BB010008BB010008BB010008F0
:10010000BB010008BB010008BB010008BB010008DF
:10011000BB010008BB010008BB010008BB010008CF
:10012000BB010008BB010008BB010008BB010008BF
:10013000BB010008BB010008BB010008BB010008AF
:10014000BB010008BB010008BB010008BB0100089F
:10015000BB010008BB010008BB010008BB0100088F
:10016000BB010008BB010008BB010008BB0100087F
:10017000BB010008BB010008BB0100080000000033
:10018000BB010008BB010008DFF810D000F07CF8CC
:1001900000480047AD0D0008AFF300809804002030
:1001A0000648804706480047FEE7FEE7FEE7FEE711
:1001B000FEE7FEE7FEE7FEE7FEE7FEE7CD0C000800
:1001C000890100082DE9F05F0546002092469B4614
:1001D00088460646814640241BE02846414647465D
:1001E000224600F041F853465A46C01A914110D3B6
:1001F00011461846224600F028F82D1A67EB010830
:100200004F4622460120002100F01FF817EB00099D
:100210004E41201EA4F10104DFDC484631462A4647
:100220004346BDE8F09FD2B201E000F8012B491E21
:10023000FBD270470022F6E710B513460A46044683
:100240001946FFF7F0FF204610BD202A04DB203AB4
:1002500000FA02F1002070479140C2F1200320FA19
:1002600003F3194390407047202A04DB203A21FA17
:1002700002F00021704721FA02F3D040C2F12002BF
:100280009140084319467047064C074D06E0E06868
:1002900040F0010394E8070098471034AC42F6D3CD
:1002A000FFF776FFF00D0008100E0008FEE770471C
:1002B00070B5044600F00AF90546601C02D00448F7
:1002C0000078044400F002F9401BA042FAD370BD4C
:1002D000880000202DE9F84FDFF8B8A100220125A1
:1002E0000AF1040B03264FF00F090BF1040E00BFB7
:1002F0000B6805FA02F42340A3426FD10F7907F08F
:100300000307012F01D0022F16D187684FEA420858
:1003100006FA08FC27EA0C07D1F80CC00CFA08FC16
:100320004CEA070CC0F808C04768A7430C79C4F32F
:10033000001494403C4344600C79E443A4070AD081
:10034000C4684FEA420C06FA0CF7BC438F6807FA00
:100350000CF72743C7600C7904F00304022C12D178
:10036000D40800EB840CDCF820405707FF0E09FA94
:1003700007F824EA0804D1F8108008FA07F848EAD8
:100380000408CCF8208004684FEA420C06FA0CF707
:10039000BC430F7907F0030707FA0CF72743076000
:1003A0004C68E40070D53C4C276847F480472760D0
:1003B000246822F0030704F480440094374C07EBD0
:1003C000040CDCF8084897074FEA177809FA08F791
:1003D000BC43334FB84202D1002724E054E0314FF0
:1003E000B84201D101271EE02F4FB84201D10227A8
:1003F00019E02E4FB84201D1032714E02C4FB84228
:1004000001D104270FE02B4FB84201D105270AE0A4
:10041000294FB84201D1062705E0284FB84201D143
:10042000072700E0082707FA08F72743CCF80878E1
:10043000DAF800405746D1F804C09C435FEACC3C50
:1004400000D51C433C60DBF800405F46D1F804C097
:100450009C435FEA8C3C00D51C433C60DEF80040C6
:100460007746D1F804C09C435FEACC2C00D51C43EE
:100470003C60084F0C373C68D1F804C09C435FEAED
:100480008C2C00D51C433C60521C102AFFF430AF6A
:10049000BDE8F88F003C0140443802400030014084
:1004A000000002400004024000080240000C02402C
:1004B000001002400014024000180240001C0240DC
:1004C0000AB1816170470904FBE7000001488068B8
:1004D00070470000880000200248816802781144BB
:1004E00081607047880000200B4810B5016841F416
:1004F00000710160016841F480610160016841F4AC
:1005000080710160032000F061F8002000F006F81F
:1005100000F024F8002010BD003C024070B50D4DE5
:1005200004464FF47A712878B1FBF0F00A49096863
:10053000B1FBF0F000F0F2FA48B9102C07D200221B
:100540002146501E00F022F800206C6070BD012092
:1005500070BD000088000020940000200A4808B503
:10056000016841F480410160006800F4804000901F
:100570000548001F016841F080510160006800F0EB
:100580008050009008BD000044380240F0B40E4B8B
:100590001B680C46C3F30223C3F10705042D00D9E1
:1005A0000425191D072901D2002300E0DB1E0126C6
:1005B00006FA05F1491E214099409E40761E1640DC
:1005C0003143F0BC00F091BB0CED00E0064900F0B7
:1005D000070208684FF6FF03184040EA0220034A6A
:1005E00010430860704700000CED00E00000FA05C1
:1005F000704700002DE9F0470E46050065D0DFF892
:100600001481D8F80000F7B200F00700B04207D21A
:1006100088F80070D8F8000000F00700B04254D10C
:1006200028683D4C810712D5400703D5206840F467
:10063000E05020602878000703D5206840F460402F
:1006400020602068A96820F0F00008432060287826
:10065000C0072DD0304968680839012812D0022817
:1006600013D0032811D00968890700292DDA2168E1
:1006700021F0030101432160FFF728FF814641F289
:10068000883A0EE009688903EFE709688901ECE719
:10069000FFF71CFFA0EB0901514502D90320BDE87B
:1006A000F0872068696800F00C00B0EB810FEFD193
:1006B000D8F80010404601F00701B14207D9077091
:1006C000006800F00700B04201D00120E7E7287879
:1006D000400705D52068E96820F4E0500843206011
:1006E0002878000706D52068296920F4604040EA90
:1006F000C100206000F01EF82168084AC1F3031110
:10070000515CC8400649086006480068FFF706FFCC
:100710000020C4E7003C024008380240E00D000819
:10072000940000208C00002001490120C86470471B
:1007300000004742154810B5006810F00C0214483C
:1007400013D04110042A0FD0082A0ED10F4C241FB9
:100750002268236802F03F025B0207D52068C0F3DD
:100760008810A0FB010106E0084610BD2168C1F316
:100770008811A1FB00010023FFF724FD2168C1F3CC
:100780000141491C4900B0FBF1F010BD083802409E
:100790000024F400054810B50068000605D5FFF7F1
:1007A00027FF02498020891C087010BD0C380240C8
:1007B0002DE9F84F04006ED02078DFF84C93C00785
:1007C000A9F104054AD009F104000168C1F38101CF
:1007D000012908D00068C0F3810002280AD1D9F8A5
:1007E0000000400206D52868800337D560680028DD
:1007F000E1D033E06068B0F5803F10D0B0F5A02FB5
:10080000286810D020F480302860286820F48020E8
:1008100028606068A8B1FFF759FE06460DE0286819
:1008200040F48030F4E740F480202860F7E700BF10
:10083000FFF74CFE801B642873D828688003F7D527
:100840000CE0FFF743FE064605E000BFFFF73EFE63
:10085000801B6428F0D828688003F7D42078DFF85C
:10086000AC8280074FF0000A3ED5A748001D016802
:1008700011F00C0F08D00068C0F3810002280BD1E2
:10088000D9F80000400207D42868800716D5E06830
:10089000012800D112E033E1E068B8B10120C8F8C6
:1008A0000000FFF713FE064605E000BFFFF70EFE4F
:1008B000801B0228C0D828688007F7D528682169DE
:1008C00020F0F80040EAC10028600DE0C8F800A060
:1008D000FFF7FCFD064604E0FFF7F8FD801B022849
:1008E0001FD828688007F7D42078000722D5864FC4
:1008F00087486169703771B101210160FFF7E6FD3A
:10090000064604E0FFF7E2FD801B022809D838689C
:100910008007F7D50EE0C0F800A0FFF7D7FD064628
:1009200005E082E0FFF7D2FD801B02287DD8386801
:100930008007F7D42078400768D5DFF8CCB10027CE
:100940000BF13C0BDBF80000C0000BD4DBF800100F
:1009500041F08051CBF80010DBF80000012700F0D7
:10096000805000906B4E3068C00510D4306840F461
:1009700080703060FFF7AAFD009005E0FFF7A6FD4C
:100980000099401A022850D83068C005F6D55E4E4E
:10099000A0686C3601280FD00528306810D020F0F0
:1009A00001003060306820F004003060A068B8B109
:1009B000FFF78CFD00900FE0306840F00100F4E795
:1009C00040F004003060F7E7FFF780FD0099411A1E
:1009D00041F28830814266D830688007F4D50EE055
:1009E000FFF774FD009007E0FFF770FD0099411AD2
:1009F00041F28830814256D830688007F4D42FB154
:100A0000DBF8001021F08051CBF80010A069C8B3CA
:100A10003D49091D0968C1F3810102294AD0022814
:100A2000504607D0C8F8600000E03CE0FFF74EFDFC
:100A300004463BE04746C8F86000FFF747FD06461E
:100A400005E000BFFFF742FD801B02282BD8286875
:100A50008001F7D4D4E907010843A16A2E4A490866
:100A600002EB0141626A41EA8211084394F82C10BA
:100A700040EA0161C9F8001001203866FFF726FD41
:100A8000044606E03EE000BFFFF720FD001B022801
:100A900009D828688001F7D534E000BFFFF716FDBC
:100AA000001B022802D90320BDE8F88F28688001C6
:100AB000F4D427E00128F7D0D9F80000E26900F467
:100AC000800191421CD1226A00F03F01914217D16E
:100AD00047F6C071626A0140B1EB821F10D1A26A71
:100AE0004FF0FF3300F4403103EB5202B1EB024F01
:100AF00006D194F82C1000F07060B0EB016F01D0BB
:100B00000120D1E70020CFE704380240000047422F
:100B1000800E4742007000400000FFFF10B5401EED
:100B2000B0F1807F01D3012010BD4FF0E02460615F
:100B30000F21601700F0D9F80020A0610720206184
:100B4000002010BDFEE700002DE9F04786B014211B
:100B50006846FFF76FFB34480024016841F0040148
:100B60000160016801F004010591016841F0800114
:100B70000160016801F080010591016841F0010107
:100B80000160016801F001010591016841F008016F
:100B90000160016801F008010591016841F0400120
:100BA0000160016801F040010591016841F0020116
:100BB00001600068DFF8749000F0020005900122E7
:100BC000FF214846FFF77CFCDFF864A04FF4007774
:100BD000002239465046FFF773FC4FF420480122AB
:100BE00041465046FFF76CFCFF2001250326CDE966
:100BF0000005CDE9024669464846FFF76BFB022037
:100C0000CDE90204CDE9007569465046FFF762FB65
:100C1000CDF800800396CDE9015469465046FFF7B0
:100C200059FB06B0BDE8F08730380240000C0240A6
:100C300000180240FEE7FFF7ADBD70477047FFF7B1
:100C40004BBC000030B593B030216846FFF7F2FA94
:100C500014210CA8FFF7EEFA1A480025016841F0AC
:100C600080510160006800F08050119016480168C2
:100C700041F4804101600068022400F4804011903A
:100C800001200090000401908001CDE9064008AAEF
:100C90000420A82182E813000B906846FFF788FD26
:100CA0000CA90F2081E831004FF4A0500F90E00212
:100CB000109005210CA8FFF79DFCFFF735FD13B040
:100CC00030BD000040380240007000400548016817
:100CD00041F47001016003494FF000608039086001
:100CE0007047000088ED00E0FEE70907090E0028C4
:100CF00004DB00F1E02080F80014704700F00F00E2
:100D000000F1E02080F8141D704702E008C8121FAF
:100D100008C1002AFAD170477047002001E001C1E4
:100D2000121F002AFBD1704770B50D4C00224FF402
:100D300000412046FFF7C4FB00224FF4005120463B
:100D4000FFF7BEFB0122550229462046FFF7B8FBFC
:100D500029462046BDE870400022FFF7B1BB0000E5
:100D60000018024030B50F4A10600F484FF400439E
:100D70000360040704600D0E156003600460C1F396
:100D80000745156003600460C1F307251560036023
:100D90000460C9B211600360046099100160090425
:100DA000016030BD140C024018180240FFF79CFB94
:100DB000FFF748FFFFF7C8FEFFF7B6FF074D002417
:100DC000002055F82410641CE4B2FFF7CBFF0A2082
:100DD000FFF76EFA212CF3D90024F1E70000002080
:100DE00000000000000000000102030406070809DB
:100DF000100E000800000020980000000A0D0008F6
:100E0000A80E000898000020000400001A0D000839
:100E10009389000084890000568900000D89000034
:100E2000AA88000031880000A58700000D87000017
:100E30006E860000CC8500002E8500009A8400009C
:100E400014840000A2830000478300000783000091
:100E5000E4820000DE820000F88200002E830000A1
:100E600081830000EC8300006B840000FC840000A0
:100E70009785000038860000D9860000748700003E
:100E80000488000084880000EF8800004189000089
:100E90007889000093890000010000001000000024
:080EA000000000000024F40032
:040000050800018965
:00000001FF
