:020000040800F2
:10000000900400209D0100080B100008D90E000884
:1000100009100008CD0200089F130008000000002E
:100020000000000000000000000000000F100008A9
:10003000CF020008000000000D1000081110000899
:10004000B7010008B7010008B7010008B7010008B0
:10005000B7010008B7010008B7010008B7010008A0
:10006000B7010008B7010008B7010008B701000890
:10007000B7010008B7010008B7010008B701000880
:10008000B7010008B7010008B7010008B701000870
:10009000B7010008B7010008B7010008B701000860
:1000A000B7010008B7010008B7010008B701000850
:1000B000B7010008B7010008B7010008B701000840
:1000C000B7010008B7010008B7010008B701000830
:1000D000B7010008B7010008B7010008B701000820
:1000E000B7010008B7010008B7010008B701000810
:1000F000B7010008B7010008B7010008B701000800
:10010000B7010008B7010008B7010008B7010008EF
:10011000B7010008B7010008B7010008B7010008DF
:10012000B7010008B7010008B7010008B7010008CF
:10013000B7010008B7010008B7010008B7010008BF
:10014000B7010008B7010008B7010008B7010008AF
:10015000B7010008B7010008B7010008B70100089F
:10016000B7010008B7010008B7010008B70100088F
:10017000B7010008B7010008B7010008B70100087F
:10018000B7010008B7010008DFF80CD000F08CF8C8
:1001900000480047E113000890040020064880470B
:1001A00006480047FEE7FEE7FEE7FEE7FEE7FEE75C
:1001B000FEE7FEE7FEE7FEE7991000088901000868
:1001C0002DE9F05F0546002092469B46884606468C
:1001D000814640241BE0284641464746224600F01F
:1001E00053F853465A46C01A914110D31146184647
:1001F000224600F03AF82D1A67EB01084F462246D6
:100200000120002100F031F817EB00094E41201EBB
:10021000A4F10104DFDC484631462A464346BDE8E6
:10022000F09F40EA01039B0703D009E008C9121FB1
:1002300008C0042AFAD203E011F8013B00F8013BA0
:10024000521EF9D27047D2B201E000F8012B491ECC
:10025000FBD270470022F6E710B513460A46044663
:100260001946FFF7F0FF204610BD202A04DB203A94
:1002700000FA02F1002070479140C2F1200320FAF9
:1002800003F3194390407047202A04DB203A21FAF7
:1002900002F00021704721FA02F3D040C2F120029F
:1002A0009140084319467047064C074D06E0E06848
:1002B00040F0010394E8070098471034AC42F6D3AD
:1002C000FFF766FFD8150008F8150008FEE770472D
:1002D0007047000070B5044600F0EAF80546601C5F
:1002E00002D004480078044400F0E2F8401BA04229
:1002F000FAD370BD000000202DE9F84F00224FF026
:10030000010803254FF00F0E0B6808FA02F4234092
:10031000A3426ED14E68012E05D0022E03D0112EBD
:1003200001D0122E12D186684FEA420C05FA0CF762
:10033000BE43CF6807FA0CF7374387604668A64389
:100340000C79C4F30014944034434460C6685700E9
:1003500005FA07FC8C6826EA0C06BC403443C460EE
:100360004C68022C01D0122C13D1D40800EB840469
:10037000A346D4F8209054074FEAD46A0EFA0AF63E
:1003800029EA06090E6906FA0AF646EA0906CBF8D2
:10039000206006680C7926EA0C0604F00304BC40D1
:1003A000344304604C68E40065D5364C266846F456
:1003B00080462660246822F0030604F480440094FA
:1003C000314C3444A446D4F808489607370F0EFA47
:1003D00007F6B4432D4EB04201D1002624E02C4E46
:1003E000B04201D101261FE02A4EB04202D10226BE
:1003F0001AE040E0284EB04201D1032614E0274E17
:10040000B04201D104260FE0254EB04201D10526AD
:100410000AE0244EB04201D1062605E0224EB04249
:1004200001D1072600E00826BE402643CCF8086824
:100430001E4E34684F689C43FF0300D51C43346054
:100440001A4C241D26684F689E43BF0300D51E43E7
:100450002660164E083634684F689C43FF0200D56C
:100460001C433460114E0C3634684F689C43BF0205
:1004700000D51C433460521C102AFFF445AFBDE880
:10048000F88F000044380240003001400000024074
:100490000004024000080240000C0240001002402C
:1004A0000014024000180240001C0240003C0140C1
:1004B0000148806870470000000000200248816801
:1004C0000278114481607047000000200B4810B58D
:1004D000016841F400710160016841F480610160CC
:1004E000016841F480710160032000F061F8002090
:1004F00000F006F800F024F8002010BD003C024097
:1005000070B50D4D04464FF47A712878B1FBF0F0C8
:100510000A490968B1FBF0F000F0D6FA48B9102C8E
:1005200007D200222146501E00F022F800206C6005
:1005300070BD012070BD0000000000200C000020F4
:100540000A4808B5016841F480410160006800F480
:10055000804000900548001F016841F08051016013
:10056000006800F08050009008BD00004438024050
:10057000F0B40E4B1B680C46C3F30223C3F107050E
:10058000042D00D90425191D072901D2002300E0FC
:10059000DB1E012606FA05F1491E214099409E40C6
:1005A000761E16403143F0BC00F0FABE0CED00E0C0
:1005B000064900F0070208684FF6FF03184040EABA
:1005C0000220034A10430860704700000CED00E071
:1005D0000000FA052DE9F0470E46050065D0DFF86A
:1005E0001481D8F80000F7B200F00F00B04207D233
:1005F00088F80070D8F8000000F00F00B04254D125
:1006000028683D4C810712D5400703D5206840F487
:10061000E05020602878000703D5206840F460404F
:1006200020602068A96820F0F00008432060287846
:10063000C0072DD0304968680839012812D0022837
:1006400013D0032811D00968890700292DDA216801
:1006500021F0030101432160FFF72AFF814641F2A7
:10066000883A0EE009688903EFE709688901ECE739
:10067000FFF71EFFA0EB0901514502D90320BDE899
:10068000F0872068696800F00C00B0EB810FEFD1B3
:10069000D8F80010404601F00F01B14207D90770A9
:1006A000006800F00F00B04201D00120E7E7287891
:1006B000400705D52068E96820F4E0500843206031
:1006C0002878000706D52068296920F4604040EAB0
:1006D000C100206000F018F82168084AC1F3031136
:1006E000515CC8400649086006480068FFF708FFEB
:1006F0000020C4E7003C024008380240C81500084A
:100700000C00002004000020154810B5006810F00F
:100710000C02144813D01449042A0FD0082A0ED111
:100720000F4C241F2268236802F03F025B0207D5AA
:100730002068C0F38810A0FB010106E0084610BD48
:100740002168C1F38811A1FB00010023FFF738FDE8
:100750002168C1F30141491C4900B0FBF1F010BD13
:10076000083802400024F40040787D012DE9F84F5C
:1007700004006ED02078DFF83C93C007A9F104058F
:100780004AD009F104000168C1F38101012908D0B0
:100790000068C0F3810002280AD1D9F800004002A5
:1007A00006D52868800337D560680028E1D033E09B
:1007B0006068B0F5803F10D0B0F5A02F286810D049
:1007C00020F480302860286820F480202860606849
:1007D000A8B1FFF76DFE06460DE0286840F48030B2
:1007E000F4E740F480202860F7E700BFFFF760FEE1
:1007F000801B642873D828688003F7D50CE0FFF7C6
:1008000057FE064605E000BFFFF752FE801B642836
:10081000F0D828688003F7D42078DFF89C8280071E
:100820004FF0000A3ED5A348001D016811F00C0FDF
:1008300008D00068C0F3810002280BD1D9F800006D
:10084000400207D42868800716D5E068012800D147
:1008500012E02BE1E068B8B10120C8F80000FFF712
:1008600027FE064605E000BFFFF722FE801B022898
:10087000C0D828688007F7D52868216920F0F800DB
:1008800040EAC10028600DE0C8F800A0FFF710FEA4
:10089000064604E0FFF70CFE801B02281FD82868DC
:1008A0008007F7D42078000722D5824E83486169FB
:1008B000703671B101210160FFF7FAFD074604E0CF
:1008C000FFF7F6FDC01B022809D830688007F7D56E
:1008D0000EE0C0F800A0FFF7EBFD074605E082E060
:1008E000FFF7E6FDC01B02287DD830688007F7D4EB
:1008F0002078400768D5DFF8BCB100270BF13C0B2E
:10090000DBF80000C0000BD4DBF8001041F0805190
:10091000CBF80010DBF80000012700F080500090B9
:10092000674E3068C00510D4306840F48070306085
:10093000FFF7BEFD009005E0FFF7BAFD0099401AF1
:10094000022850D83068C005F6D55A4EA0686C36DB
:1009500001280FD00528306810D020F00100306049
:10096000306820F004003060A068B8B1FFF7A0FD47
:1009700000900FE0306840F00100F4E740F0040020
:100980003060F7E7FFF794FD0099411A41F2883093
:10099000814266D830688007F4D50EE0FFF788FD05
:1009A000009007E0FFF784FD0099411A41F288307A
:1009B000814256D830688007F4D42FB1DBF800109C
:1009C00021F08051CBF80010A069C8B33949091D46
:1009D0000968C1F3810102294AD00228504607D094
:1009E000C8F8600000E03CE0FFF762FD04463BE031
:1009F0004746C8F86000FFF75BFD064605E000BF0C
:100A0000FFF756FD801B02282BD828688001F7D4F9
:100A1000D4E907010843A16A2A4A490802EB0141C7
:100A2000626A41EA8211084394F82C1040EA01619D
:100A3000C9F8001001203866FFF73AFD044606E0C9
:100A400036E000BFFFF734FD001B022809D82868F4
:100A50008001F7D52CE000BFFFF72AFD001B02281C
:100A600002D90320BDE8F88F28688001F4D41FE084
:100A70000128F7D0D9F80000E26900F48001914222
:100A800014D1226A00F03F0191420FD147F6C071A4
:100A9000626A0140914209D1A26A00F44031914258
:100AA00004D1E16A00F07060884201D00120D9E7EA
:100AB0000020D7E70438024000004742800E47423A
:100AC000007000400000FFFF10B5401EB0F1807FB5
:100AD00001D3012010BD4FF0E02460610F216017A9
:100AE00000F05EFC0020A06107202061002010BD06
:100AF00070B590F83C20012A32D0012480F83C40A7
:100B0000022280F83D2003685A689D6822F0700632
:100B10000A6832435A60134B02689A4214D0B2F109
:100B2000804F11D0104B9A420ED0104B9A420BD0EE
:100B30000F4B9A4208D00F4B9A4205D00E4B9A4267
:100B400002D00E4B9A4204D1496825F08003194324
:100B5000916080F83D40002180F83C10084670BD4F
:100B6000022070BD00000140000400400008004069
:100B7000000C00400004014000400140001800400B
:100B800010B504460068042200F005FB2068416CA3
:100B900041F4004141642068816801F007010629A1
:100BA00003D0016841F001010160002010BD10B5C3
:100BB000040003D094F83D0010B107E0012010BDFF
:100BC000002084F83C00204600F00CF8022084F855
:100BD0003D00211D206800F06DFA012084F83D00E1
:100BE000002010BD10B586B0044614216846FFF7FA
:100BF00031FB226800211848B2F1804F23D0174BF7
:100C00009A421ED1026842F480720260006800F4C9
:100C10008070059010481038026842F0200202608F
:100C2000006800F020000590581500900220CDE9E2
:100C30000101032003900920049069460848FFF74A
:100C40005BFB06B010BD016841F001010160006866
:100C500000F001000590F4E7403802400020004019
:100C60000014024070B5044690F83C00012817D0EB
:100C7000012584F83C50022084F83D0020688268F9
:100C800022F0770222F47F4282600868502830D038
:100C90000DDC20284DD005DC98B310283BD148E06E
:100CA000022070BD302844D0402834D139E060287B
:100CB00028D0702806D0B0F5805F2CD0B0F5005F4A
:100CC00029D10AE0CB68D1E90121206800F070FA4F
:100CD0002068816841F0770109E0CB68D1E9012102
:100CE000206800F065FA2068816841F480418160E5
:100CF00011E0CA684968206800F02EFB5021206886
:100D000007E016E0CA684968206800F036FB6021F9
:100D1000206800F057FA84F83D50002084F83C0029
:100D200070BDCA684968206800F016FB4021206841
:100D3000EFE7226801461046EBE7000010B586B0E9
:100D4000044614216846FFF785FA2068B0F1804F09
:100D500015D10C480021026842F0010202600068CF
:100D6000022200F00100059001200090CDE9012150
:100D70000321CDE9031069460348FFF7BDFA06B029
:100D800010BD0000303802400000024070B504463B
:100D900090F83C000D4601280DD0012684F83C60F7
:100DA000022084F83D0042B1042A18D0082A2AD033
:100DB0000C2A4DD139E0022070BD206800F00AFAFB
:100DC0002068816941F0080181612068816921F012
:100DD00004018161206881692A69114311E020685A
:100DE00000F028FA2068816941F40061816120687F
:100DF000816921F480618161206881692A6941EA01
:100E00000221816124E0206800F04AFA2068C1696B
:100E100041F00801C1612068C16921F00401C1618C
:100E20002068C1692A69114311E0206800F06CFA5A
:100E30002068C16941F40061C1612068C16921F481
:100E40008061C1612068C1692A6941EA0221C161EA
:100E500084F83D60002084F83C0070BD10B50400AB
:100E600003D094F83D0010B107E0012010BD002030
:100E700084F83C00204600F00CF8022084F83D0085
:100E8000211D206800F016F9012084F83D000020A3
:100E900010BD704710B504460068012200F06EF9DD
:100EA0000B492068884202D00A49884203D1416C2C
:100EB00041F4004141642068816801F0070106297E
:100EC00003D0016841F001010160002010BD000065
:100ED0000000014000040140FEE70000154808B58D
:100EE000016841F004010160016801F00401009112
:100EF000016841F020010160016801F020010091CA
:100F0000016841F080010160016801F080010091F9
:100F1000016841F001010160016801F001010091E7
:100F2000016841F002010160006800F002000090D9
:100F300008BD0000303802400B4810B50949016077
:100F400053214160002140F2E732C0E90212016101
:100F50008161FFF72CFE002803D0BDE81040FFF7A9
:100F6000B7B910BD002000405000002010B58EB071
:100F700000240794089409940A940B941C21684651
:100F80000C94FFF767F91F484FF08041016053212F
:100F9000C0E9011440F2E731C0E903148461FFF7AE
:100FA00006FE08B1FFF794F94FF48050079007A9A7
:100FB0001448FFF757FE08B1FFF78AF91148FFF709
:100FC0004DFF08B1FFF784F90B940BA90D480C9461
:100FD000FFF78EFD08B1FFF77BF9602000904FF41A
:100FE000FA70CDE901040022694606480494FFF72F
:100FF000CDFE08B1FFF76CF90248FFF79FFE0EB077
:1010000010BD000010000020FEE7704770477047D9
:10101000FFF754BA30B593B030216846FFF71AF99C
:1010200014210CA8FFF716F919480025016841F0B2
:1010300080510160006800F08050119015480168EF
:1010400041F4804101600068022400F48040119066
:101050000120039010200490009406940820CDE90C
:101060000750A820CDE9090404200B906846FFF73B
:101070007DFB0CA90F2081E831004FF4A0500F90A8
:10108000E002109005210CA8FFF7A4FA13B030BDC0
:1010900040380240007000400548016841F470018A
:1010A000016003494FF0006080390860704700001C
:1010B00088ED00E0F0B50268254C264D264E274FFE
:1010C000274B4FF0804CA04209D0604507D0A84282
:1010D00005D0B04203D0B84201D0984204D122F0EA
:1010E000700E4A6842EA0E02A0421BD0604519D039
:1010F000A84217D0B04215D0B84213D0984211D0B0
:10110000184DA8420ED0184DA8420BD0174DA8423A
:1011100008D0174DA84205D0164DA84202D0164D52
:10112000A84203D122F44075CA682A434D6922F0CF
:1011300080022A4302608A68C2620A688262A04210
:1011400001D0984201D10969016301214161F0BDDB
:10115000000001400004004000080040000C004076
:1011600000040140004001400044014000480140AB
:1011700000180040001C00400020004010B501F0A5
:101180001F030121046A99408C430462016A9A405A
:101190001143016210BD10B501F01F030421046A60
:1011A00099408C430462016A9A401143016210BD68
:1011B00010B5846842EA032224F47F440A432243A0
:1011C000826010BD826822F070020A4342F007017B
:1011D00081607047F0B5026A22F001020262036A80
:1011E00042688469124E24F073050C682C4323F086
:1011F00002058B682B430D4DA84201D0B04205D1AA
:1012000023F00807CB683B4323F00403A84201D036
:10121000B04205D14D6922F4407215438A692A43D0
:1012200042608461496841630362F0BD000001408F
:1012300000040140F0B5026A22F010020262026A64
:10124000436884690D6824F4E64444EA05248D6803
:1012500022F0200242EA05120F4D104EA84201D0A2
:10126000B04206D1CF6822F0800242EA071222F093
:101270004002A84201D0B04207D14D6923F4406337
:1012800043EA85038D6943EA8503436084614968C5
:1012900081630262F0BD00000000014000040140D3
:1012A000F0B5026A22F480720262026A4368C4697D
:1012B00022F4007224F073050C68124E2C438D68E2
:1012C00042EA05220E4DA84201D0B04206D1CF68B5
:1012D00022F4006242EA072222F48062A84201D08E
:1012E000B04207D14D6923F4405343EA05138D6999
:1012F00043EA05134360C4614968C1630262F0BDFB
:10130000000001400004014030B5026A22F480521E
:101310000262046A4268C3690D6823F4E64343EA43
:1013200005238D6824F4005444EA0534084DA8428E
:1013300002D0084DA84204D14D6922F4804242EA0D
:1013400085124260C36149680164046230BD0000D7
:10135000000001400004014010B5036A046A24F053
:1013600001040462846924F0F00444EA021423F0C6
:101370000A020A438461026210BD10B5036A23F0B9
:10138000100303628369046A23F4704343EA023260
:1013900024F0A00343EA01118261016210BDFEE75F
:1013A0000907090E002804DB00F1E02080F8001492
:1013B000704700F00F0000F1E02080F8141D704726
:1013C00002E008C8121F08C1002AFAD1704770470E
:1013D000002001E001C1121F002AFBD1704700006C
:1013E000E4B04FF4C87212496846FEF71AFFFFF7DF
:1013F0006DF8FFF70FFEFFF771FDFFF7B7FDFFF781
:101400009BFD00210B48FFF7BBFB00210948FFF7BC
:1014100041FD084D6E460024296856F824004863B3
:101420000120FEF757FF641CE4B2642CF4D3F2E70A
:1014300038140008100000200D02000026020000F1
:101440003F02000057020000700200008702000007
:101450009E020000B5020000CA020000DF02000088
:10146000F302000006030000180300002803000038
:10147000380300004603000053030000610300002E
:101480006803000070030000770300007D03000084
:101490008103000083030000840300008303000035
:1014A000810300007D03000077030000700300004B
:1014B000680300005E0300005303000046030000C1
:1014C0003803000028030000180300000603000092
:1014D000F3020000DF020000CA020000B5020000B3
:1014E0009E02000087020000700200005702000008
:1014F0003F020000260200000D020000F40100007F
:10150000DB010000C2010000A90100009101000000
:1015100078010000610100004A0100003301000071
:101520001E01000009010000F5000000E2000000BB
:10153000D0000000C0000000B0000000A2000000C9
:10154000950000008A000000800000007800000084
:10155000710000006B0000006700000065000000E3
:101560006400000065000000670000006B000000E0
:101570007100000078000000800000008A00000078
:1015800095000000A2000000B0000000C0000000B4
:10159000D0000000E2000000F5000000090100009A
:1015A0001E010000330100004A010000610100003B
:1015B0007801000091010000A9010000C2010000B3
:1015C000DB010000F401000000000000000000004A
:1015D0000102030406070809F815000800000020AE
:1015E00010000000C01300080816000810000020BA
:1015F00080040000D013000801000000100000006B
:08160000000000000024F400CA
:040000050800018965
:00000001FF
