:020000040800F2
:10000000D00500209D010008531A0008AD18000813
:10001000511A000871050008DD1E000800000000EC
:10002000000000000000000000000000451B000868
:100030002506000800000000551A0008471B0008AC
:10004000B7010008B7010008B7010008B7010008B0
:10005000B7010008B701000827060008B70100082B
:10006000B70100082D060008B7010008B701000815
:10007000B7010008B7010008B7010008B701000880
:10008000B7010008B7010008B7010008B701000870
:10009000B7010008B7010008B7010008B701000860
:1000A000B7010008B7010008B7010008B701000850
:1000B000B7010008B7010008B7010008B701000840
:1000C000B7010008B7010008B7010008B701000830
:1000D000B7010008D11E0008B7010008B7010008E9
:1000E000B7010008B7010008B7010008B701000810
:1000F000B7010008B7010008B7010008B701000800
:10010000B7010008B7010008B7010008B7010008EF
:10011000B7010008B7010008B7010008B7010008DF
:10012000B7010008B7010008B7010008B7010008CF
:10013000B7010008B7010008B7010008B7010008BF
:10014000B7010008B7010008B7010008B7010008AF
:10015000B7010008B701000875050008B7010008DD
:10016000B7010008B7010008B7010008B70100088F
:10017000B7010008B7010008B7010008000000003F
:10018000B7010008B7010008DFF80CD000F07AF8DA
:1001900000480047691F0008D00500200648804736
:1001A00006480047FEE7FEE7FEE7FEE7FEE7FEE75C
:1001B000FEE7FEE7FEE7FEE7D11B00088901000825
:1001C0002DE9F05F0546002092469B46884606468C
:1001D000814640241BE0284641464746224600F01F
:1001E00041F853465A46C01A914110D31146184659
:1001F000224600F028F82D1A67EB01084F462246E8
:100200000120002100F01FF817EB00094E41201ECD
:10021000A4F10104DFDC484631462A464346BDE8E6
:10022000F09FD2B201E000F8012B491EFBD27047CB
:100230000022F6E710B513460A4604461946FFF7B2
:10024000F0FF204610BD202A04DB203A00FA02F11C
:10025000002070479140C2F1200320FA03F31943B4
:1002600090407047202A04DB203A21FA02F0002156
:10027000704721FA02F3D040C2F1200291400843B6
:1002800019467047064C074D06E0E06840F0010350
:1002900094E8070098471034AC42F6D3FFF778FF94
:1002A000602000088020000870B50B4C0546002235
:1002B0001021204600F048FC012001F02FFE2846C6
:1002C00000F08AF8012001F029FE2046BDE87040C8
:1002D0000122102100F038BC0000024070B52D4D05
:1002E00001220221284600F02FFC0122102128467D
:1002F00000F02AFC00220421284600F025FC0A20F8
:1003000000F01CFB01220421284600F01DFC0A20FD
:1003100000F014FB00220421284600F015FC0A20FE
:1003200001F0FCFD01220421284600F00DFC6420B0
:1003300000F004FB00220221284600F005FC1120F9
:10034000FFF7B2FF00F06AF8012000F0F7FA124D53
:1003500007E00021202000F0E5F80446C82000F066
:10036000EDFA2878A042F4D1A978422000F0DAF81A
:100370000A2000F0E3FA6978412000F0D3F8032462
:1003800044F04000295D00F0CDF8641CE4B20C2C70
:10039000F6D370BD000002404A00002038B50B4C77
:1003A00000221021204600F0CFFB0A20084A0090CE
:1003B000092302F10901074800F090FF2046BDE83B
:1003C00038400122102100F0BFBB000000000240B5
:1003D000380000205800002001B582B000208DF8C0
:1003E00004000A200090012301AA02A9024800F09B
:1003F00075FF9DF804000EBD5800002010B51020B8
:10040000FFF752FF01220221034800F09DFBBDE8E7
:100410001040092000F00FBC000002403F4810B51A
:100420003F4A73210170127842703D4A00210E321A
:100430001378547841EA831343EA4413947843EAE7
:100440000413D478127943EAC40343EA420242F027
:100450008102334B827010225B1CC2701A785C7868
:1004600041EAC2129B7842EA04121A432C4B0271F1
:100470001B1D1A785C7841EAC2129B7842EA04128A
:100480001A434271264A13321378547841EA4313CF
:1004900043EA0413947843EAC403D47843EA840318
:1004A0001479527943EA4403134343F0C002827142
:1004B0001B4A19321378547841EA431343EA041370
:1004C000947843EAC403D47843EA840314795279D4
:1004D00043EA44031343C371114B01720A331A7880
:1004E0005C7841EAC21242EA84129C78DB7842EAE4
:1004F00084021A4342F002024272094AD21D137862
:1005000041EAC3115378927841EA830141EA4201FA
:1005100041F0010181720C21C17210BD4A0000201E
:100520000100002070B5114D0E4604460022102136
:10053000284600F009FB012001F0F0FC2046FFF7FF
:100540004BFF0020FFF748FFA00601D5002000E088
:100550003046FFF741FF0446012001F0DFFC012295
:100560001021284600F0F0FA204670BD000002403D
:10057000FEE70000014800F06FB8000070010020A5
:1005800001681823CAB2103AB2FBF3F2054B6FF3BD
:100590000901032A9B5CC36500D9091D81650846D2
:1005A000704700004020000810B5014600208B690C
:1005B0008A6A4FF0C07453B1B3F5005F15D072B1C1
:1005C000012A0CD0022A0AD0032A09D104E01AB168
:1005D000012A06D0022A03D1C96AC90100D5012027
:1005E00010BDC96AA142FAD010BD002AF7D0012A75
:1005F000F2D0022AF3D0032AF3D010BD30B504683C
:10060000256825F480252560046863608368402B95
:10061000036803D099600068C26030BD9A600068CA
:10062000C16030BD7047012000F0A6B9082000F07D
:10063000A3B9704790F83510022903D08021416595
:1006400001207047052180F835100068016821F00D
:1006500001010160002070472DE9F84304464FF086
:100660000009CDF8009063484FF41651A56D00685D
:10067000B0FBF1F72E6894F85C10082000FA01F145
:1006800031420FD021680A6852070BD50A6822F060
:1006900004020A6094F85C108840A860606D40F025
:1006A0000100606594F85C104FF0010808FA01F051
:1006B000304208D021684969090604D5A860606DF8
:1006C00040F00200606594F85C10042088403042DD
:1006D00008D021680968890704D5A860606D40F0DA
:1006E0000400606594F85C1010208840304218D0F7
:1006F00021680968090714D5A860206801684903C2
:1007000004D50068000308D5A16C07E00168C9059D
:1007100003D4016821F008010160216C09B1204671
:10072000884794F85C1020208840304231D02168FE
:100730000968C9062DD5A86094F8350005282068F9
:10074000016806D0490347D5006800031DD4616CD9
:100750001CE021F0160101602068416921F0800150
:100760004161206C08B9A06C20B12068016821F0BB
:100770000801016094F85C103F208840A86084F86C
:10078000349084F83580216D1FE0E16B09B120467B
:100790008847606D00282BD0606DC00714D00520FD
:1007A00084F835002068016821F00101016000989B
:1007B000401C0090B84203D820680068C007F6D1FA
:1007C00084F8349084F83580E16C002910D001B0B1
:1007D0002046BDE8F04308470168C905D5D4016843
:1007E00021F01001016084F8349084F83580CCE762
:1007F000BDE8F883340000202DE9F041044600F004
:10080000A9F906465CB1002584F83450022084F82A
:1008100035002068016821F0010101600DE0012030
:10082000BDE8F08100F096F9801B052805D920204D
:100830006065032084F83500F2E720680068C0078F
:10084000F0D12268116820480140D4E9010318431F
:10085000D4E903363343184363691843A369184343
:10086000E3691843236A18430843616A042903D1E2
:10087000D4E90B1319430843106020684069666A85
:1008800020F0070130460E43012704280CD1A06A4E
:100890000643E06A40B12046FFF786FE20B14020C3
:1008A000606584F83570BAE7206846612046FFF736
:1008B00067FE94F85C203F2191408160656584F873
:1008C00035700020ACE700003F8010F02DE9F041CA
:1008D0000446866D90F83400002501280DD00120D3
:1008E00084F8340094F835700020012F07D084F884
:1008F000340002252846BDE8F0810220FBE70227EC
:1009000084F8357060652046FFF778FE94F85C1037
:100910003F208840B0602068016841F01601016006
:10092000206C20B12068016841F008010160206856
:10093000016841F001010160DCE7000070B5044688
:1009400000F008F90546601C02D004480078044411
:1009500000F000F9401BA042FAD370BD280000202F
:1009600010B5082804D1FFF719FD024901200870CD
:1009700010BD000000000020044910B50A680242C2
:1009800002D00860FFF7ECFF10BD0000143C0140EE
:100990002DE9F84F00224FF0010803254FF00F0E0C
:1009A0000B6808FA02F42340A3426ED14E68012E70
:1009B00005D0022E03D0112E01D0122E12D186683E
:1009C0004FEA420C05FA0CF7BE43CF6807FA0CF762
:1009D000374387604668A6430C79C4F300149440FB
:1009E00034434460C668570005FA07FC8C6826EA61
:1009F0000C06BC403443C4604C68022C01D0122C5D
:100A000013D1D40800EB8404A346D4F820905407F3
:100A10004FEAD46A0EFA0AF629EA06090E6906FABE
:100A20000AF646EA0906CBF8206006680C7926EA41
:100A30000C0604F00304BC40344304604C68E4003A
:100A400065D5364C266846F480462660246822F038
:100A5000030604F480440094314C3444A446D4F892
:100A600008489607370F0EFA07F6B4432D4EB042EA
:100A700001D1002624E02C4EB04201D101261FE016
:100A80002A4EB04202D102261AE040E0284EB0427F
:100A900001D1032614E0274EB04201D104260FE015
:100AA000254EB04201D105260AE0244EB04201D1C4
:100AB000062605E0224EB04201D1072600E00826B6
:100AC000BE402643CCF808681E4E34684F689C43ED
:100AD000FF0300D51C4334601A4C241D26684F6860
:100AE0009E43BF0300D51E432660164E0836346869
:100AF0004F689C43FF0200D51C433460114E0C36F6
:100B000034684F689C43BF0200D51C433460521CBC
:100B1000102AFFF445AFBDE8F88F000044380240CA
:100B20000030014000000240000402400008024082
:100B3000000C024000100240001402400018024065
:100B4000001C0240003C01400AB181617047090469
:100B5000FBE7000001488068704700002800002083
:100B600002488168027811448160704728000020A3
:100B70000B4810B5016841F400710160016841F44F
:100B800080610160016841F480710160032000F020
:100B90007FF8002000F006F800F024F8002010BDD7
:100BA000003C024070B50D4D04464FF47A71287830
:100BB000B1FBF0F00A490968B1FBF0F000F0C1FCAC
:100BC00048B9102C07D200222146501E00F040F8F0
:100BD00000206C6070BD012070BD00002800002066
:100BE000340000200A4808B5016841F480410160E2
:100BF000006800F4804000900548001F016841F043
:100C000080510160006800F08050009008BD000035
:100C10004438024000280DDB00F01F020121914002
:100C20004009800000F1E020C0F88011BFF34F8F31
:100C3000BFF36F8F7047002809DB00F01F0201210E
:100C400091404009800000F1E020C0F80011704799
:100C5000F0B40E4B1B680C46C3F30223C3F1070527
:100C6000042D00D90425191D072901D2002300E015
:100C7000DB1E012606FA05F1491E214099409E40DF
:100C8000761E16403143F0BC01F029B90CED00E0AE
:100C9000064900F0070208684FF6FF03184040EAD3
:100CA0000220034A10430860704700000CED00E08A
:100CB0000000FA052DE9F0470E46050065D0DFF883
:100CC0001481D8F80000F7B200F00F00B04207D24C
:100CD00088F80070D8F8000000F00F00B04254D13E
:100CE00028683D4C810712D5400703D5206840F4A1
:100CF000E05020602878000703D5206840F4604069
:100D000020602068A96820F0F0000843206028785F
:100D1000C0072DD0304968680839012812D0022850
:100D200013D0032811D00968890700292DDA21681A
:100D300021F0030101432160FFF70CFF814641F2DE
:100D4000883A0EE009688903EFE709688901ECE752
:100D5000FFF700FFA0EB0901514502D90320BDE8D0
:100D6000F0872068696800F00C00B0EB810FEFD1CC
:100D7000D8F80010404601F00F01B14207D90770C2
:100D8000006800F00F00B04201D00120E7E72878AA
:100D9000400705D52068E96820F4E050084320604A
:100DA0002878000706D52068296920F4604040EAC9
:100DB000C100206000F038F82168084AC1F303112F
:100DC000515CC8400649086006480068FFF7EAFE23
:100DD0000020C4E7003C02400838024048200008D8
:100DE000340000202C0000200448054900680968F0
:100DF000044AC1F38221515CC8407047340000208E
:100E0000083802405820000804480549006809686D
:100E1000044AC1F34231515CC8407047340000209D
:100E20000838024058200008154810B5006810F036
:100E30000C02144813D01449042A0FD0082A0ED1EA
:100E40000F4C241F2268236802F03F025B0207D583
:100E50002068C0F38810A0FB010106E0084610BD21
:100E60002168C1F38811A1FB00010023FFF7A8F955
:100E70002168C1F30141491C4900B0FBF1F010BDEC
:100E8000083802400024F40040787D012DE9F84F35
:100E900004006ED02078DFF83C93C007A9F1040568
:100EA0004AD009F104000168C1F38101012908D089
:100EB0000068C0F3810002280AD1D9F8000040027E
:100EC00006D52868800337D560680028E1D033E074
:100ED0006068B0F5803F10D0B0F5A02F286810D022
:100EE00020F480302860286820F480202860606822
:100EF000A8B1FFF72FFE06460DE0286840F48030C9
:100F0000F4E740F480202860F7E700BFFFF722FEF7
:100F1000801B642873D828688003F7D50CE0FFF79E
:100F200019FE064605E000BFFFF714FE801B64288B
:100F3000F0D828688003F7D42078DFF89C828007F7
:100F40004FF0000A3ED5A348001D016811F00C0FB8
:100F500008D00068C0F3810002280BD1D9F8000046
:100F6000400207D42868800716D5E068012800D120
:100F700012E02BE1E068B8B10120C8F80000FFF7EB
:100F8000E9FD064605E000BFFFF7E4FD801B0228EF
:100F9000C0D828688007F7D52868216920F0F800B4
:100FA00040EAC10028600DE0C8F800A0FFF7D2FDBC
:100FB000064604E0FFF7CEFD801B02281FD82868F4
:100FC0008007F7D42078000722D5824E83486169D4
:100FD000703671B101210160FFF7BCFD074604E0E6
:100FE000FFF7B8FDC01B022809D830688007F7D585
:100FF0000EE0C0F800A0FFF7ADFD074605E082E077
:10100000FFF7A8FDC01B02287DD830688007F7D401
:101010002078400768D5DFF8BCB100270BF13C0B06
:10102000DBF80000C0000BD4DBF8001041F0805169
:10103000CBF80010DBF80000012700F08050009092
:10104000674E3068C00510D4306840F4807030605E
:10105000FFF780FD009005E0FFF77CFD0099401A46
:10106000022850D83068C005F6D55A4EA0686C36B4
:1010700001280FD00528306810D020F00100306022
:10108000306820F004003060A068B8B1FFF762FD5E
:1010900000900FE0306840F00100F4E740F00400F9
:1010A0003060F7E7FFF756FD0099411A41F28830AA
:1010B000814266D830688007F4D50EE0FFF74AFD1C
:1010C000009007E0FFF746FD0099411A41F2883091
:1010D000814256D830688007F4D42FB1DBF8001075
:1010E00021F08051CBF80010A069C8B33949091D1F
:1010F0000968C1F3810102294AD00228504607D06D
:10110000C8F8600000E03CE0FFF724FD04463BE047
:101110004746C8F86000FFF71DFD064605E000BF22
:10112000FFF718FD801B02282BD828688001F7D410
:10113000D4E907010843A16A2A4A490802EB0141A0
:10114000626A41EA8211084394F82C1040EA016176
:10115000C9F8001001203866FFF7FCFC044606E0E1
:1011600036E000BFFFF7F6FC001B022809D828680C
:101170008001F7D52CE000BFFFF7ECFC001B022834
:1011800002D90320BDE8F88F28688001F4D41FE05D
:101190000128F7D0D9F80000E26900F480019142FB
:1011A00014D1226A00F03F0191420FD147F6C0717D
:1011B000626A0140914209D1A26A00F44031914231
:1011C00004D1E16A00F07060884201D00120D9E7C3
:1011D0000020D7E70438024000004742800E474213
:1011E000007000400000FFFF70B5040004D094F8C8
:1011F0005100002510B106E0012070BD84F8505068
:10120000204600F037F8022084F851002068016879
:1012100021F040010160D4E901010843D4E903123F
:101220001143084361690843218B01F400710843AD
:10123000E1690843216A0843A16A084321680860FC
:10124000A069042101EA1040616A084321684860EE
:10125000A06AB0F5005F02D12168E06A08612068E9
:10126000C16921F40061C1616565012084F8510004
:10127000002070BD10B586B0044614216846FEF704
:10128000D7FF13492068884220D112480021026804
:1012900042F480520260006800F4805005900D48CE
:1012A0001438026842F001020260006800F0010098
:1012B0000590E02000900220CDE901010320039079
:1012C0000520049069460448FFF762FB06B010BD94
:1012D0000030014044380240000002402DE9F84F40
:1012E000044690F8500000260A9F1D4692468B4601
:1012F0004FF0010901280ED0012084F85000FFF7BB
:1013000029FC804694F85100616801280CD0B1F5A1
:10131000827F07D102E00220BDE8F88FA16809B9F9
:10132000042801D0022604E1BBF1000F37D0BAF146
:10133000000F34D095B394F85100042802D0052052
:1013400084F8510000206065C4F838A0E587A587BF
:10135000C4F830B0E586A58620646064A06A4FF4C6
:10136000005A504509D12068016821F400510160FC
:101370002068016841F40051016020680168490655
:1013800003D4016841F040010160E068B0F5006FEE
:10139000606806D0F0B3012D51D094E0FFE701263C
:1013A000C7E008B1012D43D1206B21680088C860D7
:1013B000206B801C2063E08E401EE08638E02068B1
:1013C0008168890719D5E18EB9B1B9F1010F14D13E
:1013D000216B0988C160206B801C2063E08E401E59
:1013E000E086E08E4FF0000938B9A06A504504D17C
:1013F0002068016841F48051016020688168C90754
:101400000ED0E18F61B1C068A16B0880A06B801C19
:10141000A06300E013E0E08F401EE0874FF0010979
:10142000FFF798FBA0EB0800B84201D3781C60D10D
:10143000E08E0028C3D1E08F0028C0D149E0206BA6
:10144000216800780873206B401C2063E08E401EEA
:10145000E08638E020688168890719D5E18EB9B146
:10146000B9F1010F14D1216B09780173206B401C75
:101470002063E08E401EE086E08E4FF0000938B910
:10148000A06A504504D12068016841F48051016090
:1014900020688168C9070CD0E18F51B1C068A16B89
:1014A0000870A06B401CA063E08F401EE0874FF0E7
:1014B0000109FFF74FFBA0EB0800B84202D3781CEC
:1014C00001D016E0AFB1E08E0028C3D1E08F002834
:1014D000C0D1A06A504510D101223B46114620469A
:1014E000CDF8008000F0E4FA28B1606D40F0020011
:1014F000606503261DE02068C06820688168C90611
:1015000007D5616D41F0020161654FF6EF718160B1
:10151000012642463946204600F09EFA18B10126BF
:101520002020606505E0A06818B92068C16880685F
:101530000090012084F85100002084F850003046CB
:10154000EAE610B5401EB0F1807F01D3012010BD46
:101550004FF0E02460610F21601700F0C0FC002014
:10156000A06107202061002010BD704770B502689F
:1015700004461068D168536910F00F0F52D003F081
:10158000010501F490762E435FD0C20705D0CA054D
:1015900003D5E26B42F00102E263420705D5DA07A8
:1015A00003D0E26B42F00202E263820705D5DA075C
:1015B00003D0E26B42F00402E263020707D501F0B8
:1015C00020022A4303D0E26B42F00802E263E26B9E
:1015D000002A33D0800604D5880602D5204600F0C4
:1015E00065FB20684069E16BC0F38010090700D4F7
:1015F00028B3204600F043FB2068416949061AD50C
:10160000416921F040014161606BA0B11B49016556
:10161000606BFFF70FF8002810D0606B016DBDE81C
:1016200070400847830610D58B060ED52046BDE8CE
:10163000704000F03BBB2046FFF797FF70BD20468F
:10164000FFF793FF0020E06370BD030606D50B068D
:1016500004D52046BDE8704000F008BC4006F3D534
:101660004806F1D5D168204621F04001D160202103
:1016700084F8391000F018F970BD0000ED1B000867
:1016800070B5040004D094F83900002510B106E0CC
:10169000012070BD84F83850204600F023F8242043
:1016A00084F839002068C16821F40051C1602046E7
:1016B00000F048FB2068016921F490410161206835
:1016C000416921F02A0141612068C16841F400515B
:1016D000C160E563202084F8390084F83A000020D6
:1016E00070BD000070B586B0064614216846FEF74E
:1016F0009FFD24493068884241D123480025016874
:1017000041F010010160006800F0100005901E48D3
:101710001438016841F0010101600068694600F079
:10172000010005904FF4C06000900220CDE9010552
:1017300003200390072004901448FFF729F9154C63
:10174000134820604FF0006060604020C4E902054B
:101750000001C4E90405A561E561256220466562D2
:10176000FFF74AF808B1FEF764FF34630022022154
:101770002520A663FFF76CFA2520FFF75CFA06B078
:1017800070BD0000001001404438024000000240DB
:10179000B86402407001002090F83A30202B22D12A
:1017A000F9B1F2B190F83830012B1CD081628285FA
:1017B000C2850021C163222280F83A2080F83810C7
:1017C0000168CA6842F48072CA6001684A6942F0DE
:1017D00001024A610068C16841F02001C160002037
:1017E00070470120704702207047000000680B49D5
:1017F000884211D10A480B4B0278401E41685A5466
:10180000491C41600A2A01D10121017005480122C9
:1018100003498030FFF7C0BF70470000001001404F
:1018200021000020B000002070B5044690F8390077
:10183000202830D169B362B394F8380001282AD047
:10184000012084F838002162A284E2840025E56347
:10185000212084F83900236B1048D863236B10488B
:101860001864236B0F48D864206B134605652668FF
:10187000206B321DFFF72AF821686FF040000860E6
:1018800084F838502068416941F0800141610020AE
:1018900070BD012070BD022070BD0000471C000813
:1018A000751C0008FD1B000870477047FEE700002C
:1018B000094808B5016841F4800101600068002210
:1018C00000F48000009002214620FFF7C1F9BDE836
:1018D00008404620FFF7AFB93038024070B586B0F7
:1018E00014216846FEF7A4FC32480024016841F048
:1018F00004010160016801F004010591016841F0F3
:1019000080010160016801F080010591016841F0EA
:1019100001010160016801F001010591016841F0D8
:10192000020101600068244E00F0020005900022D0
:1019300016213046FFF708F9062000900125CDE971
:101940000154694630460394FFF722F808200090BE
:101950001A48CDE9010569463046FFF719F810200D
:10196000CDE90005CDE9025469463046FFF710F88D
:101970003020CDE90004694611480294FFF708F8C9
:1019800010480095CDE9010469460F48FFF700F8BB
:10199000002202210620FFF75BF90620FFF74BF932
:1019A000002201210920FFF753F90920FFF743F92D
:1019B00006B070BD30380240000002400000211027
:1019C000000802400000111000040240114810B548
:1019D0000F4901604FF48271416000218160012252
:1019E000C160C0E90412520282612822C0E90721C5
:1019F00041624FF4005181620721C162FFF7F4FB9D
:101A0000002803D0BDE81040FEF713BE10BD000053
:101A100000300140580000200C4810B50A49016010
:101A20004FF4E1314160002181600C22C160C0E9C6
:101A300004128161C161FFF723FE002803D0BDE8D5
:101A40001040FEF7F6BD10BD00100140300100202F
:101A5000FEE770477047000038B504461248134B44
:101A60000068B0FBF3F04FF47A735843009060685D
:101A7000B0F5827F0DD10B460092002280212046D6
:101A800000F016F870B1606D40F020006065032032
:101A900038BD009830B1401E009020688068C04377
:101AA0000006F6D5002038BD3400002000366E0157
:101AB0002DE9F0411D4617460E460446DDF8188014
:101AC00008E0681C06D0FFF745F8A0EB0800A84224
:101AD0000BD255B12068806836EA000030D0002073
:101AE000B842EED10020BDE8F0812068416821F0C5
:101AF000E00141606068B0F5827F0BD1A068B0F56D
:101B0000004F02D0B0F5806F04D12068016821F049
:101B100040010160A06AB0F5005F09D1206801684A
:101B200021F4005101602068016841F40051016016
:101B3000012084F85100002084F850000320D2E7EF
:101B40000120CDE77047FFF70BB8000030B593B028
:101B500030216846FEF76CFB14210CA8FEF768FBE9
:101B600019480025016841F080510160006800F0CB
:101B7000805011901548016841F48041016000686F
:101B8000022400F480401190012003901020049062
:101B9000009406940820CDE90750A820CDE9090457
:101BA00004200B906846FFF771F90CA90F2081E81B
:101BB00031004FF4A0500F90E002109005210CA8C6
:101BC000FFF778F813B030BD403802400070004095
:101BD0000548016841F47001016003494FF000605D
:101BE000803908607047000088ED00E010B5806B18
:101BF0000021C185C184FFF7B8FC10BD70B5846BAE
:101C00002068406994F83910C0F3C01000252129DC
:101C100004D118B1E584204600F03FF820684069FF
:101C200094F83A10C0F38010222904D118B1E58548
:101C3000204600F024F8E06B40F01000E0632046FE
:101C4000FFF793FC70BD10B50146806B0968096809
:101C5000C9050CD40021C18401684A6922F08002C0
:101C60004A610068C16841F04001C16010BDFFF7E2
:101C70001BFE10BD10B5806BFFF717FE10BD01688D
:101C8000CA6822F49072CA6001684A6922F00102AF
:101C90004A61202180F83A1070470168CA6822F032
:101CA000C002CA60202180F83910704710B590F842
:101CB0003A10222901D0022010BD8168B1F5805F61
:101CC00011D00169002901681FD0496801F07F0324
:101CD000816A4A1C82620B70C18D491E0904090C7D
:101CE000C18518D02BE00269816A002A0268526817
:101CF00005D0D2B20A80816A491C8162ECE7C2F346
:101D000008020A80816A891CF7E74A68816A4B1CCD
:101D100083620A70E0E70168CA6822F02002CA60A4
:101D20000168CA6822F48072CA6001684A6922F0B8
:101D300001024A61202180F83A10FFF757FD002088
:101D400010BD00002DE9F041044600680169E26819
:101D500021F44051114301612169A068E2690843FF
:101D60006169114308432168CA6849F20C639A43C8
:101D70000243CA6020684169A26921F4407111439D
:101D80004161E069192764253226B0F5004F354AD4
:101D9000354920684FF0000806D0884201D09042B3
:101DA00036D1FFF731F835E0884201D0904202D1B8
:101DB000FFF72AF801E0FFF717F861684A18A0FB5F
:101DC000070148EB0803FEF7FBF90146B0FBF5F00D
:101DD0000201B1FBF5F06FF01803584301EB8000EE
:101DE00006EBC000B0FBF5F000F0F80002EB40029B
:101DF000B1FBF5F0584301EB800006EBC000B0FBEF
:101E0000F5F000F00700216810448860BDE8F0811B
:101E1000FEF7EAFF61688B0F8A00A0FB0701FEF75F
:101E2000CFF90146B0FBF5F06FF01802504301EB1B
:101E3000800006EB0010B0FBF5F000F0F002B1FB03
:101E4000F5F002EB0012B1FBF5F06FF01803584308
:101E500001EB800006EB0010B0FBF5F000F00F0086
:101E6000D1E70000001401400010014090F8391043
:101E7000212901D0022070478168B1F5805F016A95
:101E80000BD04A1C0262026809785160C18C491E5D
:101E90000904090CC1840ED017E009880268C1F357
:101EA0000801516001690029016A02D0491C0162E0
:101EB000ECE7891CFBE70168CA6822F08002CA606F
:101EC0000068C16841F04001C16000207047000017
:101ED0000148FFF74BBB000030010020FEE7090777
:101EE000090E002804DB00F1E02080F800147047A0
:101EF00000F00F0000F1E02080F8141D704702E0B0
:101F000008C8121F08C1002AFAD170477047002084
:101F100001E001C1121F002AFBD1704730B54FF01C
:101F2000E02185B08A6901924A69521C08B10123F7
:101F300000E00023C01A50434FF47A73B0FBF3F370
:101F4000019C002000948C690194DDE90045AC42BD
:101F500000D21444641B204400958342F3D805B09A
:101F600030BD000200127047A0B0FEF701FEFFF77F
:101F7000EDFDFFF7B3FCFFF79BFCFFF727FDFFF735
:101F80004BFDAA208DF800008DF80100F1208DF89E
:101F9000020008208DF80300FEF7A0F9FEF72EFAE4
:101FA000244F38780028FCD00920FEF733FE224960
:101FB000C8780A79000440EA02204A79CB791043B4
:101FC0008A79097A120442EA03260E43FFF7C9FF11
:101FD00005463046FFF7C5FF2A0E8DF8042001465E
:101FE0002A0C8DF80520000E2A0A8DF80800080C2E
:101FF0008DF80900080A8DF80A008DF806208DF882
:102000000B108DF80750002069460A5C401C2244E2
:10201000C0B2D4B20C28F8D38DF80C400020387030
:1020200004460D220548FFF7FFFB0920FEF703FEDB
:10203000B7E7000000000020380000203001002039
:102040000006101600061016000000000000000038
:10205000010203040607080900000000010203044E
:10206000802000080000002038000000FE1E00084C
:10207000B820000838000020980500000E1F000856
:10208000000200020000000000000101010D00013B
:10209000010000000100010100000000010100003A
:1020A000000000000000000001000000100000001F
:0820B000000000000024F40010
:040000050800018965
:00000001FF
