:020000040800F2
:1000000020050020A10100084D6200080F1C000817
:100010004962000801060008A96C00080000000001
:10002000000000000000000000000000576200080F
:10003000CD08000800000000556200085962000861
:10004000BB010008BB010008BB010008BB010008A0
:10005000BB010008BB010008BB010008CF08000875
:10006000BB010008BB010008BB010008BB01000880
:10007000BB010008BB010008BB010008BB01000870
:10008000BB010008BB010008BB010008BB01000860
:10009000BB010008BB010008BB010008BB01000850
:1000A000BB010008BB010008BB010008BB01000840
:1000B000BB010008BB010008BB010008BB01000830
:1000C000BB010008BB010008BB010008BB01000820
:1000D000BB010008BB010008BB010008BB01000810
:1000E000BB010008BB010008BB010008BB01000800
:1000F000BB010008BB010008BB010008BB010008F0
:10010000BB010008BB010008BB010008BB010008DF
:10011000BB010008BB010008BB010008BB010008CF
:10012000BB010008BB010008BB010008BB010008BF
:10013000BB010008BB010008BB010008BB010008AF
:10014000BB010008BB010008BB010008BB0100089F
:10015000BB010008BB010008BB010008BB0100088F
:10016000BB010008BB010008BB010008BB0100087F
:10017000BB010008BB010008BB0100080000000033
:10018000BB010008BB010008DFF810D000F026FA20
:1001900000480047F96E0008AFF3008020050020FA
:1001A0000648804706480047FEE7FEE7FEE7FEE711
:1001B000FEE7FEE7FEE7FEE7FEE7FEE7196300085D
:1001C000890100082DE9F05F0546002092469B4614
:1001D00088460646814640241BE02846414647465D
:1001E000224600F03CF953465A46C01A914110D3BA
:1001F00011461846224600F023F92D1A67EB010834
:100200004F4622460120002100F01AF917EB0009A1
:100210004E41201EA4F10104DFDC484631462A4647
:100220004346BDE8F09F40EA01039B0703D009E085
:1002300008C9121F08C0042AFAD203E011F8013BD2
:1002400000F8013B521EF9D27047D2B201E000F82B
:10025000012B491EFBD270470022F6E710B513466A
:100260000A4604461946FFF7F0FF204610BD10B5B8
:10027000002200E0521C835C8C5CA34201D1002B65
:10028000F8D1D8B2E1B2401A10BD2DE9FE4F81EA93
:10029000030404F0004421F0004100944FF0000BEF
:1002A00023F0004350EA01045ED052EA03045BD01D
:1002B000C3F30A54C1F30A552C44A4F2F334019455
:1002C000A0FB0254C1F3130141F48011C3F31303E3
:1002D00043F4801301FB024400FB034E840A970A97
:1002E00044EA815447EA8357A4FB076802958D0AC4
:1002F00005FB07854FEA932C04FB0C542705029D50
:100300004FEA065847EA1637B5EB08056EEB070CBF
:10031000870E920E47EA811742EA8312A7FB020179
:10032000B6EB0B0164EB00042B0D43EA0C335E18B3
:1003300044EB1C50DA465146E7FB0201C5F31304B7
:100340004FEA0B3343EA14534FEA0432019C43EA69
:100350000603A4F10C040294009CCDE900B400F063
:100360009DF803B0BDE8F08F00200146F9E70EB517
:1003700040F2334102910021CDE900110A460B46BB
:1003800000F08CF803B000BDC1F30A5210B5C1F300
:10039000130140F2FF3341F480119A4201DA002048
:1003A00010BD40F233439A42A2F2334203DC524280
:1003B00000F055F810BD904010BD00F0004230F044
:1003C00000400AD0C10D01F56071C0F3160042EA89
:1003D0000151C20840071143704700200146704791
:1003E00030B5041E71F1000404DB4FF000444042BC
:1003F00064EB0101141E73F1000405DB1C464FF091
:100400000043524263EB04038B4208BF824230BD7B
:1004100030B5041E71F1000404DB4FF0004440428B
:1004200064EB0101141E73F1000405DB1C464FF060
:100430000043524263EB0403994208BF904230BD2F
:10044000202A04DB203A00FA02F100207047914094
:10045000C2F1200320FA03F3194390407047202A89
:1004600004DB203A21FA02F00021704721FA02F35E
:10047000D040C2F12002914008431946704710B5A0
:10048000141E73F1000408DA401C41F100019218B7
:100490005B411A4301D120F0010010BD2DE9F04D60
:1004A00092469B4611B1B1FA81F202E0B0FA80F2B5
:1004B00020329046FFF7C4FF04460F4640EA0A0088
:1004C00041EA0B0153465A46084313D0114653EAFA
:1004D000010019D0C8F140025046FFF7C0FF0546A1
:1004E0000E46504659464246FFF7AAFF084305D03C
:1004F000012004E020463946BDE8F08D0020054388
:1005000046EAE0762C4337430A986305E40AA0EBF9
:1005100008000022FD0A44EA47540A3002D50020B0
:100520000146E9E7010510196941DDE908450019AF
:100530006941BDE8F04DA2E72DE9F04D00231A46D0
:100540001B1A8A4103DB00200146BDE8F08DC1F390
:100550000A52C1F3130141F480154FF0000BD1078B
:1005600002D100186D41521E0027044640F2FF11CF
:10057000384601EB620A3E468046024600204FF4B0
:100580008011FFF76CFFC2197141BB1846EB0100E7
:10059000B4EB030C75EB000C04D3E41A65EB000517
:1005A00017460E46241908F101006D418046342893
:1005B000E3DDF91946EB0600091BA84103D24FF011
:1005C000FF32134601E0002213461BEB070046EB07
:1005D0000A51BDE8F04DFFF752BF0000064C074D31
:1005E00006E0E06840F0010394E807009847103403
:1005F000AC42F6D3FFF7CCFD28B7000848B7000897
:1006000000BFFEE710B500220121124800F046FDB0
:100610001148006820F440000F490860084600684F
:1006200040F4800008600022C9140B4800F036FD39
:10063000022006F024FC01221146064800F02EFD9F
:10064000022006F01CFC00220121024800F026FDD9
:1006500010BD0000000402400014024010B500224A
:100660000121124800F01AFD1148006820F44000F2
:100670000F4908600846006840F4800008600122C5
:10068000C9140B4800F00AFD022006F0F8FB012215
:100690001146064800F002FD022006F0F0FB0022A1
:1006A0000121024800F0FAFC10BD000000040240E5
:1006B0000014024070B5054600241A48006820F472
:1006C0004000184908600846006808601E2006F0CF
:1006D000D6FB00261BE000220121134800F0DEFCBF
:1006E000022006F0CCFB012211460F4800F0D6FC98
:1006F0006006040E4FF400610A4800F0C7FC08B120
:10070000601CC4B2022006F0BAFB701CC6B2082EF0
:10071000E1DB15B9FFF7A2FF01E0FFF773FF204609
:1007200070BD0000001402400004024070B5044691
:100730001D48006820F440001B4908600846006816
:1007400040F48000086000220121184800F0A6FC57
:10075000002526E004F05000C01128B10122D1028A
:10076000114800F09BFC05E000224FF400610E48A8
:1007700000F094FC6006040E022006F080FB0122CB
:1007800011460A4800F08AFC022006F078FB00229D
:100790000121064800F082FC022006F070FB681C74
:1007A000C5B2082DD6DB70BD001402400004024023
:1007B00010B51348006820F440001149086008464D
:1007C000006840F4800008600122C9140C4800F061
:1007D00065FC012211460B4800F060FC1E2006F06B
:1007E0004EFB00224FF40061054800F057FC022048
:1007F00006F045FB00220121024800F04FFC10BD2D
:10080000001402400004024010B51348006820F4B0
:100810004000114908600846006840F48000086004
:10082000002201210D4800F039FC00224FF4006144
:10083000094800F033FC1E2006F021FB012211467E
:10084000064800F02BFC022006F019FB0122D10221
:10085000014800F023FC10BD0014024000040240D7
:1008600010B500241748006820F4400015490860BE
:100870000846006808600122C914124800F00EFC06
:1008800001221146104800F009FC022006F0F7FA98
:100890000AE0601CC4B2FA2C03DDFFF7B5FF0120AB
:1008A00010BD022006F0EBFA4FF40061054800F09D
:1008B000EDFB0028EDD100220121034800F0EEFB02
:1008C0000020EDE70014024000040240704710B51C
:1008D000022000F0CBFA10BD72B600BFFEE70000A8
:1008E00070B504461D460023B5F5804F13D154F86A
:1008F00022300C480340D1E9000640EA06108E6819
:1009000040EA06208E8940EA06408E693043034360
:1009100044F8223003E06FF0704044F822000020D9
:1009200070BD00000000F0CF10B50346002208683B
:1009300053F8202012480240D1E901042043CC683A
:1009400020430C6920434C6920438C692043CC69C7
:1009500020430C6A20434C6A20438C6A2043CC6AB3
:100960002043CC6B20430C6B20430243886808284B
:1009700001D142F04002086843F82020002010BD59
:100980008000F0FF30B503460024501C53F820408F
:1009900004F04044D1E9000540EA05108D6840EAC2
:1009A00005208D8940EA0545088A401E45EA005524
:1009B000087D801E45EA00608D6928430443501C71
:1009C00043F82040002030BD1CB500224FF40051F8
:1009D000214800F063FB0A2000F0C0F90122510316
:1009E0001D4800F05BFB642000F0B8F900220221F2
:1009F0001A4800F053FB052000F0B0F90122022153
:100A0000164800F04BFB052000F0A8F90022022157
:100A1000124800F043FB0422694648F2401000F0FF
:100A200029F800208DF8040069460DA006F03EF973
:100A30000EA16846FFF71BFC58B90A2000F08EF99A
:100A400000208DF800000122694648F2400000F0C5
:100A500039F900201CBD00000008024000040240DB
:100A60004354502049443A25730D0A003131353141
:100A7000000000002DE9F04105460F461646FFF73D
:100A800097FE2820FFF752FEFFF7EAFE8046281265
:100A9000FFF74CFEFFF7E4FEE8B2FFF747FEFFF773
:100AA000DFFEFFF785FE2920FFF740FEFFF7D8FEA7
:100AB00000240BE0711EA14201D0012100E00021C1
:100AC0000846FFF7F7FD3855601CC4B2B442F1DBAD
:100AD000FFF79AFEBDE8F0812DE9F14183B00024D3
:100AE000A04675480078401C734908700846007895
:100AF0000A2190FBF1F201FB120018B16E48007858
:100B00000A287DDA012203A948F24E10FFF7B2FF4E
:100B10009DF80C0000F0800068B19DF80C0000F01A
:100B20000F000A2807DA00200190012201A948F2EB
:100B30004E1000F0C7F89DF80C0000F00F000028E0
:100B40005ED09DF80C0000F00F000A28D9DA9DF85D
:100B50000C0000F00F01FF208840C0B20190574800
:100B600090F830509DF80400C04380B240F0C000BF
:100B7000524908860846067A077F002446E04F4817
:100B8000008E0121A140084028B34D4931F81400DE
:100B9000042202A9FFF76EFF484890F84800012898
:100BA0001AD19DF808009DF8091000EB012081B2D0
:100BB00042481C3020F814109DF80A009DF80B10D4
:100BC00000EB01203D49B1F84210081A81B23B48C0
:100BD000083020F8141017E09DF808009DF809105F
:100BE00000EB012081B23548083020F814109DF840
:100BF0000A009DF80B1000EB012081B22F4800E0A5
:100C000031E01C3020F81410601CC4B20A2CB6DB92
:100C10004FF00108294800892849B1F8421088425C
:100C200005DC2648818BB0F84400814218DD9DF830
:100C30000C0000F00F0001280ADD204840891F4900
:100C400008810846C08B888300201B4908700AE091
:100C50001A4806818783802003901848058602E0A1
:100C60000020154908709DF80C0000F08F008028C6
:100C700017D1124890F8300000F0800030B10F48D2
:100C8000008E20F080000D4908860AE04FF6FF70C4
:100C90000A4908818883084690F8300000F0E00097
:100CA000088605480078F02802DD0A20024908700D
:100CB000404604B0BDE8F081080000203C00002060
:100CC0007AB600082DE9F04104460E4617464FF06B
:100CD0000008FFF76DFD2820FFF728FDFFF7C0FD96
:100CE0002012FFF723FDFFF7BBFDE0B2FFF71EFD6B
:100CF000FFF7B6FD00250BE0705DFFF717FDFFF76E
:100D0000AFFD8046B8F1000F00D003E0681CC5B20B
:100D1000BD42F1DB00BFFFF777FD4046BDE8F08143
:100D200070B504460D460A4820600A48606080207D
:100D300084F840000E22294604F14200FFF773FABE
:100D4000502221460448FFF76EFA002070BD0000D3
:100D5000C9090008D90A00083C00002070B5044603
:100D600000F0A2F906462546681C10B10448007838
:100D7000054400BF00F098F9801BA842FAD370BD6B
:100D80001C00002000B587B0142102A8FFF764FA08
:100D90002A48006808B107B000BD01202749086053
:100DA00000BF002001902648006840F0010024495F
:100DB00008600846006800F00100019000BF00BF15
:100DC00088140290022003900020049003200590D4
:100DD0000C20069002A91B4800F056F84FF68070D0
:100DE00002900220039000200490032005900C2024
:100DF000069002A9144800F047F84CF233700290B4
:100E00000220039000200490032005900C200690FF
:100E100002A90E4800F038F84FF4805002900220EA
:100E2000039000200490032005900C20069002A956
:100E3000074800F029F800BFADE700000C000020D3
:100E4000383802400014024000100240000C0240FA
:100E50000018024010B504460122034948F244003C
:100E6000FFF708FE10BD00000900002010B5044681
:100E700004480068204020B1024804602046FFF783
:100E8000E9FF10BD143C0140F8B502460B460025B1
:100E9000002400200021DEE0012606FA01F51E688C
:100EA00006EA0504AC4275D11E7906F00306012E50
:100EB00004D01E7906F00306022E13D190684F006D
:100EC0000326BE40B0434F00DE68BE403043906012
:100ED000506801268E40B0431E79C6F300168E403E
:100EE000304350601E7906F00306032E09D0D06807
:100EF0004F000326BE40B0434F009E68BE403043C3
:100F0000D0601E7906F00306022E13D1CF0802F13D
:100F1000200656F827004E07F70E0F26BE40B043B6
:100F20004F07FF0E1E69BE403043CF0802F1200676
:100F300046F8270010684F000326BE40B0431E79D4
:100F400006F003064F00BE40304310605E6806F0B6
:100F50008056B6F1805F7DD100BF00260096404EDE
:100F6000366846F480463E4F3E603E46366806F49C
:100F70008046009600BF00BF3A4E8F0856F8270003
:100F80008E07370F0F26BE40B043374EB24202D114
:100F9000002624E05EE0354EB24201D101261EE07B
:100FA000334EB24201D1022619E0324EB24201D193
:100FB000032614E0304EB24201D104260FE02F4E3A
:100FC000B24201D105260AE02D4EB24201D10626D9
:100FD00005E02C4EB24201D1072600E008268F071B
:100FE0003F0FBE4030431F4E8F0846F82700264E65
:100FF0003068A0435E6806F48036B6F5803F00D1C5
:101000002043214E3060361D3068A0435E6806F4F0
:101010000036B6F5003F00D120431B4E361D306030
:10102000361D3068A0435E6806F48016B6F5801F52
:1010300000D12043144E08363060361D3068A0437E
:101040005E6806F40016B6F5001F00D120430E4E70
:101050000C363060491C1029FFF41EAFF8BD0000AB
:1010600044380240083801400000024000040240B9
:1010700000080240000C0240001002400014024030
:1010800000180240001C0240003C01400246136967
:101090000B400BB1012000E0002070470AB18161D4
:1010A00001E00B048361704701480068704700004D
:1010B00014000020034800680349097808440149E6
:1010C00008607047140000201C00002010B50D4877
:1010D000006840F400700B4908600846006840F45E
:1010E000806008600846006840F480700860032053
:1010F00000F0A2F8002000F007F800F02BF8002024
:1011000010BD0000003C024070B504460E48007857
:101110004FF47A71B1FBF0F00C490968B1FBF0F5BE
:10112000284600F074FC08B1012070BD102C07D2D5
:1011300000222146501E00F041F80548046001E0FD
:101140000120F2E70020F0E71C0000202000002032
:101150001800002008B500BF002000900E4800686D
:1011600040F480400C4908600846006800F4804064
:10117000009000BF00BF00BF00200090081F006863
:1011800040F08050091F08600846006800F0805059
:10119000009000BF00BF08BD443802400146084629
:1011A000002809DB00F01F0301229A4043099B003D
:1011B00003F1E023C3F8002100BF70472DE9F05F81
:1011C00080460D461646002705F080FD0746394645
:1011D0002A46334601F00700C0F1070ABAF1040FAE
:1011E00002D94FF0040A01E0C0F1070AD14600F12C
:1011F000040ABAF1070F02D24FF0000A01E0A0F191
:10120000030AD4464FF0010A0AFA09FAAAF1010AC0
:101210000AEA020A0AFA0CFA4FF0010B0BFA0CFB6D
:10122000ABF1010B0BEA030B4AEA0B0421464046E3
:1012300005F054FDBDE8F09F00BF00F00702064B2B
:1012400019684FF6FF031940044B0B4343EA022190
:10125000014B196000BF70470CED00E00000FA057B
:101260007047000070B504460D460CB9012070BDF2
:101270005848006800F00700A84209D255490D708F
:101280000846006800F00700A84201D00120EEE700
:10129000207800F0020002281DD1207800F0040020
:1012A000042805D14C48006840F4E0504A490860E1
:1012B000207800F00800082805D14748006840F46D
:1012C0006040454908604448006820F0F000A1688B
:1012D000084341490860207800F00100A8B3606825
:1012E000012807D13C4808380068C0F34040B8B92D
:1012F0000120BCE76068022802D06068032807D19B
:10130000354808380068C0F3406048B90120AEE7AE
:10131000314808380068C0F3400008B90120A6E74A
:101320002D48006820F00300616808432A490860DE
:10133000FFF7BAFE064609E0FFF7B6FE801B41F252
:101340008831884202D9032091E707E022480068EB
:1013500000F00C006168B0EB810FEDD11D48006812
:1013600000F00700A84209D91A490D700846006824
:1013700000F00700A84201D0012078E7207800F0B3
:101380000400042807D11448006820F4E050E16804
:10139000084311490860207800F00800082808D1A7
:1013A0000D48006820F46040216940EAC1000A4904
:1013B000086000F045F808490968C1F30311074ABD
:1013C000515CC8400649086006480068FFF79CFE6B
:1013D00000204CE7003C02400838024094B6000868
:1013E000200000201800002001200149C864704737
:1013F00000004742014800687047000020000020BC
:1014000000B5FFF7F7FF04490968C1F38221034AD9
:10141000515CC84000BD000008380240A4B6000876
:1014200000B5FFF7E7FF04490968C1F34231034AF9
:10143000515CC84000BD000008380240A4B6000856
:101440002DE9F047002400250026A1462548006824
:1014500000F00C0020B1042805D008283AD105E09E
:10146000DFF8849039E0DFF8849036E01D48001FF3
:10147000006800F03F041B48001F006800F4800073
:1014800078B11A481749091F0968C1F38811A0FBF0
:1014900001700146224600233846FEF793FE0546BA
:1014A0000EE011480F49091F0968C1F38811A0FB1C
:1014B00001700146224600233846FEF783FE0546AA
:1014C0000848001F0068C0F30140401C4600B5FBFF
:1014D000F6F902E0DFF8109000BF00BF4846BDE813
:1014E000F0870000083802400024F40000127A005F
:1014F00010B50648006800F08000802805D1FFF78D
:10150000AFFE80200149891C087010BD0C380240D4
:10151000F8B504460CB90120F8BD207800F00100B0
:10152000002874D0F948006800F00C0004280DD0A1
:10153000F648006800F00C00082813D1F348001F9B
:10154000006800F48000B0F5800F0BD1EF48083838
:101550000068C0F34040002859D06068002856D188
:101560000120D9E700BF6068B0F5803F08D1E748A7
:101570000838006840F48030E449083908601EE00B
:101580006068B0F5A02F0DD1E0480838006840F43D
:101590008020DE49083908600846006840F4803041
:1015A00008600CE0D9480838006820F48030D7493A
:1015B000083908600846006820F48020086000BFF1
:1015C000606890B1FFF770FD054606E0FFF76CFD1F
:1015D000401B642801D903209EE7CC4808380068E6
:1015E000C0F340400028F1D011E0FFF75DFD054653
:1015F00006E0FFF759FD401B642801D903208BE763
:10160000C24808380068C0F340400028F1D1207873
:1016100000F0020002285FD1BC48006800F00C0016
:1016200058B1BA48006800F00C0008281CD1B7482F
:10163000001F006800F48000B0B9B44808380068A2
:10164000C0F3400020B1E068012801D0012063E729
:10165000AE480838006820F0F800216940EAC1006F
:10166000AA490839086037E0E06800B30120A849BA
:101670000860FFF719FD054606E0FFF715FD401B62
:10168000022801D9032047E7A04808380068C0F3C2
:1016900040000028F1D09D480838006820F0F8008C
:1016A000216940EAC10099490839086014E0002026
:1016B00097490860FFF7F8FC054606E0FFF7F4FCE1
:1016C000401B022801D9032026E79048083800680B
:1016D000C0F340000028F1D1207800F0080008286D
:1016E0002CD16069A8B101208A490860FFF7DCFCB1
:1016F000054606E0FFF7D8FC401B022801D903206D
:101700000AE782486C300068C0F340000028F1D03E
:1017100014E000207F490860FFF7C6FC054606E09C
:10172000FFF7C2FC401B022801D90320F4E67748EA
:101730006C300068C0F340000028F1D1207800F040
:101740000400042870D1002770483830006800F089
:10175000805090B900BF002000906C48383000687D
:1017600040F080506949383108600846006800F050
:101770008050009000BF00BF01276748006800F458
:101780008070B0B96448006840F4807062490860B5
:10179000FFF78AFC054606E0FFF786FC401B02289F
:1017A00001D90320B8E65C48006800F48070002886
:1017B000F2D000BFA068012808D154486830006802
:1017C00040F001005149683108601DE0A06805281B
:1017D0000DD14E486830006840F004004B49683134
:1017E00008600846006840F0010008600CE04748C7
:1017F0006830006820F001004449683108600846FC
:10180000006820F00400086000BFA068A8B1FFF7DE
:101810004BFC054609E0FFF747FC401B41F28831CD
:10182000884202D9032077E626E03848683000680D
:10183000C0F340000028EED013E0FFF735FC05466A
:1018400008E0FFF731FC401B41F28831884201D9A2
:10185000032061E62D4868300068C0F3400000288E
:10186000EFD1012F07D129483830006820F080508F
:1018700026493831086000BFA069002845D02348B8
:10188000006800F00C0008285DD0A069022845D14E
:1018900000201F490866FFF707FC054606E0FFF732
:1018A00003FC401B022801D9032035E617480838FD
:1018B0000068C0F340600028F1D1D4E90701084373
:1018C000616A40EA81110122A06AC2EB500041EA3C
:1018D00000412C20005D41EA00600C49091F0860AE
:1018E00001200B490866FFF7DFFB054606E0FFF71E
:1018F000DBFB401B022801D903200DE60348083812
:101900000068C0F340600028F1D049E00838024088
:1019100000004742800E47420070004000202149ED
:101920000866FFF7C1FB054606E0FFF7BDFB401B5D
:10193000022801D90320EFE51B480068C0F340608E
:101940000028F2D12CE0A069012800D1E4E5164876
:10195000001D0668A069012820D006F48001E06916
:1019600081421BD106F03F01206A814216D147F621
:10197000C0703040616AB0EB811F0FD106F4403176
:101980000122A06AC2EB5000B1EB004F06D106F075
:1019900070612C20005DB1EB006F01D00120BBE530
:1019A0000020B9E5000047420038024070B5044607
:1019B0000E4615460CB9012070BD94F8490028B9AF
:1019C000002084F84800204600F01CF804F10801CB
:1019D0002068FEF7A9FF3146A2682068FEF7D2FF13
:1019E0002946236BD4E90102FEF77AFFA16820683B
:1019F00050F8210040F00100A268216841F822005F
:101A00000020D9E710B50446FFF7BCF910BD70B54A
:101A100004462546681EB0F1807F01D301200FE007
:101A2000681E4FF0E02148610F214FF0FF3005F0B4
:101A300055F900204FF0E02188610720086100205F
:101A400070BD10B504460CB9012010BDA06900B1ED
:101A500000E000BF94F83D0028B9002084F83C0065
:101A6000204600F027F8242084F83D002068C06854
:101A700020F400502168C860204604F0C9FF2068A7
:101A8000006920F49040216808612068406920F0D6
:101A90002A00216848612068C06840F4005021682D
:101AA000C86000202064202084F83D0084F83E00B7
:101AB0000020CAE710B586B00446142101A8FEF73D
:101AC000CBFB1B492068884230D100BF002000902A
:101AD0001848006840F01000164908600846006881
:101AE00000F01000009000BF00BF00BF0020009079
:101AF00010481438006840F001000E49143908609D
:101B00000846006800F00100009000BF00BF4FF4DD
:101B1000C0600190022002900020039003200490F6
:101B20000720059001A90448FFF7AEF906B010BDE3
:101B30000010014044380240000002402DE9F84FF7
:101B400004460E46174699464FF0000A94F83D00A9
:101B500020285AD106B117B90120BDE8F88F00BF7F
:101B600094F83C00012801D10220F6E7012084F816
:101B70003C0000BF00202064212084F83D00FFF7D6
:101B800093FA8246A784E784A068B0F5805F04D109
:101B9000206910B90025B04602E035464FF0000834
:101BA00000BF002084F83C0000BF1BE05346002229
:101BB00080212046CDF8009005F040F808B10320C0
:101BC000CBE745B9B8F80000C0F3080021684860C9
:101BD00008F1020803E02878216848606D1CE08C59
:101BE000401EE084E08C0028E0D1534600224021D2
:101BF0002046CDF8009005F021F808B10320ACE7AD
:101C0000202084F83D000020A7E70220A5E700BFC0
:101C1000FEE7000070B504460026094805884088A4
:101C200045430021084603F0E5FF04F09DF900BF9D
:101C300002E004480480761CAE42FAD370BD000076
:101C40002C0000208000006C10B50446002C6BD1E5
:101C500072498871F02008804FF4A07048800846CF
:101C6000808849F2413188420BD06C48808846F622
:101C70000401884205D06948808845F210318842C5
:101C80001AD12C20654908812A2048812B2088817F
:101C90000846808846F60401884205D05F4880885F
:101CA00045F21031884206D14FF4A0705B4908809C
:101CB0004FF4F0704880ACE05848808845F21051ED
:101CC000884215D14FF43050544908814FF42850C0
:101CD00048814FF42C5088814FF4F07008804FF405
:101CE0004870488000214FF4585004F047F990E0C4
:101CF0004A48808841F6631188420DD12C2047491B
:101D000008812B2048812A2088814FF4F0700880B8
:101D10004FF4487048807CE0222040490881202010
:101D200048812120888174E001203C4988714FF46A
:101D3000A0700880F02048800846808849F2413130
:101D4000884205D03548808845F21031884207D155
:101D50002C20324908812A2048812B20888145E0A7
:101D60002E48808846F60401884207D12C202B4952
:101D700008812B2048812A20888137E027488088E5
:101D800045F21051884216D14FF430502349088152
:101D90004FF4285048814FF42C5088814FF44870FC
:101DA000088060214FF4585004F0E8F84FF4F070C8
:101DB0001A4948801AE01948808841F66311884220
:101DC0000DD12C20154908812A2048812B2088819B
:101DD0004FF4487008804FF4F070488006E02220ED
:101DE0000E49088121204881202088810B48808865
:101DF00046F60401884205D00848808845F2103133
:101E0000884206D14FF4F070044908804FF4A07066
:101E10004880012003F076FD10BD00002C0000205A
:101E20002DE9FF4F85B081468A46294912980860FE
:101E30000020039083460798A0EB09050898A0EBC3
:101E40000A06CDF80890CDF804A0002D01DD012789
:101E500005E00DB9002702E04FF0FF376D42002E7C
:101E600002DD4FF0010806E016B94FF0000802E06D
:101E70004FF0FF387642B54201DD2C4600E0344693
:101E8000002004901DE0019A91B2029A90B200F0F5
:101E900021F8039828440390B3440398A04205DD39
:101EA0000398001B0390029838440290A34504DD78
:101EB000ABEB040B0198404401900498401C80B2A5
:101EC0000490611C04988842DDDD09B0BDE8F08F04
:101ED0000000002070B504460D462946204603F058
:101EE00089FE04F041F8024800880249088070BD6C
:101EF000000000208000006C2DE9F04706460F46E8
:101F000090469A462448C0F800A000244546032085
:101F1000A0EB48093CE07A1B91B2321990B2FFF76E
:101F2000D9FF3A1B91B2721990B2FFF7D3FF3A1959
:101F300091B2721990B2FFF7CDFF7A1991B23219AE
:101F400090B2FFF7C7FF7A1991B2321B90B2FFF738
:101F5000C1FF3A1991B2721B90B2FFF7BBFF7A1B17
:101F600091B2321B90B2FFF7B5FF3A1B91B2721BD0
:101F700090B2FFF7AFFF641CB9F1000F03DAA000C5
:101F8000801D814404E0601B80000A3081446D1E86
:101F9000AC42C0DDBDE8F0870000002070B504460B
:101FA0000D4616465B48808849F24131884205D08B
:101FB0005848808845F21031884214D155494889E3
:101FC00003F0CCFF201203F0C3FFE0B203F0C0FF28
:101FD0005049888903F0C2FF281203F0B9FFE8B224
:101FE00003F0B6FF8CE04B48808845F210518842E0
:101FF00020D14849488903F0B1FF201203F0A8FF1F
:1020000044494989491C88B203F0A8FFE0B203F0B3
:102010009FFF4049888903F0A1FF281203F098FF31
:102020003C498989491C88B203F098FFE8B203F063
:102030008FFF65E03748808841F66311884228D1D8
:102040003448807920B933480088401E001B84B290
:102050003049488903F082FF201203F079FFE0B293
:1020600003F076FF201203F073FFE0B203F070FF7D
:102070002849888903F072FF281203F069FFE8B24B
:1020800003F066FF281203F063FFE8B203F060FF7D
:1020900036E02048808846F6040188421DD11D485C
:1020A0008079012804D11B480088401E001B84B29F
:1020B0001849488903F052FF201203F049FFE0B2AB
:1020C00003F046FF1349888903F048FF281203F004
:1020D0003FFFE8B203F03CFF12E00E488079012890
:1020E00004D10C480088401E001B84B2094948896D
:1020F000214603F043FF07498889294603F03EFF44
:1021000004480089044908804FF0D840A0F8806056
:1021100070BD00002C0000207E00006C10B5012175
:10212000002003F02BFF3220FEF718FE002003F002
:10213000ADFBFE49888008468088FF280ADB0846F8
:1021400080884FF6FF71884204D0F8488088B0F547
:10215000134F7CD1D32003F001FF03F08DFBF34933
:10216000888003F089FBF149888003F085FBEF4903
:102170008880084680884FF6FF7101EA0020EB490D
:10218000888003F079FBE94989880843E74988801A
:102190000846808849F24131884258D0BF2003F078
:1021A000DDFE03F069FBE149888003F065FBDF4950
:1021B000888003F061FBDD49888003F05DFBDB492B
:1021C0008880084680884FF6FF7101EA0020D749D1
:1021D000888003F051FBD54989880843D34988801A
:1021E0000846808846F6040188427AD0D42003F05D
:1021F000B5FE03F041FBCD49888003F03DFBCB49A0
:10220000888003F039FBC9498880084680884FF6EA
:10221000FF7101EA0020C549888003F02DFBC34906
:1022200089880843C14988800846808845F2103172
:10223000884256D04FF45A4003F090FE03F01CFB46
:10224000BA4988804FF45B4003F088FE00E048E024
:1022500003F012FBB5498880084680884FF6FF716D
:1022600001EA0020B14988804FF45C4003F076FE1B
:1022700003F002FBAD4989880843AC4988800846D1
:102280008088B0F5004F02D145F210508880A748F1
:10229000808845F21051884223D0A12003F05EFED1
:1022A00003F0EAFAA149888003F0E6FA9F498880A2
:1022B000084680884FF6FF7101EA00209B4988801C
:1022C00003F0DAFA994989880843984988800846D2
:1022D000808845F26171884203D141F663109349C9
:1022E00088809248808849F24131884211D08F48D5
:1022F000808845F2103188420BD08C48808845F2A6
:102300001051884205D08948808841F6631188427F
:102310001DD18748006820F00F004FF02041C1F820
:102320001C010846D0F81C0120F47060C1F81C01A3
:102330000846D0F81C0140F00300C1F81C01084613
:10234000D0F81C0140F40070C1F81C0128E0774867
:10235000808846F60401884205D0744880884CF293
:10236000055188421CD17248006820F00F004FF0E0
:102370002041C1F81C010846D0F81C0120F470600F
:10238000C1F81C010846D0F81C0140F00A00C1F851
:102390001C010846D0F81C0140F44060C1F81C0143
:1023A0006248808849F2413188427CD1CF2003F0D5
:1023B000D5FD002003F0CCFDC12003F0C9FD302085
:1023C00003F0C6FDED2003F0C9FD642003F0C0FD5D
:1023D000032003F0BDFD122003F0BAFD812003F0BD
:1023E000B7FDE82003F0BAFD852003F0B1FD102011
:1023F00003F0AEFD7A2003F0ABFDCB2003F0AEFD81
:10240000392003F0A5FD2C2003F0A2FD002003F0ED
:102410009FFD342003F09CFD022003F099FDF7207E
:1024200003F09CFD202003F093FDEA2003F096FDCD
:10243000002003F08DFD002003F08AFDC02003F092
:102440008DFD1B2003F084FDC12003F087FD0120DA
:1024500003F07EFDC52003F081FD302003F078FD00
:10246000302003F075FDC72003F078FDB72003F09E
:102470006FFD362003F072FD482003F069FD3A201D
:1024800003F06CFD552003F063FDB12003F066FD01
:10249000002003F05DFD1A2003F05AFDB62003F082
:1024A0005DFD0A2000E09EE003F052FDA22003F053
:1024B0004FFDF22003F052FD002003F049FD2620DD
:1024C00003F04CFD012003F043FDE02003F046FD46
:1024D0000F2003F03DFD2A2003F03AFD282003F0F1
:1024E00037FD082003F034FD0E2003F031FD0820F5
:1024F00003F02EFD542003F02BFDA92003F028FD4E
:10250000432003F025FD0A2003F022FD0F2003F0F5
:102510001FFD002003F01CFD002003F019FD00202A
:1025200003F016FD002003F013FD03E02C00002053
:102530001C0100A0E12003F011FD002003F008FDC4
:10254000152003F005FD172003F002FD072003F01E
:10255000FFFC112003F0FCFC062003F0F9FC2B200B
:1025600003F0F6FC562003F0F3FC3C2003F0F0FCF3
:10257000052003F0EDFC102003F0EAFC0F2003F02F
:10258000E7FC3F2003F0E4FC3F2003F0E1FC0F20D8
:1025900003F0DEFC2B2003F0E1FC002003F0D8FC6C
:1025A000002003F0D5FC012003F0D2FC3F2003F013
:1025B000CFFC2A2003F0D2FC002003F0C9FC00204D
:1025C00003F0C6FC002003F0C3FCEF2003F0C0FCC6
:1025D000112003F0C3FC7820FEF7C0FB292003F094
:1025E000BDFC03F035B9FE48808846F604018842F8
:1025F0007ED1112003F0B2FC1420FEF7AFFBD020F7
:1026000003F0ACFC072003F0A3FC422003F0A0FC85
:102610001D2003F09DFCD12003F0A0FC002003F05E
:1026200097FC1A2003F094FC092003F091FCD220BF
:1026300003F094FC012003F08BFC222003F088FCC3
:10264000C02003F08BFC102003F082FC3B2003F041
:102650007FFC002003F07CFC022003F079FC1120B9
:1026600003F076FCC52003F079FC032003F070FC36
:10267000C82003F073FC002003F06AFC252003F05F
:1026800067FC212003F064FC052003F061FC0020BE
:1026900003F05EFC0A2003F05BFC652003F058FCAD
:1026A000252003F055FC772003F052FC502003F066
:1026B0004FFC0F2003F04CFC002003F049FCF820F5
:1026C00003F04CFC012003F043FCFE2003F046FC29
:1026D000002003F03DFC022003F03AFC202003F030
:1026E0003DFC362003F03AFC082003F031FC00E00A
:1026F0002AE03A2003F032FC552003F029FC2B207D
:1027000003F02CFC002003F023FC002003F020FC4D
:10271000012003F01DFC3F2003F01AFC2A2003F0E7
:102720001DFC002003F014FC002003F011FC01202C
:1027300003F00EFCDF2003F00BFC7820FEF70EFB0D
:10274000292003F00BFC4CE7A548808845F21031A6
:10275000884240F07C87ED2003F000FC012003F06C
:10276000F7FBFE2003F0F4FBEE2003F0F7FBDE2086
:1027700003F0EEFB212003F0EBFBF12003F0EEFB76
:10278000012003F0E5FBDF2003F0E8FB102003F05D
:10279000DFFBC42003F0E2FB8F2003F0D9FBC6204F
:1027A00003F0DCFB002003F0D3FBE22003F0D0FBBE
:1027B000E22003F0CDFBE22003F0CAFBBF2003F0D0
:1027C000CDFBAA2003F0C4FBB02003F0C7FB0D2013
:1027D00003F0BEFB002003F0BBFB0D2003F0B8FBB1
:1027E000002003F0B5FB112003F0B2FB002003F042
:1027F000AFFB192003F0ACFB002003F0A9FB212064
:1028000003F0A6FB002003F0A3FB2D2003F0A0FBA8
:10281000002003F09DFB3D2003F09AFB002003F015
:1028200097FB5D2003F094FB002003F091FB5D20FB
:1028300003F08EFB002003F08BFBB12003F08EFB36
:10284000802003F085FB002003F082FB8B2003F047
:102850007FFB002003F07CFB962003F079FB002037
:1028600003F076FBB22003F079FB002003F070FB4D
:10287000002003F06DFB022003F06AFB002003F050
:1028800067FB032003F064FB002003F061FBB3202F
:1028900003F064FB002003F05BFB002003F058FB17
:1028A000002003F055FB002003F052FB002003F052
:1028B0004FFB002003F04CFB002003F049FB0020FD
:1028C00003F046FB002003F043FB002003F040FB35
:1028D000002003F03DFB002003F03AFB002003F052
:1028E00037FB002003F034FB002003F031FB002015
:1028F00003F02EFB002003F02BFB002003F028FB4D
:10290000002003F025FB002003F022FB002003F051
:102910001FFB002003F01CFB002003F019FB00202C
:1029200003F016FBB42003F019FB8B2003F010FB1F
:10293000002003F00DFB962003F00AFB002003F0BB
:1029400007FBA12003F004FB002003F001FBB520EE
:1029500003F004FB022003F0FBFA002003F0F8FA76
:10296000032003F0F5FA002003F0F2FA042003F04C
:10297000EFFA002003F0ECFAB62003F0EFFA0020A3
:1029800003F0E6FA002003F0E3FAB72003F0E6FADA
:10299000002003F0DDFA002003F0DAFA3F2003F014
:1029A000D7FA002003F0D4FA5E2003F0D1FA002019
:1029B00003F0CEFA642003F0CBFA002003F0C8FA4B
:1029C0008C2003F0C5FA002003F0C2FAAC2003F01B
:1029D000BFFA002003F0BCFADC2003F0B9FA01E0F2
:1029E0002C000020002003F0B3FA702003F0B0FAAE
:1029F000002003F0ADFA902003F0AAFA002003F0C3
:102A0000A7FAEB2003F0A4FA002003F0A1FADC20DF
:102A100003F09EFA002003F09BFAB82003F09EFA20
:102A2000002003F095FA002003F092FA002003F052
:102A30008FFA002003F08CFA002003F089FA0020BE
:102A400003F086FA002003F083FA002003F080FAF6
:102A5000BA2003F083FA242003F07AFA002003F06E
:102A600077FA002003F074FA002003F071FAC12015
:102A700003F074FA202003F06BFA002003F068FAE8
:102A8000542003F065FA002003F062FAFF2003F0FF
:102A90005FFA002003F05CFAC22003F05FFA0A201C
:102AA00003F056FA002003F053FA042003F050FA22
:102AB000002003F04DFAC32003F050FA3C2003F04D
:102AC00047FA002003F044FA3A2003F041FA0020CC
:102AD00003F03EFA392003F03BFA002003F038FA05
:102AE000372003F035FA002003F032FA3C2003F0DF
:102AF0002FFA002003F02CFA362003F029FA0020E8
:102B000003F026FA322003F023FA002003F020FA23
:102B10002F2003F01DFA002003F01AFA2C2003F0F6
:102B200017FA002003F014FA292003F011FA00200C
:102B300003F00EFA262003F00BFA002003F008FA47
:102B4000242003F005FA002003F002FA242003F009
:102B5000FFF9002003F0FCF9232003F0F9F900202D
:102B600003F0F6F93C2003F0F3F9002003F0F0F94C
:102B7000362003F0EDF9002003F0EAF9322003F0EB
:102B8000E7F9002003F0E4F92F2003F0E1F9002039
:102B900003F0DEF92C2003F0DBF9002003F0D8F974
:102BA000292003F0D5F9002003F0D2F9262003F004
:102BB000CFF9002003F0CCF9242003F0C9F900205C
:102BC00003F0C6F9242003F0C3F9002003F0C0F994
:102BD000232003F0BDF9002003F0BAF9C42003F06C
:102BE000BDF9622003F0B4F9002003F0B1F905202B
:102BF00003F0AEF9002003F0ABF9842003F0A8F94C
:102C0000002003F0A5F9F02003F0A2F9002003F062
:102C10009FF9182003F09CF9002003F099F9A420F3
:102C200003F096F9002003F093F9182003F090F9CF
:102C3000002003F08DF9502003F08AF9002003F002
:102C400087F90C2003F084F9002003F081F91720A4
:102C500003F07EF9002003F07BF9952003F078F96A
:102C6000002003F075F9F32003F072F9002003F05F
:102C70006FF9E62003F06CF9002003F069F9C52034
:102C800003F06CF9322003F063F9002003F060F9DF
:102C9000442003F05DF9002003F05AF9652003F0A9
:102CA00057F9002003F054F9762003F051F9002081
:102CB00003F04EF9882003F04BF9002003F048F9A7
:102CC000C62003F04BF9202003F042F9002003F066
:102CD0003FF9172003F03CF9002003F039F90120F7
:102CE00003F036F9002003F033F9C72003F036F97A
:102CF000002003F02DF9002003F02AF9002003F052
:102D000027F9002003F024F9C82003F027F9002058
:102D100003F01EF9002003F01BF9002003F018F95E
:102D2000002003F015F9C92003F018F9002003F082
:102D30000FF9002003F00CF9002003F009F900203E
:102D400003F006F9002003F003F9002003F000F976
:102D5000002003F0FDF8002003F0FAF8002003F053
:102D6000F7F8002003F0F4F8002003F0F1F8002059
:102D700003F0EEF8002003F0EBF8002003F0E8F891
:102D8000002003F0E5F8002003F0E2F8E02003F073
:102D9000E5F8162003F0DCF8002003F0D9F81C2039
:102DA00003F0D6F8002003F0D3F8212003F0D0F888
:102DB000002003F0CDF8362003F0CAF8002003F01D
:102DC000C7F8462003F0C4F8002003F0C1F85220F1
:102DD00003F0BEF8002003F0BBF8642003F0B8F85D
:102DE000002003F0B5F87A2003F0B2F8002003F0D9
:102DF000AFF88B2003F0ACF8002003F0A9F899207D
:102E000003F0A6F8002003F0A3F8A82003F0A0F830
:102E1000002003F09DF8B92003F09AF8002003F099
:102E200097F8C42003F094F8002003F091F8CA202A
:102E300003F08EF8002003F08BF8D22003F088F81E
:102E4000002003F085F8D92003F082F8002003F079
:102E50007FF8E02003F07CF8002003F079F8F320FD
:102E600003F076F8002003F073F8E12003F076F821
:102E7000162003F06DF8002003F06AF81C2003F020
:102E800067F8002003F064F8222003F061F80020C6
:102E900003F05EF8362003F05BF8002003F058F8EA
:102EA000452003F055F8002003F052F8522003F0BB
:102EB0004FF8002003F04CF8642003F049F800209C
:102EC00003F046F87A2003F043F8002003F040F8BE
:102ED0008B2003F03DF8002003F03AF8992003F02E
:102EE00037F8002003F034F8A82003F031F8002070
:102EF00003F02EF8B92003F02BF8002003F028F897
:102F0000C42003F025F8002003F022F8CA2003F0C3
:102F10001FF8002003F01CF8D22003F019F800205D
:102F200003F016F8D82003F013F8002003F010F88F
:102F3000E02003F00DF8002003F00AF8F32003F07E
:102F400007F8002003F004F8E22003F007F805205A
:102F500002F0FEFF002002F0FBFF0B2002F0F8FF62
:102F6000002002F0F5FF1B2002F0F2FF002002F02B
:102F7000EFFF342002F0ECFF002002F0E9FF4420D4
:102F800002F0E6FF002002F0E3FF4F2002F0E0FF36
:102F9000002002F0DDFF612002F0DAFF002002F0E5
:102FA000D7FF792002F0D4FF002002F0D1FF882063
:102FB00002F0CEFF002002F0CBFF972002F0C8FF06
:102FC000002002F0C5FFA62002F0C2FF002002F0A0
:102FD000BFFFB72002F0BCFF002002F0B9FFC22003
:102FE00002F0B6FF002002F0B3FFC72002F0B0FFEE
:102FF000002002F0ADFFD12002F0AAFF002002F075
:10300000A7FFD62002F0A4FF002002F0A1FFDD20E0
:1030100002F09EFF002002F09BFFF32002F098FFD9
:10302000002002F095FFE32002F098FF052002F057
:103030008FFF002002F08CFF0A2002F089FF0020A1
:1030400002F086FF1C2002F083FF002002F080FFC8
:10305000332002F07DFF002002F07AFF442002F0CE
:1030600077FF002002F074FF502002F071FF002073
:1030700002F06EFF622002F06BFF002002F068FF9A
:10308000782002F065FF002002F062FF882002F045
:103090005FFF002002F05CFF972002F059FF002044
:1030A00002F056FFA62002F053FF002002F050FF6E
:1030B000B72002F04DFF002002F04AFFC22002F0CC
:1030C00047FF002002F044FFC72002F041FF00202C
:1030D00002F03EFFD12002F03BFF002002F038FF5B
:1030E000D52002F035FF002002F032FFDD2002F093
:1030F0002FFF002002F02CFFF32002F029FF002018
:1031000002F026FFE42002F029FF012002F020FF58
:10311000002002F01DFF012002F01AFF002002F043
:1031200017FF022002F014FF002002F011FF2A20F6
:1031300002F00EFF002002F00BFF3C2002F008FF1F
:10314000002002F005FF4B2002F002FF002002F0F9
:10315000FFFE5D2002F0FCFE002002F0F9FE74206C
:1031600002F0F6FE002002F0F3FE842002F0F0FEF2
:10317000002002F0EDFE932002F0EAFE002002F0B3
:10318000E7FEA22002F0E4FE002002F0E1FEB32000
:1031900002F0DEFE002002F0DBFEBE2002F0D8FED0
:1031A000002002F0D5FEC42002F0D2FE002002F082
:1031B000CFFECD2002F0CCFE002002F0C9FED320CD
:1031C00002F0C6FE002002F0C3FEDD2002F0C0FEC9
:1031D000002002F0BDFEF32002F0BAFE002002F053
:1031E000B7FEE52002F0BAFE002002F0B1FE00209A
:1031F00002F0AEFE002002F0ABFE002002F0A8FEBE
:10320000022002F0A5FE002002F0A2FE292002F01A
:103210009FFE002002F09CFE3C2002F099FE002060
:1032200002F096FE4B2002F093FE002002F090FE8A
:103230005D2002F08DFE002002F08AFE742002F074
:1032400087FE002002F084FE842002F081FE002030
:1032500002F07EFE932002F07BFE002002F078FE5A
:10326000A22002F075FE002002F072FEB32002F0F0
:103270006FFE002002F06CFEBE2002F069FE00200E
:1032800002F066FEC42002F063FE002002F060FE41
:10329000CD2002F05DFE002002F05AFED32002F0A5
:1032A00057FE002002F054FEDC2002F051FE002008
:1032B00002F04EFEF32002F04BFE002002F048FE2A
:1032C000E62002F04BFE112002F042FE002002F048
:1032D0003FFE342002F03CFE002002F039FE562072
:1032E00002F036FE002002F033FE762002F030FEBF
:1032F000002002F02DFE772002F02AFE002002F0CE
:1033000027FE662002F024FE002002F021FE882025
:1033100002F01EFE002002F01BFE992002F018FEB3
:10332000002002F015FEBB2002F012FE002002F089
:103330000FFE992002F00CFE002002F009FE66202C
:1033400002F006FE002002F003FE552002F000FE0F
:10335000002002F0FDFD552002F0FAFD002002F0F1
:10336000F7FD452002F0F4FD002002F0F1FD4320BE
:1033700002F0EEFD002002F0EBFD442002F0E8FD3B
:10338000002002F0E5FDE72002F0E8FD322002F027
:10339000DFFD002002F0DCFD552002F0D9FD002009
:1033A00002F0D6FD762002F0D3FD002002F0D0FD21
:1033B000662002F0CDFD002002F0CAFD672002F079
:1033C000C7FD002002F0C4FD672002F0C1FD00200F
:1033D00002F0BEFD872002F0BBFD002002F0B8FD28
:1033E000992002F0B5FD002002F0B2FDBB2002F0F2
:1033F000AFFD002002F0ACFD992002F0A9FD0020F5
:1034000002F0A6FD772002F0A3FD002002F0A0FD4F
:10341000442002F09DFD002002F09AFD562002F0AB
:1034200097FD002002F094FD232002F091FD002082
:1034300002F08EFD332002F08BFD002002F088FDAB
:10344000452002F085FD002002F082FDE82002F018
:1034500085FD002002F07CFD002002F079FD99201E
:1034600002F076FD002002F073FD872002F070FD6F
:10347000002002F06DFD882002F06AFD002002F0BD
:1034800067FD772002F064FD002002F061FD6620F8
:1034900002F05EFD002002F05BFD882002F058FD86
:1034A000002002F055FDAA2002F052FD002002F09B
:1034B0004FFDBB2002F04CFD002002F049FD992099
:1034C00002F046FD002002F043FD662002F040FDC0
:1034D000002002F03DFD552002F03AFD002002F0F0
:1034E00037FD552002F034FD002002F031FD44206C
:1034F00002F02EFD002002F02BFD442002F028FDFA
:10350000002002F025FD552002F022FD002002F0EF
:103510001FFDE92002F022FDAA2002F019FD002083
:1035200002F016FD002002F013FD002002F010FD55
:10353000002002F013FDAA2002F00AFDCF2002F0C5
:103540000DFD002002F004FD002002F001FD00202E
:1035500002F0FEFC002002F0FBFC002002F0F8FC70
:10356000002002F0F5FC002002F0F2FC002002F046
:10357000EFFC002002F0ECFC002002F0E9FC00204F
:1035800002F0E6FC002002F0E3FC002002F0E0FC88
:10359000002002F0DDFC002002F0DAFC002002F046
:1035A000D7FC002002F0D4FCF02002F0D7FC002071
:1035B00002F0CEFC502002F0CBFC002002F0C8FC50
:1035C000002002F0C5FC002002F0C2FCF32002F053
:1035D000C5FC002002F0BCFCF92002F0BFFC062074
:1035E00002F0B6FC102002F0B3FC292002F0B0FC7F
:1035F000002002F0ADFC3A2002F0B0FC552002F0B1
:10360000A7FC112002F0AAFC6420FDF7A7FB2920EB
:1036100002F0A4FC352002F0A1FC002002F098FC8E
:10362000512002F09BFCFF2002F092FC532002F09C
:1036300095FC2C2002F08CFC552002F08FFC82209F
:1036400002F086FC2C2002F089FC02F001B9FE4851
:10365000808845F2105188427ED155214FF4704048
:1036600002F08CFCAA214FF2010002F087FC5221EB
:103670004FF2020002F082FC08214FF2030002F038
:103680007DFC01214FF2040002F078FC0D214FF483
:10369000304002F073FC0D214BF2010002F06EFC91
:1036A0000D214BF2020002F069FC34214FF4364048
:1036B00002F064FC34214BF2016002F05FFC342123
:1036C0004BF2026002F05AFC0D214FF4314002F03F
:1036D00055FC0D214BF2011002F050FC0D214BF274
:1036E000021002F04BFC34214FF4374002F046FC4C
:1036F00034214BF2017002F041FC34214BF2027094
:1037000002F03CFC00214FF4324002F037FC002173
:103710004BF2012002F032FC00214BF2022002F0B9
:103720002DFC24214FF4384002F028FC24214BF6D4
:10373000010002F023FC24214BF6020002F01EFCE3
:1037400001214FF43F4002F019FC0F214FF43340A8
:1037500002F014FC0F2100E0FEE34BF2013002F016
:103760000DFC0F214BF2023002F008FC34214FF423
:10377000394002F003FC34214BF6011002F0FEFB4D
:1037800034214BF6021002F0F9FB08214FF43540CA
:1037900002F0F4FB08214BF2015002F0EFFB08218C
:1037A0004BF2025002F0EAFB03214FF4424002F0D8
:1037B000E5FB24214FF43A4002F0E0FB24214BF6D4
:1037C000012002F0DBFB24214BF6022002F0D6FBA5
:1037D00000214FF43C4002F0D1FB78214BF6014030
:1037E00002F0CCFB00214BF6024002F0C7FB0021A7
:1037F0004FF43D4002F0C2FB78214BF6015002F03D
:10380000BDFB00214BF6025002F0B8FB00214FF443
:103810003E4002F0B3FB64214BF6016002F0AEFBC8
:1038200000214FF4514002F0A9FB33214DF2011069
:1038300002F0A4FB00214DF2021002F09FFB3421A4
:103840004DF2031002F09AFB00214DF2041002F039
:1038500095FB3A214DF2051002F090FB00214DF24C
:10386000061002F08BFB4A214DF2071002F086FB96
:1038700000214DF2081002F081FB5C214DF209108D
:1038800002F07CFB00214DF20A1002F077FB81214F
:103890004DF20B1002F072FB00214DF20C1002F001
:1038A0006DFBA6214DF20D1002F068FB00214DF2D8
:1038B0000E1002F063FBE5214DF20F1002F05EFBEB
:1038C00001214DF2101002F059FB13214DF211109D
:1038D00002F054FB01214DF2121002F04FFB542173
:1038E0004DF2131002F04AFB01214DF2141002F0C8
:1038F00045FB82214DF2151002F040FB01214DF2F3
:10390000161002F03BFBCA214DF2171002F036FBF5
:1039100002214DF2181002F031FB00214DF2191076
:1039200002F02CFB02214DF21A1002F027FB0121BC
:103930004DF21B1002F022FB02214DF21C1002F08E
:103940001DFB34214DF21D1002F018FB02214DF237
:103950001E1002F013FB67214DF21F1002F00EFB48
:1039600002214DF2201002F009FB84214DF22110BA
:1039700002F004FB02214DF2221002F0FFFAA42112
:103980004DF2231002F0FAFA02214DF2241002F057
:10399000F5FAB7214DF2251002F0F0FA02214DF2AE
:1039A000261002F0EBFACF214DF2271002F0E6FAD2
:1039B00002214DF2281002F0E1FADE214DF2291029
:1039C00002F0DCFA02214DF22A1002F0D7FAF221BD
:1039D0004DF22B1002F0D2FA02214DF22C1002F01F
:1039E000CDFAFE214DF22D1002F0C8FA03214DF25E
:1039F0002E1002F0C3FA10214DF22F1002F0BEFA81
:103A000003214DF2301002F0B9FA33214DF231109A
:103A100002F0B4FA03214DF2321002F0AFFA6D2138
:103A20004DF2331002F0AAFA00214FF4524002F096
:103A3000A5FA33214DF2012002F0A0FA00214DF247
:103A4000022002F09BFA01E02C00002034214DF20C
:103A5000032002F093FA00214DF2042002F08EFAC6
:103A60003A214DF2052002F089FA00214DF206209C
:103A700002F084FA4A214DF2072002F07FFA002179
:103A80004DF2082002F07AFA5C214DF2092002F092
:103A900075FA00214DF20A2002F070FA81214DF2F0
:103AA0000B2002F06BFA00214DF20C2002F066FAB6
:103AB000A6214DF20D2002F061FA00214DF20E20F8
:103AC00002F05CFAE5214DF20F2002F057FA0121D5
:103AD0004DF2102002F052FA13214DF2112002F0A3
:103AE0004DFA01214DF2122002F048FA54214DF214
:103AF000132002F043FA01214DF2142002F03EFAA5
:103B000082214DF2152002F039FA01214DF21620E2
:103B100002F034FACA214DF2172002F02FFA0221E6
:103B20004DF2182002F02AFA00214DF2192002F07D
:103B300025FA02214DF21A2002F020FA01214DF25D
:103B40001B2002F01BFA02214DF21C2002F016FA93
:103B500034214DF21D2002F011FA02214DF21E20F7
:103B600002F00CFA67214DF21F2002F007FA022141
:103B70004DF2202002F002FA84214DF2212002F0C1
:103B8000FDF902214DF2222002F0F8F9A4214DF2B4
:103B9000232002F0F3F902214DF2242002F0EEF985
:103BA000B7214DF2252002F0E9F902214DF226203D
:103BB00002F0E4F9CF214DF2272002F0DFF90221D3
:103BC0004DF2282002F0DAF9DE214DF2292002F030
:103BD000D5F902214DF22A2002F0D0F9F2214DF25E
:103BE0002B2002F0CBF902214DF22C2002F0C6F975
:103BF000FE214DF22D2002F0C1F903214DF22E20BD
:103C000002F0BCF910214DF22F2002F0B7F9032188
:103C10004DF2302002F0B2F933214DF2312002F0A2
:103C2000ADF903214DF2322002F0A8F96D214DF2D9
:103C3000332002F0A3F900214FF4534002F09EF923
:103C400033214DF2013002F099F900214DF202309A
:103C500002F094F934214DF2033002F08FF9002183
:103C60004DF2043002F08AF93A214DF2053002F0AB
:103C700085F900214DF2063002F080F94A214DF21B
:103C8000073002F07BF900214DF2083002F076F99E
:103C90005C214DF2093002F071F900214DF20A3039
:103CA00002F06CF981214DF20B3002F067F900212E
:103CB0004DF20C3002F062F9A6214DF20D3002F007
:103CC0005DF900214DF20E3002F058F9E5214DF278
:103CD0000F3002F053F901214DF2103002F04EF98D
:103CE00013214DF2113002F049F901214DF2123049
:103CF00002F044F954214DF2133002F03FF9012152
:103D00004DF2143002F03AF982214DF2153002F0F2
:103D100035F901214DF2163002F030F9CA214DF289
:103D2000173002F02BF902214DF2183002F026F97B
:103D300000214DF2193002F021F902214DF21A3022
:103D400002F01CF901214DF21B3002F017F902219B
:103D50004DF21C3002F012F934214DF21D3002F008
:103D60000DF902214DF21E3002F008F967214DF2E3
:103D70001F3002F003F902214DF2203002F0FEF86C
:103D800084214DF2213002F0F9F802214DF2223067
:103D900002F0F4F8A4214DF2233002F0EFF80221F2
:103DA0004DF2243002F0EAF8B7214DF2253002F04E
:103DB000E5F802214DF2263002F0E0F8CF214DF275
:103DC000273002F0DBF802214DF2283002F0D6F85D
:103DD000DE214DF2293002F0D1F802214DF22A30D5
:103DE00002F0CCF8F2214DF22B3002F0C7F802219C
:103DF0004DF22C3002F0C2F8FE214DF22D3002F0CF
:103E0000BDF803214DF22E3002F0B8F810214DF22A
:103E10002F3002F0B3F803214DF2303002F0AEF84B
:103E200033214DF2313002F0A9F803214DF2323046
:103E300002F0A4F86D214DF2333002F09FF800211A
:103E40004FF4544002F09AF833214DF2014002F051
:103E500095F800214DF2024002F090F834214DF225
:103E6000034002F08BF800214DF2044002F086F886
:103E70003A214DF2054002F081F800214DF2064052
:103E800002F07CF84A214DF2074002F077F8002159
:103E90004DF2084002F072F85C214DF2094002F048
:103EA0006DF800214DF20A4002F068F881214DF2D0
:103EB0000B4002F063F800214DF20C4002F05EF876
:103EC000A6214DF20D4002F059F800214DF20E40AE
:103ED00002F054F8E5214DF20F4002F04FF80121B5
:103EE0004DF2104002F04AF813214DF2114002F059
:103EF00045F801214DF2124002F040F854214DF2F4
:103F0000134002F03BF801214DF2144002F036F864
:103F100082214DF2154002F031F801214DF2164098
:103F200002F02CF8CA214DF2174002F027F80221C6
:103F30004DF2184002F022F800214DF2194002F033
:103F40001DF802214DF21A4002F018F801214DF23D
:103F50001B4002F013F800E004E302214DF21C4084
:103F600002F00CF834214DF21D4002F007F8022156
:103F70004DF21E4002F002F867214DF21F4001F0A1
:103F8000FDFF02214DF2204001F0F8FF84214DF2A7
:103F9000214001F0F3FF02214DF2224001F0EEFF3B
:103FA000A4214DF2234001F0E9FF02214DF224400B
:103FB00001F0E4FFB7214DF2254001F0DFFF0221BF
:103FC0004DF2264001F0DAFFCF214DF2274001F0FB
:103FD000D5FF02214DF2284001F0D0FFDE214DF245
:103FE000294001F0CBFF02214DF22A4001F0C6FF2B
:103FF000F2214DF22B4001F0C1FF02214DF22C4085
:1040000001F0BCFFFE214DF22D4001F0B7FF03216E
:104010004DF22E4001F0B2FF10214DF22F4001F081
:10402000ADFF03214DF2304001F0A8FF33214DF2E6
:10403000314001F0A3FF03214DF2324001F09EFF19
:104040006D214DF2334001F099FF00214FF45540AE
:1040500001F094FF33214DF2015001F08FFF002158
:104060004DF2025001F08AFF34214DF2035001F06D
:1040700085FF00214DF2045001F080FF3A214DF2FE
:10408000055001F07BFF00214DF2065001F076FF54
:104090004A214DF2075001F071FF00214DF2085006
:1040A00001F06CFF5C214DF2095001F067FF002127
:1040B0004DF20A5001F062FF81214DF20B5001F0E8
:1040C0005DFF00214DF20C5001F058FFA6214DF28A
:1040D0000D5001F053FF00214DF20E5001F04EFF44
:1040E000E5214DF20F5001F049FF01214DF2105032
:1040F00001F044FF13214DF2115001F03FFF012167
:104100004DF2125001F03AFF54214DF2135001F0DC
:1041100035FF01214DF2145001F030FF82214DF2A4
:10412000155001F02BFF01214DF2165001F026FF32
:10413000CA214DF2175001F021FF02214DF2185013
:1041400001F01CFF00214DF2195001F017FF022170
:104150004DF21A5001F012FF01214DF21B5001F0F7
:104160000DFF02214DF21C5001F008FF34214DF2E9
:104170001D5001F003FF02214DF21E5001F0FEFE22
:1041800067214DF21F5001F0F9FE02214DF220503F
:1041900001F0F4FE84214DF2215001F0EFFE0221E6
:1041A0004DF2225001F0EAFEA4214DF2235001F01D
:1041B000E5FE02214DF2245001F0E0FEB7214DF260
:1041C000255001F0DBFE02214DF2265001F0D6FE13
:1041D000CF214DF2275001F0D1FE02214DF228509F
:1041E00001F0CCFEDE214DF2295001F0C7FE022184
:1041F0004DF22A5001F0C2FEF2214DF22B5001F097
:10420000BDFE02214DF22C5001F0B8FEFE214DF210
:104210002D5001F0B3FE03214DF22E5001F0AEFE01
:1042200010214DF22F5001F0A9FE03214DF2305024
:1042300001F0A4FE33214DF2315001F09FFE032125
:104240004DF2325001F09AFE6D214DF2335001F0E3
:1042500095FE00214FF4564001F090FE33214DF2BF
:10426000016001F08BFE00214DF2026001F086FE3C
:1042700034214DF2036001F081FE00214DF2046013
:1042800001F07CFE3A214DF2056001F077FE00213D
:104290004DF2066001F072FE4A214DF2076001F016
:1042A0006DFE00214DF2086001F068FE5C214DF2C8
:1042B000096001F063FE00214DF20A6001F05EFE2C
:1042C00081214DF20B6001F059FE00214DF20C608E
:1042D00001F054FEA6214DF20D6001F04FFE0021C9
:1042E0004DF20E6001F04AFEE5214DF20F6001F043
:1042F00045FE01214DF2106001F040FE13214DF208
:10430000116001F03BFE01214DF2126001F036FE1A
:1043100054214DF2136001F031FE01214DF2146081
:1043200001F02CFE82214DF2156001F027FE0121E3
:104330004DF2166001F022FECA214DF2176001F025
:104340001DFE02214DF2186001F018FE00214DF211
:10435000196001F013FE02214DF21A6001F00EFE09
:1043600001214DF21B6001F009FE02214DF21C609B
:1043700001F004FE34214DF21D6001F0FFFD022129
:104380004DF21E6001F0FAFD67214DF21F6001F051
:10439000F5FD02214DF2206001F0F0FD84214DF287
:1043A000216001F0EBFD02214DF2226001F0E6FDFB
:1043B000A4214DF2236001F0E1FD02214DF22460C1
:1043C00001F0DCFDB7214DF2256001F0D7FD02219F
:1043D0004DF2266001F0D2FDCF214DF2276001F0B1
:1043E000CDFD02214DF2286001F0C8FDDE214DF225
:1043F000296001F0C3FD02214DF22A6001F0BEFDEB
:10440000F2214DF22B6001F0B9FD02214DF22C603A
:1044100001F0B4FDFE214DF22D6001F0AFFD03214E
:104420004DF22E6001F0AAFD10214DF22F6001F037
:10443000A5FD03214DF2306001F0A0FD33214DF2C6
:10444000316001F09BFD03214DF2326001F096FDD9
:104450006D214DF2336001F091FD55214FF4704014
:1044600001F08CFDAA214FF2010001F087FD5221DD
:104470004FF2020001F082FD08214FF2030001F02B
:104480007DFD00214FF2040001F078FDCC214FF4B6
:10449000314001F073FD00214BF2011001F06EFD7F
:1044A00005214FF4364001F069FD70214FF437408B
:1044B00001F064FD70214BF2017001F05FFD0121FC
:1044C0004FF4384001F05AFD03214BF6010001F092
:1044D00055FD03214BF6020001F050FD03214BF680
:1044E000030001F04BFD02214FF43C4001F046FD7A
:1044F00000214BF6014001F041FD00214BF6024046
:1045000001F03CFDD0214FF4494001F037FD02217C
:104510004CF6011001F032FD50214CF6021001F072
:104520002DFD50214CF6031001F028FD50214CF6D2
:10453000041001F023FD00214FF4545001F01EFD42
:1045400055214FF4685001F019FD4FF4885001F0E7
:1045500005FD782002F093FC4FF4245001F0FEFC9E
:1045600001F076B9FE48808849F2253188427DD134
:1045700047F6F001E52001F001FD4FF480710120C4
:1045800001F0FCFC4FF4E061022001F0F7FC41F285
:104590003001032001F0F2FC0021042001F0EEFCC8
:1045A00040F20221082001F0E9FC0021092001F07D
:1045B000E5FC00210A2001F0E1FC00210C2001F0C3
:1045C000DDFC00210D2001F0D9FC00210F2001F0BD
:1045D000D5FC0021102001F0D1FC0721112001F0B1
:1045E000CDFC0021122001F0C9FC0021132001F0B4
:1045F000C5FC0021072001F0C1FC41F290611020B0
:1046000001F0BCFC40F22721112001F0B7FC9D21F4
:10461000122001F0B3FC4FF4C851132001F0AEFC9E
:104620002521292001F0AAFC0D212B2001F0A6FC58
:104630000721302001F0A2FC40F20331312001F0CB
:104640009DFC0321322001F099FC40F20621352027
:1046500001F094FC0821362001F090FC40F2064164
:10466000372001F08BFC4FF4417100E058E0382016
:1046700001F084FC0721392001F080FC40F2026146
:104680003C2001F07BFC08213D2001F077FC00215B
:10469000502001F073FCEF21512001F06FFC00214C
:1046A000522001F06BFC40F23F11532001F066FCF8
:1046B0004FF42741602001F061FC0121612001F0ED
:1046C0005DFC00216A2001F059FC0021802001F0EE
:1046D00055FC0021812001F051FC0021822001F0D5
:1046E0004DFC0021832001F049FC0021842001F0D1
:1046F00045FC0021852001F041FC1021902001F0B3
:104700003DFC4FF4C061922001F038FC40F23311BF
:10471000072001F033FC2221002001F02FFC1FE7CD
:104720008F48808849F2283188427DD141F28F013B
:10473000EC2001F023FC41F23421EF2001F01EFCBB
:104740004FF48071012001F019FC4FF4E061022068
:1047500001F014FC41F23001032001F00FFC0021B4
:10476000042001F00BFC40F20221082001F006FCBD
:104770000021092001F002FC00210A2001F0FEFBCB
:1047800001210C2001F0FAFB00210D2001F0F6FBC5
:1047900000210F2001F0F2FB0021102001F0EEFBC0
:1047A0000721112001F0EAFB0021122001F0E6FBB5
:1047B0000021132001F0E2FB0121072001F0DEFBC4
:1047C0003220FCF7CBFA41F29041102001F0D6FBE9
:1047D00040F22721112001F0D1FB3220FCF7BEFA74
:1047E0008A21122001F0CAFB3220FCF7B7FA4FF4FD
:1047F000D051132001F0C2FB0621292001F0BEFB9D
:104800000D212B2001F0BAFB3220FCF7A7FA002182
:10481000202001F0B3FB0021212001F0AFFB32206A
:10482000FCF79CFA002100E075E0302001F0A6FBC7
:1048300040F20461312001F0A1FB40F20531322049
:1048400001F09CFB0021352001F098FB40F6094166
:10485000362001F093FB4FF40171372001F08EFBFD
:1048600040F20131382001F089FB40F20771392014
:1048700001F084FB00213C2001F080FB40F60A217E
:104880003D2001F07BFB3220FCF768FA002150202C
:1048900001F074FBEF21512001F070FB0021522048
:1048A00001F06CFB40F23F11532001F067FB4FF425
:1048B0002741602001F062FB0121612001F05EFBD5
:1048C00000216A2001F05AFB0021802001F056FBF4
:1048D0000021812001F052FB0021822001F04EFBDB
:1048E0000021832001F04AFB0021842001F046FBD7
:1048F0000021852001F042FB1021902001F03EFBB9
:104900004FF4C061922001F039FB40F233110720CF
:1049100001F034FB24E61248808849F220318842B5
:104920007ED10021084601F029FB4FF4807101205F
:1049300001F024FB4FF4E061022001F01FFB41F283
:104940003001032001F01AFB0021042001F016FBC6
:1049500040F20221082001F011FB0021092001E0B2
:104960002C00002001F00AFB00210A2001F006FBC8
:1049700001210C2001F002FB00210D2001F0FEFAC4
:1049800000210F2001F0FAFA3220FCF7E7F940F29B
:104990000111072001F0F2FA3220FCF7DFF94FF4A1
:1049A0008651102001F0EAFA0721112001F0E6FA01
:1049B0004FF48871122001F0E1FA4FF430611320B6
:1049C00001F0DCFA0021292001F0D8FA44F21001AC
:1049D0002B2001F0D3FA0021502001F0CFFAEF2173
:1049E000512001F0CBFA0021522001F0C7FA40F229
:1049F0003F11532001F0C2FA4FF41C51602001F026
:104A0000BDFA0121612001F0B9FA00216A2001F00C
:104A1000B5FA0021802001F0B1FA0021812000E0E8
:104A200030E001F0ABFA0021822001F0A7FA00216A
:104A3000832001F0A3FA0021842001F09FFA0021D5
:104A4000852001F09BFA1021902001F097FA0021B7
:104A5000922001F093FA0121932001F08FFA4FF494
:104A60008871952001F08AFA0021972001F086FADA
:104A70000021982001F082FA40F27311072001F022
:104A80007DFA6DE5FE48808849F2313188427DD15A
:104A900041F21401E72001F071FA4FF48071012016
:104AA00001F06CFA4FF40071022001F067FA41F254
:104AB0003801032001F062FA40F20221082001F0DF
:104AC0005DFA0021092001F059FA00210A2001F0C5
:104AD00055FA00210C2001F051FA00210D2001F0BF
:104AE0004DFA00210F2001F049FA0021102001F0B9
:104AF00045FA0721112001F041FA0021122001F0AE
:104B00003DFA0021132001F039FAC820FCF726F9FC
:104B100041F29061102001F031FA40F2272111207A
:104B200001F02CFA3220FCF719F90C21122001F0C7
:104B300025FA3220FCF712F94FF40061132001F03E
:104B40001DFA1121292001F019FA0B212B2001F067
:104B500015FA3220FCF702F90021202001F00EFAAC
:104B600040F23F11212001F009FA0021302001F02C
:104B700005FA4FF48371312001F000FA0021322050
:104B800001F0FCF94FF40171352000E064E001F020
:104B9000F5F941F20A61362001F0F0F940F20771AF
:104BA000372001F0EBF94FF48371382001F0E6F97A
:104BB00040F20771392001F0E1F940F202413C2056
:104BC00001F0DCF940F60F413D2001F0D7F900215A
:104BD000502001F0D3F9EF21512001F0CFF900214D
:104BE000522001F0CBF940F23F11532001F0C6F9F9
:104BF0004FF41C51602001F0C1F90121612001F046
:104C0000BDF900216A2001F0B9F90021802001F0EE
:104C1000B5F90021812001F0B1F90021822001F0D5
:104C2000ADF90021832001F0A9F90021842001F0D1
:104C3000A5F90021852001F0A1F91021902001F0B3
:104C40009DF94FF4C061922001F098F940F23311C0
:104C5000072001F093F983E48948808845F20841F0
:104C600088427DD14FF48071012001F087F94FF423
:104C7000E061022001F082F941F23001032001F0ED
:104C80007DF90021042001F079F940F20721082084
:104C900001F074F90021092001F070F900210A20C7
:104CA00001F06CF900210C2001F068F900210D20C1
:104CB00001F064F900210F2001F060F91420FCF7E5
:104CC0004DF841F2B061102001F058F90121112096
:104CD00001F054F90121172001F050F94FF49C71B3
:104CE000122001F04BF94FF40061132001F046F956
:104CF0000921292001F042F909212A2001F03EF979
:104D00000021A42001F03AF90021502001F036F9E9
:104D1000EF21512001F032F90021522001F02EF94B
:104D200040F23F11532001F029F94FF41C5160204B
:104D300001F024F90121612001F020F900216A200D
:104D400001F01CF90021802001F018F900218120D8
:104D500001F014F90021822001F010F9002100E097
:104D600024E0832001F00AF90021842001F006F9F3
:104D70000021852001F002F91321902001F0FEF8B6
:104D80000021922001F0FAF80321932001F0F6F8B7
:104D90004FF48871952001F0F1F840F2731107206B
:104DA00001F0ECF83220FBF7D9FFB8E434488088F2
:104DB00041F2055188427DD10021072001F0DEF843
:104DC0003220FBF7CBFF4FF48E71122001F0D6F8A2
:104DD0000121A42001F0D2F80F21082001F0CEF823
:104DE00008210A2001F0CAF808210D2001F0C6F8B8
:104DF00040F20771302001F0C1F80721312001F0A5
:104E0000BDF840F20361322001F0B8F84FF4E061E0
:104E1000332001F0B3F840F20221342001F0AEF863
:104E20000221352001F0AAF841F60F71362001F079
:104E3000A5F840F20771372001F0A0F800213820D2
:104E400001F09CF80021392001F098F840F2077138
:104E50003A2001F093F800213B2001F08FF8072160
:104E60003C2001F08BF800213D2001F087F8322032
:104E7000FBF774FF0121072001F080F8012101E018
:104E80002C000020172001F079F83220FBF766FF94
:104E90004FF4BD51102001F071F840F2172111209C
:104EA00001F06CF84FF48F71122001F067F84FF4A5
:104EB000706100E098E0132001F060F800212A20E2
:104EC00001F05CF80A21292001F058F84FF49F7195
:104ED000122001F053F80021502001F04FF8EF218B
:104EE000512001F04BF80021522001F047F840F228
:104EF0003F11532001F042F84FF41C51602001F0A3
:104F00003DF80121612001F039F800216A2001F00B
:104F100035F80021802001F031F80021812001F0D6
:104F20002DF80021822001F029F80021832001F0D2
:104F300025F80021842001F021F80021852001F0CE
:104F40001DF81321902001F019F84FF440719220C0
:104F500001F014F80521932001F010F800219520AC
:104F600001F00CF80021972001F008F800219820AA
:104F700001F004F84FF48071012000F0FFFF4FF4BE
:104F8000E061022000F0FAFF41F23801032000F056
:104F9000F5FF0021042000F0F1FF00210C2000F0BB
:104FA000EDFF00210F2000F0E9FF0021202000F09C
:104FB000E5FF0021212000F0E1FF2121072000F082
:104FC000DDFF1420FBF7CAFE6121072000F0D6FFA9
:104FD0001420FBF7C3FE40F27311072000F0CEFF50
:104FE0001420FBF7BBFE95E4FE4880884BF2055188
:104FF00088427CD10021084600F0C0FF002108460D
:1050000000F0BCFF0021084600F0B8FF0021084670
:1050100000F0B4FF0121A42000F0B0FF1420FBF742
:105020009DFE4FF41C51602000F0A8FF40F20221C9
:10503000082000F0A3FF4FF40571302000F09EFF20
:1050400043F21571312000F099FF40F204613220E3
:1050500000F094FF40F61661332000F08FFF42F21B
:105060001121342000F08AFF4FF4A851352000F0C0
:1050700085FF48F20751362000F080FF41F20741DA
:10508000372000F07BFF41F20341382000F076FF2B
:105090002021392000F072FF1A21902000F06EFFCD
:1050A0000021102000F06AFF0721112000F066FFA8
:1050B0000021122000F062FF0021132000F05EFFAB
:1050C0001420FBF74BFE4FF4E661102000F056FF72
:1050D00040F23711112000F051FF1420FBF73EFE83
:1050E0004FF4DC71122000F049FF142000E085E04D
:1050F000FBF734FE4FF47061132000F03FFF802176
:105100002A2000F03BFF4821292000F037FF14201F
:10511000FBF724FE4FF48071012000F02FFF4FF4C5
:10512000E061022000F02AFF41F23801032000F084
:1051300025FF40F20221082000F020FF00210A2074
:1051400000F01CFF00210C2000F018FF00210D20B2
:1051500000F014FF30210E2000F010FF002150203D
:1051600000F00CFFEF21512000F008FF0021522039
:1051700000F004FF40F23F11532000F0FFFE4FF417
:105180001C51602000F0FAFE0121612000F0F6FEC3
:1051900000216A2000F0F2FE1121902000F0EEFEC6
:1051A0004FF4C061922000F0E9FE40F202419320EA
:1051B00000F0E4FE0221942000F0E0FE1420FBF752
:1051C000CDFD0121072000F0D9FE1420FBF7C6FD1C
:1051D0006121072000F0D2FE40F27311072000F099
:1051E000CDFE0021202000F0C9FE0021212000F08A
:1051F000C5FE2221002000F0C1FE29E37948808805
:105200004CF2055188427CD10021084600F0B6FEE0
:105210000021084600F0B2FE1420FBF79FFD00219C
:10522000084600F0ABFE0021084600F0A7FE002172
:10523000084600F0A3FE0021084600F09FFE012171
:10524000A42000F09BFE1420FBF788FD4FF41C51B6
:10525000602000F093FE40F60601082000F08EFE6C
:1052600040F20371302000F089FE0121312000F06E
:1052700085FE0421322000F081FE4FF4817133203D
:1052800000F07CFE4FF44071342000F077FE40F2D5
:105290000311352000F072FE1F21362000F06EFE53
:1052A00040F20371372000F069FE0121382000F040
:1052B00065FE0421392000F061FE1521902000F0E8
:1052C0005DFE4FF48261102000F058FE40F247214D
:1052D000112000F053FE4FF4DE71122000F04EFE5C
:1052E0004FF46061132000F049FE7820FBF736FD93
:1052F0004FF48071012000F041FE4FF40071022054
:1053000000E052E000F03AFE41F23001032000F0EC
:1053100035FE08210A2000F031FE00210C2000F0AB
:105320002DFE20210E2000F029FE00210F2000F08C
:1053300025FE0021202000F021FE0021212000F088
:105340001DFE3D212A2000F019FE1420FBF706FD6A
:105350002D21292000F012FE0021502000F00EFE29
:105360004DF2EF01512000F009FE0021522000F023
:1053700005FE40F23F11532000F000FE00216120A5
:1053800000F0FCFD00216A2000F0F8FD4FF44071B0
:10539000922000F0F3FD0521932000F0EFFD4FF483
:1053A0008071072000F0EAFD52E20E48808844F246
:1053B000315188427ED10121002000F0DFFD0A201A
:1053C000FBF7CCFC41F22861102000F0D7FD0E2144
:1053D000122000F0D3FD40F63921132000F0CEFD5D
:1053E0000A2001E02C000020FBF7B8FC402111202E
:1053F00000F0C4FD5021152000F0C0FD0A20FBF78D
:10540000ADFC1E21122000F0B9FD0A20FBF7A6FC1E
:105410004FF4B151102000F0B1FD42F639211320B4
:1054200000F0ACFD0A20FBF799FC4FF480710120DD
:1054300000F0A4FD4FF44071022000F09FFD41F206
:105440003801032000F09AFD40F20221082000F00C
:1054500095FD08210A2000F091FD0021302000F088
:105460008DFD40F20241312000F088FD4FF4837140
:10547000322000F083FD40F20351332000F07EFD26
:105480004FF48271342000F079FD40F20131352073
:1054900000F074FD40F20771362000F06FFD40F21D
:1054A0000531372000F06AFD4FF40271382000F01A
:1054B00065FD00E03EE040F60B71392000F05EFD36
:1054C0000221412000F05AFD4FF41C51602000F0F1
:1054D00055FD0121612000F051FD4FF40471902031
:1054E00000F04CFD4FF48571922000F047FD04213F
:1054F000932000F043FD4FF48071A02000F03EFDAA
:105500000121072000F03AFD2121072000F036FD9F
:105510002321072000F032FD3321072000F02EFD6B
:1055200040F23311072000F029FD0021A02000F0F7
:1055300025FD8DE1CD48808844F2355188427CD1EB
:105540003021152000F01AFD10219A2000F016FDE0
:105550002021112000F012FD43F22841102000F01C
:105560000DFD0221122000F009FD41F23801132047
:1055700000F004FD2820FBF7F1FB1221084600F0A3
:10558000FDFC2820FBF7EAFB43F22041102000F04D
:10559000F5FC43F23801132000F0F0FC4620FBF745
:1055A000DDFB0021302000F0E9FC40F20241312017
:1055B00000F0E4FC40F20731322000F0DFFC4FF451
:1055C0004171332000F0DAFC0421342000F0D6FCD5
:1055D00040F20141352000F0D1FC40F20771362045
:1055E00000F0CCFC40F20531372000F0C7FC4FF44E
:1055F000C261382000F0C2FC4FF4C261392000F0D3
:10560000BDFC4FF48071012000F0B8FC4FF44071F4
:10561000022000F0B3FC41F23001032000F0AEFCA8
:1056200040F60801082000F0A9FC08210A2000F03B
:10563000A5FC4FF41C51602000E033E000F09EFC1C
:105640000121612000F09AFC4FF49F71902000F03E
:1056500095FC4FF48071922000F090FC4FF4807123
:10566000932000F08BFC4FF44051A02000F086FC0A
:105670001021A32000F082FC0121072000F07EFC15
:105680002121072000F07AFC2321072000F076FC7E
:105690003321072000F072FC40F23311072000F0A4
:1056A0006DFCD5E07148808841F663118842F8D1DD
:1056B000E22000F053FC1D2000F04AFC022000F024
:1056C00047FC042000F044FC642001F0D8FBE020FB
:1056D00000F044FC012000F03BFC0A20FBF73EFBFD
:1056E000E02000F03BFC032000F032FC0C20FBF734
:1056F00035FB012000F032FC0A20FBF72FFBE620EF
:1057000000F02CFC2F2000F023FCFF2000F020FCF8
:10571000FF2000F01DFCB02000F020FC202000F055
:1057200017FC002000F014FC50490988491EC1F301
:105730000F2000F00DFC4D490988491E88B200F089
:1057400007FC4A494988491EC1F30F2000F000FCBC
:1057500046494988491E88B200F0FAFB002000F053
:10576000F7FBB42000F0FAFB404909884231C1F34D
:105770000F2000F0EDFB3D490988423188B200F06E
:10578000E7FB002000F0E4FB2E2000F0E1FB00200E
:1057900000F0DEFB002000F0DBFB002000F0D8FB77
:1057A000002000F0D5FBB62000F0D8FB2F49498837
:1057B0002C31C1F30F2000F0CBFB2C4949882C3150
:1057C00088B200F0C5FB002000F0C2FB172000F0FB
:1057D000BFFB152000F0BCFB002000F0B9FB00204F
:1057E00000F0B6FBF02000F0B9FB032000F0B0FBA6
:1057F000292000F0B3FBD02000F0B0FB002000F027
:10580000A7FBBE2000F0AAFB052000F0A1FBFE20B4
:1058100000F09EFB012000F09BFB002000F098FBB5
:10582000002000F095FB002000F092FBB82000F073
:1058300095FB032000F08CFB012000F089FBBA20CF
:1058400000F08CFB012000F083FB502000F02AF8D0
:105850000020FCF7F9F90122D1030548FBF71EFCF3
:105860000449098888B2FCF7D5F910BD2C00002046
:10587000000402400400002008B50348008800909E
:10588000BDF8000008BD00008000006C10B50446A3
:10589000204600F063FB0A2001F0F1FAFFF7ECFF6D
:1058A00010BD000070B52DED048B0446BE2000F045
:1058B00055FB052000F04CFB2046FAF758FD41EC63
:1058C000190B9FED0E0B53EC102BFAF7DEFC41EC9D
:1058D000180BFAF759FD85B2284600F039FB012074
:1058E00000F036FBFF2000F033FB002000F030FB1F
:1058F000002000F02DFBBDEC048B70BD6666666673
:10590000666604402DE9F041054600240027B848AA
:10591000807901280BD1B648808846F60401884278
:1059200005D0B348808841F66311884208D1B04859
:105930008079F0B9AE48808841F66311884218D169
:10594000082D15D2DFE805F00406080A0C0E101227
:1059500006250DE007250BE0042509E0052507E0F5
:10596000012505E0002503E0032501E0022500BF35
:1059700000BF9F48808849F24131884217D09C4837
:10598000808846F60401884211D09948808845F203
:10599000103188420BD09648808845F210518842D9
:1059A00005D09348808841F6631188427ED1082D46
:1059B0001CD2DFE805F00406090C0F12151800BF11
:1059C00014E044F0800411E044F040040EE044F0A0
:1059D000C0040BE044F0200408E044F0600405E05B
:1059E00044F0A00402E044F0E00400BF00BF80489F
:1059F000808845F21051884201D14FF4585736271C
:105A00007B48808845F2103188420DD078488088E4
:105A100045F21051884207D07548808841F66311DD
:105A2000884201D044F008047148808846F6040199
:105A3000884201D144F002042146384600F09EFA23
:105A40006B48808841F6631188421DD004F0200025
:105A500068B16748008866494988884214DA644812
:105A60000688408862490880084646800CE0604805
:105A700000885F494988884206DD5D48068840887D
:105A80005B490880084646805948808845F2105195
:105A9000884254D15649488900F060FA002000F04D
:105AA00057FA53494989491C88B200E076E000F072
:105AB00055FA002000F04CFA4D494989891C88B2FA
:105AC00000F04CFA4A490988491EC1F30F2000F042
:105AD0003FFA47494989C91C88B200F03FFA444956
:105AE0000978491EC8B200F033FA4149888900F0AC
:105AF00035FA002000F02CFA3D498989491C88B20A
:105B000000F02CFA002000F023FA39498989891C19
:105B100088B200F023FA36494988491EC1F30F20A4
:105B200000F016FA32498989C91C88B200F016FAC9
:105B30002F498978491EC8B200F00AFA55E02C496D
:105B4000488900F00BFA002000F002FA002000F073
:105B5000FFF927490988491EC1F30F2000F0F8F921
:105B600023490978491EC8B200F0F2F92049888912
:105B700000F0F4F9002000F0EBF9002000F0E8F963
:105B80001B494988491EC1F30F2000F0E1F918496B
:105B90008978491EC8B200F0DBF926E0082D1CD236
:105BA000DFE805F004070A0D0F12151844F0300461
:105BB00013E044F0100410E044F020040DE000BFB6
:105BC0000BE044F0380408E044F0280405E044F019
:105BD000180402E044F0080400BF00BF032744F4A7
:105BE00080542146384600F0C9F9BDE8F081000034
:105BF0002C00002070B504460D466748808849F2A5
:105C00004131884205D06448808845F2103188428D
:105C100014D16149488900F0A1F9201200F098F9E7
:105C2000E0B200F095F95C49888900F097F92812F4
:105C300000F08EF9E8B200F08BF9ABE056488088AE
:105C400046F6040188421DD153488079012804D1C9
:105C500051480088401E001B84B24F49488900F01B
:105C60007DF9201200F074F9E0B200F071F94A49B0
:105C7000888900F073F9281200F06AF9E8B200F0A0
:105C800067F987E04448808841F66311884247D12C
:105C900041488079A8B940480088401E001B84B262
:105CA0003D49488900F05AF9002000F051F90020E0
:105CB00000F04EF9201200F04BF9E0B200F048F984
:105CC00016E03549488900F049F9201200F040F902
:105CD000E0B200F03DF930490988491EC1F30F20B8
:105CE00000F036F92C490978491EC8B200F030F9A5
:105CF0002949888900F032F9281200F029F9E8B220
:105D000000F026F924494988491EC1F30F2000F00C
:105D10001FF921498978491EC8B200F019F939E004
:105D20001D48808845F21051884220D11A4948897F
:105D300000F014F9201200F00BF917494989491CA9
:105D400088B200F00BF9E0B200F002F9124988893C
:105D500000F004F9281200F0FBF80F498989491C6A
:105D600088B200F0FBF8E8B200F0F2F812E00A485E
:105D70008079012804D108480088401E001B84B2A5
:105D800005494889214600F0F9F8034988892946E0
:105D900000F0F4F870BD00002C0000202DE9F84F51
:105DA00080460F4616461C46BB462046E31704EBCA
:105DB0005373DB1021464FEAE47C04EB5C7C4FEA32
:105DC000EC0CA4EBCC0CBCF1000F02D04FF0010C9A
:105DD00001E04FF0000C6344224604EBD27C4FEA12
:105DE0006C0C03FB0CF3DBB20093A6F12000C6B2EF
:105DF000002560E00C2C07D106EB4600304901EB92
:105E0000800010F805901BE0102C05D12D4800EB08
:105E1000061010F8059013E0182C07D106EBC60009
:105E2000294901EB800010F8059009E0202C05D1EC
:105E3000264800EBC61010F8059001E0BDE8F88F89
:105E40004FF0000A31E009F0800038B120480088A6
:105E500082B239464046FCF7A1F808E00A9830B90A
:105E60001C48008882B239464046FCF797F84FEA52
:105E700049604FEA1069781C87B217484088B842D9
:105E800000DCDBE7A7EB0B00A0420AD15F4608F17C
:105E900001001FFA80F810480088404500DCCDE77B
:105EA00006E00AF1010000F0FF0ABAF1080FCADBB0
:105EB00000BF681CC5B2009885429BDB00BFBDE7F0
:105EC0003A6F0008AE7300089E790008FA86000851
:105ED00000000020040000202C0000202DE9F84FD5
:105EE00004460D4690469946DDE90B7A0A9E04F079
:105EF000FF0B1648C0F800A008EB04001FFA80F85A
:105F000009EB05001FFA80F916E0444502DB5C4608
:105F1000A81985B24D4500DB14E0002000903A78C6
:105F2000334629462046FFF739FF304606EBD0714D
:105F300004EB61018CB27F1C38787E2802DC387853
:105F40002028E2DA00BFBDE8F88F00000000002042
:105F500000BF0149088070478000006C00BF014904
:105F6000088070477E00006C024800890249088062
:105F7000704700002C0000207E00006C034A108057
:105F80004FF0D842A2F88010704700007E00006CED
:105F900010B504460E2221460248FAF744F90020C3
:105FA00010BD00002C00002000B58FB01C2108A8F7
:105FB000FAF752F91C2101A8FAF74EF94FF02040E8
:105FC00020490860204848600620886000211D485C
:105FD000C16001611021416100218161C1610162E3
:105FE00041624FF4805181620021C1624FF48041CF
:105FF000016300214163816341640F20089009908F
:1060000019200A9000200B9010200C9011200D9068
:1060100000200E90032001900F2002900320039097
:106020000020049010200590112006900020079079
:1060300001AA08A90348FBF7B9FC08B1FAF74CFC20
:106040000FB000BD8C000020040100A000B587B097
:10605000142102A8FAF700F900BF00200190674858
:10606000006840F00400654908600846006800F0D8
:106070000400019000BF00BF00BF0020019008464F
:10608000006840F0800008600846006800F080006A
:10609000019000BF00BF00BF0020019008460068CB
:1060A00040F0020008600846006800F0020001901D
:1060B00000BF00BF00BF002001900846006840F00C
:1060C000200008600846006800F02000019000BF32
:1060D00000BF00BF002001900846006840F010009B
:1060E00008600846006800F01000019000BF00BF83
:1060F00000BF002001900846006840F008000860DA
:106100000846006800F00800019000BF00BF00BF13
:10611000002001900846006840F001000860084631
:10612000006800F00100019000BF00BF00BF002028
:1061300001900846006840F040000860084600688A
:1061400000F04000019000BF00BF00224FF400515A
:106150002B48FAF7A3FF012211462A48FAF79EFFBF
:106160000122D1022848FAF799FF00224FF400419A
:106170002448FAF793FF4FF4005002900120039057
:1061800000200490059002A91D48FAF77DFE012029
:1061900002900390022004900120059002A9194862
:1061A000FAF772FE02200290184803900120049032
:1061B00002A91448FAF768FE4FF40060029001202B
:1061C00003900490059002A90F48FAF75DFE4FF482
:1061D000004002900120039000200490059002A945
:1061E0000848FAF751FE002201210720FAF7E6FFDE
:1061F0000720FAF7D3FF07B000BD00003038024097
:106200000008024000040240001402400000111087
:1062100010B50B480B4908604FF4E130486000218D
:1062200008488160C16001610C21416100218161E8
:10623000C161FBF706FC08B1FAF74EFB10BD000088
:1062400000100140DC00002000BFFEE7FBF750F922
:1062500000BFFEE77047704710B5FAF72BFF10BD7F
:1062600000B593B0302107A8F9F7F6FF142102A872
:10627000F9F7F2FF00BF002001902548006840F0C8
:106280008050234908600846006800F08050019063
:1062900000BF00BF00BF002001901E48006840F40E
:1062A00080401C4908600846006800F48040019066
:1062B00000BF00BF012007900004089002200D904D
:1062C00041050E9104210F91A821109102211191F5
:1062D0000421129107A8FBF71BF908B1FAF7FCFAA1
:1062E0000F20029002200390002004904FF4A05051
:1062F00005904FF480500690052102A8FAF7B2FFEE
:1063000008B1FAF7E9FAFBF76FF813B000BD000027
:1063100040380240007000400348006840F47000BC
:10632000014908607047000088ED00E00FB42DE9D6
:10633000F0432DED068B87B04FF0000800BF4FF6FD
:10634000FF70FE490860FBF765FC4FF47840FC499C
:1063500009681822C823CDE9002102904FF4A072E9
:1063600028210846FFF7BAFD4FF478421421084669
:1063700000F012FB0020ADF880009FEDF20A8DEDD9
:10638000210AF2E2012015998847BDF8800000F04B
:10639000C00040287DD1BDF8800020F04000ADF85D
:1063A0008000BDF8580003A921F82800BDF86C0052
:1063B00001EB8801488008F1010000F0FF08B8F106
:1063C000010F09D0B8F1020F16D0B8F1030F26D093
:1063D000B8F1040F0FD138E04FF6FF7214210846D0
:1063E00000F0DAFABDF89210143988B24FF478420E
:1063F000142100F0D1FAB6E2BDF89210143988B237
:106400004FF6FF72142100F0C7FABDF8940014385B
:1064100081B24FF47842142000F0BEFAA3E2BDF836
:106420009400143881B24FF6FF72142000F0B4FAD1
:10643000BDF89420143A91B2BDF89220143A90B26B
:106440004FF4784200F0A8FA8DE2BDF80C10BDF8C8
:106450001020881A002801DB014600E041420C466A
:10646000BDF80E20BDF81210501A002801DB0146BD
:1064700000E041420D4664436D436019F9F777FF30
:1064800041EC1A0BB0EE4A0AF0EE6A0A00F03AFC50
:1064900000E069E2B0EE409AF0EE609A51EC190B20
:1064A000F9F772FF86B2BDF81410BDF81820881AEB
:1064B000002801DB014600E041420C46BDF81620F1
:1064C000BDF81A10501A002801DB014600E04142D5
:1064D0000D4664436D436019F9F749FF41EC1A0B0F
:1064E000B0EE4A0AF0EE6A0A00F00CFCB0EE409AF8
:1064F000F0EE609A51EC190BF9F746FF87B200EE07
:10650000106AF8EE400A00EE107AB8EE400A80EE0B
:10651000801A11EE109A4846F9F74FFF41EC180B1C
:106520009FED890B53EC102B51EC180BF9F758FF2A
:106530000AD39FED870B53EC102B51EC180BF9F796
:1065400067FF01D306B1A7B94FF00008BDF894204A
:10655000143A91B2BDF89220143A90B24FF6FF72FD
:1065600000F01AFA4FF478421421084600F014FAA9
:10657000FBE1BDF80C10BDF81420881A002801DBDF
:10658000014600E041420C46BDF80E20BDF8161051
:10659000501A002801DB014600E041420D466443E9
:1065A0006D436019F9F7E3FE41EC1A0BB0EE4A0AAD
:1065B000F0EE6A0A00F0A6FBB0EE409AF0EE609AA8
:1065C00051EC190BF9F7E0FE86B2BDF81010BDF8DA
:1065D0001820881A002801DB014600E041420C46E1
:1065E000BDF81220BDF81A10501A002801DB014630
:1065F00000E041420D4664436D436019F9F7B7FE70
:1066000041EC1A0BB0EE4A0AF0EE6A0A00F07AFB8F
:10661000B0EE409AF0EE609A51EC190BF9F7B4FE27
:1066200087B200EE106AF8EE400A00EE107AB8EE7B
:10663000400A80EE801A11EE109A4846F9F7BDFE26
:1066400041EC180B9FED400B53EC102B51EC180B49
:10665000F9F7C6FE08D39FED3E0B53EC102B51EC1F
:10666000180BF9F7D5FE14D24FF00008BDF89420AE
:10667000143A91B2BDF89220143A90B24FF6FF72DC
:1066800000F08AF94FF478421421084600F084F9AA
:106690006BE1BDF81010BDF81420881A002801DB4A
:1066A000014600E041420C46BDF81220BDF816102C
:1066B000501A002801DB014600E041420D466443C8
:1066C0006D436019F9F753FE41EC1A0BB0EE4A0A1C
:1066D000F0EE6A0A00F016FBB0EE409AF0EE609A17
:1066E00051EC190BF9F750FE86B2BDF80C10BDF84D
:1066F0001820881A002801DB014600E041420C46C0
:10670000BDF80E20BDF81A10501A002801DB014612
:1067100000E041420D4664436D436019F9F727FEDE
:1067200041EC1A0BB0EE4A0AF0EE6A0A00F0EAFAFF
:10673000B0EE409AF0EE609A0EE0000004000020F7
:1067400090B6000800000000666666666666EE3F6A
:10675000CDCCCCCCCCCCF03F51EC190BF9F714FEDE
:1067600087B200EE106AF8EE400A00EE107AB8EE3A
:10677000400A80EE801A11EE109A4846F9F71DFE85
:1067800041EC180B1FED100B53EC102B51EC180BB8
:10679000F9F726FE08D31FED120B53EC102B51EC2A
:1067A000180BF9F735FE14D24FF00008BDF894200D
:1067B000143A91B2BDF89220143A90B24FF6FF729B
:1067C00000F0EAF84FF478421421084600F0E4F8AB
:1067D000CBE0BDF81000BDF80C10401A00EE100A16
:1067E000F8EEC00ABDF89200283800EE100AB8EEA4
:1067F000C00A80EE201A8DED211ABDF81000BDF8F8
:106800000C10084400EE100AF8EEC00ABDF8920021
:1068100000EE100AB8EE400A9DED211A01EE600A62
:10682000F0EE000A80EE201ABDEEC10A10EE100A4A
:1068300000B2ADF88C00BDF81600BDF80E10401A7D
:1068400000EE100AF8EEC00ABDF89400283800EEF9
:10685000100AB8EEC00A80EE201A8DED221ABDF89B
:106860001600BDF80E10084400EE100AF8EEC00A3B
:10687000BDF8940000EE100AB8EE400A9DED221A11
:1068800001EE600AF0EE000A80EE201ABDEEC10AA9
:1068900010EE100A00B2ADF88E009DED210ABDEE9B
:1068A000C00A10EE101A002901DB0A4600E04A4235
:1068B000022A0CDC9DED220ABDEEC00A10EE100A81
:1068C000002801DB024600E04242022A2BDD4FF0A5
:1068D0000008BDF89420143A91B2BDF89220143A01
:1068E00090B24FF6FF7200F057F84FF4784214213F
:1068F000084600F051F84FF478401CA11022CDE971
:1069000000210290BDF89430BDF892201A21282071
:10691000FFF7E4FA9DF8900008B9012000E000209C
:106920008DF8900021E04FF6FF70FBF773F91F2000
:1069300013A11022CDE900210290BDF89430BDF8DA
:1069400092206E212320FFF7C9FA6420FAF706FA95
:106950004FF6FF70FBF75EF907B0BDEC068BBDE8A4
:10696000F0035DF814FB00BF00BF0BE55450204E50
:1069700065656420726561646A7573742100000046
:10698000546F7563682053637265656E2041646A55
:10699000757374204F4B2100F8B504460D4616461A
:1069A0001A48066004F10D018AB2193988B22B46E3
:1069B00029460096FBF734FA05F10D0083B2193829
:1069C00081B2224620460096FBF72AFA6A1C91B251
:1069D000621C90B2FBF77EFA6A1C91B2621E90B202
:1069E000FBF778FA6A1E91B2621C90B2FBF772FA5A
:1069F0006A1E91B2621E90B2FBF76CFA3346062211
:106A000029462046FBF778FAF8BD00000000002078
:106A10002DE9F84F04462068006920F44050E168F1
:106A20000843216808612169A06808436169084337
:106A3000E169084300902068C06849F20C6188430E
:106A4000009908432168C8602068406920F44070BC
:106A5000A16908432168486176492068884203D0CB
:106A600075492068884203D1FAF7DAFC814602E0D2
:106A7000FAF7C6FC8146E069B0F5004F6CD1022000
:106A80006168A0FB015003461920A9FB0070014674
:106A90002A463846F9F796FB6421B0FBF1F04FEA3D
:106AA000001A02206168A0FB01510B461920A9FBC6
:106AB00000712A463846F9F785FB83460220616853
:106AC000A0FB015003461920A9FB00712A46384655
:106AD000F9F778FB6421B0FBF1F000EBC00101EBAA
:106AE0000010ABEB8000322101EBC0006421B0FB51
:106AF000F1F000F0F8000AEB400A02206168A0FB08
:106B0000015003461920A9FB007001462A46384669
:106B1000F9F758FB834602206168A0FB0150034649
:106B20001920A9FB00712A463846F9F74BFB64216E
:106B3000B0FBF1F000EBC00101EB0010ABEB80000B
:106B4000322101EBC0006421B0FBF1F000F007003E
:106B50005044216888606AE004206168A0FB01500D
:106B600003461920A9FB007001462A463846F9F76A
:106B700029FB824604206168A0FB015003461920CE
:106B8000A9FB007001462A463846F9F71BFB642131
:106B9000B0FBF1F000EBC00101EB0010AAEB8000AC
:106BA000322101EB00106421B0FBF1F000F0F00A9B
:106BB00004206168A0FB017003461920A9FB005165
:106BC0003A462846F9F7FEFA6421B0FBF1F00AEBE9
:106BD000001A04206168A0FB01510B461920A9FB93
:106BE00000712A463846F9F7EDFA834604206168B9
:106BF000A0FB015003461920A9FB007001462A465C
:106C00003846F9F7DFFA6421B0FBF1F000EBC00180
:106C100001EB0010ABEB8000322101EB001064218E
:106C2000B0FBF1F000F00F00504421688860BDE82F
:106C3000F88F000000100140001401402DE9F041E0
:106C400004460D4617469846069E21E0701CF8B192
:106C50002EB1FAF729FAA0EB0800B04218D9206843
:106C6000C06820F4D0702168C8602068406920F0B6
:106C7000010021684861202084F83D0084F83E002E
:106C800000BF002084F83C0000BF0320BDE8F08175
:106C9000206800682840A84201D1012000E00020BF
:106CA000B842D3D00020F1E700BFFEE70FB4054B98
:106CB00010B503A9044A029800F076F810BC5DF8FC
:106CC00014FB0000D96E0008240000200248006870
:106CD000C0F30220704700000CED00E010B5002862
:106CE00004DB0A07130E054A135406E00A07140EC4
:106CF000034A00F00F031B1FD45410BD00E400E052
:106D000018ED00E000B52DED048BB0EE409AF0EEEA
:106D1000609A83B051EC190BF9F70EFC41EC180B9B
:106D200018EE100A18EE901A8DED008B002818BF8F
:106D30000120084320F00040C0F17F6000F1E040F6
:106D4000C00F14D019EE101A19EE900A8DED009BA9
:106D5000002918BF0121084320F00040C0F17F60E6
:106D600000F1E040C00F04BF012000F017F8B0EEC2
:106D7000480A03B0F0EE680ABDEC048B00BD02E0E7
:106D800008C8121F08C1002AFAD1704770470020B6
:106D900001E001C1121F002AFBD1704701490860C0
:106DA00070470000280000202DE9F84F99469246D0
:106DB00088460546002706E025280AD051464A465F
:106DC00090476D1C7F1C28780028F5D13846BDE817
:106DD000F88F002315F8011F18462E2915D115F834
:106DE000011F04232A290DD06FF02F022978A1F169
:106DF0003004092C09D800EB800002EB4000084465
:106E00006D1CF3E758F8040B6D1C2A78002ADDD0BE
:106E1000632A07D0732A0FD0104651464A4690473E
:106E20007F1C2AE018F8042B8DF8002000218DF833
:106E300001106E46012103E058F8046B4FF0FF315A
:106E40005A074FF0000401D409E0641C84420BDAB5
:106E50008C42FADB325D002AF7D105E0641C8C42DB
:106E6000FCDB305D0028F9D1274404E016F8010B63
:106E700051464A469047641EF8D26D1CA3E73CB5C4
:106E80004FF0E024A46901944FF0E0246469621C8F
:106E900008B1012400E00024041B54434FF47A7528
:106EA000B4FBF5F30021019C009400BF4FF0E024F7
:106EB000A4690194DDE90045AC4204D2009C14446D
:106EC000019D641B02E0DDE90045641B2144019C37
:106ED00000948B42EAD83CBD38B504460D46E0B27A
:106EE00000900223012269460248FAF727FE00209B
:106EF00038BD0000DC000020A8B0FAF7E7F8FFF783
:106F0000AFF9FFF7A3F8FFF74FF8FFF781F924A8CF
:106F1000FFF73EF8FBF702F924A910A8F9F700FFE4
:106F200010988047402214A96846F9F77CF910A808
:106F30000FC8FFF7FBF900BFFEE7000000000000EC
:106F4000000000000000000000003F4000000000C2
:106F50000000000030004000300040000000090048
:106F60000BC03D000BC03D00090018C024407FE06D
:106F7000224031800000180024C01B000D803240E8
:106F8000018003801C4027401C8007400040100007
:106F90006000000000000000000000000000000091
:106FA0001F80204040200000402020401F80000023
:106FB0000000090006001F80060009000000040010
:106FC00004003F8004000400000000100060000086
:106FD000000000000000040004000400040004009D
:106FE0000000000000400000000000000000002041
:106FF00001C006003800400000001F8020402040F3
:1070000020401F800000000010403FC000400000F2
:10701000000018C021402240244018400000108089
:107020002040244024401B80000002000D0011007D
:107030003FC0014000003C80244024402440238085
:1070400000001F80244024403440038000003000B2
:10705000200027C03800200000001B80244024406E
:1070600024401B8000001C0022C0224022401F80C0
:1070700000000000000008400000000000000000C8
:1070800000000460000000000000000004000A008E
:107090001100208040400900090009000900090092
:1070A000000000004040208011000A000400180089
:1070B000200023402400180000001F8020402740AB
:1070C00029401F400000004007C039000F0001C0E8
:1070D000004020403FC0244024401B8000001F800F
:1070E0002040204020403080000020403FC0204011
:1070F00020401F80000020403FC024402E4030C070
:10710000000020403FC024402E00300000000F004F
:107110001080204022403380020020403FC0040005
:1071200004003FC02040204020403FC0204020407D
:1071300000000060202020203FC0200020002040D0
:107140003FC024400B0030C0204020403FC02040C2
:107150000040004000C03FC03C0003C03C003FC0B6
:10716000000020403FC00C4023003FC020001F8093
:107170002040204020401F80000020403FC024408D
:107180002400180000001F802140214020E01FA0A3
:10719000000020403FC02440260019C0004018C015
:1071A00024402440224031800000300020403FC075
:1071B00020403000000020003F80004000403F8021
:1071C000200020003E0001C00700380020003800E9
:1071D00007C03C0007C038000000204039C006004E
:1071E00039C0204000002000384007C0384020004F
:1071F0000000304021C02640384020C00000000080
:1072000000007FE0402040200000000070000C00E3
:107210000380004000000000402040207FE000008C
:1072200000000000200040002000000000000010CE
:1072300000100010001000100010000000004000BE
:10724000000000000000000002800540054003C06F
:10725000004020003FC004400440038000000000C4
:107260000380044004400640000000000380044006
:1072700024403FC00040000003800540054003401B
:107280000000000004401FC02440244020000000F3
:1072900002E0055005500650042020403FC0044045
:1072A000040003C000400000044027C0004000006C
:1072B000000000100010041027E000000000204033
:1072C0003FC00140070004C00440204020403FC0B0
:1072D00000400040000007C0040007C0040003C0D5
:1072E0000000044007C00440040003C00040000048
:1072F00003800440044003800000041007F00450A1
:10730000044003800000000003800440045007F0A4
:107310000010044007C00240040004000000000008
:1073200006400540054004C00000000004001F8026
:10733000044000400000040007800040044007C0F3
:1073400000400400070004C001800600040006009D
:1073500001C0070001C006000000044006C0010093
:1073600006C0044000000410071004E0018006007D
:1073700004000000044005C0064004400000000076
:10738000000004007BE0402000000000000000003E
:10739000FFF000000000000040207BE0040000003F
:1073A000000040008000400020002000400000005D
:1073B00000000000000000000000000000000000CD
:1073C000000000001FCC000C0000000000000000C6
:1073D000080030006000080030006000000002205B
:1073E00003FC1E20022003FC1E20022000000000DF
:1073F0000E1811043FFF10840C78000000000F00ED
:1074000010840F3800C007781884007800000078D6
:107410000F8410C411240E9800E4008400080800B2
:107420006800700000000000000000000000000084
:107430000000000007E018182004400200000000CF
:1074400040022004181807E000000000000002407D
:10745000024001800FF001800240024000000080E5
:10746000008000800FF80080008000800000000194
:10747000000D000E000000000000000000000000F1
:10748000008000800080008000800080008000007C
:10749000000C000C000000000000000000000000D4
:1074A000000600180060018006001800200000009F
:1074B00007F0080810041004080807F00000000096
:1074C000080408041FFC0004000400000000000081
:1074D0000E0C10141024104411840E0C0000000037
:1074E0000C1810041104110412880C700000000024
:1074F00000E00320042408241FFC002400000000F6
:107500001F981084110411041088107000000000EE
:1075100007F00888110411041888007000000000AA
:107520001C00100010FC13001C00100000000000E4
:107530000E3811441084108411440E3800000000ED
:107540000700088C10441044088807F00000000071
:1075500000000000030C030C00000000000000000D
:107560000000000101060000000000000000000013
:1075700000800140022004100808100400000220CE
:10758000022002200220022002200220000000002F
:1075900010040808041002200140008000000000D0
:1075A0000E001200100C106C10800F00000003E0A1
:1075B0000C1813E4142417C4082807D00000000492
:1075C000003C03C41C40074000E4001C00041004FD
:1075D0001FFC1104110411040E880070000003E068
:1075E0000C1810041004100410081C1000001004E3
:1075F0001FFC100410041004080807F00000100419
:107600001FFC1104110417C4100408180000100412
:107610001FFC1104110017C010000800000003E057
:107620000C181004100410441C78004000001004D2
:107630001FFC10840080008010841FFC10040000D8
:10764000100410041FFC10041004000000000003CC
:107650000001100110011FFE1000100000001004B6
:107660001FFC110403801464181C10040000100493
:107670001FFC1004000400040004000C00001004AF
:107680001FFC1F0000FC1F001FFC10040000100462
:107690001FFC0C04030000E010181FFC100007F092
:1076A0000808100410041004080807F00000100473
:1076B0001FFC10841080108010800F00000007F065
:1076C000081810241024101C080A07F200001004E7
:1076D0001FFC1104110011C011300E0C0004000039
:1076E0000E1C11041084108410441C380000180073
:1076F000100010041FFC10041000180000001000FF
:107700001FF810040004000410041FF810001000FB
:107710001E0011E0001C007013801C0010001FC030
:10772000103C00E01F0000E0103C1FC000001004EF
:10773000180C163401C001C01634180C10041000C7
:107740001C00130400FC13041C00100000000804BB
:10775000101C1064108413041C0410180000000096
:10776000000000007FFE40024002400200000000D6
:1077700030000C0003800060001C000300000000CB
:107780004002400240027FFE0000000000000000B6
:1077900000002000400040004000200000000001E8
:1077A00000010001000100010001000100010000D2
:1077B0004000400020000000000000000000000029
:1077C0000098012401440144014400FC000410001D
:1077D0001FFC008801040104008800700000000004
:1077E000007000880104010401040088000000000A
:1077F000007000880104010411081FFC000400004F
:1078000000F8014401440144014400C800000000A4
:10781000010401040FFC1104110411001800000000
:1078200000D601290129012901C90106000010041F
:107830001FFC008401000100010400FC00040000A2
:107840000104190419FC00040004000000000000F9
:10785000000300010101190119FE000000001004DD
:107860001FFC0024004001B4010C010400000000D2
:10787000100410041FFC00040004000000000104B8
:1078800001FC0104010001FC0104010000FC0104F1
:1078900001FC008401000100010400FC0004000060
:1078A00000F8010401040104010400F800000101D2
:1078B00001FF008501040104008800700000000041
:1078C0000070008801040104010501FF00010104AA
:1078D000010401FC0084010401000180000000009B
:1078E00000CC01240124012401240198000000009F
:1078F0000100010007F8010401040000000001007C
:1079000001F8000400040004010801FC0004010067
:1079100001800170000C001001600180010001F085
:10792000010C003001C00030010C01F0010000002A
:107930000104018C00740170018C0104000001013C
:1079400001810171000E001801600180010000003A
:107950000184010C013401440184010C0000000089
:1079600000000000000001003EFC40024002000058
:10797000000000000000FFFF000000000000000009
:10798000400240023EFC0100000000000000000038
:1079900060008000800040004000200020000000C7
:1079A00000000000000000000000000000000000D7
:1079B00000000000000000000000000000000000C7
:1079C00000000000000000000000000000000000B7
:1079D000000F80380FFE380F8038000000000000D4
:1079E0000000000000000000000000000100000690
:1079F00000000C00003800003100000600000C0000
:107A0000003800003000000000000000000061802D
:107A10000067F807F98000618000618000618000E4
:107A200061800067F807F9800061800000000000B5
:107A30000000000001C0E003E0F006300804180870
:107A40001FFFFE040E080787F00381E0000000001E
:107A5000000001F000060C00040408060C7001F997
:107A6000C0000E00003BE000EC18070808040C18EA
:107A70000003E00000000001E00007F003F8180434
:107A80001C0804170807E1D003C0E00023B0003C45
:107A900008002008000010000000000000010000A5
:107AA0003100003200001C00000000000000000057
:107AB00000000000000000000000000000000000C6
:107AC00000000000000000000000000000007F0037
:107AD00001FFC00780F00C00181000042000020015
:107AE00000000000002000021000040C00180780B5
:107AF000F001FFC0007F0000000000000000000057
:107B000000000000000000000000420000660000CD
:107B10006600003C0000180003FFC0001800003C95
:107B2000000066000066000042000000000008003F
:107B300000080000080000080000080001FFC00065
:107B4000080000080000080000080000080000000D
:107B50000000000100003100003200001C000000A5
:107B60000000000000000000000000000000000015
:107B700000000000000008000008000008000008E5
:107B800000000800000800000800000800000800CD
:107B900000080000000000000000000000003800A5
:107BA0000038000038000000000000000000000065
:107BB00000000000000000000000000000000006BF
:107BC00000001C000070000180000E000038000062
:107BD000C0000700001C0000300000000000000092
:107BE00000007F8001FFE003807006001804000899
:107BF00004000806001803807001FFE0007F800089
:107C00000000000000000000010008010008010061
:107C10000803FFF807FFF80000080000080000084C
:107C200000000000000000000001C03802C058043D
:107C30000098040118040218040418061C1803F81C
:107C40001801E0F800000000000000000001C0E0A2
:107C500003C0F00400080408080408080618080314
:107C6000F41801E7F00001E000000000000000004F
:107C700000000300000D00001100006100008108F9
:107C800003010807FFF80FFFF800010800010800D2
:107C900000000000000000E007FCD0060808061005
:107CA00008061008061008061838060FF00607C068
:107CB000000000000000000000003F8001FFE00322
:107CC000843002081804100804100804100807186B
:107CD00010030FF00007C0000000000000000000CB
:107CE00003C0000700000600000600F80607F806BB
:107CF000180006E000070000060000000000000079
:107D00000001E1E003F7F006341004180804180835
:107D1000040C08040C0806161803F3F001C1E00077
:107D2000000000000000F80003FC300306380402E5
:107D3000080402080402080404100308F001FFC04C
:107D4000007F0000000000000000000000000000B4
:107D5000000000000000703800703800703800002B
:107D60000000000000000000000000000000000013
:107D700000000000000000000000301A00301C006D
:107D800000000000000000000000000000000000F3
:107D90000000000000080000140000220000410064
:107DA000008080010040020020040010080008004C
:107DB000000000000000210000210000210000213F
:107DC000000021000021000021000021000021000E
:107DD000002100000000000000000000080008046E
:107DE00000100200200100400080800041000022BD
:107DF0000000140000080000000000000003C000A4
:107E000004C000040000080038080F3808083808CB
:107E100010000C300007E00003C00000000000006C
:107E200000003F8000FFE0038070020F10067088A2
:107E300004C088048308047F8802C09003012000E6
:107E4000FE400000080000180001F8003E0801C2D2
:107E50000007020007E20000FE00001FC80001F852
:107E600000003800000804000807FFF807FFF804C6
:107E7000080804080804080804080806180803F499
:107E80001801E7F00001E0000000000000003F8062
:107E900001FFE003807002001804000804000804D9
:107EA00000080400100600200780C0000000040045
:107EB0000807FFF807FFF80400080400080400089A
:107EC00004001802001003807001FFE0007F8000B2
:107ED000000004000807FFF807FFF804080804087A
:107EE00008040808040808043E08040008060018EE
:107EF00001006000000004000807FFF807FFF80415
:107F00000808040800040800040800043E000600F5
:107F100000060000018000000000000000003F801B
:107F200001FFE00380700600180400080402080442
:107F300002080203F00783F00002000002000400C0
:107F40000807FFF807FFF804080800080000080009
:107F500000080000080004080807FFF807FFF804FD
:107F600000080000000000000400080400080400ED
:107F70000807FFF807FFF8040008040008040008D9
:107F800000000000000000000000000600000700E4
:107F9000000104000104000104000307FFFE07FFC5
:107FA000FC04000004000004000004000807FFF8BF
:107FB00007FFF8040C08001800003E0004C7800505
:107FC00003C80600F8040038040018000008040084
:107FD0000807FFF807FFF804000800000800000881
:107FE0000000080000080000080000180000600001
:107FF000000004000807FFF807800807FC00007F66
:10800000C00003F80007C000780007800807FFF8E9
:1080100007FFF804000804000807FFF8070008033A
:10802000C00000E000003800001E00000700000152
:10803000C00400F007FFF8040000000000007F808B
:1080400001FFE00380700600180400080400080621
:10805000001803003001FFE0007F800000000400F2
:108060000807FFF807FFF8040408040400040400EC
:10807000040400040400060C0003F80001F00000F2
:108080000000000000007F8001FFE0038070060018
:10809000880400880400C806003C03003E01FFE697
:1080A000007F8400000004000807FFF807FFF804C1
:1080B0000808040800040C00040F00040BC006109C
:1080C000F003F03801E00800000800000001E0F8CB
:1080D00003F030063010041808041808040C0804D3
:1080E0000C080206180207F00781E000000001807A
:1080F0000006000004000004000004000807FFF868
:1081000007FFF80400080400000400000600000156
:10811000800004000007FFE007FFF00400180000E3
:108120000800000800000800000800000804001013
:1081300007FFE004000004000006000007E000075D
:10814000FE00041FE00001F80000380001E0043EDA
:108150000007C00006000004000004000007E00063
:1081600007FFC0041FF80007C007F80007FF8004DE
:108170003FF80007C004F8000700000400000000FA
:108180000004000806001807C07805F1C8003E008A
:10819000001F800463E80780F80600180400080048
:1081A000000004000006000007800007E008047CCF
:1081B00008001FF80007F800180804E0080700008E
:1081C000060000040000000000010008060038045A
:1081D00000F80403E8040F08047C0805F00807C051
:1081E0000807001804006000000000000000000004
:1081F0000000000000000000003FFFFE2000022001
:108200000002200002200002200002000000000006
:108210000000000008000007000000C00000380057
:108220000006000001C000003000000E0000010048
:1082300000000000000000002000022000022000DA
:10824000022000022000023FFFFE000000000000AC
:108250000000000000000000000000000000000816
:10826000000010000030000020000030000010006E
:1082700000080000000000000000000001000001F4
:1082800000000100000100000100000100000100E9
:1082900000010000010000010000010000010000D9
:1082A000000000000000002000002000001000007E
:1082B00010000000000000000000000000000000AE
:1082C00000000000000000F00019F8001B18002258
:1082D00008002608002408002410003FF8001FF8BA
:1082E00000000800001800000004000007FFF80F5D
:1082F000FFF00018180010080020080020080030C7
:1083000018001FF0000FC00000000000000007C0B0
:10831000001FF0001830002008002008002008008E
:108320003C08001C1000006000000000000000007D
:10833000000007C0001FF0003818002008002008C7
:1083400000200804101007FFF80FFFF000001000D5
:1083500000000000000000000007C0001FF0001235
:1083600030002218002208002208003208001E10E7
:10837000000E200000000000000020000020080087
:10838000200801FFF803FFF8062008042008042055
:108390000807200003000000000000000000000E9D
:1083A000000E6E001FF30031B10020B10020B100BB
:1083B0003191001F13002E1E00200E00300000001F
:1083C0000004000807FFF80FFFF800100800200065
:1083D000002000002008003FF8001FF800000800FF
:1083E000000000000000000000200800200800201D
:1083F00008063FF8063FF8000008000008000008E3
:108400000000000000000000000000000000030069
:108410000003002001002001002003063FFE063F6C
:10842000FC00000000000000000000000004000844
:1084300007FFF80FFFF8000188000300002FC000BD
:1084400038F8002038002008000008000000000074
:108450000000000004000804000804000807FFF8FA
:108460000FFFF800000800000800000800000000EE
:108470000000002008003FF8003FF800100800202E
:1084800000003FF8003FF8001008002000003FF80F
:10849000003FF8000008000000002008003FF8003E
:1084A0003FF8001008001000002000002008003FE6
:1084B000F8001FF80000080000000000000007C0DE
:1084C000000FF000183000300800200800200800DD
:1084D0003008001830000FF00007C0000000000056
:1084E00000002001003FFF003FFF001011002009A5
:1084F000002008002008003038001FF0000FC000E6
:1085000000000000000007C0001FF0003818002025
:1085100008002008002009001011001FFF003FFF85
:1085200000000100000000200800200800200800D2
:108530003FF8003FF800080800100800200800205D
:1085400000003000003000000000000000000000CB
:10855000000C78001E1800330800230800210800D2
:1085600021880021980030F00038600000000000F1
:108570000000200000200000200000FFF003FFF8B2
:108580000020080020080020080000300000000043
:108590000000000000002000003FF0007FF8000015
:1085A00018000008000008002010003FF8007FF0CD
:1085B000000010000000000000002000003000005B
:1085C0003C00003F800023F0000078000070002392
:1085D00080003C00003000002000002000003C0033
:1085E000003FE00023F80000E0002700003E00000C
:1085F0003FE00021F80001E0003E00002000000004
:1086000000002008002008003838003E680027805D
:108610000003C8002CF8003838002018002008009B
:108620000000000000002000003003003C01003F7B
:10863000830023EC000070002380003C0000200039
:1086400000200000000000000000000000380800CA
:1086500020380020F80023E8002F88003E0800386A
:10866000080020180000700000000000000000005A
:108670000000000000000000000008000014001FBF
:10868000F7FC30000620000200000000000000009F
:1086900000000000000000000000000000000000DA
:1086A000FFFFFF00000000000000000000000000CD
:1086B00000000000000000002000023000061FF74C
:1086C000FC00140000080000000000000000000092
:1086D00000000000000000000018000060000040E2
:1086E000000040000020000010000008000004000E
:1086F000000400000C00001000000000000000005A
:108700000000000000000000000000000000000069
:108710000000000000000000000000000000000059
:108720000000000000000000000000000000000049
:108730000000000000000000000000000000000039
:108740000000000000000000000000000000000029
:108750000000000000000000000000000000000019
:108760000000000000000000000000000000000009
:1087700000000000000000000000000000000000F9
:1087800000000000000000000000000000000000E9
:10879000000007F000C007FFE1E007F001E0000083
:1087A00000C0000000000000000000000000000009
:1087B00000000000000000000000000000000000B9
:1087C00000000000000000000000000000000000A9
:1087D0000000000000000000000000000000000099
:1087E0000000000000000000000000000000000089
:1087F0000000000000000000000000000000000079
:1088000000000020000001C00000078000001F00E1
:1088100000001E0000001C20000001C000000780B6
:1088200000001F0000001E0000001C0000000000EF
:108830000000000000000000000000000000000038
:108840000000000000000000000000000000000028
:108850000000000000000000000000000000000018
:108860000000000000000000000000000000000008
:1088700000000000000000000000000000000018E0
:108880000C0000180C0000180FE0001FFC0003F89B
:108890000C0000180C0000180C0000180C00001848
:1088A0000C0000180FE0001FFC0003F80C0000187B
:1088B0000C0000180C000000000000000000000088
:1088C00000000000000000000000000000000000A8
:1088D0000000000000000000000000000000000098
:1088E0000000000000000000000000000000000088
:1088F0000000000000000000000000000000000078
:10890000000000000780007807C000FC0640010E50
:10891000002003070020020380200FFFFFFC02015C
:10892000C0200200E0600130704001F03F8000F0A4
:108930001F00000000000000000000000000000018
:108940000000000000000000000000000000000027
:108950000000000000000000000000000000000017
:108960000000000000000000000000000000000007
:108970000000000000000000000000FE000001FFF9
:1089800000000301800002008060030181C001FF3C
:10899000070000FE18000000E0000003BF00000C0C
:1089A000FFC00071806001C10020030180600000F1
:1089B000FFC000003F0000000000000000000000B9
:1089C00000000000000000000000000000000000A7
:1089D0000000000000000000000000000000000097
:1089E0000000000000000000000000000000000087
:1089F0000000000000000000000000001F00000058
:108A00007FC000FCC0C001FF80600303E0200202C1
:108A1000782002061E2003FC074001F003800001BD
:108A200003C000011C600001E020000100200001E3
:108A30000040000001800000000000000000000075
:108A40000000000000000000000000000000000026
:108A50000000000000000000000000000000000016
:108A60000000000000000000000000000000000006
:108A700000000000000000000000000000000020D6
:108A800000001C6000001C4000001F8000000F0060
:108A900000000000000000000000000000000000D6
:108AA00000000000000000000000000000000000C6
:108AB00000000000000000000000000000000000B6
:108AC00000000000000000000000000000000000A6
:108AD0000000000000000000000000000000000096
:108AE0000000000000000000000000000000000086
:108AF0000000000000000000000000000000000076
:108B00000000000000000000000000000000000065
:108B10000000000000000007F800003FFF000078A0
:108B200007C001C000E00300003004000008080096
:108B3000000410000002000000000000000000001F
:108B40000000000000000000000000000000000025
:108B50000000000000000000000000000000000015
:108B60000000000000000000000000000000000005
:108B700000000000000000000000000000001000E5
:108B8000000208000004040000080300003001C0D7
:108B900000E0007807C0003FFF000007F800000079
:108BA00000000000000000000000000000000000C5
:108BB00000000000000000000000000000000000B5
:108BC00000000000000000000000000000000000A5
:108BD0000000000000000000000000000000000095
:108BE0000000000000000000000000000000000085
:108BF0000000000000000000000000000000000075
:108C00000000000C1800000E3800000E38000006AE
:108C10003000000360000061438000FFFF800061BE
:108C200043000003600000063000000E3800000E14
:108C30003800000C180000000000000000000000D8
:108C40000000000000000000000000000000000024
:108C50000000000000000000000000000000000014
:108C60000000000000000000000000000000000004
:108C700000000000000000000000000000000000F4
:108C80000000000080000000800000008000000064
:108C900080000000800000008000007FFF000000D6
:108CA00080000000800000008000000080000000C4
:108CB00080000000800000000000000000000000B4
:108CC00000000000000000000000000000000000A4
:108CD0000000000000000000000000000000000094
:108CE0000000000000000000000000000000000084
:108CF0000000000000000000000000000000000074
:108D00000001000000E3000000E2000000FC0000A1
:108D100000780000000000000000000000000000DB
:108D20000000000000000000000000000000000043
:108D30000000000000000000000000000000000033
:108D40000000000000000000000000000000000023
:108D50000000000000000000000000000000000013
:108D60000000000000000000000000000000000003
:108D700000000000000000000000000000000000F3
:108D800080000000800000008000000080000000E3
:108D900080000000800000008000000080000000D3
:108DA00080000000800000008000000080000000C3
:108DB00080000000800000000000000000000000B3
:108DC00000000000000000000000000000000000A3
:108DD0000000000000000000000000000000000093
:108DE0000000000000000000000000000000000083
:108DF0000000000000000000000000000000000073
:108E00000000000000C0000001E0000001E00000E0
:108E100000C0000000000000000000000000000092
:108E20000000000000000000000000000000000042
:108E30000000000000000000000000000000000032
:108E40000000000000000000000000000000000022
:108E50000000000000000000000000000000000012
:108E60000000000000000000000000000000000002
:108E700000000000000000000000000000000000F2
:108E8000000C00000038000000E00000038000003B
:108E90000E00000038000000E00000038000000E1B
:108EA00000000038000000E00000038000000E0019
:108EB000000018000000000000000000000000009A
:108EC00000000000000000000000000000000000A2
:108ED0000000000000000000000000000000000092
:108EE0000000000000000000000000000000000082
:108EF0000000000000000000000000000000000072
:108F00000000000FF800007FFF0000F007800180E4
:108F100000C00300006002000020020000200200E8
:108F2000002003000060018000C000E00380007F9B
:108F3000FF00000FF800000000000000000000002B
:108F40000000000000000000000000000000000021
:108F50000000000000000000000000000000000011
:108F60000000000000000000000000000000000001
:108F700000000000000000000000000000000000F1
:108F80000000000000000080002000800020008021
:108F900000200080006001FFFFE003FFFFE0000011
:108FA0000060000000200000002000000020000001
:108FB00000000000000000000000000000000000B1
:108FC00000000000000000000000000000000000A1
:108FD0000000000000000000000000000000000091
:108FE0000000000000000000000000000000000081
:108FF0000000000000000000000000000000000071
:109000000000007800E000980160010002600200AA
:10901000046002000860020010600200206002008C
:109020004060030080600183006001FE00E0007C7E
:1090300007800000000000000000000000000000A9
:109040000000000000000000000000000000000020
:109050000000000000000000000000000000000010
:109060000000000000000000000000000000000000
:1090700000000000000000000000000000000000F0
:10908000000000F0078001F007C00100004002006E
:109090000020020100200201002002010020030341
:1090A00080200186804001FCC0C000787F800000E5
:1090B0001E00000000000000000000000000000092
:1090C00000000000000000000000000000000000A0
:1090D0000000000000000000000000000000000090
:1090E0000000000000000000000000000000000080
:1090F0000000000000000000000000000000000070
:109100000800000038000000480000018800000648
:109110000800000C0810003008100040081001FF83
:10912000FFF003FFFFF003FFFFF000000810000056
:1091300008100000081000000000000000000000FF
:10914000000000000000000000000000000000001F
:10915000000000000000000000000000000000000F
:1091600000000000000000000000000000000000FF
:1091700000000000000000000000000000000000EF
:10918000000000000780001F864003E1002003026A
:109190000020030400200304002003040020030433
:1091A000002003060040030301C00301FF80030009
:1091B0007E00000000000000000000000000000031
:1091C000000000000000000000000000000000009F
:1091D000000000000000000000000000000000008F
:1091E000000000000000000000000000000000007F
:1091F000000000000000000000000000000000006F
:1092000000000007FC00003FFF000070C3800081E9
:1092100080C001010060030200200202002002025F
:109220000020020200200203004001C180C000C0F3
:10923000FF8000007E000000000000000000000031
:10924000000000000000000000000000000000001E
:10925000000000000000000000000000000000000E
:1092600000000000000000000000000000000000FE
:1092700000000000000000000000000000000000EE
:10928000000000F0000003C00000038000000300A5
:109290000000030007E003003FE00301C0000306F5
:1092A00000000318000003600000038000000300BA
:1092B00000000000000000000000000000000000AE
:1092C000000000000000000000000000000000009E
:1092D000000000000000000000000000000000008E
:1092E000000000000000000000000000000000007E
:1092F000000000000000000000000000000000006E
:109300001F0000783F8000FC60C0018EC040030752
:10931000802002030020020180200201802002013F
:10932000C0200301E040018670C000FC3F8000784F
:109330001F0000000000000000000000000000000E
:10934000000000000000000000000000000000001D
:10935000000000000000000000000000000000000D
:1093600000000000000000000000000000000000FD
:109370000000000000000000000000000000003FAE
:10938000000000FF81C001C0C1C0010060200200D8
:109390002020020020200200202002002060020085
:1093A00040C00100C18000C18F00007FFE00001F8F
:1093B000F0000000000000000000000000000000BD
:1093C000000000000000000000000000000000009D
:1093D000000000000000000000000000000000008D
:1093E000000000000000000000000000000000007D
:1093F000000000000000000000000000000000006D
:10940000000000000000000000000000000000005C
:109410000000000300C0000781E0000781E00003B6
:1094200000C000000000000000000000000000007C
:10943000000000000000000000000000000000002C
:10944000000000000000000000000000000000001C
:10945000000000000000000000000000000000000C
:1094600000000000000000000000000000000000FC
:1094700000000000000000000000000000000000EC
:1094800000000000000000000000000000000000DC
:1094900000000006006600060078000000000000E2
:1094A00000000000000000000000000000000000BC
:1094B00000000000000000000000000000000000AC
:1094C000000000000000000000000000000000009C
:1094D000000000000000000000000000000000008C
:1094E000000000000000000000000000000000007C
:1094F000000000000000000000000000000000006C
:109500000000000080000001C000000360000006B1
:109510003000000C180000180C000030060000603D
:10952000030000C001800100004002000020040090
:10953000001000000000000000000000000000001B
:10954000000000000000000000000000000000001B
:10955000000000000000000000000000000000000B
:1095600000000000000000000000000000000000FB
:1095700000000000000000000000000000000004E7
:10958000100000041000000410000004100000048B
:10959000100000041000000410000004100000047B
:1095A000100000041000000410000004100000046B
:1095B0001000000410000000000000000000000087
:1095C000000000000000000000000000000000009B
:1095D000000000000000000000000000000000008B
:1095E000000000000000000000000000000000007B
:1095F000000000000000000000000000000000006B
:10960000000004000010020000200100004000C023
:109610000180006003000030060000180C00000C00
:10962000180000063000000360000001C0000000C8
:1096300080000000000000000000000000000000AA
:10964000000000000000000000000000000000001A
:10965000000000000000000000000000000000000A
:1096600000000000000000000000000000000000FA
:1096700000000000000000000000000000000000EA
:1096800000000078000001F800000238000002002D
:109690000000040000C0040079E0040081E004013F
:1096A00000C004030000020200000306000001FCE9
:1096B000000000F8000000000000000000000000B2
:1096C000000000000000000000000000000000009A
:1096D000000000000000000000000000000000008A
:1096E000000000000000000000000000000000007A
:1096F0000000000000000000000000000000000F5B
:10970000F800003FFE000070078000C000C00101AB
:10971000F8400307FC20021E04200230082002202B
:109720003020023FFC20013F044001800CC000E0DB
:109730003180001FC2000000000000000000000097
:109740000000000000000000000000000000000019
:109750000000000000000000000000000000000009
:1097600000000000000000000000000000000000F9
:1097700000000000000000000000000000200000C9
:109780000060000003E000003E200003E020003EF7
:10979000200003E020000380200007FC2000003FA1
:1097A000E0000003FE2000003FE0000001E00000B8
:1097B0000020000000200000000000000000000069
:1097C0000000000000000000000000000000000099
:1097D0000000000000000000000000000000000089
:1097E0000000000000000000000000000000000079
:1097F0000000000000000000000000000000020067
:1098000000200200002003FFFFE003FFFFE0020151
:1098100000200201002002010020020100200201BC
:109820000020030300200186806001FCC0C000F816
:109830007F8000001F00000000000000000000000A
:109840000000000000000000000000000000000018
:109850000000000000000000000000000000000008
:1098600000000000000000000000000000000000F8
:1098700000000000000000000000000000000007E1
:10988000F800003FFF000070078000C000C001002A
:10989000004003000020020000200200002002001F
:1098A00000200200002001000040018000C003C031
:1098B00001800030060000000000000000000000F1
:1098C0000000000000000000000000000000000098
:1098D0000000000000000000000000000000000088
:1098E0000000000000000000000000000000000078
:1098F0000000000000000000000000000000020066
:1099000000200200002003FFFFE003FFFFE0020051
:1099100000200200002002000020020000200300BE
:10992000006001000040018000C000F00780007F5F
:10993000FE00000FF8000000000000000000000022
:109940000000000000000000000000000000000017
:109950000000000000000000000000000000000007
:1099600000000000000000000000000000000000F7
:1099700000000000000000000000000000000200E5
:1099800000200200002003FFFFE003FFFFE00201D0
:10999000002002010020020100200201002002013B
:1099A000002002038020020FE0200300006003C0BB
:1099B00000E0006003000000000000000000000064
:1099C0000000000000000000000000000000000097
:1099D0000000000000000000000000000000000087
:1099E0000000000000000000000000000000000077
:1099F0000000000000000000000000000000020065
:109A000000200200002003FFFFE003FFFFE002014F
:109A100000200201002002010000020100000201FA
:109A200000000201000002038000030FE0000300B9
:109A3000000003C000000060000000000000000003
:109A40000000000000000000000000000000000016
:109A50000000000000000000000000000000000006
:109A600000000000000000000000000000000000F6
:109A700000000000000000000000000000000007DF
:109A8000F800003FFE000070078001C001C0010027
:109A9000004003000020020000200200002002001D
:109AA0000020010020200100204003C03F80003042
:109AB0003F800000200000002000000000000000A7
:109AC0000000000000000000000000000000000096
:109AD0000000000000000000000000000000000086
:109AE0000000000000000000000000000000000076
:109AF0000000000000000000000002000020020042
:109B0000002003FFFFE003FFFFE0020080200200CF
:109B10008020000080000000800000008000020023
:109B200080200200802003FFFFE003FFFFE002002F
:109B300000200200002000000000000000000000E3
:109B40000000000000000000000000000000000015
:109B50000000000000000000000000000000000005
:109B600000000000000000000000000000000000F5
:109B700000000000000000000000000000000000E5
:109B8000000000000000020000200200002002008F
:109B900000200200002003FFFFE003FFFFE00200BF
:109BA000002002000020020000200200002000002F
:109BB00000000000000000000000000000000000A5
:109BC0000000000000000000000000000000000095
:109BD0000000000000000000000000000000000085
:109BE0000000000000000000000000000000000075
:109BF0000000000000000000000000000000000065
:109C0000000E0000000F0000000F00000001020025
:109C1000000102000001020000030200000603FF31
:109C2000FFFC03FFFFF8020000000200000002003A
:109C30000000020000000000000000000000000022
:109C40000000000000000000000000000000000014
:109C50000000000000000000000000000000000004
:109C600000000000000000000000000000000000F4
:109C700000000000000000000000000000000200E2
:109C800000200200002003FFFFE003FFFFE00200CE
:109C9000C0200201002000078000000FE00000301B
:109CA000F80002603E2003800F20030003E0020062
:109CB00000E0020000200000002000000000000082
:109CC0000000000000000000000000000000000094
:109CD0000000000000000000000000000000000084
:109CE0000000000000000000000000000000000074
:109CF0000000000000000000000000000000020062
:109D000000200200002003FFFFE003FFFFE002004D
:109D100000200200002000000020000000200000C1
:109D20000020000000200000002000000060000073
:109D300000E0000003000000000000000000000040
:109D40000000000000000000000000000000000013
:109D50000000000000000000000000000000000003
:109D600000000000000000000000000000000000F3
:109D700000000000000000000000020000200200BF
:109D8000002003FFFFE003E0002003FF0020001F8E
:109D9000F0000001FF8000000FE000001E00000343
:109DA000E000003E002003E0002003FFFFE003FF8F
:109DB000FFE0020000200200002000000000000080
:109DC0000000000000000000000000000000000093
:109DD0000000000000000000000000000000000083
:109DE0000000000000000000000000000000000073
:109DF000000000000000000000000200002002003F
:109E0000002003FFFFE00380002003F0002000FC9F
:109E10000000001F00000007C0000001F00000006B
:109E20007C0002001F80020007E003FFFFE0020049
:109E30000000020000000000000000000000000020
:109E40000000000000000000000000000000000012
:109E50000000000000000000000000000000000002
:109E600000000000000000000000000000000000F2
:109E70000000000000000000000000000000000FD3
:109E8000F800003FFE0000F00780018000C00100E4
:109E9000004002000020020000200200002002001A
:109EA000002001000040018000C000F00380003F5E
:109EB000FE00000FF800000000000000000000009D
:109EC0000000000000000000000000000000000092
:109ED0000000000000000000000000000000000082
:109EE0000000000000000000000000000000000072
:109EF0000000000000000000000000000000020060
:109F000000200200002003FFFFE003FFFFE002004B
:109F100080200200802002008000020080000200F9
:109F2000800002008000030180000183000000FE29
:109F30000000007C000000000000000000000000A5
:109F40000000000000000000000000000000000011
:109F50000000000000000000000000000000000001
:109F600000000000000000000000000000000000F1
:109F70000000000000000000000000000000000FD2
:109F8000F800007FFF0000F00380018001C00100A5
:109F90000640020004200200042002000620020005
:109FA00003E0010000F80180005C00E0038C003F4A
:109FB000FF0C000FFC180000000000000000000073
:109FC0000000000000000000000000000000000091
:109FD0000000000000000000000000000000000081
:109FE0000000000000000000000000000000000071
:109FF000000000000000000000000000000002005F
:10A0000000200200002003FFFFE003FFFFE0020149
:10A01000002002010020020180000201E000020194
:10A02000FC0003033F80018607E001FC00E000F82C
:10A0300000200000002000000000000000000000E0
:10A040000000000000000000000000000000000010
:10A050000000000000000000000000000000000000
:10A0600000000000000000000000000000000000F0
:10A0700000000000000000000000000000000000E0
:10A0800000000078060000FE01E0018600C0030326
:10A090000040020300200201802002018020020112
:10A0A000C0200200C0200100E060018070C003E019
:10A0B0003F8000001F0000000000000000000000C2
:10A0C0000000000000000000000000000000000090
:10A0D0000000000000000000000000000000000080
:10A0E0000000000000000000000000000000000070
:10A0F0000000000000000000000000000000006000
:10A1000000000380000003000000020000000200C5
:10A1100000200200002003FFFFE003FFFFE0020039
:10A120000020020000200200000002000000038066
:10A13000000000E00000000000000000000000003F
:10A14000000000000000000000000000000000000F
:10A1500000000000000000000000000000000000FF
:10A1600000000000000000000000000000000000EF
:10A1700000000000000000000000020000000200DB
:10A18000000003FFFF0003FFFFC0020000400200C9
:10A1900000600000002000000020000000200000FF
:10A1A0000020020000400200008003FFFF000200C8
:10A1B000000002000000000000000000000000009D
:10A1C000000000000000000000000000000000008F
:10A1D000000000000000000000000000000000007F
:10A1E000000000000000000000000000000000006F
:10A1F000000000000000000000000000000002005D
:10A2000000000200000003C0000003FC0000023F49
:10A21000C0000003F80000007F80000007E000009D
:10A220000780000078000203C000023C000003C069
:10A23000000002000000020000000000000000001A
:10A24000000000000000000000000000000000000E
:10A2500000000000000000000000000000000000FE
:10A2600000000000000000000000000000000000EE
:10A27000000000000000000000000200000003C019
:10A28000000003FF8000023FFE0002007FE00000AC
:10A290000F000200F00003EF000003FF8000020F38
:10A2A000FE0000003FE000001F000207E00003F88E
:10A2B0000000030000000200000000000000000099
:10A2C000000000000000000000000000000000008E
:10A2D000000000000000000000000000000000007E
:10A2E000000000000000000000000000000000006E
:10A2F000000000000000000000000000000002005C
:10A30000002002000020038000E003F0032002FC94
:10A310000C20021F30000007C0000007F0000218E8
:10A320007C0002601F20038003E0020000E00200C6
:10A3300000200000002000000000000000000000DD
:10A34000000000000000000000000000000000000D
:10A3500000000000000000000000000000000000FD
:10A3600000000000000000000000000000000000ED
:10A3700000000000000000000000000000000200DB
:10A3800000000300000003C0000003F80000023ECC
:10A390000020020FC0200001FFE000007FE000036A
:10A3A0008020021C002002700000038000000200D8
:10A3B000000002000000000000000000000000009B
:10A3C000000000000000000000000000000000008D
:10A3D000000000000000000000000000000000007D
:10A3E000000000000000000000000000000000006D
:10A3F000000000000000000000000000000000005D
:10A400000020006000E0038003E003000FA00200D2
:10A410003E200200F8200203E020020F8020023ECE
:10A4200000200278002003E00060038000E00200CA
:10A430000300000000000000000000000000000019
:10A44000000000000000000000000000000000000C
:10A4500000000000000000000000000000000000FC
:10A4600000000000000000000000000000000000EC
:10A4700000000000000000000000000000000000DC
:10A4800000000000000000000000000000000000CC
:10A4900000001FFFFFFC100000041000000410006B
:10A4A000000410000004100000041000000410005C
:10A4B0000004000000000000000000000000000098
:10A4C000000000000000000000000000000000008C
:10A4D000000000000000000000000000000000007C
:10A4E000000000000000000000000000000000006C
:10A4F000000000000000000000000000000000005C
:10A500000000000000000700000003C00000007809
:10A510000000001E00000003C0000000F00000006A
:10A520001E0000000780000000F00000003C00005A
:10A530000006000000000000000000000000000015
:10A54000000000000000000000000000000000000B
:10A5500000000000000000000000000000000000FB
:10A5600000000000000000000000000000000000EB
:10A5700000000000000000000000000000000000DB
:10A58000000010000004100000041000000410007F
:10A5900000041000000410000004100000041FFF5D
:10A5A000FFFC0000000000000000000000000000B0
:10A5B000000000000000000000000000000000009B
:10A5C000000000000000000000000000000000008B
:10A5D000000000000000000000000000000000007B
:10A5E000000000000000000000000000000000006B
:10A5F000000000000000000000000000000000005B
:10A600000000000000000000000002000000040044
:10A6100000000800000018000000100000001800F2
:10A62000000018000000040000000200000000000C
:10A63000000000000000000000000000000000001A
:10A64000000000000000000000000000000000000A
:10A6500000000000000000000000000000000000FA
:10A6600000000000000000000000000000000000EA
:10A6700000000000000000000000000000010000D9
:10A6800000010000000100000001000000010000C6
:10A6900000010000000100000001000000010000B6
:10A6A00000010000000100000001000000010000A6
:10A6B0000001000000010000000100000000000097
:10A6C000000000000000000000000000000000008A
:10A6D000000000000000000000000000000000007A
:10A6E000000000000000000000000000000000006A
:10A6F000000000000000000000000000000000005A
:10A700000000000000001000000010000000100019
:10A710000000180000000800000004000000000015
:10A720000000000000000000000000000000000029
:10A730000000000000000000000000000000000019
:10A740000000000000000000000000000000000009
:10A7500000000000000000000000000000000000F9
:10A7600000000000000000000000000000000000E9
:10A7700000000000000000000000000000000000D9
:10A78000038000018FC000038C60000618200004C5
:10A7900010200004102000042020000420400006A7
:10A7A00020400003FFC00001FFE000000020000087
:10A7B0000020000000C000000000000000000000B9
:10A7C0000000000000000000000000000000000089
:10A7D0000000000000000000000000000000000079
:10A7E0000000000000000000000000000000000069
:10A7F0000000000000000000000000000000020057
:10A8000000000200000003FFFFE007FFFFC000019F
:10A8100080C000020060000200200004002000044C
:10A8200000200004002000060040000300C00001DA
:10A83000FF800000FE00000000000000000000009B
:10A840000000000000000000000000000000000008
:10A8500000000000000000000000000000000000F8
:10A8600000000000000000000000000000000000E8
:10A8700000000000000000000000000000000000D8
:10A88000000000007E000001FF80000381C0000284
:10A890000040000600200004002000040020000406
:10A8A0000020000600200003C0400001C08000001E
:10A8B0000300000000000000000000000000000095
:10A8C0000000000000000000000000000000000088
:10A8D0000000000000000000000000000000000078
:10A8E0000000000000000000000000000000000068
:10A8F0000000000000000000000000000000000058
:10A90000000000007E000001FF80000380C0000600
:10A910000060000400200004002000040020020465
:10A9200000400202008003FFFFE007FFFFC00000BD
:10A930000040000000400000000000000000000097
:10A940000000000000000000000000000000000007
:10A9500000000000000000000000000000000000F7
:10A9600000000000000000000000000000000000E7
:10A9700000000000000000000000000000000000D7
:10A98000000000007E000001FF80000311C00002F3
:10A990001040000410600004102000041020000487
:10A9A000102000061020000310400001F0C000003D
:10A9B0007100000000000000000000000000000026
:10A9C0000000000000000000000000000000000087
:10A9D0000000000000000000000000000000000077
:10A9E0000000000000000000000000000000000067
:10A9F0000000000000000000000000000000000057
:10AA000000000004000000040020000400200004F6
:10AA10000020007FFFE001FFFFE0010400200304AD
:10AA200000200204002002040020020400000200B2
:10AA3000000001C0000001C0000000000000000094
:10AA40000000000000000000000000000000000006
:10AA500000000000000000000000000000000000F6
:10AA600000000000000000000000000000000000E6
:10AA700000000000000000000000000000000000D6
:10AA800000000000001C0000E33E0003FFC20002C3
:10AA90000CC3000404C1000404C1000404C1000488
:10AAA00004C100060CC10003F8C30005F0620006F3
:10AAB000007E0006003C00000000000000000000D6
:10AAC0000000000000000000000000000000000086
:10AAD0000000000000000000000000000000000076
:10AAE0000000000000000000000000000000000066
:10AAF0000000000000000000000000000000020054
:10AB000000200200002003FFFFE007FFFFE000013C
:10AB100000200002002000060000000400000004E5
:10AB2000000000040020000600200003FFE00001F8
:10AB3000FFE00000002000000020000000000000F6
:10AB40000000000000000000000000000000000005
:10AB500000000000000000000000000000000000F5
:10AB600000000000000000000000000000000000E5
:10AB700000000000000000000000000000000000D5
:10AB80000000000000000004002000040020000479
:10AB90000020000400200387FFE0038FFFE0038014
:10ABA0000020000000200000002000000020000025
:10ABB0000000000000000000000000000000000095
:10ABC0000000000000000000000000000000000085
:10ABD0000000000000000000000000000000000075
:10ABE0000000000000000000000000000000000065
:10ABF0000000000000000000000000000000000055
:10AC00000000000000000000000600000007000037
:10AC10000001000000010004000100040001000424
:10AC20000003000400060387FFFC038FFFF8038086
:10AC30000000000000000000000000000000000014
:10AC40000000000000000000000000000000000004
:10AC500000000000000000000000000000000000F4
:10AC600000000000000000000000000000000000E4
:10AC700000000000000000000000000000000200D2
:10AC800000200200002003FFFFE007FFFFE00000BC
:10AC9000082000001020000030000000FC0000052B
:10ACA0008E00000707A0000601E0000400E0000499
:10ACB0000020000000200000000000000000000054
:10ACC0000000000000000000000000000000000084
:10ACD0000000000000000000000000000000000074
:10ACE0000000000000000000000000000000000064
:10ACF0000000000000000000000000000000000054
:10AD000000000000000002000020020000200200FD
:10AD100000200200002003FFFFE007FFFFE000002B
:10AD200000200000002000000020000000200000A3
:10AD30000000000000000000000000000000000013
:10AD40000000000000000000000000000000000003
:10AD500000000000000000000000000000000000F3
:10AD600000000000000000000000000000000000E3
:10AD700000000000000000000000000000000004CF
:10AD800000200007FFE0000FFFE0000200200004A9
:10AD90000000000400200007FFE00003FFE00002C5
:10ADA000002000040000000400200007FFE0000372
:10ADB000FFE0000000200000000000000000000094
:10ADC0000000000000000000000000000000000083
:10ADD0000000000000000000000000000000000073
:10ADE0000000000000000000000000000000000063
:10ADF000000000000000000000000000000000044F
:10AE00000020000400200007FFE0000FFFE0000129
:10AE100000200002002000020000000400000004E6
:10AE2000000000040020000600200003FFE00001F5
:10AE3000FFE00000002000000020000000000000F3
:10AE40000000000000000000000000000000000002
:10AE500000000000000000000000000000000000F2
:10AE600000000000000000000000000000000000E2
:10AE700000000000000000000000000000000000D2
:10AE8000000000007E000000FF80000381C000027F
:10AE90000040000600200004002000040020000400
:10AEA00000200006002000020040000381C00001D5
:10AEB000FF8000007E000000000000000000000095
:10AEC0000000000000000000000000000000000082
:10AED0000000000000000000000000000000000072
:10AEE0000000000000000000000000000000000062
:10AEF000000000000000000000000000000000044E
:10AF00000001000400010007FFFF000FFFFF000128
:10AF100000C10002004100040020000400200004E1
:10AF200000200004002000060040000301C00001D2
:10AF3000FF8000007E000000000000000000000014
:10AF40000000000000000000000000000000000001
:10AF500000000000000000000000000000000000F1
:10AF600000000000000000000000000000000000E1
:10AF700000000000000000000000000000000000D1
:10AF8000000000007E000001FF80000380C000027E
:10AF900000600004002000040020000400200004E1
:10AFA000002000020041000300C10003FFFF000772
:10AFB000FFFF000000010000000100000000000091
:10AFC0000000000000000000000000000000000081
:10AFD0000000000000000000000000000000000071
:10AFE0000000000000000000000000000000000061
:10AFF000000000000000000000000000000000044D
:10B000000020000400200004002000040020000FA5
:10B01000FFE0000FFFE00000C02000010020000260
:10B0200000200006002000040000000400000007CB
:10B03000000000030000000000000000000000000D
:10B040000000000000000000000000000000000000
:10B0500000000000000000000000000000000000F0
:10B0600000000000000000000000000000000000E0
:10B0700000000000000000000000000000000000D0
:10B080000000000003E00001C0E00003E040000613
:10B090003020000430200004182000041820000490
:10B0A000182000040C2000020C60000307C00007F9
:10B0B000838000000000000000000000000000008D
:10B0C0000000000000000000000000000000000080
:10B0D0000000000000000000000000000000000070
:10B0E0000000000000000000000000000000000060
:10B0F0000000000000000000000000000000000050
:10B100000000000400000004000000040000000C27
:10B110000000001FFF8000FFFFC00004006000046B
:10B120000020000400200004002000040040000073
:10B13000018000000000000000000000000000008E
:10B1400000000000000000000000000000000000FF
:10B1500000000000000000000000000000000000EF
:10B1600000000000000000000000000000000000DF
:10B1700000000000000000000000000000000004CB
:10B180000000000400000007FF80000FFFC0000067
:10B1900000600000002000000020000000200000EF
:10B1A000002000040040000400800007FFE0000FC2
:10B1B000FFC0000000400000004000000000000050
:10B1C000000000000000000000000000000000007F
:10B1D000000000000000000000000000000000006F
:10B1E000000000000000000000000000000000005F
:10B1F000000000000000000000000000000000044B
:10B20000000000040000000780000007F0000004B8
:10B21000FE0000041FC0000003E0000003800000E7
:10B220001C0000046000000780000006000000040D
:10B23000000000000000000000000000000000000E
:10B2400000000000000000000000000000000000FE
:10B2500000000000000000000000000000000000EE
:10B2600000000000000000000000000000000000DE
:10B2700000000000000000000000000400000006C4
:10B2800000000007C0000007FC0000043F80000031
:10B2900003E000040F800006F0000007F000000744
:10B2A000FF8000040FE00000038000043C00000762
:10B2B000C0000006000000040000000000000000C4
:10B2C000000000000000000000000000000000007E
:10B2D000000000000000000000000000000000006E
:10B2E000000000000000000000000000000000005E
:10B2F000000000000000000000000000000000004E
:10B3000000200004002000040060000700E00007A7
:10B3100083200007E6000004F80000003C00000461
:10B320005E20000587A0000601E000040060000424
:10B3300000200000002000000000000000000000CD
:10B3400000000000000000000000000000000000FD
:10B3500000000000000000000000000000000000ED
:10B3600000000000000000000000000000000000DD
:10B3700000000000000000000000000000000004C9
:10B38000000000040003000700030007E0010004C0
:10B39000F80100041F02000007FC000000E00000AC
:10B3A0000700000438000007C00000060000000489
:10B3B0000000000400000000000000000000000089
:10B3C000000000000000000000000000000000007D
:10B3D000000000000000000000000000000000006D
:10B3E000000000000000000000000000000000005D
:10B3F000000000000000000000000000000000004D
:10B40000000000078060000600E0000403E0000484
:10B4100007A000040E2000043C200004702000055A
:10B42000E0200007802000070060000400E000002A
:10B430000380000000000000000000000000000089
:10B4400000000000000000000000000000000000FC
:10B4500000000000000000000000000000000000EC
:10B4600000000000000000000000000000000000DC
:10B4700000000000000000000000000000000000CC
:10B4800000000000000000000000000000000000BC
:10B4900000000000000000008000000080000001AB
:10B4A000400007FE3FF808000004100000021000F2
:10B4B000000200000000000000000000000000008A
:10B4C000000000000000000000000000000000007C
:10B4D000000000000000000000000000000000006C
:10B4E000000000000000000000000000000000005C
:10B4F000000000000000000000000000000000004C
:10B50000000000000000000000000000000000003B
:10B5100000000000000000000000FFFFFFFF00002F
:10B52000000000000000000000000000000000001B
:10B53000000000000000000000000000000000000B
:10B5400000000000000000000000000000000000FB
:10B5500000000000000000000000000000000000EB
:10B5600000000000000000000000000000000000DB
:10B5700000000000000000000000000000000000CB
:10B58000000010000002100000020800000407FE86
:10B590003FF8000140000000800000008000000033
:10B5A000000000000000000000000000000000009B
:10B5B000000000000000000000000000000000008B
:10B5C000000000000000000000000000000000007B
:10B5D000000000000000000000000000000000006B
:10B5E000000000000000000000000000000000005B
:10B5F0000000000000000000000000000000180033
:10B60000000030000000400000004000000040004A
:10B6100000002000000030000000080000000400CE
:10B6200000000200000002000000020000000C0008
:10B6300000001800000000000000000000000000F2
:10B6400000000000000000000000000000000000FA
:10B6500000000000000000000000000000000000EA
:10B6600000000000000000000000000000000000DA
:10B67000000000000000000000005081588160813F
:10B6800068817081788180818881908198810000B3
:10B69000ACB6000800000000000000000102030436
:10B6A000060708090000000001020304506C6561F0
:10B6B00073652075736520746865207374796C7583
:10B6C0007320636C69636B207468652063726F73A9
:10B6D00073206F6E207468652073637265656E2ECB
:10B6E0005468652063726F73732077696C6C206196
:10B6F0006C77617973206D6F766520756E74696CF7
:10B70000207468652073637265656E2061646A7574
:10B7100073746D656E7420697320636F6D706C65F2
:10B720007465642E0000000048B700080000002087
:10B730002C0000007E6D000874B700082C0000206B
:10B74000F40400008E6D00080000000000000000FE
:10B7500000000000000000000000000000000000E9
:10B7600010000000010000000024F40000000000B0
:04B7700000000000D5
:040000050800018965
:00000001FF
