Component: ARM Compiler 5.06 update 7 (build 960) Tool: armlink [4d3601]

==============================================================================

Section Cross References

    startup_stm32f407xx.o(RESET) refers to startup_stm32f407xx.o(STACK) for __initial_sp
    startup_stm32f407xx.o(RESET) refers to startup_stm32f407xx.o(.text) for Reset_Handler
    startup_stm32f407xx.o(RESET) refers to stm32f4xx_it.o(i.NMI_Handler) for NMI_Handler
    startup_stm32f407xx.o(RESET) refers to stm32f4xx_it.o(i.HardFault_Handler) for HardFault_Handler
    startup_stm32f407xx.o(RESET) refers to stm32f4xx_it.o(i.MemManage_Handler) for MemManage_Handler
    startup_stm32f407xx.o(RESET) refers to stm32f4xx_it.o(i.BusFault_Handler) for BusFault_Handler
    startup_stm32f407xx.o(RESET) refers to stm32f4xx_it.o(i.UsageFault_Handler) for UsageFault_Handler
    startup_stm32f407xx.o(RESET) refers to stm32f4xx_it.o(i.SVC_Handler) for SVC_Handler
    startup_stm32f407xx.o(RESET) refers to stm32f4xx_it.o(i.DebugMon_Handler) for DebugMon_Handler
    startup_stm32f407xx.o(RESET) refers to stm32f4xx_it.o(i.PendSV_Handler) for PendSV_Handler
    startup_stm32f407xx.o(RESET) refers to stm32f4xx_it.o(i.SysTick_Handler) for SysTick_Handler
    startup_stm32f407xx.o(RESET) refers to stm32f4xx_it.o(i.EXTI1_IRQHandler) for EXTI1_IRQHandler
    startup_stm32f407xx.o(.text) refers to system_stm32f4xx.o(i.SystemInit) for SystemInit
    startup_stm32f407xx.o(.text) refers to entry.o(.ARM.Collect$$$$00000000) for __main
    lcd.o(i.LCD_Clear) refers to lcd.o(i.LCD_SetCursor) for LCD_SetCursor
    lcd.o(i.LCD_Clear) refers to lcd.o(i.LCD_WriteRAM_Prepare) for LCD_WriteRAM_Prepare
    lcd.o(i.LCD_Clear) refers to lcd.o(.bss) for lcddev
    lcd.o(i.LCD_DisplayOff) refers to lcd.o(i.LCD_WR_REG) for LCD_WR_REG
==============================================================================

Removing Unused input sections from the image.

    Removing startup_stm32f407xx.o(HEAP), (512 bytes).
    Removing lcd.o(.rev16_text), (4 bytes).
    Removing lcd.o(.revsh_text), (4 bytes).
    Removing lcd.o(.rrx_text), (6 bytes).
    Removing lcd.o(i.LCD_BGR2RGB), (26 bytes).
    Removing lcd.o(i.LCD_DisplayOff), (96 bytes).
    Removing lcd.o(i.LCD_DisplayOn), (96 bytes).
    Removing lcd.o(i.LCD_DrawRectangle), (74 bytes).
    Removing lcd.o(i.LCD_Fill), (82 bytes).
    Removing lcd.o(i.LCD_ReadPoint), (364 bytes).
    Removing lcd.o(i.LCD_Set_Window), (532 bytes).
    Removing lcd.o(i.opt_delay), (14 bytes).
    Removing ctiic.o(.rev16_text), (4 bytes).
    Removing ctiic.o(.revsh_text), (4 bytes).
    Removing ctiic.o(.rrx_text), (6 bytes).
    Removing gt1151.o(.rev16_text), (4 bytes).
    Removing gt1151.o(.revsh_text), (4 bytes).
    Removing gt1151.o(.rrx_text), (6 bytes).
==============================================================================

Image Symbol Table

    Local Symbols

    Symbol Name                              Value     Ov Type        Size  Object(Section)

    ../Core/Src/fsmc.c                       0x00000000   Number         0  fsmc.o ABSOLUTE
    ../Core/Src/gpio.c                       0x00000000   Number         0  gpio.o ABSOLUTE
    ../Core/Src/main.c                       0x00000000   Number         0  main.o ABSOLUTE
    ../Core/Src/stm32f4xx_hal_msp.c          0x00000000   Number         0  stm32f4xx_hal_msp.o ABSOLUTE
    ../Core/Src/stm32f4xx_it.c               0x00000000   Number         0  stm32f4xx_it.o ABSOLUTE
    ../Core/Src/system_stm32f4xx.c           0x00000000   Number         0  system_stm32f4xx.o ABSOLUTE
    ../Core/Src/usart.c                      0x00000000   Number         0  usart.o ABSOLUTE
    ../Drivers/STM32F4xx_HAL_Driver/Src/stm32f4xx_hal.c 0x00000000   Number         0  stm32f4xx_hal.o ABSOLUTE
    ../Drivers/STM32F4xx_HAL_Driver/Src/stm32f4xx_hal_cortex.c 0x00000000   Number         0  stm32f4xx_hal_cortex.o ABSOLUTE
    ../Drivers/STM32F4xx_HAL_Driver/Src/stm32f4xx_hal_dma.c 0x00000000   Number         0  stm32f4xx_hal_dma.o ABSOLUTE
    ../Drivers/STM32F4xx_HAL_Driver/Src/stm32f4xx_hal_dma_ex.c 0x00000000   Number         0  stm32f4xx_hal_dma_ex.o ABSOLUTE
    ../Drivers/STM32F4xx_HAL_Driver/Src/stm32f4xx_hal_exti.c 0x00000000   Number         0  stm32f4xx_hal_exti.o ABSOLUTE
    ../Drivers/STM32F4xx_HAL_Driver/Src/stm32f4xx_hal_flash.c 0x00000000   Number         0  stm32f4xx_hal_flash.o ABSOLUTE
    ../Drivers/STM32F4xx_HAL_Driver/Src/stm32f4xx_hal_flash_ex.c 0x00000000   Number         0  stm32f4xx_hal_flash_ex.o ABSOLUTE
    ../Drivers/STM32F4xx_HAL_Driver/Src/stm32f4xx_hal_flash_ramfunc.c 0x00000000   Number         0  stm32f4xx_hal_flash_ramfunc.o ABSOLUTE
    ../Drivers/STM32F4xx_HAL_Driver/Src/stm32f4xx_hal_gpio.c 0x00000000   Number         0  stm32f4xx_hal_gpio.o ABSOLUTE
    ../Drivers/STM32F4xx_HAL_Driver/Src/stm32f4xx_hal_pwr.c 0x00000000   Number         0  stm32f4xx_hal_pwr.o ABSOLUTE
    ../Drivers/STM32F4xx_HAL_Driver/Src/stm32f4xx_hal_pwr_ex.c 0x00000000   Number         0  stm32f4xx_hal_pwr_ex.o ABSOLUTE
    ../Drivers/STM32F4xx_HAL_Driver/Src/stm32f4xx_hal_rcc.c 0x00000000   Number         0  stm32f4xx_hal_rcc.o ABSOLUTE
    ../Drivers/STM32F4xx_HAL_Driver/Src/stm32f4xx_hal_rcc_ex.c 0x00000000   Number         0  stm32f4xx_hal_rcc_ex.o ABSOLUTE
    ../Drivers/STM32F4xx_HAL_Driver/Src/stm32f4xx_hal_sram.c 0x00000000   Number         0  stm32f4xx_hal_sram.o ABSOLUTE
    ../Drivers/STM32F4xx_HAL_Driver/Src/stm32f4xx_hal_tim.c 0x00000000   Number         0  stm32f4xx_hal_tim.o ABSOLUTE
    ../Drivers/STM32F4xx_HAL_Driver/Src/stm32f4xx_hal_tim_ex.c 0x00000000   Number         0  stm32f4xx_hal_tim_ex.o ABSOLUTE
    ../Drivers/STM32F4xx_HAL_Driver/Src/stm32f4xx_hal_uart.c 0x00000000   Number         0  stm32f4xx_hal_uart.o ABSOLUTE
    ../Drivers/STM32F4xx_HAL_Driver/Src/stm32f4xx_ll_fsmc.c 0x00000000   Number         0  stm32f4xx_ll_fsmc.o ABSOLUTE
    ../clib/microlib/division.c              0x00000000   Number         0  uidiv.o ABSOLUTE
    ../clib/microlib/division.c              0x00000000   Number         0  uldiv.o ABSOLUTE
    ../clib/microlib/errno.c                 0x00000000   Number         0  errno.o ABSOLUTE
    ../clib/microlib/init/entry.s            0x00000000   Number         0  entry.o ABSOLUTE
    ../clib/microlib/init/entry.s            0x00000000   Number         0  entry8b.o ABSOLUTE
    ../clib/microlib/init/entry.s            0x00000000   Number         0  entry12b.o ABSOLUTE
    ../clib/microlib/init/entry.s            0x00000000   Number         0  entry12a.o ABSOLUTE
    ../clib/microlib/init/entry.s            0x00000000   Number         0  entry11b.o ABSOLUTE
    ../clib/microlib/init/entry.s            0x00000000   Number         0  entry11a.o ABSOLUTE
    ../clib/microlib/init/entry.s            0x00000000   Number         0  entry10b.o ABSOLUTE
    ../clib/microlib/init/entry.s            0x00000000   Number         0  entry10a.o ABSOLUTE
    ../clib/microlib/init/entry.s            0x00000000   Number         0  entry9b.o ABSOLUTE
    ../clib/microlib/init/entry.s            0x00000000   Number         0  entry9a.o ABSOLUTE
    ../clib/microlib/init/entry.s            0x00000000   Number         0  entry2.o ABSOLUTE
    ../clib/microlib/init/entry.s            0x00000000   Number         0  entry8a.o ABSOLUTE
    ../clib/microlib/init/entry.s            0x00000000   Number         0  entry7b.o ABSOLUTE
    ../clib/microlib/init/entry.s            0x00000000   Number         0  entry7a.o ABSOLUTE
    ../clib/microlib/init/entry.s            0x00000000   Number         0  entry5.o ABSOLUTE
    ../clib/microlib/longlong.c              0x00000000   Number         0  llsshr.o ABSOLUTE
    ../clib/microlib/longlong.c              0x00000000   Number         0  llushr.o ABSOLUTE
    ../clib/microlib/longlong.c              0x00000000   Number         0  llshl.o ABSOLUTE
    ../clib/microlib/printf/printf.c         0x00000000   Number         0  printf2.o ABSOLUTE
    ../clib/microlib/printf/printf.c         0x00000000   Number         0  printf3.o ABSOLUTE
    ../clib/microlib/printf/printf.c         0x00000000   Number         0  printf6.o ABSOLUTE
    ../clib/microlib/printf/printf.c         0x00000000   Number         0  printf1.o ABSOLUTE
    ../clib/microlib/printf/printf.c         0x00000000   Number         0  printf7.o ABSOLUTE
    ../clib/microlib/printf/printf.c         0x00000000   Number         0  printf0.o ABSOLUTE
    ../clib/microlib/printf/printf.c         0x00000000   Number         0  printf4.o ABSOLUTE
    ../clib/microlib/printf/printf.c         0x00000000   Number         0  printf8.o ABSOLUTE
    ../clib/microlib/printf/printf.c         0x00000000   Number         0  printf5.o ABSOLUTE
    ../clib/microlib/printf/printf.c         0x00000000   Number         0  printfa.o ABSOLUTE
    ../clib/microlib/printf/printf.c         0x00000000   Number         0  printfb.o ABSOLUTE
    ../clib/microlib/printf/stubs.s          0x00000000   Number         0  stubs.o ABSOLUTE
    ../clib/microlib/stdio/streams.c         0x00000000   Number         0  stdout.o ABSOLUTE
    ../clib/microlib/string/memcpy.c         0x00000000   Number         0  memcpya.o ABSOLUTE
    ../clib/microlib/string/memcpy.c         0x00000000   Number         0  memcpyb.o ABSOLUTE
    ../clib/microlib/string/memset.c         0x00000000   Number         0  memseta.o ABSOLUTE
    ../clib/microlib/string/strcmp.c         0x00000000   Number         0  strcmp.o ABSOLUTE
    ../clib/microlib/stubs.s                 0x00000000   Number         0  iusefp.o ABSOLUTE
    ../fplib/microlib/f2d.c                  0x00000000   Number         0  f2d.o ABSOLUTE
    ../fplib/microlib/fpadd.c                0x00000000   Number         0  dadd.o ABSOLUTE
    ../fplib/microlib/fpdiv.c                0x00000000   Number         0  ddiv.o ABSOLUTE
    ../fplib/microlib/fpepilogue.c           0x00000000   Number         0  depilogue.o ABSOLUTE
    ../fplib/microlib/fpfix.c                0x00000000   Number         0  dfixui.o ABSOLUTE
    ../fplib/microlib/fpfix.c                0x00000000   Number         0  dfixul.o ABSOLUTE
    ../fplib/microlib/fpflt.c                0x00000000   Number         0  dfltui.o ABSOLUTE
    ../fplib/microlib/fpmul.c                0x00000000   Number         0  dmul.o ABSOLUTE
    ../fplib/microlib/fpsqrt.c               0x00000000   Number         0  dsqrt.o ABSOLUTE
    ../mathlib/sqrt.c                        0x00000000   Number         0  sqrt.o ABSOLUTE
    ../mathlib/sqrt.c                        0x00000000   Number         0  sqrt_x.o ABSOLUTE
    ..\Core\Src\ctiic.c                      0x00000000   Number         0  ctiic.o ABSOLUTE
    ..\Core\Src\fsmc.c                       0x00000000   Number         0  fsmc.o ABSOLUTE
    ..\Core\Src\gpio.c                       0x00000000   Number         0  gpio.o ABSOLUTE
    ..\Core\Src\gt1151.c                     0x00000000   Number         0  gt1151.o ABSOLUTE
    ..\Core\Src\lcd.c                        0x00000000   Number         0  lcd.o ABSOLUTE
    ..\Core\Src\main.c                       0x00000000   Number         0  main.o ABSOLUTE
    ..\Core\Src\stm32f4xx_hal_msp.c          0x00000000   Number         0  stm32f4xx_hal_msp.o ABSOLUTE
    ..\Core\Src\stm32f4xx_it.c               0x00000000   Number         0  stm32f4xx_it.o ABSOLUTE
    ..\Core\Src\system_stm32f4xx.c           0x00000000   Number         0  system_stm32f4xx.o ABSOLUTE
    ..\Core\Src\touch.c                      0x00000000   Number         0  touch.o ABSOLUTE
    ..\Core\Src\usart.c                      0x00000000   Number         0  usart.o ABSOLUTE
    ..\Drivers\STM32F4xx_HAL_Driver\Src\stm32f4xx_hal.c 0x00000000   Number         0  stm32f4xx_hal.o ABSOLUTE
    ..\Drivers\STM32F4xx_HAL_Driver\Src\stm32f4xx_hal_cortex.c 0x00000000   Number         0  stm32f4xx_hal_cortex.o ABSOLUTE
    ..\Drivers\STM32F4xx_HAL_Driver\Src\stm32f4xx_hal_dma.c 0x00000000   Number         0  stm32f4xx_hal_dma.o ABSOLUTE
    ..\Drivers\STM32F4xx_HAL_Driver\Src\stm32f4xx_hal_dma_ex.c 0x00000000   Number         0  stm32f4xx_hal_dma_ex.o ABSOLUTE
    ..\Drivers\STM32F4xx_HAL_Driver\Src\stm32f4xx_hal_exti.c 0x00000000   Number         0  stm32f4xx_hal_exti.o ABSOLUTE
    ..\Drivers\STM32F4xx_HAL_Driver\Src\stm32f4xx_hal_flash.c 0x00000000   Number         0  stm32f4xx_hal_flash.o ABSOLUTE
    ..\Drivers\STM32F4xx_HAL_Driver\Src\stm32f4xx_hal_flash_ex.c 0x00000000   Number         0  stm32f4xx_hal_flash_ex.o ABSOLUTE
    ..\Drivers\STM32F4xx_HAL_Driver\Src\stm32f4xx_hal_flash_ramfunc.c 0x00000000   Number         0  stm32f4xx_hal_flash_ramfunc.o ABSOLUTE
    ..\Drivers\STM32F4xx_HAL_Driver\Src\stm32f4xx_hal_gpio.c 0x00000000   Number         0  stm32f4xx_hal_gpio.o ABSOLUTE
    ..\Drivers\STM32F4xx_HAL_Driver\Src\stm32f4xx_hal_pwr.c 0x00000000   Number         0  stm32f4xx_hal_pwr.o ABSOLUTE
    ..\Drivers\STM32F4xx_HAL_Driver\Src\stm32f4xx_hal_pwr_ex.c 0x00000000   Number         0  stm32f4xx_hal_pwr_ex.o ABSOLUTE
    ..\Drivers\STM32F4xx_HAL_Driver\Src\stm32f4xx_hal_rcc.c 0x00000000   Number         0  stm32f4xx_hal_rcc.o ABSOLUTE
    ..\Drivers\STM32F4xx_HAL_Driver\Src\stm32f4xx_hal_rcc_ex.c 0x00000000   Number         0  stm32f4xx_hal_rcc_ex.o ABSOLUTE
    ..\Drivers\STM32F4xx_HAL_Driver\Src\stm32f4xx_hal_sram.c 0x00000000   Number         0  stm32f4xx_hal_sram.o ABSOLUTE
    ..\Drivers\STM32F4xx_HAL_Driver\Src\stm32f4xx_hal_tim.c 0x00000000   Number         0  stm32f4xx_hal_tim.o ABSOLUTE
    ..\Drivers\STM32F4xx_HAL_Driver\Src\stm32f4xx_hal_tim_ex.c 0x00000000   Number         0  stm32f4xx_hal_tim_ex.o ABSOLUTE
    ..\Drivers\STM32F4xx_HAL_Driver\Src\stm32f4xx_hal_uart.c 0x00000000   Number         0  stm32f4xx_hal_uart.o ABSOLUTE
    ..\Drivers\STM32F4xx_HAL_Driver\Src\stm32f4xx_ll_fsmc.c 0x00000000   Number         0  stm32f4xx_ll_fsmc.o ABSOLUTE
    ..\\Core\\Src\\ctiic.c                   0x00000000   Number         0  ctiic.o ABSOLUTE
    ..\\Core\\Src\\gt1151.c                  0x00000000   Number         0  gt1151.o ABSOLUTE
    ..\\Core\\Src\\lcd.c                     0x00000000   Number         0  lcd.o ABSOLUTE
    ..\\Core\\Src\\touch.c                   0x00000000   Number         0  touch.o ABSOLUTE
    cdcmple.s                                0x00000000   Number         0  cdcmple.o ABSOLUTE
    cdrcmple.s                               0x00000000   Number         0  cdrcmple.o ABSOLUTE
    dc.s                                     0x00000000   Number         0  dc.o ABSOLUTE
    handlers.s                               0x00000000   Number         0  handlers.o ABSOLUTE
    init.s                                   0x00000000   Number         0  init.o ABSOLUTE
    startup_stm32f407xx.s                    0x00000000   Number         0  startup_stm32f407xx.o ABSOLUTE
    RESET                                    0x08000000   Section      392  startup_stm32f407xx.o(RESET)
    .ARM.Collect$$$$00000000                 0x08000188   Section        0  entry.o(.ARM.Collect$$$$00000000)
    .ARM.Collect$$$$00000001                 0x08000188   Section        4  entry2.o(.ARM.Collect$$$$00000001)
    .ARM.Collect$$$$00000004                 0x0800018c   Section        4  entry5.o(.ARM.Collect$$$$00000004)
    .ARM.Collect$$$$00000008                 0x08000190   Section        0  entry7b.o(.ARM.Collect$$$$00000008)
    .ARM.Collect$$$$0000000A                 0x08000190   Section        0  entry8b.o(.ARM.Collect$$$$0000000A)
    .ARM.Collect$$$$0000000B                 0x08000190   Section        8  entry9a.o(.ARM.Collect$$$$0000000B)
    .ARM.Collect$$$$0000000E                 0x08000198   Section        4  entry12b.o(.ARM.Collect$$$$0000000E)
    .ARM.Collect$$$$0000000F                 0x0800019c   Section        0  entry10a.o(.ARM.Collect$$$$0000000F)
    .ARM.Collect$$$$00000011                 0x0800019c   Section        0  entry11a.o(.ARM.Collect$$$$00000011)
    .ARM.Collect$$$$00002712                 0x0800019c   Section        4  entry2.o(.ARM.Collect$$$$00002712)
    __lit__00000000                          0x0800019c   Data           4  entry2.o(.ARM.Collect$$$$00002712)
    .text                                    0x080001a0   Section       36  startup_stm32f407xx.o(.text)
    $v0                                      0x080001a0   Number         0  startup_stm32f407xx.o(.text)
    .text                                    0x080001c4   Section        0  uldiv.o(.text)
    .text                                    0x08000226   Section        0  memcpya.o(.text)
    .text                                    0x0800024a   Section        0  memseta.o(.text)
    .text                                    0x0800026e   Section        0  strcmp.o(.text)
    .text                                    0x0800028a   Section        0  dmul.o(.text)
    .text                                    0x0800036e   Section        0  dfltui.o(.text)
    .text                                    0x08000388   Section        0  dfixui.o(.text)
    .text                                    0x080003ba   Section        0  f2d.o(.text)
    .text                                    0x080003e0   Section       48  cdcmple.o(.text)
    .text                                    0x08000410   Section       48  cdrcmple.o(.text)
    .text                                    0x08000440   Section        0  llshl.o(.text)
    .text                                    0x0800045e   Section        0  llushr.o(.text)
    .text                                    0x0800047e   Section        0  iusefp.o(.text)
    .text                                    0x0800047e   Section        0  depilogue.o(.text)
    .text                                    0x08000538   Section        0  dsqrt.o(.text)
    .text                                    0x080005dc   Section       36  init.o(.text)
    i.BusFault_Handler                       0x08000600   Section        0  stm32f4xx_it.o(i.BusFault_Handler)
    i.CT_IIC_Ack                             0x08000604   Section        0  ctiic.o(i.CT_IIC_Ack)
    i.CT_IIC_NAck                            0x0800065c   Section        0  ctiic.o(i.CT_IIC_NAck)
    i.CT_IIC_Read_Byte                       0x080006b4   Section        0  ctiic.o(i.CT_IIC_Read_Byte)
    i.CT_IIC_Send_Byte                       0x0800072c   Section        0  ctiic.o(i.CT_IIC_Send_Byte)
    i.CT_IIC_Start                           0x080007b0   Section        0  ctiic.o(i.CT_IIC_Start)
    i.CT_IIC_Stop                            0x08000808   Section        0  ctiic.o(i.CT_IIC_Stop)
    i.CT_IIC_Wait_Ack                        0x08000860   Section        0  ctiic.o(i.CT_IIC_Wait_Ack)
    i.DebugMon_Handler                       0x080008cc   Section        0  stm32f4xx_it.o(i.DebugMon_Handler)
    i.EXTI1_IRQHandler                       0x080008ce   Section        0  stm32f4xx_it.o(i.EXTI1_IRQHandler)
    i.Error_Handler                          0x080008d8   Section        0  main.o(i.Error_Handler)
    i.FSMC_NORSRAM_Extended_Timing_Init      0x080008e0   Section        0  stm32f4xx_ll_fsmc.o(i.FSMC_NORSRAM_Extended_Timing_Init)
    i.FSMC_NORSRAM_Init                      0x08000928   Section        0  stm32f4xx_ll_fsmc.o(i.FSMC_NORSRAM_Init)
    i.FSMC_NORSRAM_Timing_Init               0x08000984   Section        0  stm32f4xx_ll_fsmc.o(i.FSMC_NORSRAM_Timing_Init)
    i.GT1151_Init                            0x080009c8   Section        0  gt1151.o(i.GT1151_Init)
    i.GT1151_RD_Reg                          0x08000a74   Section        0  gt1151.o(i.GT1151_RD_Reg)
    i.GT1151_Scan                            0x08000ad8   Section        0  gt1151.o(i.GT1151_Scan)
    i.GT1151_WR_Reg                          0x08000cc4   Section        0  gt1151.o(i.GT1151_WR_Reg)
    i.GT1151_handle_init                     0x08000d20   Section        0  gt1151.o(i.GT1151_handle_init)
    i.HAL_Delay                              0x08000d5c   Section        0  stm32f4xx_hal.o(i.HAL_Delay)
    i.HAL_FSMC_MspInit                       0x08000d84   Section        0  fsmc.o(i.HAL_FSMC_MspInit)
    HAL_FSMC_MspInit                         0x08000d85   Thumb Code   182  fsmc.o(i.HAL_FSMC_MspInit)
    i.HAL_GPIO_EXTI_Callback                 0x08000e54   Section        0  main.o(i.HAL_GPIO_EXTI_Callback)
    i.HAL_GPIO_EXTI_IRQHandler               0x08000e6c   Section        0  stm32f4xx_hal_gpio.o(i.HAL_GPIO_EXTI_IRQHandler)
    i.HAL_GPIO_Init                          0x08000e88   Section        0  stm32f4xx_hal_gpio.o(i.HAL_GPIO_Init)
    i.HAL_GPIO_ReadPin                       0x0800108c   Section        0  stm32f4xx_hal_gpio.o(i.HAL_GPIO_ReadPin)
    i.HAL_GPIO_WritePin                      0x0800109c   Section        0  stm32f4xx_hal_gpio.o(i.HAL_GPIO_WritePin)
    i.HAL_GetTick                            0x080010a8   Section        0  stm32f4xx_hal.o(i.HAL_GetTick)
    i.HAL_IncTick                            0x080010b4   Section        0  stm32f4xx_hal.o(i.HAL_IncTick)
    i.HAL_Init                               0x080010cc   Section        0  stm32f4xx_hal.o(i.HAL_Init)
    i.HAL_InitTick                           0x08001108   Section        0  stm32f4xx_hal.o(i.HAL_InitTick)
    i.HAL_MspInit                            0x08001154   Section        0  stm32f4xx_hal_msp.o(i.HAL_MspInit)
    i.HAL_NVIC_EnableIRQ                     0x0800119c   Section        0  stm32f4xx_hal_cortex.o(i.HAL_NVIC_EnableIRQ)
    i.HAL_NVIC_SetPriority                   0x080011bc   Section        0  stm32f4xx_hal_cortex.o(i.HAL_NVIC_SetPriority)
    i.HAL_NVIC_SetPriorityGrouping           0x08001238   Section        0  stm32f4xx_hal_cortex.o(i.HAL_NVIC_SetPriorityGrouping)
    i.HAL_RCC_CSSCallback                    0x08001260   Section        0  stm32f4xx_hal_rcc.o(i.HAL_RCC_CSSCallback)
    i.HAL_RCC_ClockConfig                    0x08001264   Section        0  stm32f4xx_hal_rcc.o(i.HAL_RCC_ClockConfig)
    i.HAL_RCC_EnableCSS                      0x080013e8   Section        0  stm32f4xx_hal_rcc.o(i.HAL_RCC_EnableCSS)
    i.HAL_RCC_GetHCLKFreq                    0x080013f4   Section        0  stm32f4xx_hal_rcc.o(i.HAL_RCC_GetHCLKFreq)
    i.HAL_RCC_GetPCLK1Freq                   0x08001400   Section        0  stm32f4xx_hal_rcc.o(i.HAL_RCC_GetPCLK1Freq)
    i.HAL_RCC_GetPCLK2Freq                   0x08001420   Section        0  stm32f4xx_hal_rcc.o(i.HAL_RCC_GetPCLK2Freq)
    i.HAL_RCC_GetSysClockFreq                0x08001440   Section        0  stm32f4xx_hal_rcc.o(i.HAL_RCC_GetSysClockFreq)
    i.HAL_RCC_NMI_IRQHandler                 0x080014f0   Section        0  stm32f4xx_hal_rcc.o(i.HAL_RCC_NMI_IRQHandler)
    i.HAL_RCC_OscConfig                      0x08001510   Section        0  stm32f4xx_hal_rcc.o(i.HAL_RCC_OscConfig)
    i.HAL_SRAM_Init                          0x080019ac   Section        0  stm32f4xx_hal_sram.o(i.HAL_SRAM_Init)
    i.HAL_SRAM_MspInit                       0x08001a04   Section        0  fsmc.o(i.HAL_SRAM_MspInit)
    i.HAL_SYSTICK_Config                     0x08001a0e   Section        0  stm32f4xx_hal_cortex.o(i.HAL_SYSTICK_Config)
    i.HAL_UART_Init                          0x08001a42   Section        0  stm32f4xx_hal_uart.o(i.HAL_UART_Init)
    i.HAL_UART_MspInit                       0x08001ab4   Section        0  usart.o(i.HAL_UART_MspInit)
    i.HAL_UART_Transmit                      0x08001b3c   Section        0  stm32f4xx_hal_uart.o(i.HAL_UART_Transmit)
    i.HardFault_Handler                      0x08001c0e   Section        0  stm32f4xx_it.o(i.HardFault_Handler)
    i.LCD_Clear                              0x08001c14   Section        0  lcd.o(i.LCD_Clear)
    i.LCD_Display_Dir                        0x08001c48   Section        0  lcd.o(i.LCD_Display_Dir)
    i.LCD_DrawLine                           0x08001e20   Section        0  lcd.o(i.LCD_DrawLine)
    i.LCD_DrawPoint                          0x08001ed4   Section        0  lcd.o(i.LCD_DrawPoint)
    i.LCD_Draw_Circle                        0x08001ef8   Section        0  lcd.o(i.LCD_Draw_Circle)
    i.LCD_Fast_DrawPoint                     0x08001f9c   Section        0  lcd.o(i.LCD_Fast_DrawPoint)
    i.LCD_Init                               0x0800211c   Section        0  lcd.o(i.LCD_Init)
    i.LCD_RD_DATA                            0x08005878   Section        0  lcd.o(i.LCD_RD_DATA)
    LCD_RD_DATA                              0x08005879   Thumb Code    14  lcd.o(i.LCD_RD_DATA)
    i.LCD_ReadReg                            0x0800588c   Section        0  lcd.o(i.LCD_ReadReg)
    LCD_ReadReg                              0x0800588d   Thumb Code    22  lcd.o(i.LCD_ReadReg)
    i.LCD_SSD_BackLightSet                   0x080058a4   Section        0  lcd.o(i.LCD_SSD_BackLightSet)
    i.LCD_Scan_Dir                           0x08005904   Section        0  lcd.o(i.LCD_Scan_Dir)
    LCD_Scan_Dir                             0x08005905   Thumb Code   746  lcd.o(i.LCD_Scan_Dir)
    i.LCD_SetCursor                          0x08005bf4   Section        0  lcd.o(i.LCD_SetCursor)
    i.LCD_ShowChar                           0x08005d9c   Section        0  lcd.o(i.LCD_ShowChar)
    LCD_ShowChar                             0x08005d9d   Thumb Code   292  lcd.o(i.LCD_ShowChar)
    i.LCD_ShowString                         0x08005edc   Section        0  lcd.o(i.LCD_ShowString)
    i.LCD_WR_DATA                            0x08005f50   Section        0  lcd.o(i.LCD_WR_DATA)
    LCD_WR_DATA                              0x08005f51   Thumb Code     8  lcd.o(i.LCD_WR_DATA)
    i.LCD_WR_REG                             0x08005f5c   Section        0  lcd.o(i.LCD_WR_REG)
    LCD_WR_REG                               0x08005f5d   Thumb Code     8  lcd.o(i.LCD_WR_REG)
    i.LCD_WriteRAM_Prepare                   0x08005f68   Section        0  lcd.o(i.LCD_WriteRAM_Prepare)
    LCD_WriteRAM_Prepare                     0x08005f69   Thumb Code    10  lcd.o(i.LCD_WriteRAM_Prepare)
    i.LCD_WriteReg                           0x08005f7c   Section        0  lcd.o(i.LCD_WriteReg)
    LCD_WriteReg                             0x08005f7d   Thumb Code    14  lcd.o(i.LCD_WriteReg)
    i.LCD_handle_init                        0x08005f90   Section        0  lcd.o(i.LCD_handle_init)
    i.MX_FSMC_Init                           0x08005fa8   Section        0  fsmc.o(i.MX_FSMC_Init)
    i.MX_GPIO_Init                           0x0800604c   Section        0  gpio.o(i.MX_GPIO_Init)
    i.MX_USART1_UART_Init                    0x08006210   Section        0  usart.o(i.MX_USART1_UART_Init)
    i.MemManage_Handler                      0x08006248   Section        0  stm32f4xx_it.o(i.MemManage_Handler)
    i.NMI_Handler                            0x0800624c   Section        0  stm32f4xx_it.o(i.NMI_Handler)
    i.PendSV_Handler                         0x08006254   Section        0  stm32f4xx_it.o(i.PendSV_Handler)
    i.SVC_Handler                            0x08006256   Section        0  stm32f4xx_it.o(i.SVC_Handler)
    i.SysTick_Handler                        0x08006258   Section        0  stm32f4xx_it.o(i.SysTick_Handler)
    i.SystemClock_Config                     0x08006260   Section        0  main.o(i.SystemClock_Config)
    i.SystemInit                             0x08006318   Section        0  system_stm32f4xx.o(i.SystemInit)
    i.TP_Adjust                              0x0800632c   Section        0  touch.o(i.TP_Adjust)
    i.TP_Drow_Touch_Point                    0x08006998   Section        0  touch.o(i.TP_Drow_Touch_Point)
    i.UART_SetConfig                         0x08006a10   Section        0  stm32f4xx_hal_uart.o(i.UART_SetConfig)
    UART_SetConfig                           0x08006a11   Thumb Code   546  stm32f4xx_hal_uart.o(i.UART_SetConfig)
    i.UART_WaitOnFlagUntilTimeout            0x08006c3c   Section        0  stm32f4xx_hal_uart.o(i.UART_WaitOnFlagUntilTimeout)
    UART_WaitOnFlagUntilTimeout              0x08006c3d   Thumb Code   108  stm32f4xx_hal_uart.o(i.UART_WaitOnFlagUntilTimeout)
    i.UsageFault_Handler                     0x08006ca8   Section        0  stm32f4xx_it.o(i.UsageFault_Handler)
    i.__0printf$2                            0x08006cac   Section        0  printf2.o(i.__0printf$2)
    i.__NVIC_GetPriorityGrouping             0x08006ccc   Section        0  stm32f4xx_hal_cortex.o(i.__NVIC_GetPriorityGrouping)
    __NVIC_GetPriorityGrouping               0x08006ccd   Thumb Code    10  stm32f4xx_hal_cortex.o(i.__NVIC_GetPriorityGrouping)
    i.__NVIC_SetPriority                     0x08006cdc   Section        0  stm32f4xx_hal_cortex.o(i.__NVIC_SetPriority)
    __NVIC_SetPriority                       0x08006cdd   Thumb Code    32  stm32f4xx_hal_cortex.o(i.__NVIC_SetPriority)
    i.__hardfp_sqrt                          0x08006d04   Section        0  sqrt.o(i.__hardfp_sqrt)
    i.__scatterload_copy                     0x08006d7e   Section       14  handlers.o(i.__scatterload_copy)
    i.__scatterload_null                     0x08006d8c   Section        2  handlers.o(i.__scatterload_null)
    i.__scatterload_zeroinit                 0x08006d8e   Section       14  handlers.o(i.__scatterload_zeroinit)
    i.__set_errno                            0x08006d9c   Section        0  errno.o(i.__set_errno)
    i._printf_core                           0x08006da8   Section        0  printf2.o(i._printf_core)
    _printf_core                             0x08006da9   Thumb Code   214  printf2.o(i._printf_core)
    i.delayMicroseconds                      0x08006e7e   Section        0  lcd.o(i.delayMicroseconds)
    i.fputc                                  0x08006ed8   Section        0  usart.o(i.fputc)
    i.main                                   0x08006ef8   Section        0  main.o(i.main)
    .constdata                               0x08006f3a   Section    18240  lcd.o(.constdata)
    .constdata                               0x0800b67a   Section       20  gt1151.o(.constdata)
    .constdata                               0x0800b690   Section        4  touch.o(.constdata)
    .constdata                               0x0800b694   Section       24  system_stm32f4xx.o(.constdata)
    .conststring                             0x0800b6ac   Section      121  touch.o(.conststring)
    .data                                    0x20000000   Section        8  lcd.o(.data)
    .data                                    0x20000008   Section        1  gt1151.o(.data)
    t                                        0x20000008   Data           1  gt1151.o(.data)
    .data                                    0x20000009   Section        1  main.o(.data)
    reset                                    0x20000009   Data           1  main.o(.data)
    .data                                    0x2000000c   Section        8  fsmc.o(.data)
    FSMC_Initialized                         0x2000000c   Data           4  fsmc.o(.data)
    FSMC_DeInitialized                       0x20000010   Data           4  fsmc.o(.data)
    .data                                    0x20000014   Section        9  stm32f4xx_hal.o(.data)
    .data                                    0x20000020   Section        4  system_stm32f4xx.o(.data)
    .data                                    0x20000024   Section        4  stdout.o(.data)
    .data                                    0x20000028   Section        4  errno.o(.data)
    _errno                                   0x20000028   Data           4  errno.o(.data)
    .bss                                     0x2000002c   Section       14  lcd.o(.bss)
    lcddev                                   0x2000002c   Data          14  lcd.o(.bss)
    .bss                                     0x2000003c   Section       80  gt1151.o(.bss)
    tp_dev                                   0x2000003c   Data          80  gt1151.o(.bss)
    .bss                                     0x2000008c   Section       80  fsmc.o(.bss)
    .bss                                     0x200000dc   Section       68  usart.o(.bss)
    STACK                                    0x20000120   Section     1024  startup_stm32f407xx.o(STACK)

    Global Symbols

    Symbol Name                              Value     Ov Type        Size  Object(Section)

    BuildAttributes$$THM_ISAv4$E$P$D$K$B$S$7EM$VFPi3$EXTD16$VFPS$VFMA$PE$A:L22UL41UL21$X:L11$S22US41US21$IEEE1$IW$USESV6$~STKCKD$USESV7$~SHL$OTIME$ROPI$IEEEJ$EBA8$MICROLIB$REQ8$PRES8$EABIv2 0x00000000   Number         0  anon$$obj.o ABSOLUTE
    __ARM_use_no_argv                        0x00000000   Number         0  main.o ABSOLUTE
    _printf_a                                0x00000000   Number         0  stubs.o ABSOLUTE
    _printf_c                                0x00000000   Number         0  stubs.o ABSOLUTE
    _printf_charcount                        0x00000000   Number         0  stubs.o ABSOLUTE
    _printf_d                                0x00000000   Number         0  stubs.o ABSOLUTE
    _printf_e                                0x00000000   Number         0  stubs.o ABSOLUTE
    _printf_f                                0x00000000   Number         0  stubs.o ABSOLUTE
    _printf_flags                            0x00000000   Number         0  stubs.o ABSOLUTE
    _printf_fp_dec                           0x00000000   Number         0  stubs.o ABSOLUTE
    _printf_fp_hex                           0x00000000   Number         0  stubs.o ABSOLUTE
    _printf_g                                0x00000000   Number         0  stubs.o ABSOLUTE
    _printf_i                                0x00000000   Number         0  stubs.o ABSOLUTE
    _printf_int_dec                          0x00000000   Number         0  stubs.o ABSOLUTE
    _printf_l                                0x00000000   Number         0  stubs.o ABSOLUTE
    _printf_lc                               0x00000000   Number         0  stubs.o ABSOLUTE
    _printf_ll                               0x00000000   Number         0  stubs.o ABSOLUTE
    _printf_lld                              0x00000000   Number         0  stubs.o ABSOLUTE
    _printf_lli                              0x00000000   Number         0  stubs.o ABSOLUTE
    _printf_llo                              0x00000000   Number         0  stubs.o ABSOLUTE
    _printf_llu                              0x00000000   Number         0  stubs.o ABSOLUTE
    _printf_llx                              0x00000000   Number         0  stubs.o ABSOLUTE
    _printf_longlong_dec                     0x00000000   Number         0  stubs.o ABSOLUTE
    _printf_longlong_hex                     0x00000000   Number         0  stubs.o ABSOLUTE
    _printf_longlong_oct                     0x00000000   Number         0  stubs.o ABSOLUTE
    _printf_ls                               0x00000000   Number         0  stubs.o ABSOLUTE
    _printf_mbtowc                           0x00000000   Number         0  stubs.o ABSOLUTE
    _printf_n                                0x00000000   Number         0  stubs.o ABSOLUTE
    _printf_o                                0x00000000   Number         0  stubs.o ABSOLUTE
    _printf_p                                0x00000000   Number         0  stubs.o ABSOLUTE
    _printf_percent                          0x00000000   Number         0  stubs.o ABSOLUTE
    _printf_pre_padding                      0x00000000   Number         0  stubs.o ABSOLUTE
    _printf_return_value                     0x00000000   Number         0  stubs.o ABSOLUTE
    _printf_s                                0x00000000   Number         0  stubs.o ABSOLUTE
    _printf_sizespec                         0x00000000   Number         0  stubs.o ABSOLUTE
    _printf_str                              0x00000000   Number         0  stubs.o ABSOLUTE
    _printf_truncate_signed                  0x00000000   Number         0  stubs.o ABSOLUTE
    _printf_truncate_unsigned                0x00000000   Number         0  stubs.o ABSOLUTE
    _printf_u                                0x00000000   Number         0  stubs.o ABSOLUTE
    _printf_wc                               0x00000000   Number         0  stubs.o ABSOLUTE
    _printf_wctomb                           0x00000000   Number         0  stubs.o ABSOLUTE
    _printf_widthprec                        0x00000000   Number         0  stubs.o ABSOLUTE
    _printf_x                                0x00000000   Number         0  stubs.o ABSOLUTE
    __arm_fini_                               - Undefined Weak Reference
    __cpp_initialize__aeabi_                  - Undefined Weak Reference
    __cxa_finalize                            - Undefined Weak Reference
    __decompress                              - Undefined Weak Reference
    _clock_init                               - Undefined Weak Reference
    _microlib_exit                            - Undefined Weak Reference
    __Vectors_Size                           0x00000188   Number         0  startup_stm32f407xx.o ABSOLUTE
    __Vectors                                0x08000000   Data           4  startup_stm32f407xx.o(RESET)
    __Vectors_End                            0x08000188   Data           0  startup_stm32f407xx.o(RESET)
    __main                                   0x08000189   Thumb Code     0  entry.o(.ARM.Collect$$$$00000000)
    _main_stk                                0x08000189   Thumb Code     0  entry2.o(.ARM.Collect$$$$00000001)
    _main_scatterload                        0x0800018d   Thumb Code     0  entry5.o(.ARM.Collect$$$$00000004)
    __main_after_scatterload                 0x08000191   Thumb Code     0  entry5.o(.ARM.Collect$$$$00000004)
    _main_clock                              0x08000191   Thumb Code     0  entry7b.o(.ARM.Collect$$$$00000008)
    _main_cpp_init                           0x08000191   Thumb Code     0  entry8b.o(.ARM.Collect$$$$0000000A)
    _main_init                               0x08000191   Thumb Code     0  entry9a.o(.ARM.Collect$$$$0000000B)
    __rt_lib_shutdown_fini                   0x08000199   Thumb Code     0  entry12b.o(.ARM.Collect$$$$0000000E)
    __rt_final_cpp                           0x0800019d   Thumb Code     0  entry10a.o(.ARM.Collect$$$$0000000F)
    __rt_final_exit                          0x0800019d   Thumb Code     0  entry11a.o(.ARM.Collect$$$$00000011)
    Reset_Handler                            0x080001a1   Thumb Code     8  startup_stm32f407xx.o(.text)
    ADC_IRQHandler                           0x080001bb   Thumb Code     0  startup_stm32f407xx.o(.text)
    CAN1_RX0_IRQHandler                      0x080001bb   Thumb Code     0  startup_stm32f407xx.o(.text)
    CAN1_RX1_IRQHandler                      0x080001bb   Thumb Code     0  startup_stm32f407xx.o(.text)
    CAN1_SCE_IRQHandler                      0x080001bb   Thumb Code     0  startup_stm32f407xx.o(.text)
    CAN1_TX_IRQHandler                       0x080001bb   Thumb Code     0  startup_stm32f407xx.o(.text)
    CAN2_RX0_IRQHandler                      0x080001bb   Thumb Code     0  startup_stm32f407xx.o(.text)
    CAN2_RX1_IRQHandler                      0x080001bb   Thumb Code     0  startup_stm32f407xx.o(.text)
    CAN2_SCE_IRQHandler                      0x080001bb   Thumb Code     0  startup_stm32f407xx.o(.text)
    CAN2_TX_IRQHandler                       0x080001bb   Thumb Code     0  startup_stm32f407xx.o(.text)
    DCMI_IRQHandler                          0x080001bb   Thumb Code     0  startup_stm32f407xx.o(.text)
    DMA1_Stream0_IRQHandler                  0x080001bb   Thumb Code     0  startup_stm32f407xx.o(.text)
    DMA1_Stream1_IRQHandler                  0x080001bb   Thumb Code     0  startup_stm32f407xx.o(.text)
    DMA1_Stream2_IRQHandler                  0x080001bb   Thumb Code     0  startup_stm32f407xx.o(.text)
    DMA1_Stream3_IRQHandler                  0x080001bb   Thumb Code     0  startup_stm32f407xx.o(.text)
    DMA1_Stream4_IRQHandler                  0x080001bb   Thumb Code     0  startup_stm32f407xx.o(.text)
    DMA1_Stream5_IRQHandler                  0x080001bb   Thumb Code     0  startup_stm32f407xx.o(.text)
    DMA1_Stream6_IRQHandler                  0x080001bb   Thumb Code     0  startup_stm32f407xx.o(.text)
    DMA1_Stream7_IRQHandler                  0x080001bb   Thumb Code     0  startup_stm32f407xx.o(.text)
    DMA2_Stream0_IRQHandler                  0x080001bb   Thumb Code     0  startup_stm32f407xx.o(.text)
    DMA2_Stream1_IRQHandler                  0x080001bb   Thumb Code     0  startup_stm32f407xx.o(.text)
    DMA2_Stream2_IRQHandler                  0x080001bb   Thumb Code     0  startup_stm32f407xx.o(.text)
    DMA2_Stream3_IRQHandler                  0x080001bb   Thumb Code     0  startup_stm32f407xx.o(.text)
    DMA2_Stream4_IRQHandler                  0x080001bb   Thumb Code     0  startup_stm32f407xx.o(.text)
    DMA2_Stream5_IRQHandler                  0x080001bb   Thumb Code     0  startup_stm32f407xx.o(.text)
    DMA2_Stream6_IRQHandler                  0x080001bb   Thumb Code     0  startup_stm32f407xx.o(.text)
    DMA2_Stream7_IRQHandler                  0x080001bb   Thumb Code     0  startup_stm32f407xx.o(.text)
    ETH_IRQHandler                           0x080001bb   Thumb Code     0  startup_stm32f407xx.o(.text)
    ETH_WKUP_IRQHandler                      0x080001bb   Thumb Code     0  startup_stm32f407xx.o(.text)
    EXTI0_IRQHandler                         0x080001bb   Thumb Code     0  startup_stm32f407xx.o(.text)
    EXTI15_10_IRQHandler                     0x080001bb   Thumb Code     0  startup_stm32f407xx.o(.text)
    EXTI2_IRQHandler                         0x080001bb   Thumb Code     0  startup_stm32f407xx.o(.text)
    EXTI3_IRQHandler                         0x080001bb   Thumb Code     0  startup_stm32f407xx.o(.text)
    EXTI4_IRQHandler                         0x080001bb   Thumb Code     0  startup_stm32f407xx.o(.text)
    EXTI9_5_IRQHandler                       0x080001bb   Thumb Code     0  startup_stm32f407xx.o(.text)
    FLASH_IRQHandler                         0x080001bb   Thumb Code     0  startup_stm32f407xx.o(.text)
    FMC_IRQHandler                           0x080001bb   Thumb Code     0  startup_stm32f407xx.o(.text)
    FPU_IRQHandler                           0x080001bb   Thumb Code     0  startup_stm32f407xx.o(.text)
    HASH_RNG_IRQHandler                      0x080001bb   Thumb Code     0  startup_stm32f407xx.o(.text)
    I2C1_ER_IRQHandler                       0x080001bb   Thumb Code     0  startup_stm32f407xx.o(.text)
    I2C1_EV_IRQHandler                       0x080001bb   Thumb Code     0  startup_stm32f407xx.o(.text)
    I2C2_ER_IRQHandler                       0x080001bb   Thumb Code     0  startup_stm32f407xx.o(.text)
    I2C2_EV_IRQHandler                       0x080001bb   Thumb Code     0  startup_stm32f407xx.o(.text)
    I2C3_ER_IRQHandler                       0x080001bb   Thumb Code     0  startup_stm32f407xx.o(.text)
    I2C3_EV_IRQHandler                       0x080001bb   Thumb Code     0  startup_stm32f407xx.o(.text)
    OTG_FS_IRQHandler                        0x080001bb   Thumb Code     0  startup_stm32f407xx.o(.text)
    OTG_FS_WKUP_IRQHandler                   0x080001bb   Thumb Code     0  startup_stm32f407xx.o(.text)
    OTG_HS_EP1_IN_IRQHandler                 0x080001bb   Thumb Code     0  startup_stm32f407xx.o(.text)
    OTG_HS_EP1_OUT_IRQHandler                0x080001bb   Thumb Code     0  startup_stm32f407xx.o(.text)
    OTG_HS_IRQHandler                        0x080001bb   Thumb Code     0  startup_stm32f407xx.o(.text)
    OTG_HS_WKUP_IRQHandler                   0x080001bb   Thumb Code     0  startup_stm32f407xx.o(.text)
    PVD_IRQHandler                           0x080001bb   Thumb Code     0  startup_stm32f407xx.o(.text)
    RCC_IRQHandler                           0x080001bb   Thumb Code     0  startup_stm32f407xx.o(.text)
    RTC_Alarm_IRQHandler                     0x080001bb   Thumb Code     0  startup_stm32f407xx.o(.text)
    RTC_WKUP_IRQHandler                      0x080001bb   Thumb Code     0  startup_stm32f407xx.o(.text)
    SDIO_IRQHandler                          0x080001bb   Thumb Code     0  startup_stm32f407xx.o(.text)
    SPI1_IRQHandler                          0x080001bb   Thumb Code     0  startup_stm32f407xx.o(.text)
    SPI2_IRQHandler                          0x080001bb   Thumb Code     0  startup_stm32f407xx.o(.text)
    SPI3_IRQHandler                          0x080001bb   Thumb Code     0  startup_stm32f407xx.o(.text)
    TAMP_STAMP_IRQHandler                    0x080001bb   Thumb Code     0  startup_stm32f407xx.o(.text)
    TIM1_BRK_TIM9_IRQHandler                 0x080001bb   Thumb Code     0  startup_stm32f407xx.o(.text)
    TIM1_CC_IRQHandler                       0x080001bb   Thumb Code     0  startup_stm32f407xx.o(.text)
    TIM1_TRG_COM_TIM11_IRQHandler            0x080001bb   Thumb Code     0  startup_stm32f407xx.o(.text)
    TIM1_UP_TIM10_IRQHandler                 0x080001bb   Thumb Code     0  startup_stm32f407xx.o(.text)
    TIM2_IRQHandler                          0x080001bb   Thumb Code     0  startup_stm32f407xx.o(.text)
    TIM3_IRQHandler                          0x080001bb   Thumb Code     0  startup_stm32f407xx.o(.text)
    TIM4_IRQHandler                          0x080001bb   Thumb Code     0  startup_stm32f407xx.o(.text)
    TIM5_IRQHandler                          0x080001bb   Thumb Code     0  startup_stm32f407xx.o(.text)
    TIM6_DAC_IRQHandler                      0x080001bb   Thumb Code     0  startup_stm32f407xx.o(.text)
    TIM7_IRQHandler                          0x080001bb   Thumb Code     0  startup_stm32f407xx.o(.text)
    TIM8_BRK_TIM12_IRQHandler                0x080001bb   Thumb Code     0  startup_stm32f407xx.o(.text)
    TIM8_CC_IRQHandler                       0x080001bb   Thumb Code     0  startup_stm32f407xx.o(.text)
    TIM8_TRG_COM_TIM14_IRQHandler            0x080001bb   Thumb Code     0  startup_stm32f407xx.o(.text)
    TIM8_UP_TIM13_IRQHandler                 0x080001bb   Thumb Code     0  startup_stm32f407xx.o(.text)
    UART4_IRQHandler                         0x080001bb   Thumb Code     0  startup_stm32f407xx.o(.text)
    UART5_IRQHandler                         0x080001bb   Thumb Code     0  startup_stm32f407xx.o(.text)
    USART1_IRQHandler                        0x080001bb   Thumb Code     0  startup_stm32f407xx.o(.text)
    USART2_IRQHandler                        0x080001bb   Thumb Code     0  startup_stm32f407xx.o(.text)
    USART3_IRQHandler                        0x080001bb   Thumb Code     0  startup_stm32f407xx.o(.text)
    USART6_IRQHandler                        0x080001bb   Thumb Code     0  startup_stm32f407xx.o(.text)
    WWDG_IRQHandler                          0x080001bb   Thumb Code     0  startup_stm32f407xx.o(.text)
    __aeabi_uldivmod                         0x080001c5   Thumb Code    98  uldiv.o(.text)
    __aeabi_memcpy                           0x08000227   Thumb Code    36  memcpya.o(.text)
    __aeabi_memcpy4                          0x08000227   Thumb Code     0  memcpya.o(.text)
    __aeabi_memcpy8                          0x08000227   Thumb Code     0  memcpya.o(.text)
    __aeabi_memset                           0x0800024b   Thumb Code    14  memseta.o(.text)
    __aeabi_memset4                          0x0800024b   Thumb Code     0  memseta.o(.text)
    __aeabi_memset8                          0x0800024b   Thumb Code     0  memseta.o(.text)
    __aeabi_memclr                           0x08000259   Thumb Code     4  memseta.o(.text)
    __aeabi_memclr4                          0x08000259   Thumb Code     0  memseta.o(.text)
    __aeabi_memclr8                          0x08000259   Thumb Code     0  memseta.o(.text)
    _memset$wrapper                          0x0800025d   Thumb Code    18  memseta.o(.text)
    strcmp                                   0x0800026f   Thumb Code    28  strcmp.o(.text)
    __aeabi_dmul                             0x0800028b   Thumb Code   228  dmul.o(.text)
    __aeabi_ui2d                             0x0800036f   Thumb Code    26  dfltui.o(.text)
    __aeabi_d2uiz                            0x08000389   Thumb Code    50  dfixui.o(.text)
    __aeabi_f2d                              0x080003bb   Thumb Code    38  f2d.o(.text)
    __aeabi_cdcmpeq                          0x080003e1   Thumb Code     0  cdcmple.o(.text)
    __aeabi_cdcmple                          0x080003e1   Thumb Code    48  cdcmple.o(.text)
    __aeabi_cdrcmple                         0x08000411   Thumb Code    48  cdrcmple.o(.text)
    __aeabi_llsl                             0x08000441   Thumb Code    30  llshl.o(.text)
    _ll_shift_l                              0x08000441   Thumb Code     0  llshl.o(.text)
    __aeabi_llsr                             0x0800045f   Thumb Code    32  llushr.o(.text)
    _ll_ushift_r                             0x0800045f   Thumb Code     0  llushr.o(.text)
    __I$use$fp                               0x0800047f   Thumb Code     0  iusefp.o(.text)
    _double_round                            0x0800047f   Thumb Code    30  depilogue.o(.text)
    _double_epilogue                         0x0800049d   Thumb Code   156  depilogue.o(.text)
    _dsqrt                                   0x08000539   Thumb Code   162  dsqrt.o(.text)
    __scatterload                            0x080005dd   Thumb Code    28  init.o(.text)
    __scatterload_rt2                        0x080005dd   Thumb Code     0  init.o(.text)
    BusFault_Handler                         0x08000601   Thumb Code     4  stm32f4xx_it.o(i.BusFault_Handler)
    CT_IIC_Ack                               0x08000605   Thumb Code    78  ctiic.o(i.CT_IIC_Ack)
    CT_IIC_NAck                              0x0800065d   Thumb Code    78  ctiic.o(i.CT_IIC_NAck)
    CT_IIC_Read_Byte                         0x080006b5   Thumb Code   110  ctiic.o(i.CT_IIC_Read_Byte)
    CT_IIC_Send_Byte                         0x0800072d   Thumb Code   124  ctiic.o(i.CT_IIC_Send_Byte)
    CT_IIC_Start                             0x080007b1   Thumb Code    80  ctiic.o(i.CT_IIC_Start)
    CT_IIC_Stop                              0x08000809   Thumb Code    80  ctiic.o(i.CT_IIC_Stop)
    CT_IIC_Wait_Ack                          0x08000861   Thumb Code   100  ctiic.o(i.CT_IIC_Wait_Ack)
    DebugMon_Handler                         0x080008cd   Thumb Code     2  stm32f4xx_it.o(i.DebugMon_Handler)
    EXTI1_IRQHandler                         0x080008cf   Thumb Code    10  stm32f4xx_it.o(i.EXTI1_IRQHandler)
    Error_Handler                            0x080008d9   Thumb Code     6  main.o(i.Error_Handler)
    FSMC_NORSRAM_Extended_Timing_Init        0x080008e1   Thumb Code    66  stm32f4xx_ll_fsmc.o(i.FSMC_NORSRAM_Extended_Timing_Init)
    FSMC_NORSRAM_Init                        0x08000929   Thumb Code    88  stm32f4xx_ll_fsmc.o(i.FSMC_NORSRAM_Init)
    FSMC_NORSRAM_Timing_Init                 0x08000985   Thumb Code    68  stm32f4xx_ll_fsmc.o(i.FSMC_NORSRAM_Timing_Init)
    GT1151_Init                              0x080009c9   Thumb Code   142  gt1151.o(i.GT1151_Init)
    GT1151_RD_Reg                            0x08000a75   Thumb Code   100  gt1151.o(i.GT1151_RD_Reg)
    GT1151_Scan                              0x08000ad9   Thumb Code   480  gt1151.o(i.GT1151_Scan)
    GT1151_WR_Reg                            0x08000cc5   Thumb Code    92  gt1151.o(i.GT1151_WR_Reg)
    GT1151_handle_init                       0x08000d21   Thumb Code    46  gt1151.o(i.GT1151_handle_init)
    HAL_Delay                                0x08000d5d   Thumb Code    36  stm32f4xx_hal.o(i.HAL_Delay)
    HAL_GPIO_EXTI_Callback                   0x08000e55   Thumb Code    18  main.o(i.HAL_GPIO_EXTI_Callback)
    HAL_GPIO_EXTI_IRQHandler                 0x08000e6d   Thumb Code    24  stm32f4xx_hal_gpio.o(i.HAL_GPIO_EXTI_IRQHandler)
    HAL_GPIO_Init                            0x08000e89   Thumb Code   470  stm32f4xx_hal_gpio.o(i.HAL_GPIO_Init)
    HAL_GPIO_ReadPin                         0x0800108d   Thumb Code    16  stm32f4xx_hal_gpio.o(i.HAL_GPIO_ReadPin)
    HAL_GPIO_WritePin                        0x0800109d   Thumb Code    12  stm32f4xx_hal_gpio.o(i.HAL_GPIO_WritePin)
    HAL_GetTick                              0x080010a9   Thumb Code     6  stm32f4xx_hal.o(i.HAL_GetTick)
    HAL_IncTick                              0x080010b5   Thumb Code    16  stm32f4xx_hal.o(i.HAL_IncTick)
    HAL_Init                                 0x080010cd   Thumb Code    54  stm32f4xx_hal.o(i.HAL_Init)
    HAL_InitTick                             0x08001109   Thumb Code    64  stm32f4xx_hal.o(i.HAL_InitTick)
    HAL_MspInit                              0x08001155   Thumb Code    68  stm32f4xx_hal_msp.o(i.HAL_MspInit)
    HAL_NVIC_EnableIRQ                       0x0800119d   Thumb Code    32  stm32f4xx_hal_cortex.o(i.HAL_NVIC_EnableIRQ)
    HAL_NVIC_SetPriority                     0x080011bd   Thumb Code   124  stm32f4xx_hal_cortex.o(i.HAL_NVIC_SetPriority)
    HAL_NVIC_SetPriorityGrouping             0x08001239   Thumb Code    32  stm32f4xx_hal_cortex.o(i.HAL_NVIC_SetPriorityGrouping)
    HAL_RCC_CSSCallback                      0x08001261   Thumb Code     2  stm32f4xx_hal_rcc.o(i.HAL_RCC_CSSCallback)
    HAL_RCC_ClockConfig                      0x08001265   Thumb Code   368  stm32f4xx_hal_rcc.o(i.HAL_RCC_ClockConfig)
    HAL_RCC_EnableCSS                        0x080013e9   Thumb Code     8  stm32f4xx_hal_rcc.o(i.HAL_RCC_EnableCSS)
    HAL_RCC_GetHCLKFreq                      0x080013f5   Thumb Code     6  stm32f4xx_hal_rcc.o(i.HAL_RCC_GetHCLKFreq)
    HAL_RCC_GetPCLK1Freq                     0x08001401   Thumb Code    22  stm32f4xx_hal_rcc.o(i.HAL_RCC_GetPCLK1Freq)
    HAL_RCC_GetPCLK2Freq                     0x08001421   Thumb Code    22  stm32f4xx_hal_rcc.o(i.HAL_RCC_GetPCLK2Freq)
    HAL_RCC_GetSysClockFreq                  0x08001441   Thumb Code   162  stm32f4xx_hal_rcc.o(i.HAL_RCC_GetSysClockFreq)
    HAL_RCC_NMI_IRQHandler                   0x080014f1   Thumb Code    28  stm32f4xx_hal_rcc.o(i.HAL_RCC_NMI_IRQHandler)
    HAL_RCC_OscConfig                        0x08001511   Thumb Code  1172  stm32f4xx_hal_rcc.o(i.HAL_RCC_OscConfig)
    HAL_SRAM_Init                            0x080019ad   Thumb Code    88  stm32f4xx_hal_sram.o(i.HAL_SRAM_Init)
    HAL_SRAM_MspInit                         0x08001a05   Thumb Code    10  fsmc.o(i.HAL_SRAM_MspInit)
    HAL_SYSTICK_Config                       0x08001a0f   Thumb Code    52  stm32f4xx_hal_cortex.o(i.HAL_SYSTICK_Config)
    HAL_UART_Init                            0x08001a43   Thumb Code   114  stm32f4xx_hal_uart.o(i.HAL_UART_Init)
    HAL_UART_MspInit                         0x08001ab5   Thumb Code   124  usart.o(i.HAL_UART_MspInit)
    HAL_UART_Transmit                        0x08001b3d   Thumb Code   210  stm32f4xx_hal_uart.o(i.HAL_UART_Transmit)
    HardFault_Handler                        0x08001c0f   Thumb Code     4  stm32f4xx_it.o(i.HardFault_Handler)
    LCD_Clear                                0x08001c15   Thumb Code    42  lcd.o(i.LCD_Clear)
    LCD_Display_Dir                          0x08001c49   Thumb Code   466  lcd.o(i.LCD_Display_Dir)
    LCD_DrawLine                             0x08001e21   Thumb Code   176  lcd.o(i.LCD_DrawLine)
    LCD_DrawPoint                            0x08001ed5   Thumb Code    28  lcd.o(i.LCD_DrawPoint)
    LCD_Draw_Circle                          0x08001ef9   Thumb Code   160  lcd.o(i.LCD_Draw_Circle)
    LCD_Fast_DrawPoint                       0x08001f9d   Thumb Code   374  lcd.o(i.LCD_Fast_DrawPoint)
    LCD_Init                                 0x0800211d   Thumb Code 14160  lcd.o(i.LCD_Init)
    LCD_SSD_BackLightSet                     0x080058a5   Thumb Code    88  lcd.o(i.LCD_SSD_BackLightSet)
    LCD_SetCursor                            0x08005bf5   Thumb Code   418  lcd.o(i.LCD_SetCursor)
    LCD_ShowString                           0x08005edd   Thumb Code   110  lcd.o(i.LCD_ShowString)
    LCD_handle_init                          0x08005f91   Thumb Code    18  lcd.o(i.LCD_handle_init)
    MX_FSMC_Init                             0x08005fa9   Thumb Code   156  fsmc.o(i.MX_FSMC_Init)
    MX_GPIO_Init                             0x0800604d   Thumb Code   430  gpio.o(i.MX_GPIO_Init)
    MX_USART1_UART_Init                      0x08006211   Thumb Code    46  usart.o(i.MX_USART1_UART_Init)
    MemManage_Handler                        0x08006249   Thumb Code     4  stm32f4xx_it.o(i.MemManage_Handler)
    NMI_Handler                              0x0800624d   Thumb Code     8  stm32f4xx_it.o(i.NMI_Handler)
    PendSV_Handler                           0x08006255   Thumb Code     2  stm32f4xx_it.o(i.PendSV_Handler)
    SVC_Handler                              0x08006257   Thumb Code     2  stm32f4xx_it.o(i.SVC_Handler)
    SysTick_Handler                          0x08006259   Thumb Code     8  stm32f4xx_it.o(i.SysTick_Handler)
    SystemClock_Config                       0x08006261   Thumb Code   174  main.o(i.SystemClock_Config)
    SystemInit                               0x08006319   Thumb Code    14  system_stm32f4xx.o(i.SystemInit)
    TP_Adjust                                0x0800632d   Thumb Code  1600  touch.o(i.TP_Adjust)
    TP_Drow_Touch_Point                      0x08006999   Thumb Code   114  touch.o(i.TP_Drow_Touch_Point)
    UsageFault_Handler                       0x08006ca9   Thumb Code     4  stm32f4xx_it.o(i.UsageFault_Handler)
    __0printf$2                              0x08006cad   Thumb Code    22  printf2.o(i.__0printf$2)
    __1printf$2                              0x08006cad   Thumb Code     0  printf2.o(i.__0printf$2)
    __2printf                                0x08006cad   Thumb Code     0  printf2.o(i.__0printf$2)
    __hardfp_sqrt                            0x08006d05   Thumb Code   122  sqrt.o(i.__hardfp_sqrt)
    __scatterload_copy                       0x08006d7f   Thumb Code    14  handlers.o(i.__scatterload_copy)
    __scatterload_null                       0x08006d8d   Thumb Code     2  handlers.o(i.__scatterload_null)
    __scatterload_zeroinit                   0x08006d8f   Thumb Code    14  handlers.o(i.__scatterload_zeroinit)
    __set_errno                              0x08006d9d   Thumb Code     6  errno.o(i.__set_errno)
    delayMicroseconds                        0x08006e7f   Thumb Code    90  lcd.o(i.delayMicroseconds)
    fputc                                    0x08006ed9   Thumb Code    26  usart.o(i.fputc)
    main                                     0x08006ef9   Thumb Code    66  main.o(i.main)
    asc2_1206                                0x08006f3a   Data        1140  lcd.o(.constdata)
    asc2_1608                                0x080073ae   Data        1520  lcd.o(.constdata)
    asc2_2412                                0x0800799e   Data        3420  lcd.o(.constdata)
    asc2_3216                                0x080086fa   Data       12160  lcd.o(.constdata)
    GT1151_tpx_tbl                           0x0800b67a   Data          20  gt1151.o(.constdata)
    TP_REMIND_MSG_TBL                        0x0800b690   Data           4  touch.o(.constdata)
    AHBPrescTable                            0x0800b694   Data          16  system_stm32f4xx.o(.constdata)
    APBPrescTable                            0x0800b6a4   Data           8  system_stm32f4xx.o(.constdata)
    Region$$Table$$Base                      0x0800b728   Number         0  anon$$obj.o(Region$$Table)
    Region$$Table$$Limit                     0x0800b748   Number         0  anon$$obj.o(Region$$Table)
    pen_color                                0x20000000   Data           4  lcd.o(.data)
    back_color                               0x20000004   Data           4  lcd.o(.data)
    uwTick                                   0x20000014   Data           4  stm32f4xx_hal.o(.data)
    uwTickPrio                               0x20000018   Data           4  stm32f4xx_hal.o(.data)
    uwTickFreq                               0x2000001c   Data           1  stm32f4xx_hal.o(.data)
    SystemCoreClock                          0x20000020   Data           4  system_stm32f4xx.o(.data)
    __stdout                                 0x20000024   Data           4  stdout.o(.data)
    hsram1                                   0x2000008c   Data          80  fsmc.o(.bss)
    huart1                                   0x200000dc   Data          68  usart.o(.bss)
    __initial_sp                             0x20000520   Data           0  startup_stm32f407xx.o(STACK)



==============================================================================

Memory Map of the image

  Image Entry point : 0x08000189

  Load Region LR_IROM1 (Base: 0x08000000, Size: 0x0000b774, Max: 0x00100000, ABSOLUTE)

    Execution Region ER_IROM1 (Exec base: 0x08000000, Load base: 0x08000000, Size: 0x0000b748, Max: 0x00100000, ABSOLUTE)

    Exec Addr    Load Addr    Size         Type   Attr      Idx    E Section Name        Object

    0x08000000   0x08000000   0x00000188   Data   RO            3    RESET               startup_stm32f407xx.o
    0x08000188   0x08000188   0x00000000   Code   RO         2744  * .ARM.Collect$$$$00000000  mc_w.l(entry.o)
    0x08000188   0x08000188   0x00000004   Code   RO         3030    .ARM.Collect$$$$00000001  mc_w.l(entry2.o)
    0x0800018c   0x0800018c   0x00000004   Code   RO         3033    .ARM.Collect$$$$00000004  mc_w.l(entry5.o)
    0x08000190   0x08000190   0x00000000   Code   RO         3035    .ARM.Collect$$$$00000008  mc_w.l(entry7b.o)
    0x08000190   0x08000190   0x00000000   Code   RO         3037    .ARM.Collect$$$$0000000A  mc_w.l(entry8b.o)
    0x08000190   0x08000190   0x00000008   Code   RO         3038    .ARM.Collect$$$$0000000B  mc_w.l(entry9a.o)
    0x08000198   0x08000198   0x00000004   Code   RO         3045    .ARM.Collect$$$$0000000E  mc_w.l(entry12b.o)
    0x0800019c   0x0800019c   0x00000000   Code   RO         3040    .ARM.Collect$$$$0000000F  mc_w.l(entry10a.o)
    0x0800019c   0x0800019c   0x00000000   Code   RO         3042    .ARM.Collect$$$$00000011  mc_w.l(entry11a.o)
    0x0800019c   0x0800019c   0x00000004   Code   RO         3031    .ARM.Collect$$$$00002712  mc_w.l(entry2.o)
    0x080001a0   0x080001a0   0x00000024   Code   RO            4    .text               startup_stm32f407xx.o
    0x080001c4   0x080001c4   0x00000062   Code   RO         2747    .text               mc_w.l(uldiv.o)
    0x08000226   0x08000226   0x00000024   Code   RO         2749    .text               mc_w.l(memcpya.o)
    0x0800024a   0x0800024a   0x00000024   Code   RO         2751    .text               mc_w.l(memseta.o)
    0x0800026e   0x0800026e   0x0000001c   Code   RO         2753    .text               mc_w.l(strcmp.o)
    0x0800028a   0x0800028a   0x000000e4   Code   RO         3018    .text               mf_w.l(dmul.o)
    0x0800036e   0x0800036e   0x0000001a   Code   RO         3020    .text               mf_w.l(dfltui.o)
    0x08000388   0x08000388   0x00000032   Code   RO         3022    .text               mf_w.l(dfixui.o)
    0x080003ba   0x080003ba   0x00000026   Code   RO         3024    .text               mf_w.l(f2d.o)
    0x080003e0   0x080003e0   0x00000030   Code   RO         3026    .text               mf_w.l(cdcmple.o)
    0x08000410   0x08000410   0x00000030   Code   RO         3028    .text               mf_w.l(cdrcmple.o)
    0x08000440   0x08000440   0x0000001e   Code   RO         3049    .text               mc_w.l(llshl.o)
    0x0800045e   0x0800045e   0x00000020   Code   RO         3051    .text               mc_w.l(llushr.o)
    0x0800047e   0x0800047e   0x00000000   Code   RO         3060    .text               mc_w.l(iusefp.o)
    0x0800047e   0x0800047e   0x000000ba   Code   RO         3061    .text               mf_w.l(depilogue.o)
    0x08000538   0x08000538   0x000000a2   Code   RO         3067    .text               mf_w.l(dsqrt.o)
    0x080005da   0x080005da   0x00000002   PAD
    0x080005dc   0x080005dc   0x00000024   Code   RO         3071    .text               mc_w.l(init.o)
    0x08000600   0x08000600   0x00000004   Code   RO          762    i.BusFault_Handler  stm32f4xx_it.o
    0x08000604   0x08000604   0x00000058   Code   RO          304    i.CT_IIC_Ack        ctiic.o
    0x0800065c   0x0800065c   0x00000058   Code   RO          305    i.CT_IIC_NAck       ctiic.o
    0x080006b4   0x080006b4   0x00000078   Code   RO          306    i.CT_IIC_Read_Byte  ctiic.o
    0x0800072c   0x0800072c   0x00000084   Code   RO          307    i.CT_IIC_Send_Byte  ctiic.o
    0x080007b0   0x080007b0   0x00000058   Code   RO          308    i.CT_IIC_Start      ctiic.o
    0x08000808   0x08000808   0x00000058   Code   RO          309    i.CT_IIC_Stop       ctiic.o
    0x08000860   0x08000860   0x0000006c   Code   RO          310    i.CT_IIC_Wait_Ack   ctiic.o
    0x080008cc   0x080008cc   0x00000002   Code   RO          763    i.DebugMon_Handler  stm32f4xx_it.o
    0x080008ce   0x080008ce   0x0000000a   Code   RO          764    i.EXTI1_IRQHandler  stm32f4xx_it.o
    0x080008d8   0x080008d8   0x00000006   Code   RO          583    i.Error_Handler     main.o
    0x080008de   0x080008de   0x00000002   PAD
    0x080008e0   0x080008e0   0x00000048   Code   RO          875    i.FSMC_NORSRAM_Extended_Timing_Init  stm32f4xx_ll_fsmc.o
    0x08000928   0x08000928   0x0000005c   Code   RO          876    i.FSMC_NORSRAM_Init  stm32f4xx_ll_fsmc.o
    0x08000984   0x08000984   0x00000044   Code   RO          877    i.FSMC_NORSRAM_Timing_Init  stm32f4xx_ll_fsmc.o
    0x080009c8   0x080009c8   0x000000ac   Code   RO          464    i.GT1151_Init       gt1151.o
    0x08000a74   0x08000a74   0x00000064   Code   RO          465    i.GT1151_RD_Reg     gt1151.o
    0x08000ad8   0x08000ad8   0x000001ec   Code   RO          466    i.GT1151_Scan       gt1151.o
    0x08000cc4   0x08000cc4   0x0000005c   Code   RO          467    i.GT1151_WR_Reg     gt1151.o
    0x08000d20   0x08000d20   0x0000003c   Code   RO          468    i.GT1151_handle_init  gt1151.o
    0x08000d5c   0x08000d5c   0x00000028   Code   RO         1924    i.HAL_Delay         stm32f4xx_hal.o
    0x08000d84   0x08000d84   0x000000d0   Code   RO          662    i.HAL_FSMC_MspInit  fsmc.o
    0x08000e54   0x08000e54   0x00000018   Code   RO          584    i.HAL_GPIO_EXTI_Callback  main.o
    0x08000e6c   0x08000e6c   0x0000001c   Code   RO         1392    i.HAL_GPIO_EXTI_IRQHandler  stm32f4xx_hal_gpio.o
    0x08000e88   0x08000e88   0x00000204   Code   RO         1393    i.HAL_GPIO_Init     stm32f4xx_hal_gpio.o
    0x0800108c   0x0800108c   0x00000010   Code   RO         1395    i.HAL_GPIO_ReadPin  stm32f4xx_hal_gpio.o
    0x0800109c   0x0800109c   0x0000000c   Code   RO         1397    i.HAL_GPIO_WritePin  stm32f4xx_hal_gpio.o
    0x080010a8   0x080010a8   0x0000000c   Code   RO         1930    i.HAL_GetTick       stm32f4xx_hal.o
    0x080010b4   0x080010b4   0x00000018   Code   RO         1936    i.HAL_IncTick       stm32f4xx_hal.o
    0x080010cc   0x080010cc   0x0000003c   Code   RO         1937    i.HAL_Init          stm32f4xx_hal.o
    0x08001108   0x08001108   0x0000004c   Code   RO         1938    i.HAL_InitTick      stm32f4xx_hal.o
    0x08001154   0x08001154   0x00000048   Code   RO          843    i.HAL_MspInit       stm32f4xx_hal_msp.o
    0x0800119c   0x0800119c   0x00000020   Code   RO         1782    i.HAL_NVIC_EnableIRQ  stm32f4xx_hal_cortex.o
    0x080011bc   0x080011bc   0x0000007c   Code   RO         1788    i.HAL_NVIC_SetPriority  stm32f4xx_hal_cortex.o
    0x08001238   0x08001238   0x00000028   Code   RO         1789    i.HAL_NVIC_SetPriorityGrouping  stm32f4xx_hal_cortex.o
    0x08001260   0x08001260   0x00000002   Code   RO          993    i.HAL_RCC_CSSCallback  stm32f4xx_hal_rcc.o
    0x08001262   0x08001262   0x00000002   PAD
    0x08001264   0x08001264   0x00000184   Code   RO          994    i.HAL_RCC_ClockConfig  stm32f4xx_hal_rcc.o
    0x080013e8   0x080013e8   0x0000000c   Code   RO          997    i.HAL_RCC_EnableCSS  stm32f4xx_hal_rcc.o
    0x080013f4   0x080013f4   0x0000000c   Code   RO          999    i.HAL_RCC_GetHCLKFreq  stm32f4xx_hal_rcc.o
    0x08001400   0x08001400   0x00000020   Code   RO         1001    i.HAL_RCC_GetPCLK1Freq  stm32f4xx_hal_rcc.o
    0x08001420   0x08001420   0x00000020   Code   RO         1002    i.HAL_RCC_GetPCLK2Freq  stm32f4xx_hal_rcc.o
    0x08001440   0x08001440   0x000000b0   Code   RO         1003    i.HAL_RCC_GetSysClockFreq  stm32f4xx_hal_rcc.o
    0x080014f0   0x080014f0   0x00000020   Code   RO         1005    i.HAL_RCC_NMI_IRQHandler  stm32f4xx_hal_rcc.o
    0x08001510   0x08001510   0x0000049c   Code   RO         1006    i.HAL_RCC_OscConfig  stm32f4xx_hal_rcc.o
    0x080019ac   0x080019ac   0x00000058   Code   RO         2179    i.HAL_SRAM_Init     stm32f4xx_hal_sram.o
    0x08001a04   0x08001a04   0x0000000a   Code   RO          664    i.HAL_SRAM_MspInit  fsmc.o
    0x08001a0e   0x08001a0e   0x00000034   Code   RO         1793    i.HAL_SYSTICK_Config  stm32f4xx_hal_cortex.o
    0x08001a42   0x08001a42   0x00000072   Code   RO         2360    i.HAL_UART_Init     stm32f4xx_hal_uart.o
    0x08001ab4   0x08001ab4   0x00000088   Code   RO          715    i.HAL_UART_MspInit  usart.o
    0x08001b3c   0x08001b3c   0x000000d2   Code   RO         2368    i.HAL_UART_Transmit  stm32f4xx_hal_uart.o
    0x08001c0e   0x08001c0e   0x00000004   Code   RO          765    i.HardFault_Handler  stm32f4xx_it.o
    0x08001c12   0x08001c12   0x00000002   PAD
    0x08001c14   0x08001c14   0x00000034   Code   RO           14    i.LCD_Clear         lcd.o
    0x08001c48   0x08001c48   0x000001d8   Code   RO           17    i.LCD_Display_Dir   lcd.o
    0x08001e20   0x08001e20   0x000000b4   Code   RO           18    i.LCD_DrawLine      lcd.o
    0x08001ed4   0x08001ed4   0x00000024   Code   RO           19    i.LCD_DrawPoint     lcd.o
    0x08001ef8   0x08001ef8   0x000000a4   Code   RO           21    i.LCD_Draw_Circle   lcd.o
    0x08001f9c   0x08001f9c   0x00000180   Code   RO           22    i.LCD_Fast_DrawPoint  lcd.o
    0x0800211c   0x0800211c   0x0000375c   Code   RO           24    i.LCD_Init          lcd.o
    0x08005878   0x08005878   0x00000014   Code   RO           25    i.LCD_RD_DATA       lcd.o
    0x0800588c   0x0800588c   0x00000016   Code   RO           27    i.LCD_ReadReg       lcd.o
    0x080058a2   0x080058a2   0x00000002   PAD
    0x080058a4   0x080058a4   0x00000060   Code   RO           28    i.LCD_SSD_BackLightSet  lcd.o
    0x08005904   0x08005904   0x000002f0   Code   RO           29    i.LCD_Scan_Dir      lcd.o
    0x08005bf4   0x08005bf4   0x000001a8   Code   RO           30    i.LCD_SetCursor     lcd.o
    0x08005d9c   0x08005d9c   0x00000140   Code   RO           32    i.LCD_ShowChar      lcd.o
    0x08005edc   0x08005edc   0x00000074   Code   RO           33    i.LCD_ShowString    lcd.o
    0x08005f50   0x08005f50   0x0000000c   Code   RO           34    i.LCD_WR_DATA       lcd.o
    0x08005f5c   0x08005f5c   0x0000000c   Code   RO           35    i.LCD_WR_REG        lcd.o
    0x08005f68   0x08005f68   0x00000014   Code   RO           36    i.LCD_WriteRAM_Prepare  lcd.o
    0x08005f7c   0x08005f7c   0x00000014   Code   RO           37    i.LCD_WriteReg      lcd.o
    0x08005f90   0x08005f90   0x00000018   Code   RO           38    i.LCD_handle_init   lcd.o
    0x08005fa8   0x08005fa8   0x000000a4   Code   RO          665    i.MX_FSMC_Init      fsmc.o
    0x0800604c   0x0800604c   0x000001c4   Code   RO          637    i.MX_GPIO_Init      gpio.o
    0x08006210   0x08006210   0x00000038   Code   RO          716    i.MX_USART1_UART_Init  usart.o
    0x08006248   0x08006248   0x00000004   Code   RO          766    i.MemManage_Handler  stm32f4xx_it.o
    0x0800624c   0x0800624c   0x00000008   Code   RO          767    i.NMI_Handler       stm32f4xx_it.o
    0x08006254   0x08006254   0x00000002   Code   RO          768    i.PendSV_Handler    stm32f4xx_it.o
    0x08006256   0x08006256   0x00000002   Code   RO          769    i.SVC_Handler       stm32f4xx_it.o
    0x08006258   0x08006258   0x00000008   Code   RO          770    i.SysTick_Handler   stm32f4xx_it.o
    0x08006260   0x08006260   0x000000b8   Code   RO          585    i.SystemClock_Config  main.o
    0x08006318   0x08006318   0x00000014   Code   RO         2699    i.SystemInit        system_stm32f4xx.o
    0x0800632c   0x0800632c   0x0000066c   Code   RO          534    i.TP_Adjust         touch.o
    0x08006998   0x08006998   0x00000078   Code   RO          536    i.TP_Drow_Touch_Point  touch.o
    0x08006a10   0x08006a10   0x0000022c   Code   RO         2387    i.UART_SetConfig    stm32f4xx_hal_uart.o
    0x08006c3c   0x08006c3c   0x0000006c   Code   RO         2391    i.UART_WaitOnFlagUntilTimeout  stm32f4xx_hal_uart.o
    0x08006ca8   0x08006ca8   0x00000004   Code   RO          771    i.UsageFault_Handler  stm32f4xx_it.o
    0x08006cac   0x08006cac   0x00000020   Code   RO         2824    i.__0printf$2       mc_w.l(printf2.o)
    0x08006ccc   0x08006ccc   0x00000010   Code   RO         1795    i.__NVIC_GetPriorityGrouping  stm32f4xx_hal_cortex.o
    0x08006cdc   0x08006cdc   0x00000028   Code   RO         1796    i.__NVIC_SetPriority  stm32f4xx_hal_cortex.o
    0x08006d04   0x08006d04   0x0000007a   Code   RO         2732    i.__hardfp_sqrt     m_wm.l(sqrt.o)
    0x08006d7e   0x08006d7e   0x0000000e   Code   RO         3077    i.__scatterload_copy  mc_w.l(handlers.o)
    0x08006d8c   0x08006d8c   0x00000002   Code   RO         3078    i.__scatterload_null  mc_w.l(handlers.o)
    0x08006d8e   0x08006d8e   0x0000000e   Code   RO         3079    i.__scatterload_zeroinit  mc_w.l(handlers.o)
    0x08006d9c   0x08006d9c   0x0000000c   Code   RO         3055    i.__set_errno       mc_w.l(errno.o)
    0x08006da8   0x08006da8   0x000000d6   Code   RO         2831    i._printf_core      mc_w.l(printf2.o)
    0x08006e7e   0x08006e7e   0x0000005a   Code   RO           39    i.delayMicroseconds  lcd.o
    0x08006ed8   0x08006ed8   0x00000020   Code   RO          717    i.fputc             usart.o
    0x08006ef8   0x08006ef8   0x00000042   Code   RO          586    i.main              main.o
    0x08006f3a   0x08006f3a   0x00004740   Data   RO           42    .constdata          lcd.o
    0x0800b67a   0x0800b67a   0x00000014   Data   RO          470    .constdata          gt1151.o
    0x0800b68e   0x0800b68e   0x00000002   PAD
    0x0800b690   0x0800b690   0x00000004   Data   RO          537    .constdata          touch.o
    0x0800b694   0x0800b694   0x00000018   Data   RO         2700    .constdata          system_stm32f4xx.o
    0x0800b6ac   0x0800b6ac   0x00000079   Data   RO          538    .conststring        touch.o
    0x0800b725   0x0800b725   0x00000003   PAD
    0x0800b728   0x0800b728   0x00000020   Data   RO         3075    Region$$Table       anon$$obj.o


    Execution Region RW_IRAM2 (Exec base: 0x10000000, Load base: 0x0800b774, Size: 0x00000000, Max: 0x00010000, ABSOLUTE)

    **** No section assigned to this execution region ****


    Execution Region RW_IRAM1 (Exec base: 0x20000000, Load base: 0x0800b748, Size: 0x00000520, Max: 0x00020000, ABSOLUTE)

    Exec Addr    Load Addr    Size         Type   Attr      Idx    E Section Name        Object

    0x20000000   0x0800b748   0x00000008   Data   RW           43    .data               lcd.o
    0x20000008   0x0800b750   0x00000001   Data   RW          471    .data               gt1151.o
    0x20000009   0x0800b751   0x00000001   Data   RW          587    .data               main.o
    0x2000000a   0x0800b752   0x00000002   PAD
    0x2000000c   0x0800b754   0x00000008   Data   RW          667    .data               fsmc.o
    0x20000014   0x0800b75c   0x00000009   Data   RW         1944    .data               stm32f4xx_hal.o
    0x2000001d   0x0800b765   0x00000003   PAD
    0x20000020   0x0800b768   0x00000004   Data   RW         2701    .data               system_stm32f4xx.o
    0x20000024   0x0800b76c   0x00000004   Data   RW         3046    .data               mc_w.l(stdout.o)
    0x20000028   0x0800b770   0x00000004   Data   RW         3056    .data               mc_w.l(errno.o)
    0x2000002c        -       0x0000000e   Zero   RW           41    .bss                lcd.o
    0x2000003a   0x0800b774   0x00000002   PAD
    0x2000003c        -       0x00000050   Zero   RW          469    .bss                gt1151.o
    0x2000008c        -       0x00000050   Zero   RW          666    .bss                fsmc.o
    0x200000dc        -       0x00000044   Zero   RW          718    .bss                usart.o
    0x20000120        -       0x00000400   Zero   RW            1    STACK               startup_stm32f407xx.o


==============================================================================

Image component sizes


      Code (inc. data)   RO Data    RW Data    ZI Data      Debug   Object Name

       712         62          0          0          0     670471   ctiic.o
       382         34          0          8         80       2363   fsmc.o
       452         22          0          0          0       1203   gpio.o
       916         56         20          1         80       7801   gt1151.o
     17388        196      18240          8         14      90844   lcd.o
       280         16          0          1          0       2609   main.o
        36          8        392          0       1024        828   startup_stm32f407xx.o
       212         36          0          9          0       9341   stm32f4xx_hal.o
       304         22          0          0          0      34403   stm32f4xx_hal_cortex.o
       572         50          0          0          0       3382   stm32f4xx_hal_gpio.o
        72          4          0          0          0        842   stm32f4xx_hal_msp.o
      1866         92          0          0          0       7191   stm32f4xx_hal_rcc.o
        88          0          0          0          0       1188   stm32f4xx_hal_sram.o
       988         10          0          0          0       3740   stm32f4xx_hal_uart.o
        48          0          0          0          0       4661   stm32f4xx_it.o
       232         10          0          0          0       2699   stm32f4xx_ll_fsmc.o
        20          6         24          4          0       1111   system_stm32f4xx.o
      1764         80        125          0          0       3274   touch.o
       224         28          0          0         68       2326   usart.o

    ----------------------------------------------------------------------
     26564        732      18838         36       1268     850277   Object Totals
         0          0         32          0          0          0   (incl. Generated)
         8          0          5          5          2          0   (incl. Padding)

    ----------------------------------------------------------------------

      Code (inc. data)   RO Data    RW Data    ZI Data      Debug   Library Member Name

       122          0          0          0          0        148   sqrt.o
         0          0          0          0          0          0   entry.o
         0          0          0          0          0          0   entry10a.o
         0          0          0          0          0          0   entry11a.o
         4          0          0          0          0          0   entry12b.o
         8          4          0          0          0          0   entry2.o
         4          0          0          0          0          0   entry5.o
         0          0          0          0          0          0   entry7b.o
         0          0          0          0          0          0   entry8b.o
         8          4          0          0          0          0   entry9a.o
        12          6          0          4          0         68   errno.o
        30          0          0          0          0          0   handlers.o
        36          8          0          0          0         68   init.o
         0          0          0          0          0          0   iusefp.o
        30          0          0          0          0         68   llshl.o
        32          0          0          0          0         68   llushr.o
        36          0          0          0          0         68   memcpya.o
        36          0          0          0          0        108   memseta.o
       246         10          0          0          0        176   printf2.o
         0          0          0          4          0          0   stdout.o
        28          0          0          0          0         76   strcmp.o
        98          0          0          0          0         92   uldiv.o
        48          0          0          0          0         68   cdcmple.o
        48          0          0          0          0         68   cdrcmple.o
       186          0          0          0          0        176   depilogue.o
        50          0          0          0          0         76   dfixui.o
        26          0          0          0          0         76   dfltui.o
       228          0          0          0          0         96   dmul.o
       162          0          0          0          0        100   dsqrt.o
        38          0          0          0          0         68   f2d.o

    ----------------------------------------------------------------------
      1518         32          0          8          0       1668   Library Totals
         2          0          0          0          0          0   (incl. Padding)

    ----------------------------------------------------------------------

      Code (inc. data)   RO Data    RW Data    ZI Data      Debug   Library Name

       122          0          0          0          0        148   m_wm.l
       608         32          0          8          0        792   mc_w.l
       786          0          0          0          0        728   mf_w.l

    ----------------------------------------------------------------------
      1518         32          0          8          0       1668   Library Totals

    ----------------------------------------------------------------------

==============================================================================


      Code (inc. data)   RO Data    RW Data    ZI Data      Debug   

     28082        764      18838         44       1268     843121   Grand Totals
     28082        764      18838         44       1268     843121   ELF Image Totals
     28082        764      18838         44          0          0   ROM Totals

==============================================================================

    Total RO  Size (Code + RO Data)                46920 (  45.82kB)
    Total RW  Size (RW Data + ZI Data)              1312 (   1.28kB)
    Total ROM Size (Code + RO Data + RW Data)      46964 (  45.86kB)

==============================================================================

