:020000040800F2
:10000000C0040020A1010008BB0E0008D30D0008A9
:10001000B90E0008D102000881100008000000009D
:10002000000000000000000000000000D50F0008E4
:10003000D302000800000000C10E0008D70F00081E
:10004000BB010008BB010008BB010008BB010008A0
:10005000BB010008BB010008BB010008BB01000890
:10006000BB010008BB010008BB010008BB01000880
:10007000BB010008BB010008BB010008BB01000870
:10008000BB010008BB010008BB010008BB01000860
:10009000BB010008BB010008BB010008BB01000850
:1000A000BB010008BB010008BB010008BB01000840
:1000B000BB010008BB010008BB010008BB01000830
:1000C000BB010008BB010008BB010008BB01000820
:1000D000BB010008BB010008BB010008BB01000810
:1000E000BB010008BB010008BB010008BB01000800
:1000F000BB010008BB010008BB010008BB010008F0
:10010000BB010008BB010008BB010008BB010008DF
:10011000BB010008BB010008BB010008BB010008CF
:10012000BB010008BB010008BB010008BB010008BF
:10013000BB010008BB010008BB010008BB010008AF
:10014000BB010008BB010008BB010008BB0100089F
:10015000BB010008BB010008BB010008BB0100088F
:10016000BB010008BB010008BB010008BB0100087F
:10017000BB010008BB010008BB0100080000000033
:10018000BB010008BB010008DFF810D000F08EF8BA
:100190000048004711120008AFF30080C00400209F
:1001A0000648804706480047FEE7FEE7FEE7FEE711
:1001B000FEE7FEE7FEE7FEE7FEE7FEE77110000858
:1001C000890100082DE9F05F0546002092469B4614
:1001D00088460646814640241BE02846414647465D
:1001E000224600F053F853465A46C01A914110D3A4
:1001F00011461846224600F03AF82D1A67EB01081E
:100200004F4622460120002100F031F817EB00098B
:100210004E41201EA4F10104DFDC484631462A4647
:100220004346BDE8F09F40EA01039B0703D009E085
:1002300008C9121F08C0042AFAD203E011F8013BD2
:1002400000F8013B521EF9D27047D2B201E000F82B
:10025000012B491EFBD270470022F6E710B513466A
:100260000A4604461946FFF7F0FF204610BD202A33
:1002700004DB203A00FA02F1002070479140C2F1FD
:10028000200320FA03F3194390407047202A04DB2F
:10029000203A21FA02F00021704721FA02F3D040FF
:1002A000C2F120029140084319467047064C074DA1
:1002B00006E0E06840F0010394E807009847103436
:1002C000AC42F6D3FFF764FF441200086412000842
:1002D000FEE7704772B6FEE72DE9F84FDFF8B8A1E8
:1002E000002201250AF1040B03264FF00F090BF140
:1002F000040E00BF0B6805FA02F42340A3426FD13D
:100300000F7907F00307012F01D0022F16D187685C
:100310004FEA420806FA08FC27EA0C07D1F80CC09D
:100320000CFA08FC4CEA070CC0F808C04768A74361
:100330000C79C4F3001494403C4344600C79E443CA
:10034000A4070AD0C4684FEA420C06FA0CF7BC4373
:100350008F6807FA0CF72743C7600C7904F0030491
:10036000022C12D1D40800EB840CDCF82040570793
:10037000FF0E09FA07F824EA0804D1F8108008FAF9
:1003800007F848EA0408CCF8208004684FEA420CD9
:1003900006FA0CF7BC430F7907F0030707FA0CF7CE
:1003A000274307604C68E40070D53C4C276847F44D
:1003B00080472760246822F0030704F480440094F7
:1003C000374C07EB040CDCF8084897074FEA17781E
:1003D00009FA08F7BC43334FB84202D1002724E0A2
:1003E00054E0314FB84201D101271EE02F4FB842EF
:1003F00001D1022719E02E4FB84201D1032714E0A2
:100400002C4FB84201D104270FE02B4FB84201D145
:1004100005270AE0294FB84201D1062705E0284FF9
:10042000B84201D1072700E0082707FA08F7274359
:10043000CCF80878DAF800405746D1F804C09C435D
:100440005FEACC3C00D51C433C60DBF800405F46D3
:10045000D1F804C09C435FEA8C3C00D51C433C604F
:10046000DEF800407746D1F804C09C435FEACC2C0C
:1004700000D51C433C60084F0C373C68D1F804C0E1
:100480009C435FEA8C2C00D51C433C60521C102A14
:10049000FFF430AFBDE8F88F003C01404438024023
:1004A0000030014000000240000402400008024009
:1004B000000C0240001002400014024000180240EC
:1004C000001C02400AB1816170470904FBE700008B
:1004D00001488068704700000000002002488168E1
:1004E0000278114481607047000000200B4810B56D
:1004F000016841F400710160016841F480610160AC
:10050000016841F480710160032000F061F800206F
:1005100000F006F800F024F8002010BD003C024076
:1005200070B50D4D04464FF47A712878B1FBF0F0A8
:100530000A490968B1FBF0F000F037FC48B9102C0B
:1005400007D200222146501E00F022F800206C60E5
:1005500070BD012070BD0000000000200C000020D4
:100560000A4808B5016841F480410160006800F460
:10057000804000900548001F016841F080510160F3
:10058000006800F08050009008BD00004438024030
:10059000F0B40E4B1B680C46C3F30223C3F10705EE
:1005A000042D00D90425191D072901D2002300E0DC
:1005B000DB1E012606FA05F1491E214099409E40A6
:1005C000761E16403143F0BC00F05BBD0CED00E040
:1005D000064900F0070208684FF6FF03184040EA9A
:1005E0000220034A10430860704700000CED00E051
:1005F0000000FA05704700002DE9F0470E4605009F
:1006000065D0DFF81481D8F80000F7B200F00700D9
:10061000B04207D288F80070D8F8000000F0070058
:10062000B04254D128683D4C810712D5400703D50C
:10063000206840F4E05020602878000703D5206847
:1006400040F4604020602068A96820F0F000084372
:1006500020602878C0072DD0304968680839012803
:1006600012D0022813D0032811D009688907002965
:100670002DDA216821F0030101432160FFF728FFF3
:10068000814641F2883A0EE009688903EFE709687C
:100690008901ECE7FFF71CFFA0EB0901514502D9E6
:1006A0000320BDE8F0872068696800F00C00B0EB1B
:1006B000810FEFD1D8F80010404601F00701B14298
:1006C00007D90770006800F00700B04201D0012090
:1006D000E7E72878400705D52068E96820F4E0506E
:1006E000084320602878000706D52068296920F48F
:1006F000604040EAC100206000F01EF82168084A0E
:10070000C1F30311515CC8400649086006480068FF
:10071000FFF706FF0020C4E7003C02400838024013
:10072000341200080C0000200400002001490120C0
:10073000C864704700004742154810B5006810F0C3
:100740000C02144813D04110042A0FD0082A0ED1ED
:100750000F4C241F2268236802F03F025B0207D57A
:100760002068C0F38810A0FB010106E0084610BD18
:100770002168C1F38811A1FB00010023FFF722FDCE
:100780002168C1F30141491C4900B0FBF1F010BDE3
:10079000083802400024F400054810B5006800063F
:1007A00005D5FFF727FF02498020891C087010BD7E
:1007B0000C3802402DE9F84F04006ED02078DFF8A5
:1007C0004C93C007A9F104054AD009F1040001685F
:1007D000C1F38101012908D00068C0F3810002281B
:1007E0000AD1D9F80000400206D52868800337D521
:1007F00060680028E1D033E06068B0F5803F10D039
:10080000B0F5A02F286810D020F480302860286828
:1008100020F4802028606068A8B1FFF759FE0646E2
:100820000DE0286840F48030F4E740F48020286030
:10083000F7E700BFFFF74CFE801B642873D82868D9
:100840008003F7D50CE0FFF743FE064605E000BF46
:10085000FFF73EFE801B6428F0D828688003F7D499
:100860002078DFF8AC8280074FF0000A3ED5A74819
:10087000001D016811F00C0F08D00068C0F3810062
:1008800002280BD1D9F80000400207D4286880075D
:1008900016D5E068012800D112E033E1E068B8B174
:1008A0000120C8F80000FFF713FE064605E000BF70
:1008B000FFF70EFE801B0228C0D828688007F7D5F6
:1008C0002868216920F0F80040EAC10028600DE0A6
:1008D000C8F800A0FFF7FCFD064604E0FFF7F8FDAE
:1008E000801B02281FD828688007F7D420780007CB
:1008F00022D5864F87486169703771B10121016047
:10090000FFF7E6FD064604E0FFF7E2FD801B022844
:1009100009D838688007F7D50EE0C0F800A0FFF7C7
:10092000D7FD064605E082E0FFF7D2FD801B0228D6
:100930007DD838688007F7D42078400768D5DFF87D
:10094000CCB100270BF13C0BDBF80000C0000BD44E
:10095000DBF8001041F08051CBF80010DBF800000C
:10096000012700F0805000906B4E3068C00510D415
:10097000306840F480703060FFF7AAFD009005E019
:10098000FFF7A6FD0099401A022850D83068C0052C
:10099000F6D55E4EA0686C3601280FD00528306869
:1009A00010D020F001003060306820F0040030608A
:1009B000A068B8B1FFF78CFD00900FE0306840F000
:1009C0000100F4E740F004003060F7E7FFF780FD36
:1009D0000099411A41F28830814266D83068800718
:1009E000F4D50EE0FFF774FD009007E0FFF770FD0F
:1009F0000099411A41F28830814256D83068800708
:100A0000F4D42FB1DBF8001021F08051CBF80010A6
:100A1000A069C8B33D49091D0968C1F381010229D4
:100A20004AD00228504607D0C8F8600000E03CE0F9
:100A3000FFF74EFD04463BE04746C8F86000FFF76D
:100A400047FD064605E000BFFFF742FD801B022878
:100A50002BD828688001F7D4D4E907010843A16A9C
:100A60002E4A490802EB0141626A41EA82110843B9
:100A700094F82C1040EA0161C9F800100120386692
:100A8000FFF726FD044606E03EE000BFFFF720FD2D
:100A9000001B022809D828688001F7D534E000BF80
:100AA000FFF716FD001B022802D90320BDE8F88FCE
:100AB00028688001F4D427E00128F7D0D9F8000095
:100AC000E26900F4800191421CD1226A00F03F01EA
:100AD000914217D147F6C071626A0140B1EB821FA3
:100AE00010D1A26A4FF0FF3300F4403103EB520201
:100AF000B1EB024F06D194F82C1000F07060B0EB0F
:100B0000016F01D00120D1E70020CFE70438024077
:100B100000004742800E4742007000400000FFFF87
:100B200070B5040009D0606A002540B12561656197
:100B3000A56294F8510040B10CE0012070BD6068DE
:100B4000B0F5827FF4D0E561F2E784F8505020469A
:100B500000F044F8022084F851002068016821F078
:100B600040010160A088218900F4827001F40441F1
:100B70000843A18901F400610843217C01F00201CE
:100B80000843217D01F001010843218B01F400712C
:100B90000843217F01F03801084394F8201001F048
:100BA00080010843218D01F4005108432168086049
:100BB000A069042101EA104094F8241001F010010A
:100BC0000843216848602068C16921F40061C1615F
:100BD0006565012084F85100002070BD10B586B015
:100BE000044614216846FFF737FB13492068884202
:100BF00020D112480021026842F48052026000684D
:100C000000F4805005900D481438026842F001024B
:100C10000260006800F001000590A0200090022012
:100C2000CDE90101032003900520049069460448A2
:100C3000FFF752FB06B010BD0030014044380240BF
:100C4000000002402DE9F84F044690F850000027BC
:100C50001D461646894601280DD04FF0010B84F839
:100C600050B0FFF735FC804694F85100BA46012891
:100C700004D0022793E00220BDE8F88FB9F1000FFD
:100C800073D0002E71D0032084F85100C4F854A012
:100C9000C4F83090A686E686C4F838A0A4F83CA034
:100CA000A4F83EA0C4F844A0C4F840A0A068B0F5E1
:100CB000004F09D12068016821F0400101602068DF
:100CC000016841F48041016020680168490603D44D
:100CD000016841F040010160E068B0F5006F6068B4
:100CE00003D030B3012E24D041E008B1012E1CD135
:100CF000206B21680088C86006E020688168890749
:100D000009D5216B0988C160206B801C2063E08EAF
:100D1000401EE08609E0FFF7DBFBA0EB0800A842DD
:100D200002D3681C01D031E07DB3E08E0028E4D10D
:100D300020E0206B21680078087306E02068816855
:100D4000890709D5216B09780173206B401C20634A
:100D5000E08E401EE0860AE0FFF7BAFBA0EB080039
:100D6000A84203D3681C02D010E017E06DB1E08EFA
:100D70000028E3D142462946204600F0A3F808B1F6
:100D800020206065A06818B106E0FFE7032706E0B1
:100D90002068C16880680090606D00B1012784F808
:100DA00051B084F850A0384666E710B5401EB0F147
:100DB000807F01D3012010BD4FF0E02460610F213E
:100DC000601700F05EF90020A0610720206100207C
:100DD00010BDFEE770B586B014216846FFF73CFAF7
:100DE00021480024016841F080010160016801F0A0
:100DF00080010591016841F001010160016801F085
:100E000001010591016841F004010160016801F0F0
:100E100004010591016841F0020101600068134E70
:100E200000F002000590012210213046FFF74AFB36
:100E3000002220213046FFF745FB10200125CDE997
:100E400000050220CDE9024069463046FFF744FA2A
:100E500020200090CDE90154694630460394FFF705
:100E60003BFA06B070BD0000303802400008024076
:100E7000104810B50E4901604FF4827141600021A5
:100E80008160C1604FF400720161C0E90512102257
:100E9000C0E90721416281620A21C162FFF740FE79
:100EA000002803D0BDE81040FFF714BA10BD0000C1
:100EB0000030014068000020FEE7FFF76DFCFEE710
:100EC0007047000038B504461248134B0068B0FB69
:100ED000F3F04FF47A73584300906068B0F5827F66
:100EE0000DD10B46009200228021204600F016F81A
:100EF00070B1606D40F020006065032038BD00983F
:100F000030B1401E009020688068C0430006F6D5CE
:100F1000002038BD0C00002000366E012DE9F8439A
:100F20001E46914688460446089DFFF7D1FA401BAD
:100F3000351AFFF7CDFA074625480068C0F3CB30D5
:100F4000684338E0701C37D0FFF7C2FAC01BA842D4
:100F500003D215B1009860B32CE02068416821F0FD
:100F6000E00141606068B0F5827F0BD1A068B0F508
:100F7000004F02D0B0F5806F04D12068016821F0E5
:100F800040010160A06AB0F5005F09D120680168E6
:100F900021F4005101602068016841F400510160B2
:100FA000012084F85100002084F850000320BDE89F
:100FB000F8830025401E00902068816838EA01000F
:100FC00004D000214945BDD10020F0E70121F9E717
:100FD0000C0000207047FFF781BA000030B593B0D5
:100FE00030216846FFF738F914210CA8FFF734F9CF
:100FF0001D480025016841F080510160006800F043
:10100000805011901948016841F4804101600068E6
:10101000022400F48040119001200090000401900F
:101020008001CDE9064008AA0420A02182E813002F
:101030000B906846FFF7BEFB08B172B6FEE70CA93D
:101040000F2081E831004FF4A0500F904FF48050F2
:10105000109005210CA8FFF7CFFA08B172B6FEE791
:10106000FFF764FB13B030BD403802400070004011
:101070000248016841F470010160704788ED00E0AA
:10108000FEE70907090E002804DB00F1E02080F8E4
:101090000014704700F00F0000F1E02080F8141DEC
:1010A000704702E008C8121F08C1002AFAD1704731
:1010B0007047002001E001C1121F002AFBD17047D8
:1010C00070B50446014636220C48FFF7ACF8E08EB6
:1010D0000A4DE886A06BA863A08FA887E08FE887F9
:1010E000112204F1400105F14000FFF79CF894F84B
:1010F000510085F85100606D686570BD10000020DA
:1011000070B5174C012220212046FFF7DBF905209E
:1011100000F05AF8134D002220212846FFF7D2F99B
:10112000012210212046FFF7CDF900228021284618
:10113000FFF7C8F90C4800F01DF80C4800F01AF849
:1011400040F2B34000F016F847F6C27000F012F813
:10115000074800F00FF86801BDE8704000F00AB8D9
:101160000008024000000240050058003C84EC00EA
:101170001180000838B5010E8DF80010010C8DF8B3
:101180000110010A8DF802108DF8030000222021C1
:101190000A48FFF797F90A4C002210212046FFF772
:1011A00091F93223042269460648FFF74BFD0122DC
:1011B00010212046FFF786F938BD000000000240EC
:1011C000000802401000002030B54FF0E02185B04B
:1011D0008A6901924A69521C08B1012300E0002388
:1011E000C01A50434FF47A73B0FBF3F3019C002014
:1011F00000948C690194DDE90045AC4200D21444AE
:10120000641B204400958342F3D805B030BD000034
:10121000FFF76CF9FFF7E2FEFFF7DCFDFFF728FEB2
:101220000348FFF74DFF4FF4AF70FFF769FFFEE78C
:10123000680000200000000000000000010203041C
:1012400006070809641200080000002010000000D2
:10125000A21000087412000810000020B004000062
:10126000B2100008010000001000000000000000A3
:041270000024F40062
:040000050800018965
:00000001FF
