:020000040800F2
:1000000038060020A1010008CF5D00083D2200084D
:10001000CD5D00083D0A0008CD600008000000002A
:10002000000000000000000000000000D35D000898
:10003000F10A000800000000D15D0008D55D00084D
:10004000BB010008BB010008BB010008BB010008A0
:10005000BB010008BB010008BB010008BB01000890
:10006000BB010008BB010008F30A0008BB0100083F
:10007000BB010008BB010008BB010008BB01000870
:10008000BB010008BB010008BB010008BB01000860
:10009000BB010008BB010008BB010008BB01000850
:1000A000BB010008BB010008BB010008BB01000840
:1000B000655E0008BB010008BB010008BB01000829
:1000C000BB010008BB010008BB010008BB01000820
:1000D000BB010008BB010008BB010008BB01000810
:1000E000BB010008BB010008BB010008BB01000800
:1000F000BB010008BB010008BB010008BB010008F0
:10010000BB010008BB010008BB010008BB010008DF
:10011000BB010008BB010008BB010008BB010008CF
:10012000410A0008BB010008BB010008BB01000830
:10013000BB010008BB010008BB010008BB010008AF
:10014000BB010008BB010008BB010008BB0100089F
:10015000BB010008BB010008BB010008BB0100088F
:10016000BB010008BB010008BB010008BB0100087F
:10017000BB010008BB010008BB010008BB0100086F
:10018000BB010008BB010008DFF810D000F056FBEF
:1001900000480047156A0008AFF3008038060020C9
:1001A0000648804706480047FEE7FEE7FEE7FEE711
:1001B000FEE7FEE7FEE7FEE7FEE7FEE7495E000832
:1001C000890100082DE9F05F0546002092469B4614
:1001D00088460646814640241BE02846414647465D
:1001E000224600F041F953465A46C01A914110D3B5
:1001F00011461846224600F028F92D1A67EB01082F
:100200004F4622460120002100F01FF917EB00099C
:100210004E41201EA4F10104DFDC484631462A4647
:100220004346BDE8F09F40EA01039B0703D009E085
:1002300008C9121F08C0042AFAD203E011F8013BD2
:1002400000F8013B521EF9D27047D2B201E000F82B
:10025000012B491EFBD270470022F6E710B513466A
:100260000A4604461946FFF7F0FF204610BD2DE967
:10027000FE4F81EA030404F0004421F000410094A1
:100280004FF0000B23F0004350EA01045ED052EA25
:1002900003045BD0C3F30A54C1F30A552C44A4F2FF
:1002A000F3340194A0FB0254C1F3130141F4801113
:1002B000C3F3130343F4801301FB024400FB034E1A
:1002C000840A970A44EA815447EA8357A4FB0768E3
:1002D00002958D0A05FB07854FEA932C04FB0C540D
:1002E0002705029D4FEA065847EA1637B5EB080581
:1002F0006EEB070C870E920E47EA811742EA8312D3
:10030000A7FB0201B6EB0B0164EB00042B0D43EAE3
:100310000C335E1844EB1C50DA465146E7FB0201F1
:10032000C5F313044FEA0B3343EA14534FEA043284
:10033000019C43EA0603A4F10C040294009CCDE95D
:1003400000B400F0E7F803B0BDE8F08F00200146EC
:10035000F9E70EB5C10F80EAE0700844CA07002132
:1003600040F233438DE80E000A460B4600F0D2F807
:1003700003B000BD0EB540F2334102910021CDE93A
:1003800000110A460B4600F0C5F803B000BDC1F3EA
:100390000A5210B5C1F3130140F2FF3341F480114A
:1003A0009A4201DA002010BD40F233439A42A2F291
:1003B000334203DC524200F057F810BD904010BDAC
:1003C00000F0004230F000400AD0C10D01F560712C
:1003D000C0F3160042EA0151C208400711437047BA
:1003E00000200146704701F0004330B421F0004185
:1003F00050EA010206D00A0DA2F56072C1F31301A2
:10040000002A02DC30BC00207047440F44EAC104DB
:10041000C100E01830BC00EBC25000F035B830B578
:100420000B46014600202022012409E021FA02F5B2
:100430009D4205D303FA02F5491B04FA02F528444C
:10044000151EA2F10102F1DC30BD202A04DB203AA6
:1004500000FA02F1002070479140C2F1200320FA17
:1004600003F3194390407047202A04DB203A21FA15
:1004700002F00021704721FA02F3D040C2F12002BD
:1004800091400843194670470029A8BF7047401C97
:10049000490008BF20F00100704710B4B0FA80FC9A
:1004A00000FA0CF050EA010404BF10BC704749B1D7
:1004B000CCF1200421FA04F411FA0CF118BF012147
:1004C00021430843A3EB0C01CB1D4FEA00614FEA27
:1004D000102042BF002010BC704700EBC3501044F6
:1004E0000029A4BF10BC7047401C490008BF20F081
:1004F000010010BC704710B5141E73F1000408DA37
:10050000401C41F1000192185B411A4301D120F0D7
:10051000010010BD2DE9F04D92469B4611B1B1FA94
:1005200081F202E0B0FA80F220329046FFF78DFFB0
:1005300004460F4640EA0A0041EA0B0153465A4678
:10054000084313D0114653EA010019D0C8F1400204
:100550005046FFF789FF05460E465046594642462B
:10056000FFF773FF084305D0012004E02046394619
:10057000BDE8F08D0020054346EAE0762C43374382
:100580000A986305E40AA0EB08000022FD0A44EA89
:1005900047540A3002D500200146E9E70105101949
:1005A0006941DDE9084500196941BDE8F04DA2E760
:1005B0002DE9FE4F804681EA0300C00F0C460090F3
:1005C00021F0004123F00045B8EB0200A94105D21B
:1005D0004046214690461C460B46024623F000400A
:1005E000104347D0270DC7F30A00C3F30A51029006
:1005F000401A019040286BDAC3F3130040F4801BCB
:100600000098924620B10023D2EB030A63EB0B0B58
:1006100001985946C0F140025046FFF716FF0646C2
:100620000D4650465946019A00F01AF910EB0800A1
:100630006141002487EA115284EAE7731A4340D0EB
:10064000009A62B3019A012A4FEA075215DC001B97
:1006500061EB02014FF0004202EA0752CDE900428D
:10066000001C41F5801132462B46FFF753FF03B0C3
:10067000BDE8F08F40462146F9E7001B61EB02011F
:10068000001C41F5801300185B412018A2F50017EB
:1006900047EB030140EAD570B6196D4111E06D08D2
:1006A0004FEA360645EAC0754FEA0752001B61EB78
:1006B0000201001C41F5801149084FEA3000001981
:1006C000514132462B4603B0BDE8F04FFFF713BF50
:1006D0000098012240000023D0EB020263EBE0739C
:1006E000009821464FEAE074B8EB000061EB04018A
:1006F000E9E783F000435BE781F0004158E72DE92B
:10070000F04D81EA030404F0004B21F0004514464B
:100710004FF0000A23F0004150EA050220D054EACD
:1007200001021DD0C5F30A570246C5F31303C1F3F6
:100730001300C1F30A5640F4801543F48013A7EB6D
:100740000608101BD64608F2FD3873EB050002D3ED
:1007500008F1010801E092185B41B8F1000F03DADB
:1007600000200146BDE8F08D00204FF480110646C0
:1007700084460EE0171B73EB050705D3121B63EBD2
:10078000050306434CEA010C49084FEA3000921871
:100790005B4150EA0107EDD152EA030012D082EA30
:1007A000040083EA0501084305D0101BAB4106D2C3
:1007B0000122002306E000224FF0004302E06FF028
:1007C000010253101AEB06004CEB085110EB0A0023
:1007D00041EB0B01BDE8F04DFFF78DBEC1F30A52AE
:1007E000C1F3130140F2FF3341F480119A4202DA5F
:1007F00000200146704740F233439A42A2F233424E
:1008000002DC5242FFF730BEFFF71FBE30B5041EB8
:1008100071F1000404DB4FF00044404264EB01013D
:10082000141E73F1000405DB1C464FF000435242D6
:1008300063EB0403994208BF904230BD064C074D5C
:1008400006E0E06840F0010394E8070098471034A0
:10085000AC42F6D3FFF79CFCA4750008C4750008F1
:10086000202A06DBCB17203A41FA02F043EAE07374
:1008700006E041FA02F3D040C2F120029140084361
:100880001946704710B50146806B026C12F0500F8C
:1008900005D0026CD20626D500F044FA10BD016CDA
:1008A00041F40071016401688A6812F0405F17D159
:1008B000027EAAB9CA6A12F4700F02D08A68520581
:1008C0000ED44A6822F020024A60016C21F4807143
:1008D0000164016CC90403D4016C41F0010101649D
:1008E00000F01EFA10BD806BC26CBDE810400846D7
:1008F000104710B5806B40210164416C41F0040148
:10090000416400F00FFA10BD10B5806B00F009FAD9
:1009100010BD0000464910B54A6822F440324A60D2
:100920004A6843681A434A6001684A6822F4807240
:100930004A6001684A68036942EA03224A60016822
:100940004A6822F040724A6001684A6883681A4324
:100950004A6001688A6822F400628A6001688A68D5
:10096000C3681A438A60816A6FF07062D14201687D
:100970008A6822F070628A6001688A680CD0836A93
:100980001A438A6001688A6822F040528A600168CE
:100990008A68C36A1A4301E022F040528A60016803
:1009A0008A6822F002028A6001688A68037E42EA4D
:1009B00043028A6090F82010002901684A680FD02D
:1009C00042F400624A6001684A6822F460424A6068
:1009D00001684A68174C436A04EB43331A4301E049
:1009E00022F400624A600168CA6A22F47002CA6294
:1009F0000168CA6A838B104C04EB03531A43CA6222
:100A000001688A6822F400728A6001688A6890F836
:100A1000303042EA43228A6001688A6822F48062A8
:100A20008A6001688A68406942EA8020886010BD57
:100A30000023014000E0FFFF0000F0FFFEE70000A0
:100A4000014800F07FBA0000700000200168182300
:100A5000CAB2103AB2FBF3F2054B6FF30901032A55
:100A60009B5CC36500D9091D81650846704700007D
:100A70008475000810B5014600208B698A6A4FF022
:100A8000C07453B1B3F5005F15D072B1012A0CD018
:100A9000022A0AD0032A09D104E01AB1012A06D099
:100AA000022A03D1C96AC90100D5012010BDC96A53
:100AB000A142FAD010BD002AF7D0012AF2D0022AB2
:100AC000F3D0032AF3D010BD30B50468256825F4AF
:100AD00080252560046863608368402B036803D029
:100AE00099600068C26030BD9A600068C16030BD26
:100AF0007047102000F000BC7047000070B5B3F5DF
:100B0000804F05D06FF0704140F82210002070BD7A
:100B100050F82240084B8E891C40D1E9003543EA49
:100B200005138D6889692D0245EA06452B430B4361
:100B3000234340F82230E9E70000F0CFF0B50C681D
:100B400050F82430114A1340D1E90125D1E9036757
:100B50002A433E4332434E6932438E693243CE6963
:100B600032430E6A32434E6A32438E6A3243CE6A51
:100B70003243CE6B096B32430A431A43082D01D12D
:100B800042F0400240F824200020F0BD8000F0FF39
:100B900030B500EB820250688D8900F04043D1E906
:100BA000000440EA04108C68240244EA054420430F
:100BB0000C8A074D05EB045420430C7D6D0105EBB9
:100BC000046489692043084318435060002030BD05
:100BD0000000F0FF78B50024009490F83C20012A32
:100BE00019D0012280F83C200A6807230568092AE9
:100BF00013D9EE680A3A02EB420293409E43EE603C
:100C00000B788A680A3B03EB43039A400368DD686C
:100C10002A43DA6010E0022078BD2E6902EB42021E
:100C200093409E432E610B788A6803EB43039A40FE
:100C300003681D692A431A614A681F23072A13D2D1
:100C400005686E6B521E02EB820293409E436E63F8
:100C50000B790A885B1E92B203EB83039A40036808
:100C60005D6B2A435A6327E005680D2A12D22E6B6A
:100C7000D21F02EB820293409E432E630B790A88B7
:100C8000DB1F92B203EB83039A4003681D6B2A4378
:100C90001A6311E0EE6A0D3A02EB820293409E4322
:100CA000EE620B790A880D3B92B203EB83039A4004
:100CB0000368DD6A2A43DA62164B0568144A9D42CE
:100CC00006D10D68122D03D1556845F48005556095
:100CD00005689D4218D10B68102B01D0112B13D140
:100CE000536843F400035360096810290CD10A4982
:100CF0000A4A0968B1FBF2F101EB8101490000E009
:100D0000491E00910029FBD180F83C40002078BDAD
:100D100000230140002001401400002040420F0049
:100D200070477047704770B504004FF0000503D05E
:100D3000206C002610B107E0012070BD204600F0B5
:100D40001DF8666484F83C60206CC00610D4206CEA
:100D500020F4885040F0020020642046FFF7DAFDBE
:100D60006664206C20F0020040F00100206400E086
:100D7000012584F83C60284670BD000070B586B03F
:100D8000064614216846FFF767FA1D493068884215
:100D900034D11C480025016841F48071016000686D
:100DA00000F48070059017481438016841F0010183
:100DB00001600068694600F0010005900220009083
:100DC0000320CDE90105104800F0A2FA104C0F48AD
:100DD000C4E900050015A560C4E903508000606106
:100DE0008000A0618011C4E907052046656200F01B
:100DF00079F908B1FFF780FEB463A66306B070BD51
:100E000000200140443802400000024010640240CB
:100E100070000020F8B50E4600210446009190F8BD
:100E20003C00012807D0012084F83C00206883683A
:100E3000DB0702D011E00220F8BD836843F0010314
:100E400083603748374B0068B0FBF3F000EB40009D
:100E500000E0401E00900028FBD120688368DB077B
:100E60005CD0236C40F20165AB4343F48073236490
:100E70004068400505D5206C20F4005040F48050B7
:100E80002064206CC00404D5606C20F0060060640F
:100E900000E0616484F83C10A16B2448224DC863D3
:100EA000A16B23480864A16B2248C86421686FF0D5
:100EB000220008602068416841F08061416020683C
:100EC000816841F4807181602168134632464C315B
:100ED000A06B00F071F968681749C006206806D059
:100EE00088421BD1816811F0405F13D016E0884220
:100EF000F8D0124A904203D1D1F80423D206F1D09F
:100F00000F4A90420AD1D1F8041301F01F011029B1
:100F1000E8D303E0816841F0804181600020F8BDA2
:100F20001400002040420F00002301408508000803
:100F300009090008F30800080020014000210140D1
:100F4000002201402DE9F84304464FF00009CDF896
:100F5000009063484FF41651A56D0068B0FBF1F79F
:100F60002E6894F85C10082000FA01F131420FD08D
:100F700021680A6852070BD50A6822F004020A6049
:100F800094F85C108840A860606D40F001006065D6
:100F900094F85C104FF0010808FA01F0304208D0D4
:100FA00021684969090604D5A860606D40F0020017
:100FB000606594F85C1004208840304208D02168B5
:100FC0000968890704D5A860606D40F00400606579
:100FD00094F85C1010208840304218D021680968CD
:100FE000090714D5A86020680168490304D5006882
:100FF000000308D5A16C07E00168C90503D40168A6
:1010000021F008010160216C09B12046884794F85D
:101010005C1020208840304231D021680968C90620
:101020002DD5A86094F8350005282068016806D001
:10103000490347D5006800031DD4616C1CE021F012
:10104000160101602068416921F080014161206C36
:1010500008B9A06C20B12068016821F00801016086
:1010600094F85C103F208840A86084F8349084F89D
:101070003580216D1FE0E16B09B120468847606D26
:1010800000282BD0606DC00714D0052084F83500EF
:101090002068016821F0010101600098401C009067
:1010A000B84203D820680068C007F6D184F83490AD
:1010B00084F83580E16C002910D001B02046BDE8ED
:1010C000F04308470168C905D5D4016821F0100133
:1010D000016084F8349084F83580CCE7BDE8F8836B
:1010E000140000202DE9F041044600F0F3F9064613
:1010F0005CB1002584F83450022084F83500206863
:10110000016821F0010101600DE00120BDE8F081DE
:1011100000F0E0F9801B052805D920206065032038
:1011200084F83500F2E720680068C007F0D1226833
:10113000116820480140D4E901031843D4E903367B
:101140003343184363691843A3691843E369184399
:10115000236A18430843616A042903D1D4E90B13B5
:1011600019430843106020684069666A20F007014F
:1011700030460E43012704280CD1A06A0643E06ADA
:1011800040B12046FFF776FC20B14020606584F82E
:101190003570BAE7206846612046FFF757FC94F89F
:1011A0005C203F2191408160656584F835700020A6
:1011B000ACE700003F8010F02DE9F0410446866D59
:1011C00090F83400002501280DD0012084F8340067
:1011D00094F835700020012F07D084F834000225E0
:1011E0002846BDE8F0810220FBE7022784F835702D
:1011F00060652046FFF768FC94F85C103F2088404B
:10120000B0602068016841F016010160206C20B1D7
:101210002068016841F0080101602068016841F020
:1012200001010160DCE7000070B5044600F052F9EE
:101230000546601C02D004480078044400F04AF9D6
:10124000401BA042FAD370BD080000202DE9F041F8
:1012500086B014216846FEF7FFFF20480168002988
:1012600039D1012101601E480024016841F00101CB
:10127000016000684FF4805800F001000C27CDF8A1
:101280000080CDE90470032602250396CDE90154C0
:101290006946144800F03CF84FF68070CDE900052F
:1012A00002AA694682E8D0000F4800F031F84CF2FB
:1012B0003370CDE9000502AA694682E8D0000B48E8
:1012C00000F026F802AA694682E8D000CDE9008540
:1012D000074800F01DF806B0BDE8F08100000020CE
:1012E000383802400014024000100240000C024056
:1012F0000018024070470000044910B50A68024215
:1013000002D00860FFF7F6FF10BD0000143C01405A
:101310002DE9F84F00224FF0010803254FF00F0E82
:101320000B6808FA02F42340A3426ED14E68012EE6
:1013300005D0022E03D0112E01D0122E12D18668B4
:101340004FEA420C05FA0CF7BE43CF6807FA0CF7D8
:10135000374387604668A6430C79C4F30014944071
:1013600034434460C668570005FA07FC8C6826EAD7
:101370000C06BC403443C4604C68022C01D0122CD3
:1013800013D1D40800EB8404A346D4F8209054076A
:101390004FEAD46A0EFA0AF629EA06090E6906FA35
:1013A0000AF646EA0906CBF8206006680C7926EAB8
:1013B0000C0604F00304BC40344304604C68E400B1
:1013C00065D5364C266846F480462660246822F0AF
:1013D000030604F480440094314C3444A446D4F809
:1013E00008489607370F0EFA07F6B4432D4EB04261
:1013F00001D1002624E02C4EB04201D101261FE08D
:101400002A4EB04202D102261AE040E0284EB042F5
:1014100001D1032614E0274EB04201D104260FE08B
:10142000254EB04201D105260AE0244EB04201D13A
:10143000062605E0224EB04201D1072600E008262C
:10144000BE402643CCF808681E4E34684F689C4363
:10145000FF0300D51C4334601A4C241D26684F68D6
:101460009E43BF0300D51E432660164E08363468DF
:101470004F689C43FF0200D51C433460114E0C366C
:1014800034684F689C43BF0200D51C433460521C33
:10149000102AFFF445AFBDE8F88F00004438024041
:1014A00000300140000002400004024000080240F9
:1014B000000C0240001002400014024000180240DC
:1014C000001C0240003C01400AB1816170470904E0
:1014D000FBE700000148806870470000080000201A
:1014E00070B5040025D094F83D00002520B984F89B
:1014F0003C50204600F0B8F8242084F83D002068D5
:10150000016821F0010101602068016841F4004197
:1015100001602068016821F40041016000F00CFACC
:101520004D4A6168914201D84C4900E04C498842DB
:1015300001D2012070BD4B492368B0FBF1F15E6818
:1015400026F03F060E435E606368934206D94FF46F
:10155000967359434FF47A73B1FBF3F12368491C36
:101560001E6A26F03F06314319626168914210D825
:101570004900401EB0FBF1F2521CC2F30B02042AD8
:1015800001D2042022E0B0FBF1F0401CC0F30B00BC
:101590001CE0A268F2B301EBC10303EB0116431E8A
:1015A000B3FBF6F35B1C43F480431B0549D092B3B5
:1015B00001EBC10202EB0111401EB0FBF1F0401C37
:1015C000C0F30B0040F4804040F400402168CA6939
:1015D0004CF6FF739A431043C861D4E907100143E6
:1015E0002068026822F0C00211430160D4E90301BF
:1015F00001432068826848F2FF339A4311438160B7
:10160000D4E9050108432168CA6822F0FF021043AB
:10161000C86001E00EE016E02068016841F00101B9
:1016200001602564202084F83D00256384F83E5045
:10163000002070BD01EB4106431EB3FBF6F35B1CBB
:10164000B3E70120C2E701EB4101401EB0FBF1F01E
:10165000401CC0F30B00B7E7A086010080841E0089
:1016600000093D0040420F0010B586B00446142129
:101670006846FEF7F1FD13492068884220D11248E0
:10168000016841F0020101600068694600F0020053
:101690000590C020009012200190012002900320AC
:1016A0000390042004900948FFF732FE06481030EA
:1016B000016841F400110160006800F40010059019
:1016C00006B010BD00540040303802400004024013
:1016D0000248816802781144816070470800002048
:1016E0000B4810B5016841F400710160016841F4D4
:1016F00080610160016841F480710160032000F0A5
:101700006FF8002000F006F800F024F8002010BD6B
:10171000003C024070B50D4D04464FF47A712878B4
:10172000B1FBF0F00A490968B1FBF0F000F031FBC1
:1017300048B9102C07D200222146501E00F030F884
:1017400000206C6070BD012070BD0000080000200A
:10175000140000200A4808B5016841F48041016086
:10176000006800F4804000900548001F016841F0C7
:1017700080510160006800F08050009008BD0000BA
:1017800044380240002809DB00F01F02012191408B
:101790004009800000F1E020C0F80011704700000F
:1017A000F0B40E4B1B680C46C3F30223C3F10705CC
:1017B000042D00D90425191D072901D2002300E0BA
:1017C000DB1E012606FA05F1491E214099409E4084
:1017D000761E16403143F0BC04F08EBC0CED00E0E8
:1017E000064900F0070208684FF6FF03184040EA78
:1017F0000220034A10430860704700000CED00E02F
:101800000000FA052DE9F0470E46050065D0DFF827
:101810001481D8F80000F7B200F00F00B04207D2F0
:1018200088F80070D8F8000000F00F00B04254D1E2
:1018300028683D4C810712D5400703D5206840F445
:10184000E05020602878000703D5206840F460400D
:1018500020602068A96820F0F00008432060287804
:10186000C0072DD0304968680839012812D00228F5
:1018700013D0032811D00968890700292DDA2168BF
:1018800021F0030101432160FFF724FE814641F26C
:10189000883A0EE009688903EFE709688901ECE7F7
:1018A000FFF718FEA0EB0901514502D90320BDE85E
:1018B000F0872068696800F00C00B0EB810FEFD171
:1018C000D8F80010404601F00F01B14207D9077067
:1018D000006800F00F00B04201D00120E7E728784F
:1018E000400705D52068E96820F4E05008432060EF
:1018F0002878000706D52068296920F4604040EA6E
:10190000C100206000F038F82168084AC1F30311D3
:10191000515CC8400649086006480068FFF7FAFEB7
:101920000020C4E7003C0240083802408C750008E3
:10193000140000200C0000200448054900680968D4
:10194000044AC1F38221515CC84070471400002052
:10195000083802409C750008044805490068096879
:10196000044AC1F34231515CC84070471400002062
:10197000083802409C750008154810B5006810F042
:101980000C02144813D01449042A0FD0082A0ED18F
:101990000F4C241F2268236802F03F025B0207D528
:1019A0002068C0F38810A0FB010106E0084610BDC6
:1019B0002168C1F38811A1FB00010023FEF702FC9E
:1019C0002168C1F30141491C4900B0FBF1F010BD91
:1019D000083802400024F40040787D012DE9F84FDA
:1019E00004006ED02078DFF83C93C007A9F104050D
:1019F0004AD009F104000168C1F38101012908D02E
:101A00000068C0F3810002280AD1D9F80000400222
:101A100006D52868800337D560680028E1D033E018
:101A20006068B0F5803F10D0B0F5A02F286810D0C6
:101A300020F480302860286820F4802028606068C6
:101A4000A8B1FFF747FD06460DE0286840F4803056
:101A5000F4E740F480202860F7E700BFFFF73AFD85
:101A6000801B642873D828688003F7D50CE0FFF743
:101A700031FD064605E000BFFFF72CFD801B642802
:101A8000F0D828688003F7D42078DFF89C8280079C
:101A90004FF0000A3ED5A348001D016811F00C0F5D
:101AA00008D00068C0F3810002280BD1D9F80000EB
:101AB000400207D42868800716D5E068012800D1C5
:101AC00012E02BE1E068B8B10120C8F80000FFF790
:101AD00001FD064605E000BFFFF7FCFC801B022865
:101AE000C0D828688007F7D52868216920F0F80059
:101AF00040EAC10028600DE0C8F800A0FFF7EAFC4A
:101B0000064604E0FFF7E6FC801B02281FD8286881
:101B10008007F7D42078000722D5824E8348616978
:101B2000703671B101210160FFF7D4FC074604E073
:101B3000FFF7D0FCC01B022809D830688007F7D512
:101B40000EE0C0F800A0FFF7C5FC074605E082E004
:101B5000FFF7C0FCC01B02287DD830688007F7D48F
:101B60002078400768D5DFF8BCB100270BF13C0BAB
:101B7000DBF80000C0000BD4DBF8001041F080510E
:101B8000CBF80010DBF80000012700F08050009037
:101B9000674E3068C00510D4306840F48070306003
:101BA000FFF798FC009005E0FFF794FC0099401ABD
:101BB000022850D83068C005F6D55A4EA0686C3659
:101BC00001280FD00528306810D020F001003060C7
:101BD000306820F004003060A068B8B1FFF77AFCEC
:101BE00000900FE0306840F00100F4E740F004009E
:101BF0003060F7E7FFF76EFC0099411A41F2883038
:101C0000814266D830688007F4D50EE0FFF762FCA9
:101C1000009007E0FFF75EFC0099411A41F288301E
:101C2000814256D830688007F4D42FB1DBF8001019
:101C300021F08051CBF80010A069C8B33949091DC3
:101C40000968C1F3810102294AD00228504607D011
:101C5000C8F8600000E03CE0FFF73CFC04463BE0D5
:101C60004746C8F86000FFF735FC064605E000BFB0
:101C7000FFF730FC801B02282BD828688001F7D49E
:101C8000D4E907010843A16A2A4A490802EB014145
:101C9000626A41EA8211084394F82C1040EA01611B
:101CA000C9F8001001203866FFF714FC044606E06E
:101CB00036E000BFFFF70EFC001B022809D8286899
:101CC0008001F7D52CE000BFFFF704FC001B0228C1
:101CD00002D90320BDE8F88F28688001F4D41FE002
:101CE0000128F7D0D9F80000E26900F480019142A0
:101CF00014D1226A00F03F0191420FD147F6C07122
:101D0000626A0140914209D1A26A00F440319142D5
:101D100004D1E16A00F07060884201D00120D9E767
:101D20000020D7E70438024000004742800E4742B7
:101D3000007000400000FFFF70B515460E4604001D
:101D400003D094F8490010B107E0012070BD0020D5
:101D500084F84800204600F01AF804F108012068D1
:101D6000FEF7ECFE3146A2682068FEF711FFD4E9C9
:101D700001022946236BFEF7C1FEA168206850F8D6
:101D8000212042F0010240F82120002070BDFFF721
:101D90005DBA10B5401EB0F1807F01D3012010BDA7
:101DA0004FF0E02460610F21601704F0A5F90020D6
:101DB000A06107202061002010BD7047704700001F
:101DC00070B590F83C20012A32D0012480F83C40C4
:101DD000022280F83D2003685A689D6822F0700650
:101DE0000A6832435A60134B02689A4214D0B2F127
:101DF000804F11D0104B9A420ED0104B9A420BD00C
:101E00000F4B9A4208D00F4B9A4205D00E4B9A4284
:101E100002D00E4B9A4204D1496825F08003194341
:101E2000916080F83D40002180F83C10084670BD6C
:101E3000022070BD00000140000400400008004086
:101E4000000C004000040140004001400018004028
:101E500010B5040003D094F83D0010B107E0012054
:101E600010BD002084F83C00204600F00DF8022050
:101E700084F83D00211D206803F0FAFF012084F85A
:101E80003D00002010BD000008B50068B0F1804F93
:101E900012D10A48016841F0010101600068002286
:101EA00000F00100009001211C20FFF779FCBDE843
:101EB00008401C20FFF766BC08BD00004038024007
:101EC0000168CA6842F00102CA600068816801F0D6
:101ED0000701062903D0016841F0010101600020DB
:101EE000704770B5044690F83C00012817D00125D2
:101EF00084F83C50022084F83D002068826822F07B
:101F0000770222F47F4282600868502830D00DDCCE
:101F100020284DD005DC98B310283BD148E00220A2
:101F200070BD302844D0402834D139E0602828D012
:101F3000702806D0B0F5805F2CD0B0F5005F29D1B5
:101F40000AE0CB68D1E90121206803F0F5FF2068A1
:101F5000816841F0770109E0CB68D1E9012120686F
:101F600003F0EAFF2068816841F48041816011E05C
:101F7000CA684968206803F0F1FF5021206807E033
:101F800016E0CA684968206803F0F9FF60212068FC
:101F900003F0DCFF84F83D50002084F83C0070BD65
:101FA000CA684968206803F0D9FF40212068EFE73C
:101FB000226801461046EBE7704770B5044600689A
:101FC00001694FF00005C943890715D4C168C943A9
:101FD000890711D4E91E01610120207720688069FA
:101FE0008007204602D0FFF7E7FF04E000F098F8F2
:101FF000204600F096F8257720680169C943490713
:1020000017D4C168C943490713D46FF004010161B3
:10201000022020772068806910F4407F204602D09B
:10202000FFF7CAFF04E000F07BF8204600F079F8E3
:10203000257720680169C943090716D4C168C943D7
:10204000090712D46FF0080101610420207720688D
:10205000C0698007204602D0FFF7AEFF04E000F021
:102060005FF8204600F05DF8257720680169C943D4
:10207000C90617D4C168C943C90613D46FF010014B
:102080000161082020772068C06910F4407F204655
:1020900002D0FFF791FF04E000F042F8204600F084
:1020A00040F8257720680169C943C90708D1C1688C
:1020B000C943C90704D1891E0161204600F032F8E6
:1020C00020680169C943090609D4C168C9430906E2
:1020D00005D46FF0800101612046FFF76EFE206895
:1020E0000169C943490609D4C168C943490605D4F1
:1020F0006FF040010161204600F015F82068016989
:10210000C94389060BD4C168C943890607D46FF057
:10211000200101612046BDE87040FFF74FBE70BD51
:10212000704770477047704770B5040004D094F84A
:102130003900002510B106E0012070BD84F8385048
:10214000204600F023F8242084F839002068C16874
:1021500021F40051C160204603F024FF206801698A
:1021600021F4904101612068416921F02A01416117
:102170002068C16841F40051C160E563202084F803
:10218000390084F83A00002070BD000070B586B0B8
:10219000044614216846FEF75FF8234E22680021AA
:1021A0002248022303240725B2421AD11F4A1432BF
:1021B000166846F010061660126802F010020592CA
:1021C000026842F001020260006802AA00F0010009
:1021D000059082E832006002CDE9000369461448A8
:1021E0001DE0144EB2421CD1104A1032166846F45B
:1021F00080261660126802F480220592026842F07E
:1022000002020260006802AA00F00200059082E863
:1022100032004FF44060CDE9000369460648FFF7FD
:1022200077F806B070BD0000001001403038024061
:10223000000002400048004000040240FEE70000A9
:1022400070B50A490646002408884D882146454352
:10225000204603F0C9FA03F0DBFB4FF0D84002E060
:10226000A0F88060641CAC42FAD370BD1800002056
:102270002DE9F05F4A492A242B25898845F2105A16
:102280004FF4305B4FF4285E4FF448764FF0F00C7B
:1022900049F241394FF4A07345F210374FF4F07210
:1022A00080B13F484FF00108494580F8068003801F
:1022B000A0F802C001D0B9423ED12C26068144814B
:1022C000858157E036484FF00008494580F8068080
:1022D000A0F800C0438006D0A1F5D04CBCF1040C9E
:1022E00001D0B9420CD12C2606814481A1F5D044FD
:1022F0008581043C01D0B94244D10380428041E051
:10230000514507D1A0F808B0A0F80AE04FF42C51CD
:1023100081810EE0A1F5C853633B06D022210181E3
:1023200020214181212181812CE02C2101814581C5
:1023300084810280468025E0A1F5D04CBCF1040CDC
:1023400009D051450BD1A0F808B0A0F80AE04FF42D
:102350002C54848121E02C260681458109E0A1F5D9
:10236000C85CBCF1630C12D0222404812124448176
:1023700020248481A1F5D044043C01D0B94201D18C
:1023800002804380BDE8F05F002003F05DB94FF0AC
:102390002C0CA0F808C04481858106804280E9E7C2
:1023A000180000202DE9F047DFF8DC809246424615
:1023B0000C46B8F804500B0A9189060A5289A5F513
:1023C00013474FF0D849413F19D0A5F5A647103F14
:1023D00015D0A5F5AA47103F16D04746A5F5C85C0D
:1023E000BE793F883F1A7F1EBCF1630C19D0A5F55A
:1023F000D04CBCF1040C25D0012E32D032E04D4639
:1024000025F87E2F6E8025E04D4625F87E2F6E80C4
:10241000521C2A80C0B2688029806B80491C2980A8
:102420001CE006B9B8B24D4625F87E2F020A6A8034
:10243000C6B26E806A80C0B2688029806B80E0B2CC
:1024400068800AE0012E00D1B8B24D4625F87E2FF3
:10245000020A6A80C0B2688029806B80E0B268801E
:1024600009E0B8B20146104603F0DCFAB8F80C00F7
:10247000214603F0D7FA4846B8F8081020F87E1F26
:10248000A0F802A0BDE8F087180000202DE9F04771
:102490008146A2EB0900401C1E4685B20C464FF057
:1024A000D848089F10E02146484603F09DF903F004
:1024B000AFFA0020414603E0A1F88070401C80B2D2
:1024C000A842F9D3641CA4B2B442ECD9BDE8F087A9
:1024D0002DE9F05F3220FEF7A7FE0121002003F076
:1024E000A1FA3220FEF7A0FE4FF0D8440020A4F855
:1024F0007E000A2004F06AFA03F07CF8FE4D4FF0EB
:10250000204B49F24137A88045F2103845F2105669
:1025100041F6631946F6040AFF2806D3A0F57F4169
:10252000FF3902D0B0F5134F7CD1D320A4F87E0040
:1025300003F060F8A88003F05DF8A88003F05AF873
:102540004FF6FF7101EA0020A88003F053F8A98834
:102550000843A880B84265D0BF20A4F87E0003F0ED
:1025600049F8A88003F046F8A88003F043F8A88053
:1025700003F040F84FF6FF7101EA0020A88003F055
:1025800039F8A9880843A88050454BD0D420A4F836
:102590007E0003F02FF8A88003F02CF8A88003F049
:1025A00029F84FF6FF7101EA0020A88003F022F815
:1025B000A9880843A880404534D04FF45A4024F8F5
:1025C0007E0F03F017F8A8804FF45B40208003F0E3
:1025D00011F84FF6FF7101EA0020A8804FF45C402B
:1025E00024F87E0903F006F8A9880843A880B0F50E
:1025F000004F3BD0B04215D0A120A4F87E0002F0DD
:10260000F9FFA88002F0F6FF4FF6FF7101EA002003
:10261000A88002F0EFFFA9880843A0F5AE41A8808A
:10262000613920D080B2B84205D0404503D0B042D5
:1026300001D048451CD1DBF81C11584621F00F0190
:10264000CBF81C11DBF81C1121F47061CBF81C11C4
:10265000DBF81C1141F00301CBF81C11DBF81C1155
:1026600041F4007121E0A5F80490E4E7AE80E2E7D0
:10267000504503D0A0F54541053918D1DBF81C11B0
:10268000584621F00F01CBF81C11DBF81C1121F486
:102690007061CBF81C11DBF81C1141F00A01CBF87A
:1026A0001C11DBF81C1141F44061C0F81C11A88812
:1026B000B8427DD1CF2024F87E0F00206080C12059
:1026C000608030206080ED202080642060800320C6
:1026D00060801220608081206080E820208085203A
:1026E0006080102060807A206080CB20208039209C
:1026F00060802C2060800020608034206080022078
:102700006080F720208020206080EA202080002048
:1027100060806080C02020801B206080C1202080DD
:1027200001206080C5202080302060806080C7202C
:102730002080B720608036202080482060803A20AA
:10274000208055206080B1202080002060801A20E9
:102750006080B62020800A206080A2206080F22065
:102760002080002060802620208001206080E020E2
:1027700020800F2060802A20608028206080082030
:1027800060800E2060800820608054206080A92036
:102790006080432060800A2060800F2060800020DD
:1027A0006080608060806080E1202080002000E008
:1027B0002FE06080152060801720608007206080F7
:1027C00011206080062060802B2060805620608071
:1027D0003C20608005206080102060800F20608099
:1027E0003F20608060800F2060802B2020800020B0
:1027F00060806080012060803F2060802A202080EF
:102800000020608060806080EF2060801120208048
:102810006DE0504575D1112024F87E0F1420FEF78D
:1028200003FDD020208007206080422060801D2092
:102830006080D1202080002060801A2060800920E4
:102840006080D22020800120608022206080C02013
:102850002080102060803B2060800020608002206B
:10286000608011206080C520208003206080C82007
:10287000208000206080252060802120608005204D
:102880006080002060800A206080652060802520B4
:10289000608077206080502060800F206080002062
:1028A0006080F820208001206080FE2020800020B1
:1028B0006080022060802020208036202080082038
:1028C00060803A202080552060802B2020800020CE
:1028D00060806080012060803F2060802A2020800E
:1028E00000206080608001206080DF206080782090
:1028F000FEF79AFC292002E01800002001E001F018
:10290000D0BD40457DD1ED20A4F87E000120A4F883
:102910008000FE20A4F88000EE20A4F87E00DE20D7
:10292000A4F880002120A4F88000F120A4F87E0003
:102930000120A4F88000DF20A4F87E001020A4F875
:102940008000C420A4F87E008F20A4F88000C62058
:10295000A4F87E000020A4F88000E220A4F8800003
:10296000A4F88000A4F88000BF20A4F87E00AA206C
:10297000A4F88000B020A4F87E000D20A4F8800008
:102980000020A4F880000D20A4F880000020A4F806
:1029900080001120A4F880000020A4F880001920F5
:1029A000A4F880000020A4F880002120A4F8800072
:1029B0000020A4F880002D20A4F880000020A4F8B6
:1029C00080003D20A4F880000020A4F880005D2055
:1029D000A4F880000020A4F880005D20A4F8800006
:1029E0000020A4F88000B120A4F87E008020A4F884
:1029F00080000020A4F880008B20A4F88000002034
:102A000000E0FDE3A4F880009620A4F880000020F8
:102A1000A4F88000B220A4F87E000020A4F8800072
:102A2000A4F880000220A4F880000020A4F8800010
:102A30000320A4F880000020A4F88000B320A4F8AC
:102A40007E000020A4F88000A4F88000A4F8800094
:102A5000A4F88000A4F88000A4F88000A4F8800006
:102A6000A4F88000A4F88000A4F88000A4F88000F6
:102A7000A4F88000A4F88000A4F88000A4F88000E6
:102A8000A4F88000A4F88000A4F88000A4F88000D6
:102A9000A4F88000A4F88000A4F88000A4F88000C6
:102AA000A4F88000B420A4F87E008B20A4F8800055
:102AB0000020A4F880009620A4F880000020A4F84C
:102AC0008000A120A4F880000020A4F88000B52098
:102AD000A4F87E000220A4F880000020A4F8800062
:102AE0000320A4F880000020A4F880000420A4F8AB
:102AF00080000020A4F88000B620A4F87E0000200A
:102B0000A4F88000A4F88000B720A4F87E0000207C
:102B1000A4F88000A4F880003F20A4F880000020E2
:102B2000A4F880005E20A4F880000020A4F88000B3
:102B30006420A4F880000020A4F880008C20A4F871
:102B400080000020A4F88000AC20A4F880000020C1
:102B5000A4F88000DC20A4F880000020A4F8800005
:102B60007020A4F880000020A4F880009020A4F831
:102B700080000020A4F88000EB20A4F88000002052
:102B8000A4F88000DC20A4F880000020A4F88000D5
:102B9000B820A4F87E000020A4F88000A4F88000EB
:102BA000A4F88000A4F88000A4F88000A4F88000B5
:102BB000A4F88000A4F88000BA20A4F87E002420A5
:102BC000A4F880000020A4F88000A4F88000A4F8F5
:102BD0008000C120A4F87E002020A4F880000020FE
:102BE000A4F880005420A4F880000020A4F88000FD
:102BF000FF20A4F880000020A4F88000C220A4F8E0
:102C00007E000A20A4F880000020A4F880000420A0
:102C1000A4F880000020A4F88000C320A4F87E005F
:102C20003C20A4F880000020A4F880003A20A4F8FA
:102C300080000020A4F880003920A4F88000002043
:102C4000A4F880003720A4F880000020A4F88000B9
:102C50003C20A4F880000020A4F880003620A4F8CE
:102C600080000020A4F880003220A4F8800000201A
:102C7000A4F880002F20A4F880000020A4F8800091
:102C80002C20A4F880000020A4F880002920A4F8BB
:102C900080000020A4F880002620A4F880000020F6
:102CA000A4F880002420A4F880000020A4F880006C
:102CB0002420A4F880000020A4F880002320A4F899
:102CC00080000020A4F880003C20A4F880000020B0
:102CD000A4F880003620A4F880000020A4F880002A
:102CE0003220A4F880000020A4F880002F20A4F84F
:102CF00080000020A4F880002C20A4F88000002090
:102D0000A4F880002920A4F880000020A4F8800006
:102D10002620A4F880000020A4F880002420A4F835
:102D200080000020A4F880002420A4F88000002067
:102D3000A4F880002320A4F880000020A4F88000DC
:102D4000C420A4F87E006220A4F880000020A4F82B
:102D500080000520A4F880000020A4F880008420D2
:102D6000A4F880000020A4F88000F020A4F88000DF
:102D70000020A4F880001820A4F880000020A4F807
:102D80008000A420A4F880000020A4F8800018206F
:102D9000A4F880000020A4F880005020A4F880004F
:102DA0000020A4F880000C20A4F880000020A4F8E3
:102DB00080001720A4F880000020A4F8800095204F
:102DC000A4F880000020A4F88000F320A4F880007C
:102DD0000020A4F88000E620A4F880000020A4F8D9
:102DE0008000C520A4F87E003220A4F880000020D6
:102DF000A4F880004420A4F880000020A4F88000FB
:102E00006520A4F880000020A4F880007620A4F8B3
:102E100080000020A4F880008820A4F88000002012
:102E2000A4F88000C620A4F87E002020A4F880002A
:102E30000020A4F880001720A4F880000020A4F847
:102E400080000120A4F880000020A4F88000C720A2
:102E5000A4F87E000020A4F88000A4F88000A4F864
:102E60008000A4F88000C820A4F87E000020A4F808
:102E70008000A4F88000A4F88000A4F88000C92095
:102E8000A4F87E000020A4F88000A4F88000A4F834
:102E90008000A4F88000A4F88000A4F88000A4F8C2
:102EA0008000A4F88000A4F88000A4F88000A4F8B2
:102EB0008000A4F88000A4F88000A4F88000A4F8A2
:102EC0008000A4F88000E020A4F87E001620A4F87A
:102ED00080000020A4F880001C20A4F880000020BE
:102EE000A4F880002120A4F880000020A4F880002D
:102EF0003620A4F880000020A4F880004620A4F822
:102F000080000020A4F880005220A4F88000002057
:102F1000A4F880006420A4F880000020A4F88000B9
:102F20007A20A4F880000020A4F880008B20A4F868
:102F300080000020A4F880009920A4F880000020E0
:102F4000A4F88000A820A4F880000020A4F8800045
:102F5000B920A4F880000020A4F88000C420A4F8C0
:102F600080000020A4F88000CA20A4F8800000207F
:102F7000A4F88000D220A4F880000020A4F88000EB
:102F8000D920A4F880000020A4F88000E020A4F854
:102F900080000020A4F88000F320A4F88000002026
:102FA000A4F88000E120A4F87E001620A4F8800098
:102FB0000020A4F880001C20A4F880000020A4F8C1
:102FC00080002220A4F880000020A4F88000362091
:102FD000A4F880000020A4F880004520A4F8800018
:102FE0000020A4F880005220A4F880000020A4F85B
:102FF00080006420A4F880000020A4F880007A20DB
:10300000A4F880000020A4F880008B20A4F88000A1
:103010000020A4F880009920A4F880000020A4F8E3
:103020008000A820A4F880000020A4F88000B92027
:10303000A4F880000020A4F88000C420A4F8800038
:103040000020A4F88000CA20A4F880000020A4F882
:103050008000D220A4F880000020A4F88000D820AE
:10306000A4F880000020A4F88000E020A4F88000EC
:103070000020A4F88000F320A4F880000020A4F829
:103080008000E220A4F87E000520A4F88000002043
:10309000A4F880000B20A4F880000020A4F8800091
:1030A0001B20A4F880000020A4F880003420A4F89D
:1030B00080000020A4F880004420A4F880000020B4
:1030C000A4F880004F20A4F880000020A4F880001D
:1030D0006120A4F880000020A4F880007920A4F8E2
:1030E00080000020A4F880008820A4F88000002040
:1030F000A4F880009720A4F880000020A4F88000A5
:10310000A620A4F880000020A4F88000B720A4F82E
:1031100080000020A4F88000C220A4F880000020D5
:10312000A4F88000C720A4F880000020A4F8800044
:10313000D120A4F880000020A4F88000D620A4F8B4
:1031400080000020A4F88000DD20A4F8800000208A
:10315000A4F88000F320A4F880000020A4F88000E8
:10316000E320A4F87E000520A4F880000020A4F845
:1031700080000A20A4F880000020A4F880001C2011
:10318000A4F880000020A4F880003320A4F8800078
:103190000020A4F880004420A4F880000020A4F8B7
:1031A00080005020A4F880000020A4F88000622055
:1031B000A4F880000020A4F880007820A4F8800003
:1031C0000020A4F880008820A4F880000020A4F843
:1031D00080009720A4F880000020A4F88000A6209A
:1031E000A4F880000020A4F88000B720A4F8800094
:1031F0000020A4F88000C220A4F88000002000E095
:10320000CFE1A4F88000C720A4F880000020A4F833
:103210008000D120A4F880000020A4F88000D520F0
:10322000A4F880000020A4F88000DD20A4F880002D
:103230000020A4F88000F320A4F880000020A4F867
:103240008000E420A4F87E000120A4F88000002083
:10325000A4F880000120A4F88000002024F8800F4A
:10326000022024F80209002060802A2060800020CB
:1032700060803C206080002060804B2060800020C7
:1032800060805D206080002060807420608000206D
:103290006080842060800020608093206080002017
:1032A0006080A220608000206080B32060800020C9
:1032B0006080BE20608000206080C420608000208C
:1032C0006080CD20608000206080D320608000205E
:1032D0006080DD20608000206080F320608000201E
:1032E0006080E520208000206080608060806080B9
:1032F00002206080002060802920608000206080A3
:103300003C206080002060804B2060800020608036
:103310005D206080002060807420608000206080DC
:103320008420608000206080932060800020608086
:10333000A220608000206080B32060800020608038
:10334000BE20608000206080C420608000206080FB
:10335000CD20608000206080D320608000206080CD
:10336000DC20608000206080F3206080002060808E
:10337000E620208011206080002060803420608062
:103380000020608056206080002060807620608071
:103390000020608077206080002060806620608050
:1033A00000206080882060800020608099206080FC
:1033B00000206080BB2060800020608099206080B9
:1033C0000020608066206080002060805520608042
:1033D0000020608055206080002060804520608053
:1033E0000020608043206080002060804420608056
:1033F00000206080E72020803220608000206080F4
:1034000055206080002060807620608000206080F1
:1034100066206080002060806720608000206080DF
:1034200067206080002060808720608000206080AE
:103430009920608000206080BB2060800020608038
:10344000992060800020608077206080002060806C
:1034500044206080002060805620608000206080D2
:103460002320608000206080332060800020608006
:103470004520608000206080E8202080002060805F
:10348000608099206080002060808720608000201C
:10349000608088206080002060807720608000202D
:1034A000608066206080002060808820608000202E
:1034B0006080AA20608000206080BB2060800020A7
:1034C00060809920608000206080662060800020FD
:1034D0006080552060800020608055206080002042
:1034E0006080442060800020608044206080002054
:1034F00060805520608000206080E9202080AA2024
:10350000608000206080608060802080AA206080D1
:10351000CF2020800020608060806080608060809C
:10352000608060806080608060806080608060809B
:103530006080608060806080F0202080002060805B
:10354000502060800020608060806080F3202080B8
:1035500000206080F920208006206080102060809C
:1035600029206080002060803A20208055206080E3
:10357000112020806420FDF757FE2920208035206F
:1035800020800020608051202080FF206080532018
:1035900020802C20608055202080822060802C207C
:1035A000FEE3B0427ED14FF470455521284602F02B
:1035B00039FA6E1CAA21304602F034FAAF1C5221AF
:1035C000384602F02FFA4FF203080821404602F075
:1035D00029FA4FF204090121484602F023FA0D218D
:1035E0004FF4304002F01EFA0D214BF2010002F0C0
:1035F00019FA0D214BF2020002F014FA4FF4364A88
:103600003421504602F00EFA34214BF2016002F0F0
:1036100009FA34214BF2026002F004FA4FF4314B04
:103620000D21584602F0FEF90D214BF2011002F077
:10363000F9F90D214BF2021002F0F4F934214FF4A4
:10364000374002F0EFF934214BF2017002F0EAF951
:1036500034214BF2027002F0E5F900214FF43240C0
:1036600002F0E0F900214BF2012002F0DBF9002129
:103670004BF2022002F0D6F924214FF4384002F038
:10368000D1F924214BF6010002F0CCF924214BF6AC
:10369000020002F0C7F901214FF43F4002F0C2F9E5
:1036A0000F2100E0FEE34FF4334002F0BBF90F219D
:1036B0004BF2013002F0B6F90F214BF2023002F06A
:1036C000B1F934214FF4394002F0ACF934214BF612
:1036D000011002F0A7F934214BF6021002F0A2F912
:1036E00008214FF4354002F09DF908214BF20150BA
:1036F00002F098F908214BF2025002F093F90321ED
:103700004FF4424002F08EF924214FF43A4002F087
:1037100089F924214BF6012002F084F924214BF68B
:10372000022002F07FF900214FF43C4002F07AF9C8
:1037300078214BF6014002F075F900214BF602406A
:1037400002F070F900214FF43D4002F06BF978214E
:103750004BF6015002F066F900214BF6025002F0E0
:1037600061F900214FF43E4002F05CF964214BF610
:10377000016002F057F900214FF4514002F052F974
:1037800033214DF2011002F04DF900214DF20210EB
:1037900002F048F934214DF2031002F043F9002100
:1037A0004DF2041002F03EF93A214DF2051002F0FC
:1037B00039F900214DF2061002F034F94A214DF298
:1037C000071002F02FF900214DF2081002F02AF93B
:1037D0005C214DF2091002F025F900214DF20A108A
:1037E00002F020F981214DF20B1002F01BF90021AB
:1037F0004DF20C1002F016F9A6214DF20D1002F058
:1038000011F900214DF20E1002F00CF9E5214DF2F4
:103810000F1002F007F901214DF2101002F002F929
:1038200013214DF2111002F0FDF801214DF212109A
:1038300002F0F8F854214DF2131002F0F3F80121D0
:103840004DF2141002F0EEF882214DF2151002F044
:10385000E9F801214DF2161002F0E4F8CA214DF208
:10386000171002F0DFF802214DF2181002F0DAF81A
:1038700000214DF2191002F0D5F802214DF21A1074
:1038800002F0D0F801214DF21B1002F0CBF802211A
:103890004DF21C1002F0C6F834214DF21D1002F05A
:1038A000C1F802214DF21E1002F0BCF867214DF262
:1038B0001F1002F0B7F802214DF2201002F0B2F80A
:1038C00084214DF2211002F0ADF802214DF22210B8
:1038D00002F0A8F8A4214DF2231002F0A3F802216F
:1038E0004DF2241002F09EF8B7214DF2251002F09F
:1038F00099F802214DF2261002F094F8CF214DF2F2
:10390000271002F08FF802214DF2281002F08AF8F9
:10391000DE214DF2291002F085F802214DF22A1025
:1039200002F080F8F2214DF22B1002F07BF8022118
:103930004DF22C1002F076F8FE214DF22D1002F01F
:1039400071F803214DF22E1002F06CF810214DF2A7
:103950002F1002F067F803214DF2301002F062F8E8
:1039600033214DF2311002F05DF803214DF2321097
:1039700002F058F86D214DF2331002F053F8002197
:103980004FF4524002F04EF833214DF2012002F084
:1039900049F800214DF2022002F044F834214DF2A2
:1039A000032002F03FF800214DF2042002F03AF823
:1039B0003A214DF2052002F035F800214DF20620A3
:1039C00002F030F84A214DF2072002F02BF80021D6
:1039D0004DF2082002F026F85C214DF2092002F099
:1039E00021F800214DF20A2002F01CF881214DF24D
:1039F0000B2002F017F800214DF20C2002F012F813
:103A0000A6214DF20D2002F00DF800214DF20E20FE
:103A100002F008F8E5214DF20F2002F003F8012131
:103A20004DF2102001F0FEFF13214DF2112001F0A4
:103A3000F9FF01214DF2122001F0F4FF54214DF263
:103A4000132001F0EFFF01214DF2142001F0EAFFF5
:103A500082214DF2152001F0E5FF01214DF21620E3
:103A600001F0E0FFCA214DF2172001F0DBFF022137
:103A70004DF2182001F0D6FF00214DF2192001F07F
:103A8000D1FF02214DF21A2001F0CCFF01214DF2AD
:103A90001B2001F0C7FF02214DF21C2001F0C2FFE4
:103AA00034214DF21D2001F0BDFF02214DF21E20F8
:103AB00001F0B8FF67214DF21F2001F0B3FF022192
:103AC0004DF2202001F0AEFF84214DF2212001F0C3
:103AD000A9FF02214DF2222001F0A4FFA4214DF202
:103AE000232001F09FFF02214DF2242001F09AFFD4
:103AF000B7214DF2252001F095FF02214DF226203D
:103B000001F090FFCF214DF2272001F08BFF022121
:103B10004DF2282001F086FFDE214DF2292001F030
:103B200081FF02214DF22A2001F07CFFF2214DF2AB
:103B30002B2001F077FF02214DF22C2001F072FFC3
:103B4000FE214DF22D2001F06DFF03214DF22E20BC
:103B500001F068FF10214DF22F2001F063FF0321D7
:103B60004DF2302001F05EFF33214DF2312001F0A3
:103B700059FF03214DF2322001F054FF6D214DF227
:103B8000332001F04FFF00214FF4534001F04AFF72
:103B900033214DF2013001F045FF00214DF202309A
:103BA00001F040FF34214DF2033001F03BFF0021D2
:103BB0004DF2043001F036FF3A214DF2053001F0AC
:103BC00031FF00214DF2063001F02CFF4A214DF269
:103BD000073001F027FF00214DF2083001F022FFED
:103BE0005C214DF2093001F01DFF00214DF20A3039
:103BF00001F018FF81214DF20B3001F013FF00217D
:103C00004DF20C3001F00EFFA6214DF20D3001F007
:103C100009FF00214DF20E3001F004FFE5214DF2C5
:103C20000F3001F0FFFE01214DF2103001F0FAFEDD
:103C300013214DF2113001F0F5FE01214DF2123049
:103C400001F0F0FE54214DF2133001F0EBFE0121A2
:103C50004DF2143001F0E6FE82214DF2153001F0F4
:103C6000E1FE01214DF2163001F0DCFECA214DF2D9
:103C7000173001F0D7FE02214DF2183001F0D2FECC
:103C800000214DF2193001F0CDFE02214DF21A3023
:103C900001F0C8FE01214DF21B3001F0C3FE0221EC
:103CA0004DF21C3001F0BEFE34214DF21D3001F00A
:103CB000B9FE02214DF21E3001F0B4FE67214DF233
:103CC0001F3001F0AFFE02214DF2203001F0AAFEBC
:103CD00084214DF2213001F0A5FE02214DF2223067
:103CE00001F0A0FEA4214DF2233001F09BFE022141
:103CF0004DF2243001F096FEB7214DF2253001F04F
:103D000091FE02214DF2263001F08CFECF214DF2C2
:103D1000273001F087FE02214DF2283001F082FEAB
:103D2000DE214DF2293001F07DFE02214DF22A30D4
:103D300001F078FEF2214DF22B3001F073FE0221EA
:103D40004DF22C3001F06EFEFE214DF22D3001F0CF
:103D500069FE03214DF22E3001F064FE10214DF278
:103D60002F3001F05FFE03214DF2303001F05AFE9A
:103D700033214DF2313001F055FE03214DF2323046
:103D800001F050FE6D214DF2333001F04BFE002169
:103D90004FF4544001F046FE33214DF2014000E063
:103DA0007FE301F03FFE00214DF2024001F03AFEB8
:103DB00034214DF2034001F035FE00214DF2044064
:103DC00001F030FE3A214DF2054001F02BFE0021BA
:103DD0004DF2064001F026FE4A214DF2074001F067
:103DE00021FE00214DF2084001F01CFE5C214DF245
:103DF000094001F017FE00214DF20A4001F012FEC9
:103E000081214DF20B4001F00DFE00214DF20C40DE
:103E100001F008FEA6214DF20D4001F003FE002145
:103E20004DF20E4001F0FEFDE5214DF20F4001F094
:103E3000F9FD01214DF2104001F0F4FD13214DF286
:103E4000114001F0EFFD01214DF2124001F0EAFDB9
:103E500054214DF2134001F0E5FD01214DF21440D3
:103E600001F0E0FD82214DF2154001F0DBFD012162
:103E70004DF2164001F0D6FDCA214DF2174001F077
:103E8000D1FD02214DF2184001F0CCFD00214DF290
:103E9000194001F0C7FD02214DF21A4001F0C2FDA8
:103EA000012100E0FFE24DF21B4001F0BBFD0221C9
:103EB0004DF21C4001F0B6FD34214DF21D4001F0E1
:103EC000B1FD02214DF21E4001F0ACFD67214DF223
:103ED0001F4001F0A7FD02214DF2204001F0A2FD9C
:103EE00084214DF2214001F09DFD02214DF222403E
:103EF00001F098FDA4214DF2234001F093FD022131
:103F00004DF2244001F08EFDB7214DF2254001F025
:103F100089FD02214DF2264001F084FDCF214DF2B2
:103F2000274001F07FFD02214DF2284001F07AFD8B
:103F3000DE214DF2294001F075FD02214DF22A40AB
:103F400001F070FDF2214DF22B4001F06BFD0221DA
:103F50004DF22C4001F066FDFE214DF22D4001F0A6
:103F600061FD03214DF22E4001F05CFD10214DF268
:103F70002F4001F057FD03214DF2304001F052FD7A
:103F800033214DF2314001F04DFD03214DF232401D
:103F900001F048FD6D214DF2334001F043FD002159
:103FA0004FF4554001F03EFD33214DF2015001F038
:103FB00039FD00214DF2025001F034FD34214DF263
:103FC000035001F02FFD00214DF2045001F02AFDB5
:103FD0003A214DF2055001F025FD00214DF2065029
:103FE00001F020FD4A214DF2075001F01BFD002198
:103FF0004DF2085001F016FD5C214DF2095001F020
:1040000011FD00214DF20A5001F00CFD81214DF20D
:104010000B5001F007FD00214DF20C5001F002FDA4
:10402000A6214DF20D5001F0FDFC00214DF20E5085
:1040300001F0F8FCE5214DF20F5001F0F3FC0121F5
:104040004DF2105001F0EEFC13214DF2115001F031
:10405000E9FC01214DF2125001F0E4FC54214DF233
:10406000135001F0DFFC01214DF2145001F0DAFC95
:1040700082214DF2155001F0D5FC01214DF2165070
:1040800001F0D0FCCA214DF2175001F0CBFC022107
:104090004DF2185001F0C6FC00214DF2195001F00C
:1040A000C1FC02214DF21A5001F0BCFC01214DF27D
:1040B0001B5001F0B7FC02214DF21C5001F0B2FC84
:1040C00034214DF21D5001F0ADFC02214DF21E5085
:1040D00001F0A8FC67214DF21F5001F0A3FC022162
:1040E0004DF2205001F09EFC84214DF2215001F050
:1040F00099FC02214DF2225001F094FCA4214DF2D2
:10410000235001F08FFC02214DF2245001F08AFC73
:10411000B7214DF2255001F085FC02214DF22650C9
:1041200001F080FCCF214DF2275001F07BFC0221F1
:104130004DF2285001F076FCDE214DF2295001F0BD
:1041400071FC02214DF22A5001F06CFCF2214DF27B
:104150002B5001F067FC02214DF22C5001F062FC63
:10416000FE214DF22D5001F05DFC03214DF22E5049
:1041700001F058FC10214DF22F5001F053FC0321A7
:104180004DF2305001F04EFC33214DF2315001F030
:1041900049FC03214DF2325001F044FC6D214DF2F7
:1041A000335001F03FFC00214FF4564001F03AFC3F
:1041B00033214DF2016001F035FC00214DF2026027
:1041C00001F030FC34214DF2036001F02BFC0021A2
:1041D0004DF2046001F026FC3A214DF2056001F039
:1041E00021FC00214DF2066001F01CFC4A214DF239
:1041F000076001F017FC00214DF2086001F012FC8D
:104200005C214DF2096001F00DFC00214DF20A60C5
:1042100001F008FC81214DF20B6001F003FC00214C
:104220004DF20C6001F0FEFBA6214DF20D6001F095
:10423000F9FB00214DF20E6001F0F4FBE5214DF297
:104240000F6001F0EFFB01214DF2106001F0EAFB7D
:1042500013214DF2116001F0E5FB01214DF21260D6
:1042600001F0E0FB54214DF2136001F0DBFB012172
:104270004DF2146001F0D6FB82214DF2156001F081
:10428000D1FB01214DF2166001F0CCFBCA214DF2A9
:10429000176001F0C7FB02214DF2186001F0C2FB6C
:1042A00000214DF2196001F0BDFB02214DF21A60B0
:1042B00001F0B8FB01214DF21B6001F0B3FB0221BC
:1042C0004DF21C6001F0AEFB34214DF21D6001F097
:1042D000A9FB02214DF21E6001F0A4FB67214DF203
:1042E0001F6001F09FFB02214DF2206001F09AFB5C
:1042F00084214DF2216001F095FB02214DF22260F4
:1043000001F090FBA4214DF2236001F08BFB022110
:104310004DF2246001F086FBB7214DF2256001F0DB
:1043200081FB02214DF2266001F07CFBCF214DF292
:10433000276001F077FB02214DF2286001F072FB4B
:10434000DE214DF2296001F06DFB02214DF22A6061
:1043500001F068FBF2214DF22B6001F063FB0221BA
:104360004DF22C6001F05EFBFE214DF22D6001F05C
:1043700059FB03214DF22E6001F054FB10214DF248
:104380002F6001F04FFB03214DF2306001F04AFB3A
:1043900033214DF2316001F045FB03214DF23260D3
:1043A00001F040FB6D214DF2336001F03BFB5521E4
:1043B000284601F037FBAA21304601F033FB522199
:1043C000384601F02FFB0821404601F02BFB00216D
:1043D000484601F027FBCC21584601F023FB002181
:1043E0004BF2011001F01EFB0521504601F01AFBB3
:1043F00070214FF4374001F015FB70214BF2017032
:1044000001F010FB01214FF4384001F00BFB0321B8
:104410004BF6010001F006FB03214BF6020001F010
:1044200001FB03214BF6030001F0FCFA02214FF4DB
:104430003C4001F0F7FA00214BF6014001F0F2FA9E
:1044400000214BF6024001F0EDFAD0214FF4494033
:1044500001F0E8FA02214CF6011001F0E3FA5021D4
:104460004CF6021001F0DEFA50214CF6031001F078
:10447000D9FA50214CF6041001F0D4FA00214FF47F
:10448000545001F0CFFA55214FF4685001F0CAFAA8
:104490004FF4885024F87E0F782002F097FA4FF4FA
:1044A00024502080C1E0A0F513414FF480754FF4F3
:1044B000E06A40F2022740F23F1B4FF427482539BB
:1044C0007ED0A0F5134140F20776283979D0A0F5C7
:1044D00013414FF48878203974D0A0F51341313955
:1044E00071D0A0F5A84108396ED0A0F5A8514FF4BD
:1044F0004078053969D0A0F53541053966D0A0F579
:10450000454105397ED0A0F58A4131397BD0A0F5EF
:104510008A41353978D0484577D1E22024F87E0F9A
:104520001D2060800220608004206080642002F0F2
:104530004DFAE0202080012060800A20FCF774FE04
:10454000E0202080032060800C20FCF76DFE01201D
:1045500020800A20FCF768FEE62020802F20608063
:10456000FF2060806080B0202080202060800020BC
:1045700060800320608040F21F30608001206080F6
:1045800040F2DF10608000206080B4202080042092
:10459000608040F21F406080002060802E2060809C
:1045A00000206080608060806080B62020800220D3
:1045B00060804FF40370608000206080172006E068
:1045C00040E00AE1C5E16CE241E3DCE3FEE3608048
:1045D00015206080002060806080F0202080032013
:1045E000608029202080D020208000206080BE2094
:1045F000208005206080FE206080012060800020F7
:10460000608003E0FEE3FEE3FEE30EE06080608096
:10461000B82020800320608001206080BA202080A4
:1046200001206080642000F0EFFF0120FDF720FEF4
:104630000122D103FE48FCF747FFBDE8F05F0020F0
:10464000FDF7FEBD47F6F001E52001F0EBF9294644
:10465000012001F0E7F95146022001F0E3F941F2AF
:104660003001032001F0DEF90021042001F0DAF925
:104670003946082001F0D6F90021092001F0D2F9CD
:1046800000210A2001F0CEF900210C2001F0CAF926
:1046900000210D2001F0C6F900210F2001F0C2F920
:1046A0000021102001F0BEF90721112001F0BAF914
:1046B0000021122001F0B6F90021132001F0B2F917
:1046C0000021072001F0AEF941F29061102001F0C5
:1046D000A9F940F22721112001F0A4F99D2112200F
:1046E00001F0A0F94FF4C851132001F09BF92521E6
:1046F000292001F097F90D212B2001F093F90721D2
:10470000302001F08FF940F20331312001F08AF9B5
:104710000321322001F086F940F20621352001F014
:1047200081F90821362001F07DF940F20641372059
:1047300001F078F94FF44171382001F073F9072145
:10474000392001F06FF940F202613C2001F06AF972
:1047500008213D2001F066F90021502001F062F9A6
:10476000EF21512001F05EF90021522001F05AF9A9
:104770005946532001F056F94146602001F052F9A4
:104780000121612001F04EF900216A2001F04AF96F
:104790000021802001F046F90021812001F042F93A
:1047A0000021822001F03EF90021832001F03AF936
:1047B0000021842001F036F90021852001F032F932
:1047C0001021902001F02EF94FF4C061922001F0E9
:1047D00029F940F233110720FDE341F28F01EC206B
:1047E00001F020F941F23421EF2001F01BF92946B4
:1047F000012001F017F95146022001F013F941F2AE
:104800003001032001F00EF90021042001F00AF923
:104810003946082001F006F90021092001F002F9CB
:1048200000210A2001F0FEF801210C2001F0FAF825
:1048300000210D2001F0F6F800210F2001F0F2F820
:104840000021102001F0EEF80721112001F0EAF814
:104850000021122001F0E6F80021132001F0E2F817
:104860000121072001F0DEF83220FCF7DDFC41F2E7
:104870009041102001F0D6F840F22721112001F0DC
:10488000D1F83220FCF7D0FC8A21122001F0CAF8BE
:104890003220FCF7C9FC4FF4D051132001F0C2F8CC
:1048A0000621292001F0BEF80D212B2001F0BAF8D5
:1048B0003220FCF7B9FC0021202001F0B3F80021E0
:1048C000212001F0AFF83220FCF7AEFC00213020AF
:1048D00001F0A8F840F20461312001F0A3F840F2A1
:1048E0000531322001F09EF80021352001F09AF8C0
:1048F00040F60941362001F095F84FF40171372058
:1049000001F090F840F20131382001F08BF8314687
:10491000392001F087F800213C2001F083F840F6AF
:104920000A213D2001F07EF83220FCF77DFC0021B9
:10493000502001F077F8EF21512001F073F80021A9
:10494000522001F06FF85946532001F06BF84146B0
:1049500052E10021084601F065F82946012001F0E6
:1049600061F85146022001F05DF841F23001032068
:1049700001F058F80021042001F054F839460820CD
:1049800001F050F80021092001F04CF800210A2024
:1049900001F048F801210C2001F044F800210D201D
:1049A00001F040F800210F2001F03CF83220FCF724
:1049B0003BFC40F20111072001F034F83220FCF7F3
:1049C00033FC4FF48651102001F02CF80721112000
:1049D00001F028F844464146122001F023F84FF434
:1049E0003061132001F01EF80021292001F01AF88F
:1049F00044F210012B2001F015F80021502001F0A5
:104A000011F8EF21512001F00DF80021522001F0A2
:104A100009F85946532001F005F84FF41C51602065
:104A200001F000F80121612000F0FCFF002101E00D
:104A3000000402406A2000F0F5FF0021802000F011
:104A4000F1FF0021812000F0EDFF0021822000F025
:104A5000E9FF0021832000F0E5FF0021842000F021
:104A6000E1FF0021852000F0DDFF1021902000F003
:104A7000D9FF0021922000F0D5FF0121932000F002
:104A8000D1FF2146952000F0CDFF0021972000F0B6
:104A9000C9FF0021982000F0C5FF40F273110720E4
:104AA0007FE341F21401E72000F0BCFF294601201A
:104AB00000F0B8FF4FF40071022000F0B3FF41F2A4
:104AC0003801032000F0AEFF3946082000F0AAFFAD
:104AD0000021092000F0A6FF00210A2000F0A2FF1B
:104AE00000210C2000F09EFF00210D2000F09AFF15
:104AF00000210F2000F096FF0021102000F092FF0F
:104B00000721112000F08EFF0021122000F08AFF03
:104B10000021132000F086FFC820FCF785FB41F23E
:104B20009061102000F07EFF40F22721112000F05C
:104B300079FF3220FCF778FB0C21122000F072FF85
:104B40003220FCF771FB4FF40061132000F06AFF84
:104B50001121292000F066FF0B212B2000F062FFBD
:104B60003220FCF761FB0021202000F05BFF5C4657
:104B70005946212000F056FF0021302000F052FF5E
:104B80004FF483752946312000F04CFF002132207C
:104B900000F048FF4FF40171352000F043FF41F26F
:104BA0000A61362000F03EFF3146372000F03AFF20
:104BB0002946382000F036FF3146392000F032FF18
:104BC00040F202413C2000F02DFF40F60F413D2015
:104BD00000F028FF0021502000F024FFEF21512099
:104BE00000F020FF0021522000F01CFF214653203E
:104BF00000F018FF4FF41C51602000F013FF01215A
:104C0000612000F00FFF00216A2000F00BFF00215F
:104C1000802000F007FF0021812000F003FF002129
:104C2000822000F0FFFE0021832000F0FBFE002127
:104C3000842000F0F7FE0021852000F0F3FE102113
:104C4000902000F0EFFE4FF4C0619220FDE3294672
:104C5000012000F0E7FE5146022000F0E3FE41F2A1
:104C60003001032000F0DEFE0021042000F0DAFE17
:104C700040F20721082000F0D5FE0021092000F0B5
:104C8000D1FE00210A2000F0CDFE00210C2000F012
:104C9000C9FE00210D2000F0C5FE00210F2000F00C
:104CA000C1FE1420FCF7C0FA41F2B061102000F000
:104CB000B9FE0121112000F0B5FE0121172000F0FE
:104CC000B1FE4FF49C71122000F0ACFE4FF4006175
:104CD000132000F0A7FE0921292000F0A3FE0921DE
:104CE0002A2000F09FFE0021A42000F09BFE00215E
:104CF000502000F097FEEF21512000F093FE00219C
:104D0000522000F08FFE5946532000F08BFE4FF4E6
:104D10001C51602000F086FE0121612000F082FE1F
:104D200000216A2000F07EFE0021802000F07AFE43
:104D30000021812000F076FE0021822000F072FE2A
:104D40000021832000F06EFE0021842000F06AFE26
:104D50000021852000F066FE1321902000F062FE05
:104D60000021922000F05EFE0321932000F05AFE05
:104D70004146952000F056FE40F27311072000F0E6
:104D800051FE32200DE10021072000F04BFE3220C1
:104D9000FCF74AFA4FF48E71122000F043FE012115
:104DA000A42000F03FFE0F21082000F03BFE082168
:104DB0000A2000F037FE08210D2000F033FE3146B6
:104DC000302000F02FFE0721312000E0EDE000F060
:104DD00029FE40F20361322000F024FE5446514681
:104DE000332000F01FFE3946342000F01BFE022164
:104DF000352000F017FE41F60F71362000F012FE4C
:104E0000314602E0CEE196E24CE3372000F00AFEA4
:104E10000021382000F006FE0021392000F002FEBB
:104E200031463A2000F0FEFD00213B2000F0FAFD63
:104E300007213C2000F0F6FD00213D2000F0F2FDAE
:104E40003220FCF7F1F90121072000F0EBFD0121F0
:104E5000172000F0E7FD3220FCF7E6F94FF4BD51D2
:104E6000102000F0DFFD40F21721112000F0DAFDE4
:104E70004FF48F71122000F0D5FD4FF470611320B4
:104E800000F0D0FD00212A2000F0CCFD0A212920CD
:104E900000F0C8FD4FF49F71122000F0C3FD002107
:104EA000502000F0BFFDEF21512000F0BBFD00219C
:104EB000522000F0B7FD5946532000F0B3FD4FF4E7
:104EC0001C51602000F0AEFD0121612000F0AAFD20
:104ED00000216A2000F0A6FD0021802000F0A2FD44
:104EE0000021812000F09EFD0021822000F09AFD2B
:104EF0000021832000F096FD0021842000F092FD27
:104F00000021852000F08EFD1321902000F08AFD05
:104F10004146922000F086FD0521932000F082FD9D
:104F20000021952000F07EFD0021972000F07AFD01
:104F30000021982000F076FD2946012000F072FD46
:104F40002146022000F06EFD41F23801032000F0FE
:104F500069FD0021042000F065FD00210C2000F017
:104F600061FD00210F2000F05DFD0021202000F0F8
:104F700059FD0021212000F055FD2121072000F0DE
:104F800051FD1420FCF750F96121072000F04AFD83
:104F90001420FCF749F940F27311072000F042FD9C
:104FA0001420FCF741F9FFF740BB0021084600F050
:104FB00039FD0021084600F035FD0021084600F0CB
:104FC00031FD0021084600F02DFD0121A42000F054
:104FD00029FD142000E0E0E0FCF726F94FF41C5412
:104FE0002146602000F01EFD3946082000F01AFD21
:104FF0004FF40571302000F015FD43F2157131209A
:1050000000F010FD40F20461322000F00BFD40F68C
:105010001661332000F006FD42F21121342000F029
:1050200001FD4FF4A851352000F0FCFC48F2075177
:10503000362000F0F7FC41F20741372000F0F2FC87
:1050400041F20341382000F0EDFC2021392000F02E
:10505000E9FC1A21902000F0E5FC0021102000F06E
:10506000E1FC0721112000F0DDFC0021122000F0FE
:10507000D9FC0021132000F0D5FC1420FCF7D4F853
:105080004FF4E661102000F0CDFC40F23711112002
:1050900000F0C8FC1420FCF7C7F84FF4DC711220B4
:1050A00000F0C0FC1420FCF7BFF84FF4706113202F
:1050B00000F0B8FC80212A2000F0B4FC482129200F
:1050C00000F0B0FC1420FCF7AFF82946012000F0F6
:1050D000A9FC5146022000F0A5FC41F23801032052
:1050E00000F0A0FC3946082000F09CFC00210A20BA
:1050F00000F098FC00210C2000F094FC00210D2011
:1051000000F090FC30210E2000F08CFC002150209B
:1051100000F088FCEF21512000F084FC0021522097
:1051200000F080FC5946532000F07CFC21466020B2
:1051300000F078FC0121612000F074FC00216A205D
:1051400000F070FC1121902000F06CFC4FF4C06165
:10515000922000F067FC40F20241932000F062FCD4
:105160000221942000F05EFC1420FCF75DF8012180
:10517000072000F057FC1420FCF756F861210720A7
:1051800000F050FC40F27311072000F04BFC0021AE
:10519000202000F047FC0021212000F043FC2221C8
:1051A00000207CE10021084600F03CFC002108467C
:1051B00000F038FC1420FCF737F80021084600F016
:1051C00031FC0021084600F02DFC0021084600F0CB
:1051D00029FC0021084600F025FC0121A42000F054
:1051E00021FC1420FCF720F84FF41C51602000F043
:1051F00019FC40F60601082000F014FC40F203768A
:105200003146302000F00EFC0121312000F00AFC74
:105210000421322000F006FC4FF48171332000F0AD
:1052200001FC44464146342000F0FCFB40F20311EF
:10523000352000F0F7FB1F21362000F0F3FB31464C
:10524000372000F0EFFB0121382000F0EBFB0421B8
:10525000392000F0E7FB1521902000F0E3FB4FF42C
:105260008261102000F0DEFB40F24721112000F0A7
:10527000D9FB4FF4DE71122000F0D4FB4FF46061D3
:10528000132000F0CFFB7820FBF7CEFF294601204A
:1052900000F0C8FB4FF40071022000F0C3FB41F2A4
:1052A0003001032000F0BEFB08210A2000F0BAFB09
:1052B00000210C2000F0B6FB20210E2000F0B2FBF4
:1052C00000210F2000F0AEFB0021202000F0AAFBFF
:1052D0000021212000F0A6FB3D212A2000F0A2FBA6
:1052E0001420FBF7A1FF2D21292000F09BFB0021BA
:1052F000502000F097FB4DF2EF01512000F092FB9F
:105300000021522000F08EFB5946532000F08AFB0A
:105310000021612000F086FB00216A2000F082FB62
:105320002146922000F07EFB0521932000F07AFBBD
:105330002946FFF7B4BB0121002000F073FB0A20CF
:10534000FBF772FF41F22861102000F06BFB0E2189
:10535000122000F067FB40F63921132000F062FBB9
:105360000A20FBF761FF4021112000F05BFB502178
:10537000152000F057FB0A20FBF756FF1E211220D4
:1053800000F050FB0A20FBF74FFF4FF4B151102003
:1053900000F048FB42F63921132000F043FB0A20BD
:1053A000FBF742FF2946012000F03CFB414602206A
:1053B00000F038FB41F23801032000F033FB39469E
:1053C000082000F02FFB08210A2000F02BFB002111
:1053D000302000F027FB40F20241312000F022FB98
:1053E0004FF48371322000F01DFB40F20351332053
:1053F00000F018FB4FF48271342000F013FB40F2F0
:105400000131352000F00EFB3146362000F00AFB5A
:1054100040F20531372000F005FB4FF402713820CF
:1054200000F000FB40F60B71392000F0FBFA02217E
:10543000412000F0F7FA4FF41C51602000F0F2FA1E
:105440000121612000F0EEFA00E0CEE04FF404719B
:10545000902000F0E7FA4FF48571922000F0E2FA14
:105460000421932000F0DEFA2946A02000F0DAFAA9
:105470000121072000F0D6FA2121072000F0D2FAFE
:105480002321072000F0CEFA3321072000F0CAFACA
:1054900040F23311072000F0C5FA0021A02000F0EF
:1054A000C1FA80E53021152000F0BCFA10219A20C5
:1054B00000F0B8FA2021112000F0B4FA43F228419C
:1054C000102000F0AFFA0221122000F0ABFA41F2F6
:1054D0003801132000F0A6FA2820FBF7A5FE1221C0
:1054E000084600F09FFA2820FBF79EFE43F2204179
:1054F000102000F097FA43F23801132000F092FADE
:105500004620FBF791FE0021302000F08BFA40F29C
:105510000241312000F086FA40F20731322000F0DB
:1055200081FA4FF44171332000F07CFA04213420D9
:1055300000F078FA40F20141352000F073FA31466C
:10554000362000F06FFA40F20531372000F06AFA99
:105550004FF4C2642146382000F064FA2146392015
:1055600000F060FA2946012000F05CFA4146022072
:1055700000F058FA41F23001032000F053FA40F6EF
:105580000801082000F04EFA08210A2000F04AFA2B
:105590004FF41C51602000F045FA0121612000F019
:1055A00041FA4FF49F71902000F03CFA2946922076
:1055B00000F038FA2946932000F034FA4FF44051B5
:1055C000A02000F02FFA1021A32000F02BFA0121D7
:1055D000072000F027FA2121072000F023FA2321D9
:1055E000072000F01FFA3321072000F01BFA40F2D9
:1055F00033119EE608B54FF0D840B0F88000ADF802
:105600000000BDF8000008BD10B54FF0D844BE2121
:1056100024F87E1F05216180FAF7ACFE9FED081B80
:1056200053EC112BFAF723FEFAF7B1FE608001204C
:105630006080FF20608000206080608010BD0000DE
:1056400066666666666604402DE9F041654C002595
:105650002146A379898846F6040241F66317012B97
:1056600001D02BB11DE091421BD0B94202D118E00C
:10567000B94216D1082814D2DFE800F00406080A5F
:105680000C0E101206200CE007200AE0042008E0AF
:10569000052006E0012004E0002002E0032000E0F5
:1056A0000220A1F5134C45F2103345F21056BCF11F
:1056B000410C07D0914205D0994203D0B14201D0AC
:1056C000B94272D1082812D2DFE800F011040608AE
:1056D0000A0C0E1080250AE0402508E0C02506E0EF
:1056E000202504E0602502E0A02500E0E02536202A
:1056F000994205D0B14203D0B94201D045F0080526
:10570000914201D145F00205294600F08BF9A188AC
:10571000B9420AD0A8062088628802D5904202D3F6
:1057200003E0904201D9228060804FF0D840B1421E
:10573000618920F87E1F21D1002242804A1C02800C
:10574000002242808A1C02802288521E130A438053
:10575000C91C0180D1B24180A18901800022428010
:105760004A1C0280002242808A1C02806288521EEB
:10577000130A4380C91C0180D1B212E0002141808C
:1057800041802188491E0A0A4280C9B24180A1890C
:1057900001800021418041806188491E0A0A4280BF
:1057A000C9B24180BDE8F081FFE7082812D2DFE8E6
:1057B00000F0040608110A0C0E1030250AE010252E
:1057C00008E0202506E0382504E0282502E0182519
:1057D00000E0082545F48051BDE8F041032000F0C9
:1057E00021B90000180000202DE9F05F0C46434E5F
:1057F00001463046B5888289230A4FEA112C408938
:10580000A5F513474FF0D84AE146413F1CD0A5F516
:10581000A647103F18D0B34696F806C03688A5F5BF
:10582000D047A6EB0108A8F10108043F11D0A5F567
:10583000C857633F1FD0A5F5AA475E46103F44D026
:10584000BCF1010F4FD050E0554625F87E0F604661
:1058500008E0BCF1010F01D11FFA88F1554625F887
:105860007E0F080A6880C8B268802A806B80E0B228
:105870006880BDE8F09FBCF1000F19D0554625F8AF
:105880007E0FA5F80290C8B26880761E300A688044
:10589000F0B26880504620F87E2F4380E1B241800C
:1058A000BBF80210491E0A0A4280C9B24180E0E7F3
:1058B00051461FFA88F521F87E0F00204880488065
:1058C000280A4880E8B24880E4E7554625F87E0F6C
:1058D000A5F80290401C2880C8B268802A806B809E
:1058E000521C2A80C3E71FFA88F100F09BF8B089A8
:1058F0002146BDE8F05F00F095B8000018000020D8
:105900002DE9FF5F1D460C468A46580700D001204E
:1059100000EBD500690810FB01F0203A00F0FF0908
:10592000D0B20026DFF888B002903CE00C2D0DD0FC
:10593000102D3AD11F49029801EB00104FF00008DA
:10594000875D380609D54FF4784209E002981A4974
:1059500000EB400001EB8000F0E70E9820B9002238
:1059600021460098FCF71EFD7806070E641CBBF864
:105970000200A4B2A04218D9A4EB0A00A84209D19F
:1059800000985446401C80B20090BBF80010814241
:105990000BD906E008F1010000F0FF08B8F1080F8C
:1059A000CFD3761CF6B24E45C0D3BDE8FF9F0000B2
:1059B00018000020946F0008206B00082DE9F84FB4
:1059C000044600F0FF0910190D46DDE90AB61FFA7A
:1059D00080F8581987B24FF0000A12E0444503D30B
:1059E00005EB0B004C4685B2BD420FD25B46294603
:1059F0002046CDF800A0FFF783FF04EB5B0084B2E4
:105A0000761C3278A2F120005E28E7D9BDE8F88F35
:105A100003484FF0D8410089A1F87E00704700008C
:105A2000180000204FF0D84222F87E0F51807047B6
:105A300010B501460E220248FAF7F5FB002010BD12
:105A4000180000207FB500241548009401940294AA
:105A50001249039401604FF48031C0E9011401251B
:105A60000461057680F820400E49C0E90A14C5613A
:105A7000C46080F830504561FBF755F908B1FBF779
:105A80003BF80095CDE9015469460548FBF7A2F8BB
:105A9000002801D0FBF730F87FBD00000020014056
:105AA000280000200100000F094808B5016841F4F2
:105AB000800101600068002200F48000009011461F
:105AC0003820FBF76DFEBDE808403820FBF75ABED2
:105AD0003038024010B58EB01C216846FAF7BCFB86
:105AE0001C2107A8FAF7B8FB1A484FF020411022F2
:105AF000016019494160062181600021C160C0E94F
:105B000004128161C16113020162C0E909139302A9
:105B1000C0E90B1341638163416409200F2308240A
:105B20008DE819000DF10C0C11248CE81600CDE95C
:105B300006100DF1240C08938CE817000D9107AAAC
:105B400069460448FCF7F8F8002801D0FAF7D4FFBA
:105B50000EB010BDD0000020040100A02DE9F047D8
:105B600086B014216846FAF777FB4C480024016898
:105B700041F010010160016801F010010591016818
:105B800041F004010160016801F004010591016820
:105B900041F080010160016801F080010591016818
:105BA00041F001010160016801F001010591016806
:105BB00041F002010160016801F0020105910168F4
:105BC00041F020010160016801F0200105910168A8
:105BD00041F008010160016801F0080105910168C8
:105BE00041F0400101600068DFF8B48000F040003F
:105BF0004FF400560590002231464046FBF764FC06
:105C0000DFF8A0A0002248F201015046FBF75CFC3F
:105C1000DFF89490B710002239464846FBF754FC51
:105C20001020009021480125CDE901056946204852
:105C3000FBF76EFB0096CDE901546946404603949C
:105C4000FBF766FB0095CDE9015469465046039485
:105C5000FBF75EFB06208DE8310069465046FBF7F6
:105C600057FB0097CDE90154694648460394FBF77A
:105C70004FFBE803CDE90005CDE9025469465046E3
:105C8000FBF746FB002201210A20FBF789FD0A20D1
:105C9000FBF778FD06B0BDE8F08700003038024021
:105CA00000080240000402400014024000002110DD
:105CB000001002400D4810B50B4901600C494160CD
:105CC00000214FF480428160C0E90312416181618B
:105CD000C1610162FBF704FC002803D0BDE810405D
:105CE000FAF70ABF10BD0000005400402001002058
:105CF000A086010010B586B00024174800940194D6
:105D00000294039404944FF080410594016040F2A2
:105D1000E731C0E9011440F63301C0E9031484619E
:105D2000FCF796F808B1FAF7E7FE4FF480500090C0
:105D300069460948FCF7D5F808B1FAF7DDFE049486
:105D400004A905480594FCF73BF8002801D0FAF7B0
:105D5000D3FE06B010BD0000740100200C4810B541
:105D60000A4901604FF4E1314160002181600C2259
:105D7000C160C0E904128161C161FCF7D5F9002856
:105D800003D0BDE81040FAF7B7BE10BD00100140C7
:105D9000B40100200C4810B50A4901604FF4E1310C
:105DA0004160002181600C22C160C0E90412816160
:105DB000C161FCF7B9F9002803D0BDE81040FAF73B
:105DC0009BBE10BD00480040F4010020FEE7704774
:105DD00070477047FBF77CBC10B592B03021684625
:105DE000FAF73AFA14210CA8FAF736FA1448002404
:105DF000016841F080510160006800F0805011900E
:105E00001048016841F4804101600068069400F484
:105E100080401190022000900120039010200490F7
:105E20006846FBF7DBFD0F20CDE90C040E940F94C0
:105E300000210CA81094FBF7E5FC12B010BD000087
:105E400040380240007000400548016841F470018C
:105E5000016003494FF0006080390860704700001E
:105E600088ED00E00148FCF7A8B8000074010020AC
:105E7000F0B50268254C264D264E274F274B4FF094
:105E8000804CA04209D0604507D0A84205D0B0425E
:105E900003D0B84201D0984204D122F0700E4A6873
:105EA00042EA0E02A0421BD0604519D0A84217D08A
:105EB000B04215D0B84213D0984211D0184DA84224
:105EC0000ED0184DA8420BD0174DA84208D0174D40
:105ED000A84205D0164DA84202D0164DA84203D1C3
:105EE00022F44075CA682A434D6922F080022A4391
:105EF00002608A68C2620A688262A04201D0984247
:105F000001D10969016301214161F0BD0000014037
:105F10000004004000080040000C00400004014064
:105F2000004001400044014000480140001800408A
:105F3000001C00400020004010B5846842EA0322A3
:105F400024F47F440A432243826010BD826822F019
:105F500070020A4342F007018160704710B5036A7E
:105F6000046A24F001040462846924F0F00444EA21
:105F7000021423F00A020A438461026210BD10B5C4
:105F8000036A23F0100303628369046A23F47043F5
:105F900043EA023224F0A00343EA01118261016264
:105FA00010BD00002DE9F041044600680169E26877
:105FB00021F44051114301612169A068E26908435D
:105FC0006169114308432168CA6849F20C639A4326
:105FD0000243CA6020684169A26921F440711143FB
:105FE0004161E069192764253226B0F5004F354A32
:105FF000354920684FF0000806D0884201D0904211
:1060000036D1FBF7A9FC35E0884201D0904202D19D
:10601000FBF7A2FC01E0FBF78FFC61684A18A0FBCC
:10602000070148EB0803FAF7CDF80146B0FBF5F09D
:106030000201B1FBF5F06FF01803584301EB80004B
:1060400006EBC000B0FBF5F000F0F80002EB4002F8
:10605000B1FBF5F0584301EB800006EBC000B0FB4C
:10606000F5F000F00700216810448860BDE8F08179
:10607000FBF762FC61688B0F8A00A0FB0701FAF74F
:10608000A1F80146B0FBF5F06FF01802504301EBA8
:10609000800006EB0010B0FBF5F000F0F002B1FB61
:1060A000F5F002EB0012B1FBF5F06FF01803584366
:1060B00001EB800006EB0010B0FBF5F000F00F00E4
:1060C000D1E700000014014000100140FEE700008D
:1060D0000FB4084B10B504A902AA039800F0EEF81B
:1060E000044602A9002000F06CFC204610BC5DF8BC
:1060F00014FB0000C36900080907090E002804DB2F
:1061000000F1E02080F80014704700F00F0000F16B
:10611000E02080F8141D704702E008C8121F08C173
:10612000002AFAD170477047002001E001C1121F18
:10613000002AFBD1704700002DE9FF5F82B00021EB
:10614000DDE90430020DDDF840B0034318D044F619
:106150001050A2F2FF3242431514119801281FD0AB
:10616000A5EB0B00401C5FEA000A4FF000064E4F03
:10617000DFF83891B046504615D5CAF1000413E057
:10618000119801244AA3012801D16FEA0B0102985A
:10619000119AC0E90031C0E9024206B0BDE8F09FA3
:1061A000CBF10000DFE704460021404A491842EBEA
:1061B0000450CDE9001012E0E00707D032463B461C
:1061C00040464946FAF753F88046894632463B46F0
:1061D00010461946FAF74BF806460F466410002C95
:1061E000EAD1DDE90401DDE90023BAF1000F06DAA6
:1061F000FAF73DF842464B46FAF739F805E0FAF768
:106200007EFA42464B46FAF77AFA04460E460022D8
:10621000284BFAF7FBFA03D84FF0FF30014607E0AE
:106220000022254B20463146FAF7C2F9FAF7D6FA92
:10623000102409E0002C0ADB0A220023F9F7C2FF30
:10624000039B30321A55641E50EA0102F2D1641CDD
:10625000039AC4F111031444119A012A03D00122B4
:1062600008430DD10AE0084304D000204FF0110B81
:10627000119072E7A3EB0B056D1E0DE05B4504DD8D
:106280004FF0000205F1010504E003DA4FF00002CF
:10629000A5F10105002AECD002981199C0E902315C
:1062A000C0E9004579E70000000014400000F03F1D
:1062B000300000000000F0430000E03F2DE9FF4FF8
:1062C00095B09A46884606460025EEE1252877D106
:1062D00000242746F94A0121039400E0044316F8FC
:1062E000013F203B01FA03F01042F7D130782A2811
:1062F00011D06FF02F033078A0F13002092A16D8A0
:10630000039A44F0020402EB820203EB42021044BF
:10631000761C0390EFE758F8042B0392002A03DA67
:10632000504244F40054039044F00204761C307848
:106330002E2816D116F8010F44F004042A280DD097
:106340006FF02F023078A0F13003092B09D807EB4A
:10635000870302EB4303C718761CF3E758F8047B66
:10636000761C30786C280FD006DC4C2817D06828B3
:106370000DD06A2814D104E0742810D07A280FD1E7
:106380000DE044F400140AE044F4801401E044F405
:1063900040147278824202D104F58014761C761C77
:1063A000307866280BD013DC582877D009DC002819
:1063B00075D04528F6D04628F4D047281AD193E165
:1063C00018E0632835D0642879D0652812D18BE194
:1063D000702873D008DC6728F1D069286FD06E2848
:1063E0000DD06F2806D1ACE073282CD0752874D05E
:1063F000782853D05246179990476D1C54E1C4F346
:106400000250022809D003280DD0D8F80010042823
:106410000DD00D6008F1040846E1D8F80010EA1725
:10642000C1E90052F6E7D8F800100D80F2E70D70D0
:10643000F0E718F8041B8DF8001000208DF801001B
:10644000EB46012003E058F804BB4FF0FF30610732
:106450004FF0000102D40DE009F101018946B94273
:106460000FDA8145F8DB1BF809100029F4D108E0A8
:1064700009F1010189468142FADB1BF80910002964
:10648000F6D103985346A0EB090721463846179AE0
:1064900000F080FA284400EB090507E044E008E139
:1064A0000DE01BF8010B524617999047B9F101090D
:1064B000F7D2534621463846179AF2E039E00A21CE
:1064C000C4F302524FF0000B0091022A06D058F894
:1064D000040BC117032A09D00AE023E008F10700E2
:1064E00020F00702F2E80201904605E000B2C11771
:1064F000042A01D140B2C117002906DA0A46002158
:10650000404261EB02012D2202E0220504D52B223C
:106510008DF80420012203E0E20701D02022F7E7F2
:10652000914657E00A2100E010214FF0000B009146
:106530000BE010214FF0000B44F0040408270091F9
:1065400003E008204FF0000B0090C4F30252022A2F
:1065500005D058F8040B0021032A08D008E008F100
:10656000070020F00702F2E80201904603E080B243
:10657000042A00D1C0B24FF0000922072AD5327890
:10658000702A07D0DDF800C08CF0100C5CEA0B0C10
:1065900005D00EE040228DF80420012208E050EAE8
:1065A000010306D030238DF804308DF80520022237
:1065B0009146009B83F0080353EA0B030AD150EA8B
:1065C000010201D1620705D530228DF804204FF079
:1065D00001097F1E3278582A04D039A20C920CAAE5
:1065E00002920BE03BA2F9E75B46009AF9F7EAFD5D
:1065F0000C9B9B5C029A521E0292137050EA01029D
:10660000F2D1029804A9081A00F1200B600702D504
:1066100024F4803400E001275F4502DDA7EB0B0086
:1066200000E0002000EB0B01009003984944401A61
:106630000390E00306D453462146179A039800F0CE
:10664000A9F90544002706E001A85246C05D179944
:1066500090476D1C7F1C4F45F6DBE0030CD553467D
:106660002146179A039800F095F9054404E030207C
:106670005246179990476D1C0099481E00900029BA
:10668000F5DC08E00298029952460078491C029114
:10669000179990476D1CBBF10001ABF1010BF1DCC8
:1066A0005BE100F065F90544761C307800287FF442
:1066B0000DAE19B02846BDE8F08F00000928010092
:1066C0003031323334353637383961626364656668
:1066D000000000003031323334353637383941422A
:1066E0004344454600000000600700D4062708F137
:1066F000070020F00700F0E80223804603F0004C7A
:106700005FEA0C0001D097A009E0200501D596A012
:1067100005E0E00701D095A001E0AFF24C00139036
:10672000307823F0004365280CD006DC452809D0DA
:1067300046281DD047287FD13BE0662818D067281F
:106740007AD136E00021112F01DB112000E0781C06
:10675000CDE9000104A90CA8FFF7EEFCDDE90D016D
:106760000C9A4FF0000B07F10109109200914EE0D6
:106770004FF000400097CDE9011004A90CA8FFF7E5
:10678000DBFCDDE90D020C9B0F994FF0000B9146ED
:106790001093009211B9791C00EB0109B7EB0900C5
:1067A00003D4C0F1FF3B07F10109A9EB07000190F9
:1067B00042E0012F00DA01270021112F01DD112015
:1067C00000E03846CDE9000104A90CA8FFF7B4FCAD
:1067D000DDE90D010C9A00914FF0000BB9461092C3
:1067E00021070FD4009A4A4503DA914601E0A9F146
:1067F0000109B9F1010F05DD109AA9F10101515C00
:106800003029F4D0B84202DA10F1040F03DA012182
:10681000CDE9011010E0002803DC8344A9EB00015E
:1068200002E0411C494500DD8946A0EB0B00401CFD
:1068300001904FF000400290200705D40198484590
:1068400002DB4FF0FF30019000208DF84B000298E2
:106850000DF14B07B0F1004F25D002200C902B20FA
:106860000D90029800280CDA404202902D200D90E5
:1068700007E00A210298F9F7D2FD3031029007F8BB
:10688000011D0C99481E0C900029F2DC029800288A
:10689000EFD1791E0D980870307800F0200040F09C
:1068A000450007F8020D11A8C01BC01D02901398E7
:1068B000007800B1012000EB0901019801EBE071C3
:1068C000029801440398401A401E0390E00306D446
:1068D00053462146179A039800F05CF80544139834
:1068E000007818B15246179990476D1CE00323D5E4
:1068F00053462146179A039800F04CF805441BE0D4
:10690000BBF1000F07DB0098584504DD109817997C
:1069100010F80B0001E0179930205246904701987B
:106920000BF1010B401E05F10105019004D12E2051
:106930005246179990476D1CB9F10001A9F1010960
:10694000DEDC05E017F8010B5246179990476D1CE5
:106950000299481E02900029F4DC53462146179AFA
:1069600003989EE62D0000002B0000002000000090
:106970002DE9F041044600251E461746880404D43C
:1069800005E039462020B0476D1C641EF9D5284625
:10699000BDE8F0812DE9F041044600251E469046F1
:1069A000C80301D5302700E02027880404D505E07E
:1069B00041463846B0476D1C641EF9D52846BDE8EF
:1069C000F0810A68531C0B601070704730B54FF0AF
:1069D000E02185B08A6901924A69521C08B10123FD
:1069E00000E00023C01A50434FF47A73B0FBF3F376
:1069F000019C002000948C690194DDE90045AC42C3
:106A000000D21444641B204400958342F3D805B09F
:106A100030BD0000A8B0FAF763FEFFF7DDF9FFF71D
:106A20009DF8FFF741F8FFF755F8FFF763F9FFF717
:106A300009F8FFF73FF9FFF791F9FFF7ABF922A843
:106A4000FEF7F6FFFBF744FD0020FBF711FC2A4898
:106A5000FBF736FA202202A92848FAF7DBF91026BC
:106A600027A0CDE9006033464022C8216420FEF70C
:106A7000A5FF4FF6FF7702AD3220FAF7D5FB0021D4
:106A80003C460A4655F82200884200D9014689B2A0
:106A9000A04200D20446521CA4B2202AF2D3081B02
:106AA000F9F757FC9FED181B53EC112BF9F7DFFB9F
:106AB0009FED171B53EC112BF9F7D9FBF9F793FC5A
:106AC000F9F77EFC41EC100B13A153EC102B26A818
:106AD000FFF7FEFA00200090F823C422E021642092
:106AE000FBF7D4FC26A8CDE9006010234022E0216A
:106AF0006420FEF763FFBFE7740100202800002038
:106B00007670703D000000006666666666660A4044
:106B1000000000000000303F25342E3366000000E6
:106B20000000000000000000000000000000000065
:106B30003F40000000000000000030004000300036
:106B40004000000009000BC03D000BC03D000900E3
:106B500018C024407FE0224031800000180024C08B
:106B60001B000D803240018003801C4027401C80A8
:106B7000074000401000600000000000000000001E
:106B80000000000000001F80204040200000402046
:106B900020401F8000000000090006001F80060042
:106BA00009000000040004003F800400040000000D
:106BB000001000600000000000000000040004005D
:106BC0000400040004000000000000400000000079
:106BD00000000000002001C0060038004000000056
:106BE0001F802040204020401F80000000001040F7
:106BF0003FC000400000000018C021402240244057
:106C00001840000010802040244024401B800000D9
:106C100002000D0011003FC0014000003C802440F4
:106C200024402440238000001F802440244034401E
:106C3000038000003000200027C038002000000042
:106C40001B802440244024401B8000001C0022C0E4
:106C5000224022401F800000000000000840000089
:106C600000000000000000000460000000000000C0
:106C7000000004000A0011002080404009000900C3
:106C800009000900090000000000404020801100B8
:106C90000A0004001800200023402400180000000F
:106CA0001F802040274029401F400000004007C0AF
:106CB00039000F0001C0004020403FC02440244064
:106CC0001B8000001F8020402040204030800000BA
:106CD00020403FC0204020401F80000020403FC097
:106CE00024402E4030C0000020403FC024402E00F1
:106CF000300000000F00108020402240338002004E
:106D000020403FC0040004003FC0204020402040FD
:106D10003FC02040204000000060202020203FC0D5
:106D20002000200020403FC024400B0030C0204005
:106D300020403FC020400040004000C03FC03C0019
:106D400003C03C003FC0000020403FC00C40230077
:106D50003FC020001F802040204020401F800000B6
:106D600020403FC024402400180000001F80214024
:106D7000214020E01FA0000020403FC0244026000A
:106D800019C0004018C02440244022403180000037
:106D9000300020403FC020403000000020003F80F5
:106DA000004000403F80200020003E0001C007005E
:106DB00038002000380007C03C0007C03800000041
:106DC000204039C0060039C0204000002000384073
:106DD00007C0384020000000304021C02640384025
:106DE00020C00000000000007FE0402040200000A4
:106DF000000070000C0003800040000000004020F4
:106E000040207FE000000000000020004000200043
:106E10000000000000100010001000100010001012
:106E200000000000400000000000000000000280A0
:106E30000540054003C0004020003FC0044004401E
:106E4000038000000000038004400440064000006E
:106E500000000380044024403FC000400000038045
:106E60000540054003400000000004401FC02440CE
:106E700024402000000002E0055005500650042088
:106E800020403FC00440040003C000400000044014
:106E900027C000400000000000100010041027E090
:106EA0000000000020403FC00140070004C0044033
:106EB000204020403FC000400040000007C00400C8
:106EC00007C0040003C00000044007C004400400E1
:106ED00003C0004000000380044004400380000021
:106EE000041007F0045004400380000000000380F9
:106EF0000440045007F00010044007C002400400A2
:106F000004000000000006400540054004C00000E9
:106F1000000004001F8004400040000004000780BF
:106F20000040044007C000400400070004C0018086
:106F300006000400060001C0070001C006000000B2
:106F4000044006C0010006C0044000000410071001
:106F500004E00180060004000000044005C0064073
:106F6000044000000000000004007BE0402000001E
:106F7000000000000000FFF00000000000004020C2
:106F80007BE0040000000000400080004000200082
:106F90002000400000000000000000000000000091
:106FA000000000000000000000001FCC000C0000EA
:106FB0000000000000000800300060000800300001
:106FC00060000000022003FC1E20022003FC1E20A3
:106FD0000220000000000E1811043FFF10840C78FE
:106FE000000000000F0010840F3800C007781884DC
:106FF0000078000000780F8410C411240E9800E47B
:107000000084000808006800700000000000000014
:107010000000000000000000000007E01818200435
:1070200040020000000040022004181807E00000A1
:10703000000000000240024001800FF00180024089
:10704000024000000080008000800FF80080008077
:10705000008000000001000D000E00000000000094
:1070600000000000000000800080008000800080A0
:10707000008000800000000C000C000000000000F8
:1070800000000000000000060018006001800600FB
:1070900018002000000007F0080810041004080879
:1070A00007F000000000080408041FFC00040004AE
:1070B0000000000000000E0C101410241044118475
:1070C0000E0C000000000C181004110411041288AA
:1070D0000C700000000000E00320042408241FFCC2
:1070E0000024000000001F9810841104110410886F
:1070F00010700000000007F00888110411041888BF
:107100000070000000001C00100010FC13001C00A8
:107110001000000000000E38114410841084114447
:107120000E38000000000700088C10441044088846
:1071300007F00000000000000000030C030C00003A
:107140000000000000000000000101060000000037
:107150000000000000000080014002200410080828
:10716000100400000220022002200220022002203F
:107170000220000000001004080804100220014052
:107180000080000000000E001200100C106C108037
:107190000F00000003E00C1813E4142417C408289F
:1071A00007D000000004003C03C41C40074000E47A
:1071B000001C000410041FFC1104110411040E88AB
:1071C0000070000003E00C181004100410041008F4
:1071D0001C10000010041FFC100410041004080808
:1071E00007F0000010041FFC1104110417C4100460
:1071F0000818000010041FFC1104110017C0100033
:107200000800000003E00C181004100410441C785F
:107210000040000010041FFC1084008000801084D7
:107220001FFC10040000100410041FFC10041004C4
:107230000000000000030001100110011FFE1000FB
:107240001000000010041FFC110403801464181CBB
:107250001004000010041FFC1004000400040004CB
:10726000000C000010041FFC1F0000FC1F001FFC8E
:107270001004000010041FFC0C04030000E01018B0
:107280001FFC100007F00808100410041004080880
:1072900007F0000010041FFC108410801080108084
:1072A0000F00000007F0081810241024101C080A12
:1072B00007F2000010041FFC1104110011C011306E
:1072C0000E0C000400000E1C1104108410841044E5
:1072D0001C3800001800100010041FFC10041000DF
:1072E0001800000010001FF810040004000410042F
:1072F0001FF8100010001E0011E0001C0070138029
:107300001C0010001FC0103C00E01F0000E0103CFB
:107310001FC000001004180C163401C001C0163440
:10732000180C100410001C00130400FC13041C00B3
:10733000100000000804101C1064108413041C04C6
:10734000101800000000000000007FFE4002400214
:1073500040020000000030000C0003800060001CB0
:107360000003000000004002400240027FFE0000D7
:10737000000000000000000020004000400040002D
:1073800020000000000100010001000100010001D7
:10739000000100010000400040002000000000004B
:1073A0000000000000000098012401440144014451
:1073B00000FC000410001FFC008801040104008888
:1073C0000070000000000070008801040104010446
:1073D000008800000000007000880104010411080A
:1073E0001FFC0004000000F8014401440144014472
:1073F00000C800000000010401040FFC1104110486
:1074000011001800000000D601290129012901C935
:107410000106000010041FFC0084010001000104AB
:1074200000FC000400000104190419FC000400041D
:10743000000000000000000300010101190119FE15
:107440000000000010041FFC0024004001B4010CE7
:10745000010400000000100410041FFC00040004DC
:1074600000000000010401FC0104010001FC010412
:10747000010000FC010401FC008401000100010482
:1074800000FC0004000000F80104010401040104F0
:1074900000F80000010101FF0085010401040088DB
:1074A0000070000000000070008801040104010564
:1074B00001FF00010104010401FC0084010401003A
:1074C00001800000000000CC0124012401240124DB
:1074D0000198000000000100010007F80104010408
:1074E00000000000010001F800040004000401088D
:1074F00001FC0004010001800170000C001001601B
:107500000180010001F0010C003001C00030010CCD
:1075100001F0010000000104018C00740170018C75
:1075200001040000010101810171000E00180160D9
:107530000180010000000184010C01340144018438
:10754000010C0000000000000000000001003EFCF3
:10755000400240020000000000000000FFFF0000A9
:10756000000000000000400240023EFC010000005C
:10757000000000000000600080008000400040002B
:107580002000200000061016000610160000000063
:1075900000000000010203040607080900000000C3
:1075A00001020304C4750008000000201800000058
:1075B00018610008DC750008180000202006000093
:1075C0002861000800000000000000000100000029
:0C75D00010000000000000000024F40087
:040000050800018965
:00000001FF
