:020000040800F2
:10000000B0060020A101000887190008FD170008AC
:100010008519000827070008511E0008000000008D
:100020000000000000000000000000008B19000824
:100030002907000800000000891900088D19000830
:10004000BB010008BB010008BB010008BB010008A0
:10005000BB010008BB010008BB010008BB01000890
:10006000BB010008BB010008BB010008BB01000880
:10007000BB010008BB010008BB010008BB01000870
:10008000BB010008BB010008BB010008BB01000860
:10009000BB010008BB010008BB010008BB01000850
:1000A000BB010008BB010008BB010008BB01000840
:1000B0003D1A0008BB010008BB010008BB01000895
:1000C000BB010008BB010008BB010008BB01000820
:1000D000BB0100082D1E0008391E0008451E00083F
:1000E000BB010008BB010008BB010008BB01000800
:1000F000BB010008BB010008BB010008BB010008F0
:10010000BB010008BB010008BB010008BB010008DF
:10011000BB010008BB010008BB010008BB010008CF
:10012000BB010008BB010008BB010008BB010008BF
:10013000BB010008BB010008BB010008BB010008AF
:10014000BB010008BB010008BB010008BB0100089F
:10015000BB010008BB010008BB010008BB0100088F
:10016000BB010008BB010008BB010008BB0100087F
:10017000BB010008BB010008BB0100080000000033
:10018000BB010008BB010008DFF810D000F04AFAFC
:10019000004800475D270008AFF30080B00600204C
:1001A0000648804706480047FEE7FEE7FEE7FEE711
:1001B000FEE7FEE7FEE7FEE7FEE7FEE7211A00089E
:1001C000890100082DE9F05F0546002092469B4614
:1001D00088460646814640241BE02846414647465D
:1001E000224600F057F853465A46C01A914110D3A0
:1001F00011461846224600F03EF82D1A67EB01081A
:100200004F4622460120002100F035F817EB000987
:100210004E41201EA4F10104DFDC484631462A4647
:100220004346BDE8F09FD2B201E000F8012B491E21
:10023000FBD270470022F6E710B513460A46044683
:100240001946FFF7F0FF204610BD30B50B460146BA
:1002500000202022012409E021FA02F59D4205D365
:1002600003FA02F5491B04FA02F52844151EA2F10F
:100270000102F1DC30BD202A04DB203A00FA02F151
:10028000002070479140C2F1200320FA03F3194384
:1002900090407047202A04DB203A21FA02F0002126
:1002A000704721FA02F3D040C2F120029140084386
:1002B000194670472DE9FE4F804681EA0300C00FC2
:1002C0000C46009021F0004123F00045B8EB0200FD
:1002D000A94105D24046214690461C460B4602469F
:1002E00023F00040104347D0270DC7F30A00C3F3A3
:1002F0000A510290401A019040286BDAC3F31300B0
:1003000040F4801B0098924620B10023D2EB030AF0
:1003100063EB0B0B01985946C0F140025046FFF7C2
:10032000AAFF06460D4650465946019A00F08CF940
:1003300010EB08006141002487EA115284EAE77358
:100340001A4340D0009A62B3019A012A4FEA075239
:1003500015DC001B61EB02014FF0004202EA07527C
:10036000CDE90042001C41F5801132462B4600F0D9
:100370008CF903B0BDE8F08F40462146F9E7001B39
:1003800061EB0201001C41F5801300185B4120184D
:10039000A2F5001747EB030140EAD570B6196D418D
:1003A00011E06D084FEA360645EAC0754FEA07527C
:1003B000001B61EB0201001C41F5801149084FEA66
:1003C00030000019514132462B4603B0BDE8F04FD2
:1003D00000F04CB90098012240000023D0EB02024B
:1003E00063EBE073009821464FEAE074B8EB00003D
:1003F00061EB0401E9E783F000435BE781F0004132
:1004000058E72DE9FE4F81EA030404F0004421F08F
:10041000004100944FF0000B23F0004350EA010428
:100420005ED052EA03045BD0C3F30A54C1F30A5509
:100430002C44A4F2F3340194A0FB0254C1F3130141
:1004400041F48011C3F3130343F4801301FB02440E
:1004500000FB034E840A970A44EA815447EA835713
:10046000A4FB076802958D0A05FB07854FEA932CCC
:1004700004FB0C542705029D4FEA065847EA16373D
:10048000B5EB08056EEB070C870E920E47EA811755
:1004900042EA8312A7FB0201B6EB0B0164EB0004F6
:1004A0002B0D43EA0C335E1844EB1C50DA465146E0
:1004B000E7FB0201C5F313044FEA0B3343EA14537D
:1004C0004FEA0432019C43EA0603A4F10C040294AF
:1004D000009CCDE900B400F0D8F803B0BDE8F08F7F
:1004E00000200146F9E72DE9F04D81EA030404F00C
:1004F000004B21F0004514464FF0000A23F0004164
:1005000050EA050220D054EA01021DD0C5F30A5773
:100510000246C5F31303C1F31300C1F30A5640F4B6
:10052000801543F48013A7EB0608101BD64608F28B
:10053000FD3873EB050002D308F1010801E09218C1
:100540005B41B8F1000F03DA00200146BDE8F08DF1
:1005500000204FF48011064684460EE0171B73EB13
:10056000050705D3121B63EB050306434CEA010C98
:1005700049084FEA300092185B4150EA0107EDD17B
:1005800052EA030012D082EA040083EA050108431C
:1005900005D0101BAB4106D20122002306E0002249
:1005A0004FF0004302E06FF0010253101AEB060017
:1005B0004CEB085110EB0A0041EB0B01BDE8F04D8C
:1005C00000F054B8C1F30A52C1F3130140F2FF33F3
:1005D00041F480119A4202DA00200146704740F24D
:1005E00033439A42A2F2334202DC5242FFF752BE38
:1005F000FFF741BE30B5041E71F1000404DB4FF07B
:100600000044404264EB0101141E73F1000405DB59
:100610001C464FF00043524263EB0403994208BF6B
:10062000904230BD064C074D06E0E06840F0010303
:1006300094E8070098471034AC42F6D3FFF7A8FDC2
:10064000C8270008E8270008202A06DBCB17203A35
:1006500041FA02F043EAE07306E041FA02F3D040C7
:10066000C2F12002914008431946704710B5141E8C
:1006700073F1000408DA401C41F1000192185B415B
:100680001A4301D120F0010010BD2DE9F04D924632
:100690009B4611B1B1FA81F202E0B0FA80F2203249
:1006A0009046FFF7E8FD04460F4640EA0A0041EA9B
:1006B0000B0153465A46084313D0114653EA010032
:1006C00019D0C8F140025046FFF7E4FD05460E463A
:1006D000504659464246FFF7CEFD084305D001205B
:1006E00004E020463946BDE8F08D0020054346EA87
:1006F000E0762C4337430A986305E40AA0EB080030
:100700000022FD0A44EA47540A3002D5002001467F
:10071000E9E7010510196941DDE90845001969415A
:10072000BDE8F04DA2E7FEE77047704790F835103E
:10073000022903D08021416501207047052180F8FE
:1007400035100068016821F0010101600020704748
:100750002DE9F84F00224FF0010803254FF00F0E4E
:100760000B6808FA02F42340A3426ED14E68012EB2
:1007700005D0022E03D0112E01D0122E12D1866880
:100780004FEA420C05FA0CF7BE43CF6807FA0CF7A4
:10079000374387604668A6430C79C4F3001494403D
:1007A00034434460C668570005FA07FC8C6826EAA3
:1007B0000C06BC403443C4604C68022C01D0122C9F
:1007C00013D1D40800EB8404A346D4F82090540736
:1007D0004FEAD46A0EFA0AF629EA06090E6906FA01
:1007E0000AF646EA0906CBF8206006680C7926EA84
:1007F0000C0604F00304BC40344304604C68E4007D
:1008000065D5364C266846F480462660246822F07A
:10081000030604F480440094314C3444A446D4F8D4
:1008200008489607370F0EFA07F6B4432D4EB0422C
:1008300001D1002624E02C4EB04201D101261FE058
:100840002A4EB04202D102261AE040E0284EB042C1
:1008500001D1032614E0274EB04201D104260FE057
:10086000254EB04201D105260AE0244EB04201D106
:10087000062605E0224EB04201D1072600E00826F8
:10088000BE402643CCF808681E4E34684F689C432F
:10089000FF0300D51C4334601A4C241D26684F68A2
:1008A0009E43BF0300D51E432660164E08363468AB
:1008B0004F689C43FF0200D51C433460114E0C3638
:1008C00034684F689C43BF0200D51C433460521CFF
:1008D000102AFFF445AFBDE8F88F0000443802400D
:1008E00000300140000002400004024000080240C5
:1008F000000C0240001002400014024000180240A8
:10090000001C0240003C0140014880687047000024
:100910001800002002488168027811448160704705
:10092000180000200B4810B5016841F40071016007
:10093000016841F480610160016841F480710160E7
:10094000032000F06FF8002000F006F800F024F813
:10095000002010BD003C024070B50D4D04464FF420
:100960007A712878B1FBF0F00A490968B1FBF0F020
:1009700000F04AFB48B9102C07D200222146501E35
:1009800000F030F800206C6070BD012070BD0000E8
:1009900018000020240000200A4808B5016841F42E
:1009A00080410160006800F4804000900548001F0D
:1009B000016841F080510160006800F080500090B3
:1009C00008BD000044380240002809DB00F01F0287
:1009D000012191404009800000F1E020C0F80011A1
:1009E00070470000F0B40E4B1B680C46C3F30223A3
:1009F000C3F10705042D00D90425191D072901D2CB
:100A0000002300E0DB1E012606FA05F1491E214005
:100A100099409E40761E16403143F0BC01F02ABA40
:100A20000CED00E0064900F0070208684FF6FF03EE
:100A3000184040EA0220034A104308607047000053
:100A40000CED00E00000FA052DE9F0470E46050028
:100A500065D0DFF81481D8F80000F7B200F00F007D
:100A6000B04207D288F80070D8F8000000F00F00FC
:100A7000B04254D128683D4C810712D5400703D5B8
:100A8000206840F4E05020602878000703D52068F3
:100A900040F4604020602068A96820F0F00008431E
:100AA00020602878C0072DD03049686808390128AF
:100AB00012D0022813D0032811D009688907002911
:100AC0002DDA216821F0030101432160FFF71CFFAB
:100AD000814641F2883A0EE009688903EFE7096828
:100AE0008901ECE7FFF710FFA0EB0901514502D99E
:100AF0000320BDE8F0872068696800F00C00B0EBC7
:100B0000810FEFD1D8F80010404601F00F01B1423B
:100B100007D90770006800F00F00B04201D0012033
:100B2000E7E72878400705D52068E96820F4E05019
:100B3000084320602878000706D52068296920F43A
:100B4000604040EAC100206000F038F82168084A9F
:100B5000C1F30311515CC8400649086006480068AB
:100B6000FFF7FAFE0020C4E7003C024008380240CC
:100B7000B0270008240000201C000020044805497C
:100B800000680968044AC1F38221515CC84070477B
:100B90002400002008380240C02700080448054906
:100BA00000680968044AC1F34231515CC84070478B
:100BB0002400002008380240C0270008154810B55E
:100BC000006810F00C02144813D01449042A0FD006
:100BD000082A0ED10F4C241F2268236802F03F021E
:100BE0005B0207D52068C0F38810A0FB010106E076
:100BF000084610BD2168C1F38811A1FB0001002344
:100C0000FFF7E0FA2168C1F30141491C4900B0FB3C
:100C1000F1F010BD083802400024F40040787D0156
:100C2000F0B51F4C16460D461D4B0021022203272E
:100C3000283C0028186887B019D040F004001860DC
:100C4000186800F00400059010020090CDE9012121
:100C5000CDE9037169461348FFF77AFD206845EA3C
:100C6000C60120F078400843206007B0F0BD40F096
:100C700001001860186800F0010005904FF48070C2
:100C80000090CDE90121CDE9037169460648FFF7DF
:100C90005FFD2068354320F0EC602843E4E7000066
:100CA0003038024000080240000002402DE9F84FB1
:100CB00004006ED02078DFF83C93C007A9F104054A
:100CC0004AD009F104000168C1F38101012908D06B
:100CD0000068C0F3810002280AD1D9F80000400260
:100CE00006D52868800337D560680028E1D033E056
:100CF0006068B0F5803F10D0B0F5A02F286810D004
:100D000020F480302860286820F480202860606803
:100D1000A8B1FFF7F9FD06460DE0286840F48030E1
:100D2000F4E740F480202860F7E700BFFFF7ECFD10
:100D3000801B642873D828688003F7D50CE0FFF780
:100D4000E3FD064605E000BFFFF7DEFD801B6428DB
:100D5000F0D828688003F7D42078DFF89C828007D9
:100D60004FF0000A3ED5A348001D016811F00C0F9A
:100D700008D00068C0F3810002280BD1D9F8000028
:100D8000400207D42868800716D5E068012800D102
:100D900012E02BE1E068B8B10120C8F80000FFF7CD
:100DA000B3FD064605E000BFFFF7AEFD801B02283D
:100DB000C0D828688007F7D52868216920F0F80096
:100DC00040EAC10028600DE0C8F800A0FFF79CFDD4
:100DD000064604E0FFF798FD801B02281FD828680C
:100DE0008007F7D42078000722D5824E83486169B6
:100DF000703671B101210160FFF786FD074604E0FE
:100E0000FFF782FDC01B022809D830688007F7D59C
:100E10000EE0C0F800A0FFF777FD074605E082E08E
:100E2000FFF772FDC01B02287DD830688007F7D419
:100E30002078400768D5DFF8BCB100270BF13C0BE8
:100E4000DBF80000C0000BD4DBF8001041F080514B
:100E5000CBF80010DBF80000012700F08050009074
:100E6000674E3068C00510D4306840F48070306040
:100E7000FFF74AFD009005E0FFF746FD0099401A94
:100E8000022850D83068C005F6D55A4EA0686C3696
:100E900001280FD00528306810D020F00100306004
:100EA000306820F004003060A068B8B1FFF72CFD76
:100EB00000900FE0306840F00100F4E740F00400DB
:100EC0003060F7E7FFF720FD0099411A41F28830C2
:100ED000814266D830688007F4D50EE0FFF714FD34
:100EE000009007E0FFF710FD0099411A41F28830A9
:100EF000814256D830688007F4D42FB1DBF8001057
:100F000021F08051CBF80010A069C8B33949091D00
:100F10000968C1F3810102294AD00228504607D04E
:100F2000C8F8600000E03CE0FFF7EEFC04463BE060
:100F30004746C8F86000FFF7E7FC064605E000BF3B
:100F4000FFF7E2FC801B02282BD828688001F7D429
:100F5000D4E907010843A16A2A4A490802EB014182
:100F6000626A41EA8211084394F82C1040EA016158
:100F7000C9F8001001203866FFF7C6FC044606E0F9
:100F800036E000BFFFF7C0FC001B022809D8286824
:100F90008001F7D52CE000BFFFF7B6FC001B02284C
:100FA00002D90320BDE8F88F28688001F4D41FE03F
:100FB0000128F7D0D9F80000E26900F480019142DD
:100FC00014D1226A00F03F0191420FD147F6C0715F
:100FD000626A0140914209D1A26A00F44031914213
:100FE00004D1E16A00F07060884201D00120D9E7A5
:100FF0000020D7E70438024000004742800E4742F5
:10100000007000400000FFFF10B5401EB0F1807F6F
:1010100001D3012010BD4FF0E02460610F21601763
:1010200000F028FF0020A06107202061002010BDF3
:101030007047704770B590F83C20012A32D00124E7
:1010400080F83C40022280F83D2003685A689D6881
:1010500022F070060A6832435A60134B02689A42C3
:1010600014D0B2F1804F11D0104B9A420ED0104BD9
:101070009A420BD00F4B9A4208D00F4B9A4205D0A0
:101080000E4B9A4202D00E4B9A4204D1496825F089
:1010900080031943916080F83D40002180F83C10A6
:1010A000084670BD022070BD0000014000040040F1
:1010B00000080040000C00400004014000400140D6
:1010C0000018004010B5040003D094F83D0010B1A2
:1010D00007E0012010BD002084F83C00204600F00D
:1010E0000DF8022084F83D00211D206800F0ACFCC2
:1010F000012084F83D00002010BD000008B5006804
:10110000B0F1804F12D10A48016841F0010101603D
:101110000068002200F00100009011461C20FFF73B
:1011200061FCBDE808401C20FFF74EBC08BD000074
:101130004038024070B5044690F83C00012817D0B2
:10114000012584F83C50022084F83D002068826824
:1011500022F0770222F47F4282600868502830D063
:101160000DDC20284DD005DC98B310283BD148E099
:10117000022070BD302844D0402834D139E06028A6
:1011800028D0702806D0B0F5805F2CD0B0F5005F75
:1011900029D10AE0CB68D1E90121206800F0B8FC30
:1011A0002068816841F0770109E0CB68D1E901212D
:1011B000206800F0ADFC2068816841F480418160C6
:1011C00011E0CA684968206800F0B4FC502120682A
:1011D00007E016E0CA684968206800F0BCFC60219E
:1011E000206800F09FFC84F83D50002084F83C000B
:1011F00070BDCA684968206800F09CFC40212068E6
:10120000EFE7226801461046EBE7704770B50446E9
:10121000006801694FF00005C943890715D4C1680A
:10122000C943890711D4E91E016101202077206894
:1012300080698007204602D0FFF7E7FF04E000F056
:1012400098F8204600F096F8257720680169C94390
:10125000490717D4C168C943490713D46FF0040183
:101260000161022020772068806910F4407F2046C9
:1012700002D0FFF7CAFF04E000F07BF8204600F040
:1012800079F8257720680169C943090716D4C16830
:10129000C943090712D46FF00801016104202077C7
:1012A0002068C0698007204602D0FFF7AEFF04E047
:1012B00000F05FF8204600F05DF8257720680169AE
:1012C000C943C90617D4C168C943C90613D46FF00E
:1012D00010010161082020772068C06910F4407F68
:1012E000204602D0FFF791FF04E000F042F82046CC
:1012F00000F040F8257720680169C943C90708D183
:10130000C168C943C90704D1891E0161204600F0A4
:1013100033F820680169C943090609D4C168C94383
:10132000090605D46FF0800101612046FFF780FEB9
:1013300020680169C943490609D4C168C9434906FF
:1013400005D46FF040010161204600F02DF82068BF
:101350000169C94389060BD4C168C943890607D40A
:101360006FF0200101612046BDE87040FFF761BECB
:1013700070BD7047704700000549884206D1054896
:101380000168491C016004A000F064BD70470000C2
:101390002C00002000000020E7BB8FE8BF872564F9
:1013A000E7A7925C720A00007047704770B5026848
:1013B00004461068D168536910F00F0F52D003F043
:1013C000010501F490762E435FD0C20705D0CA050F
:1013D00003D5E26B42F00102E263420705D5DA076A
:1013E00003D0E26B42F00202E263820705D5DA071E
:1013F00003D0E26B42F00402E263020707D501F07A
:1014000020022A4303D0E26B42F00802E263E26B5F
:10141000002A33D0800604D5880602D5204600F085
:10142000C2FB20684069E16BC0F38010090700D45B
:1014300028B3204600F0A9FB2068416949061AD567
:10144000416921F040014161606BA0B11B49016518
:10145000606BFFF76BF9002810D0606B016DBDE881
:1014600070400847830610D58B060ED52046BDE890
:10147000704000F098BB2046FFF797FF70BD2046F4
:10148000FFF793FF0020E06370BD030606D50B064F
:1014900004D52046BDE8704000F064BC4006F3D59A
:1014A0004806F1D5D168204621F04001D1602021C5
:1014B00084F8391000F0A1F970BD00007B1B000812
:1014C00070B5040004D094F83900002510B106E08E
:1014D000012070BD84F83850204600F023F8242005
:1014E00084F839002068C16821F40051C1602046A9
:1014F00000F0A4FB2068016921F49041016120689B
:10150000416921F02A0141612068C16841F400511C
:10151000C160E563202084F8390084F83A00002097
:1015200070BD0000F0B587B0044614216846FEF790
:1015300081FE3D4B276800223C49022403250726F3
:101540003B489F4221D1394B14331F6847F01007A5
:101550001F601B6803F0100305930B6843F0010341
:101560000B60096802AB01F0010105916902CDE948
:10157000001483E864006946FFF7EAF800220121BD
:101580002520FFF72FFA252024E0284BDFF8A4C000
:101590001033674522D11F6847F400371F601B686E
:1015A00003F4003305930B6843F001030B600968F3
:1015B00002AF01F0010105910C21CDE9001487E88B
:1015C00064006946FFF7C4F8002202212620FFF7D5
:1015D00009FA2620FFF7F8F907B0F0BD1648874250
:1015E000FAD1186840F480201860186800F4802050
:1015F0000590086840F002000860086802AF00F03B
:10160000020005904FF44060CDE9000487E86400D3
:1016100069460A48FFF79CF8002203212720FFF7BC
:10162000E1F92720D6E700000010014030380240E1
:101630000000024000440040004800400004024016
:1016400090F83A30202B22D1F9B1F2B190F838302D
:10165000012B1CD081628285C2850021C1632222B8
:1016600080F83A2080F838100168CA6842F4807225
:10167000CA6001684A6942F001024A610068C168B3
:1016800041F02001C1600020704701207047022016
:101690007047000070B50546006823490126234CB9
:1016A00088420FD1601C224A0178A0681154401C66
:1016B000A0600A2900D126701C490122491C1D483E
:1016C000FFF7BEFF1C492868884212D11748184A04
:1016D000C01C80320178E0681154401CE0600A2987
:1016E00000D1A670114913480122C91C4030FFF7F0
:1016F000A7FF12492868884214D10C480D4A401DA2
:10170000803A017820691154401C20610A2900D1D7
:1017100026710649BDE8704006480122491D803007
:10172000FFF78EBF70BD00000010014004000020D4
:101730006C000020EC010020004400400048004004
:101740002DE9F843044690F839001F4616460D4629
:10175000202850D1B5B1AEB194F8380001284AD054
:10176000012084F838004FF00008C4F83C802120A4
:1017700084F83900FFF7C8F8A6848146E68484F827
:10178000388026E00120BDE8F883E08C401EE0842C
:10179000A0684B46B0F5805F4FF000024FF080012B
:1017A0002046009703D000F00EFBE8B90DE000F0F2
:1017B0000AFBC8B928882168C0F30800486020697E
:1017C00008B16D1C05E0AD1C03E0216815F8010BA4
:1017D0004860E08C0028D8D14B46002240212046AA
:1017E000009700F0F0FA08B10320CCE7202084F83D
:1017F00039000020C7E70220C5E77047FEE7000078
:1018000000B587B014216846FEF714FD1748002183
:10181000026842F004020260026802F004020592CB
:10182000026842F080020260026802F080020592C3
:10183000026842F001020260026802F001020592B1
:10184000026842F002020260006800F002000590A7
:101850004FF4807000900220CDE9010103910491C2
:1018600069460348FEF774FF07B000BD30380240F8
:101870000000024010B586B000241748009401947F
:101880000294039404944FF080410594016042F265
:101890001071C0E9011442F2D001C0E9031484615F
:1018A000FFF710FC08B1FEF740FF4FF480500090A6
:1018B00069460948FFF73EFC08B1FEF736FF04947D
:1018C00004A905480594FFF7B5FB002801D0FEF7F1
:1018D0002CFF06B010BD00002C0000200C4810B5F5
:1018E0000A4901604FF4E1314160002181600C221E
:1018F000C160C0E904128161C161FFF7E1FD002808
:1019000003D0BDE81040FEF710BF10BD001001402D
:10191000EC0100200C4810B50A4901604FF4E13198
:101920004160002181600C22C160C0E90412816124
:10193000C161FFF7C5FD002803D0BDE81040FEF7E8
:10194000F4BE10BD004400402C0200200C4810B52D
:101950000A4901604FF4E1314160002181600C22AD
:10196000C160C0E904128161C161FFF7A9FD0028CF
:1019700003D0BDE81040FEF7D8BE10BD00480040BF
:101980006C020020FEE7704770477047FEF7C2BF49
:1019900030B593B030216846FEF74CFC14210CA8FA
:1019A000FEF748FC1C480025016841F080510160A9
:1019B000006800F0805011901848016841F480419F
:1019C00001600068022400F480401190012003901F
:1019D00010200490009406940820CDE90750A82018
:1019E000CDE9090404200B906846FFF75FF90CA9C4
:1019F0000F2081E831004FF4A0500F90E0021090CA
:101A000005210CA8FFF720F8002211461046FFF729
:101A100007F913B030BD00004038024000700040AC
:101A20000548016841F47001016003494FF000600E
:101A3000803908607047000088ED00E00148FFF73A
:101A4000E5BB00002C000020F0B50268254C264DB7
:101A5000264E274F274B4FF0804CA04209D06045BF
:101A600007D0A84205D0B04203D0B84201D0984276
:101A700004D122F0700E4A6842EA0E02A0421BD046
:101A8000604519D0A84217D0B04215D0B84213D043
:101A9000984211D0184DA8420ED0184DA8420BD034
:101AA000174DA84208D0174DA84205D0164DA842A0
:101AB00002D0164DA84203D122F44075CA682A43C9
:101AC0004D6922F080022A4302608A68C2620A6875
:101AD0008262A04201D0984201D1096901630121CB
:101AE0004161F0BD000001400004004000080040DA
:101AF000000C00400004014000400140004401404F
:101B00000048014000180040001C00400020004038
:101B100010B5846842EA032224F47F440A43224336
:101B2000826010BD826822F070020A4342F0070111
:101B30008160704710B5036A046A24F001040462EE
:101B4000846924F0F00444EA021423F00A020A43F0
:101B50008461026210BD10B5036A23F010030362B2
:101B60008369046A23F4704343EA023224F0A00339
:101B700043EA01118261016210BD10B5806B002142
:101B8000C185C184FFF711FC10BD0168CA6822F449
:101B90009072CA6001684A6922F001024A612021FC
:101BA00080F83A10704710B590F83A10222901D009
:101BB000022010BD8168B1F5805F11D00169002954
:101BC00001681FD0496801F07F03816A4A1C826264
:101BD0000B70C18D491E0904090CC18518D02BE07A
:101BE0000269816A002A0268526805D0D2B20A806E
:101BF000816A491C8162ECE7C2F308020A80816AAB
:101C0000891CF7E74A68816A4B1C83620A70E0E727
:101C10000168CA6822F02002CA600168CA6822F41A
:101C20008072CA6001684A6922F001024A6120217B
:101C300080F83A10FFF72EFD002010BD2DE9F0418D
:101C4000044600680169E26821F4405111430161D2
:101C50002169A068E269084361691143084321686A
:101C6000CA6849F20C639A430243CA60206841691A
:101C7000A26921F4407111434161E069192764258B
:101C80003226B0F5004F354A354920684FF000083C
:101C900006D0884201D0904236D1FEF77FFF35E072
:101CA000884201D0904202D1FEF778FF01E0FEF7B2
:101CB00065FF61684A18A0FB070148EB0803FEF7BF
:101CC00081FA0146B0FBF5F00201B1FBF5F06FF0CF
:101CD0001803584301EB800006EBC000B0FBF5F0A1
:101CE00000F0F80002EB4002B1FBF5F0584301EBC5
:101CF000800006EBC000B0FBF5F000F007002168A3
:101D000010448860BDE8F081FEF738FF61688B0FF2
:101D10008A00A0FB0701FEF755FA0146B0FBF5F07B
:101D20006FF01802504301EB800006EB0010B0FB8F
:101D3000F5F000F0F002B1FBF5F002EB0012B1FBA0
:101D4000F5F06FF01803584301EB800006EB00102C
:101D5000B0FBF5F000F00F00D1E7000000140140E7
:101D60000010014090F83910212901D0022070475D
:101D70008168B1F5805F016A0BD04A1C026202687B
:101D800009785160C18C491E0904090CC1840ED028
:101D900017E009880268C1F3080151600169002950
:101DA000016A02D0491C0162ECE7891CFBE701686B
:101DB000CA6822F08002CA600068C16841F0400130
:101DC000C160002070472DE9F041984617460E4645
:101DD0000446069D1DE0681C1BD02DB1FEF794FD46
:101DE000A0EB0800A84214D92068C16821F4D07182
:101DF000C1602068416921F001014161202084F81F
:101E0000390084F83A00002084F838000320BDE847
:101E1000F0812068006836EA000004D00020B84253
:101E2000D9D00020F3E70120F9E700000148FFF7CF
:101E3000BDBA0000EC0100200148FFF7B7BA00006E
:101E40002C0200200148FFF7B1BA00006C0200200C
:101E5000FEE700000FB4054B10B503A9044A029831
:101E600000F0EAF810BC5DF814FB00004127000800
:101E7000280000200907090E002804DB00F1E020FB
:101E800080F80014704700F00F0000F1E02080F8A7
:101E9000141D704702E008C8121F08C1002AFAD1B9
:101EA00070477047002001E001C1121F002AFBD1DA
:101EB000704700002DE9FF5F82B00021DDE90430AA
:101EC000020DDDF840B0034318D044F61050A2F2E2
:101ED000FF3242431514119801281FD0A5EB0B00C7
:101EE000401C5FEA000A4FF000064E4FDFF83891C1
:101EF000B046504615D5CAF1000413E011980124EC
:101F00004AA3012801D16FEA0B010298119AC0E996
:101F10000031C0E9024206B0BDE8F09FCBF10000FD
:101F2000DFE704460021404A491842EB0450CDE95E
:101F3000001012E0E00707D032463B4640464946D3
:101F4000FEF75FFA8046894632463B461046194600
:101F5000FEF757FA06460F466410002CEAD1DDE979
:101F60000401DDE90023BAF1000F06DAFEF749FAB1
:101F700042464B46FEF745FA05E0FEF7B4FA424604
:101F80004B46FEF7B0FA04460E460022284BFEF7F9
:101F900031FB03D84FF0FF30014607E00022254B0C
:101FA00020463146FEF786F9FEF70CFB102409E0C7
:101FB000002C0ADB0A220023FEF704F9039B3032CF
:101FC0001A55641E50EA0102F2D1641C039AC4F14E
:101FD00011031444119A012A03D0012208430DD1A0
:101FE0000AE0084304D000204FF0110B119072E773
:101FF000A3EB0B056D1E0DE05B4504DD4FF0000209
:1020000005F1010504E003DA4FF00002A5F1010536
:10201000002AECD002981199C0E90231C0E90045CC
:1020200079E70000000014400000F03F300000009D
:102030000000F0430000E03F2DE9FF4F95B09A46C5
:10204000884606460025EEE1252877D1002427465C
:10205000F94A0121039400E0044316F8013F203BB4
:1020600001FA03F01042F7D130782A2811D06FF02E
:102070002F033078A0F13002092A16D8039A44F0D1
:10208000020402EB820203EB42021044761C03902E
:10209000EFE758F8042B0392002A03DA504244F485
:1020A0000054039044F00204761C30782E2816D198
:1020B00016F8010F44F004042A280DD06FF02F0207
:1020C0003078A0F13003092B09D807EB870302EB26
:1020D0004303C718761CF3E758F8047B761C307866
:1020E0006C280FD006DC4C2817D068280DD06A2841
:1020F00014D104E0742810D07A280FD10DE044F4F4
:1021000000140AE044F4801401E044F440147278AE
:10211000824202D104F58014761C761C3078662841
:102120000BD013DC582877D009DC002875D045285F
:10213000F6D04628F4D047281AD193E118E0632856
:1021400035D0642879D0652812D18BE1702873D0FE
:1021500008DC6728F1D069286FD06E280DD06F2871
:1021600006D1ACE073282CD0752874D0782853D0D1
:102170005246179990476D1C54E1C4F3025002284F
:1021800009D003280DD0D8F8001004280DD00D6018
:1021900008F1040846E1D8F80010EA17C1E9005236
:1021A000F6E7D8F800100D80F2E70D70F0E718F8A8
:1021B000041B8DF8001000208DF80100EB46012073
:1021C00003E058F804BB4FF0FF3061074FF0000107
:1021D00002D40DE009F101018946B9420FDA8145C7
:1021E000F8DB1BF809100029F4D108E009F101011E
:1021F00089468142FADB1BF809100029F6D10398C1
:102200005346A0EB090721463846179A00F080FA9A
:10221000284400EB090507E044E008E10DE01BF865
:10222000010B524617999047B9F10109F7D253466D
:1022300021463846179AF2E039E00A21C4F30252E7
:102240004FF0000B0091022A06D058F8040BC1177A
:10225000032A09D00AE023E008F1070020F0070272
:10226000F2E80201904605E000B2C117042A01D14C
:1022700040B2C117002906DA0A460021404261EB4C
:1022800002012D2202E0220504D52B228DF8042024
:10229000012203E0E20701D02022F7E7914657E050
:1022A0000A2100E010214FF0000B00910BE01021FB
:1022B0004FF0000B44F004040827009103E00820CD
:1022C0004FF0000B0090C4F30252022A05D058F8D8
:1022D000040B0021032A08D008E008F1070020F0D1
:1022E0000702F2E80201904603E080B2042A00D11E
:1022F000C0B24FF0000922072AD53278702A07D0E1
:10230000DDF800C08CF0100C5CEA0B0C05D00EE080
:1023100040228DF80420012208E050EA010306D093
:1023200030238DF804308DF8052002229146009B61
:1023300083F0080353EA0B030AD150EA010201D1EA
:10234000620705D530228DF804204FF001097F1E69
:102350003278582A04D039A20C920CAA02920BE0CF
:102360003BA2F9E75B46009AFDF72CFF0C9B9B5CB8
:10237000029A521E0292137050EA0102F2D10298A0
:1023800004A9081A00F1200B600702D524F4803458
:1023900000E001275F4502DDA7EB0B0000E0002015
:1023A00000EB0B01009003984944401A0390E003AE
:1023B00006D453462146179A039800F0A9F905441C
:1023C000002706E001A85246C05D179990476D1C92
:1023D0007F1C4F45F6DBE0030CD553462146179A88
:1023E000039800F095F9054404E03020524617990F
:1023F00090476D1C0099481E00900029F5DC08E00C
:102400000298029952460078491C02911799904708
:102410006D1CBBF10001ABF1010BF1DC5BE100F0E5
:1024200065F90544761C307800287FF40DAE19B0AC
:102430002846BDE8F08F0000092801003031323312
:1024400034353637383961626364656600000000F0
:1024500030313233343536373839414243444546DA
:1024600000000000600700D4062708F1070020F0F4
:102470000700F0E80223804603F0004C5FEA0C00FE
:1024800001D097A009E0200501D596A005E0E0075E
:1024900001D095A001E0AFF24C001390307823F00A
:1024A000004365280CD006DC452809D046281DD0FD
:1024B00047287FD13BE0662818D067287AD136E0DC
:1024C0000021112F01DB112000E0781CCDE9000173
:1024D00004A90CA8FFF7EEFCDDE90D010C9A4FF002
:1024E000000B07F10109109200914EE04FF00040FF
:1024F0000097CDE9011004A90CA8FFF7DBFCDDE98A
:102500000D020C9B0F994FF0000B91461093009217
:1025100011B9791C00EB0109B7EB090003D4C0F134
:10252000FF3B07F10109A9EB0700019042E0012FF1
:1025300000DA01270021112F01DD112000E03846CB
:10254000CDE9000104A90CA8FFF7B4FCDDE90D01F9
:102550000C9A00914FF0000BB946109221070FD44E
:10256000009A4A4503DA914601E0A9F10109B9F15F
:10257000010F05DD109AA9F10101515C3029F4D059
:10258000B84202DA10F1040F03DA0121CDE901109B
:1025900010E0002803DC8344A9EB000102E0411CA9
:1025A000494500DD8946A0EB0B00401C01904FF02F
:1025B00000400290200705D40198484502DB4FF007
:1025C000FF30019000208DF84B0002980DF14B0771
:1025D000B0F1004F25D002200C902B200D900298D6
:1025E00000280CDA404202902D200D9007E00A21CD
:1025F0000298FDF72AFE3031029007F8011D0C9970
:10260000481E0C900029F2DC02980028EFD1791EB8
:102610000D980870307800F0200040F0450007F871
:10262000020D11A8C01BC01D02901398007800B1C4
:10263000012000EB0901019801EBE07102980144CF
:102640000398401A401E0390E00306D453462146E7
:10265000179A039800F05CF805441398007818B1B5
:102660005246179990476D1CE00323D553462146E7
:10267000179A039800F04CF805441BE0BBF1000FDB
:1026800007DB0098584504DD1098179910F80B00E7
:1026900001E0179930205246904701980BF1010B49
:1026A000401E05F10105019004D12E2052461799D4
:1026B00090476D1CB9F10001A9F10109DEDC05E0CC
:1026C00017F8010B5246179990476D1C0299481E46
:1026D00002900029F4DC53462146179A03989EE69F
:1026E0002D0000002B000000200000002DE9F0412B
:1026F000044600251E461746880404D405E03946E2
:102700002020B0476D1C641EF9D52846BDE8F08135
:102710002DE9F041044600251E469046C80301D528
:10272000302700E02027880404D505E041463846DC
:10273000B0476D1C641EF9D52846BDE8F081000045
:1027400008B502238DF80000012269460248FEF711
:10275000F7FF002008BD0000EC0100201CB5FEF7CB
:10276000E1F8FFF715F9FFF74BF8FFF783F8FFF7EC
:10277000B5F8FFF7CFF8FFF7E9F801220749084855
:10278000FEF75EFF05210420CDE9000103230222AC
:10279000012104A0FFF75EFBFEE70000050000201A
:1027A000EC0100202564256425642564256400006F
:1027B00000000000000000000102030406070809F1
:1027C0000000000001020304E827000800000020C8
:1027D0002C000000941E0008142800082C00002083
:1027E00084060000A41E0008000000000000000095
:1027F00000000000000000000000000000000000D9
:102800000100000010000000000000000024F4009F
:0428100000000000C4
:040000050800018965
:00000001FF
