:020000040800F2
:1000000008830020A101000879680008C1240008C5
:1000100075680008C5060008B96E000800000000F9
:1000200000000000000000000000000083680008DD
:1000300003080008000000008168000885680008C7
:10004000BB010008BB010008BB010008BB010008A0
:10005000BB010008BB010008BB010008BB01000890
:10006000BB010008BB010008BB010008BB01000880
:10007000BB010008BB010008BB010008BB01000870
:10008000BB010008BB010008BB010008BB01000860
:10009000BB010008BB010008BB010008BB01000850
:1000A000BB010008BB010008BB010008BB01000840
:1000B000BB010008BB010008BB010008BB01000830
:1000C000BB010008BB010008BB010008BB01000820
:1000D000BB010008BB010008BB010008BB01000810
:1000E000BB010008BB010008BB010008BB01000800
:1000F000BB010008BB010008BB010008BB010008F0
:10010000BB010008BB010008BB010008BB010008DF
:10011000BB010008BB010008BB010008BB010008CF
:10012000C9060008D9060008E9060008BB01000856
:10013000BB010008BB010008BB010008BB010008AF
:10014000BB010008BB010008BB010008BB0100089F
:10015000BB010008BB010008BB010008BB0100088F
:10016000BB010008BB010008BB010008BB0100087F
:10017000BB010008BB010008BB0100080000000033
:10018000BB010008BB010008DFF810D000F084F9C3
:10019000004800476D6F0008AFF30080088300201F
:1001A0000648804706480047FEE7FEE7FEE7FEE711
:1001B000FEE7FEE7FEE7FEE7FEE7FEE7456900082B
:1001C000890100082DE9F05F0546002092469B4614
:1001D00088460646814640241BE02846414647465D
:1001E000224600F0EBF853465A46C01A914110D30C
:1001F00011461846224600F0D2F82D1A67EB010886
:100200004F4622460120002100F0C9F817EB0009F3
:100210004E41201EA4F10104DFDC484631462A4647
:100220004346BDE8F09F40EA01039B0703D009E085
:1002300008C9121F08C0042AFAD203E011F8013BD2
:1002400000F8013B521EF9D27047D2B201E000F82B
:10025000012B491EFBD270470022F6E710B513466A
:100260000A4604461946FFF7F0FF204610BD2DE967
:10027000FE4F81EA030404F0004421F000410094A1
:100280004FF0000B23F0004350EA01045ED052EA25
:1002900003045BD0C3F30A54C1F30A552C44A4F2FF
:1002A000F3340194A0FB0254C1F3130141F4801113
:1002B000C3F3130343F4801301FB024400FB034E1A
:1002C000840A970A44EA815447EA8357A4FB0768E3
:1002D00002958D0A05FB07854FEA932C04FB0C540D
:1002E0002705029D4FEA065847EA1637B5EB080581
:1002F0006EEB070C870E920E47EA811742EA8312D3
:10030000A7FB0201B6EB0B0164EB00042B0D43EAE3
:100310000C335E1844EB1C50DA465146E7FB0201F1
:10032000C5F313044FEA0B3343EA14534FEA043284
:10033000019C43EA0603A4F10C040294009CCDE95D
:1003400000B400F05AF803B0BDE8F08F0020014679
:10035000F9E70EB540F2334102910021CDE90011D9
:100360000A460B4600F049F803B000BDC1F30A523B
:1003700010B5C1F3130140F2FF3341F480119A42EA
:1003800001DA002010BD40F233439A42A2F2334218
:1003900003DC524200F012F810BD904010BD202A3C
:1003A00004DB203A00FA02F1002070479140C2F1CC
:1003B000200320FA03F3194390407047202A04DBFE
:1003C000203A21FA02F00021704721FA02F3D040CE
:1003D000C2F12002914008431946704710B5141E1F
:1003E00073F1000408DA401C41F1000192185B41EE
:1003F0001A4301D120F0010010BD2DE9F04D9246C5
:100400009B4611B1B1FA81F202E0B0FA80F22032DB
:100410009046FFF7C4FF04460F4640EA0A0041EA4F
:100420000B0153465A46084313D0114653EA0100C4
:1004300019D0C8F140025046FFF7C0FF05460E46EE
:10044000504659464246FFF7AAFF084305D001200F
:1004500004E020463946BDE8F08D0020054346EA19
:10046000E0762C4337430A986305E40AA0EB0800C2
:100470000022FD0A44EA47540A3002D50020014612
:10048000E9E7010510196941DDE9084500196941ED
:10049000BDE8F04DA2E70000064C074D06E0E0681D
:1004A00040F0010394E8070098471034AC42F6D3BB
:1004B000FFF76EFE2C7000084C70000870B5054602
:1004C000AC6B206C00F0500050BB206C40F400700E
:1004D00020642068806800F04050E8B9207ED8B9D8
:1004E0002068C06A00F4700020B12068806800F4C1
:1004F000806088B92068406820F02000216848604A
:10050000206C20F480702064206C00F4805018B9B6
:10051000206C40F001002064204600F0AFFA0BE0B0
:10052000206C00F0100018B1204600F0A9FA03E09A
:10053000A06BC16C2846884770BD70B50546AC6B92
:1005400040202064606C40F004006064204600F0AD
:1005500097FA70BD70B50446A56B284600F08FFA77
:1005600070BD000055494A6822F440324A604A682A
:1005700043681A434A600268526822F48072036832
:100580005A6002685368026943EA022203685A60AB
:100590000268526822F0407203685A60026852682A
:1005A00083681A4303685A600268926822F4006202
:1005B00003689A6002689268C3681A4303689A6085
:1005C0003F4B826A9A4218D00268926822F07062A9
:1005D00003689A6002689268836A1A4303689A60A3
:1005E0000268926822F0405203689A60026892683A
:1005F000C36A1A4303689A600BE00268926822F0AB
:10060000706203689A600268926822F04052036840
:100610009A600268926822F0020203689A60026897
:100620009368027E43EA420203689A602022125CC9
:10063000A2B10268526842F4006203685A6002681C
:10064000526822F4604203685A6002685368426A42
:10065000521E43EA423203685A6005E0026852685B
:1006600022F4006203685A600268D26A22F47002BF
:100670000368DA620268D36A828B521E43EA02522E
:100680000368DA620268926822F4007203689A6072
:100690000268936890F8302043EA422203689A6027
:1006A0000268926822F4806203689A600268936824
:1006B000426943EA822203689A607047002301403E
:1006C0000100000F00BFFEE710B5024800F0F4FB88
:1006D00010BD00000801002010B5024800F0ECFB3E
:1006E00010BD0000C801002010B5024800F0E4FB76
:1006F00010BD00006801002001460878103818235A
:10070000B0FBF3F20848805CC865032A05D9086885
:100710006FF30900001D886503E008686FF30900A6
:100720008865886D704700000C7000080146002045
:100730008A6A8B69CBB932B1012A0DD0022A03D063
:10074000032A10D10EE000BFCB6A03F08073B3F12F
:10075000807F00D1012007E0CB6AB3F1C07F00D1D8
:10076000012001E000E000BF34E08B69B3F5005FD9
:100770001AD132B1012A07D0022A03D0032A11D19B
:100780000AE000BF01200EE0CB6A03F08073B3F1F2
:10079000807F00D1012006E0CB6AB3F1C07F00D199
:1007A000012000E000BF15E032B1012A05D0022A85
:1007B00004D0032A0CD103E000BF00BF012008E0F1
:1007C000CB6A03F08073B3F1807F00D1012000E099
:1007D00000BF00BF704730B50468246824F480244B
:1007E00005682C60046863608468402C04D1046848
:1007F000A2600468E16003E00468A1600468E2604C
:1008000030BD70477047000070B504461D46002398
:10081000B5F5804F13D154F822300C480340D1E98C
:10082000000640EA06108E6840EA06208E8940EAFB
:1008300006408E693043034344F8223003E06FF0F2
:10084000704044F82200002070BD00000000F0CF8E
:1008500010B503460022086853F8202012480240D1
:10086000D1E901042043CC6820430C6920434C6942
:1008700020438C692043CC6920430C6A20434C6A96
:1008800020438C6A2043CC6A2043CC6B20430C6B02
:10089000204302438868082801D142F040020868DA
:1008A00043F82020002010BD8000F0FF30B5034643
:1008B0000024501C53F8204004F04044D1E90005C6
:1008C00040EA05108D6840EA05208D8940EA05451B
:1008D000088A401E45EA0055087D801E45EA0060F2
:1008E0008D6928430443501C43F82040002030BD4C
:1008F00038B502460020009000BF92F83C00012865
:1009000001D1022038BD012082F83C0000BF0868F8
:10091000092816D91068C0680C780A3C04EB440515
:100920000724AC40A0431468E0600C780A3C04EB58
:1009300044048868A0401468E46820431468E060B8
:1009400013E0106800690C7804EB44050724AC4000
:10095000A043146820610C7804EB44048868A0402C
:10096000146824692043146820614868072817D256
:100970001068406B0C79641E04EB84051F24AC40A6
:10098000A04314686063088880B20C79641E04EB8D
:100990008404A0401468646B20431468606331E0F1
:1009A00048680D2817D21068006B0C79E41F04EB1F
:1009B00084051F24AC40A04314682063088880B2DB
:1009C0000C79E41F04EB8404A0401468246B2043DA
:1009D0001468206316E01068C06A0C790D3C04EBC3
:1009E00084051F24AC40A0431468E062088880B2EC
:1009F0000C790D3C04EB8404A0401468E46A2043A5
:100A00001468E062194B1A4C1068A04206D10868BD
:100A1000122803D1586840F480005860144C1068C4
:100A2000A0421CD10868102802D00868112816D1ED
:100A3000586840F400005860086810280FD10D482D
:100A400000680D4CB0FBF4F000EB8000400000901B
:100A500002E00098401E009000980028F9D100BFE5
:100A6000002082F83C0000BF00BF4BE7002301409C
:100A7000002001401C00002040420F0070477047DA
:100A80007047000070B5044600250CB9012070BD08
:100A90001549A06A884200D000BF206C30B92046BA
:100AA00000F024F80020606484F83C00206C00F022
:100AB000100088B9206C20F4885040F002002064B7
:100AC0002046FFF74FFD00206064206C20F00200FC
:100AD00040F00100206400E0012500BF002084F800
:100AE0003C0000BF2846D2E70100000F10B586B0D9
:100AF0000446142101A8FFF7AFFB7949206888421A
:100B00004AD100BF002000907648006840F4807011
:100B1000744908600846006800F48070009000BFC7
:100B200000BF00BF002000906E481438006840F0FD
:100B300001006C49143908600846006800F00100A3
:100B4000009000BF00BF0120019003200290002010
:100B5000039001A9644800F00BFC644864490860F4
:100B600000204860002162488160C1604FF48061CC
:100B7000016149004161890081614911C161002120
:100B80000162416200F0B8FA08B1FFF73BFE00BF16
:100B90005748A0638463A1E05649206888424CD13D
:100BA00000BF002000904F48006840F400704D499D
:100BB00008600846006800F40070009000BF00BFA5
:100BC00000BF0020009047481438006840F0010042
:100BD0004449143908600846006800F0010000909C
:100BE00000BF00BF0120019003200290002003906D
:100BF00001A93D4800F0BCFB3C4830303E4908604C
:100C00004FF00070486000213B488160C1604FF4A4
:100C10008061016149004161890081614911C161BF
:100C200000210162416200F067FA08B1FFF7EAFDB6
:100C300000BF3148A063846350E030492068884297
:100C40004CD100BF002000902648006840F480602E
:100C5000244908600846006800F48060009000BFE6
:100C600000BF00BF002000901E481438006840F00C
:100C700001001C49143908600846006800F00100B2
:100C8000009000BF00BF01200190032002900020CF
:100C9000039001A9144800F06BFB14481830184960
:100CA00008604FF080604860002115488160C16095
:100CB0004FF48061016149004161890081614911FE
:100CC000C16100210162416200F016FA08B1FFF72C
:100CD00099FD00BF0A48A063846300BF06B010BD41
:100CE00000200140443802400000024010640240ED
:100CF000080100200021014068010020002201407D
:100D0000C8010020F8B504460D46164600200090A4
:100D100000BF94F83C00012801D10220F8BD012059
:100D200084F83C0000BF2068806800F00100A0B992
:100D30002068806840F0010021688860554800689C
:100D40005549B0FBF1F000EB4000009002E0009844
:100D5000401E009000980028F9D12068806800F4B7
:100D60008070B0F5807F05D12068806820F48070A5
:100D7000216888602068806800F0010000287ED02B
:100D8000206C40F20161884340F480702064206848
:100D9000406800F4806028B1206C20F4005040F4DA
:100DA00080502064206C00F48050B0F5805F04D146
:100DB000606C20F00600606401E00020606400BF09
:100DC000002084F83C0000BF344F3548A16BC86355
:100DD0003448A16B08643448A16BC8646FF02200EA
:100DE000216808602068406840F0806021684860A1
:100DF0002068806840F4807021688860226802F171
:100E00004C0133462A46A06B00F0ECF9786800F0FC
:100E10001F0018BB25492068884213D02449206848
:100E2000884204D1381D006800F01F0050B12149EC
:100E3000206888422BD11948001D006800F01F006F
:100E4000102824D22068806800F04050F8B920684B
:100E5000806840F080402168886018E0134920686D
:100E6000884214D12068806800F0405078B920682A
:100E7000806840F080402168886008E0FFE7206CCF
:100E800040F010002064606C40F0010060640020BD
:100E900044E700001C00002040420F0000230140F6
:100EA000BD040008550500083B050008002001406E
:100EB0000021014000220140F8B5044600200090C6
:100EC0008C4800684FF41651B0FBF1F7A56D2E6801
:100ED00094F85C1008208840304098B12068006881
:100EE00000F0040070B12068006820F00400216860
:100EF000086094F85C1008208840A860606D40F09D
:100F00000100606594F85C1001208840304068B1B1
:100F10002068406900F0800040B194F85C10012026
:100F20008840A860606D40F00200606594F85C1035
:100F300004208840304068B12068006800F002005A
:100F400040B194F85C1004208840A860606D40F0C7
:100F50000400606594F85C1010208840304078B33D
:100F60002068006800F0080050B394F85C1010206E
:100F70008840A8602068006800F4802080B1206864
:100F8000006800F4002028B9206CC8B12046216C0C
:100F9000884715E0A06C98B12046A16C88470FE007
:100FA0002068006800F4807028B92068006820F08C
:100FB000080021680860206C10B12046216C884729
:100FC00094F85C10202088403040002865D02068CC
:100FD000006800F0100000285FD094F85C1020201A
:100FE0008840A86094F83500052828D1206800685A
:100FF00020F01600216808602068406920F0800019
:1010000021684861206C08B9A06C28B1206800688C
:1010100020F008002168086094F85C103F208840A8
:10102000A86000BF002084F8340000BF012084F8CD
:101030003500206D10B12046216D8847F8BD20682D
:10104000006800F4802080B12068006800F400206F
:1010500028B9606C10B12046616C88471DE0E06BD8
:10106000D8B12046E16B884717E02068006800F49B
:10107000807068B92068006820F01000216808605E
:1010800000BF002084F8340000BF012084F8350040
:10109000E06B10B12046E16B8847606D38B3606D3E
:1010A00000F00100F0B1052084F8350020680068E8
:1010B00020F001002168086000BF0098401C0090EB
:1010C000B84200D905E02068006800F0010000285F
:1010D000F3D100BF00BF002084F8340000BF01201E
:1010E00084F83500E06C10B12046E16C884700BF01
:1010F000A4E700001C0000202DE9F0410446002573
:1011000000F03EFA074614B90120BDE8F081606A9C
:1011100000B100BF00BF002084F8340000BF0220EF
:1011200084F835002068006820F00100216808601C
:101130000AE000F025FAC01B052805D920206065CB
:10114000032084F83500E0E72068006800F0010023
:101150000028EED12068056821480540D4E9010146
:101160000843E16808432169084361690843A169AC
:101170000843E1690843216A08430543606A04287B
:1011800003D1D4E90B0108430543206805602068BA
:10119000456925F00705606A0543606A04280DD19A
:1011A000A06A0543E06A48B12046FFF7BFFA28B1BC
:1011B00040206065012084F83500A6E7206845617D
:1011C0002046FFF799FA064694F85C103F208840C5
:1011D000B06000206065012084F83500002094E7AD
:1011E0003F8010F02DE9F04704460D4616461F4695
:1011F0004FF00008D4F8589000BF94F8340001284C
:1012000002D10220BDE8F087012084F8340000BF3D
:1012100094F83500012825D1022084F835000020FB
:1012200060653B46324629462046FFF7D4FA94F8DB
:101230005C103F208840C9F808002068006840F032
:10124000160021680860206C28B12068006840F012
:101250000800216808602068006840F001002168EB
:10126000086006E000BF002084F8340000BF4FF0A3
:1012700002084046C6E7000070B5044600F080F959
:1012800006462546681C10B104480078054400BF96
:1012900000F076F9801BA842FAD370BD1800002038
:1012A00000B587B0142102A8FEF7D6FF2A480068CF
:1012B00008B107B000BD01202749086000BF002029
:1012C00001902648006840F0010024490860084663
:1012D000006800F00100019000BF00BF8814029078
:1012E0000220039000200490032005900C2006901B
:1012F00002A91B4800F03CF84FF6807002900220D3
:10130000039000200490032005900C20069002A971
:10131000144800F02DF84CF2337002900220039034
:1013200000200490032005900C20069002A90E488E
:1013300000F01EF84FF4805002900220039000202D
:101340000490032005900C20069002A9074800F0A5
:101350000FF800BFADE70000080000203838024059
:101360000014024000100240000C0240001802402D
:10137000F8B502460B460025002400200021DEE0DF
:10138000012606FA01F51E6806EA0504AC4275D18D
:101390001E7906F00306012E04D01E7906F003061E
:1013A000022E13D190684F000326BE40B0434F0079
:1013B000DE68BE4030439060506801268E40B043E6
:1013C0001E79C6F300168E40304350601E7906F039
:1013D0000306032E09D0D0684F000326BE40B04359
:1013E0004F009E68BE403043D0601E7906F0030671
:1013F000022E13D1CF0802F1200656F827004E071F
:10140000F70E0F26BE40B0434F07FF0E1E69BE40C9
:101410003043CF0802F1200646F8270010684F003D
:101420000326BE40B0431E7906F003064F00BE40BF
:10143000304310605E6806F08056B6F1805F7DD163
:1014400000BF00260096404E366846F480463E4F68
:101450003E603E46366806F48046009600BF00BFF8
:101460003A4E8F0856F827008E07370F0F26BE40DA
:10147000B043374EB24202D1002624E05EE0354E42
:10148000B24201D101261EE0334EB24201D1022602
:1014900019E0324EB24201D1032614E0304EB2427E
:1014A00001D104260FE02F4EB24201D105260AE0F9
:1014B0002D4EB24201D1062605E02C4EB24201D19A
:1014C000072600E008268F073F0FBE4030431F4E1F
:1014D0008F0846F82700264E3068A0435E6806F461
:1014E0008036B6F5803F00D12043214E3060361D56
:1014F0003068A0435E6806F40036B6F5003F00D1C0
:1015000020431B4E361D3060361D3068A0435E6898
:1015100006F48016B6F5801F00D12043144E08361D
:101520003060361D3068A0435E6806F40016B6F5DC
:10153000001F00D120430E4E0C363060491C10298C
:10154000FFF41EAFF8BD00004438024008380140E7
:10155000000002400004024000080240000C02406B
:10156000001002400014024000180240001C02401B
:10157000003C01400AB1816101E00B0483617047C6
:101580000148006870470000100000200348006810
:101590000349097808440149086070471000002099
:1015A0001800002010B50D48006840F400700B4989
:1015B00008600846006840F48060086008460068DB
:1015C00040F480700860032000F0A2F8002000F0D2
:1015D00007F800F02BF8002010BD0000003C02408E
:1015E00070B504460E4800784FF47A71B1FBF0F004
:1015F0000C490968B1FBF0F5284600F074FC08B10D
:10160000012070BD102C07D200222146501E00F090
:1016100041F80548046001E00120F2E70020F0E70E
:10162000180000201C0000201400002008B500BF96
:10163000002000900E48006840F480400C4908608B
:101640000846006800F48040009000BF00BF00BF63
:1016500000200090081F006840F08050091F0860BB
:101660000846006800F08050009000BF00BF08BD31
:101670004438024001460846002809DB00F01F03F9
:1016800001229A4043099B0003F1E023C3F80021A3
:1016900000BF70472DE9F05F80460D4616460027D3
:1016A00005F00CFC074639462A46334601F0070090
:1016B000C0F1070ABAF1040F02D94FF0040A01E0A1
:1016C000C0F1070AD14600F1040ABAF1070F02D2AD
:1016D0004FF0000A01E0A0F1030AD4464FF0010ADE
:1016E0000AFA09FAAAF1010A0AEA020A0AFA0CFA43
:1016F0004FF0010B0BFA0CFBABF1010B0BEA030BE8
:101700004AEA0B042146404605F0E0FBBDE8F09FA5
:1017100000BF00F00702064B19684FF6FF0319409F
:10172000044B0B4343EA0221014B196000BF704791
:101730000CED00E00000FA057047000070B50446AB
:101740000D460CB9012070BD5848006800F0070034
:10175000A84209D255490D700846006800F00700FC
:10176000A84201D00120EEE7207800F00200022814
:101770001DD1207800F00400042805D14C480068F1
:1017800040F4E0504A490860207800F0080008283A
:1017900005D14748006840F4604045490860444826
:1017A000006820F0F000A1680843414908602078F3
:1017B00000F00100A8B36068012807D13C48083850
:1017C0000068C0F34040B8B90120BCE76068022857
:1017D00002D06068032807D1354808380068C0F394
:1017E000406048B90120AEE7314808380068C0F3CE
:1017F000400008B90120A6E72D48006820F003004A
:10180000616808432A490860FFF7BAFE064609E006
:10181000FFF7B6FE801B41F28831884202D90320CF
:1018200091E707E02248006800F00C006168B0EB27
:10183000810FEDD11D48006800F00700A84209D9CA
:101840001A490D700846006800F00700A84201D050
:10185000012078E7207800F00400042807D114481C
:10186000006820F4E050E1680843114908602078DE
:1018700000F00800082808D10D48006820F46040F6
:10188000216940EAC1000A49086000F045F80849AA
:101890000968C1F30311074A515CC8400649086052
:1018A00006480068FFF79CFE00204CE7003C024021
:1018B00008380240147000081C00002014000020AA
:1018C00001200149C8647047000047420148006890
:1018D000704700001C00002000B5FFF7F7FF044927
:1018E0000968C1F38221034A515CC84000BD000071
:1018F000083802402470000800B5FFF7E7FF0449EC
:101900000968C1F34231034A515CC84000BD000080
:1019100008380240247000082DE9F0470024002513
:101920000026A1462548006800F00C0020B10428DC
:1019300005D008283AD105E0DFF8849039E0DFF8D7
:10194000849036E01D48001F006800F03F041B48EB
:10195000001F006800F4800078B11A481749091F79
:101960000968C1F38811A0FB0170014622460023DB
:101970003846FEF727FC05460EE011480F49091FBF
:101980000968C1F38811A0FB0170014622460023BB
:101990003846FEF717FC05460848001F0068C0F3EC
:1019A0000140401C4600B5FBF6F902E0DFF810905C
:1019B00000BF00BF4846BDE8F0870000083802407D
:1019C0000024F40000127A0010B50648006800F008
:1019D0008000802805D1FFF7AFFE80200149891CD7
:1019E000087010BD0C380240F8B504460CB901204F
:1019F000F8BD207800F00100002874D0F948006894
:101A000000F00C0004280DD0F648006800F00C002F
:101A1000082813D1F348001F006800F48000B0F5D7
:101A2000800F0BD1EF4808380068C0F34040002811
:101A300059D06068002856D10120D9E700BF6068FE
:101A4000B0F5803F08D1E7480838006840F480309E
:101A5000E449083908601EE06068B0F5A02F0DD198
:101A6000E0480838006840F48020DE490839086002
:101A70000846006840F4803008600CE0D948083817
:101A8000006820F48030D7490839086008460068AB
:101A900020F48020086000BF606890B1FFF770FDFF
:101AA000054606E0FFF76CFD401B642801D90320C2
:101AB0009EE7CC4808380068C0F340400028F1D0C9
:101AC00011E0FFF75DFD054606E0FFF759FD401BFD
:101AD000642801D903208BE7C24808380068C0F3A6
:101AE00040400028F1D1207800F0020002285FD1A8
:101AF000BC48006800F00C0058B1BA48006800F01B
:101B00000C0008281CD1B748001F006800F48000B2
:101B1000B0B9B44808380068C0F3400020B1E068AC
:101B2000012801D0012063E7AE480838006820F0A2
:101B3000F800216940EAC100AA490839086037E085
:101B4000E06800B30120A8490860FFF719FD0546C9
:101B500006E0FFF715FD401B022801D9032047E7E7
:101B6000A04808380068C0F340000028F1D09D4824
:101B70000838006820F0F800216940EAC10099495E
:101B80000839086014E0002097490860FFF7F8FC66
:101B9000054606E0FFF7F4FC401B022801D90320AC
:101BA00026E7904808380068C0F340000028F1D1CB
:101BB000207800F0080008282CD16069A8B1012025
:101BC0008A490860FFF7DCFC054606E0FFF7D8FC11
:101BD000401B022801D903200AE782486C300068C4
:101BE000C0F340000028F1D014E000207F490860D5
:101BF000FFF7C6FC054606E0FFF7C2FC401B0228C3
:101C000001D90320F4E677486C300068C0F3400047
:101C10000028F1D1207800F00400042870D10027BA
:101C200070483830006800F0805090B900BF002044
:101C300000906C483830006840F080506949383175
:101C400008600846006800F08050009000BF00BFA8
:101C500001276748006800F48070B0B964480068E4
:101C600040F4807062490860FFF78AFC054606E090
:101C7000FFF786FC401B022801D90320B8E65C4828
:101C8000006800F480700028F2D000BFA06801282E
:101C900008D154486830006840F00100514968316B
:101CA00008601DE0A06805280DD14E486830006826
:101CB00040F004004B49683108600846006840F075
:101CC000010008600CE047486830006820F001001F
:101CD0004449683108600846006820F00400086044
:101CE00000BFA068A8B1FFF74BFC054609E0FFF76D
:101CF00047FC401B41F28831884202D9032077E635
:101D000026E0384868300068C0F340000028EED074
:101D100013E0FFF735FC054608E0FFF731FC401BF8
:101D200041F28831884201D9032061E62D486830AC
:101D30000068C0F340000028EFD1012F07D12948E7
:101D40003830006820F0805026493831086000BFE4
:101D5000A069002845D02348006800F00C0008283E
:101D60005DD0A069022845D100201F490866FFF711
:101D700007FC054606E0FFF703FC401B022801D9DB
:101D8000032035E6174808380068C0F34060002893
:101D9000F1D1D4E907010843616A40EA81110122C7
:101DA000A06AC2EB500041EA00412C20005D41EAEC
:101DB00000600C49091F086001200B490866FFF705
:101DC000DFFB054606E0FFF7DBFB401B022801D9DD
:101DD00003200DE6034808380068C0F3406000287F
:101DE000F1D049E00838024000004742800E4742E7
:101DF00000700040002021490866FFF7C1FB05463E
:101E000006E0FFF7BDFB401B022801D90320EFE5E8
:101E10001B480068C0F340600028F2D12CE0A069A4
:101E2000012800D1E4E51648001D0668A0690128D4
:101E300020D006F48001E06981421BD106F03F0109
:101E4000206A814216D147F6C0703040616AB0EB1B
:101E5000811F0FD106F440310122A06AC2EB50006D
:101E6000B1EB004F06D106F070612C20005DB1EBA4
:101E7000006F01D00120BBE50020B9E5000047421A
:101E80000038024070B504460E4615460CB90120D4
:101E900070BD94F8490028B9002084F84800204615
:101EA00000F01CF804F108012068FEF7D1FC31466F
:101EB000A2682068FEF7FAFC2946236BD4E90102E8
:101EC000FEF7A2FCA168206850F8210040F0010054
:101ED000A268216841F822000020D9E710B5044625
:101EE000FFF7DEF910BD70B504462546681EB0F157
:101EF000807F01D301200FE0681E4FF0E021486190
:101F00000F214FF0FF3004F0E1FF00204FF0E021FF
:101F1000886107200861002070BD10B503460022CB
:101F200000BF93F83C00012801D1022010BD012020
:101F300083F83C0000BF22F0FF00CC6840EA0402B6
:101F400022F440708C6840EA040222F480604C68FD
:101F500040EA040222F400600C6840EA040222F421
:101F600080500C6940EA040222F400504C6940EAB7
:101F7000040222F48040CC6940EA040218684264FA
:101F800000BF002083F83C0000BF00BFCEE7000088
:101F900030B502460B4600BF92F83C00012801D143
:101FA000022030BD012082F83C0000BF022082F8F0
:101FB0003D00106844681068816824F07004186857
:101FC000044310684460184D1068A8421BD0106884
:101FD000B0F1804F17D0154D1068A84213D0144DA2
:101FE0001068A8420FD0134D1068A8420BD0124DB4
:101FF0001068A84207D0114D1068A84203D0104DB8
:102000001068A84205D121F080015868014310688A
:102010008160012082F83D0000BF002082F83C0072
:1020200000BF00BFBDE70000000001400004004009
:1020300000080040000C0040000401400040014046
:102040000018004010B504460CB9012010BD94F8EA
:102050003D0028B9002084F83C00204600F026F816
:10206000022084F83D00211D206804F079FC012045
:1020700084F8460000BF84F83E0001213F2001554E
:10208000402001554120015500BF00BF012084F8C8
:10209000420043200155442001554520015500BF11
:1020A000012084F83D000020D0E7000008B50A4A6E
:1020B000016891420FD100BF0021009107490968D2
:1020C00041F00101054A11601146096801F0010162
:1020D000009100BF00BF08BD00000140443802402D
:1020E0002DE9F04104460D4600BF94F83C0001285C
:1020F00002D10220BDE8F081012084F83C0000BF3D
:10210000022084F83D002068866826F0770626F4D1
:102110007F46206886602868502833D00CDC202851
:1021200050D004DC00284BD0102851D149E0302891
:1021300049D040284CD139E060282DD0702807D0F4
:10214000B0F5805F03D0B0F5005F41D10DE040E015
:10215000D5E902136A68206804F07FFC206886686D
:1021600046F077062068866033E0D5E902136A6896
:10217000206804F072FC2068806840F48040216888
:10218000886026E0EA686968206804F057FD5021FD
:10219000206804F06DFC1CE0EA686968206804F0BF
:1021A00060FD6021206804F063FC12E0EA68696861
:1021B000206804F043FD4021206804F059FC08E049
:1021C00000BF00BF00BF2968206804F051FC00E098
:1021D00000BF00BF012084F83D0000BF002084F84C
:1021E0003C0000BF00BF85E770B504460E461546AB
:1021F00000BF94F83C00012801D1022070BD0120ED
:1022000084F83C0000BF35B1042D09D0082D0CD056
:102210000C2D14D10EE03146206804F033FC0FE0A1
:102220003146206804F066FC0AE03146206804F07C
:102230009FFC05E03146206804F0D6FC00E000BFBA
:1022400000BF00BF002084F83C0000BF00BFD5E7FE
:1022500010B504460CB9012010BD94F83D0028B912
:10226000002084F83C00204600F025F8022084F885
:102270003D00211D206804F073FB012084F8460016
:1022800000BF84F83E0001213F2001554020015548
:102290004120015500BF00BF012084F842004320C7
:1022A0000155442001554520015500BF012084F807
:1022B0003D000020D0E7704770B504460D4615B9C3
:1022C00094F83E000BE0042D02D13F20005D06E0B3
:1022D000082D02D14020005D01E04120005D012871
:1022E00001D0012070BD1DB9022084F83E000EE02F
:1022F000042D03D102213F20015508E0082D03D110
:1023000002214020015502E0022141200155012215
:102310002946206804F090FB23492068884203D0B6
:1023200022492068884201D1012000E0002028B124
:102330002068406C40F40040216848641A492068D5
:1023400088421BD02068B0F1804F17D01849206810
:10235000884213D01749206888420FD01649206858
:1023600088420BD011492068884207D01349206861
:10237000884203D01249206888420CD120688068C6
:1023800000F00706062E0CD02068006840F001001F
:102390002168086005E02068006840F001002168BD
:1023A000086000209EE7000000000140000401409A
:1023B0000004004000080040000C004000400140C4
:1023C0000018004010B504460CB9012010BDA069EA
:1023D00000B100E000BF94F83D0028B9002084F867
:1023E0003C00204600F028F8242084F83D002068B6
:1023F000C06820F400502168C860204604F046FC04
:102400002068006920F490402168086120684069D4
:1024100020F02A00216848612068C06840F400501C
:102420002168C86000202064202084F83D0084F8E2
:102430003E000020CAE7000010B586B00446142113
:1024400001A8FDF709FF1B492068884230D100BF71
:10245000002000901848006840F0100016490860FD
:102460000846006800F01000009000BF00BF00BFE9
:102470000020009010481438006840F001000E4918
:10248000143908600846006800F00100009000BFA1
:1024900000BF4FF4C0600190022002900020039022
:1024A000032004900720059001A90448FEF760FF6F
:1024B00006B010BD00100140443802400000024048
:1024C00000BFFEE770B5044600260948058840882D
:1024D00045430021084603F069FE03F047FF00BFB3
:1024E00002E004480480761CAE42FAD370BD0000BE
:1024F000200000208000006C10B50446002C6BD139
:1025000072498871F02008804FF4A0704880084616
:10251000808849F2413188420BD06C48808846F669
:102520000401884205D06948808845F2103188420C
:102530001AD12C20654908812A2048812B208881C6
:102540000846808846F60401884205D05F488088A6
:1025500045F21031884206D14FF4A0705B490880E3
:102560004FF4F0704880ACE05848808845F2105134
:10257000884215D14FF43050544908814FF4285007
:1025800048814FF42C5088814FF4F07008804FF44C
:102590004870488000214FF4585003F0F1FE90E05D
:1025A0004A48808841F6631188420DD12C20474962
:1025B00008812B2048812A2088814FF4F070088000
:1025C0004FF4487048807CE0222040490881202058
:1025D00048812120888174E001203C4988714FF4B2
:1025E000A0700880F02048800846808849F2413178
:1025F000884205D03548808845F21031884207D19D
:102600002C20324908812A2048812B20888145E0EE
:102610002E48808846F60401884207D12C202B4999
:1026200008812B2048812A20888137E0274880882C
:1026300045F21051884216D14FF430502349088199
:102640004FF4285048814FF42C5088814FF4487043
:10265000088060214FF4585003F092FE4FF4F07060
:102660001A4948801AE01948808841F66311884267
:102670000DD12C20154908812A2048812B208881E2
:102680004FF4487008804FF4F070488006E0222034
:102690000E49088121204881202088810B488088AC
:1026A00046F60401884205D00848808845F210317A
:1026B000884206D14FF4F070044908804FF4A070AE
:1026C0004880012003F0FAFB10BD0000200000202C
:1026D00010B50121002003F053FE3220FEF7CCFD9F
:1026E000002003F0AFFBFE49888008468088FF2861
:1026F0000ADB084680884FF6FF71884204D0F8480C
:102700008088B0F5134F7CD1D32003F029FE03F06D
:102710008FFBF349888003F08BFBF149888003F03D
:1027200087FBEF498880084680884FF6FF7101EAF1
:102730000020EB49888003F07BFBE9498988084346
:10274000E74988800846808849F24131884258D05C
:10275000BF2003F005FE03F06BFBE149888003F026
:1027600067FBDF49888003F063FBDD49888003F065
:102770005FFBDB498880084680884FF6FF7101EADD
:102780000020D749888003F053FBD5498988084346
:10279000D34988800846808846F6040188427AD06A
:1027A000D42003F0DDFD03F043FBCD49888003F026
:1027B0003FFBCB49888003F03BFBC9498880084632
:1027C00080884FF6FF7101EA0020C549888003F038
:1027D0002FFBC34989880843C149888008468088FF
:1027E00045F21031884256D04FF45A4003F0B8FDFC
:1027F00003F01EFBBA4988804FF45B4003F0B0FD44
:1028000000E048E003F014FBB54988800846808862
:102810004FF6FF7101EA0020B14988804FF45C4017
:1028200003F09EFD03F004FBAD4989880843AC49E1
:10283000888008468088B0F5004F02D145F21050DC
:102840008880A748808845F21051884223D0A12073
:1028500003F086FD03F0ECFAA149888003F0E8FA62
:102860009F498880084680884FF6FF7101EA002062
:102870009B49888003F0DCFA994989880843984984
:1028800088800846808845F26171884203D141F60C
:102890006310934988809248808849F24131884288
:1028A00011D08F48808845F2103188420BD08C4877
:1028B000808845F21051884205D08948808841F6C9
:1028C000631188421DD18748006820F00F004FF047
:1028D0002041C1F81C010846D0F81C0120F47060AA
:1028E000C1F81C010846D0F81C0140F00300C1F8F3
:1028F0001C010846D0F81C0140F40070C1F81C010E
:1029000028E07748808846F60401884205D074485C
:1029100080884CF2055188421CD17248006820F032
:102920000F004FF02041C1F81C010846D0F81C01EF
:1029300020F47060C1F81C010846D0F81C0140F07A
:102940000A00C1F81C010846D0F81C0140F44060A0
:10295000C1F81C016248808849F2413188427CD12B
:10296000CF2003F0FDFC002003F0F4FCC12003F0B5
:10297000F1FC302003F0EEFCED2003F0F1FC6420CC
:1029800003F0E8FC032003F0E5FC122003F0E2FC76
:10299000812003F0DFFCE82003F0E2FC852003F057
:1029A000D9FC102003F0D6FC7A2003F0D3FCCB2016
:1029B00003F0D6FC392003F0CDFC2C2003F0CAFC38
:1029C000002003F0C7FC342003F0C4FC022003F015
:1029D000C1FCF72003F0C4FC202003F0BBFCEA207C
:1029E00003F0BEFC002003F0B5FC002003F0B2FCB5
:1029F000C02003F0B5FC1B2003F0ACFCC12003F0A9
:102A0000AFFC012003F0A6FCC52003F0A9FC302098
:102A100003F0A0FC302003F09DFCC72003F0A0FCD5
:102A2000B72003F097FC362003F09AFC482003F00F
:102A300091FC3A2003F094FC552003F08BFCB1206C
:102A400003F08EFC002003F085FC1A2003F082FCCA
:102A5000B62003F085FC0A2000E09EE003F07AFC3B
:102A6000A22003F077FCF22003F07AFC002003F0B0
:102A700071FC262003F074FC012003F06BFCE020C5
:102A800003F06EFC0F2003F065FC2A2003F062FCCB
:102A9000282003F05FFC082003F05CFC0E2003F00C
:102AA00059FC082003F056FC542003F053FCA920E5
:102AB00003F050FC432003F04DFC0A2003F04AFCD5
:102AC0000F2003F047FC002003F044FC002003F03B
:102AD00041FC002003F03EFC002003F03BFC03E03F
:102AE000200000201C0100A0E12003F039FC0020A0
:102AF00003F030FC152003F02DFC172003F02AFC16
:102B0000072003F027FC112003F024FC062003F02B
:102B100021FC2B2003F01EFC562003F01BFC3C2064
:102B200003F018FC052003F015FC102003F012FC44
:102B30000F2003F00FFC3F2003F00CFC3F2003F0BC
:102B400009FC0F2003F006FC2B2003F009FC0020F9
:102B500003F000FC002003F0FDFB012003F0FAFB72
:102B60003F2003F0F7FB2A2003F0FAFB002003F0DC
:102B7000F1FB002003F0EEFB002003F0EBFBEF2065
:102B800003F0E8FB112003F0EBFB7820FEF774FB69
:102B9000292003F0E5FB03F035B9FE48808846F6AE
:102BA000040188427ED1112003F0DAFB1420FEF7E5
:102BB00063FBD02003F0D4FB072003F0CBFB4220C3
:102BC00003F0C8FB1D2003F0C5FBD12003F0C8FBB8
:102BD000002003F0BFFB1A2003F0BCFB092003F028
:102BE000B9FBD22003F0BCFB012003F0B3FB222091
:102BF00003F0B0FBC02003F0B3FB102003F0AAFBEE
:102C00003B2003F0A7FB002003F0A4FB022003F00D
:102C1000A1FB112003F09EFBC52003F0A1FB0320C4
:102C200003F098FBC82003F09BFB002003F092FB0D
:102C3000252003F08FFB212003F08CFB052003F0FF
:102C400089FB002003F086FB0A2003F083FB65204C
:102C500003F080FB252003F07DFB772003F07AFB57
:102C6000502003F077FB0F2003F074FB002003F0EB
:102C700071FBF82003F074FB012003F06BFBFE20D6
:102C800003F06EFB002003F065FB022003F062FB03
:102C9000202003F065FB362003F062FB082003F0E0
:102CA00059FB00E02AE03A2003F05AFB552003F0DC
:102CB00051FB2B2003F054FB002003F04BFB0020C2
:102CC00003F048FB012003F045FB3F2003F042FBEB
:102CD0002A2003F045FB002003F03CFB002003F01A
:102CE00039FB012003F036FBDF2003F033FB7820B3
:102CF000FEF7C2FA292003F033FB4CE7A548808891
:102D000045F21031884240F07C87ED2003F028FB2B
:102D1000012003F01FFBFE2003F01CFBEE2003F05C
:102D20001FFBDE2003F016FB212003F013FBF12034
:102D300003F016FB012003F00DFBDF2003F010FB76
:102D4000102003F007FBC42003F00AFB8F2003F0E0
:102D500001FBC62003F004FB002003F0FBFAE22095
:102D600003F0F8FAE22003F0F5FAE22003F0F2FAB9
:102D7000BF2003F0F5FAAA2003F0ECFAB02003F02C
:102D8000EFFA0D2003F0E6FA002003F0E3FA0D203D
:102D900003F0E0FA002003F0DDFA112003F0DAFA84
:102DA000002003F0D7FA192003F0D4FA002003F032
:102DB000D1FA212003F0CEFA002003F0CBFA2D2027
:102DC00003F0C8FA002003F0C5FA3D2003F0C2FA70
:102DD000002003F0BFFA5D2003F0BCFA002003F0EE
:102DE000B9FA5D2003F0B6FA002003F0B3FAB1207F
:102DF00003F0B6FA802003F0ADFA002003F0AAFA3F
:102E00008B2003F0A7FA002003F0A4FA962003F029
:102E1000A1FA002003F09EFAB22003F0A1FA0020EC
:102E200003F098FA002003F095FA022003F092FADA
:102E3000002003F08FFA032003F08CFA002003F047
:102E400089FAB32003F08CFA002003F083FA002003
:102E500003F080FA002003F07DFA002003F07AFAF4
:102E6000002003F077FA002003F074FA002003F04A
:102E700071FA002003F06EFA002003F06BFA0020D4
:102E800003F068FA002003F065FA002003F062FA0C
:102E9000002003F05FFA002003F05CFA002003F04A
:102EA00059FA002003F056FA002003F053FA0020EC
:102EB00003F050FA002003F04DFA002003F04AFA24
:102EC000002003F047FA002003F044FA002003F04A
:102ED00041FA002003F03EFAB42003F041FA8B20BF
:102EE00003F038FA002003F035FA962003F032FAA6
:102EF000002003F02FFAA12003F02CFA002003F0A9
:102F000029FAB52003F02CFA022003F023FA00205E
:102F100003F020FA032003F01DFA002003F01AFA50
:102F2000042003F017FA002003F014FAB62003F08F
:102F300017FA002003F00EFA002003F00BFAB72076
:102F400003F00EFA002003F005FA002003F002FA65
:102F50003F2003F0FFF9002003F0FCF95E2003F0AE
:102F6000F9F9002003F0F6F9642003F0F3F90020EA
:102F700003F0F0F98C2003F0EDF9002003F0EAF9FA
:102F8000AC2003F0E7F9002003F0E4F9DC2003F0C3
:102F9000E1F901E020000020002003F0DBF97020BF
:102FA00003F0D8F9002003F0D5F9902003F0D2F90E
:102FB000002003F0CFF9EB2003F0CCF9002003F060
:102FC000C9F9DC2003F0C6F9002003F0C3F9B820EA
:102FD00003F0C6F9002003F0BDF9002003F0BAF9B0
:102FE000002003F0B7F9002003F0B4F9002003F04B
:102FF000B1F9002003F0AEF9002003F0ABF9002096
:1030000003F0A8F9BA2003F0ABF9242003F0A2F9E9
:10301000002003F09FF9002003F09CF9002003F04A
:1030200099F9C12003F09CF9202003F093F90020C6
:1030300003F090F9542003F08DF9002003F08AF991
:10304000FF2003F087F9002003F084F9C22003F089
:1030500087F90A2003F07EF9002003F07BF90420B1
:1030600003F078F9002003F075F9C32003F078F934
:103070003C2003F06FF9002003F06CF93A2003F0D4
:1030800069F9002003F066F9392003F063F90020A4
:1030900003F060F9372003F05DF9002003F05AF9DE
:1030A0003C2003F057F9002003F054F9362003F0D8
:1030B00051F9002003F04EF9322003F04BF90020C3
:1030C00003F048F92F2003F045F9002003F042F9FE
:1030D0002C2003F03FF9002003F03CF9292003F0F5
:1030E00039F9002003F036F9262003F033F90020E7
:1030F00003F030F9242003F02DF9002003F02AF921
:10310000242003F027F9002003F024F9232003F002
:1031100021F9002003F01EF93C2003F01BF90020E8
:1031200003F018F9362003F015F9002003F012F926
:10313000322003F00FF9002003F00CF92F2003F0E8
:1031400009F9002003F006F92C2003F003F9002010
:1031500003F000F9292003F0FDF8002003F0FAF84D
:10316000262003F0F7F8002003F0F4F8242003F001
:10317000F1F8002003F0EEF8242003F0EBF8002033
:1031800003F0E8F8232003F0E5F8002003F0E2F86C
:10319000C42003F0E5F8622003F0DCF8002003F01F
:1031A000D9F8052003F0D6F8002003F0D3F88420E6
:1031B00003F0D0F8002003F0CDF8F02003F0CAF8B7
:1031C000002003F0C7F8182003F0C4F8002003F033
:1031D000C1F8A42003F0BEF8002003F0BBF81820CB
:1031E00003F0B8F8002003F0B5F8502003F0B2F86F
:1031F000002003F0AFF80C2003F0ACF8002003F03F
:10320000A9F8172003F0A6F8002003F0A3F89520F2
:1032100003F0A0F8002003F09DF8F32003F09AF8E3
:10322000002003F097F8E62003F094F8002003F064
:1032300091F8C52003F094F8322003F08BF80020B9
:1032400003F088F8442003F085F8002003F082F8AA
:10325000652003F07FF8002003F07CF8762003F06F
:1032600079F8002003F076F8882003F073F8002046
:1032700003F070F8C62003F073F8202003F06AF81A
:10328000002003F067F8172003F064F8002003F033
:1032900061F8012003F05EF8002003F05BF8C7201E
:1032A00003F05EF8002003F055F8002003F052F818
:1032B000002003F04FF8002003F04CF8C82003F082
:1032C0004FF8002003F046F8002003F043F80020F8
:1032D00003F040F8002003F03DF8C92003F040F867
:1032E000002003F037F8002003F034F8002003F04A
:1032F00031F8002003F02EF8002003F02BF8002016
:1033000003F028F8002003F025F8002003F022F84D
:10331000002003F01FF8002003F01CF8002003F049
:1033200019F8002003F016F8002003F013F800202D
:1033300003F010F8002003F00DF8002003F00AF865
:10334000E02003F00DF8162003F004F8002003F04D
:1033500001F81C2002F0FEFF002002F0FBFF2120FC
:1033600002F0F8FF002002F0F5FF362002F0F2FF35
:10337000002002F0EFFF462002F0ECFF002002F0F8
:10338000E9FF522002F0E6FF002002F0E3FF642094
:1033900002F0E0FF002002F0DDFF7A2002F0DAFF09
:1033A000002002F0D7FF8B2002F0D4FF002002F0B3
:1033B000D1FF992002F0CEFF002002F0CBFFA82021
:1033C00002F0C8FF002002F0C5FFB92002F0C2FFE2
:1033D000002002F0BFFFC42002F0BCFF002002F07A
:1033E000B9FFCA2002F0B6FF002002F0B3FFD220DE
:1033F00002F0B0FF002002F0ADFFD92002F0AAFFDA
:10340000002002F0A7FFE02002F0A4FF002002F05D
:10341000A1FFF32002F09EFF002002F09BFFE120BD
:1034200002F09EFF162002F095FF002002F092FFAE
:103430001C2002F08FFF002002F08CFF222002F0FF
:1034400089FF002002F086FF362002F083FF002073
:1034500002F080FF452002F07DFF002002F07AFF9D
:10346000522002F077FF002002F074FF642002F087
:1034700071FF002002F06EFF7A2002F06BFF002047
:1034800002F068FF8B2002F065FF002002F062FF6F
:10349000992002F05FFF002002F05CFFA82002F0FC
:1034A00059FF002002F056FFB92002F053FF002020
:1034B00002F050FFC42002F04DFF002002F04AFF4E
:1034C000CA2002F047FF002002F044FFD22002F0A1
:1034D00041FF002002F03EFFD82002F03BFF002019
:1034E00002F038FFE02002F035FF002002F032FF4A
:1034F000F32002F02FFF002002F02CFFE22002F068
:103500002FFF052002F026FF002002F023FF0B20F2
:1035100002F020FF002002F01DFF1B2002F01AFF26
:10352000002002F017FF342002F014FF002002F008
:1035300011FF442002F00EFF002002F00BFF4F208D
:1035400002F008FF002002F005FF612002F002FFF8
:10355000002002F0FFFE792002F0FCFE002002F0C5
:10356000F9FE882002F0F6FE002002F0F3FE97201C
:1035700002F0F0FE002002F0EDFEA62002F0EAFECE
:10358000002002F0E7FEB72002F0E4FE002002F087
:10359000E1FEC22002F0DEFE002002F0DBFEC720CA
:1035A00002F0D8FE002002F0D5FED12002F0D2FEBB
:1035B000002002F0CFFED62002F0CCFE002002F068
:1035C000C9FEDD2002F0C6FE002002F0C3FEF3209B
:1035D00002F0C0FE002002F0BDFEE32002F0C0FEBB
:1035E000052002F0B7FE002002F0B4FE0A2002F02F
:1035F000B1FE002002F0AEFE1C2002F0ABFE002067
:1036000002F0A8FE332002F0A5FE002002F0A2FE88
:10361000442002F09FFE002002F09CFE502002F0A9
:1036200099FE002002F096FE622002F093FE002038
:1036300002F090FE782002F08DFE002002F08AFE5B
:10364000882002F087FE002002F084FE972002F01E
:1036500081FE002002F07EFEA62002F07BFE00200C
:1036600002F078FEB72002F075FE002002F072FE34
:10367000C22002F06FFE002002F06CFEC72002F0B4
:1036800069FE002002F066FED12002F063FE0020F9
:1036900002F060FED52002F05DFE002002F05AFE2E
:1036A000DD2002F057FE002002F054FEF32002F06D
:1036B00051FE002002F04EFEE42002F051FE0120F7
:1036C00002F048FE002002F045FE012002F042FE1A
:1036D000002002F03FFE022002F03CFE002002F03B
:1036E00039FE2A2002F036FE002002F033FE3C2094
:1036F00002F030FE002002F02DFE4B2002F02AFEE8
:10370000002002F027FE5D2002F024FE002002F0DF
:1037100021FE742002F01EFE002002F01BFE842019
:1037200002F018FE002002F015FE932002F012FEB7
:10373000002002F00FFEA22002F00CFE002002F09A
:1037400009FEB32002F006FE002002F003FEBE20B8
:1037500002F000FE002002F0FDFDC42002F0FAFDA0
:10376000002002F0F7FDCD2002F0F4FD002002F071
:10377000F1FDD32002F0EEFD002002F0EBFDDD2094
:1037800002F0E8FD002002F0E5FDF32002F0E2FD8A
:10379000002002F0DFFDE52002F0E2FD002002F053
:1037A000D9FD002002F0D6FD002002F0D3FD00205C
:1037B00002F0D0FD022002F0CDFD002002F0CAFD93
:1037C000292002F0C7FD002002F0C4FD3C2002F0D9
:1037D000C1FD002002F0BEFD4B2002F0BBFD002029
:1037E00002F0B8FD5D2002F0B5FD002002F0B2FD50
:1037F000742002F0AFFD002002F0ACFD842002F046
:10380000A9FD002002F0A6FD932002F0A3FD0020F8
:1038100002F0A0FDA22002F09DFD002002F09AFD22
:10382000B32002F097FD002002F094FDBE2002F0CC
:1038300091FD002002F08EFDC42002F08BFD0020DF
:1038400002F088FDCD2002F085FD002002F082FD0F
:10385000D32002F07FFD002002F07CFDDC2002F08E
:1038600079FD002002F076FDF32002F073FD0020C8
:1038700002F070FDE62002F073FD112002F06AFDF7
:10388000002002F067FD342002F064FD002002F009
:1038900061FD562002F05EFD002002F05BFD762007
:1038A00002F058FD002002F055FD772002F052FD95
:1038B000002002F04FFD662002F04CFD002002F0D7
:1038C00049FD882002F046FD002002F043FD9920CA
:1038D00002F040FD002002F03DFDBB2002F03AFD69
:1038E000002002F037FD992002F034FD002002F0A4
:1038F00031FD662002F02EFD002002F02BFD552048
:1039000002F028FD002002F025FD552002F022FDE6
:10391000002002F01FFD452002F01CFD002002F0F7
:1039200019FD432002F016FD002002F013FD442093
:1039300002F010FD002002F00DFDE72002F010FD66
:10394000322002F007FD002002F004FD552002F0B5
:1039500001FD002002F0FEFC762002F0FBFC0020BE
:1039600002F0F8FC662002F0F5FC002002F0F2FC08
:10397000672002F0EFFC002002F0ECFC672002F070
:10398000E9FC002002F0E6FC872002F0E3FC0020C6
:1039900002F0E0FC992002F0DDFC002002F0DAFCED
:1039A000BB2002F0D7FC002002F0D4FC992002F0EA
:1039B000D1FC002002F0CEFC772002F0CBFC0020EE
:1039C00002F0C8FC442002F0C5FC002002F0C2FC5A
:1039D000562002F0BFFC002002F0BCFC232002F0C5
:1039E000B9FC002002F0B6FC332002F0B3FC00204A
:1039F00002F0B0FC452002F0ADFC002002F0AAFC71
:103A0000E82002F0ADFC002002F0A4FC002002F04F
:103A1000A1FC992002F09EFC002002F09BFC872074
:103A200002F098FC002002F095FC882002F092FC45
:103A3000002002F08FFC772002F08CFC002002F0C6
:103A400089FC662002F086FC002002F083FC8820BE
:103A500002F080FC002002F07DFCAA2002F07AFC3B
:103A6000002002F077FCBB2002F074FC002002F082
:103A700071FC992002F06EFC002002F06BFC6620C5
:103A800002F068FC002002F065FC552002F062FCA8
:103A9000002002F05FFC552002F05CFC002002F0E8
:103AA00059FC442002F056FC002002F053FC442054
:103AB00002F050FC002002F04DFC552002F04AFCC0
:103AC000002002F047FCE92002F04AFCAA2002F0A4
:103AD00041FC002002F03EFC002002F03BFC0020F4
:103AE00002F038FC002002F03BFCAA2002F032FC7D
:103AF000CF2002F035FC002002F02CFC002002F068
:103B000029FC002002F026FC002002F023FC00200B
:103B100002F020FC002002F01DFC002002F01AFC44
:103B2000002002F017FC002002F014FC002002F03C
:103B300011FC002002F00EFC002002F00BFC002023
:103B400002F008FC002002F005FC002002F002FC5C
:103B5000002002F0FFFB002002F0FCFBF02002F04E
:103B6000FFFB002002F0F6FB502002F0F3FB0020E8
:103B700002F0F0FB002002F0EDFB002002F0EAFB77
:103B8000F32002F0EDFB002002F0E4FBF92002F04C
:103B9000E7FB062002F0DEFB102002F0DBFB292011
:103BA00002F0D8FB002002F0D5FB3A2002F0D8FB4F
:103BB000552002F0CFFB112002F0D2FB6420FDF76C
:103BC0005BFB292002F0CCFB352002F0C9FB002072
:103BD00002F0C0FB512002F0C3FBFF2002F0BAFB51
:103BE000532002F0BDFB2C2002F0B4FB552002F064
:103BF000B7FB822002F0AEFB2C2002F0B1FB02F0FA
:103C000001B9FE48808845F2105188427ED1552185
:103C10004FF4704002F0B4FBAA214FF2010002F011
:103C2000AFFB52214FF2020002F0AAFB08214FF233
:103C3000030002F0A5FB01214FF2040002F0A0FBFB
:103C40000D214FF4304002F09BFB0D214BF201009F
:103C500002F096FB0D214BF2020002F091FB3421A1
:103C60004FF4364002F08CFB34214BF2016002F03D
:103C700087FB34214BF2026002F082FB0D214FF4EE
:103C8000314002F07DFB0D214BF2011002F078FB78
:103C90000D214BF2021002F073FB34214FF4374038
:103CA00002F06EFB34214BF2017002F069FB34210B
:103CB0004BF2027002F064FB00214FF4324002F03C
:103CC0005FFB00214BF2012002F05AFB00214BF276
:103CD000022002F055FB24214FF4384002F050FB43
:103CE00024214BF6010002F04BFB24214BF602008D
:103CF00002F046FB01214FF43F4002F041FB0F214F
:103D00004FF4334002F03CFB0F2100E0FEE34BF2A6
:103D1000013002F035FB0F214BF2023002F030FB94
:103D200034214FF4394002F02BFB34214BF60110C3
:103D300002F026FB34214BF6021002F021FB082191
:103D40004FF4354002F01CFB08214BF2015002F009
:103D500017FB08214BF2025002F012FB03214FF433
:103D6000424002F00DFB24214FF43A4002F008FBE0
:103D700024214BF6012002F003FB24214BF6022004
:103D800002F0FEFA00214FF43C4002F0F9FA7821EB
:103D90004BF6014002F0F4FA00214BF6024002F02B
:103DA000EFFA00214FF43D4002F0EAFA78214BF699
:103DB000015002F0E5FA00214BF6025002F0E0FA61
:103DC00000214FF43E4002F0DBFA64214BF6016023
:103DD00002F0D6FA00214FF4514002F0D1FA33211B
:103DE0004DF2011002F0CCFA00214DF2021002F067
:103DF000C7FA34214DF2031002F0C2FA00214DF24D
:103E0000041002F0BDFA3A214DF2051002F0B8FAA2
:103E100000214DF2061002F0B3FA4A214DF20710CC
:103E200002F0AEFA00214DF2081002F0A9FA5C216E
:103E30004DF2091002F0A4FA00214DF20A1002F02E
:103E40009FFA81214DF20B1002F09AFA00214DF2F7
:103E50000C1002F095FAA6214DF20D1002F090FA26
:103E600000214DF20E1002F08BFAE5214DF20F10F9
:103E700002F086FA01214DF2101002F081FA1321AE
:103E80004DF2111002F07CFA01214DF2121002F0F5
:103E900077FA54214DF2131002F072FA01214DF21B
:103EA000141002F06DFA82214DF2151002F068FA3A
:103EB00001214DF2161002F063FACA214DF21710DB
:103EC00002F05EFA02214DF2181002F059FA0021B8
:103ED0004DF2191002F054FA02214DF21A1002F0BC
:103EE0004FFA01214DF21B1002F04AFA02214DF265
:103EF0001C1002F045FA34214DF21D1002F040FA78
:103F000002214DF21E1002F03BFA67214DF21F1004
:103F100002F036FA02214DF2201002F031FA84212B
:103F20004DF2211002F02CFA02214DF2221002F083
:103F300027FAA4214DF2231002F022FA02214DF2B9
:103F4000241002F01DFAB7214DF2251002F018FAE4
:103F500002214DF2261002F013FACF214DF2271064
:103F600002F00EFA02214DF2281002F009FADE21C9
:103F70004DF2291002F004FA02214DF22A1002F04B
:103F8000FFF9F2214DF22B1002F0FAF902214DF265
:103F90002C1002F0F5F9FE214DF22D1002F0F0F98F
:103FA00003214DF22E1002F0EBF910214DF22F10EB
:103FB00002F0E6F903214DF2301002F0E1F933216D
:103FC0004DF2311002F0DCF903214DF2321002F013
:103FD000D7F96D214DF2331002F0D2F900214FF4E0
:103FE000524002F0CDF933214DF2012002F0C8F920
:103FF00000214DF2022002F0C3F901E02000002070
:1040000034214DF2032002F0BBF900214DF20420CF
:1040100002F0B6F93A214DF2052002F0B1F9002183
:104020004DF2062002F0ACF94A214DF2072002F0D1
:10403000A7F900214DF2082002F0A2F95C214DF20F
:10404000092002F09DF900214DF20A2002F098F9B2
:1040500081214DF20B2002F093F900214DF20C204A
:1040600002F08EF9A6214DF20D2002F089F900210F
:104070004DF20E2002F084F9E5214DF20F2002F0FE
:104080007FF901214DF2102002F07AF913214DF24F
:10409000112002F075F901214DF2122002F070F9A1
:1040A00054214DF2132002F06BF901214DF214203E
:1040B00002F066F982214DF2152002F061F901212A
:1040C0004DF2162002F05CF9CA214DF2172002F0E1
:1040D00057F902214DF2182002F052F900214DF259
:1040E000192002F04DF902214DF21A2002F048F990
:1040F00001214DF21B2002F043F902214DF21C2058
:1041000002F03EF934214DF21D2002F039F902216E
:104110004DF21E2002F034F967214DF21F2002F00B
:104120002FF902214DF2202002F02AF984214DF2CC
:10413000212002F025F902214DF2222002F020F97F
:10414000A4214DF2232002F01BF902214DF224207C
:1041500002F016F9B7214DF2252002F011F90221E3
:104160004DF2262002F00CF9CF214DF2272002F06B
:1041700007F902214DF2282002F002F9DE214DF26A
:10418000292002F0FDF802214DF22A2002F0F8F871
:10419000F2214DF22B2002F0F3F802214DF22C20F7
:1041A00002F0EEF8FE214DF22D2002F0E9F8032195
:1041B0004DF22E2002F0E4F810214DF22F2002F0F3
:1041C000DFF803214DF2302002F0DAF833214DF20E
:1041D000312002F0D5F803214DF2322002F0D0F860
:1041E0006D214DF2332002F0CBF800214FF4534003
:1041F00002F0C6F833214DF2013002F0C1F800217F
:104200004DF2023002F0BCF834214DF2033002F0DE
:10421000B7F800214DF2043002F0B2F83A214DF225
:10422000053002F0ADF800214DF2063002F0A8F89A
:104230004A214DF2073002F0A3F800214DF2083078
:1042400002F09EF85C214DF2093002F099F800214D
:104250004DF20A3002F094F881214DF20B3002F059
:104260008FF800214DF20C3002F08AF8A6214DF2B1
:104270000D3002F085F800214DF20E3002F080F88A
:10428000E5214DF20F3002F07BF801214DF21030A4
:1042900002F076F813214DF2113002F071F801218D
:1042A0004DF2123002F06CF854214DF2133002F04E
:1042B00067F801214DF2143002F062F882214DF2CC
:1042C000153002F05DF801214DF2163002F058F879
:1042D000CA214DF2173002F053F802214DF2183086
:1042E00002F04EF800214DF2193002F049F8022197
:1042F0004DF21A3002F044F801214DF21B3002F069
:104300003FF802214DF21C3002F03AF834214DF210
:104310001D3002F035F802214DF21E3002F030F867
:1043200067214DF21F3002F02BF802214DF22030B0
:1043300002F026F884214DF2213002F021F802210A
:104340004DF2223002F01CF8A4214DF2233002F08D
:1043500017F802214DF2243002F012F8B7214DF285
:10436000253002F00DF802214DF2263002F008F857
:10437000CF214DF2273002F003F802214DF2283010
:1043800001F0FEFFDE214DF2293001F0F9FF02219C
:104390004DF22A3001F0F4FFF2214DF22B3001F002
:1043A000EFFF02214DF22C3001F0EAFFFE214DF229
:1043B0002D3001F0E5FF03214DF22E3001F0E0FF3A
:1043C00010214DF22F3001F0DBFF03214DF2303090
:1043D00001F0D6FF33214DF2313001F0D1FF03213E
:1043E0004DF2323001F0CCFF6D214DF2333001F04F
:1043F000C7FF00214FF4544001F0C2FF33214DF2BA
:10440000014001F0BDFF00214DF2024001F0B8FF74
:1044100034214DF2034001F0B3FF00214DF204407E
:1044200001F0AEFF3A214DF2054001F0A9FF002155
:104430004DF2064001F0A4FF4A214DF2074001F081
:104440009FFF00214DF2084001F09AFF5C214DF2E0
:10445000094001F095FF00214DF20A4001F090FF64
:1044600081214DF20B4001F08BFF00214DF20C40F9
:1044700001F086FFA6214DF20D4001F081FF0021E1
:104480004DF20E4001F07CFFE5214DF20F4001F0AE
:1044900077FF01214DF2104001F072FF13214DF220
:1044A000114001F06DFF01214DF2124001F068FF53
:1044B00054214DF2134001F063FF01214DF21440ED
:1044C00001F05EFF82214DF2154001F059FF0121FC
:1044D0004DF2164001F054FFCA214DF2174001F091
:1044E0004FFF02214DF2184001F04AFF00214DF22A
:1044F000194001F045FF02214DF21A4001F040FF42
:1045000001214DF21B4001F03BFF00E004E30221DA
:104510004DF21C4001F034FF34214DF21D4001F0FA
:104520002FFF02214DF21E4001F02AFF67214DF2BC
:104530001F4001F025FF02214DF2204001F020FF35
:1045400084214DF2214001F01BFF02214DF2224057
:1045500001F016FFA4214DF2234001F011FF0221CA
:104560004DF2244001F00CFFB7214DF2254001F03F
:1045700007FF02214DF2264001F002FFCF214DF24C
:10458000274001F0FDFE02214DF2284001F0F8FE27
:10459000DE214DF2294001F0F3FE02214DF22A40C6
:1045A00001F0EEFEF2214DF22B4001F0E9FE022176
:1045B0004DF22C4001F0E4FEFE214DF22D4001F0C1
:1045C000DFFE03214DF22E4001F0DAFE10214DF204
:1045D0002F4001F0D5FE03214DF2304001F0D0FE16
:1045E00033214DF2314001F0CBFE03214DF2324038
:1045F00001F0C6FE6D214DF2334001F0C1FE0021F5
:104600004FF4554001F0BCFE33214DF2015001F052
:10461000B7FE00214DF2025001F0B2FE34214DF2FE
:10462000035001F0ADFE00214DF2045001F0A8FE50
:104630003A214DF2055001F0A3FE00214DF2065043
:1046400001F09EFE4A214DF2075001F099FE002133
:104650004DF2085001F094FE5C214DF2095001F03A
:104660008FFE00214DF20A5001F08AFE81214DF2A9
:104670000B5001F085FE00214DF20C5001F080FE40
:10468000A6214DF20D5001F07BFE00214DF20E509F
:1046900001F076FEE5214DF20F5001F071FE01218F
:1046A0004DF2105001F06CFE13214DF2115001F04B
:1046B00067FE01214DF2125001F062FE54214DF2CD
:1046C000135001F05DFE01214DF2145001F058FE2F
:1046D00082214DF2155001F053FE01214DF216508A
:1046E00001F04EFECA214DF2175001F049FE0221A1
:1046F0004DF2185001F044FE00214DF2195001F026
:104700003FFE02214DF21A5001F03AFE01214DF216
:104710001B5001F035FE02214DF21C5001F030FE1D
:1047200034214DF21D5001F02BFE02214DF21E509E
:1047300001F026FE67214DF21F5001F021FE0221FB
:104740004DF2205001F01CFE84214DF2215001F069
:1047500017FE02214DF2225001F012FEA4214DF26B
:10476000235001F00DFE02214DF2245001F008FE0D
:10477000B7214DF2255001F003FE02214DF22650E3
:1047800001F0FEFDCF214DF2275001F0F9FD02218D
:104790004DF2285001F0F4FDDE214DF2295001F0D8
:1047A000EFFD02214DF22A5001F0EAFDF2214DF217
:1047B0002B5001F0E5FD02214DF22C5001F0E0FDFF
:1047C000FE214DF22D5001F0DBFD03214DF22E5064
:1047D00001F0D6FD10214DF22F5001F0D1FD032143
:1047E0004DF2305001F0CCFD33214DF2315001F04B
:1047F000C7FD03214DF2325001F0C2FD6D214DF293
:10480000335001F0BDFD00214FF4564001F0B8FDDA
:1048100033214DF2016001F0B3FD00214DF2026041
:1048200001F0AEFD34214DF2036001F0A9FD00213D
:104830004DF2046001F0A4FD3A214DF2056001F053
:104840009FFD00214DF2066001F09AFD4A214DF2D4
:10485000076001F095FD00214DF2086001F090FD28
:104860005C214DF2096001F08BFD00214DF20A60E0
:1048700001F086FD81214DF20B6001F081FD0021E8
:104880004DF20C6001F07CFDA6214DF20D6001F0AF
:1048900077FD00214DF20E6001F072FDE5214DF231
:1048A0000F6001F06DFD01214DF2106001F068FD17
:1048B00013214DF2116001F063FD01214DF21260F0
:1048C00001F05EFD54214DF2136001F059FD01210C
:1048D0004DF2146001F054FD82214DF2156001F09B
:1048E0004FFD01214DF2166001F04AFDCA214DF243
:1048F000176001F045FD02214DF2186001F040FD06
:1049000000214DF2196001F03BFD02214DF21A60C9
:1049100001F036FD01214DF21B6001F031FD022155
:104920004DF21C6001F02CFD34214DF21D6001F0B0
:1049300027FD02214DF21E6001F022FD67214DF29C
:104940001F6001F01DFD02214DF2206001F018FDF5
:1049500084214DF2216001F013FD02214DF222600D
:1049600001F00EFDA4214DF2236001F009FD0221AA
:104970004DF2246001F004FDB7214DF2256001F0F5
:10498000FFFC02214DF2266001F0FAFCCF214DF22E
:10499000276001F0F5FC02214DF2286001F0F0FCE7
:1049A000DE214DF2296001F0EBFC02214DF22A607C
:1049B00001F0E6FCF2214DF22B6001F0E1FC022156
:1049C0004DF22C6001F0DCFCFE214DF22D6001F077
:1049D000D7FC03214DF22E6001F0D2FC10214DF2E4
:1049E0002F6001F0CDFC03214DF2306001F0C8FCD6
:1049F00033214DF2316001F0C3FC03214DF23260EE
:104A000001F0BEFC6D214DF2336001F0B9FC55217F
:104A10004FF4704001F0B4FCAA214FF2010001F004
:104A2000AFFC52214FF2020001F0AAFC08214FF224
:104A3000030001F0A5FC00214FF2040001F0A0FCEE
:104A4000CC214FF4314001F09BFC00214BF20110CE
:104A500001F096FC05214FF4364001F091FC7021E5
:104A60004FF4374001F08CFC70214BF2017001F0E3
:104A700087FC01214FF4384001F082FC03214BF602
:104A8000010001F07DFC03214BF6020001F078FCEF
:104A900003214BF6030001F073FC02214FF43C406C
:104AA00001F06EFC00214BF6014001F069FC002191
:104AB0004BF6024001F064FCD0214FF4494001F074
:104AC0005FFC02214CF6011001F05AFC50214CF61B
:104AD000021001F055FC50214CF6031001F050FC7F
:104AE00050214CF6041001F04BFC00214FF45450BF
:104AF00001F046FC55214FF4685001F041FC4FF4A1
:104B0000885001F02DFC782002F003FA4FF4245075
:104B100001F026FC01F076B9FE48808849F2253183
:104B200088427DD147F6F001E52001F029FC4FF4E1
:104B30008071012001F024FC4FF4E061022001F0BB
:104B40001FFC41F23001032001F01AFC0021042077
:104B500001F016FC40F20221082001F011FC0021B6
:104B6000092001F00DFC00210A2001F009FC0021C0
:104B70000C2001F005FC00210D2001F001FC0021BA
:104B80000F2001F0FDFB0021102001F0F9FB0721AF
:104B9000112001F0F5FB0021122001F0F1FB0021B2
:104BA000132001F0EDFB0021072001F0E9FB41F2A9
:104BB0009061102001F0E4FB40F22721112001F068
:104BC000DFFB9D21122001F0DBFB4FF4C8511320C5
:104BD00001F0D6FB2521292001F0D2FB0D212B204D
:104BE00001F0CEFB0721302001F0CAFB40F2033177
:104BF000312001F0C5FB0321322001F0C1FB40F25E
:104C00000621352001F0BCFB0821362001F0B8FB5D
:104C100040F20641372001F0B3FB4FF4417100E050
:104C200058E0382001F0ACFB0721392001F0A8FB47
:104C300040F202613C2001F0A3FB08213D2001F07D
:104C40009FFB0021502001F09BFBEF21512001F040
:104C500097FB0021522001F093FB40F23F115320BB
:104C600001F08EFB4FF42741602001F089FB012108
:104C7000612001F085FB00216A2001F081FB002109
:104C8000802001F07DFB0021812001F079FB0021D3
:104C9000822001F075FB0021832001F071FB0021CF
:104CA000842001F06DFB0021852001F069FB1021BB
:104CB000902001F065FB4FF4C061922001F060FB91
:104CC00040F23311072001F05BFB2221002001F0AC
:104CD00057FB1FE78F48808849F2283188427DD1F1
:104CE00041F28F01EC2001F04BFB41F23421EF2027
:104CF00001F046FB4FF48071012001F041FB4FF4BD
:104D0000E061022001F03CFB41F23001032001F0A0
:104D100037FB0021042001F033FB40F20221082080
:104D200001F02EFB0021092001F02AFB00210A20BE
:104D300001F026FB01210C2001F022FB00210D20B7
:104D400001F01EFB00210F2001F01AFB00211020B2
:104D500001F016FB0721112001F012FB00211220A7
:104D600001F00EFB0021132001F00AFB01210720B6
:104D700001F006FB3220FCF77FFA41F2904110204F
:104D800001F0FEFA40F22721112001F0F9FA322059
:104D9000FCF772FA8A21122001F0F2FA3220FCF7B5
:104DA0006BFA4FF4D051132001F0EAFA06212920C2
:104DB00001F0E6FA0D212B2001F0E2FA3220FCF797
:104DC0005BFA0021202001F0DBFA0021212001F014
:104DD000D7FA3220FCF750FA002100E075E03020CD
:104DE00001F0CEFA40F20461312001F0C9FA40F23C
:104DF0000531322001F0C4FA0021352001F0C0FA5B
:104E000040F60941362001F0BBFA4FF4017137201A
:104E100001F0B6FA40F20131382001F0B1FA40F267
:104E20000771392001F0ACFA00213C2001F0A8FA0A
:104E300040F60A213D2001F0A3FA3220FCF71CFACB
:104E40000021502001F09CFAEF21512001F098FA46
:104E50000021522001F094FA40F23F11532001F05A
:104E60008FFA4FF42741602001F08AFA0121612076
:104E700001F086FA00216A2001F082FA00218020E8
:104E800001F07EFA0021812001F07AFA00218220CF
:104E900001F076FA0021832001F072FA00218420CB
:104EA00001F06EFA0021852001F06AFA10219020AD
:104EB00001F066FA4FF4C061922001F061FA40F20D
:104EC0003311072001F05CFA24E61248808849F289
:104ED000203188427ED10021084601F051FA4FF47A
:104EE0008071012001F04CFA4FF4E061022001F0E2
:104EF00047FA41F23001032001F042FA0021042078
:104F000001F03EFA40F20221082001F039FA0021B6
:104F1000092001E02000002001F032FA00210A20DF
:104F200001F02EFA01210C2001F02AFA00210D20B7
:104F300001F026FA00210F2001F022FA3220FCF7BE
:104F40009BF940F20111072001F01AFA3220FCF718
:104F500093F94FF48651102001F012FA0721112025
:104F600001F00EFA4FF48871122001F009FA4FF4A3
:104F70003061132001F004FA0021292001F000FA29
:104F800044F210012B2001F0FBF90021502001F028
:104F9000F7F9EF21512001F0F3F90021522001F03F
:104FA000EFF940F23F11532001F0EAF94FF41C51A0
:104FB000602001F0E5F90121612001F0E1F9002113
:104FC0006A2001F0DDF90021802001F0D9F90021EB
:104FD000812000E030E001F0D3F90021822001F0CF
:104FE000CFF90021832001F0CBF90021842001F0CA
:104FF000C7F90021852001F0C3F91021902001F0AC
:10500000BFF90021922001F0BBF90121932001F0AA
:10501000B7F94FF48871952001F0B2F9002197207B
:1050200001F0AEF90021982001F0AAF940F27311C5
:10503000072001F0A5F96DE5FE48808849F231317D
:1050400088427DD141F21401E72001F099F94FF433
:105050008071012001F094F94FF40071022001F0F9
:105060008FF941F23801032001F08AF940F2022160
:10507000082001F085F90021092001F081F90021C3
:105080000A2001F07DF900210C2001F079F90021BE
:105090000D2001F075F900210F2001F071F90021B8
:1050A000102001F06DF90721112001F069F90021AC
:1050B000122001F065F90021132001F061F9C820E8
:1050C000FCF7DAF841F29061102001F059F940F252
:1050D0002721112001F054F93220FCF7CDF80C21E2
:1050E000122001F04DF93220FCF7C6F84FF40061B0
:1050F000132001F045F91121292001F041F90B217C
:105100002B2001F03DF93220FCF7B6F800212020D9
:1051100001F036F940F23F11212001F031F9002170
:10512000302001F02DF94FF48371312001F028F97E
:105130000021322001F024F94FF40171352000E004
:1051400064E001F01DF941F20A61362001F018F91E
:1051500040F20771372001F013F94FF483713820C2
:1051600001F00EF940F20771392001F009F940F21F
:1051700002413C2001F004F940F60F413D2001F0CE
:10518000FFF80021502001F0FBF8EF21512001F041
:10519000F7F80021522001F0F3F840F23F115320BC
:1051A00001F0EEF84FF41C51602001F0E9F8012104
:1051B000612001F0E5F800216A2001F0E1F800210A
:1051C000802001F0DDF80021812001F0D9F80021D4
:1051D000822001F0D5F80021832001F0D1F80021D0
:1051E000842001F0CDF80021852001F0C9F81021BC
:1051F000902001F0C5F84FF4C061922001F0C0F892
:1052000040F23311072001F0BBF883E4894880881D
:1052100045F2084188427DD14FF48071012001F0B0
:10522000AFF84FF4E061022001F0AAF841F230013A
:10523000032001F0A5F80021042001F0A1F840F2BC
:105240000721082001F09CF80021092001F098F8BE
:1052500000210A2001F094F800210C2001F090F8C0
:1052600000210D2001F08CF800210F2001F088F8BA
:105270001420FCF701F841F2B061102001F080F831
:105280000121112001F07CF80121172001F078F8AC
:105290004FF49C71122001F073F84FF40061132059
:1052A00001F06EF80921292001F06AF809212A206D
:1052B00001F066F80021A42001F062F800215020DE
:1052C00001F05EF8EF21512001F05AF80021522040
:1052D00001F056F840F23F11532001F051F84FF41D
:1052E0001C51602001F04CF80121612001F048F8C8
:1052F00000216A2001F044F80021802001F040F8EC
:105300000021812001F03CF80021822001F038F8D2
:10531000002100E024E0832001F032F80021842005
:1053200001F02EF80021852001F02AF813219020A9
:1053300001F026F80021922001F022F803219320A9
:1053400001F01EF84FF48871952001F019F840F231
:105350007311072001F014F83220FBF78DFFB8E439
:105360003448808841F2055188427DD100210720D0
:1053700001F006F83220FBF77FFF4FF48E71122008
:1053800000F0FEFF0121A42000F0FAFF0F21082009
:1053900000F0F6FF08210A2000F0F2FF08210D209E
:1053A00000F0EEFF40F20771302000F0E9FF072126
:1053B000312000F0E5FF40F20361322000F0E0FF11
:1053C0004FF4E061332000F0DBFF40F20221342093
:1053D00000F0D6FF0221352000F0D2FF41F60F7118
:1053E000362000F0CDFF40F20771372000F0C8FFF3
:1053F0000021382000F0C4FF0021392000F0C0FF58
:1054000040F207713A2000F0BBFF00213B2000F082
:10541000B7FF07213C2000F0B3FF00213D2000F042
:10542000AFFF3220FBF728FF0121072000F0A8FF83
:10543000012101E020000020172000F0A1FF322010
:10544000FBF71AFF4FF4BD51102000F099FF40F216
:105450001721112000F094FF4FF48F71122000F0FB
:105460008FFF4FF4706100E098E0132000F088FF98
:1054700000212A2000F084FF0A21292000F080FF6B
:105480004FF49F71122000F07BFF0021502000F0AC
:1054900077FFEF21512000F073FF0021522000F030
:1054A0006FFF40F23F11532000F06AFF4FF41C5190
:1054B000602000F065FF0121612000F061FF002104
:1054C0006A2000F05DFF0021802000F059FF0021DC
:1054D000812000F055FF0021822000F051FF0021C3
:1054E000832000F04DFF0021842000F049FF0021BF
:1054F000852000F045FF1321902000F041FF4FF47C
:105500004071922000F03CFF0521932000F038FF0D
:105510000021952000F034FF0021972000F030FF9B
:105520000021982000F02CFF4FF48071012000F042
:1055300027FF4FF4E061022000F022FF41F2380122
:10554000032000F01DFF0021042000F019FF0021BE
:105550000C2000F015FF00210F2000F011FF0021AA
:10556000202000F00DFF0021212000F009FF212163
:10557000072000F005FF1420FBF77EFE61210720C5
:1055800000F0FEFE1420FBF777FE40F273110720B7
:1055900000F0F6FE1420FBF76FFE95E4FE488088CD
:1055A0004BF2055188427CD10021084600F0E8FE0C
:1055B0000021084600F0E4FE0021084600F0E0FE6D
:1055C0000021084600F0DCFE0121A42000F0D8FEF6
:1055D0001420FBF751FE4FF41C51602000F0D0FE68
:1055E00040F20221082000F0CBFE4FF4057130207C
:1055F00000F0C6FE43F21571312000F0C1FE40F20A
:105600000461322000F0BCFE40F61661332000F049
:10561000B7FE42F21121342000F0B2FE4FF4A8513F
:10562000352000F0ADFE48F20751362000F0A8FE0C
:1056300041F20741372000F0A3FE41F20341382038
:1056400000F09EFE2021392000F09AFE1A219020C1
:1056500000F096FE0021102000F092FE072111209C
:1056600000F08EFE0021122000F08AFE002113209F
:1056700000F086FE1420FBF7FFFD4FF4E6611020DA
:1056800000F07EFE40F23711112000F079FE142068
:10569000FBF7F2FD4FF4DC71122000F071FE1420D4
:1056A00000E085E0FBF7E8FD4FF47061132000F0A7
:1056B00067FE80212A2000F063FE4821292000F0A7
:1056C0005FFE1420FBF7D8FD4FF48071012000F03D
:1056D00057FE4FF4E061022000F052FE41F2380123
:1056E000032000F04DFE40F20221082000F048FEA9
:1056F00000210A2000F044FE00210C2000F040FEB2
:1057000000210D2000F03CFE30210E2000F038FE7C
:105710000021502000F034FEEF21512000F030FE37
:105720000021522000F02CFE40F23F11532000F0E7
:1057300027FE4FF41C51602000F022FE0121612061
:1057400000F01EFE00216A2000F01AFE11219020B8
:1057500000F016FE4FF4C061922000F011FE40F2FE
:105760000241932000F00CFE0221942000F008FE7C
:105770001420FBF781FD0121072000F001FE142019
:10578000FBF77AFD6121072000F0FAFD40F273116A
:10579000072000F0F5FD0021202000F0F1FD0021A0
:1057A000212000F0EDFD2221002000F0E9FD29E399
:1057B000794880884CF2055188427CD10021084606
:1057C00000F0DEFD0021084600F0DAFD1420FBF7B2
:1057D00053FD0021084600F0D3FD0021084600F0EB
:1057E000CFFD0021084600F0CBFD0021084600F067
:1057F000C7FD0121A42000F0C3FD1420FBF73CFDF0
:105800004FF41C51602000F0BBFD40F6060108205B
:1058100000F0B6FD40F20371302000F0B1FD01212F
:10582000312000F0ADFD0421322000F0A9FD4FF43D
:105830008171332000F0A4FD4FF44071342000F05A
:105840009FFD40F20311352000F09AFD1F21362004
:1058500000F096FD40F20371372000F091FD012128
:10586000382000F08DFD0421392000F089FD15213C
:10587000902000F085FD4FF48261102000F080FD43
:1058800040F24721112000F07BFD4FF4DE71122021
:1058900000F076FD4FF46061132000F071FD782078
:1058A000FBF7EAFC4FF48071012000F069FD4FF432
:1058B0000071022000E052E000F062FD41F2300190
:1058C000032000F05DFD08210A2000F059FD0021B1
:1058D0000C2000F055FD20210E2000F051FD00218C
:1058E0000F2000F04DFD0021202000F049FD002197
:1058F000212000F045FD3D212A2000F041FD14202B
:10590000FBF7BAFC2D21292000F03AFD00215020A0
:1059100000F036FD4DF2EF01512000F031FD002185
:10592000522000F02DFD40F23F11532000F028FDE1
:105930000021612000F024FD00216A2000F020FDFC
:105940004FF44071922000F01BFD0521932000F0E0
:1059500017FD4FF48071072000F012FD52E20E484F
:10596000808844F2315188427ED10121002000F02C
:1059700007FD0A20FBF780FC41F22861102000F0AF
:10598000FFFC0E21122000F0FBFC40F63921132011
:1059900000F0F6FC0A2001E020000020FBF76CFC80
:1059A0004021112000F0ECFC5021152000F0E8FC13
:1059B0000A20FBF761FC1E21122000F0E1FC0A2006
:1059C000FBF75AFC4FF4B151102000F0D9FC42F61D
:1059D0003921132000F0D4FC0A20FBF74DFC4FF4D2
:1059E0008071012000F0CCFC4FF44071022000F0E7
:1059F000C7FC41F23801032000F0C2FC40F2022152
:105A0000082000F0BDFC08210A2000F0B9FC0021AC
:105A1000302000F0B5FC40F20241312000F0B0FC33
:105A20004FF48371322000F0ABFC40F2035133207D
:105A300000F0A6FC4FF48271342000F0A1FC40F28B
:105A40000131352000F09CFC40F20771362000F057
:105A500097FC40F20531372000F092FC4FF40271C0
:105A6000382000F08DFC00E03EE040F60B7139205C
:105A700000F086FC0221412000F082FC4FF41C5112
:105A8000602000F07DFC0121612000F079FC4FF4E2
:105A90000471902000F074FC4FF48571922000F0A6
:105AA0006FFC0421932000F06BFC4FF48071A02068
:105AB00000F066FC0121072000F062FC2121072094
:105AC00000F05EFC2321072000F05AFC3321072060
:105AD00000F056FC40F23311072000F051FC002189
:105AE000A02000F04DFC8DE1CE48808844F2355175
:105AF00088427CD13021152000F042FC10219A20F0
:105B000000F03EFC2021112000F03AFC43F2284135
:105B1000102000F035FC0221122000F031FC41F28F
:105B20003801132000F02CFC2820FBF7A5FB1221E4
:105B3000084600F025FC2820FBF79EFB43F220419D
:105B4000102000F01DFC43F23801132000F018FC77
:105B50004620FBF791FB0021302000F011FC40F2C1
:105B60000241312000F00CFC40F20731322000F0FD
:105B700007FC4FF44171332000F002FC0421342073
:105B800000F0FEFB40F20141352000F0F9FB40F24D
:105B90000771362000F0F4FB40F20531372000F0A9
:105BA000EFFB4FF4C261382000F0EAFB4FF4C26112
:105BB000392000F0E5FB4FF48071012000F0E0FB9C
:105BC0004FF44071022000F0DBFB41F23001032072
:105BD00000F0D6FB40F60801082000F0D1FB0821B8
:105BE0000A2000F0CDFB4FF41C51602000E033E0B0
:105BF00000F0C6FB0121612000F0C2FB4FF49F7151
:105C0000902000F0BDFB4FF48071922000F0B8FBB3
:105C10004FF48071932000F0B3FB4FF44051A0206B
:105C200000F0AEFB1021A32000F0AAFB0121072009
:105C300000F0A6FB2121072000F0A2FB2321072072
:105C400000F09EFB3321072000F09AFB40F2331155
:105C5000072000F095FBD5E07248808841F663117B
:105C60008842F8D1E22000F07BFB1D2000F072FB9F
:105C7000022000F06FFB042000F06CFB642001F0B8
:105C800048F9E02000F06CFB012000F063FB0A20E3
:105C9000FBF7F2FAE02000F063FB032000F05AFB70
:105CA0000C20FBF7E9FA012000F05AFB0A20FBF771
:105CB000E3FAE62000F054FB2F2000F04BFBFF201E
:105CC00000F048FBFF2000F045FBB02000F048FB4F
:105CD000202000F03FFB002000F03CFB51490988E8
:105CE000491EC1F30F2000F035FB4E490988491EBB
:105CF00088B200F02FFB4B494988491EC1F30F20A1
:105D000000F028FB47494988491E88B200F022FB71
:105D1000002000F01FFBB42000F022FB414909885D
:105D20004231C1F30F2000F015FB3E490988423192
:105D300088B200F00FFB002000F00CFB2E2000F0DA
:105D400009FB002000F006FB002000F003FB002010
:105D500000F000FB002000F0FDFAB62000F000FB90
:105D6000304949882C31C1F30F2000F0F3FA2D4956
:105D700049882C3188B200F0EDFA002000F0EAFAF0
:105D8000172000F0E7FA152000F0E4FA002000F0F8
:105D9000E1FA002000F0DEFAF02000F0E1FA032042
:105DA00000F0D8FA292000F0DBFAD02000F0D8FA71
:105DB000002000F0CFFABE2000F0D2FA052000F05B
:105DC000C9FAFE2000F0C6FA012000F0C3FA002054
:105DD00000F0C0FA002000F0BDFA002000F0BAFA8E
:105DE000B82000F0BDFA032000F0B4FA012000F062
:105DF000B1FABA2000F0B4FA012000F0ABFA50205A
:105E000000F02CF807498879FCF776FB0122D103D2
:105E10000548FBF7AFFB0549098888B2FCF752FB40
:105E200010BD0000200000200004024004000020FB
:105E300008B5034800880090BDF8000008BD0000C8
:105E40008000006C10B50446204600F089FA0A2054
:105E500001F05FF8FFF7ECFF10BD000070B52DED0D
:105E6000048B0446BE2000F07BFA052000F072FA95
:105E70002046FAF76EFA41EC190B9FED0E0B53EC2E
:105E8000102BFAF7F4F941EC180BFAF76FFA85B218
:105E9000284600F05FFA012000F05CFAFF2000F0D5
:105EA00059FA002000F056FA002000F053FABDEC39
:105EB000048B70BD66666666666604402DE9F04137
:105EC000054600240027B848807901280BD1B64840
:105ED000808846F60401884205D0B348808841F6A0
:105EE0006311884208D1B0488079F0B9AE48808803
:105EF00041F66311884218D1082D15D2DFE805F06C
:105F00000406080A0C0E101206250DE007250BE00A
:105F1000042509E0052507E0012505E0002503E04B
:105F2000032501E0022500BF00BF9F48808849F299
:105F30004131884217D09C48808846F60401884247
:105F400011D09948808845F2103188420BD096488C
:105F5000808845F21051884205D09348808841F6E8
:105F6000631188427ED1082D1CD2DFE805F00406BB
:105F7000090C0F12151800BF14E044F0800411E062
:105F800044F040040EE044F0C0040BE044F0200470
:105F900008E044F0600405E044F0A00402E044F0AE
:105FA000E00400BF00BF8048808845F2105188425D
:105FB00001D14FF4585736277B48808845F210317D
:105FC00088420DD07848808845F21051884207D029
:105FD0007548808841F66311884201D044F0080476
:105FE0007148808846F60401884201D144F00204D9
:105FF0002146384600F0C4F96B48808841F66311A9
:1060000088421DD004F0200068B1674800886649C6
:106010004988884214DA64480688408862490880C2
:10602000084646800CE0604800885F4949888842FD
:1060300006DD5D48068840885B4908800846468042
:106040005948808845F21051884254D156494889B0
:1060500000F086F9002000F07DF953494989491C78
:1060600088B200E076E000F07BF9002000F072F9E1
:106070004D494989891C88B200F072F94A4909885A
:10608000491EC1F30F2000F065F947494989C91C31
:1060900088B200F065F944490978491EC8B200F099
:1060A00059F94149888900F05BF9002000F052F964
:1060B0003D498989491C88B200F052F9002000F05E
:1060C00049F939498989891C88B200F049F936496A
:1060D0004988491EC1F30F2000F03CF932498989F3
:1060E000C91C88B200F03CF92F498978491EC8B212
:1060F00000F030F955E02C49488900F031F90020D2
:1061000000F028F9002000F025F927490988491EE8
:10611000C1F30F2000F01EF923490978491EC8B2C7
:1061200000F018F92049888900F01AF9002000F0E1
:1061300011F9002000F00EF91B494988491EC1F3EE
:106140000F2000F007F918498978491EC8B200F0FD
:1061500001F926E0082D1CD2DFE805F004070A0D3E
:106160000F12151844F0300413E044F0100410E04E
:1061700044F020040DE000BF0BE044F0380408E0D8
:1061800044F0280405E044F0180402E044F0080458
:1061900000BF00BF032744F480542146384600F076
:1061A000EFF8BDE8F08100002000002070B5044643
:1061B0000D466748808849F24131884205D06448DD
:1061C000808845F21031884214D16149488900F035
:1061D000C7F8201200F0BEF8E0B200F0BBF85C494E
:1061E000888900F0BDF8281200F0B4F8E8B200F099
:1061F000B1F8ABE05648808846F6040188421DD1CC
:1062000053488079012804D151480088401E001B62
:1062100084B24F49488900F0A3F8201200F09AF8A0
:10622000E0B200F097F84A49888900F099F82812FE
:1062300000F090F8E8B200F08DF887E044488088DC
:1062400041F66311884247D141488079A8B9404856
:106250000088401E001B84B23D49488900F080F848
:10626000002000F077F8002000F074F8201200F011
:1062700071F8E0B200F06EF816E03549488900F098
:106280006FF8201200F066F8E0B200F063F83049D1
:106290000988491EC1F30F2000F05CF82C490978E9
:1062A000491EC8B200F056F82949888900F058F80C
:1062B000281200F04FF8E8B200F04CF82449498861
:1062C000491EC1F30F2000F045F821498978491E85
:1062D000C8B200F03FF839E01D48808845F21051FF
:1062E000884220D11A49488900F03AF8201200F07B
:1062F00031F817494989491C88B200F031F8E0B2F9
:1063000000F028F81249888900F02AF8281200F0D5
:1063100021F80F498989491C88B200F021F8E8B2B8
:1063200000F018F812E00A488079012804D10848E2
:106330000088401E001B84B205494889214600F0B0
:106340001FF803498889294600F01AF870BD00003B
:106350002000002000BF0149088070478000006CC9
:1063600000BF0149088070477E00006C0248008928
:106370000249088070470000200000207E00006C69
:10638000034A10804FF0D842A2F8801070470000F6
:106390007E00006C10B504460E2221460248F9F733
:1063A00042FF002010BD0000200000201FB500208B
:1063B00000900190029003901548164908604FF430
:1063C000803048600021134881600161017680F8C7
:1063D00020104FF08051C16200218162C160012113
:1063E000C16180F830104161FAF74CFB08B1FAF74F
:1063F00009FA0020009001200190002002906946D7
:106400000448FAF775FA08B1FAF7FCF91FBD000065
:1064100000200140300000201FB5002000900190B6
:10642000029003901548164908604FF48030486088
:106430000021134881600161017680F820104FF03F
:106440008051C162091181620021C1600121C161D5
:1064500080F830104161FAF715FB08B1FAF7D2F96C
:10646000002000900120019000200290694604481D
:10647000FAF73EFA08B1FAF7C5F91FBD002101404D
:10648000780000201FB5002000900190029003903A
:106490001548164908604FF48030486000211348C1
:1064A00081600161017680F820104FF08051C16257
:1064B000C91081620021C1600121C16180F83010E2
:1064C0004161FAF7DFFA08B1FAF79CF90020009071
:1064D000012001900020029069460448FAF708FA6A
:1064E00008B1FAF78FF91FBD00220140C00000205B
:1064F00008B500BF002000901248006840F48000FA
:10650000104908600846006800F48000009000BF51
:1065100000BF002211463820FBF7BCF83820FBF7FB
:10652000A9F8002211463920FBF7B4F83920FBF70F
:10653000A1F8002211463A20FBF7ACF83A20FBF70D
:1065400099F808BD3038024000B58FB01C2108A86A
:10655000F9F782FE1C2101A8F9F77EFE4FF02040DA
:1065600020490860204848600620886000211D48B6
:10657000C16001611021416100218161C16101623D
:1065800041624FF4805181620021C1624FF4804129
:10659000016300214163816341640F2008900990E9
:1065A00019200A9000200B9010200C9011200D90C3
:1065B00000200E90092001900F20029008200390E7
:1065C00000200490102005901120069000200790D4
:1065D00001AA08A90348FBF755FC08B1FAF712F91C
:1065E0000FB000BD28020020040100A000B587B054
:1065F000142102A8F9F730FE00BF002001904C489A
:10660000006840F010004A4908600846006800F041
:106610001000019000BF00BF00BF0020019008469D
:10662000006840F0800008600846006800F08000C4
:10663000019000BF00BF00BF002001900846006825
:1066400040F0010008600846006800F00100019079
:1066500000BF00BF00BF002001900846006840F066
:10666000200008600846006800F02000019000BF8C
:1066700000BF00BF002001900846006840F0020003
:1066800008600846006800F00200019000BF00BFEB
:1066900000BF002001900846006840F00800086034
:1066A0000846006800F00800019000BF00BF00BF6E
:1066B000002001900846006840F04000086008464D
:1066C000006800F04000019000BF00BF00224FF4BE
:1066D00000411848FAF74EFF3E2002900020039038
:1066E0000120049002A91448FAF742FE40200290CB
:1066F00000200390049002A90F48FAF739FE022007
:1067000002900E4803900020049002A90C48FAF76A
:106710002FFE4FF4004002900120039000200490CF
:10672000059002A90348FAF723FE07B000BD000058
:1067300030380240000402400010024000001110F6
:106740000000024000B595B0002011901290139007
:1067500014900F9010901C2108A8F9F77DFD2021BE
:106760006846F9F779FD33483349086001204860ED
:106770000021314881601D21C1600021016141611A
:106780008161FBF75FFC08B1FAF73CF84FF48050E9
:10679000119011A92848FBF7A3FC08B1FAF732F8C9
:1067A0002548FBF755FD08B1FAF72CF800200F90AB
:1067B00010900FA92048FBF7EBFB08B1FAF722F87D
:1067C000002008900920099000200A900B900C905E
:1067D0000D900E90002208A91748FBF705FD08B19F
:1067E000FAF710F813200990042208A91248FBF7C1
:1067F000FBFC08B1FAF706F81D200990082208A949
:106800000D48FBF7F1FC08B1F9F7FCFF0020009000
:1068100001900290039004904FF4005005900020E6
:10682000079069460448FBF778FB08B1F9F7EAFFDF
:1068300015B000BD000001407802002010B50B48E3
:106840000B4908604FF4E13048600021084881603E
:10685000C16001610C21416100218161C161FBF7CF
:10686000B1FD08B1F9F7CEFF10BD000000100140E6
:10687000C002002000BFFEE710B5FBF7A5F810BD71
:106880007047704710B5FAF781FE10BD00B593B0A0
:10689000302107A8F9F7E0FC142102A8F9F7DCFC85
:1068A00000BF002001902548006840F08050234937
:1068B00008600846006800F08050019000BF00BFEB
:1068C00000BF002001901E48006840F480401C4931
:1068D00008600846006800F48040019000BF00BFD7
:1068E000012007900004089002200D9041050E91B0
:1068F00004210F91A82110910221119104211291DC
:1069000007A8FBF771F808B1F9F77CFF0F20029098
:1069100002200390002004904FF4A05005904FF403
:1069200080500690052102A8FAF708FF08B1F9F790
:1069300069FFFAF7C5FF13B000BD00004038024000
:10694000007000400548006840F47000034908608A
:106950004FF00060014980390860704788ED00E021
:1069600010B50268294B98420ED0B0F1804F0BD081
:10697000274B984208D0274B984205D0264B984287
:1069800002D0264B984203D122F070024B681A4382
:106990001E4B984220D0B0F1804F1DD01C4B984226
:1069A0001AD01C4B984217D01B4B984214D01B4B4B
:1069B000984211D01A4B98420ED01A4B98420BD0E5
:1069C000194B984208D0194B984205D0184B984261
:1069D00002D0184B984203D122F44072CB681A437C
:1069E00022F080034C6943EA040202608B68C362B0
:1069F0000B688362054B984202D0084B984201D144
:106A00000B6903630123436110BD000000000140D6
:106A10000004004000080040000C00400004014059
:106A2000004001400044014000480140001800407F
:106A3000001C00400020004030B501F01F0501247B
:106A400004FA05F3046A9C430462046A01F01F051A
:106A500002FA05F52C43046230BD30B50C4681685E
:106A600021F47F4142EA032525432943816030BD5B
:106A70000A46816821F0700142F0070319438160E2
:106A80007047000030B5056A25F001050562026A0D
:106A90004368846924F0700424F003040D682C43D7
:106AA00022F002028D682A43104DA84200D103E073
:106AB0000F4DA84206D100BF22F00802CD682A433C
:106AC00022F00402094DA84202D0094DA84207D184
:106AD00023F4807323F400734D692B438D692B439A
:106AE000436084614D684563026230BD000001402F
:106AF0000004014030B5056A25F010050562026A00
:106B00004368846924F4E04424F440740D6844EA42
:106B1000052422F020028D6842EA0512124DA84297
:106B200000D103E0114DA84207D100BF22F080023E
:106B3000CD6842EA051222F040020B4DA84202D075
:106B40000A4DA84209D123F4806323F400634D6900
:106B500043EA85038D6943EA8503436084614D6898
:106B60008563026230BD0000000001400004014066
:106B700030B5056A25F480750562026A4368C46908
:106B800024F0700424F003040D682C4322F40072F6
:106B90008D6842EA0522124DA84200D103E0114D52
:106BA000A84207D100BF22F40062CD6842EA052264
:106BB00022F480620A4DA84202D00A4DA84209D1AF
:106BC00023F4805323F400534D6943EA05138D6980
:106BD00043EA05134360C4614D68C563026230BD7A
:106BE000000001400004014030B5056A25F48055DD
:106BF0000562036A4468C26922F4E04222F44072EA
:106C00000D6842EA052223F400538D6843EA0533F8
:106C1000084DA84202D0084DA84204D124F4804473
:106C20004D6944EA85144460C2614D68056403629D
:106C300030BD0000000001400004014030B50B46AB
:106C40001446026A056A25F001050562816921F092
:106C5000F00141EA041122F00A021A438161026242
:106C600030BD30B50B461446056A25F010050562A7
:106C70008169026A21F4704141EA043122F0A002E4
:106C800042EA03128161026230BD00002DE9F84F33
:106C900004462068006920F44050E16808432168F8
:106CA00008612169A068084361690843E1690843F4
:106CB00000902068C06849F20C618843009908433D
:106CC0002168C8602068406920F44070A1690843C9
:106CD0002168486176492068884203D07549206858
:106CE000884203D1FAF708FE814602E0FAF7F4FD84
:106CF0008146E069B0F5004F6CD102206168A0FBCD
:106D0000015003461920A9FB007001462A46384667
:106D1000F9F758FA6421B0FBF1F04FEA001A0220AB
:106D20006168A0FB01510B461920A9FB00712A469E
:106D30003846F9F747FA834602206168A0FB015004
:106D400003461920A9FB00712A463846F9F73AFA9A
:106D50006421B0FBF1F000EBC00101EB0010ABEBE4
:106D60008000322101EBC0006421B0FBF1F000F0A3
:106D7000F8000AEB400A02206168A0FB01500346BC
:106D80001920A9FB007001462A463846F9F71AFA7D
:106D9000834602206168A0FB015003461920A9FB2D
:106DA00000712A463846F9F70DFA6421B0FBF1F07C
:106DB00000EBC00101EB0010ABEB8000322101EBD6
:106DC000C0006421B0FBF1F000F0070050442168DE
:106DD00088606AE004206168A0FB01500346192026
:106DE000A9FB007001462A463846F9F7EBF98246BE
:106DF00004206168A0FB015003461920A9FB007024
:106E000001462A463846F9F7DDF96421B0FBF1F076
:106E100000EBC00101EB0010AAEB8000322101EB76
:106E200000106421B0FBF1F000F0F00A042061686A
:106E3000A0FB017003461920A9FB00513A462846E1
:106E4000F9F7C0F96421B0FBF1F00AEB001A042055
:106E50006168A0FB01510B461920A9FB00712A466D
:106E60003846F9F7AFF9834604206168A0FB01506A
:106E700003461920A9FB007001462A463846F9F757
:106E8000A1F96421B0FBF1F000EBC00101EB0010AF
:106E9000ABEB8000322101EB00106421B0FBF1F07C
:106EA00000F00F00504421688860BDE8F88F0000B2
:106EB000001001400014014000BFFEE702480068D6
:106EC000C0F30220704700000CED00E010B5002870
:106ED00004DB0A07130E054A135406E00A07140ED2
:106EE000034A00F00F031B1FD45410BD00E400E060
:106EF00018ED00E002E008C8121F08C1002AFAD10C
:106F000070477047002001E001C1121F002AFBD129
:106F100070473CB54FF0E024A46901944FF0E024A1
:106F20006469621C08B1012400E00024041B54437E
:106F30004FF47A75B4FBF5F30021019C009400BF77
:106F40004FF0E024A4690194DDE90045AC4204D28D
:106F5000009C1444019D641B02E0DDE90045641BB4
:106F60002144019C00948B42EAD83CBDADF5C25D42
:106F7000FAF718FBFFF78AFCFFF738FBFFF7B8FAC0
:106F8000FFF7E2FAFFF75AFCFFF710FAFFF744FAAF
:106F9000FFF778FAFFF7D6FB01200DF5805181F855
:106FA000360801F50360FFF7F5F9FBF791FB1F20A9
:106FB000FBF788FA4FF4806241F2300169440F48D0
:106FC000F9F7A0FE4FF480620DF503610C48F9F764
:106FD00099FE4FF480620CA90A48F9F793FE00214C
:106FE0000948FBF769F904210748FBF765F908210F
:106FF0000548FBF761F900BFFEE700003000002004
:1070000078000020C0000020780200200006101642
:10701000000610160000000000000000010203043A
:107020000607080900000000010203044C70000874
:107030000000002020000000F46E00086C700008C2
:1070400020000020E8820000046F0008000000001B
:107050000000000000000000000000000000000030
:0C70600010000000010000000024F400FB
:040000050800018965
:00000001FF
