Component: ARM Compiler 5.06 update 7 (build 960) Tool: armlink [4d3601]

==============================================================================

Section Cross References

    startup_stm32f407xx.o(RESET) refers to startup_stm32f407xx.o(STACK) for __initial_sp
    startup_stm32f407xx.o(RESET) refers to startup_stm32f407xx.o(.text) for Reset_Handler
    startup_stm32f407xx.o(RESET) refers to stm32f4xx_it.o(i.NMI_Handler) for NMI_Handler
    startup_stm32f407xx.o(RESET) refers to context_rvds.o(.text) for HardFault_Handler
    startup_stm32f407xx.o(RESET) refers to stm32f4xx_it.o(i.MemManage_Handler) for MemManage_Handler
    startup_stm32f407xx.o(RESET) refers to stm32f4xx_it.o(i.BusFault_Handler) for BusFault_Handler
    startup_stm32f407xx.o(RESET) refers to stm32f4xx_it.o(i.UsageFault_Handler) for UsageFault_Handler
    startup_stm32f407xx.o(RESET) refers to stm32f4xx_it.o(i.DebugMon_Handler) for DebugMon_Handler
    startup_stm32f407xx.o(RESET) refers to board.o(i.SysTick_Handler) for SysTick_Handler
    startup_stm32f407xx.o(.text) refers to system_stm32f4xx.o(i.SystemInit) for SystemInit
    startup_stm32f407xx.o(.text) refers to entry.o(.ARM.Collect$$$$00000000) for __main
    main.o(i.SystemClock_Config) refers to memseta.o(.text) for __aeabi_memclr4
    main.o(i.SystemClock_Config) refers to stm32f4xx_hal_rcc.o(i.HAL_RCC_OscConfig) for HAL_RCC_OscConfig
    main.o(i.SystemClock_Config) refers to stm32f4xx_hal_rcc.o(i.HAL_RCC_ClockConfig) for HAL_RCC_ClockConfig
    main.o(i.SystemClock_Config) refers to stm32f4xx_hal_rcc.o(i.HAL_RCC_EnableCSS) for HAL_RCC_EnableCSS
    main.o(i.main) refers to stm32f4xx_hal.o(i.HAL_Init) for HAL_Init
    main.o(i.main) refers to main.o(i.SystemClock_Config) for SystemClock_Config
    main.o(i.main) refers to gpio.o(i.MX_GPIO_Init) for MX_GPIO_Init
==============================================================================

Removing Unused input sections from the image.

    Removing startup_stm32f407xx.o(HEAP), (512 bytes).
    Removing main.o(.rev16_text), (4 bytes).
    Removing main.o(.revsh_text), (4 bytes).
    Removing main.o(.rrx_text), (6 bytes).
    Removing gpio.o(.rev16_text), (4 bytes).
    Removing gpio.o(.revsh_text), (4 bytes).
    Removing gpio.o(.rrx_text), (6 bytes).
    Removing usart.o(.rev16_text), (4 bytes).
    Removing usart.o(.revsh_text), (4 bytes).
    Removing usart.o(.rrx_text), (6 bytes).
    Removing usart.o(i.HAL_UART_MspDeInit), (44 bytes).
    Removing stm32f4xx_it.o(.rev16_text), (4 bytes).
    Removing stm32f4xx_it.o(.revsh_text), (4 bytes).
    Removing stm32f4xx_it.o(.rrx_text), (6 bytes).
    Removing stm32f4xx_hal_msp.o(.rev16_text), (4 bytes).
    Removing stm32f4xx_hal_msp.o(.revsh_text), (4 bytes).
    Removing stm32f4xx_hal_msp.o(.rrx_text), (6 bytes).
    Removing stm32f4xx_hal_rcc.o(.rev16_text), (4 bytes).
==============================================================================

Image Symbol Table

    Local Symbols

    Symbol Name                              Value     Ov Type        Size  Object(Section)

    ../Core/Src/gpio.c                       0x00000000   Number         0  gpio.o ABSOLUTE
    ../Core/Src/main.c                       0x00000000   Number         0  main.o ABSOLUTE
    ../Core/Src/stm32f4xx_hal_msp.c          0x00000000   Number         0  stm32f4xx_hal_msp.o ABSOLUTE
    ../Core/Src/stm32f4xx_it.c               0x00000000   Number         0  stm32f4xx_it.o ABSOLUTE
    ../Core/Src/system_stm32f4xx.c           0x00000000   Number         0  system_stm32f4xx.o ABSOLUTE
    ../Core/Src/usart.c                      0x00000000   Number         0  usart.o ABSOLUTE
    ../Drivers/STM32F4xx_HAL_Driver/Src/stm32f4xx_hal.c 0x00000000   Number         0  stm32f4xx_hal.o ABSOLUTE
    ../Drivers/STM32F4xx_HAL_Driver/Src/stm32f4xx_hal_cortex.c 0x00000000   Number         0  stm32f4xx_hal_cortex.o ABSOLUTE
    ../Drivers/STM32F4xx_HAL_Driver/Src/stm32f4xx_hal_dma.c 0x00000000   Number         0  stm32f4xx_hal_dma.o ABSOLUTE
    ../Drivers/STM32F4xx_HAL_Driver/Src/stm32f4xx_hal_dma_ex.c 0x00000000   Number         0  stm32f4xx_hal_dma_ex.o ABSOLUTE
    ../Drivers/STM32F4xx_HAL_Driver/Src/stm32f4xx_hal_exti.c 0x00000000   Number         0  stm32f4xx_hal_exti.o ABSOLUTE
    ../Drivers/STM32F4xx_HAL_Driver/Src/stm32f4xx_hal_flash.c 0x00000000   Number         0  stm32f4xx_hal_flash.o ABSOLUTE
    ../Drivers/STM32F4xx_HAL_Driver/Src/stm32f4xx_hal_flash_ex.c 0x00000000   Number         0  stm32f4xx_hal_flash_ex.o ABSOLUTE
    ../Drivers/STM32F4xx_HAL_Driver/Src/stm32f4xx_hal_flash_ramfunc.c 0x00000000   Number         0  stm32f4xx_hal_flash_ramfunc.o ABSOLUTE
    ../Drivers/STM32F4xx_HAL_Driver/Src/stm32f4xx_hal_gpio.c 0x00000000   Number         0  stm32f4xx_hal_gpio.o ABSOLUTE
    ../Drivers/STM32F4xx_HAL_Driver/Src/stm32f4xx_hal_pwr.c 0x00000000   Number         0  stm32f4xx_hal_pwr.o ABSOLUTE
    ../Drivers/STM32F4xx_HAL_Driver/Src/stm32f4xx_hal_pwr_ex.c 0x00000000   Number         0  stm32f4xx_hal_pwr_ex.o ABSOLUTE
    ../Drivers/STM32F4xx_HAL_Driver/Src/stm32f4xx_hal_rcc.c 0x00000000   Number         0  stm32f4xx_hal_rcc.o ABSOLUTE
    ../Drivers/STM32F4xx_HAL_Driver/Src/stm32f4xx_hal_rcc_ex.c 0x00000000   Number         0  stm32f4xx_hal_rcc_ex.o ABSOLUTE
    ../Drivers/STM32F4xx_HAL_Driver/Src/stm32f4xx_hal_tim.c 0x00000000   Number         0  stm32f4xx_hal_tim.o ABSOLUTE
    ../Drivers/STM32F4xx_HAL_Driver/Src/stm32f4xx_hal_tim_ex.c 0x00000000   Number         0  stm32f4xx_hal_tim_ex.o ABSOLUTE
    ../Drivers/STM32F4xx_HAL_Driver/Src/stm32f4xx_hal_uart.c 0x00000000   Number         0  stm32f4xx_hal_uart.o ABSOLUTE
    ../Middlewares/Third_Party/RealThread_RTOS/bsp/_template/cubemx_config/board.c 0x00000000   Number         0  board.o ABSOLUTE
    ../Middlewares/Third_Party/RealThread_RTOS/components/device/device.c 0x00000000   Number         0  device.o ABSOLUTE
    ../Middlewares/Third_Party/RealThread_RTOS/libcpu/arm/cortex-m4/context_rvds.S 0x00000000   Number         0  context_rvds.o ABSOLUTE
    ../Middlewares/Third_Party/RealThread_RTOS/libcpu/arm/cortex-m4/cpuport.c 0x00000000   Number         0  cpuport.o ABSOLUTE
    ../Middlewares/Third_Party/RealThread_RTOS/src/clock.c 0x00000000   Number         0  clock.o ABSOLUTE
    ../Middlewares/Third_Party/RealThread_RTOS/src/components.c 0x00000000   Number         0  components.o ABSOLUTE
    ../Middlewares/Third_Party/RealThread_RTOS/src/cpu.c 0x00000000   Number         0  cpu.o ABSOLUTE
    ../Middlewares/Third_Party/RealThread_RTOS/src/idle.c 0x00000000   Number         0  idle.o ABSOLUTE
    ../Middlewares/Third_Party/RealThread_RTOS/src/ipc.c 0x00000000   Number         0  ipc.o ABSOLUTE
    ../Middlewares/Third_Party/RealThread_RTOS/src/irq.c 0x00000000   Number         0  irq.o ABSOLUTE
    ../Middlewares/Third_Party/RealThread_RTOS/src/kservice.c 0x00000000   Number         0  kservice.o ABSOLUTE
    ../Middlewares/Third_Party/RealThread_RTOS/src/mem.c 0x00000000   Number         0  mem.o ABSOLUTE
    ../Middlewares/Third_Party/RealThread_RTOS/src/memheap.c 0x00000000   Number         0  memheap.o ABSOLUTE
    ../Middlewares/Third_Party/RealThread_RTOS/src/mempool.c 0x00000000   Number         0  mempool.o ABSOLUTE
    ../Middlewares/Third_Party/RealThread_RTOS/src/object.c 0x00000000   Number         0  object.o ABSOLUTE
    ../Middlewares/Third_Party/RealThread_RTOS/src/scheduler.c 0x00000000   Number         0  scheduler.o ABSOLUTE
    ../Middlewares/Third_Party/RealThread_RTOS/src/slab.c 0x00000000   Number         0  slab.o ABSOLUTE
    ../Middlewares/Third_Party/RealThread_RTOS/src/thread.c 0x00000000   Number         0  thread.o ABSOLUTE
    ../Middlewares/Third_Party/RealThread_RTOS/src/timer.c 0x00000000   Number         0  timer.o ABSOLUTE
    ../clib/microlib/division.c              0x00000000   Number         0  uldiv.o ABSOLUTE
    ../clib/microlib/init/entry.s            0x00000000   Number         0  entry11a.o ABSOLUTE
    ../clib/microlib/init/entry.s            0x00000000   Number         0  entry9a.o ABSOLUTE
    ../clib/microlib/init/entry.s            0x00000000   Number         0  entry10b.o ABSOLUTE
    ../clib/microlib/init/entry.s            0x00000000   Number         0  entry9b.o ABSOLUTE
    ../clib/microlib/init/entry.s            0x00000000   Number         0  entry10a.o ABSOLUTE
    ../clib/microlib/init/entry.s            0x00000000   Number         0  entry11b.o ABSOLUTE
    ../clib/microlib/init/entry.s            0x00000000   Number         0  entry12a.o ABSOLUTE
    ../clib/microlib/init/entry.s            0x00000000   Number         0  entry12b.o ABSOLUTE
    ../clib/microlib/init/entry.s            0x00000000   Number         0  entry7a.o ABSOLUTE
    ../clib/microlib/init/entry.s            0x00000000   Number         0  entry5.o ABSOLUTE
    ../clib/microlib/init/entry.s            0x00000000   Number         0  entry7b.o ABSOLUTE
    ../clib/microlib/init/entry.s            0x00000000   Number         0  entry2.o ABSOLUTE
    ../clib/microlib/init/entry.s            0x00000000   Number         0  entry.o ABSOLUTE
    ../clib/microlib/init/entry.s            0x00000000   Number         0  entry8a.o ABSOLUTE
    ../clib/microlib/init/entry.s            0x00000000   Number         0  entry8b.o ABSOLUTE
    ../clib/microlib/longlong.c              0x00000000   Number         0  llushr.o ABSOLUTE
    ../clib/microlib/longlong.c              0x00000000   Number         0  llshl.o ABSOLUTE
    ../clib/microlib/string/memset.c         0x00000000   Number         0  memseta.o ABSOLUTE
    ..\Core\Src\gpio.c                       0x00000000   Number         0  gpio.o ABSOLUTE
    ..\Core\Src\main.c                       0x00000000   Number         0  main.o ABSOLUTE
    ..\Core\Src\stm32f4xx_hal_msp.c          0x00000000   Number         0  stm32f4xx_hal_msp.o ABSOLUTE
    ..\Core\Src\stm32f4xx_it.c               0x00000000   Number         0  stm32f4xx_it.o ABSOLUTE
    ..\Core\Src\system_stm32f4xx.c           0x00000000   Number         0  system_stm32f4xx.o ABSOLUTE
    ..\Core\Src\usart.c                      0x00000000   Number         0  usart.o ABSOLUTE
    ..\Drivers\STM32F4xx_HAL_Driver\Src\stm32f4xx_hal.c 0x00000000   Number         0  stm32f4xx_hal.o ABSOLUTE
    ..\Drivers\STM32F4xx_HAL_Driver\Src\stm32f4xx_hal_cortex.c 0x00000000   Number         0  stm32f4xx_hal_cortex.o ABSOLUTE
    ..\Drivers\STM32F4xx_HAL_Driver\Src\stm32f4xx_hal_dma.c 0x00000000   Number         0  stm32f4xx_hal_dma.o ABSOLUTE
    ..\Drivers\STM32F4xx_HAL_Driver\Src\stm32f4xx_hal_dma_ex.c 0x00000000   Number         0  stm32f4xx_hal_dma_ex.o ABSOLUTE
    ..\Drivers\STM32F4xx_HAL_Driver\Src\stm32f4xx_hal_exti.c 0x00000000   Number         0  stm32f4xx_hal_exti.o ABSOLUTE
    ..\Drivers\STM32F4xx_HAL_Driver\Src\stm32f4xx_hal_flash.c 0x00000000   Number         0  stm32f4xx_hal_flash.o ABSOLUTE
    ..\Drivers\STM32F4xx_HAL_Driver\Src\stm32f4xx_hal_flash_ex.c 0x00000000   Number         0  stm32f4xx_hal_flash_ex.o ABSOLUTE
    ..\Drivers\STM32F4xx_HAL_Driver\Src\stm32f4xx_hal_flash_ramfunc.c 0x00000000   Number         0  stm32f4xx_hal_flash_ramfunc.o ABSOLUTE
    ..\Drivers\STM32F4xx_HAL_Driver\Src\stm32f4xx_hal_gpio.c 0x00000000   Number         0  stm32f4xx_hal_gpio.o ABSOLUTE
    ..\Drivers\STM32F4xx_HAL_Driver\Src\stm32f4xx_hal_pwr.c 0x00000000   Number         0  stm32f4xx_hal_pwr.o ABSOLUTE
    ..\Drivers\STM32F4xx_HAL_Driver\Src\stm32f4xx_hal_pwr_ex.c 0x00000000   Number         0  stm32f4xx_hal_pwr_ex.o ABSOLUTE
    ..\Drivers\STM32F4xx_HAL_Driver\Src\stm32f4xx_hal_rcc.c 0x00000000   Number         0  stm32f4xx_hal_rcc.o ABSOLUTE
    ..\Drivers\STM32F4xx_HAL_Driver\Src\stm32f4xx_hal_rcc_ex.c 0x00000000   Number         0  stm32f4xx_hal_rcc_ex.o ABSOLUTE
    ..\Drivers\STM32F4xx_HAL_Driver\Src\stm32f4xx_hal_tim.c 0x00000000   Number         0  stm32f4xx_hal_tim.o ABSOLUTE
    ..\Drivers\STM32F4xx_HAL_Driver\Src\stm32f4xx_hal_tim_ex.c 0x00000000   Number         0  stm32f4xx_hal_tim_ex.o ABSOLUTE
    ..\Drivers\STM32F4xx_HAL_Driver\Src\stm32f4xx_hal_uart.c 0x00000000   Number         0  stm32f4xx_hal_uart.o ABSOLUTE
    ..\Middlewares\Third_Party\RealThread_RTOS\bsp\_template\cubemx_config\board.c 0x00000000   Number         0  board.o ABSOLUTE
    dc.s                                     0x00000000   Number         0  dc.o ABSOLUTE
    handlers.s                               0x00000000   Number         0  handlers.o ABSOLUTE
    init.s                                   0x00000000   Number         0  init.o ABSOLUTE
    startup_stm32f407xx.s                    0x00000000   Number         0  startup_stm32f407xx.o ABSOLUTE
    RESET                                    0x08000000   Section      392  startup_stm32f407xx.o(RESET)
    .ARM.Collect$$$$00000000                 0x08000188   Section        0  entry.o(.ARM.Collect$$$$00000000)
    .ARM.Collect$$$$00000001                 0x08000188   Section        4  entry2.o(.ARM.Collect$$$$00000001)
    .ARM.Collect$$$$00000004                 0x0800018c   Section        4  entry5.o(.ARM.Collect$$$$00000004)
    .ARM.Collect$$$$00000008                 0x08000190   Section        0  entry7b.o(.ARM.Collect$$$$00000008)
    .ARM.Collect$$$$0000000A                 0x08000190   Section        0  entry8b.o(.ARM.Collect$$$$0000000A)
    .ARM.Collect$$$$0000000B                 0x08000190   Section        8  entry9a.o(.ARM.Collect$$$$0000000B)
    .ARM.Collect$$$$0000000E                 0x08000198   Section        4  entry12b.o(.ARM.Collect$$$$0000000E)
    .ARM.Collect$$$$0000000F                 0x0800019c   Section        0  entry10a.o(.ARM.Collect$$$$0000000F)
    .ARM.Collect$$$$00000011                 0x0800019c   Section        0  entry11a.o(.ARM.Collect$$$$00000011)
    .ARM.Collect$$$$00002712                 0x0800019c   Section        4  entry2.o(.ARM.Collect$$$$00002712)
    __lit__00000000                          0x0800019c   Data           4  entry2.o(.ARM.Collect$$$$00002712)
    .text                                    0x080001a0   Section       36  startup_stm32f407xx.o(.text)
    $v0                                      0x080001a0   Number         0  startup_stm32f407xx.o(.text)
    .text                                    0x080001c4   Section      308  context_rvds.o(.text)
    $v0                                      0x080001c4   Number         0  context_rvds.o(.text)
    .text                                    0x080002f8   Section        0  uldiv.o(.text)
    .text                                    0x0800035a   Section        0  memseta.o(.text)
    .text                                    0x0800037e   Section        0  llshl.o(.text)
    .text                                    0x0800039c   Section        0  llushr.o(.text)
    .text                                    0x080003bc   Section       36  init.o(.text)
    i.$Sub$$main                             0x080003e0   Section        0  components.o(i.$Sub$$main)
    i.BusFault_Handler                       0x080003ea   Section        0  stm32f4xx_it.o(i.BusFault_Handler)
    i.DebugMon_Handler                       0x080003ec   Section        0  stm32f4xx_it.o(i.DebugMon_Handler)
    i.Error_Handler                          0x080003ee   Section        0  main.o(i.Error_Handler)
    i.HAL_GPIO_Init                          0x080003f4   Section        0  stm32f4xx_hal_gpio.o(i.HAL_GPIO_Init)
    i.HAL_GetTick                            0x080005e4   Section        0  stm32f4xx_hal.o(i.HAL_GetTick)
    i.HAL_Init                               0x080005f0   Section        0  stm32f4xx_hal.o(i.HAL_Init)
    i.HAL_InitTick                           0x08000624   Section        0  stm32f4xx_hal.o(i.HAL_InitTick)
    i.HAL_MspInit                            0x08000664   Section        0  stm32f4xx_hal_msp.o(i.HAL_MspInit)
    i.HAL_NVIC_SetPriority                   0x08000694   Section        0  stm32f4xx_hal_cortex.o(i.HAL_NVIC_SetPriority)
    i.HAL_NVIC_SetPriorityGrouping           0x080006d4   Section        0  stm32f4xx_hal_cortex.o(i.HAL_NVIC_SetPriorityGrouping)
    i.HAL_RCC_CSSCallback                    0x080006f8   Section        0  stm32f4xx_hal_rcc.o(i.HAL_RCC_CSSCallback)
    i.HAL_RCC_ClockConfig                    0x080006fc   Section        0  stm32f4xx_hal_rcc.o(i.HAL_RCC_ClockConfig)
    i.HAL_RCC_EnableCSS                      0x08000830   Section        0  stm32f4xx_hal_rcc.o(i.HAL_RCC_EnableCSS)
    i.HAL_RCC_GetHCLKFreq                    0x0800083c   Section        0  stm32f4xx_hal_rcc.o(i.HAL_RCC_GetHCLKFreq)
    i.HAL_RCC_GetPCLK1Freq                   0x08000848   Section        0  stm32f4xx_hal_rcc.o(i.HAL_RCC_GetPCLK1Freq)
    i.HAL_RCC_GetPCLK2Freq                   0x08000868   Section        0  stm32f4xx_hal_rcc.o(i.HAL_RCC_GetPCLK2Freq)
    i.HAL_RCC_GetSysClockFreq                0x08000888   Section        0  stm32f4xx_hal_rcc.o(i.HAL_RCC_GetSysClockFreq)
    i.HAL_RCC_NMI_IRQHandler                 0x080008e8   Section        0  stm32f4xx_hal_rcc.o(i.HAL_RCC_NMI_IRQHandler)
    i.HAL_RCC_OscConfig                      0x08000904   Section        0  stm32f4xx_hal_rcc.o(i.HAL_RCC_OscConfig)
    i.HAL_SYSTICK_Config                     0x08000c70   Section        0  stm32f4xx_hal_cortex.o(i.HAL_SYSTICK_Config)
    i.HAL_UART_Init                          0x08000c98   Section        0  stm32f4xx_hal_uart.o(i.HAL_UART_Init)
    i.HAL_UART_MspInit                       0x08000cfc   Section        0  usart.o(i.HAL_UART_MspInit)
    i.HAL_UART_Transmit                      0x08000d68   Section        0  stm32f4xx_hal_uart.o(i.HAL_UART_Transmit)
    i.MX_GPIO_Init                           0x08000e1c   Section        0  gpio.o(i.MX_GPIO_Init)
    i.MX_USART1_UART_Init                    0x08000e68   Section        0  usart.o(i.MX_USART1_UART_Init)
    i.MemManage_Handler                      0x08000ea0   Section        0  stm32f4xx_it.o(i.MemManage_Handler)
    i.NMI_Handler                            0x08000ea2   Section        0  stm32f4xx_it.o(i.NMI_Handler)
    i.SysTick_Handler                        0x08000ea8   Section        0  board.o(i.SysTick_Handler)
    i.SystemClock_Config                     0x08000ebc   Section        0  main.o(i.SystemClock_Config)
    i.SystemCoreClockUpdate                  0x08000f50   Section        0  system_stm32f4xx.o(i.SystemCoreClockUpdate)
    i.SystemInit                             0x08000fc8   Section        0  system_stm32f4xx.o(i.SystemInit)
    i.UART_SetConfig                         0x08000fd8   Section        0  stm32f4xx_hal_uart.o(i.UART_SetConfig)
    UART_SetConfig                           0x08000fd9   Thumb Code   258  stm32f4xx_hal_uart.o(i.UART_SetConfig)
    i.UART_WaitOnFlagUntilTimeout            0x080010e4   Section        0  stm32f4xx_hal_uart.o(i.UART_WaitOnFlagUntilTimeout)
    UART_WaitOnFlagUntilTimeout              0x080010e5   Thumb Code   120  stm32f4xx_hal_uart.o(i.UART_WaitOnFlagUntilTimeout)
    i.UsageFault_Handler                     0x0800115c   Section        0  stm32f4xx_it.o(i.UsageFault_Handler)
    i.__NVIC_SetPriority                     0x0800115e   Section        0  stm32f4xx_hal_cortex.o(i.__NVIC_SetPriority)
    __NVIC_SetPriority                       0x0800115f   Thumb Code    32  stm32f4xx_hal_cortex.o(i.__NVIC_SetPriority)
    i.__rt_ffs                               0x08001180   Section        0  kservice.o(i.__rt_ffs)
    i.__scatterload_copy                     0x080011c4   Section       14  handlers.o(i.__scatterload_copy)
    i.__scatterload_null                     0x080011d2   Section        2  handlers.o(i.__scatterload_null)
    i.__scatterload_zeroinit                 0x080011d4   Section       14  handlers.o(i.__scatterload_zeroinit)
    i._rt_thread_init                        0x080011e4   Section        0  thread.o(i._rt_thread_init)
    _rt_thread_init                          0x080011e5   Thumb Code   118  thread.o(i._rt_thread_init)
    i._rt_timer_remove                       0x08001264   Section        0  timer.o(i._rt_timer_remove)
    _rt_timer_remove                         0x08001265   Thumb Code     6  timer.o(i._rt_timer_remove)
    i._thread_cleanup_execute                0x0800126a   Section        0  thread.o(i._thread_cleanup_execute)
    _thread_cleanup_execute                  0x0800126b   Thumb Code    28  thread.o(i._thread_cleanup_execute)
    i.main                                   0x08001286   Section        0  main.o(i.main)
    i.main_thread_entry                      0x08001298   Section        0  components.o(i.main_thread_entry)
    i.print_number                           0x080012a8   Section        0  kservice.o(i.print_number)
    print_number                             0x080012a9   Thumb Code   300  kservice.o(i.print_number)
    i.rt_application_init                    0x080013d8   Section        0  components.o(i.rt_application_init)
    i.rt_components_board_init               0x08001414   Section        0  components.o(i.rt_components_board_init)
    i.rt_components_init                     0x08001430   Section        0  components.o(i.rt_components_init)
    i.rt_enter_critical                      0x0800144c   Section        0  scheduler.o(i.rt_enter_critical)
    i.rt_exit_critical                       0x08001468   Section        0  scheduler.o(i.rt_exit_critical)
    i.rt_hw_board_init                       0x080014a0   Section        0  board.o(i.rt_hw_board_init)
    i.rt_hw_console_output                   0x080014c8   Section        0  board.o(i.rt_hw_console_output)
    i.rt_hw_hard_fault_exception             0x08001510   Section        0  cpuport.o(i.rt_hw_hard_fault_exception)
    i.rt_hw_stack_init                       0x08001720   Section        0  cpuport.o(i.rt_hw_stack_init)
    i.rt_interrupt_enter                     0x0800175c   Section        0  irq.o(i.rt_interrupt_enter)
    i.rt_interrupt_leave                     0x08001778   Section        0  irq.o(i.rt_interrupt_leave)
    i.rt_kprintf                             0x08001794   Section        0  kservice.o(i.rt_kprintf)
    i.rt_list_insert_after                   0x080017b4   Section        0  thread.o(i.rt_list_insert_after)
    rt_list_insert_after                     0x080017b5   Thumb Code    14  thread.o(i.rt_list_insert_after)
    i.rt_list_insert_after                   0x080017c2   Section        0  timer.o(i.rt_list_insert_after)
    rt_list_insert_after                     0x080017c3   Thumb Code    14  timer.o(i.rt_list_insert_after)
    i.rt_list_remove                         0x080017d0   Section        0  thread.o(i.rt_list_remove)
    rt_list_remove                           0x080017d1   Thumb Code    18  thread.o(i.rt_list_remove)
    i.rt_list_remove                         0x080017e2   Section        0  timer.o(i.rt_list_remove)
    rt_list_remove                           0x080017e3   Thumb Code    18  timer.o(i.rt_list_remove)
    i.rt_memset                              0x080017f4   Section        0  kservice.o(i.rt_memset)
    i.rt_object_detach                       0x0800183a   Section        0  object.o(i.rt_object_detach)
    i.rt_object_get_information              0x08001860   Section        0  object.o(i.rt_object_get_information)
    i.rt_object_init                         0x08001884   Section        0  object.o(i.rt_object_init)
    i.rt_object_is_systemobject              0x080018d6   Section        0  object.o(i.rt_object_is_systemobject)
    i.rt_schedule                            0x080018e4   Section        0  scheduler.o(i.rt_schedule)
    i.rt_schedule_insert_thread              0x0800193c   Section        0  scheduler.o(i.rt_schedule_insert_thread)
    i.rt_schedule_remove_thread              0x0800198c   Section        0  scheduler.o(i.rt_schedule_remove_thread)
    i.rt_show_version                        0x080019d4   Section        0  kservice.o(i.rt_show_version)
    i.rt_strlen                              0x08001a84   Section        0  kservice.o(i.rt_strlen)
    i.rt_strncpy                             0x08001a94   Section        0  kservice.o(i.rt_strncpy)
    i.rt_system_scheduler_init               0x08001abc   Section        0  scheduler.o(i.rt_system_scheduler_init)
    i.rt_system_scheduler_start              0x08001af0   Section        0  scheduler.o(i.rt_system_scheduler_start)
    i.rt_system_timer_init                   0x08001b18   Section        0  timer.o(i.rt_system_timer_init)
    i.rt_system_timer_thread_init            0x08001b24   Section        0  timer.o(i.rt_system_timer_thread_init)
    i.rt_thread_exit                         0x08001b28   Section        0  thread.o(i.rt_thread_exit)
    i.rt_thread_idle_entry                   0x08001b84   Section        0  idle.o(i.rt_thread_idle_entry)
    rt_thread_idle_entry                     0x08001b85   Thumb Code     2  idle.o(i.rt_thread_idle_entry)
    i.rt_thread_idle_init                    0x08001b88   Section        0  idle.o(i.rt_thread_idle_init)
    i.rt_thread_init                         0x08001bc0   Section        0  thread.o(i.rt_thread_init)
    i.rt_thread_resume                       0x08001bf0   Section        0  thread.o(i.rt_thread_resume)
    i.rt_thread_self                         0x08001c2c   Section        0  thread.o(i.rt_thread_self)
    i.rt_thread_startup                      0x08001c38   Section        0  thread.o(i.rt_thread_startup)
    i.rt_thread_timeout                      0x08001c64   Section        0  thread.o(i.rt_thread_timeout)
    i.rt_thread_yield                        0x08001c84   Section        0  thread.o(i.rt_thread_yield)
    i.rt_tick_get                            0x08001ce4   Section        0  clock.o(i.rt_tick_get)
    i.rt_tick_increase                       0x08001cf0   Section        0  clock.o(i.rt_tick_increase)
    i.rt_timer_check                         0x08001d1c   Section        0  timer.o(i.rt_timer_check)
    i.rt_timer_detach                        0x08001da8   Section        0  timer.o(i.rt_timer_detach)
    i.rt_timer_init                          0x08001dd0   Section        0  timer.o(i.rt_timer_init)
    i.rt_timer_start                         0x08001e00   Section        0  timer.o(i.rt_timer_start)
    i.rt_timer_stop                          0x08001e84   Section        0  timer.o(i.rt_timer_stop)
    i.rt_vsnprintf                           0x08001eb4   Section        0  kservice.o(i.rt_vsnprintf)
    i.rti_board_end                          0x08002138   Section        0  components.o(i.rti_board_end)
    rti_board_end                            0x08002139   Thumb Code     4  components.o(i.rti_board_end)
    i.rti_board_start                        0x0800213c   Section        0  components.o(i.rti_board_start)
    rti_board_start                          0x0800213d   Thumb Code     4  components.o(i.rti_board_start)
    i.rti_end                                0x08002140   Section        0  components.o(i.rti_end)
    rti_end                                  0x08002141   Thumb Code     4  components.o(i.rti_end)
    i.rti_start                              0x08002144   Section        0  components.o(i.rti_start)
    rti_start                                0x08002145   Thumb Code     4  components.o(i.rti_start)
    i.rtthread_startup                       0x08002148   Section        0  components.o(i.rtthread_startup)
    i.skip_atoi                              0x08002172   Section        0  kservice.o(i.skip_atoi)
    skip_atoi                                0x08002173   Thumb Code    40  kservice.o(i.skip_atoi)
    i.uart_init                              0x0800219c   Section        0  board.o(i.uart_init)
    uart_init                                0x0800219d   Thumb Code    42  board.o(i.uart_init)
    .constdata                               0x080021d0   Section       16  system_stm32f4xx.o(.constdata)
    .constdata                               0x080021e0   Section        8  system_stm32f4xx.o(.constdata)
    .constdata                               0x080021e8   Section      290  kservice.o(.constdata)
    small_digits                             0x080022e8   Data          17  kservice.o(.constdata)
    large_digits                             0x080022f9   Data          17  kservice.o(.constdata)
    .rti_fn.0                                0x0800230c   Section        4  components.o(.rti_fn.0)
    __tagsym$$used                           0x0800230c   Number         0  components.o(.rti_fn.0)
    .rti_fn.0.end                            0x08002310   Section        4  components.o(.rti_fn.0.end)
    __tagsym$$used                           0x08002310   Number         0  components.o(.rti_fn.0.end)
    .rti_fn.1                                0x08002314   Section        4  board.o(.rti_fn.1)
    __tagsym$$used                           0x08002314   Number         0  board.o(.rti_fn.1)
    .rti_fn.1.end                            0x08002318   Section        4  components.o(.rti_fn.1.end)
    __tagsym$$used                           0x08002318   Number         0  components.o(.rti_fn.1.end)
    .rti_fn.6.end                            0x0800231c   Section        4  components.o(.rti_fn.6.end)
    __tagsym$$used                           0x0800231c   Number         0  components.o(.rti_fn.6.end)
    .data                                    0x20000000   Section       12  stm32f4xx_hal.o(.data)
    .data                                    0x2000000c   Section        4  system_stm32f4xx.o(.data)
    .data                                    0x20000010   Section        4  clock.o(.data)
    rt_tick                                  0x20000010   Data           4  clock.o(.data)
    .data                                    0x20000014   Section        1  irq.o(.data)
    .data                                    0x20000018   Section       48  object.o(.data)
    rt_object_container                      0x20000018   Data          48  object.o(.data)
    .data                                    0x20000048   Section       20  scheduler.o(.data)
    rt_scheduler_lock_nest                   0x2000004a   Data           2  scheduler.o(.data)
    .data                                    0x2000005c   Section       12  timer.o(.data)
    random_nr                                0x2000005c   Data           4  timer.o(.data)
    rt_timer_list                            0x20000060   Data           8  timer.o(.data)
    .data                                    0x20000068   Section        4  cpuport.o(.data)
    rt_exception_hook                        0x20000068   Data           4  cpuport.o(.data)
    .data                                    0x2000006c   Section        4  cpuport.o(.data)
    .data                                    0x20000070   Section        4  cpuport.o(.data)
    .data                                    0x20000074   Section        4  cpuport.o(.data)
    .bss                                     0x20000078   Section       68  usart.o(.bss)
    .bss                                     0x200000c0   Section     1144  components.o(.bss)
    main_stack                               0x200000c0   Data        1024  components.o(.bss)
    .bss                                     0x20000538   Section      248  idle.o(.bss)
    idle                                     0x20000538   Data         120  idle.o(.bss)
    rt_thread_stack                          0x200005b0   Data         128  idle.o(.bss)
    .bss                                     0x20000630   Section      128  kservice.o(.bss)
    rt_log_buf                               0x20000630   Data         128  kservice.o(.bss)
    .bss                                     0x200006b0   Section      256  scheduler.o(.bss)
    .bss                                     0x200007b0   Section       68  board.o(.bss)
    UartHandle                               0x200007b0   Data          68  board.o(.bss)
    STACK                                    0x200007f8   Section     1024  startup_stm32f407xx.o(STACK)

    Global Symbols

    Symbol Name                              Value     Ov Type        Size  Object(Section)

    BuildAttributes$$THM_ISAv4$E$P$D$K$B$S$7EM$VFPi3$EXTD16$VFPS$VFMA$PE$A:L22UL41UL21$X:L11$S22US41US21$IEEE1$IW$USESV6$~STKCKD$USESV7$~SHL$OSPACE$EBA8$MICROLIB$REQ8$PRES8$EABIv2 0x00000000   Number         0  anon$$obj.o ABSOLUTE
    __ARM_use_no_argv                        0x00000000   Number         0  main.o ABSOLUTE
    __arm_fini_                               - Undefined Weak Reference
    __cpp_initialize__aeabi_                  - Undefined Weak Reference
    __cxa_finalize                            - Undefined Weak Reference
    __decompress                              - Undefined Weak Reference
    _clock_init                               - Undefined Weak Reference
    _microlib_exit                            - Undefined Weak Reference
    __Vectors_Size                           0x00000188   Number         0  startup_stm32f407xx.o ABSOLUTE
    __Vectors                                0x08000000   Data           4  startup_stm32f407xx.o(RESET)
    __Vectors_End                            0x08000188   Data           0  startup_stm32f407xx.o(RESET)
    __main                                   0x08000189   Thumb Code     0  entry.o(.ARM.Collect$$$$00000000)
    _main_stk                                0x08000189   Thumb Code     0  entry2.o(.ARM.Collect$$$$00000001)
    _main_scatterload                        0x0800018d   Thumb Code     0  entry5.o(.ARM.Collect$$$$00000004)
    __main_after_scatterload                 0x08000191   Thumb Code     0  entry5.o(.ARM.Collect$$$$00000004)
    _main_clock                              0x08000191   Thumb Code     0  entry7b.o(.ARM.Collect$$$$00000008)
    _main_cpp_init                           0x08000191   Thumb Code     0  entry8b.o(.ARM.Collect$$$$0000000A)
    _main_init                               0x08000191   Thumb Code     0  entry9a.o(.ARM.Collect$$$$0000000B)
    __rt_lib_shutdown_fini                   0x08000199   Thumb Code     0  entry12b.o(.ARM.Collect$$$$0000000E)
    __rt_final_cpp                           0x0800019d   Thumb Code     0  entry10a.o(.ARM.Collect$$$$0000000F)
    __rt_final_exit                          0x0800019d   Thumb Code     0  entry11a.o(.ARM.Collect$$$$00000011)
    Reset_Handler                            0x080001a1   Thumb Code     8  startup_stm32f407xx.o(.text)
    SVC_Handler                              0x080001b3   Thumb Code     2  startup_stm32f407xx.o(.text)
    ADC_IRQHandler                           0x080001bb   Thumb Code     0  startup_stm32f407xx.o(.text)
    CAN1_RX0_IRQHandler                      0x080001bb   Thumb Code     0  startup_stm32f407xx.o(.text)
    CAN1_RX1_IRQHandler                      0x080001bb   Thumb Code     0  startup_stm32f407xx.o(.text)
    CAN1_SCE_IRQHandler                      0x080001bb   Thumb Code     0  startup_stm32f407xx.o(.text)
    CAN1_TX_IRQHandler                       0x080001bb   Thumb Code     0  startup_stm32f407xx.o(.text)
    CAN2_RX0_IRQHandler                      0x080001bb   Thumb Code     0  startup_stm32f407xx.o(.text)
    CAN2_RX1_IRQHandler                      0x080001bb   Thumb Code     0  startup_stm32f407xx.o(.text)
    CAN2_SCE_IRQHandler                      0x080001bb   Thumb Code     0  startup_stm32f407xx.o(.text)
    CAN2_TX_IRQHandler                       0x080001bb   Thumb Code     0  startup_stm32f407xx.o(.text)
    DCMI_IRQHandler                          0x080001bb   Thumb Code     0  startup_stm32f407xx.o(.text)
    DMA1_Stream0_IRQHandler                  0x080001bb   Thumb Code     0  startup_stm32f407xx.o(.text)
    DMA1_Stream1_IRQHandler                  0x080001bb   Thumb Code     0  startup_stm32f407xx.o(.text)
    DMA1_Stream2_IRQHandler                  0x080001bb   Thumb Code     0  startup_stm32f407xx.o(.text)
    DMA1_Stream3_IRQHandler                  0x080001bb   Thumb Code     0  startup_stm32f407xx.o(.text)
    DMA1_Stream4_IRQHandler                  0x080001bb   Thumb Code     0  startup_stm32f407xx.o(.text)
    DMA1_Stream5_IRQHandler                  0x080001bb   Thumb Code     0  startup_stm32f407xx.o(.text)
    DMA1_Stream6_IRQHandler                  0x080001bb   Thumb Code     0  startup_stm32f407xx.o(.text)
    DMA1_Stream7_IRQHandler                  0x080001bb   Thumb Code     0  startup_stm32f407xx.o(.text)
    DMA2_Stream0_IRQHandler                  0x080001bb   Thumb Code     0  startup_stm32f407xx.o(.text)
    DMA2_Stream1_IRQHandler                  0x080001bb   Thumb Code     0  startup_stm32f407xx.o(.text)
    DMA2_Stream2_IRQHandler                  0x080001bb   Thumb Code     0  startup_stm32f407xx.o(.text)
    DMA2_Stream3_IRQHandler                  0x080001bb   Thumb Code     0  startup_stm32f407xx.o(.text)
    DMA2_Stream4_IRQHandler                  0x080001bb   Thumb Code     0  startup_stm32f407xx.o(.text)
    DMA2_Stream5_IRQHandler                  0x080001bb   Thumb Code     0  startup_stm32f407xx.o(.text)
    DMA2_Stream6_IRQHandler                  0x080001bb   Thumb Code     0  startup_stm32f407xx.o(.text)
    DMA2_Stream7_IRQHandler                  0x080001bb   Thumb Code     0  startup_stm32f407xx.o(.text)
    ETH_IRQHandler                           0x080001bb   Thumb Code     0  startup_stm32f407xx.o(.text)
    ETH_WKUP_IRQHandler                      0x080001bb   Thumb Code     0  startup_stm32f407xx.o(.text)
    EXTI0_IRQHandler                         0x080001bb   Thumb Code     0  startup_stm32f407xx.o(.text)
    EXTI15_10_IRQHandler                     0x080001bb   Thumb Code     0  startup_stm32f407xx.o(.text)
    EXTI1_IRQHandler                         0x080001bb   Thumb Code     0  startup_stm32f407xx.o(.text)
    EXTI2_IRQHandler                         0x080001bb   Thumb Code     0  startup_stm32f407xx.o(.text)
    EXTI3_IRQHandler                         0x080001bb   Thumb Code     0  startup_stm32f407xx.o(.text)
    EXTI4_IRQHandler                         0x080001bb   Thumb Code     0  startup_stm32f407xx.o(.text)
    EXTI9_5_IRQHandler                       0x080001bb   Thumb Code     0  startup_stm32f407xx.o(.text)
    FLASH_IRQHandler                         0x080001bb   Thumb Code     0  startup_stm32f407xx.o(.text)
    FMC_IRQHandler                           0x080001bb   Thumb Code     0  startup_stm32f407xx.o(.text)
    FPU_IRQHandler                           0x080001bb   Thumb Code     0  startup_stm32f407xx.o(.text)
    HASH_RNG_IRQHandler                      0x080001bb   Thumb Code     0  startup_stm32f407xx.o(.text)
    I2C1_ER_IRQHandler                       0x080001bb   Thumb Code     0  startup_stm32f407xx.o(.text)
    I2C1_EV_IRQHandler                       0x080001bb   Thumb Code     0  startup_stm32f407xx.o(.text)
    I2C2_ER_IRQHandler                       0x080001bb   Thumb Code     0  startup_stm32f407xx.o(.text)
    I2C2_EV_IRQHandler                       0x080001bb   Thumb Code     0  startup_stm32f407xx.o(.text)
    I2C3_ER_IRQHandler                       0x080001bb   Thumb Code     0  startup_stm32f407xx.o(.text)
    I2C3_EV_IRQHandler                       0x080001bb   Thumb Code     0  startup_stm32f407xx.o(.text)
    OTG_FS_IRQHandler                        0x080001bb   Thumb Code     0  startup_stm32f407xx.o(.text)
    OTG_FS_WKUP_IRQHandler                   0x080001bb   Thumb Code     0  startup_stm32f407xx.o(.text)
    OTG_HS_EP1_IN_IRQHandler                 0x080001bb   Thumb Code     0  startup_stm32f407xx.o(.text)
    OTG_HS_EP1_OUT_IRQHandler                0x080001bb   Thumb Code     0  startup_stm32f407xx.o(.text)
    OTG_HS_IRQHandler                        0x080001bb   Thumb Code     0  startup_stm32f407xx.o(.text)
    OTG_HS_WKUP_IRQHandler                   0x080001bb   Thumb Code     0  startup_stm32f407xx.o(.text)
    PVD_IRQHandler                           0x080001bb   Thumb Code     0  startup_stm32f407xx.o(.text)
    RCC_IRQHandler                           0x080001bb   Thumb Code     0  startup_stm32f407xx.o(.text)
    RTC_Alarm_IRQHandler                     0x080001bb   Thumb Code     0  startup_stm32f407xx.o(.text)
    RTC_WKUP_IRQHandler                      0x080001bb   Thumb Code     0  startup_stm32f407xx.o(.text)
    SDIO_IRQHandler                          0x080001bb   Thumb Code     0  startup_stm32f407xx.o(.text)
    SPI1_IRQHandler                          0x080001bb   Thumb Code     0  startup_stm32f407xx.o(.text)
    SPI2_IRQHandler                          0x080001bb   Thumb Code     0  startup_stm32f407xx.o(.text)
    SPI3_IRQHandler                          0x080001bb   Thumb Code     0  startup_stm32f407xx.o(.text)
    TAMP_STAMP_IRQHandler                    0x080001bb   Thumb Code     0  startup_stm32f407xx.o(.text)
    TIM1_BRK_TIM9_IRQHandler                 0x080001bb   Thumb Code     0  startup_stm32f407xx.o(.text)
    TIM1_CC_IRQHandler                       0x080001bb   Thumb Code     0  startup_stm32f407xx.o(.text)
    TIM1_TRG_COM_TIM11_IRQHandler            0x080001bb   Thumb Code     0  startup_stm32f407xx.o(.text)
    TIM1_UP_TIM10_IRQHandler                 0x080001bb   Thumb Code     0  startup_stm32f407xx.o(.text)
    TIM2_IRQHandler                          0x080001bb   Thumb Code     0  startup_stm32f407xx.o(.text)
    TIM3_IRQHandler                          0x080001bb   Thumb Code     0  startup_stm32f407xx.o(.text)
    TIM4_IRQHandler                          0x080001bb   Thumb Code     0  startup_stm32f407xx.o(.text)
    TIM5_IRQHandler                          0x080001bb   Thumb Code     0  startup_stm32f407xx.o(.text)
    TIM6_DAC_IRQHandler                      0x080001bb   Thumb Code     0  startup_stm32f407xx.o(.text)
    TIM7_IRQHandler                          0x080001bb   Thumb Code     0  startup_stm32f407xx.o(.text)
    TIM8_BRK_TIM12_IRQHandler                0x080001bb   Thumb Code     0  startup_stm32f407xx.o(.text)
    TIM8_CC_IRQHandler                       0x080001bb   Thumb Code     0  startup_stm32f407xx.o(.text)
    TIM8_TRG_COM_TIM14_IRQHandler            0x080001bb   Thumb Code     0  startup_stm32f407xx.o(.text)
    TIM8_UP_TIM13_IRQHandler                 0x080001bb   Thumb Code     0  startup_stm32f407xx.o(.text)
    UART4_IRQHandler                         0x080001bb   Thumb Code     0  startup_stm32f407xx.o(.text)
    UART5_IRQHandler                         0x080001bb   Thumb Code     0  startup_stm32f407xx.o(.text)
    USART1_IRQHandler                        0x080001bb   Thumb Code     0  startup_stm32f407xx.o(.text)
    USART2_IRQHandler                        0x080001bb   Thumb Code     0  startup_stm32f407xx.o(.text)
    USART3_IRQHandler                        0x080001bb   Thumb Code     0  startup_stm32f407xx.o(.text)
    USART6_IRQHandler                        0x080001bb   Thumb Code     0  startup_stm32f407xx.o(.text)
    WWDG_IRQHandler                          0x080001bb   Thumb Code     0  startup_stm32f407xx.o(.text)
    rt_hw_interrupt_disable                  0x080001c5   Thumb Code     8  context_rvds.o(.text)
    rt_hw_interrupt_enable                   0x080001cd   Thumb Code     6  context_rvds.o(.text)
    rt_hw_context_switch                     0x080001d3   Thumb Code    32  context_rvds.o(.text)
    rt_hw_context_switch_interrupt           0x080001d3   Thumb Code     0  context_rvds.o(.text)
    PendSV_Handler                           0x080001f3   Thumb Code   108  context_rvds.o(.text)
    rt_hw_context_switch_to                  0x0800025f   Thumb Code    68  context_rvds.o(.text)
    rt_hw_interrupt_thread_switch            0x080002a3   Thumb Code     2  context_rvds.o(.text)
    HardFault_Handler                        0x080002a5   Thumb Code    56  context_rvds.o(.text)
    __aeabi_uldivmod                         0x080002f9   Thumb Code    98  uldiv.o(.text)
    __aeabi_memset                           0x0800035b   Thumb Code    14  memseta.o(.text)
    __aeabi_memset4                          0x0800035b   Thumb Code     0  memseta.o(.text)
    __aeabi_memset8                          0x0800035b   Thumb Code     0  memseta.o(.text)
    __aeabi_memclr                           0x08000369   Thumb Code     4  memseta.o(.text)
    __aeabi_memclr4                          0x08000369   Thumb Code     0  memseta.o(.text)
    __aeabi_memclr8                          0x08000369   Thumb Code     0  memseta.o(.text)
    _memset$wrapper                          0x0800036d   Thumb Code    18  memseta.o(.text)
    __aeabi_llsl                             0x0800037f   Thumb Code    30  llshl.o(.text)
    _ll_shift_l                              0x0800037f   Thumb Code     0  llshl.o(.text)
    __aeabi_llsr                             0x0800039d   Thumb Code    32  llushr.o(.text)
    _ll_ushift_r                             0x0800039d   Thumb Code     0  llushr.o(.text)
    __scatterload                            0x080003bd   Thumb Code    28  init.o(.text)
    __scatterload_rt2                        0x080003bd   Thumb Code     0  init.o(.text)
    main                                     0x080003e1   Thumb Code    10  components.o(i.$Sub$$main)
    BusFault_Handler                         0x080003eb   Thumb Code     2  stm32f4xx_it.o(i.BusFault_Handler)
    DebugMon_Handler                         0x080003ed   Thumb Code     2  stm32f4xx_it.o(i.DebugMon_Handler)
    Error_Handler                            0x080003ef   Thumb Code     4  main.o(i.Error_Handler)
    HAL_GPIO_Init                            0x080003f5   Thumb Code   450  stm32f4xx_hal_gpio.o(i.HAL_GPIO_Init)
    HAL_GetTick                              0x080005e5   Thumb Code     6  stm32f4xx_hal.o(i.HAL_GetTick)
    HAL_Init                                 0x080005f1   Thumb Code    48  stm32f4xx_hal.o(i.HAL_Init)
    HAL_InitTick                             0x08000625   Thumb Code    54  stm32f4xx_hal.o(i.HAL_InitTick)
    HAL_MspInit                              0x08000665   Thumb Code    42  stm32f4xx_hal_msp.o(i.HAL_MspInit)
    HAL_NVIC_SetPriority                     0x08000695   Thumb Code    60  stm32f4xx_hal_cortex.o(i.HAL_NVIC_SetPriority)
    HAL_NVIC_SetPriorityGrouping             0x080006d5   Thumb Code    26  stm32f4xx_hal_cortex.o(i.HAL_NVIC_SetPriorityGrouping)
    HAL_RCC_CSSCallback                      0x080006f9   Thumb Code     2  stm32f4xx_hal_rcc.o(i.HAL_RCC_CSSCallback)
    HAL_RCC_ClockConfig                      0x080006fd   Thumb Code   288  stm32f4xx_hal_rcc.o(i.HAL_RCC_ClockConfig)
    HAL_RCC_EnableCSS                        0x08000831   Thumb Code     8  stm32f4xx_hal_rcc.o(i.HAL_RCC_EnableCSS)
    HAL_RCC_GetHCLKFreq                      0x0800083d   Thumb Code     6  stm32f4xx_hal_rcc.o(i.HAL_RCC_GetHCLKFreq)
    HAL_RCC_GetPCLK1Freq                     0x08000849   Thumb Code    20  stm32f4xx_hal_rcc.o(i.HAL_RCC_GetPCLK1Freq)
    HAL_RCC_GetPCLK2Freq                     0x08000869   Thumb Code    20  stm32f4xx_hal_rcc.o(i.HAL_RCC_GetPCLK2Freq)
    HAL_RCC_GetSysClockFreq                  0x08000889   Thumb Code    88  stm32f4xx_hal_rcc.o(i.HAL_RCC_GetSysClockFreq)
    HAL_RCC_NMI_IRQHandler                   0x080008e9   Thumb Code    24  stm32f4xx_hal_rcc.o(i.HAL_RCC_NMI_IRQHandler)
    HAL_RCC_OscConfig                        0x08000905   Thumb Code   856  stm32f4xx_hal_rcc.o(i.HAL_RCC_OscConfig)
    HAL_SYSTICK_Config                       0x08000c71   Thumb Code    40  stm32f4xx_hal_cortex.o(i.HAL_SYSTICK_Config)
    HAL_UART_Init                            0x08000c99   Thumb Code    98  stm32f4xx_hal_uart.o(i.HAL_UART_Init)
    HAL_UART_MspInit                         0x08000cfd   Thumb Code    94  usart.o(i.HAL_UART_MspInit)
    HAL_UART_Transmit                        0x08000d69   Thumb Code   178  stm32f4xx_hal_uart.o(i.HAL_UART_Transmit)
    MX_GPIO_Init                             0x08000e1d   Thumb Code    70  gpio.o(i.MX_GPIO_Init)
    MX_USART1_UART_Init                      0x08000e69   Thumb Code    48  usart.o(i.MX_USART1_UART_Init)
    MemManage_Handler                        0x08000ea1   Thumb Code     2  stm32f4xx_it.o(i.MemManage_Handler)
    NMI_Handler                              0x08000ea3   Thumb Code     6  stm32f4xx_it.o(i.NMI_Handler)
    SysTick_Handler                          0x08000ea9   Thumb Code    18  board.o(i.SysTick_Handler)
    SystemClock_Config                       0x08000ebd   Thumb Code   140  main.o(i.SystemClock_Config)
    SystemCoreClockUpdate                    0x08000f51   Thumb Code   104  system_stm32f4xx.o(i.SystemCoreClockUpdate)
    SystemInit                               0x08000fc9   Thumb Code    12  system_stm32f4xx.o(i.SystemInit)
    UsageFault_Handler                       0x0800115d   Thumb Code     2  stm32f4xx_it.o(i.UsageFault_Handler)
    __rt_ffs                                 0x08001181   Thumb Code    64  kservice.o(i.__rt_ffs)
    __scatterload_copy                       0x080011c5   Thumb Code    14  handlers.o(i.__scatterload_copy)
    __scatterload_null                       0x080011d3   Thumb Code     2  handlers.o(i.__scatterload_null)
    __scatterload_zeroinit                   0x080011d5   Thumb Code    14  handlers.o(i.__scatterload_zeroinit)
    $Super$$main                             0x08001287   Thumb Code    18  main.o(i.main)
    main_thread_entry                        0x08001299   Thumb Code    14  components.o(i.main_thread_entry)
    rt_application_init                      0x080013d9   Thumb Code    44  components.o(i.rt_application_init)
    rt_components_board_init                 0x08001415   Thumb Code    20  components.o(i.rt_components_board_init)
    rt_components_init                       0x08001431   Thumb Code    20  components.o(i.rt_components_init)
    rt_enter_critical                        0x0800144d   Thumb Code    22  scheduler.o(i.rt_enter_critical)
    rt_exit_critical                         0x08001469   Thumb Code    52  scheduler.o(i.rt_exit_critical)
    rt_hw_board_init                         0x080014a1   Thumb Code    38  board.o(i.rt_hw_board_init)
    rt_hw_console_output                     0x080014c9   Thumb Code    66  board.o(i.rt_hw_console_output)
    rt_hw_hard_fault_exception               0x08001511   Thumb Code   190  cpuport.o(i.rt_hw_hard_fault_exception)
    rt_hw_stack_init                         0x08001721   Thumb Code    54  cpuport.o(i.rt_hw_stack_init)
    rt_interrupt_enter                       0x0800175d   Thumb Code    22  irq.o(i.rt_interrupt_enter)
    rt_interrupt_leave                       0x08001779   Thumb Code    22  irq.o(i.rt_interrupt_leave)
    rt_kprintf                               0x08001795   Thumb Code    28  kservice.o(i.rt_kprintf)
    rt_memset                                0x080017f5   Thumb Code    70  kservice.o(i.rt_memset)
    rt_object_detach                         0x0800183b   Thumb Code    36  object.o(i.rt_object_detach)
    rt_object_get_information                0x08001861   Thumb Code    30  object.o(i.rt_object_get_information)
    rt_object_init                           0x08001885   Thumb Code    82  object.o(i.rt_object_init)
    rt_object_is_systemobject                0x080018d7   Thumb Code    14  object.o(i.rt_object_is_systemobject)
    rt_schedule                              0x080018e5   Thumb Code    76  scheduler.o(i.rt_schedule)
    rt_schedule_insert_thread                0x0800193d   Thumb Code    70  scheduler.o(i.rt_schedule_insert_thread)
    rt_schedule_remove_thread                0x0800198d   Thumb Code    64  scheduler.o(i.rt_schedule_remove_thread)
    rt_show_version                          0x080019d5   Thumb Code    40  kservice.o(i.rt_show_version)
    rt_strlen                                0x08001a85   Thumb Code    16  kservice.o(i.rt_strlen)
    rt_strncpy                               0x08001a95   Thumb Code    38  kservice.o(i.rt_strncpy)
    rt_system_scheduler_init                 0x08001abd   Thumb Code    44  scheduler.o(i.rt_system_scheduler_init)
    rt_system_scheduler_start                0x08001af1   Thumb Code    32  scheduler.o(i.rt_system_scheduler_start)
    rt_system_timer_init                     0x08001b19   Thumb Code     8  timer.o(i.rt_system_timer_init)
    rt_system_timer_thread_init              0x08001b25   Thumb Code     2  timer.o(i.rt_system_timer_thread_init)
    rt_thread_exit                           0x08001b29   Thumb Code    82  thread.o(i.rt_thread_exit)
    rt_thread_idle_init                      0x08001b89   Thumb Code    40  idle.o(i.rt_thread_idle_init)
    rt_thread_init                           0x08001bc1   Thumb Code    48  thread.o(i.rt_thread_init)
    rt_thread_resume                         0x08001bf1   Thumb Code    60  thread.o(i.rt_thread_resume)
    rt_thread_self                           0x08001c2d   Thumb Code     6  thread.o(i.rt_thread_self)
    rt_thread_startup                        0x08001c39   Thumb Code    40  thread.o(i.rt_thread_startup)
    rt_thread_timeout                        0x08001c65   Thumb Code    32  thread.o(i.rt_thread_timeout)
    rt_thread_yield                          0x08001c85   Thumb Code    86  thread.o(i.rt_thread_yield)
    rt_tick_get                              0x08001ce5   Thumb Code     6  clock.o(i.rt_tick_get)
    rt_tick_increase                         0x08001cf1   Thumb Code    38  clock.o(i.rt_tick_increase)
    rt_timer_check                           0x08001d1d   Thumb Code   136  timer.o(i.rt_timer_check)
    rt_timer_detach                          0x08001da9   Thumb Code    40  timer.o(i.rt_timer_detach)
    rt_timer_init                            0x08001dd1   Thumb Code    48  timer.o(i.rt_timer_init)
    rt_timer_start                           0x08001e01   Thumb Code   126  timer.o(i.rt_timer_start)
    rt_timer_stop                            0x08001e85   Thumb Code    46  timer.o(i.rt_timer_stop)
    rt_vsnprintf                             0x08001eb5   Thumb Code   634  kservice.o(i.rt_vsnprintf)
    rtthread_startup                         0x08002149   Thumb Code    42  components.o(i.rtthread_startup)
    AHBPrescTable                            0x080021d0   Data          16  system_stm32f4xx.o(.constdata)
    APBPrescTable                            0x080021e0   Data           8  system_stm32f4xx.o(.constdata)
    __lowest_bit_bitmap                      0x080021e8   Data         256  kservice.o(.constdata)
    __rt_init_rti_start                      0x0800230c   Data           4  components.o(.rti_fn.0)
    __rt_init_rti_board_start                0x08002310   Data           4  components.o(.rti_fn.0.end)
    __rt_init_uart_init                      0x08002314   Data           4  board.o(.rti_fn.1)
    __rt_init_rti_board_end                  0x08002318   Data           4  components.o(.rti_fn.1.end)
    __rt_init_rti_end                        0x0800231c   Data           4  components.o(.rti_fn.6.end)
    Region$$Table$$Base                      0x08002320   Number         0  anon$$obj.o(Region$$Table)
    Region$$Table$$Limit                     0x08002340   Number         0  anon$$obj.o(Region$$Table)
    uwTickFreq                               0x20000000   Data           1  stm32f4xx_hal.o(.data)
    uwTickPrio                               0x20000004   Data           4  stm32f4xx_hal.o(.data)
    uwTick                                   0x20000008   Data           4  stm32f4xx_hal.o(.data)
    SystemCoreClock                          0x2000000c   Data           4  system_stm32f4xx.o(.data)
    rt_interrupt_nest                        0x20000014   Data           1  irq.o(.data)
    rt_current_priority                      0x20000048   Data           1  scheduler.o(.data)
    rt_current_thread                        0x2000004c   Data           4  scheduler.o(.data)
    rt_thread_ready_priority_group           0x20000050   Data           4  scheduler.o(.data)
    rt_thread_defunct                        0x20000054   Data           8  scheduler.o(.data)
    rt_interrupt_from_thread                 0x2000006c   Data           4  cpuport.o(.data)
    rt_interrupt_to_thread                   0x20000070   Data           4  cpuport.o(.data)
    rt_thread_switch_interrupt_flag          0x20000074   Data           4  cpuport.o(.data)
    huart1                                   0x20000078   Data          68  usart.o(.bss)
    main_thread                              0x200004c0   Data         120  components.o(.bss)
    rt_thread_priority_table                 0x200006b0   Data         256  scheduler.o(.bss)
    __initial_sp                             0x20000bf8   Data           0  startup_stm32f407xx.o(STACK)



==============================================================================

Memory Map of the image

  Image Entry point : 0x08000189

  Load Region LR_IROM1 (Base: 0x08000000, Size: 0x000023b8, Max: 0x00100000, ABSOLUTE)

    Execution Region ER_IROM1 (Exec base: 0x08000000, Load base: 0x08000000, Size: 0x00002340, Max: 0x00100000, ABSOLUTE)

    Exec Addr    Load Addr    Size         Type   Attr      Idx    E Section Name        Object

    0x08000000   0x08000000   0x00000188   Data   RO            3    RESET               startup_stm32f407xx.o
    0x08000188   0x08000188   0x00000000   Code   RO         2697  * .ARM.Collect$$$$00000000  mc_w.l(entry.o)
    0x08000188   0x08000188   0x00000004   Code   RO         2704    .ARM.Collect$$$$00000001  mc_w.l(entry2.o)
    0x0800018c   0x0800018c   0x00000004   Code   RO         2707    .ARM.Collect$$$$00000004  mc_w.l(entry5.o)
    0x08000190   0x08000190   0x00000000   Code   RO         2709    .ARM.Collect$$$$00000008  mc_w.l(entry7b.o)
    0x08000190   0x08000190   0x00000000   Code   RO         2711    .ARM.Collect$$$$0000000A  mc_w.l(entry8b.o)
    0x08000190   0x08000190   0x00000008   Code   RO         2712    .ARM.Collect$$$$0000000B  mc_w.l(entry9a.o)
    0x08000198   0x08000198   0x00000004   Code   RO         2719    .ARM.Collect$$$$0000000E  mc_w.l(entry12b.o)
    0x0800019c   0x0800019c   0x00000000   Code   RO         2714    .ARM.Collect$$$$0000000F  mc_w.l(entry10a.o)
    0x0800019c   0x0800019c   0x00000000   Code   RO         2716    .ARM.Collect$$$$00000011  mc_w.l(entry11a.o)
    0x0800019c   0x0800019c   0x00000004   Code   RO         2705    .ARM.Collect$$$$00002712  mc_w.l(entry2.o)
    0x080001a0   0x080001a0   0x00000024   Code   RO            4    .text               startup_stm32f407xx.o
    0x080001c4   0x080001c4   0x00000134   Code   RO         1848    .text               context_rvds.o
    0x080002f8   0x080002f8   0x00000062   Code   RO         2700    .text               mc_w.l(uldiv.o)
    0x0800035a   0x0800035a   0x00000024   Code   RO         2702    .text               mc_w.l(memseta.o)
    0x0800037e   0x0800037e   0x0000001e   Code   RO         2720    .text               mc_w.l(llshl.o)
    0x0800039c   0x0800039c   0x00000020   Code   RO         2722    .text               mc_w.l(llushr.o)
    0x080003bc   0x080003bc   0x00000024   Code   RO         2724    .text               mc_w.l(init.o)
    0x080003e0   0x080003e0   0x0000000a   Code   RO         1911    i.$Sub$$main        components.o
    0x080003ea   0x080003ea   0x00000002   Code   RO          213    i.BusFault_Handler  stm32f4xx_it.o
    0x080003ec   0x080003ec   0x00000002   Code   RO          214    i.DebugMon_Handler  stm32f4xx_it.o
    0x080003ee   0x080003ee   0x00000004   Code   RO           13    i.Error_Handler     main.o
    0x080003f2   0x080003f2   0x00000002   PAD
    0x080003f4   0x080003f4   0x000001f0   Code   RO          643    i.HAL_GPIO_Init     stm32f4xx_hal_gpio.o
    0x080005e4   0x080005e4   0x0000000c   Code   RO         1175    i.HAL_GetTick       stm32f4xx_hal.o
    0x080005f0   0x080005f0   0x00000034   Code   RO         1182    i.HAL_Init          stm32f4xx_hal.o
    0x08000624   0x08000624   0x00000040   Code   RO         1183    i.HAL_InitTick      stm32f4xx_hal.o
    0x08000664   0x08000664   0x00000030   Code   RO          264    i.HAL_MspInit       stm32f4xx_hal_msp.o
    0x08000694   0x08000694   0x00000040   Code   RO         1038    i.HAL_NVIC_SetPriority  stm32f4xx_hal_cortex.o
    0x080006d4   0x080006d4   0x00000024   Code   RO         1039    i.HAL_NVIC_SetPriorityGrouping  stm32f4xx_hal_cortex.o
    0x080006f8   0x080006f8   0x00000002   Code   RO          288    i.HAL_RCC_CSSCallback  stm32f4xx_hal_rcc.o
    0x080006fa   0x080006fa   0x00000002   PAD
    0x080006fc   0x080006fc   0x00000134   Code   RO          289    i.HAL_RCC_ClockConfig  stm32f4xx_hal_rcc.o
    0x08000830   0x08000830   0x0000000c   Code   RO          292    i.HAL_RCC_EnableCSS  stm32f4xx_hal_rcc.o
    0x0800083c   0x0800083c   0x0000000c   Code   RO          294    i.HAL_RCC_GetHCLKFreq  stm32f4xx_hal_rcc.o
    0x08000848   0x08000848   0x00000020   Code   RO          296    i.HAL_RCC_GetPCLK1Freq  stm32f4xx_hal_rcc.o
    0x08000868   0x08000868   0x00000020   Code   RO          297    i.HAL_RCC_GetPCLK2Freq  stm32f4xx_hal_rcc.o
    0x08000888   0x08000888   0x00000060   Code   RO          298    i.HAL_RCC_GetSysClockFreq  stm32f4xx_hal_rcc.o
    0x080008e8   0x080008e8   0x0000001c   Code   RO          300    i.HAL_RCC_NMI_IRQHandler  stm32f4xx_hal_rcc.o
    0x08000904   0x08000904   0x0000036c   Code   RO          301    i.HAL_RCC_OscConfig  stm32f4xx_hal_rcc.o
    0x08000c70   0x08000c70   0x00000028   Code   RO         1043    i.HAL_SYSTICK_Config  stm32f4xx_hal_cortex.o
    0x08000c98   0x08000c98   0x00000062   Code   RO         1485    i.HAL_UART_Init     stm32f4xx_hal_uart.o
    0x08000cfa   0x08000cfa   0x00000002   PAD
    0x08000cfc   0x08000cfc   0x0000006c   Code   RO          172    i.HAL_UART_MspInit  usart.o
    0x08000d68   0x08000d68   0x000000b2   Code   RO         1493    i.HAL_UART_Transmit  stm32f4xx_hal_uart.o
    0x08000e1a   0x08000e1a   0x00000002   PAD
    0x08000e1c   0x08000e1c   0x0000004c   Code   RO          147    i.MX_GPIO_Init      gpio.o
    0x08000e68   0x08000e68   0x00000038   Code   RO          173    i.MX_USART1_UART_Init  usart.o
    0x08000ea0   0x08000ea0   0x00000002   Code   RO          215    i.MemManage_Handler  stm32f4xx_it.o
    0x08000ea2   0x08000ea2   0x00000006   Code   RO          216    i.NMI_Handler       stm32f4xx_it.o
    0x08000ea8   0x08000ea8   0x00000012   Code   RO         2649    i.SysTick_Handler   board.o
    0x08000eba   0x08000eba   0x00000002   PAD
    0x08000ebc   0x08000ebc   0x00000094   Code   RO           14    i.SystemClock_Config  main.o
    0x08000f50   0x08000f50   0x00000078   Code   RO         1813    i.SystemCoreClockUpdate  system_stm32f4xx.o
    0x08000fc8   0x08000fc8   0x00000010   Code   RO         1814    i.SystemInit        system_stm32f4xx.o
    0x08000fd8   0x08000fd8   0x0000010c   Code   RO         1511    i.UART_SetConfig    stm32f4xx_hal_uart.o
    0x080010e4   0x080010e4   0x00000078   Code   RO         1514    i.UART_WaitOnFlagUntilTimeout  stm32f4xx_hal_uart.o
    0x0800115c   0x0800115c   0x00000002   Code   RO          217    i.UsageFault_Handler  stm32f4xx_it.o
    0x0800115e   0x0800115e   0x00000020   Code   RO         1045    i.__NVIC_SetPriority  stm32f4xx_hal_cortex.o
    0x0800117e   0x0800117e   0x00000002   PAD
    0x08001180   0x08001180   0x00000044   Code   RO         2099    i.__rt_ffs          kservice.o
    0x080011c4   0x080011c4   0x0000000e   Code   RO         2728    i.__scatterload_copy  mc_w.l(handlers.o)
    0x080011d2   0x080011d2   0x00000002   Code   RO         2729    i.__scatterload_null  mc_w.l(handlers.o)
    0x080011d4   0x080011d4   0x0000000e   Code   RO         2730    i.__scatterload_zeroinit  mc_w.l(handlers.o)
    0x080011e2   0x080011e2   0x00000002   PAD
    0x080011e4   0x080011e4   0x00000080   Code   RO         2406    i._rt_thread_init   thread.o
    0x08001264   0x08001264   0x00000006   Code   RO         2524    i._rt_timer_remove  timer.o
    0x0800126a   0x0800126a   0x0000001c   Code   RO         2407    i._thread_cleanup_execute  thread.o
    0x08001286   0x08001286   0x00000012   Code   RO           15    i.main              main.o
    0x08001298   0x08001298   0x0000000e   Code   RO         1912    i.main_thread_entry  components.o
    0x080012a6   0x080012a6   0x00000002   PAD
    0x080012a8   0x080012a8   0x00000130   Code   RO         2101    i.print_number      kservice.o
    0x080013d8   0x080013d8   0x0000003c   Code   RO         1913    i.rt_application_init  components.o
    0x08001414   0x08001414   0x0000001c   Code   RO         1914    i.rt_components_board_init  components.o
    0x08001430   0x08001430   0x0000001c   Code   RO         1915    i.rt_components_init  components.o
    0x0800144c   0x0800144c   0x0000001c   Code   RO         2339    i.rt_enter_critical  scheduler.o
    0x08001468   0x08001468   0x00000038   Code   RO         2340    i.rt_exit_critical  scheduler.o
    0x080014a0   0x080014a0   0x00000026   Code   RO         2650    i.rt_hw_board_init  board.o
    0x080014c6   0x080014c6   0x00000002   PAD
    0x080014c8   0x080014c8   0x00000048   Code   RO         2651    i.rt_hw_console_output  board.o
    0x08001510   0x08001510   0x00000210   Code   RO         2607    i.rt_hw_hard_fault_exception  cpuport.o
    0x08001720   0x08001720   0x0000003c   Code   RO         2608    i.rt_hw_stack_init  cpuport.o
    0x0800175c   0x0800175c   0x0000001c   Code   RO         2072    i.rt_interrupt_enter  irq.o
    0x08001778   0x08001778   0x0000001c   Code   RO         2074    i.rt_interrupt_leave  irq.o
    0x08001794   0x08001794   0x00000020   Code   RO         2104    i.rt_kprintf        kservice.o
    0x080017b4   0x080017b4   0x0000000e   Code   RO         2408    i.rt_list_insert_after  thread.o
    0x080017c2   0x080017c2   0x0000000e   Code   RO         2525    i.rt_list_insert_after  timer.o
    0x080017d0   0x080017d0   0x00000012   Code   RO         2409    i.rt_list_remove    thread.o
    0x080017e2   0x080017e2   0x00000012   Code   RO         2526    i.rt_list_remove    timer.o
    0x080017f4   0x080017f4   0x00000046   Code   RO         2109    i.rt_memset         kservice.o
    0x0800183a   0x0800183a   0x00000024   Code   RO         2273    i.rt_object_detach  object.o
    0x0800185e   0x0800185e   0x00000002   PAD
    0x08001860   0x08001860   0x00000024   Code   RO         2275    i.rt_object_get_information  object.o
    0x08001884   0x08001884   0x00000052   Code   RO         2279    i.rt_object_init    object.o
    0x080018d6   0x080018d6   0x0000000e   Code   RO         2280    i.rt_object_is_systemobject  object.o
    0x080018e4   0x080018e4   0x00000058   Code   RO         2341    i.rt_schedule       scheduler.o
    0x0800193c   0x0800193c   0x00000050   Code   RO         2342    i.rt_schedule_insert_thread  scheduler.o
    0x0800198c   0x0800198c   0x00000048   Code   RO         2343    i.rt_schedule_remove_thread  scheduler.o
    0x080019d4   0x080019d4   0x000000b0   Code   RO         2111    i.rt_show_version   kservice.o
    0x08001a84   0x08001a84   0x00000010   Code   RO         2116    i.rt_strlen         kservice.o
    0x08001a94   0x08001a94   0x00000026   Code   RO         2118    i.rt_strncpy        kservice.o
    0x08001aba   0x08001aba   0x00000002   PAD
    0x08001abc   0x08001abc   0x00000034   Code   RO         2344    i.rt_system_scheduler_init  scheduler.o
    0x08001af0   0x08001af0   0x00000028   Code   RO         2345    i.rt_system_scheduler_start  scheduler.o
    0x08001b18   0x08001b18   0x0000000c   Code   RO         2527    i.rt_system_timer_init  timer.o
    0x08001b24   0x08001b24   0x00000002   Code   RO         2528    i.rt_system_timer_thread_init  timer.o
    0x08001b26   0x08001b26   0x00000002   PAD
    0x08001b28   0x08001b28   0x0000005c   Code   RO         2414    i.rt_thread_exit    thread.o
    0x08001b84   0x08001b84   0x00000002   Code   RO         1986    i.rt_thread_idle_entry  idle.o
    0x08001b86   0x08001b86   0x00000002   PAD
    0x08001b88   0x08001b88   0x00000038   Code   RO         1989    i.rt_thread_idle_init  idle.o
    0x08001bc0   0x08001bc0   0x00000030   Code   RO         2416    i.rt_thread_init    thread.o
    0x08001bf0   0x08001bf0   0x0000003c   Code   RO         2418    i.rt_thread_resume  thread.o
    0x08001c2c   0x08001c2c   0x0000000c   Code   RO         2419    i.rt_thread_self    thread.o
    0x08001c38   0x08001c38   0x0000002c   Code   RO         2421    i.rt_thread_startup  thread.o
    0x08001c64   0x08001c64   0x00000020   Code   RO         2423    i.rt_thread_timeout  thread.o
    0x08001c84   0x08001c84   0x00000060   Code   RO         2424    i.rt_thread_yield   thread.o
    0x08001ce4   0x08001ce4   0x0000000c   Code   RO         1854    i.rt_tick_get       clock.o
    0x08001cf0   0x08001cf0   0x0000002c   Code   RO         1855    i.rt_tick_increase  clock.o
    0x08001d1c   0x08001d1c   0x0000008c   Code   RO         2529    i.rt_timer_check    timer.o
    0x08001da8   0x08001da8   0x00000028   Code   RO         2531    i.rt_timer_detach   timer.o
    0x08001dd0   0x08001dd0   0x00000030   Code   RO         2532    i.rt_timer_init     timer.o
    0x08001e00   0x08001e00   0x00000084   Code   RO         2534    i.rt_timer_start    timer.o
    0x08001e84   0x08001e84   0x0000002e   Code   RO         2535    i.rt_timer_stop     timer.o
    0x08001eb2   0x08001eb2   0x00000002   PAD
    0x08001eb4   0x08001eb4   0x00000284   Code   RO         2121    i.rt_vsnprintf      kservice.o
    0x08002138   0x08002138   0x00000004   Code   RO         1916    i.rti_board_end     components.o
    0x0800213c   0x0800213c   0x00000004   Code   RO         1917    i.rti_board_start   components.o
    0x08002140   0x08002140   0x00000004   Code   RO         1918    i.rti_end           components.o
    0x08002144   0x08002144   0x00000004   Code   RO         1919    i.rti_start         components.o
    0x08002148   0x08002148   0x0000002a   Code   RO         1920    i.rtthread_startup  components.o
    0x08002172   0x08002172   0x00000028   Code   RO         2123    i.skip_atoi         kservice.o
    0x0800219a   0x0800219a   0x00000002   PAD
    0x0800219c   0x0800219c   0x00000034   Code   RO         2652    i.uart_init         board.o
    0x080021d0   0x080021d0   0x00000010   Data   RO         1815    .constdata          system_stm32f4xx.o
    0x080021e0   0x080021e0   0x00000008   Data   RO         1816    .constdata          system_stm32f4xx.o
    0x080021e8   0x080021e8   0x00000122   Data   RO         2125    .constdata          kservice.o
    0x0800230a   0x0800230a   0x00000002   PAD
    0x0800230c   0x0800230c   0x00000004   Data   RO         1922    .rti_fn.0           components.o
    0x08002310   0x08002310   0x00000004   Data   RO         1923    .rti_fn.0.end       components.o
    0x08002314   0x08002314   0x00000004   Data   RO         2654    .rti_fn.1           board.o
    0x08002318   0x08002318   0x00000004   Data   RO         1924    .rti_fn.1.end       components.o
    0x0800231c   0x0800231c   0x00000004   Data   RO         1925    .rti_fn.6.end       components.o
    0x08002320   0x08002320   0x00000020   Data   RO         2726    Region$$Table       anon$$obj.o


    Execution Region RW_IRAM2 (Exec base: 0x10000000, Load base: 0x080023b8, Size: 0x00000000, Max: 0x00010000, ABSOLUTE)

    **** No section assigned to this execution region ****


    Execution Region RW_IRAM1 (Exec base: 0x20000000, Load base: 0x08002340, Size: 0x00000bf8, Max: 0x00020000, ABSOLUTE)

    Exec Addr    Load Addr    Size         Type   Attr      Idx    E Section Name        Object

    0x20000000   0x08002340   0x0000000c   Data   RW         1189    .data               stm32f4xx_hal.o
    0x2000000c   0x0800234c   0x00000004   Data   RW         1817    .data               system_stm32f4xx.o
    0x20000010   0x08002350   0x00000004   Data   RW         1857    .data               clock.o
    0x20000014   0x08002354   0x00000001   Data   RW         2075    .data               irq.o
    0x20000015   0x08002355   0x00000003   PAD
    0x20000018   0x08002358   0x00000030   Data   RW         2282    .data               object.o
    0x20000048   0x08002388   0x00000014   Data   RW         2347    .data               scheduler.o
    0x2000005c   0x0800239c   0x0000000c   Data   RW         2536    .data               timer.o
    0x20000068   0x080023a8   0x00000004   Data   RW         2609    .data               cpuport.o
    0x2000006c   0x080023ac   0x00000004   Data   RW         2610    .data               cpuport.o
    0x20000070   0x080023b0   0x00000004   Data   RW         2611    .data               cpuport.o
    0x20000074   0x080023b4   0x00000004   Data   RW         2612    .data               cpuport.o
    0x20000078        -       0x00000044   Zero   RW          174    .bss                usart.o
    0x200000bc   0x080023b8   0x00000004   PAD
    0x200000c0        -       0x00000478   Zero   RW         1921    .bss                components.o
    0x20000538        -       0x000000f8   Zero   RW         1990    .bss                idle.o
    0x20000630        -       0x00000080   Zero   RW         2124    .bss                kservice.o
    0x200006b0        -       0x00000100   Zero   RW         2346    .bss                scheduler.o
    0x200007b0        -       0x00000044   Zero   RW         2653    .bss                board.o
    0x200007f4   0x080023b8   0x00000004   PAD
    0x200007f8        -       0x00000400   Zero   RW            1    STACK               startup_stm32f407xx.o


==============================================================================

Image component sizes


      Code (inc. data)   RO Data    RW Data    ZI Data      Debug   Object Name

       180         16          4          0         68       3366   board.o
        56         12          0          4          0       6789   clock.o
       198         32         16          0       1144       6676   components.o
       308         28          0          0          0        884   context_rvds.o
       588        344          0         16          0       4298   cpuport.o
        76          6          0          0          0        859   gpio.o
        58         16          0          0        248       1864   idle.o
        56         12          0          1          0       1790   irq.o
      1388        158        290          0        128      10836   kservice.o
       170          8          0          0          0     658780   main.o
       168          6          0         48          0       6572   object.o
       416         56          0         20        256       8718   scheduler.o
        36          8        392          0       1024        828   startup_stm32f407xx.o
       128         20          0         12          0       8219   stm32f4xx_hal.o
       172         14          0          0          0      33222   stm32f4xx_hal_cortex.o
       496         46          0          0          0       1524   stm32f4xx_hal_gpio.o
        48          6          0          0          0        842   stm32f4xx_hal_msp.o
      1398         86          0          0          0       7307   stm32f4xx_hal_rcc.o
       664         10          0          0          0       4140   stm32f4xx_hal_uart.o
        14          0          0          0          0       2297   stm32f4xx_it.o
       136         20         24          4          0       1851   system_stm32f4xx.o
       572         40          0          0          0      10551   thread.o
       458         14          0         12          0      10309   timer.o
       164         22          0          0         68       1694   usart.o

    ----------------------------------------------------------------------
      7976        980        760        120       2944     794216   Object Totals
         0          0         32          0          0          0   (incl. Generated)
        28          0          2          3          8          0   (incl. Padding)

    ----------------------------------------------------------------------

      Code (inc. data)   RO Data    RW Data    ZI Data      Debug   Library Member Name

         0          0          0          0          0          0   entry.o
         0          0          0          0          0          0   entry10a.o
         0          0          0          0          0          0   entry11a.o
         4          0          0          0          0          0   entry12b.o
         8          4          0          0          0          0   entry2.o
         4          0          0          0          0          0   entry5.o
         0          0          0          0          0          0   entry7b.o
         0          0          0          0          0          0   entry8b.o
         8          4          0          0          0          0   entry9a.o
        30          0          0          0          0          0   handlers.o
        36          8          0          0          0         68   init.o
        30          0          0          0          0         68   llshl.o
        32          0          0          0          0         68   llushr.o
        36          0          0          0          0        108   memseta.o
        98          0          0          0          0         92   uldiv.o

    ----------------------------------------------------------------------
       288         16          0          0          0        404   Library Totals
         2          0          0          0          0          0   (incl. Padding)

    ----------------------------------------------------------------------

      Code (inc. data)   RO Data    RW Data    ZI Data      Debug   Library Name

       286         16          0          0          0        404   mc_w.l

    ----------------------------------------------------------------------
       288         16          0          0          0        404   Library Totals

    ----------------------------------------------------------------------

==============================================================================


      Code (inc. data)   RO Data    RW Data    ZI Data      Debug   

      8264        996        760        120       2944     785620   Grand Totals
      8264        996        760        120       2944     785620   ELF Image Totals
      8264        996        760        120          0          0   ROM Totals

==============================================================================

    Total RO  Size (Code + RO Data)                 9024 (   8.81kB)
    Total RW  Size (RW Data + ZI Data)              3064 (   2.99kB)
    Total ROM Size (Code + RO Data + RW Data)       9144 (   8.93kB)

==============================================================================

