:020000040800F2
:10000000F80B0020A1010008A30E0008A5020008BB
:10001000A10E0008EB0300085D11000800000000BD
:10002000000000000000000000000000B301000814
:10003000ED03000800000000F3010008A90E00080D
:10004000BB010008BB010008BB010008BB010008A0
:10005000BB010008BB010008BB010008BB01000890
:10006000BB010008BB010008BB010008BB01000880
:10007000BB010008BB010008BB010008BB01000870
:10008000BB010008BB010008BB010008BB01000860
:10009000BB010008BB010008BB010008BB01000850
:1000A000BB010008BB010008BB010008BB01000840
:1000B000BB010008BB010008BB010008BB01000830
:1000C000BB010008BB010008BB010008BB01000820
:1000D000BB010008BB010008BB010008BB01000810
:1000E000BB010008BB010008BB010008BB01000800
:1000F000BB010008BB010008BB010008BB010008F0
:10010000BB010008BB010008BB010008BB010008DF
:10011000BB010008BB010008BB010008BB010008CF
:10012000BB010008BB010008BB010008BB010008BF
:10013000BB010008BB010008BB010008BB010008AF
:10014000BB010008BB010008BB010008BB0100089F
:10015000BB010008BB010008BB010008BB0100088F
:10016000BB010008BB010008BB010008BB0100087F
:10017000BB010008BB010008BB0100080000000033
:10018000BB010008BB010008DFF810D000F016F931
:1001900000480047E1030008AFF30080F80B00209F
:1001A0000648804706480047FEE7FEE7FEE7FEE711
:1001B000FEE7FEE7FEE7FEE7FEE7FEE7C90F000801
:1001C00089010008EFF3108072B6704780F3108841
:1001D0007047424A1368012B04D04FF001031360AB
:1001E0003F4A10603F4A11603F484FF08051016024
:1001F0007047EFF3108272B63848016851B34FF080
:10020000000101603648016891B1EFF309811EF0E9
:10021000100F08BF21ED108B21E9F00F4FF0000403
:100220001EF0100F08BF012441F8044D0068016062
:100230002C490968096808C9B1E8F00F002B18BFFC
:10024000B1EC108B81F309884EF0100E002B18BF13
:100250002EF0100E82F310884EF0040E70472149E4
:100260000860EFF3148222F0040282F314881C4920
:100270004FF00000086019494FF0010008601B486A
:100280001B49D0F8002041EA0201016016484FF0F6
:100290008051016017480068006880F3088861B6E3
:1002A00062B670471EF0040F0CBFEFF30880EFF347
:1002B000098020E9F00F40F804ED40F804ED1EF04D
:1002C000040F0CBF80F3088880F3098800B501F0A3
:1002D0001FF95DF804EB4EF0040E70477400002027
:1002E0006C0000207000002004ED00E020ED00E034
:1002F0000000FFFF08ED00E02DE9F05F054600205B
:1003000092469B4688460646814640241BE0284686
:1003100041464746224600F041F853465A46C01A25
:10032000914110D311461846224600F028F82D1AA4
:1003300067EB01084F4622460120002100F01FF81C
:1003400017EB00094E41201EA4F10104DFDC4846F2
:1003500031462A464346BDE8F09FD2B201E000F89C
:10036000012B491EFBD270470022F6E710B5134659
:100370000A4604461946FFF7F0FF204610BD202A22
:1003800004DB203A00FA02F1002070479140C2F1EC
:10039000200320FA03F3194390407047202A04DB1E
:1003A000203A21FA02F00021704721FA02F3D040EE
:1003B000C2F120029140084319467047064C074D90
:1003C00006E0E06840F0010394E807009847103425
:1003D000AC42F6D3FFF7DCFE2023000840230008E0
:1003E00010B501F0B1FE002010BDFEE7704772B6F7
:1003F000FEE700002DE9F84FDFF8BCA1002201253F
:100400000AF1040B03264FF00F090BF1040E00BF95
:100410000B6805FA02F42340A34270D10F7907F06C
:100420000307012F01D0022F16D187684FEA420837
:1004300006FA08FC27EA0C07D1F80CC00CFA08FCF5
:100440004CEA070CC0F808C04768A7430C79C4F30E
:10045000001494403C4344600C79E443A4070AD060
:10046000C4684FEA420C06FA0CF7BC438F6807FADF
:100470000CF72743C7600C7904F00304022C12D157
:10048000D40800EB840CDCF820405707FF0E09FA73
:1004900007F824EA0804D1F8108008FA07F848EAB7
:1004A0000408CCF8208004684FEA420C06FA0CF7E6
:1004B000BC430F7907F0030707FA0CF727430760DF
:1004C0004C6814F4403F70D03C4C276847F4804798
:1004D0002760246822F0030704F480440094384C19
:1004E00007EB040CDCF8084897074FEA177809FA7D
:1004F00008F7BC43334FB84202D1002724E054E050
:10050000314FB84201D101271EE0304FB84201D12E
:10051000022719E02E4FB84201D1032714E02D4FD6
:10052000B84201D104270FE02B4FB84201D1052773
:100530000AE02A4FB84201D1062705E0284FB84209
:1005400001D1072700E0082707FA08F72743CCF86E
:100550000878DAF800405746D1F804C09C435FEAB7
:10056000CC3C00D51C433C60DBF800405F46D1F832
:1005700004C09C435FEA8C3C00D51C433C60DEF821
:1005800000407746D1F804C09C435FEACC2C00D5EC
:100590001C433C60084F0C373C68D1F804C09C43B6
:1005A0005FEA8C2C00D51C433C60521C102AFFF4DF
:1005B0002FAFBDE8F88F0000003C014044380240F6
:1005C00000300140000002400004024000080240E8
:1005D000000C0240001002400014024000180240CB
:1005E000001C0240014880687047000000000020A5
:1005F0000B4810B5016841F400710160016841F4D5
:1006000080610160016841F480710160032000F0A5
:1006100061F8002000F006F800F024F8002010BD7A
:10062000003C024070B50D4D04464FF47A712878B5
:10063000B1FBF0F00A490968B1FBF0F000F018FBDB
:1006400048B9102C07D200222146501E00F022F893
:1006500000206C6070BD012070BD00000000002013
:100660000C0000200A4808B5016841F4804101608F
:10067000006800F4804000900548001F016841F0C8
:1006800080510160006800F08050009008BD0000BB
:1006900044380240F0B40E4B1B680C46C3F30223EF
:1006A000C3F10705042D00D90425191D072901D21E
:1006B000002300E0DB1E012606FA05F1491E214059
:1006C00099409E40761E16403143F0BC00F047BD75
:1006D0000CED00E0064900F0070208684FF6FF0342
:1006E000184040EA0220034A1043086070470000A7
:1006F0000CED00E00000FA05704700002DE9F0471E
:100700000E46050065D0DFF81481D8F80000F7B276
:1007100000F00700B04207D288F80070D8F8000057
:1007200000F00700B04254D128683D4C810712D533
:10073000400703D5206840F4E05020602878000787
:1007400003D5206840F4604020602068A96820F04C
:10075000F000084320602878C0072DD03049686831
:100760000839012812D0022813D0032811D00968B3
:10077000890700292DDA216821F003010143216056
:10078000FFF730FF814641F2883A0EE0096889039D
:10079000EFE709688901ECE7FFF724FFA0EB090107
:1007A000514502D90320BDE8F0872068696800F050
:1007B0000C00B0EB810FEFD1D8F80010404601F0EB
:1007C0000701B14207D90770006800F00700B04286
:1007D00001D00120E7E72878400705D52068E968BF
:1007E00020F4E050084320602878000706D52068F0
:1007F000296920F4604040EAC100206000F044F81C
:100800002168084AC1F30311515CC84006490860D9
:1008100006480068FFF706FF0020C4E7003C0240DE
:1008200008380240D02100080C00002004000020FD
:1008300001490120C8647047000047420148006830
:10084000704700000C000020044805490068096852
:10085000044AC1F38221515CC84070470C0000205B
:1008600008380240E021000804480549006809688A
:10087000044AC1F34231515CC84070470C0000206B
:1008800008380240E0210008154810B5006810F053
:100890000C02144813D04110042A0FD0082A0ED19C
:1008A0000F4C241F2268236802F03F025B0207D529
:1008B0002068C0F38810A0FB010106E0084610BDC7
:1008C0002168C1F38811A1FB00010023FFF714FD8B
:1008D0002168C1F30141491C4900B0FBF1F010BD92
:1008E000083802400024F400054810B500680006EE
:1008F00005D5FFF701FF02498020891C087010BD53
:100900000C3802402DE9F84F04006ED02078DFF853
:100910004C93C007A9F104054AD009F1040001680D
:10092000C1F38101012908D00068C0F381000228C9
:100930000AD1D9F80000400206D52868800337D5CF
:1009400060680028E1D033E06068B0F5803F10D0E7
:10095000B0F5A02F286810D020F4803028602868D7
:1009600020F4802028606068A8B1FFF73BFE0646AF
:100970000DE0286840F48030F4E740F480202860DF
:10098000F7E700BFFFF72EFE801B642873D82868A6
:100990008003F7D50CE0FFF725FE064605E000BF13
:1009A000FFF720FE801B6428F0D828688003F7D466
:1009B0002078DFF8AC8280074FF0000A3ED5A748C8
:1009C000001D016811F00C0F08D00068C0F3810011
:1009D00002280BD1D9F80000400207D4286880070C
:1009E00016D5E068012800D112E033E1E068B8B123
:1009F0000120C8F80000FFF7F5FD064605E000BF3E
:100A0000FFF7F0FD801B0228C0D828688007F7D5C3
:100A10002868216920F0F80040EAC10028600DE054
:100A2000C8F800A0FFF7DEFD064604E0FFF7DAFD98
:100A3000801B02281FD828688007F7D42078000779
:100A400022D5864F87486169703771B101210160F5
:100A5000FFF7C8FD064604E0FFF7C4FD801B02282F
:100A600009D838688007F7D50EE0C0F800A0FFF776
:100A7000B9FD064605E082E0FFF7B4FD801B0228C1
:100A80007DD838688007F7D42078400768D5DFF82C
:100A9000CCB100270BF13C0BDBF80000C0000BD4FD
:100AA000DBF8001041F08051CBF80010DBF80000BB
:100AB000012700F0805000906B4E3068C00510D4C4
:100AC000306840F480703060FFF78CFD009005E0E6
:100AD000FFF788FD0099401A022850D83068C005F9
:100AE000F6D55E4EA0686C3601280FD00528306818
:100AF00010D020F001003060306820F00400306039
:100B0000A068B8B1FFF76EFD00900FE0306840F0CC
:100B10000100F4E740F004003060F7E7FFF762FD02
:100B20000099411A41F28830814266D830688007C6
:100B3000F4D50EE0FFF756FD009007E0FFF752FDF9
:100B40000099411A41F28830814256D830688007B6
:100B5000F4D42FB1DBF8001021F08051CBF8001055
:100B6000A069C8B33D49091D0968C1F38101022983
:100B70004AD00228504607D0C8F8600000E03CE0A8
:100B8000FFF730FD04463BE04746C8F86000FFF73A
:100B900029FD064605E000BFFFF724FD801B022863
:100BA0002BD828688001F7D4D4E907010843A16A4B
:100BB0002E4A490802EB0141626A41EA8211084368
:100BC00094F82C1040EA0161C9F800100120386641
:100BD000FFF708FD044606E03EE000BFFFF702FD18
:100BE000001B022809D828688001F7D534E000BF2F
:100BF000FFF7F8FC001B022802D90320BDE8F88F9C
:100C000028688001F4D427E00128F7D0D9F8000043
:100C1000E26900F4800191421CD1226A00F03F0198
:100C2000914217D147F6C071626A0140B1EB821F51
:100C300010D1A26A4FF0FF3300F4403103EB5202AF
:100C4000B1EB024F06D194F82C1000F07060B0EBBD
:100C5000016F01D00120D1E70020CFE70438024026
:100C600000004742800E4742007000400000FFFF36
:100C700010B5401EB0F1807F01D3012010BD4FF0B0
:100C8000E02460610F21601700F069FA0020A06184
:100C900007202061002010BD70B5040004D094F836
:100CA0003D00002510B106E0012070BD84F83C50E5
:100CB000204600F023F8242084F83D002068C16815
:100CC00021F40051C160204600F086F920680169D6
:100CD00021F4904101612068416921F02A014161BC
:100CE0002068C16841F40051C1602564202084F867
:100CF0003D0084F83E00002070BD000010B586B0B5
:100D0000044614216846FFF72FFB144920688842E7
:100D100021D113480021026842F0100202600068ED
:100D200000F0100005900E481438026842F00102ED
:100D30000260006800F0010005904FF4C060009070
:100D40000220CDE9010103200390072004906946A9
:100D50000448FFF74FFB06B010BD00000010014033
:100D600044380240000002402DE9F843044690F860
:100D70003D001F4616460D4620284CD1C5B1BEB1D8
:100D800094F83C00012846D0012084F83C004FF044
:100D90000008C4F84080212084F83D00FFF722FCC1
:100DA000A6848146E684A068B0F5805F03D004E0A5
:100DB0000120BDE8F883206928B12E465FF00005C8
:100DC00084F83C800EE00026FAE78021204600F0FF
:100DD00089F9A0B9AEB116F8010B21684860E08C22
:100DE000401EE084E08C4B464FF000020097002844
:100DF000EBD14FF04001204600F074F930B10320F0
:100E0000D7E735F8020BC0F30800E6E7202084F8A6
:100E10003D000020CDE70220CBE70000114808B5D7
:100E2000016841F004010160016801F004010091D2
:100E3000016841F080010160016801F080010091CA
:100E4000016841F001010160016801F001010091B8
:100E5000016841F002010160006800F002000090AA
:100E600008BD0000303802400C4810B50A49016046
:100E70004FF4E1314160002181600C22C160C0E982
:100E800004128161C161FFF707FF002803D0BDE8AC
:100E90001040FFF7ACBA10BD0010014078000020F0
:100EA000FEE7FFF721FDFEE710B500F057FC00F06C
:100EB0001FFFBDE8104000F05FBC000030B593B0EC
:100EC00030216846FFF750FA14210CA8FFF74CFABE
:100ED0001D480025016841F080510160006800F064
:100EE000805011901948016841F480410160006808
:100EF000022400F480401190012000900004019031
:100F00008001CDE9064008AA0420A82182E8130048
:100F10000B906846FFF7F6FC08B172B6FEE70CA925
:100F20000F2081E831004FF4A0500F904FF4805013
:100F3000109005210CA8FFF7E1FB08B172B6FEE79F
:100F4000FFF776FC13B030BD40380240007000401F
:100F500070B5194C2068194A10F00C01184804D0DB
:100F60005510042903D0082903D002601BE0056056
:100F700019E01149091F0B68C3F380560B6803F091
:100F80003F0316B1B5FBF3F201E0B2FBF3F20B68DD
:100F90000968C3F388135A43C1F30141491C49004E
:100FA000B2FBF1F101602168064AC1F30311515C03
:100FB0000268CA40026070BD083802400024F40094
:100FC0000C000020D02100080248016841F47001A3
:100FD0000160704788ED00E070B504460068016963
:100FE000E26821F44051114301612169A068E2697E
:100FF00008436169114308432168CA6849F20C63D8
:101000009A430243CA6020684169A26921F4407191
:101010001143416131492068884202D030498842F9
:1010200002D1FFF721FC01E0FFF70EFCE26900238B
:10103000192164253226B2F5004F626828D0A0FB42
:101040000101930F9200FFF757F90146B0FBF5F04D
:101050006FF01802504301EB800006EB0010B0FB6C
:10106000F5F000F0F002B1FBF5F002EB0012B1FB7D
:10107000F5F06FF01803584301EB800006EB001009
:10108000B0FBF5F000F00F0021681044886070BDDF
:10109000A0FB010192185B41FFF72EF90146B0FB5E
:1010A000F5F00201B1FBF5F06FF01803584301EBC6
:1010B000800006EBC000B0FBF5F000F0F80002EB9A
:1010C0004002B1FBF5F0584301EB800006EBC00095
:1010D000B0FBF5F000F00700D6E70000001001407B
:1010E000001401402DE9F041984617460E4604468B
:1010F000069D27E0681C25D02DB1FFF773FAA0EB01
:101100000800A8421ED920680C3050E8001F21F4C6
:10111000D07140E80012002AF5D12068143050E860
:10112000001F21F0010140E80012002AF5D1202023
:1011300084F83D0084F83E00002084F83C00032041
:10114000BDE8F0812068006836EA000004D0002085
:10115000B842CFD00020F3E70120F9E7FEE7090706
:10116000090E002804DB00F1E02080F8001470472D
:1011700000F00F0000F1E02080F8141D704700001F
:10118000002807D00E4910F0FF0F04D051FA80F06C
:101190000078401C704710F47F4F04D0C0F3072044
:1011A000085C0930704710F47F0F04D0C0F307408B
:1011B000085C1130704701EB1060007819307047FF
:1011C000E821000802E008C8121F08C1002AFAD16D
:1011D00070477047002001E001C1121F002AFBD1B7
:1011E000704700002DE9FC411F460446DDE9083147
:1011F000DDE90A65143040600060C4E90827C4E9ED
:101200000A310A46232118461C3400F0F3FAD4E9C7
:1012100003014218D4E90101104B121F00F080FABB
:1012200044F81A0B002004F801690D4A04F8036B16
:10123000E4E8020544F8105901C404F83C0B01C469
:1012400044F87409009023460190194604F14400C3
:1012500000F0BEFD0020BDE8FC810000291B000855
:10126000651C0008143000F0BCBA70B50546FEF7E6
:10127000A9FF296F044609B1284688472046BDE8E2
:101280007040FEF7A3BFFFF7B3F9FFF717FEFFF7B4
:10129000C5FDFFF7E9FDFEE710B500F0C9F8BDE8B0
:1012A0001040FFF7F0BF00002DE9F04F85B09946E0
:1012B000DDE90EA5109CAB46630602D5DFF814C12C
:1012C00003E0DFF810C1ACF1110CE30601D524F006
:1012D0000104E30701D0302300E02023002604931B
:1012E000A3070BD5002A02DA2D26524206E0630737
:1012F00001D52B2602E0230700D520260023EE4649
:1013000022B930228DF8002001230CE0B9F10A0F38
:1013100014D002F00F0812091CF808800EF80380A0
:101320005B1C002AF2D1AB4200DD1D46AAEB050290
:1013300014F0110F4FF0200708D015E00A27B2FB78
:10134000F7F807FB1828B2FBF7F2E5E73EB1002AF1
:1013500005DD521E03E0884200D20770401CB2F146
:10136000000CA2F10102F6DC26B1884200D2067020
:10137000401C521EE40605D508E0884201D2049CB8
:101380000470401C141EA2F10102F6DC30242E462B
:101390006D1E9E420ADD884200D20470401CF6E7B2
:1013A000884201D2E55C0570401C00E074461D1EB9
:1013B000A3F1010307DDBBF1000FF1D103E0884287
:1013C00000D20770401C131EA2F10102F7DC05B029
:1013D000BDE8F08FF92200081FB50A4C14230A2239
:1013E0004FF48061A4F580608DE80F000023064A69
:1013F00006A1204600F0E4FB04B02046BDE8104002
:1014000000F01ABCC0040020991200086D61696EDA
:101410000000000070B5044C044D02E020688047D5
:10142000241DAC42FAD370BD102300081823000815
:1014300070B5044C044D02E020688047241DAC4286
:10144000FAD370BD182300081C23000810B5FEF75E
:10145000B9FE044A5188491C5180BDE81040FEF78E
:10146000B5BE00004800002010B5FEF7ABFE0B4CE7
:101470006188491E09B2618000290ADC002161806F
:10148000FEF7A4FE6068002807D0BDE8104000F019
:1014900029BABDE81040FEF799BE10BD48000020F3
:1014A00010B5FFF7A5F8FFF709FDFFF751FDFFF7AE
:1014B000C5F94FF47A71B0FBF1F0FFF7D9FBBDE845
:1014C0001040FFF7A7BF0000F8B506460D200F49F2
:1014D0008DF80000002481F83C40304600F0D2FA3C
:1014E00005460FE0305D0A2805D101231A466946FA
:1014F0000648FFF739FC012331191A460348FFF764
:1015000033FC641CAC42EDD3F8BD0000B0070020F2
:1015100070B52F490546283009682C1D11B1884740
:10152000002853D02BA0216C00F034F92DA0616A63
:1015300000F030F92FA0A16A00F02CF931A0E16A87
:1015400000F028F933A0216B00F024F935A0616880
:1015500000F020F937A0A16800F01CF939A0E1687B
:1015600000F018F93BA0216900F014F93DA0616971
:1015700000F010F93FA0A16900F00CF941A0E16969
:1015800000F008F943A0216A00F004F945A0616B5E
:1015900000F000F947A0A16B00F0FCF849A0E16B56
:1015A00000F0F8F82878400706D500F03FFB014628
:1015B00048A000F0EFF802E04EA000F0EBF8287829
:1015C000C00602D452A000F0E5F8FEE770BD0000AE
:1015D000680000207073723A203078253038780A1D
:1015E000000000007230303A203078253038780A18
:1015F000000000007230313A203078253038780A07
:10160000000000007230323A203078253038780AF5
:10161000000000007230333A203078253038780AE4
:10162000000000007230343A203078253038780AD3
:10163000000000007230353A203078253038780AC2
:10164000000000007230363A203078253038780AB1
:10165000000000007230373A203078253038780AA0
:10166000000000007230383A203078253038780A8F
:10167000000000007230393A203078253038780A7E
:10168000000000007231303A203078253038780A76
:10169000000000007231313A203078253038780A65
:1016A000000000007231323A203078253038780A54
:1016B00000000000206C723A203078253038780A1B
:1016C000000000002070633A203078253038780A16
:1016D0000000000068617264206661756C74206FA0
:1016E0006E207468726561643A2025730D0A0D0AD4
:1016F0000000000068617264206661756C74206F80
:101700006E2068616E646C65720D0A0D0A0000003F
:1017100046505520616374697665210D0A0000000A
:1017200070B50446121D22F0070000220A4D44380D
:1017300040F82250521C112AFAD3416200218162E2
:10174000C16200F13402016382E81A004FF0807335
:101750000364016070BD0000EFBEADDE10B5FEF7A2
:1017600031FD044A1178491C1170BDE81040FEF7A4
:101770002DBD00001400002010B5FEF723FD044A23
:101780001178491E1170BDE81040FEF71FBD000022
:10179000140000200FB47F2110B503AB0448029A57
:1017A00000F088FB0248FFF78FFE10BC5DF814FBC9
:1017B000300600200268516002680A6001604860DB
:1017C00070470268516002680A60016048607047B3
:1017D000D0E900124A60D0E9001211604060006058
:1017E0007047D0E900124A60D0E9001211604060F1
:1017F0000060704710B50346CCB2042A1AD38107A3
:1018000018D1194644EA042343EA034306E008C119
:10181000103A08C141F8083B41F8043C102AF6D2BE
:1018200001E008C1121F042AFBD20B4602E000BFF0
:1018300003F8014B521EFBD210BD10B50446002028
:101840002072FEF7BFFCF4E903124A60D4E90012EB
:10185000116064602460BDE81040FEF7B7BC000072
:10186000074A002102EB01131B78834202D102EBED
:1018700001107047491C0329F4DB00207047000069
:10188000180000202DE9F041054617460E4608468F
:10189000FFF7E6FF0446FFF7D9FD211D606800E071
:1018A00000688842FCD1FFF7DFFD46F08000287217
:1018B00008223946284600F0EDF8FEF783FC54F87C
:1018C000041F0C354D602168296025606C60BDE8FF
:1018D000F041FEF77BBC007A000601D5012070477D
:1018E0000020704770B5FEF76DFC114C054660880E
:1018F000B0B9A068FFF744FC0E49401E626851F879
:101900003010143991420BD020700B486160007880
:1019100001F11C01002802F11C0006D0FEF759FC61
:101920002846BDE87040FEF751BCFEF752FCF7E7D1
:1019300048000020B00600201400002010B5044626
:10194000FEF740FC024694F834000E4920F00F00E8
:10195000401C84F8340094F8350001EBC00104F118
:1019600014004B6818604B68A361486006486161C9
:10197000A16B836819438160BDE810401046FEF7F3
:1019800025BC0000B00600204800002010B5044629
:10199000FEF718FC04F11401D1E900235360D1E9EA
:1019A00000231A60A161616194F83520074951F85C
:1019B000323001EBC2018B4204D10549A36B8A6826
:1019C0009A438A60BDE81040FEF700BCB0060020D4
:1019D0004800002008B509A0FFF7DCFE0AA0FFF7C9
:1019E000D9FE12A0009005230122032112A0FFF7C7
:1019F000D1FEBDE8084018A0FFF7CCBE0A205C204D
:101A00007C202F0A000000002D205254202D202081
:101A1000202020546872656164204F706572617483
:101A2000696E672053797374656D0A005365702081
:101A30002034203230323100202F207C205C2020C6
:101A400020202025642E25642E2564206275696C73
:101A5000642025730A0000002032303036202D200B
:101A60003230323020436F70797269676874206257
:101A7000792072742D746872656164207465616D7B
:101A80000A000000014600E0491C0A78002AFBD148
:101A9000081A704710B5002A07D0034611F8014B09
:101AA00003F8014B2CB1521EF8D110BD03F8011BF5
:101AB00000E00021521EF9D110BD000010B50A4906
:101AC00000230A4C4B80184604EBC002401C5260B5
:101AD00012602028F8DB1F20087003484B600C3090
:101AE0008B604060006010BD48000020B006002000
:101AF00010B5074CA068FFF743FB0649401E51F89C
:101B0000300014386060BDE810401C30FEF7A7BB01
:101B100048000020B0060020014840600060704787
:101B2000600000207047000070B514480468FEF79C
:101B300049FB05462046FFF798FB2046FFF726FFA6
:101B4000042084F8340004F1440000F02DF920460C
:101B5000FFF7C1FE01280CD004F114010848FFF77B
:101B600029FE00BFFFF7BEFE2846BDE87040FEF725
:101B70002DBB2046FFF761FEF4E700004C0000207B
:101B800054000020FEE700001FB5094820231F2253
:101B900080218DE80F000023064A07A1783800F065
:101BA0000FF804B00248BDE81040783800F044B89F
:101BB000B0050020851B00087469646C6500000096
:101BC0002DE9FF5F92460EAA0C4692E8E0010A4614
:101BD000994683460121FFF755FE8DE8E0014B460B
:101BE000524621465846FFF7FDFA04B0BDE8F09F83
:101BF00070B5044690F8340000F00F00022802D0BF
:101C00004FF0FF3070BDFEF7DDFA054604F1140019
:101C1000FFF7DEFD04F1440000F034F92846FEF73A
:101C2000D5FA2046FFF78AFE002070BD0148006803
:101C3000704700004C00002010B590F836100122CB
:101C400080F835108A400221826380F83410FFF753
:101C5000CFFF0348006808B1FFF744FE002010BD25
:101C60004C00002010B504466FF00100206304F121
:101C70001400FFF7ADFD2046FFF760FEBDE8104001
:101C8000FFF730BE70B5FEF79DFA064613480468AC
:101C900094F8340000F00F00012819D1D4E90501AF
:101CA000884215D004F114000546FFF791FD94F821
:101CB00035000B4901EBC00041680D604168696067
:101CC000456028603046FEF781FAFFF70BFE02E020
:101CD0003046FEF77BFA002070BD00004C0000206B
:101CE000B006002001480068704700001000002086
:101CF000094810B50168491C0160FFF797FF016CA6
:101D0000491E016403D1C16B0164FFF7BBFFBDE84D
:101D1000104000F003B80000100000202DE9FC4145
:101D2000CDF804D0CDF800D0FFF7DCFF0646FEF773
:101D300049FA07461B4D2DE060696FF00041301AEB
:101D4000143C884229D22046FFF78CFA607A81073A
:101D500002D420F00100607204F114018846684644
:101D6000FFF72FFDD4E907108847FFF7BBFF0646B2
:101D70000098694688420DD04046FFF732FD607AF0
:101D8000810707D5C10705D020F001006072204609
:101D900000F036F82C68AC42CED13846FEF716FA81
:101DA000BDE8FC816000002070B50446FEF70AFA29
:101DB00005462046FFF756FA607A20F0010060726F
:101DC0002846FEF703FA2046FFF737FD002070BDD6
:101DD0002DE9F0411746DDE906580A461E4604463D
:101DE0000A21FFF74FFD28F0010161720021C4E9CB
:101DF0000951C4E90776143464602460BDE8F081B9
:101E00002DE9F8430446FEF7DDF980462046FFF74A
:101E100029FA607A20F001006072FFF763FF616ABF
:101E2000174A4318A3620020009202EBC0026946E1
:101E300056686FF000475DF820200AE01268A2EBB8
:101E4000C0056D699D4202D0ED1ABD4203D341F831
:101E50002020B242F2D10A48001F0168491C0160EB
:101E600004F114010098FFF7ACFC607A40F0010027
:101E700060724046FEF7AAF90020BDE8F883000032
:101E80006000002070B50446407AC0070ED0FEF70F
:101E900099F905462046FFF7E5F9607A20F0010040
:101EA00060722846FEF792F9002070BD4FF0FF30B7
:101EB00070BD00002DE9FF4F8946044600EB09077D
:101EC00083B080464FF0FF3A4FF0200BA74202D27A
:101ED0005746C8F1FF390BE1252803D0BC4200D298
:101EE000207080E000260599491C059108782D286E
:101EF00011D02B2812D0202813D0232814D030281A
:101F000015D00A785546303A0A2A13D205A800F0AF
:101F100030F905461AE046F01006E4E746F00406FC
:101F2000E1E746F00806DEE746F02006DBE746F08C
:101F30000106D8E72A2809D10698491C059120C82E
:101F40000690002D02DA6D4246F010060598D44640
:101F500001782E2918D1401C05900178A1F130029A
:101F60000A2A04D205A800F004F9844607E02A29C9
:101F700008D1401C0590069850F804CB0690BCF19F
:101F8000000F01DA4FF0000C059A00201178682943
:101F900001D06C2902D1521C0846059211780A23FF
:101FA0006F2974D00CDC63291FD004DC25296FD085
:101FB00058290DD184E0642901D0692908D183E032
:101FC000702966D073292CD075297FD0782979D0D3
:101FD000BC4201D2252020700598641C0178E9B329
:101FE000BC4200D22170641C7FE0F00608D4584641
:101FF0006D1E002D04DDBC4200D22070641CF7E78A
:102000000698BC4210F8041B069000D22170584676
:1020100002E0BC4200D22070641C6D1E002DF8DC72
:1020200063E0069802C8069001B941A1002000E0D3
:10203000401CA84202D00A5C002AF9D1BCF1000F72
:1020400002DD604500DD6046F2060BD45A462B46A1
:102050006D1E834206DDBC4202D200E054E02270D5
:10206000641CF4E7002206E0BC4201D20B78237026
:10207000491C521C641C8242F6DB5A4629466D1EDE
:10208000814232DDBC4200D22270641CF6E715E0CA
:1020900010E0681C02D1082546F00106CDE9005C7D
:1020A00006980296102304C806903946204619E087
:1020B0000CE007E0BC4296D2252011E7082305E09A
:1020C00046F04006102301E046F002066C2801D0DD
:1020D00068281CD0069804C80690CDE9005C3946F3
:1020E00020460296FFF7E0F804460598401C05904C
:1020F0000598007800287FF4EFAEB9F1000F11D0F9
:10210000BC420DD220700DE0401E0590EDE7069810
:1021100030F8041B06908AB2B007DED512B2DCE7B5
:1021200007F8010C07B0A4EB0800BDE8F08F000031
:10213000284E554C4C290000002070470020704765
:10214000002070470020704710B5FEF73BF8FFF7FE
:10215000A7F9FFF73FFCFFF7DFFCFFF7AFFCFFF746
:102160003BF9FFF7DFFCFFF70FFDFFF7C1FC002095
:1021700010BD10B5014600206FF02F0307E0541C7E
:102180000C60127800EB800003EB400010440A68FA
:102190001478303C0A2CF2D310BD00000B4810B567
:1021A000094901604FF4E1314160002181600C2256
:1021B000C160C0E904128161C161FEF76DFD0028B4
:1021C00000D0FEE710BD000000440040B007002032
:1021D00000000000000000000102030406070809D7
:1021E00000000000010203040000010002000100E1
:1021F00003000100020001000400010002000100D0
:1022000003000100020001000500010002000100BE
:1022100003000100020001000400010002000100AF
:10222000030001000200010006000100020001009D
:10223000030001000200010004000100020001008F
:10224000030001000200010005000100020001007E
:10225000030001000200010004000100020001006F
:10226000030001000200010007000100020001005C
:10227000030001000200010004000100020001004F
:10228000030001000200010005000100020001003E
:10229000030001000200010004000100020001002F
:1022A000030001000200010006000100020001001D
:1022B000030001000200010004000100020001000F
:1022C00003000100020001000500010002000100FE
:1022D00003000100020001000400010002000100EF
:1022E000030001000200010030313233343536374B
:1022F00038396162636465660030313233343536B3
:102300003738394142434445460000004521000822
:102310003D2100089D2100083921000841210008C5
:10232000402300080000002078000000C4110008CD
:10233000B823000878000020800B0000D4110008AA
:102340000100000010000000000000000024F40064
:102350000000000000000000010000001C00002040
:102360001C00002078000000020000002C0000206B
:102370002C000020200000000A0000003C0000208B
:102380003C0000202C0000000000000000000000C5
:10239000000000000000000000000000000000003D
:1023A000000000000000000000000000000000002D
:0823B000000000000000000025
:040000050800018965
:00000001FF
