:020000040800F2
:10000000B80600209D0100080F1B000823190008F6
:100010000D1B0008D10300080D1E000800000000A1
:10002000000000000000000000000000131B00089A
:10003000F504000800000000111B0008151B000853
:10004000B7010008B7010008B7010008B7010008B0
:10005000B7010008B7010008B7010008B7010008A0
:10006000B7010008B7010008B7010008B701000890
:10007000B7010008B701000839040008B7010008FB
:10008000B701000845040008B7010008B7010008DF
:10009000B7010008B7010008B7010008B701000860
:1000A000B7010008B7010008B7010008B701000850
:1000B000B7010008B7010008B7010008B701000840
:1000C000B7010008B7010008B7010008B701000830
:1000D000B7010008B7010008B7010008B701000820
:1000E000B7010008B7010008B7010008B701000810
:1000F000B7010008B7010008B7010008B701000800
:10010000B7010008B7010008B7010008B7010008EF
:10011000B7010008B7010008B7010008B7010008DF
:10012000B7010008B7010008B7010008B7010008CF
:10013000B7010008B7010008B7010008B7010008BF
:10014000B7010008B7010008B7010008B7010008AF
:10015000B7010008B7010008B7010008B70100089F
:10016000B7010008B7010008B7010008B70100088F
:10017000B7010008B7010008B7010008000000003F
:10018000B7010008B7010008DFF80CD000F07AF8DA
:10019000004800474D1E0008B8060020064880476A
:1001A00006480047FEE7FEE7FEE7FEE7FEE7FEE75C
:1001B000FEE7FEE7FEE7FEE79D1B00088901000859
:1001C0002DE9F05F0546002092469B46884606468C
:1001D000814640241BE0284641464746224600F01F
:1001E00041F853465A46C01A914110D31146184659
:1001F000224600F028F82D1A67EB01084F462246E8
:100200000120002100F01FF817EB00094E41201ECD
:10021000A4F10104DFDC484631462A464346BDE8E6
:10022000F09FD2B201E000F8012B491EFBD27047CB
:100230000022F6E710B513460A4604461946FFF7B2
:10024000F0FF204610BD202A04DB203A00FA02F11C
:10025000002070479140C2F1200320FA03F31943B4
:1002600090407047202A04DB203A21FA02F0002156
:10027000704721FA02F3D040C2F1200291400843B6
:1002800019467047064C074D06E0E06840F0010350
:1002900094E8070098471034AC42F6D3FFF778FF94
:1002A0002C1F00084C1F0008464910B54A6822F46C
:1002B00040324A604A6843681A434A6001684A68A3
:1002C00022F480724A6001684A68036942EA0322A4
:1002D0004A6001684A6822F040724A6001684A68D0
:1002E00083681A434A6001688A6822F400628A605F
:1002F00001688A68C3681A438A60816A6FF0706215
:10030000D14201688A6822F070628A6001688A6856
:100310000CD0836A1A438A6001688A6822F04052CE
:100320008A6001688A68C36A1A4301E022F0405279
:100330008A6001688A6822F002028A6001688A681D
:10034000037E42EA43028A6090F820100029016887
:100350004A680FD042F400624A6001684A6822F499
:1003600060424A6001684A68174C436A04EB4333B1
:100370001A4301E022F400624A600168CA6A22F46A
:100380007002CA620168CA6A838B104C04EB035383
:100390001A43CA6201688A6822F400728A6001689E
:1003A0008A6890F8303042EA43228A6001688A689D
:1003B00022F480628A6001688A68406942EA80208B
:1003C000886010BD0023014000E0FFFF0000F0FF47
:1003D000FEE710B5846B204600F080FA0120207102
:1003E00010BD10B5846B204600F054FA0120207136
:1003F00010BD10B5846B206940F0040020612046D8
:1004000000F06EFA0120207110BD10B5846B2069D8
:1004100040F004002061204600F03EFA01202071E7
:1004200010BD10B5806B00F05AFA10BD10B5806B8E
:1004300000F031FA10BD0000014800F037BB0000A9
:1004400054020020014800F031BB000034010020BC
:1004500001681823CAB2103AB2FBF3F2054B6FF3EE
:100460000901032A9B5CC36500D9091D8165084603
:10047000704700000C1F000810B5014600208B6972
:100480008A6A4FF0C07453B1B3F5005F15D072B1F2
:10049000012A0CD0022A0AD0032A09D104E01AB199
:1004A000012A06D0022A03D1C96AC90100D5012058
:1004B00010BDC96AA142FAD010BD002AF7D0012AA6
:1004C000F2D0022AF3D0032AF3D010BD30B504686D
:1004D000256825F480252560046863608368402BC7
:1004E000036803D099600068C26030BD9A600068FC
:1004F000C16030BD7047704778B50024009490F813
:100500003C20012A19D0012280F83C200A680723E8
:100510000568092A13D9EE680A3A02EB42029340B1
:100520009E43EE600B788A680A3B03EB43039A40D4
:100530000368DD682A43DA6010E0022078BD2E6986
:1005400002EB420293409E432E610B788A6803EBD4
:1005500043039A4003681D692A431A614A681F23AE
:10056000072A13D205686E6B521E02EB820293407B
:100570009E436E630B790A885B1E92B203EB830382
:100580009A4003685D6B2A435A6327E005680D2A89
:1005900012D22E6BD21F02EB820293409E432E6337
:1005A0000B790A88DB1F92B203EB83039A4003683E
:1005B0001D6B2A431A6311E0EE6A0D3A02EB8202C8
:1005C00093409E43EE620B790A880D3B92B203EB97
:1005D00083039A400368DD6A2A43DA62164B056892
:1005E000144A9D4206D10D68122D03D1556845F479
:1005F0008005556005689D4218D10B68102B01D00D
:10060000112B13D1536843F4000353600968102978
:100610000CD10A490A4A0968B1FBF2F101EB8101E8
:10062000490000E0491E00910029FBD180F83C40C0
:10063000002078BD0023014000200140D4000020AC
:1006400040420F00006C70470068C06C704770B586
:1006500004004FF0000503D0206C002610B107E025
:10066000012070BD204600F01DF8666484F83C60EF
:10067000206CC00610D4206C20F4885040F002009A
:1006800020642046FFF710FE6664206C20F0020014
:1006900040F00100206400E0012584F83C60284619
:1006A00070BD000010B586B0044614216846FFF7FF
:1006B000BFFD1149206888421CD110480021026802
:1006C00042F480720260006800F4807005900B486C
:1006D0001438026842F001020260006800F0010074
:1006E0000590102000900320CDE9010169460448DF
:1006F00000F060FB06B010BD00200140443802400D
:10070000000002402DE9F041044600680D46816872
:100710004FF0000749050BD58068C00508D5206C4F
:1007200040F02000206484F83C700120BDE8F08196
:1007300000F01CFC06460FE0681C0DD025B100F04F
:1007400015FC801BA84207D9206C40F004002064EF
:1007500084F83C700320E9E7206800688007EBD547
:1007600021686FF012000860206C40F40070206473
:100770002068816811F0405F13D1217E89B9C16A78
:1007800011F4700F02D0806840050AD4206C20F468
:1007900080702064206CC00403D4206C40F0010001
:1007A00020640020C2E7000018B50021009190F8F5
:1007B0003C20012A07D0012280F83C20026893687F
:1007C000DB0702D011E0022018BD936843F001035B
:1007D00093602A4A2A4B1268B2FBF3F202EB420200
:1007E00000E0521E0092002AFBD102689368DB07EA
:1007F00041D0036C40F20164A34343F4807303646B
:1008000053685B0505D5036C23F4005343F4805310
:100810000364036CDB0404D5436C23F006034364D8
:1008200000E0416480F83C1016496FF02203136029
:1008300049680068CA06144906D088421BD18168FD
:1008400011F0405F13D016E08842F8D00F4A904272
:1008500003D1D1F80423D206F1D00D4A90420AD137
:10086000D1F8041301F01F011029E8D303E08168D7
:1008700041F080418160002018BD0000D4000020BC
:1008800040420F00002301400020014000210140B0
:100890000022014070477047704770B54379012BC3
:1008A0001AD0012646710223037105682C6840F6B0
:1008B000FE7393409C43D1E900310B4393402343A3
:1008C0002B6001680B68C0249440A3430B60067141
:1008D00000214171084670BD022070BD704770470D
:1008E000704770B5040003D02079002510B105E0F1
:1008F000012070BD6571204600F008F802202071CB
:10090000256101202071002070BD000070B586B007
:10091000054614216846FFF78BFC1F49286888426A
:1009200037D11E480026016841F00051016000687F
:1009300000F00050059019481038016841F001019D
:1009400001600068694600F00100059020200090D9
:100950000320CDE90106124800F02CFA124C114890
:1009600020604FF0606060604020C4E90206000132
:100970002061400060618000A0614011C4E9070669
:100980002046666200F062F908B1FFF7B4FDEC6042
:10099000A56306B070BD00000074004040380240FE
:1009A00000000240A0600240340100202DE9F04127
:1009B00004460D461746617900220698012920D089
:1009C0000126667102212171F5B1D4F80CC03149BC
:1009D000CCF83C10D4F80CC02F49CCF84010D4F817
:1009E0000CC02E49CCF84C102168D1F800C04CF056
:1009F000805CC1F800C090B3042834D0082837D1F7
:100A000034E00220BDE8F081D4F808C02449CCF8D5
:100A10003C10D4F808C02349CCF84010D4F808C0E2
:100A20002149CCF84C102168D1F800C04CF4805C0E
:100A3000C1F800C020B1042805D0082808D105E07D
:100A40002268083204E022680C3201E02268103289
:100A50002068016841F400510160A0680EE0FFE7E2
:100A60002268143204E02268183201E022681C3245
:100A70002068016841F000510160E068394600F0EB
:100A80004FF920680168AE40314301600020607179
:100A9000B8E70000E30300082D0400080B04000879
:100AA000D303000823040008F30300082DE9F843EA
:100AB00004464FF00009CDF8009063484FF41651FA
:100AC000A56D0068B0FBF1F72E6894F85C10082063
:100AD00000FA01F131420FD021680A6852070BD5A4
:100AE0000A6822F004020A6094F85C108840A8604A
:100AF000606D40F00100606594F85C104FF00108F3
:100B000008FA01F0304208D021684969090604D585
:100B1000A860606D40F00200606594F85C100420ED
:100B20008840304208D021680968890704D5A86048
:100B3000606D40F00400606594F85C1010208840FF
:100B4000304218D021680968090714D5A8602068C8
:100B50000168490304D50068000308D5A16C07E0CB
:100B60000168C90503D4016821F008010160216C06
:100B700009B12046884794F85C1020208840304214
:100B800031D021680968C9062DD5A86094F83500D0
:100B900005282068016806D0490347D5006800038E
:100BA0001DD4616C1CE021F01601016020684169D0
:100BB00021F080014161206C08B9A06C20B120684F
:100BC000016821F00801016094F85C103F20884022
:100BD000A86084F8349084F83580216D1FE0E16BC3
:100BE00009B120468847606D00282BD0606DC00792
:100BF00014D0052084F835002068016821F0010137
:100C000001600098401C0090B84203D8206800683A
:100C1000C007F6D184F8349084F83580E16C00295F
:100C200010D001B02046BDE8F04308470168C9056F
:100C3000D5D4016821F01001016084F8349084F863
:100C40003580CCE7BDE8F883D40000202DE9F041E1
:100C5000044600F08BF906465CB1002584F8345058
:100C6000022084F835002068016821F0010101604C
:100C70000DE00120BDE8F08100F078F9801B052827
:100C800005D920206065032084F83500F2E720684C
:100C90000068C007F0D12268116820480140D4E9FB
:100CA00001031843D4E903363343184363691843F7
:100CB000A3691843E3691843236A18430843616A28
:100CC000042903D1D4E90B131943084310602068A9
:100CD0004069666A20F0070130460E430127042868
:100CE0000CD1A06A0643E06A40B12046FFF7C4FB7E
:100CF00020B14020606584F83570BAE7206846610D
:100D00002046FFF7A5FB94F85C203F2191408160CD
:100D1000656584F835700020ACE700003F8010F076
:100D20002DE9F0410446866D90F834000025012835
:100D30000DD0012084F8340094F835700020012F84
:100D400007D084F8340002252846BDE8F08102204F
:100D5000FBE7022784F8357060652046FFF7B6FB95
:100D600094F85C103F208840B0602068016841F032
:100D700016010160206C20B12068016841F0080173
:100D800001602068016841F001010160DCE70000BA
:100D900070B5044600F0EAF80546601C02D004482D
:100DA0000078044400F0E2F8401BA042FAD370BD82
:100DB000C80000202DE9F84F00224FF0010803255C
:100DC0004FF00F0E0B6808FA02F42340A3426ED1D5
:100DD0004E68012E05D0022E03D0112E01D0122E06
:100DE00012D186684FEA420C05FA0CF7BE43CF6871
:100DF00007FA0CF7374387604668A6430C79C4F3BB
:100E00000014944034434460C668570005FA07FC58
:100E10008C6826EA0C06BC403443C4604C68022C43
:100E200001D0122C13D1D40800EB8404A346D4F8CB
:100E3000209054074FEAD46A0EFA0AF629EA060906
:100E40000E6906FA0AF646EA0906CBF8206006683B
:100E50000C7926EA0C0604F00304BC403443046019
:100E60004C68E40065D5364C266846F4804626601A
:100E7000246822F0030604F480440094314C344486
:100E8000A446D4F808489607370F0EFA07F6B4437D
:100E90002D4EB04201D1002624E02C4EB04201D1AB
:100EA00001261FE02A4EB04202D102261AE040E09D
:100EB000284EB04201D1032614E0274EB04201D1A2
:100EC00004260FE0254EB04201D105260AE0244E4B
:100ED000B04201D1062605E0224EB04201D10726DC
:100EE00000E00826BE402643CCF808681E4E346851
:100EF0004F689C43FF0300D51C4334601A4C241DEB
:100F000026684F689E43BF0300D51E432660164ED9
:100F1000083634684F689C43FF0200D51C43346098
:100F2000114E0C3634684F689C43BF0200D51C43F9
:100F30003460521C102AFFF445AFBDE8F88F000062
:100F400044380240003001400000024000040240EA
:100F500000080240000C0240001002400014024051
:100F600000180240001C0240003C0140014880681B
:100F700070470000C80000200248816802781144D0
:100F800081607047C80000200B4810B5016841F42B
:100F900000710160016841F480610160016841F401
:100FA00080710160032000F06FF8002000F006F867
:100FB00000F024F8002010BD003C024070B50D4D3B
:100FC00004464FF47A712878B1FBF0F00A490968B9
:100FD000B1FBF0F000F004FB48B9102C07D200225E
:100FE0002146501E00F030F800206C6070BD0120DA
:100FF00070BD0000C8000020D40000200A4808B5D9
:10100000016841F480410160006800F48040009074
:101010000548001F016841F080510160006800F040
:101020008050009008BD000044380240002809DBD1
:1010300000F01F02012191404009800000F1E020F2
:10104000C0F8001170470000F0B40E4B1B680C464E
:10105000C3F30223C3F10705042D00D90425191D8C
:10106000072901D2002300E0DB1E012606FA05F164
:10107000491E214099409E40761E16403143F0BCE7
:1010800000F0C5BE0CED00E0064900F0070208685C
:101090004FF6FF03184040EA0220034A104308605D
:1010A000704700000CED00E00000FA052DE9F04764
:1010B0000E46050065D0DFF81481D8F80000F7B2BD
:1010C00000F00F00B04207D288F80070D8F8000096
:1010D00000F00F00B04254D128683D4C810712D572
:1010E000400703D5206840F4E050206028780007CE
:1010F00003D5206840F4604020602068A96820F093
:10110000F000084320602878C0072DD03049686877
:101110000839012812D0022813D0032811D00968F9
:10112000890700292DDA216821F00301014321609C
:10113000FFF71CFF814641F2883A0EE009688903F7
:10114000EFE709688901ECE7FFF710FFA0EB090161
:10115000514502D90320BDE8F0872068696800F096
:101160000C00B0EB810FEFD1D8F80010404601F031
:101170000F01B14207D90770006800F00F00B042BC
:1011800001D00120E7E72878400705D52068E96805
:1011900020F4E050084320602878000706D5206836
:1011A000296920F4604040EAC100206000F038F86E
:1011B0002168084AC1F30311515CC8400649086020
:1011C00006480068FFF7FAFE0020C4E7003C024032
:1011D00008380240141F0008D4000020CC00002072
:1011E0000448054900680968044AC1F38221515C3A
:1011F000C8407047D400002008380240241F00086F
:101200000448054900680968044AC1F34231515C49
:10121000C8407047D400002008380240241F00084E
:10122000154810B5006810F00C02144813D014498A
:10123000042A0FD0082A0ED10F4C241F22682368DD
:1012400002F03F025B0207D52068C0F38810A0FBC4
:10125000010106E0084610BD2168C1F38811A1FB19
:1012600000010023FEF7ACFF2168C1F30141491CD6
:101270004900B0FBF1F010BD083802400024F40032
:1012800040787D012DE9F84F04006ED02078DFF81A
:101290003C93C007A9F104054AD009F10400016894
:1012A000C1F38101012908D00068C0F38100022840
:1012B0000AD1D9F80000400206D52868800337D546
:1012C00060680028E1D033E06068B0F5803F10D05E
:1012D000B0F5A02F286810D020F48030286028684E
:1012E00020F4802028606068A8B1FFF73FFE064622
:1012F0000DE0286840F48030F4E740F48020286056
:10130000F7E700BFFFF732FE801B642873D8286818
:101310008003F7D50CE0FFF729FE064605E000BF85
:10132000FFF724FE801B6428F0D828688003F7D4D8
:101330002078DFF89C8280074FF0000A3ED5A34852
:10134000001D016811F00C0F08D00068C0F3810087
:1013500002280BD1D9F80000400207D42868800782
:1013600016D5E068012800D112E02BE1E068B8B1A1
:101370000120C8F80000FFF7F9FD064605E000BFB0
:10138000FFF7F4FD801B0228C0D828688007F7D536
:101390002868216920F0F80040EAC10028600DE0CB
:1013A000C8F800A0FFF7E2FD064604E0FFF7DEFD07
:1013B000801B02281FD828688007F7D420780007F0
:1013C00022D5824E83486169703671B10121016076
:1013D000FFF7CCFD074604E0FFF7C8FDC01B02285D
:1013E00009D830688007F7D50EE0C0F800A0FFF7F5
:1013F000BDFD074605E082E0FFF7B8FDC01B0228EF
:101400007DD830688007F7D42078400768D5DFF8AA
:10141000BCB100270BF13C0BDBF80000C0000BD483
:10142000DBF8001041F08051CBF80010DBF8000031
:10143000012700F080500090674E3068C00510D43E
:10144000306840F480703060FFF790FD009005E058
:10145000FFF78CFD0099401A022850D83068C0056B
:10146000F6D55A4EA0686C3601280FD00528306892
:1014700010D020F001003060306820F004003060AF
:10148000A068B8B1FFF772FD00900FE0306840F03F
:101490000100F4E740F004003060F7E7FFF766FD75
:1014A0000099411A41F28830814266D8306880073D
:1014B000F4D50EE0FFF75AFD009007E0FFF756FD68
:1014C0000099411A41F28830814256D8306880072D
:1014D000F4D42FB1DBF8001021F08051CBF80010CC
:1014E000A069C8B33949091D0968C1F381010229FE
:1014F0004AD00228504607D0C8F8600000E03CE01F
:10150000FFF734FD04463BE04746C8F86000FFF7AC
:101510002DFD064605E000BFFFF728FD801B0228D1
:101520002BD828688001F7D4D4E907010843A16AC1
:101530002A4A490802EB0141626A41EA82110843E2
:1015400094F82C1040EA0161C9F8001001203866B7
:10155000FFF70CFD044606E036E000BFFFF706FD8E
:10156000001B022809D828688001F7D52CE000BFAD
:10157000FFF7FCFC001B022802D90320BDE8F88F0E
:1015800028688001F4D41FE00128F7D0D9F80000C2
:10159000E26900F48001914214D1226A00F03F0117
:1015A00091420FD147F6C071626A0140914209D160
:1015B000A26A00F44031914204D1E16A00F0706007
:1015C000884201D00120D9E70020D7E70438024043
:1015D00000004742800E4742007000400000FFFFBD
:1015E00010B5401EB0F1807F01D3012010BD4FF037
:1015F000E02460610F21601700F009FC0020A06169
:1016000007202061002010BD70B590F83C20012A11
:1016100032D0012480F83C40022280F83D2003684B
:101620005A689D6822F070060A6832435A60134B6C
:1016300002689A4214D0B2F1804F11D0104B9A42F6
:101640000ED0104B9A420BD00F4B9A4208D00F4B42
:101650009A4205D00E4B9A4202D00E4B9A4204D1C8
:10166000496825F080031943916080F83D400021CE
:1016700080F83C10084670BD022070BD000001409B
:101680000004004000080040000C0040000401403D
:10169000004001400018004010B5040003D094F849
:1016A0003D0010B107E0012010BD002084F83C008F
:1016B000204600F00DF8022084F83D00211D20682E
:1016C00000F07AFA012084F83D00002010BD0000EF
:1016D00008B500680649884208D10648016841F00B
:1016E00010010160006800F01000009008BD0000CB
:1016F0000010004040380240022180F83D1001688F
:101700008A6802F00702062A03D00A6842F0010242
:101710000A60012180F83D100020704770B5040078
:1017200004D094F83900002510B106E0012070BD06
:1017300084F83850204600F023F8242084F839003B
:101740002068C16821F40051C160204600F098FA79
:101750002068016921F4904101612068416921F00C
:101760002A0141612068C16841F40051C160E5630C
:10177000202084F8390084F83A00002070BD000071
:10178000F0B587B0064614216846FEF751FD2F4F8D
:10179000306800252E49022203230724B8421CD1B9
:1017A0002B481430066846F010060660006800F00A
:1017B00010000590086840F001000860086869465C
:1017C00000F00100059058028DE82500CDE90334B2
:1017D0002048FFF7EFFA07B0F0BD1F4FB842FAD12B
:1017E0001B481030076847F480270760006800F442
:1017F00080200590086840F002000860086869468B
:1018000000F0020005904FF440608DE82500CDE91E
:1018100003341248FFF7CEFA124C114820604FF003
:10182000006060604020C4E902050001C4E90405CD
:10183000A561E561256220466562FFF707FA08B1F8
:10184000FEF759FE3463A663C5E7000000100140AF
:1018500030380240000002400048004000040240CE
:1018600058600240540200202DE9F843044690F8E5
:1018700039001F4616460D46202850D1B5B1AEB1ED
:1018800094F8380001284AD0012084F838004FF03D
:101890000008C4F83C80212084F83900FFF766FB7B
:1018A000A6848146E68484F8388026E00120BDE8DD
:1018B000F883E08C401EE084A0684B46B0F5805F62
:1018C0004FF000024FF080012046009703D000F057
:1018D0006BFAE8B90DE000F067FAC8B9288821680A
:1018E000C0F308004860206908B16D1C05E0AD1C1C
:1018F00003E0216815F8010B4860E08C0028D8D17E
:101900004B46002240212046009700F04DFA08B1D6
:101910000320CCE7202084F839000020C7E702200C
:10192000C5E7FEE77FB500241548009401940294B2
:101930001249039401604FF48031C0E9011404613D
:10194000047680F820400F49C0E90A140125C561DA
:10195000C46080F830404561FEF779FE08B1FEF7BB
:10196000CAFD0420CDE90005694602940448FEF74B
:10197000C3FD002801D0FEF7BEFD7FBD0020014061
:10198000D80000200100000F1CB500200D49009078
:1019900001900B4808600846FEF7A3FF08B1FEF768
:1019A000AAFD0420009002200190102269460548FB
:1019B000FEF773FF002801D0FEF79DFD1CBD00005F
:1019C00000740040200100200D4808B5016841F472
:1019D000001101600068002200F400100090114620
:1019E0000E20FFF731FB0E20FFF720FB00221146EF
:1019F0001120FFF729FBBDE808401120FFF716BBB7
:101A000030380240114808B5016841F00401016016
:101A1000016801F004010091016841F0800101605A
:101A2000016801F080010091016841F0010101604D
:101A3000016801F001010091016841F002010160BB
:101A4000006800F00200009008BD0000303802403D
:101A50001CB50024104800940E490194016040F226
:101A6000E731C0E9011440F24731C1608021816152
:101A7000FFF712FE08B1FEF73EFD2020CDE900047D
:101A800069460548FFF7C0FD002801D0FEF733FD89
:101A90001CBD000000100040940100200C4810B54F
:101AA0000A4901604FF4E1314160002181600C225C
:101AB000C160C0E904128161C161FFF72FFE0028F7
:101AC00003D0BDE81040FEF716BD10BD0010014068
:101AD000D40100200C4810B50A4901604FF4E131EF
:101AE0004160002181600C22C160C0E90412816163
:101AF000C161FFF713FE002803D0BDE81040FEF7D8
:101B0000FABC10BD0048004014020020FEE77047F8
:101B100070477047FFF730BA30B593B03021684650
:101B2000FEF786FB14210CA8FEF782FB194800255E
:101B3000016841F080510160006800F08050119010
:101B40001548016841F4804101600068022400F4F6
:101B5000804011900120039010200490009406947E
:101B60000820CDE90750A820CDE9090404200B90F6
:101B70006846FFF787FB0CA90F2081E831004FF47E
:101B8000A0500F90E002109005210CA8FFF78EFAEC
:101B900013B030BD40380240007000400548016875
:101BA00041F47001016003494FF000608039086022
:101BB0007047000088ED00E0F0B50268254C264D26
:101BC000264E274F274B4FF0804CA04209D060454E
:101BD00007D0A84205D0B04203D0B84201D0984205
:101BE00004D122F0700E4A6842EA0E02A0421BD0D5
:101BF000604519D0A84217D0B04215D0B84213D0D2
:101C0000984211D0184DA8420ED0184DA8420BD0C2
:101C1000174DA84208D0174DA84205D0164DA8422E
:101C200002D0164DA84203D122F44075CA682A4357
:101C30004D6922F080022A4302608A68C2620A6803
:101C40008262A04201D0984201D109690163012159
:101C50004161F0BD00000140000400400008004068
:101C6000000C0040000401400040014000440140DD
:101C70000048014000180040001C004000200040C7
:101C80002DE9F041044600680169E26821F4405101
:101C9000114301612169A068E26908436169114348
:101CA00008432168CA6849F20C639A430243CA6038
:101CB00020684169A26921F4407111434161E069E2
:101CC000192764253226B0F5004F354A354920687A
:101CD0004FF0000806D0884201D0904236D1FFF77D
:101CE0008FFA35E0884201D0904202D1FFF788FA9E
:101CF00001E0FFF775FA61684A18A0FB070148EB9D
:101D00000803FEF75DFA0146B0FBF5F00201B1FBF6
:101D1000F5F06FF01803584301EB800006EBC000AC
:101D2000B0FBF5F000F0F80002EB4002B1FBF5F07B
:101D3000584301EB800006EBC000B0FBF5F000F06B
:101D40000700216810448860BDE8F081FFF748FA79
:101D500061688B0F8A00A0FB0701FEF731FA01468C
:101D6000B0FBF5F06FF01802504301EB800006EB7A
:101D70000010B0FBF5F000F0F002B1FBF5F002EB63
:101D80000012B1FBF5F06FF01803584301EB80002F
:101D900006EB0010B0FBF5F000F00F00D1E70000FB
:101DA00000140140001001402DE9F041984617460B
:101DB0000E460446069D1DE0681C1BD02DB1FFF7A2
:101DC000D5F8A0EB0800A84214D92068C16821F416
:101DD000D071C1602068416921F00101416120207A
:101DE00084F8390084F83A00002084F83800032091
:101DF000BDE8F0812068006836EA000004D00020C9
:101E0000B842D9D00020F3E70120F9E7FEE709073F
:101E1000090E002804DB00F1E02080F80014704770
:101E200000F00F0000F1E02080F8141D704702E080
:101E300008C8121F08C1002AFAD170477047002055
:101E400001E001C1121F002AFBD1704786B0FFF7E5
:101E50009BF8FFF761FEFFF7D5FDFFF7B5FDFFF734
:101E600093FDFFF7F5FDFFF75DFDFFF717FEFFF7A9
:101E700031FEA5268DF804605A248DF807401E48CF
:101E8000FFF73AFC0020009064231C4A10211C48F4
:101E9000FEF78CFDA04601AD5FF0000405EB840762
:101EA00005F8246087F803801648FEF77DFC0A21B8
:101EB0001448FEF727FC1348FEF7C4FB800503D542
:101EC0001048FEF7C1FB8146C9F347105A2800D1DC
:101ED0005B20787015F824100844B8703220FEF7A3
:101EE00057FF641CE4B2042CD8D3C823102201A9E4
:101EF0000548FFF7B9FCCFE794010020000000205F
:101F000020010020D8000020140200200006101636
:101F1000000610160000000000000000010203048B
:101F20000607080900000000010203044C1F000816
:101F300000000020D80000002E1E00082420000809
:101F4000D8000020E00500003E1E000880080009BF
:101F50007F09FD09780AF10A670BDA0B490CB30C0B
:101F6000190D790DD40D290E780EC00E020F3C0FFD
:101F70006F0F9B0FBF0FDB0FEF0FFB0FFF0FFB0F61
:101F8000EF0FDB0FBF0F9B0F6F0F3C0F020FC00E49
:101F9000780E290ED40D790D190DB30C490CDA0BFE
:101FA000670BF10A780AFD097F0900098008FF071D
:101FB0007F07FF068006020687050E0598042504A4
:101FC000B6034C03E60286022B02D60187013F01CD
:101FD000FD00C300900064004000240010000400D5
:101FE0000000040010002400400064009000C300C2
:101FF000FD003F018701D6012B028602E6024C0359
:10200000B603250498040E05870502068006FF0620
:102010007F07000801000000100000000000000021
:042020000024F400A4
:040000050800018965
:00000001FF
