:020000040800F2
:10000000B80400209D010008F31D00083717000800
:10001000F11D000833080008292000080000000036
:10002000000000000000000000000000F71D0008B4
:100030003508000800000000F51D0008F91D000843
:10004000B7010008B7010008B7010008B7010008B0
:10005000B7010008B7010008B7010008B7010008A0
:10006000B7010008B7010008B7010008B701000890
:10007000B7010008B7010008B7010008B701000880
:10008000B7010008B7010008B7010008B701000870
:10009000B7010008B7010008B7010008B701000860
:1000A000B7010008B7010008B7010008B701000850
:1000B000B7010008B7010008B7010008B701000840
:1000C000B7010008B7010008B7010008B701000830
:1000D000B7010008B7010008B7010008B701000820
:1000E000B7010008B7010008B7010008B701000810
:1000F000B7010008B7010008B7010008B701000800
:10010000B7010008B7010008B7010008B7010008EF
:10011000B7010008B7010008B7010008B7010008DF
:10012000B7010008B7010008B7010008B7010008CF
:10013000B7010008B7010008B7010008B7010008BF
:10014000B7010008B7010008B7010008B7010008AF
:10015000B7010008B7010008B7010008B70100089F
:10016000B7010008B7010008B7010008B70100088F
:10017000B7010008B7010008B7010008000000003F
:10018000B7010008B7010008DFF80CD000F0D0FA82
:10019000004800475D2A0008B80400200648804750
:1001A00006480047FEE7FEE7FEE7FEE7FEE7FEE75C
:1001B000FEE7FEE7FEE7FEE7811E00088901000872
:1001C0002DE9F05F0546002092469B46884606468C
:1001D000814640241BE0284641464746224600F01F
:1001E00083F853465A46C01A914110D31146184617
:1001F000224600F06AF82D1A67EB01084F462246A6
:100200000120002100F061F817EB00094E41201E8B
:10021000A4F10104DFDC484631462A464346BDE8E6
:10022000F09FD2B201E000F8012B491EFBD27047CB
:100230000022F6E710B513460A4604461946FFF7B2
:10024000F0FF204610BDC1F30A5210B5C1F31301EF
:1002500040F2FF3341F480119A4201DA002010BDD0
:1002600040F233439A42A2F2334203DC524200F09E
:100270003BF810BD904010BD00F0004230F000404F
:100280000AD0C10D01F56071C0F3160042EA0151B8
:10029000C20840071143704700200146704730B53F
:1002A0000B46014600202022012409E021FA02F534
:1002B0009D4205D303FA02F5491B04FA02F52844CE
:1002C000151EA2F10102F1DC30BD202A04DB203A28
:1002D00000FA02F1002070479140C2F1200320FA99
:1002E00003F3194390407047202A04DB203A21FA97
:1002F00002F00021704721FA02F3D040C2F120023F
:1003000091400843194670472DE9FE4F804681EA27
:100310000300C00F0C46009021F0004123F000457F
:10032000B8EB0200A94105D24046214690461C4642
:100330000B46024623F00040104347D0270DC7F379
:100340000A00C3F30A510290401A019040286BDA68
:10035000C3F3130040F4801B0098924620B10023A1
:10036000D2EB030A63EB0B0B01985946C0F1400234
:100370005046FFF7AAFF06460D4650465946019AD9
:1003800000F0E8F910EB08006141002487EA1152FF
:1003900084EAE7731A4340D0009A62B3019A012AB3
:1003A0004FEA075215DC001B61EB02014FF00042DF
:1003B00002EA0752CDE90042001C41F580113246A5
:1003C0002B4600F0E8F903B0BDE8F08F4046214627
:1003D000F9E7001B61EB0201001C41F580130018D6
:1003E0005B412018A2F5001747EB030140EAD570E6
:1003F000B6196D4111E06D084FEA360645EAC07541
:100400004FEA0752001B61EB0201001C41F580110D
:1004100049084FEA30000019514132462B4603B0DB
:10042000BDE8F04F00F0A8B9009801224000002379
:10043000D0EB020263EBE073009821464FEAE074D0
:10044000B8EB000061EB0401E9E783F000435BE7F0
:1004500081F0004158E72DE9FE4F81EA030404F0E2
:10046000004421F0004100944FF0000B23F00043C2
:1004700050EA01045ED052EA03045BD0C3F30A548D
:10048000C1F30A552C44A4F2F3340194A0FB0254A6
:10049000C1F3130141F48011C3F3130343F4801338
:1004A00001FB024400FB034E840A970A44EA81548C
:1004B00047EA8357A4FB076802958D0A05FB078569
:1004C0004FEA932C04FB0C542705029D4FEA065873
:1004D00047EA1637B5EB08056EEB070C870E920E50
:1004E00047EA811742EA8312A7FB0201B6EB0B0130
:1004F00064EB00042B0D43EA0C335E1844EB1C50F4
:10050000DA465146E7FB0201C5F313044FEA0B3309
:1005100043EA14534FEA0432019C43EA0603A4F170
:100520000C040294009CCDE900B400F034F903B04F
:10053000BDE8F08F00200146F9E72DE9F04D81EA92
:10054000030404F0004B21F0004514464FF0000A6C
:1005500023F0004150EA050220D054EA01021DD0E8
:10056000C5F30A570246C5F31303C1F31300C1F3E1
:100570000A5640F4801543F48013A7EB0608101BBD
:10058000D64608F2FD3873EB050002D308F10108E6
:1005900001E092185B41B8F1000F03DA0020014638
:1005A000BDE8F08D00204FF48011064684460EE031
:1005B000171B73EB050705D3121B63EB05030643FB
:1005C0004CEA010C49084FEA300092185B4150EAAE
:1005D0000107EDD152EA030012D082EA040083EA57
:1005E0000501084305D0101BAB4106D201220023B0
:1005F00006E000224FF0004302E06FF001025310CA
:100600001AEB06004CEB085110EB0A0041EB0B0112
:10061000BDE8F04D00F0B0B82DE9F041054621F0FD
:1006200000400C46284309D0C4F30A5040F233413D
:10063000884205DD28462146BDE8F0812846FBE7D3
:1006400040F2FE31884210DC0CDB4FEA043040EA15
:10065000155050EA053105D0104804F0004101431F
:100660000020E9E700200146E6E7A0F233404642D9
:10067000C6F1400228462146FFF727FE0746884676
:10068000284621463246FFF72FFE43463A4600F001
:1006900073F83246BDE8F041FFF717BE0000F03FA7
:1006A000C1F30A52C1F3130140F2FF3341F4801148
:1006B0009A4202DA00200146704740F233439A42E0
:1006C000A2F2334202DC5242FFF70EBEFFF7FDBD3D
:1006D00030B5041E71F1000404DB4FF000444042C9
:1006E00064EB0101141E73F1000405DB1C464FF09E
:1006F0000043524263EB04038B4208BF824230BD89
:1007000030B5041E71F1000404DB4FF00044404298
:1007100064EB0101141E73F1000405DB1C464FF06D
:100720000043524263EB0403994208BF904230BD3C
:10073000064C074D06E0E06840F0010394E807002E
:1007400098471034AC42F6D3FFF722FD142B000873
:10075000342B0008202A06DBCB17203A41FA02F09E
:1007600043EAE07306E041FA02F3D040C2F120020E
:10077000914008431946704710B5141E73F10004E8
:1007800008DA401C41F1000192185B411A4301D183
:1007900020F0010010BD2DE9F04D92469B4611B1AD
:1007A000B1FA81F202E0B0FA80F220329046FFF70F
:1007B0008CFD04460F4640EA0A0041EA0B0153460D
:1007C0005A46084313D0114653EA010019D0C8F124
:1007D00040025046FFF788FD05460E4650465946F2
:1007E0004246FFF772FD084305D0012004E0204691
:1007F0003946BDE8F08D0020054346EAE0762C43FB
:1008000037430A986305E40AA0EB08000022FD0ABA
:1008100044EA47540A3002D500200146E9E70105C1
:1008200010196941DDE9084500196941BDE8F04D3D
:10083000A2E7FEE77047704770B5044600F0EAF89B
:100840000546601C02D004480078044400F0E2F839
:10085000401BA042FAD370BD0C0000202DE9F84FD8
:1008600000224FF0010803254FF00F0E0B6808FA25
:1008700002F42340A3426ED14E68012E05D0022E11
:1008800003D0112E01D0122E12D186684FEA420CED
:1008900005FA0CF7BE43CF6807FA0CF737438760B9
:1008A0004668A6430C79C4F3001494403443446072
:1008B000C668570005FA07FC8C6826EA0C06BC409F
:1008C0003443C4604C68022C01D0122C13D1D408DC
:1008D00000EB8404A346D4F8209054074FEAD46A6E
:1008E0000EFA0AF629EA06090E6906FA0AF646EA37
:1008F0000906CBF8206006680C7926EA0C0604F09D
:100900000304BC40344304604C68E40065D5364CB5
:10091000266846F480462660246822F0030604F424
:1009200080440094314C3444A446D4F808489607D7
:10093000370F0EFA07F6B4432D4EB04201D1002610
:1009400024E02C4EB04201D101261FE02A4EB042D5
:1009500002D102261AE040E0284EB04201D103261F
:1009600014E0274EB04201D104260FE0254EB042DC
:1009700001D105260AE0244EB04201D1062605E049
:10098000224EB04201D1072600E00826BE40264391
:10099000CCF808681E4E34684F689C43FF0300D5AE
:1009A0001C4334601A4C241D26684F689E43BF03C5
:1009B00000D51E432660164E083634684F689C43A7
:1009C000FF0200D51C433460114E0C3634684F686A
:1009D0009C43BF0200D51C433460521C102AFFF414
:1009E00045AFBDE8F88F00004438024000300140B8
:1009F000000002400004024000080240000C0240D7
:100A0000001002400014024000180240001C024086
:100A1000003C014001488068704700000C00002045
:100A200070B5040025D094F83D00002520B984F865
:100A30003C50204600F04CFA242084F83D00206809
:100A4000016821F0010101602068016841F4004162
:100A500001602068016821F40041016000F092FB10
:100A60004D4A6168914201D84C4900E04C498842A6
:100A700001D2012070BD4B492368B0FBF1F15E68E3
:100A800026F03F060E435E606368934206D94FF43A
:100A9000967359434FF47A73B1FBF3F12368491C01
:100AA0001E6A26F03F06314319626168914210D8F0
:100AB0004900401EB0FBF1F2521CC2F30B02042AA3
:100AC00001D2042022E0B0FBF1F0401CC0F30B0087
:100AD0001CE0A268F2B301EBC10303EB0116431E55
:100AE000B3FBF6F35B1C43F480431B0549D092B380
:100AF00001EBC10202EB0111401EB0FBF1F0401C02
:100B0000C0F30B0040F4804040F400402168CA6903
:100B10004CF6FF739A431043C861D4E907100143B0
:100B20002068026822F0C00211430160D4E9030189
:100B300001432068826848F2FF339A431143816081
:100B4000D4E9050108432168CA6822F0FF02104376
:100B5000C86001E00EE016E02068016841F0010184
:100B600001602564202084F83D00256384F83E5010
:100B7000002070BD01EB4106431EB3FBF6F35B1C86
:100B8000B3E70120C2E701EB4101401EB0FBF1F0E9
:100B9000401CC0F30B00B7E7A086010080841E0054
:100BA00000093D0040420F002DE9FF4F83B09A46F7
:100BB000DDE9119793460446DDF84080FFF72AFFF0
:100BC000054694F83D00202870D11923012271496F
:100BD0002046009500F0C0FE0028F5D194F83C00B6
:100BE000012863D0012084F83C0020680168C9070F
:100BF00003D1016841F0010101602068016821F41E
:100C000000610160222084F83D00402084F83E000D
:100C100000262664C4F82480A4F82A90608D2085DC
:100C20005D48E062CDE9007553465A462046049976
:100C300000F09AFD00287CD1208DD0B1012821D070
:100C40000228206824D0416980690090208D032803
:100C500069D801282BD0514902283B464FF00002A9
:100C6000009559D08846204600F076FE002860D1D5
:100C70003CE02068416981690091016841F400719C
:100C8000016077E02068016821F480610160F0E78D
:100C9000016821F4806101602068016841F400610D
:100CA0000160206841698069009063E06FE02A4636
:100CB0003946204600F0CFFE98BB20680069616A83
:100CC00008704EE02068016841F4007101602068FE
:100CD0000069616A0870606A401C6062218D491E6B
:100CE0002185618D491E6185216838E02068016891
:100CF00021F48061016020680069616A0870606A9F
:100D0000401C6062208D401E2085608D401E6085E5
:100D10003B46002241460095204600F01DFE00B9EA
:100D2000D0E706E0FFE72A463946204600F093FE6A
:100D300018B1012007B0BDE8F08F20680069616A32
:100D40000870606A401C6062218D491E2185618D9A
:100D5000491E618521684A69D24352070AD409694C
:100D60000170606A401C6062208D401E2085608D8D
:100D7000401E6085208D00287FF468AF202084F815
:100D80003D0084F83E6084F83C600020D2E70220F9
:100D9000D0E70000020010000000FFFF0400010087
:100DA0002DE9FF4F83B09A46DDE91197934604463B
:100DB000DDF84080FFF72EFE054694F83D00202820
:100DC0007FD11923012240492046009500F0C4FD3F
:100DD000002876D194F83C00012872D0012084F8D4
:100DE0003C0020680168C90703D1016841F0010196
:100DF00001602068016821F400610160212084F80D
:100E00003D00402084F83E0000262664C4F824807B
:100E1000A4F82A90608D20852C48E062CDE9007509
:100E200053465A462046049900F01CFD70B930E044
:100E30002A463946204600F041FE58B1206C04286D
:100E400004D12068016841F400710160012007B0FD
:100E5000BDE8F08F606A216800780861606A401C14
:100E60006062218D491E89B22185628D521E628584
:100E700022685369DB435B070BD469B100781061CA
:100E8000606A401C6062208D401E2085608D401E7F
:100E90006085208D0028CBD12A463946204600F0B7
:100EA00035FD0028CAD154F83D0B016841F40071AA
:100EB0000160202004F81E09E67766770020C6E767
:100EC000FFE70220C3E70000020010000000FFFF60
:100ED00010B586B0044614216846FFF7A9F91349F6
:100EE0002068884220D11248016841F00201016067
:100EF0000068694600F002000590C02000901220B2
:100F000001900120029003200390042004900948DE
:100F1000FFF7A4FC06481030016841F4001101609D
:100F2000006800F40010059006B010BD00540040A9
:100F300030380240000402400248816802781144BF
:100F4000816070470C0000200B4810B5016841F427
:100F500000710160016841F480610160016841F441
:100F600080710160032000F061F8002000F006F8B5
:100F700000F024F8002010BD003C024070B50D4D7B
:100F800004464FF47A712878B1FBF0F00A490968F9
:100F9000B1FBF0F000F0F6FA48B9102C07D20022AD
:100FA0002146501E00F022F800206C6070BD012028
:100FB00070BD00000C000020180000200A4808B591
:100FC000016841F480410160006800F480400090B5
:100FD0000548001F016841F080510160006800F081
:100FE0008050009008BD000044380240F0B40E4B21
:100FF0001B680C46C3F30223C3F10705042D00D977
:101000000425191D072901D2002300E0DB1E01265B
:1010100006FA05F1491E214099409E40761E164071
:101020003143F0BC01F012B80CED00E0064900F0CD
:10103000070208684FF6FF03184040EA0220034AFF
:1010400010430860704700000CED00E00000FA0556
:101050002DE9F0470E46050065D0DFF81481D8F879
:101060000000F7B200F00F00B04207D288F800701D
:10107000D8F8000000F00F00B04254D128683D4C71
:10108000810712D5400703D5206840F4E050206066
:101090002878000703D5206840F46040206020686D
:1010A000A96820F0F000084320602878C0072DD000
:1010B000304968680839012812D0022813D0032863
:1010C00011D00968890700292DDA216821F0030170
:1010D00001432160FFF79EFC814641F2883A0EE011
:1010E00009688903EFE709688901ECE7FFF792FCDB
:1010F000A0EB0901514502D90320BDE8F087206823
:10110000696800F00C00B0EB810FEFD1D8F8001047
:10111000404601F00F01B14207D90770006800F0A6
:101120000F00B04201D00120E7E72878400705D53D
:101130002068E96820F4E050084320602878000720
:1011400006D52068296920F4604040EAC10020608B
:1011500000F038F82168084AC1F30311515CC84017
:101160000649086006480068FFF708FF0020C4E74A
:10117000003C024008380240FC2A00081800002009
:10118000100000200448054900680968044AC1F3BA
:101190008221515CC8407047180000200838024086
:1011A0000C2B00080448054900680968044AC1F38B
:1011B0004231515CC8407047180000200838024096
:1011C0000C2B0008154810B5006810F00C021448EC
:1011D00013D01449042A0FD0082A0ED10F4C241F13
:1011E0002268236802F03F025B0207D52068C0F343
:1011F0008810A0FB010106E0084610BD2168C1F37C
:101200008811A1FB00010023FEF7DAFF2168C1F37A
:101210000141491C4900B0FBF1F010BD0838024003
:101220000024F40040787D012DE9F84F04006ED0D1
:101230002078DFF83C93C007A9F104054AD009F1F2
:1012400004000168C1F38101012908D00068C0F3DE
:10125000810002280AD1D9F80000400206D528688A
:10126000800337D560680028E1D033E06068B0F5CE
:10127000803F10D0B0F5A02F286810D020F4803027
:101280002860286820F4802028606068A8B1FFF7F3
:10129000C1FB06460DE0286840F48030F4E740F4D6
:1012A00080202860F7E700BFFFF7B4FB801B6428AD
:1012B00073D828688003F7D50CE0FFF7ABFB064630
:1012C00005E000BFFFF7A6FB801B6428F0D8286864
:1012D0008003F7D42078DFF89C8280074FF0000A63
:1012E0003ED5A348001D016811F00C0F08D000681E
:1012F000C0F3810002280BD1D9F80000400207D4C6
:101300002868800716D5E068012800D112E02BE19B
:10131000E068B8B10120C8F80000FFF77BFB064683
:1013200005E000BFFFF776FB801B0228C0D82868C5
:101330008007F7D52868216920F0F80040EAC1004D
:1013400028600DE0C8F800A0FFF764FB064604E043
:10135000FFF760FB801B02281FD828688007F7D49E
:101360002078000722D5824E83486169703671B1BA
:1013700001210160FFF74EFB074604E0FFF74AFB3F
:10138000C01B022809D830688007F7D50EE0C0F8E6
:1013900000A0FFF73FFB074605E082E0FFF73AFBBE
:1013A000C01B02287DD830688007F7D4207840071A
:1013B00068D5DFF8BCB100270BF13C0BDBF800006F
:1013C000C0000BD4DBF8001041F08051CBF80010C6
:1013D000DBF80000012700F080500090674E306875
:1013E000C00510D4306840F480703060FFF712FB05
:1013F000009005E0FFF70EFB0099401A022850D834
:101400003068C005F6D55A4EA0686C3601280FD05A
:101410000528306810D020F001003060306820F0DE
:1014200004003060A068B8B1FFF7F4FA00900FE054
:10143000306840F00100F4E740F004003060F7E766
:10144000FFF7E8FA0099411A41F28830814266D8E4
:1014500030688007F4D50EE0FFF7DCFA009007E073
:10146000FFF7D8FA0099411A41F28830814256D8E4
:1014700030688007F4D42FB1DBF8001021F08051E0
:10148000CBF80010A069C8B33949091D0968C1F338
:10149000810102294AD00228504607D0C8F86000CE
:1014A00000E03CE0FFF7B6FA04463BE04746C8F8E8
:1014B0006000FFF7AFFA064605E000BFFFF7AAFAA3
:1014C000801B02282BD828688001F7D4D4E90701B3
:1014D0000843A16A2A4A490802EB0141626A41EACB
:1014E0008211084394F82C1040EA0161C9F80010F9
:1014F00001203866FFF78EFA044606E036E000BFAA
:10150000FFF788FA001B022809D828688001F7D560
:101510002CE000BFFFF77EFA001B022802D903204F
:10152000BDE8F88F28688001F4D41FE00128F7D0C7
:10153000D9F80000E26900F48001914214D1226AD6
:1015400000F03F0191420FD147F6C071626A01403D
:10155000914209D1A26A00F44031914204D1E16A7A
:1015600000F07060884201D00120D9E70020D7E761
:101570000438024000004742800E4742007000409D
:101580000000FFFF10B5401EB0F1807F01D30120A5
:1015900010BD4FF0E02460610F21601700F056FD90
:1015A0000020A06107202061002010BD70B504005C
:1015B00004D094F83900002510B106E0012070BD78
:1015C00084F83850204600F023F8242084F83900AD
:1015D0002068C16821F40051C160204600F05EFC23
:1015E0002068016921F4904101612068416921F07E
:1015F0002A0141612068C16841F40051C160E5637E
:10160000202084F8390084F83A00002070BD0000E2
:1016100010B586B0044614216846FEF709FE144949
:101620002068884221D113480021026842F010024C
:101630000260006800F0100005900E48143802683F
:1016400042F001020260006800F0010005904FF4D2
:10165000C06000900220CDE9010103200390072023
:10166000049069460448FFF7F9F806B010BD000081
:101670000010014044380240000002402DE9F843C8
:10168000044690F839001F4616460D46202850D1D2
:10169000B5B1AEB194F8380001284AD0012084F8E1
:1016A00038004FF00008C4F83C80212084F839004D
:1016B000FFF7B0F9A6848146E68484F8388026E0F6
:1016C0000120BDE8F883E08C401EE084A0684B4612
:1016D000B0F5805F4FF000024FF080012046009788
:1016E00003D000F06FFCE8B90DE000F06BFCC8B966
:1016F00028882168C0F308004860206908B16D1C83
:1017000005E0AD1C03E0216815F8010B4860E08C92
:101710000028D8D14B46002240212046009700F0F7
:1017200051FC08B10320CCE7202084F839000020C8
:10173000C7E70220C5E7FEE701684A69D2435205C0
:101740000FD46FF480624A61002140F8301F2022DC
:1017500042738173026942F0040202610173012045
:1017600070470020704700002DE9F84F04460068DC
:1017700089460B9D01689846174641F480610160D7
:101780002068016841F48071016000954FF0011BF1
:101790000022594620460A9B00F0DEF84FF4007AFA
:1017A00040B120680068C00501D5C4F840A00320FE
:1017B000BDE8F88F216809F0FE0008612B46284932
:1017C00020460A9A00F0FCF8F0BB20684169806965
:1017D00000902A4620460A9900F070F940B1206C2A
:1017E00004283AD12068016841F40071016034E0B6
:1017F000FEB2B8F1010F09D02168380A08612A4603
:1018000020460A9900F05AF90028E8D120680661BC
:101810002A4620460A9900F051F90028DFD12068B5
:10182000016841F48071016000950022594620460C
:101830000A9B00F091F80028B3D1216809F0FF005D
:1018400040F00100086100E007E02B460449204613
:101850000A9A00F0B5F80028AAD00120A8E70000F5
:10186000020001002DE9F843044600680D46DDE959
:10187000089701689846164641F4807101604B460E
:1018800000224FF001112046009700F065F848B1A2
:1018900020680068C00502D54FF400702064032062
:1018A000BDE8F883216805F0FE0008613B464A4622
:1018B0001549204600F084F888B92068416980699C
:1018C00000903A464946204600F0F8F848B1206CAE
:1018D000042804D12068016841F4007101600120EE
:1018E000DEE7F5B2B8F1010F09D02168300A0861CE
:1018F0003A464946204600F0E1F80028E7D1206842
:1019000005610020CCE700000200010070B516461A
:101910000D4604460DE02046FFF70EFF08B10120FA
:1019200070BD681C05D0FFF775F8801BA84207D86A
:1019300035B120684069C0434007ECD4002070BD39
:10194000002044F8300F20216173A073216941F019
:10195000200121612073E2E72DE9F0471E46904601
:101960000D460446C1F30747DDF8209008E0701CDF
:1019700006D0FFF74FF8A0EB0900B0420FD876B1C0
:101980002068012F18D0806925EA00000004000CAF
:1019900014D000214145EAD00020BDE8F0870020A6
:1019A00044F8300F20216173A073216941F02001B8
:1019B000216120730120F0E74069E5E70121E9E7B3
:1019C0002DE9F0479A4691460E46044600254FF011
:1019D0002008C1F3074725E020684069C04340055F
:1019E00014D42068016841F40071016021686FF42B
:1019F00080604861256384F83D8084F83E50206C07
:101A000040F00400206484F83C501FE0B9F1FF3F2F
:101A100008D0FEF7FFFFA0EB0A0149450CD8B9F149
:101A2000000F09D02068012F13D0806926EA00003A
:101A30000004000C0BD0CFE744F8305F84F80D8031
:101A4000A573206940F02000206125730120BDE8C6
:101A5000F0874069EAE72DE9F041002590460E46FF
:101A60000446202717E04069C043C0060CD454F850
:101A7000301B6FF01000486144F810596777A57764
:101A8000206A2062257717E0FEF7C4FFA0EB08006C
:101A9000B04208D83EB120684169C9434906E2D442
:101AA0000020BDE8F08144F8305F6773A5732069BA
:101AB00040F02000206125730120F2E770B5164642
:101AC0000D4604460DE02046FFF736FE08B1012022
:101AD00070BD681C05D0FEF79DFF801BA84207D88B
:101AE00035B120684069C0430006ECD4002070BDC9
:101AF000002044F8300F20216173A073216941F068
:101B0000200121612073E2E701490860002070474D
:101B10000800002000EE100A9FED041AF8EE400ABB
:101B20009FED030A10EE810A704700000AD7A33C1C
:101B3000339388431FB50C460A23022203A98DE87C
:101B40000E00024607480123B4210068FFF72CF875
:101B500010B1012004B010BDBDF80C0020800020A1
:101B6000F8E70000080000201FB500F01F000C4639
:101B700040F020020A23022103A88DE80B00074849
:101B80000123B4210068FFF70FF810B1012004B061
:101B900010BDBDF80C0020800020F8E708000020F0
:101BA00038B5044669460620FFF7C4FF08B1012096
:101BB00038BDBDF80000FFF7ADFF84ED000A00203E
:101BC00038BD38B5044669460720FFF7B3FF08B1B2
:101BD000012038BDBDF80000FFF79CFF84ED000A2E
:101BE000002038BD10B528492DED028BB0EE408A9B
:101BF00018EE100A82B008442449884242D269464D
:101C00000420FFF7B1FF01A90F20FFF7ADFF9FED03
:101C1000200A28EE000A10EE100AFEF72DFB41EC18
:101C2000100B00F025FA51EC100BFEF70CFB81B203
:101C3000BDF80000814204D1002002B0BDEC028B4F
:101C400010BD00EE100ABDF80400F8EE400A00EEE8
:101C5000101AB8EE400A80EE801A00EE100AB8EEB4
:101C6000400A21EE000ABCEEC00A10EE100A84B24F
:101C7000042000F03DF828B921460F2000F038F884
:101C80000028DAD00120D8E7333333C23433B3012C
:101C900000FF7F477FB500F01F000B4640F0200497
:101CA000B421002000F0BDFE214600F0BAFED9B2FA
:101CB00000F0B7FE1D0A294600F0B3FE8DF80C3087
:101CC0008DF80D508DF80E000A22032103A88DE82F
:101CD0000700064801232246B4210068FFF760F898
:101CE000002800D0012004B070BD000008000020D2
:101CF00038B50C4605460021FFF7CCFF90B90A2005
:101D0000FEF79AFD21462846FFF7C4FF50B90A2086
:101D1000FEF792FD69462846FFF726FFBDF8000052
:101D2000A04201D0012038BD002038BD114808B5BF
:101D3000016841F004010160016801F004010091B3
:101D4000016841F080010160016801F080010091AB
:101D5000016841F001010160016801F00101009199
:101D6000016841F002010160006800F0020000908B
:101D700008BD0000303802400D4810B50B49016025
:101D80000C49416000214FF480428160C0E9031298
:101D900041618161C1610162FEF742FE002803D00A
:101DA000BDE81040FEF747BD10BD000000540040E4
:101DB00020000020A08601000C4810B50A490160EF
:101DC0004FF4E1314160002181600C22C160C0E923
:101DD00004128161C161FFF7E9FB002803D0BDE86F
:101DE0001040FEF728BD10BD001001407400002017
:101DF000FEE7704770477047FFF79EB830B593B065
:101E000030216846FEF714FA14210CA8FEF710FAE8
:101E100019480025016841F080510160006800F018
:101E2000805011901548016841F4804101600068BC
:101E3000022400F4804011900120039010200490AF
:101E4000009406940820CDE90750A820CDE90904A4
:101E500004200B906846FFF7E7F90CA90F2081E8F2
:101E600031004FF4A0500F90E002109005210CA813
:101E7000FFF7EEF813B030BD40380240007000406C
:101E80000548016841F47001016003494FF00060AA
:101E9000803908607047000088ED00E02DE9F041CE
:101EA000044600680169E26821F440511143016170
:101EB0002169A068E2690843616911430843216808
:101EC000CA6849F20C639A430243CA6020684169B8
:101ED000A26921F4407111434161E0691927642529
:101EE0003226B0F5004F354A354920684FF00008DA
:101EF00006D0884201D0904236D1FFF753F935E041
:101F0000884201D0904202D1FFF74CF901E0FFF77F
:101F100039F961684A18A0FB070148EB0803FEF78E
:101F20004FF90146B0FBF5F00201B1FBF5F06FF09F
:101F30001803584301EB800006EBC000B0FBF5F03E
:101F400000F0F80002EB4002B1FBF5F0584301EB62
:101F5000800006EBC000B0FBF5F000F00700216840
:101F600010448860BDE8F081FFF70CF961688B0FC1
:101F70008A00A0FB0701FEF723F90146B0FBF5F04C
:101F80006FF01802504301EB800006EB0010B0FB2D
:101F9000F5F000F0F002B1FBF5F002EB0012B1FB3E
:101FA000F5F06FF01803584301EB800006EB0010CA
:101FB000B0FBF5F000F00F00D1E700000014014085
:101FC000001001402DE9F041984617460E460446A0
:101FD000069D1DE0681C1BD02DB1FEF71BFDA0EB7C
:101FE0000800A84214D92068C16821F4D071C160EA
:101FF0002068416921F001014161202084F8390005
:1020000084F83A00002084F838000320BDE8F0810D
:102010002068006836EA000004D00020B842D9D019
:102020000020F3E70120F9E7FEE700000FB4054BBD
:1020300010B503A9044A029800F05CF910BC5DF8E1
:1020400014FB0000412A00081C0000200907090EAB
:10205000002804DB00F1E02080F80014704700F055
:102060000F0000F1E02080F8141D70470000000010
:1020700010B52DED020B2DED088B84B09DED0C0BF2
:1020800051EC100BFEF7C8FA41EC180B9DED0C0B50
:1020900053EC182B51EC100BFEF7D7F941EC190B50
:1020A0000D989FED290B10F0004F53EC102B51ECC5
:1020B000190B9FED21AB9FED22BB0ED0FEF708FB65
:1020C0000ED953EC1B2B51EC190BFEF719FB1CD24C
:1020D00014E000BF41EC180B17E0FEF7F9FA06D246
:1020E00053EC1A2B51EC180BFEF7AFF9F2E753EC57
:1020F0001B2B51EC190BFEF703FB06D853EC1A2BE4
:1021000051EC180BFEF700F9E4E78DED028B9DED25
:102110000C0B18EE901A10EE900A8DED000B61F387
:102120001E0003909DED020B04B0BDEC088B02B0C5
:1021300010BD000000000000000000000000F03FA3
:10214000000000000000E03F000000000000E0BFD1
:1021500002E008C8121F08C1002AFAD17047704770
:10216000002001E001C1121F002AFBD170470000CE
:102170002DE9FF5F82B00021DDE90430020DDDF8BA
:1021800040B0034318D044F61050A2F2FF3242434D
:102190001514119801281FD0A5EB0B00401C5FEA15
:1021A000000A4FF000064E4FDFF83891B046504617
:1021B00015D5CAF1000413E0119801244AA301289F
:1021C00001D16FEA0B010298119AC0E90031C0E910
:1021D000024206B0BDE8F09FCBF10000DFE7044605
:1021E0000021404A491842EB0450CDE9001012E0AA
:1021F000E00707D032463B4640464946FEF72BF9FA
:102200008046894632463B4610461946FEF723F97A
:1022100006460F466410002CEAD1DDE90401DDE931
:102220000023BAF1000F06DAFEF715F942464B46D5
:10223000FEF711F905E0FEF780F942464B46FEF73E
:102240007CF904460E460022284BFEF759FA03D8C3
:102250004FF0FF30014607E00022254B2046314673
:10226000FEF752F8FEF71CFA102409E0002C0ADBF6
:102270000A220023FDF7A4FF039B30321A55641E87
:1022800050EA0102F2D1641C039AC4F11103144410
:10229000119A012A03D0012208430DD10AE0084314
:1022A00004D000204FF0110B119072E7A3EB0B0547
:1022B0006D1E0DE05B4504DD4FF0000205F10105E8
:1022C00004E003DA4FF00002A5F10105002AECD08A
:1022D00002981199C0E90231C0E9004579E7000090
:1022E000000014400000F03F300000000000F04308
:1022F0000000E03F2DE9FF4F95B09B46894606461A
:1023000000250FE2252877D100242746F84A01212D
:10231000059400E0044316F8013F203B01FA03F066
:102320001042F7D130782A2811D06FF02F0330787F
:10233000A0F13002092A16D8059A44F0020402EBF3
:10234000820203EB42021044761C0590EFE759F835
:10235000042B0592002A03DA504244F400540590FD
:1023600044F00204761C30782E2816D116F8010F9E
:1023700044F004042A280DD06FF02F023078A0F129
:102380003003092B09D807EB870302EB4303C71877
:10239000761CF3E759F8047B761C30786C280FD054
:1023A00006DC4C2817D068280DD06A2814D104E028
:1023B000742810D07A280FD10DE044F400140AE0FC
:1023C00044F4801401E044F440147278824202D153
:1023D00004F58014761C761C307866280BD013DC4C
:1023E000582877D009DC002875D04528F6D0462833
:1023F000F4D047281AD19DE118E0632835D064282D
:1024000079D0652812D195E1702873D008DC67284F
:10241000F1D069286FD06E280DD06F2806D1B5E0B5
:1024200073282CD0752875D0782874D05A461799FF
:1024300090476D1C75E1C4F30250022809D00328AF
:102440000DD0D9F8001004280DD00D6009F1040951
:1024500067E1D9F80010EA17C1E90052F6E7D9F8A8
:1024600000100D80F2E70D70F0E719F8041B8DF8ED
:10247000001000208DF80100EA46012003E059F821
:1024800004AB4FF0FF3061074FF0000102D40DE0C4
:1024900008F101018846B9420FDA8045F8DB1AF8E5
:1024A00008100029F4D108E008F1010188468142B2
:1024B000FADB1AF808100029F6D105985B46A0EB64
:1024C000080721463846179A00F094FA284400EB92
:1024D000080507E04DE029E10DE01AF8010B5A4626
:1024E00017999047B8F10108F7D25B462146384664
:1024F000179A13E142E00A220092C4F302524FF00D
:10250000000A022A08D059F804CB032A4FEAEC71DA
:102510000AD00DE029E02AE009F1070121F00702C5
:10252000F2E802C1914609E00FFA8CFC4FEAEC7127
:10253000042A03D14FFA8CFC4FEAEC71002907DA28
:102540000A460021DCF1000C61EB02012D2202E0C1
:10255000220504D52B228DF80420012203E0E20796
:1025600001D02022F7E7904659E00A2102E010222C
:102570000DE010214FF0000A00910BE010224FF007
:10258000000A44F004040827009203E008224FF0F8
:10259000000A0092C4F30252022A05D059F804CB73
:1025A0000021032A08D009E009F1070121F0070200
:1025B000F2E802C1914605E01FFA8CFC042A01D121
:1025C0000CF0FF0C4FF00008220728D5702806D029
:1025D000009B83F0100353EA0A0305D00EE040226B
:1025E0008DF80420012208E05CEA010206D03022C6
:1025F0008DF804208DF8050002229046009B83F0A0
:10260000080353EA0A030AD15CEA010201D1620716
:1026100005D530228DF804204FF001087F1E582880
:1026200004D034A003900EA802900DE036A0F9E784
:1026300053466046009AFDF7C3FD84460398825CCA
:102640000298401E029002705CEA0100F0D10298EC
:1026500006A9081A00F1200A600702D524F4803484
:1026600000E00127574502DDA7EB0A0000E000204B
:1026700000EB0A01009005984144401A0590E003E0
:1026800006D45B462146179A059800F0B3F9054435
:10269000002706E001A85A46C05D179990476D1CB7
:1026A0007F1C4745F6DBE0030CD55B462146179AB5
:1026B000059800F09FF9054404E030205A46179928
:1026C00090476D1C0099481E00900029F5DC08E039
:1026D000029802995A460078491C0291179990472E
:1026E0006D1CBAF10001AAF1010AF1DC65E10000FC
:1026F00009280100303132333435363738396162D8
:10270000636465660000000030313233343536379B
:1027100038394142434445460000000000F058F972
:102720000544761C307800287FF4ECAD19B02846BB
:10273000BDE8F08F620700D4062709F1070222F0F6
:10274000070CFCE80223E14603F000485FEA080CAE
:1027500002D00FF2702C0DE05FEA045C02D50FF29C
:10276000682C07E05FEAC47C02D00FF2602C01E025
:10277000AFF2700C4FF0FF3823F00043CDF850C09B
:1027800065280CD006DC452809D046281DD04728EE
:102790003DD13DE0662818D067287ED138E0002181
:1027A000112F01DB112000E0781CCDE9000106A902
:1027B0000EA8FFF7DDFCDDE90F010E9A0391002161
:1027C000009207F1010A04914DE04FF0004000979C
:1027D000CDE9011006A90EA8FFF7CAFCDDE90F023A
:1027E00003920E9B11990022DDF80CA00093049235
:1027F00011B9791C00EB010AB7EB0A0004D4C0F14F
:10280000FF3007F1010A0490AAEB0700019044E0B1
:10281000012F00DA01270021112F01DD112000E036
:102820003846CDE9000106A90EA8FFF7A1FCDDE9B5
:102830000F010E9A0391002104910092BA462107DC
:102840000CD40399514500DA8A46BAF1010F05DD2F
:10285000009AAAF10101515C302908D0B84202DA8D
:1028600010F1040F06DA0121CDE9011015E0AAF1FB
:102870000101E9E7002805DC049901440491AAEB71
:10288000000102E0411C514500DD8A460499401ACE
:10289000401C01904FF000400290200704D40198A2
:1028A000504501DBCDF8048000208DF84F000298E0
:1028B0000DF14F07B0F1004F25D02B200E9002985C
:1028C0004FF0020800280CDA404202902D200E90B2
:1028D00007E00A210298FDF7E2FC3031029007F888
:1028E000011DB8F10001A8F10108F2DC02980028EE
:1028F000EFD1791E0E980870307800F0200040F07B
:10290000450007F8020D12A8C01B00F10708149833
:10291000007800B1012000EB0A01019801EBE071A1
:1029200005984144401A401E0590E00306D45B46DA
:102930002146179A059800F05DF805441498007830
:1029400018B15A46179990476D1CE00324D55B4691
:102950002146179A059800F04DF805441CE00498AC
:10296000002807DBDDE90301884203DD0098405CB5
:10297000179901E0179930205A469047049805F1BD
:102980000105401C04900198401E019004D12E20A6
:102990005A46179990476D1CBAF10001AAF1010A35
:1029A000DDDC05E017F8010B5A46179990476D1CBE
:1029B000B8F10001A8F10108F4DC5B462146179A42
:1029C0000598ABE62D0000002B0000002000000061
:1029D0002DE9F041044600251E461746880404D41C
:1029E00005E039462020B0476D1C641EF9D5284605
:1029F000BDE8F0812DE9F041044600251E469046D1
:102A0000C80301D5302700E02027880404D505E05D
:102A100041463846B0476D1C641EF9D52846BDE8CE
:102A2000F0814840002102064FEA40604FEA106002
:102A300001D580F00700491CC9B20829F3D37047BB
:102A400008B502238DF80000012269460248FEF70E
:102A500015FE002008BD0000740000201CB5FEF724
:102A600073FAFFF7CBF9FFF761F9FFF785F9FFF785
:102A7000A3F91848FFF748F89FED170AFFF7B2F8D7
:102A80004FF47A70FDF7D8FE144C4FF47577134865
:102A9000001DFFF785F80A20FDF7CEFE0F48FFF76F
:102AA00090F80A20FDF7C8FE2068FDF7E5FB054613
:102AB0000E466068FDF7E0FB41EC100BCDE90056D7
:102AC00053EC102B06A0FFF7B1FA3846FDF7B4FE21
:102AD000DDE7000020000020F6287C3F00000020F9
:102AE000BBB7BEB3CEC2B6C82566B6C80D0ACEEF18
:102AF000CCE5CEC2B6C825660D0A00000000000075
:102B0000000000000102030406070809000000009D
:102B100001020304342B0008000000202000000004
:102B200050210008542B00082000002098040000C9
:102B3000602100080000000000000000000000000C
:102B40000100000010000000000000000024F4005C
:042B50000000000081
:040000050800018965
:00000001FF
