:020000040800F2
:1000000028430020A1010008FD280008232600083D
:10001000F9280008DB0A0008C52D000800000000D0
:100020000000000000000000000000000729000898
:10003000FB0B000800000000052900080929000842
:10004000BB010008BB010008BB010008BB010008A0
:10005000BB010008BB010008BB010008BB01000890
:10006000BB010008BB010008BB010008BB01000880
:10007000BB010008BB010008BB010008BB01000870
:10008000BB010008BB010008BB010008BB01000860
:10009000BB010008BB010008BB010008BB01000850
:1000A000BB010008BB010008BB010008BB01000840
:1000B000BB010008BB010008BB010008BB01000830
:1000C000BB010008BB010008BB010008BB01000820
:1000D000BB010008BB010008BB010008BB01000810
:1000E000BB010008BB010008BB010008BB01000800
:1000F000BB010008BB010008BB010008BB010008F0
:10010000BB010008BB010008BB010008BB010008DF
:10011000BB010008BB010008BB010008BB010008CF
:10012000E10A0008BB010008BB010008BB01000890
:10013000BB010008BB010008BB010008BB010008AF
:10014000BB010008BB010008BB010008BB0100089F
:10015000BB010008BB010008BB010008BB0100088F
:10016000BB010008BB010008BB010008BB0100087F
:10017000BB010008BB010008BB0100080000000033
:10018000BB010008BB010008DFF810D000F04AFBFB
:10019000004800478D440008AFF30080284300204A
:1001A0000648804706480047FEE7FEE7FEE7FEE711
:1001B000FEE7FEE7FEE7FEE7FEE7FEE7C9290008E7
:1001C00089010008F0B40024A44695080ED000BFB1
:1001D00050F8046B51F8047BC6FBC74C50F8046B15
:1001E00051F8047BC6FBC74C6D1EF1D112F003021F
:1001F00008D000BF30F9026B31F9025BC6FBC54C79
:10020000521EF7D1C3E9004CF0BC70472DE9F05FF6
:100210000546002092469B46884606468146402475
:100220001BE0284641464746224600F011F9534656
:100230005A46C01A914110D311461846224600F082
:10024000F8F82D1A67EB01084F46224601200021DD
:1002500000F0EFF817EB00094E41201EA4F1010455
:10026000DFDC484631462A464346BDE8F09FD2B21D
:1002700001E000F8012B491EFBD270470022F6E78F
:1002800010B513460A4604461946FFF7F0FF20460C
:1002900010BD2DE9FE4F81EA030404F0004421F073
:1002A000004100944FF0000B23F0004350EA01049A
:1002B0005ED052EA03045BD0C3F30A54C1F30A557B
:1002C0002C44A4F2F3340194A0FB0254C1F31301B3
:1002D00041F48011C3F3130343F4801301FB024480
:1002E00000FB034E840A970A44EA815447EA835785
:1002F000A4FB076802958D0A05FB07854FEA932C3E
:1003000004FB0C542705029D4FEA065847EA1637AE
:10031000B5EB08056EEB070C870E920E47EA8117C6
:1003200042EA8312A7FB0201B6EB0B0164EB000467
:100330002B0D43EA0C335E1844EB1C50DA46514651
:10034000E7FB0201C5F313044FEA0B3343EA1453EE
:100350004FEA0432019C43EA0603A4F10C04029420
:10036000009CCDE900B400F0C9F803B0BDE8F08FFF
:1003700000200146F9E7F0B4CA17CB0F50405140B6
:10038000C61841F100054FEAC372314628004FF00C
:10039000960303D0B623F0BC00F073B830460021BA
:1003A000F9E770B5C1F30A5201F000450024C1F32A
:1003B000130140F2FF3341F480119A4201DA002028
:1003C00070BD40F233439A42A2F2334203DC524200
:1003D00000F03EF800E090402C43F1D0404270BD68
:1003E00000F0004230F000400AD0C10D01F560710C
:1003F000C0F3160042EA0151C2084007114370479A
:1004000000200146704730B50B46014600202022EF
:10041000012409E021FA02F59D4205D303FA02F511
:10042000491B04FA02F52844151EA2F10102F1DC71
:1004300030BD202A04DB203A00FA02F10020704788
:100440009140C2F1200320FA03F319439040704712
:10045000202A04DB203A21FA02F00021704721FA19
:1004600002F3D040C2F12002914008431946704780
:100470000029A8BF7047401C490008BF20F00100B8
:10048000704710B4B0FA80FC00FA0CF050EA010496
:1004900004BF10BC704749B1CCF1200421FA04F428
:1004A00011FA0CF118BF012121430843A3EB0C0101
:1004B000CB1D4FEA00614FEA102042BF002010BC64
:1004C000704700EBC35010440029A4BF10BC704714
:1004D000401C490008BF20F0010010BC704710B557
:1004E000141E73F1000408DA401C41F10001921857
:1004F0005B411A4301D120F0010010BD2DE9F04D00
:1005000092469B4611B1B1FA81F202E0B0FA80F254
:1005100020329046FFF78DFF04460F4640EA0A005E
:1005200041EA0B0153465A46084313D0114653EA99
:10053000010019D0C8F140025046FFF789FF054677
:100540000E46504659464246FFF773FF084305D012
:10055000012004E020463946BDE8F08D0020054327
:1005600046EAE0762C4337430A986305E40AA0EB99
:1005700008000022FD0A44EA47540A3002D5002050
:100580000146E9E7010510196941DDE9084500194F
:100590006941BDE8F04DA2E72DE9FE4F804681EAB2
:1005A0000300C00F0C46009021F0004123F00045ED
:1005B000B8EB0200A94105D24046214690461C46B0
:1005C0000B46024623F00040104347D0270DC7F3E7
:1005D0000A00C3F30A510290401A019040286BDAD6
:1005E000C3F3130040F4801B0098924620B100230F
:1005F000D2EB030A63EB0B0B01985946C0F14002A2
:100600005046FFF716FF06460D4650465946019ADA
:1006100000F01AF910EB08006141002487EA11523A
:1006200084EAE7731A4340D0009A62B3019A012A20
:100630004FEA075215DC001B61EB02014FF000424C
:1006400002EA0752CDE90042001C41F58011324612
:100650002B46FFF753FF03B0BDE8F08F404621461D
:10066000F9E7001B61EB0201001C41F58013001843
:100670005B412018A2F5001747EB030140EAD57053
:10068000B6196D4111E06D084FEA360645EAC075AE
:100690004FEA0752001B61EB0201001C41F580117B
:1006A00049084FEA30000019514132462B4603B049
:1006B000BDE8F04FFFF713BF009801224000002370
:1006C000D0EB020263EBE073009821464FEAE0743E
:1006D000B8EB000061EB0401E9E783F000435BE75E
:1006E00081F0004158E72DE9F04D81EA030404F060
:1006F000004B21F0004514464FF0000A23F0004162
:1007000050EA050220D054EA01021DD0C5F30A5771
:100710000246C5F31303C1F31300C1F30A5640F4B4
:10072000801543F48013A7EB0608101BD64608F289
:10073000FD3873EB050002D308F1010801E09218BF
:100740005B41B8F1000F03DA00200146BDE8F08DEF
:1007500000204FF48011064684460EE0171B73EB11
:10076000050705D3121B63EB050306434CEA010C96
:1007700049084FEA300092185B4150EA0107EDD179
:1007800052EA030012D082EA040083EA050108431A
:1007900005D0101BAB4106D20122002306E0002247
:1007A0004FF0004302E06FF0010253101AEB060015
:1007B0004CEB085110EB0A0041EB0B01BDE8F04D8A
:1007C000FFF78DBEC1F30A52C1F3130140F2FF33AC
:1007D00041F480119A4202DA00200146704740F24B
:1007E00033439A42A2F2334202DC5242FFF730BE58
:1007F000FFF71FBE30B5041E71F1000404DB4FF09B
:100800000044404264EB0101141E73F1000405DB57
:100810001C464FF00043524263EB0403994208BF69
:10082000904230BD064C074D06E0E06840F0010301
:1008300094E8070098471034AC42F6D3FFF7A8FCC1
:10084000A8480008C8480008202A06DBCB17203A31
:1008500041FA02F043EAE07306E041FA02F3D040C5
:10086000C2F1200291400843194670470EB5C10FEE
:1008700080EAE0700844CA07002140F233438DE863
:100880000E000A460B46FFF739FE03B000BD0EB559
:1008900040F2334102910021CDE900110A460B4696
:1008A000FFF72CFE03B000BD30B58C1810F8012BFB
:1008B00012F00F0301D110F8013B120906D110F814
:1008C000012B03E010F8015B01F8015B5B1EF9D11D
:1008D00001E001F8013B521EFBD1A142E6D300200A
:1008E00030BD000055494A6822F440324A604A68E7
:1008F00043681A434A600268526822F480720368AF
:100900005A6002685368026943EA022203685A6027
:100910000268526822F0407203685A6002685268A6
:1009200083681A4303685A600268926822F400627E
:1009300003689A6002689268C3681A4303689A6001
:100940003F4B826A9A4218D00268926822F0706225
:1009500003689A6002689268836A1A4303689A601F
:100960000268926822F0405203689A6002689268B6
:10097000C36A1A4303689A600BE00268926822F027
:10098000706203689A600268926822F040520368BD
:100990009A600268926822F0020203689A60026814
:1009A0009368027E43EA420203689A602022125C46
:1009B000A2B10268526842F4006203685A60026899
:1009C000526822F4604203685A6002685368426ABF
:1009D000521E43EA423203685A6005E002685268D8
:1009E00022F4006203685A600268D26A22F470023C
:1009F0000368DA620268D36A828B521E43EA0252AB
:100A00000368DA620268926822F4007203689A60EE
:100A10000268936890F8302043EA422203689A60A3
:100A20000268926822F4806203689A6002689368A0
:100A3000426943EA822203689A60704700230140BA
:100A40000100000F70B50546AC6B206C00F0500043
:100A500050BB206C40F4007020642068806800F077
:100A60004050E8B9207ED8B92068C06A00F4700010
:100A700020B12068806800F4806088B920684068F0
:100A800020F0200021684860206C20F480702064F1
:100A9000206C00F4805018B9206C40F001002064F4
:100AA000204600F043FA03E0A06BC16C284688475B
:100AB00070BD70B50546AC6B40202064606C40F0A2
:100AC00004006064204600F040FA70BD70B5044632
:100AD000A56B284600F038FA70BD00BFFEE70000A5
:100AE00010B5024800F0A0FB10BD00003C02002041
:100AF0000146087810381823B0FBF3F20848805CF0
:100B0000C865032A05D908686FF30900001D8865C8
:100B100003E008686FF309008865886D704700007E
:100B200068470008014600208A6A8B69CBB932B158
:100B3000012A0DD0022A03D0032A10D10EE000BFF3
:100B4000CB6A03F08073B3F1807F00D1012007E00E
:100B5000CB6AB3F1C07F00D1012001E000E000BF0B
:100B600034E08B69B3F5005F1AD132B1012A07D0A6
:100B7000022A03D0032A11D10AE000BF01200EE0AF
:100B8000CB6A03F08073B3F1807F00D1012006E0CF
:100B9000CB6AB3F1C07F00D1012000E000BF15E0B7
:100BA00032B1012A05D0022A04D0032A0CD103E075
:100BB00000BF00BF012008E0CB6A03F08073B3F1EF
:100BC000807F00D1012000E000BF00BF704730B53A
:100BD0000468246824F4802405682C600468636039
:100BE0008468402C04D10468A2600468E16003E0DA
:100BF0000468A1600468E26030BD704772B600BF4F
:100C0000FEE7000010B502460B4600BF92F83C001C
:100C1000012801D1022010BD012082F83C0000BF54
:100C20000F49486820F01F00486048681C6820434E
:100C30004860486820F44040486048685C68204349
:100C40004860486820F47060486048689C682043A9
:100C5000486000BF002082F83C0000BF00BFDAE718
:100C600000230140F8B504460E46174600200090C8
:100C700000BF94F83C00012801D10220F8BD0120FA
:100C800084F83C0000BF2068806800F00100A0B933
:100C90002068806840F00100216888603A48006858
:100CA0003A49B0FBF1F000EB4000009002E0009800
:100CB000401E009000980028F9D12068806800F05C
:100CC0000100002856D0206C40F20161884340F4B6
:100CD000807020642068406800F4806028B1206C37
:100CE00020F4005040F480502064206C00F48050C8
:100CF000B0F5805F04D1606C20F00600606401E014
:100D00000020606400BF002084F83C0000BF204841
:100D1000A16BC8631F48A16B08641F48A16BC8641E
:100D20006FF00200216808602068406840F0806031
:100D300021684860194D94F8300020B1686840F48B
:100D40000050686003E0686820F4005068603B462B
:100D5000324605F10801A06B00F0FCFB20688068BA
:100D600000F0405070B92068806840F080402168F1
:100D7000886007E0206C40F010002064606C40F058
:100D800001006064002079E7A001002040420F00CC
:100D9000450A0008CD0A0008B30A000800230140F4
:100DA00038B502460020009000BF92F83C000128B0
:100DB00001D1022038BD012082F83C0000BF086844
:100DC000092816D91068C0680C780A3C04EB440561
:100DD0000724AC40A0431468E0600C780A3C04EBA4
:100DE00044048868A0401468E46820431468E06004
:100DF00013E0106800690C7804EB44050724AC404C
:100E0000A043146820610C7804EB44048868A04077
:100E1000146824692043146820614868072817D2A1
:100E20001068406B0C79641E04EB84051F24AC40F1
:100E3000A04314686063088880B20C79641E04EBD8
:100E40008404A0401468646B20431468606331E03C
:100E500048680D2817D21068006B0C79E41F04EB6A
:100E600084051F24AC40A04314682063088880B226
:100E70000C79E41F04EB8404A0401468246B204325
:100E80001468206316E01068C06A0C790D3C04EB0E
:100E900084051F24AC40A0431468E062088880B237
:100EA0000C790D3C04EB8404A0401468E46A2043F0
:100EB0001468E062194B1A4C1068A04206D1086809
:100EC000122803D1586840F480005860144C106810
:100ED000A0421CD10868102802D00868112816D139
:100EE000586840F400005860086810280FD10D4879
:100EF00000680D4CB0FBF4F000EB80004000009067
:100F000002E00098401E009000980028F9D100BF30
:100F1000002082F83C0000BF00BF4BE700230140E7
:100F200000200140A001002040420F0010B50446FF
:100F3000034801F0F3F900200249086010BD0000E9
:100F40009C020020900100207047704770B5044655
:100F500000250CB9012070BD1549A06A884200D057
:100F600000BF206C30B9204600F024F800206064F7
:100F700084F83C00206C00F0100088B9206C20F44C
:100F8000885040F0020020642046FFF7ABFC0020B0
:100F90006064206C20F0020040F00100206400E05A
:100FA000012500BF002084F83C0000BF2846D2E79E
:100FB0000100000F10B586B00446142101A8FFF708
:100FC0005DF940492068884249D100BF0020009067
:100FD0003D48006840F480703B490860084600685E
:100FE00000F48070009000BF00BF00BF00200090A0
:100FF00035481438006840F001003349143908605E
:101000000846006800F00100009000BF00BF01200A
:101010000190032002900020039001A92B4800F0CA
:10102000E3FA2B482B49086000204860002129483A
:101030008160C1604FF48061016189004161890074
:1010400081610021C1610162416200F00DFA08B1C5
:10105000FFF7D4FD00BF1F48A06384632FE01E4943
:10106000206888422BD100BF0020009016480068FD
:1010700040F40070144908600846006800F40070ED
:10108000009000BF00BF00BF002000900E48143841
:10109000006840F001000C491439086008460068F7
:1010A00000F00100009000BF00BF0220019003206B
:1010B00002900020039001A9044800F095FA06B0C0
:1010C00010BD0000002001404438024000000240F2
:1010D000106402403C0200200021014008B5014696
:1010E0000020009000BF91F83C00012801D10220AF
:1010F00008BD012081F83C0000BF0868806800F04E
:101100000100A0B90868806840F001000B68986091
:101110003F4800683F4BB0FBF3F000EB400000900D
:1011200002E00098401E009000980028F9D108685D
:10113000806800F00100002860D0086C40F2016374
:10114000984340F4807008640868406800F4806048
:1011500028B1086C20F4005040F480500864086CFA
:1011600000F48050B0F5805F04D1486C20F0060098
:10117000486401E00020486400BF002081F83C0082
:1011800000BF254A6FF022000B681860506800F01D
:101190001F0018BB214B0868984213D0204B0868E9
:1011A000984204D1101D006800F01F0050B11D4B83
:1011B000086898422AD11848001D006800F01F00F6
:1011C000102823D20868806800F04050F0B9086801
:1011D000806840F080400B68986017E00F4B08680B
:1011E000984213D10868806800F0405070B90868D0
:1011F000806840F080400B68986007E0086C40F021
:1012000010000864486C40F00100486400206FE75B
:10121000A001002040420F000023014000200140B7
:101220000021014000220140F8B504460020009052
:101230008C4800684FF41651B0FBF1F7A56D2E688D
:1012400094F85C1008208840304098B1206800680D
:1012500000F0040070B12068006820F004002168EC
:10126000086094F85C1008208840A860606D40F029
:101270000100606594F85C1001208840304068B13E
:101280002068406900F0800040B194F85C100120B3
:101290008840A860606D40F00200606594F85C10C2
:1012A00004208840304068B12068006800F00200E7
:1012B00040B194F85C1004208840A860606D40F054
:1012C0000400606594F85C1010208840304078B3CA
:1012D0002068006800F0080050B394F85C101020FB
:1012E0008840A8602068006800F4802080B12068F1
:1012F000006800F4002028B9206CC8B12046216C99
:10130000884715E0A06C98B12046A16C88470FE093
:101310002068006800F4807028B92068006820F018
:10132000080021680860206C10B12046216C8847B5
:1013300094F85C10202088403040002865D0206858
:10134000006800F0100000285FD094F85C102020A6
:101350008840A86094F83500052828D120680068E6
:1013600020F01600216808602068406920F08000A5
:1013700021684861206C08B9A06C28B12068006819
:1013800020F008002168086094F85C103F20884035
:10139000A86000BF002084F8340000BF012084F85A
:1013A0003500206D10B12046216D8847F8BD2068BA
:1013B000006800F4802080B12068006800F40020FC
:1013C00028B9606C10B12046616C88471DE0E06B65
:1013D000D8B12046E16B884717E02068006800F428
:1013E000807068B92068006820F0100021680860EB
:1013F00000BF002084F8340000BF012084F83500CD
:10140000E06B10B12046E16B8847606D38B3606DCA
:1014100000F00100F0B1052084F835002068006874
:1014200020F001002168086000BF0098401C009077
:10143000B84200D905E02068006800F001000028EB
:10144000F3D100BF00BF002084F8340000BF0120AA
:1014500084F83500E06C10B12046E16C884700BF8D
:10146000A4E70000A00100202DE9F041044600257A
:1014700000F0C2F9074614B90120BDE8F081606AA6
:1014800000B100BF00BF002084F8340000BF02207C
:1014900084F835002068006820F0010021680860A9
:1014A0000AE000F0A9F9C01B052805D920206065D5
:1014B000032084F83500E0E72068006800F00100B0
:1014C0000028EED12068056821480540D4E90101D3
:1014D0000843E16808432169084361690843A16939
:1014E0000843E1690843216A08430543606A042808
:1014F00003D1D4E90B010843054320680560206847
:10150000456925F00705606A0543606A04280DD126
:10151000A06A0543E06A48B12046FFF703FB28B103
:1015200040206065012084F83500A6E72068456109
:101530002046FFF7DDFA064694F85C103F2088400D
:10154000B06000206065012084F83500002094E739
:101550003F8010F02DE9F04704460D4616461F4621
:101560004FF00008D4F8589000BF94F834000128D8
:1015700002D10220BDE8F087012084F8340000BFCA
:1015800094F83500012825D1022084F83500002088
:1015900060653B46324629462046FFF718FB94F823
:1015A0005C103F208840C9F808002068006840F0BF
:1015B000160021680860206C28B12068006840F09F
:1015C0000800216808602068006840F00100216878
:1015D000086006E000BF002084F8340000BF4FF030
:1015E00002084046C6E70000F8B502460B46002553
:1015F000002400200021DEE0012606FA01F51E6825
:1016000006EA0504AC4275D11E7906F00306012EE8
:1016100004D01E7906F00306022E13D190684F0005
:101620000326BE40B0434F00DE68BE4030439060AA
:10163000506801268E40B0431E79C6F300168E40D6
:10164000304350601E7906F00306032E09D0D0689F
:101650004F000326BE40B0434F009E68BE4030435B
:10166000D0601E7906F00306022E13D1CF0802F1D6
:10167000200656F827004E07F70E0F26BE40B0434F
:101680004F07FF0E1E69BE403043CF0802F120060F
:1016900046F8270010684F000326BE40B0431E796D
:1016A00006F003064F00BE40304310605E6806F04F
:1016B0008056B6F1805F7DD100BF00260096404E77
:1016C000366846F480463E4F3E603E46366806F435
:1016D0008046009600BF00BF3A4E8F0856F827009C
:1016E0008E07370F0F26BE40B043374EB24202D1AD
:1016F000002624E05EE0354EB24201D101261EE014
:10170000334EB24201D1022619E0324EB24201D12B
:10171000032614E0304EB24201D104260FE02F4ED2
:10172000B24201D105260AE02D4EB24201D1062671
:1017300005E02C4EB24201D1072600E008268F07B3
:101740003F0FBE4030431F4E8F0846F82700264EFD
:101750003068A0435E6806F48036B6F5803F00D15D
:101760002043214E3060361D3068A0435E6806F489
:101770000036B6F5003F00D120431B4E361D3060C9
:10178000361D3068A0435E6806F48016B6F5801FEB
:1017900000D12043144E08363060361D3068A04317
:1017A0005E6806F40016B6F5001F00D120430E4E09
:1017B0000C363060491C1029FFF41EAFF8BD000044
:1017C0004438024008380140000002400004024052
:1017D00000080240000C02400010024000140240C9
:1017E00000180240001C0240003C01400AB1816127
:1017F00001E00B04836170470148006870470000F6
:10180000940100200348006803490978084401490D
:1018100008607047940100209C01002010B50D481D
:10182000006840F400700B4908600846006840F406
:10183000806008600846006840F4807008600320FB
:1018400000F0A2F8002000F007F800F02BF80020CC
:1018500010BD0000003C024070B504460E48007800
:101860004FF47A71B1FBF0F00C490968B1FBF0F567
:10187000284600F043FC08B1012070BD102C07D2AF
:1018800000222146501E00F041F80548046001E0A6
:101890000120F2E70020F0E79C010020A0010020D9
:1018A0009801002008B500BF002000900E48006895
:1018B00040F480400C4908600846006800F480400D
:1018C000009000BF00BF00BF00200090081F00680C
:1018D00040F08050091F08600846006800F0805002
:1018E000009000BF00BF08BD4438024001460846D2
:1018F000002809DB00F01F0301229A4043099B00E6
:1019000003F1E023C3F8002100BF70472DE9F05F29
:1019100080460D461646002701F092FA07463946E2
:101920002A46334601F00700C0F1070ABAF1040F56
:1019300002D94FF0040A01E0C0F1070AD14600F1D4
:10194000040ABAF1070F02D24FF0000A01E0A0F139
:10195000030AD4464FF0010A0AFA09FAAAF1010A69
:101960000AEA020A0AFA0CFA4FF0010B0BFA0CFB16
:10197000ABF1010B0BEA030B4AEA0B04214640468C
:1019800001F066FABDE8F09F00BF00F00702064BC9
:1019900019684FF6FF031940044B0B4343EA022139
:1019A000014B196000BF70470CED00E00000FA0524
:1019B0007047000070B504460D460CB9012070BD9B
:1019C0005848006800F00700A84209D255490D7038
:1019D0000846006800F00700A84201D00120EEE7A9
:1019E000207800F0020002281DD1207800F00400C9
:1019F000042805D14C48006840F4E0504A4908608A
:101A0000207800F00800082805D14748006840F415
:101A10006040454908604448006820F0F000A16833
:101A2000084341490860207800F00100A8B36068CD
:101A3000012807D13C4808380068C0F34040B8B9D5
:101A40000120BCE76068022802D06068032807D143
:101A5000354808380068C0F3406048B90120AEE757
:101A6000314808380068C0F3400008B90120A6E7F3
:101A70002D48006820F00300616808432A49086087
:101A8000FFF7BAFE064609E0FFF7B6FE801B41F2FB
:101A90008831884202D9032091E707E02248006894
:101AA00000F00C006168B0EB810FEDD11D480068BB
:101AB00000F00700A84209D91A490D7008460068CD
:101AC00000F00700A84201D0012078E7207800F05C
:101AD0000400042807D11448006820F4E050E168AD
:101AE000084311490860207800F00800082808D150
:101AF0000D48006820F46040216940EAC1000A49AD
:101B0000086000F045F808490968C1F30311074A65
:101B1000515CC8400649086006480068FFF79CFE13
:101B200000204CE7003C02400838024070470008A3
:101B3000A00100209801002001200149C8647047DD
:101B4000000047420148006870470000A0010020E3
:101B500000B5FFF7F7FF04490968C1F38221034A82
:101B6000515CC84000BD00000838024080470008B2
:101B700000B5FFF7E7FF04490968C1F34231034AA2
:101B8000515CC84000BD0000083802408047000892
:101B90002DE9F047002400250026A14625480068CD
:101BA00000F00C0020B1042805D008283AD105E047
:101BB000DFF8849039E0DFF8849036E01D48001F9C
:101BC000006800F03F041B48001F006800F480001C
:101BD00078B11A481749091F0968C1F38811A0FB99
:101BE00001700146224600233846FEF70FFB0546EA
:101BF0000EE011480F49091F0968C1F38811A0FBC5
:101C000001700146224600233846FEF7FFFA0546DA
:101C10000848001F0068C0F30140401C4600B5FBA7
:101C2000F6F902E0DFF8109000BF00BF4846BDE8BB
:101C3000F0870000083802400024F40000127A0007
:101C400010B50648006800F08000802805D1FFF735
:101C5000AFFE80200149891C087010BD0C3802407D
:101C6000F8B504460CB90120F8BD207800F0010059
:101C7000002874D0F948006800F00C0004280DD04A
:101C8000F648006800F00C00082813D1F348001F44
:101C9000006800F48000B0F5800F0BD1EF480838E1
:101CA0000068C0F34040002859D06068002856D131
:101CB0000120D9E700BF6068B0F5803F08D1E74850
:101CC0000838006840F48030E449083908601EE0B4
:101CD0006068B0F5A02F0DD1E0480838006840F4E6
:101CE0008020DE49083908600846006840F48030EA
:101CF00008600CE0D9480838006820F48030D749E3
:101D0000083908600846006820F48020086000BF99
:101D1000606890B1FFF770FD054606E0FFF76CFDC7
:101D2000401B642801D903209EE7CC48083800688E
:101D3000C0F340400028F1D011E0FFF75DFD0546FB
:101D400006E0FFF759FD401B642801D903208BE70B
:101D5000C24808380068C0F340400028F1D120781C
:101D600000F0020002285FD1BC48006800F00C00BF
:101D700058B1BA48006800F00C0008281CD1B748D8
:101D8000001F006800F48000B0B9B448083800684B
:101D9000C0F3400020B1E068012801D0012063E7D2
:101DA000AE480838006820F0F800216940EAC10018
:101DB000AA490839086037E0E06800B30120A84963
:101DC0000860FFF719FD054606E0FFF715FD401B0B
:101DD000022801D9032047E7A04808380068C0F36B
:101DE00040000028F1D09D480838006820F0F80035
:101DF000216940EAC10099490839086014E00020CF
:101E000097490860FFF7F8FC054606E0FFF7F4FC89
:101E1000401B022801D9032026E7904808380068B3
:101E2000C0F340000028F1D1207800F00800082815
:101E30002CD16069A8B101208A490860FFF7DCFC59
:101E4000054606E0FFF7D8FC401B022801D9032015
:101E50000AE782486C300068C0F340000028F1D0E7
:101E600014E000207F490860FFF7C6FC054606E045
:101E7000FFF7C2FC401B022801D90320F4E6774893
:101E80006C300068C0F340000028F1D1207800F0E9
:101E90000400042870D1002770483830006800F032
:101EA000805090B900BF002000906C483830006826
:101EB00040F080506949383108600846006800F0F9
:101EC0008050009000BF00BF01276748006800F401
:101ED0008070B0B96448006840F48070624908605E
:101EE000FFF78AFC054606E0FFF786FC401B022848
:101EF00001D90320B8E65C48006800F4807000282F
:101F0000F2D000BFA068012808D1544868300068AA
:101F100040F001005149683108601DE0A0680528C3
:101F20000DD14E486830006840F004004B496831DC
:101F300008600846006840F0010008600CE047486F
:101F40006830006820F001004449683108600846A4
:101F5000006820F00400086000BFA068A8B1FFF787
:101F60004BFC054609E0FFF747FC401B41F2883176
:101F7000884202D9032077E626E0384868300068B6
:101F8000C0F340000028EED013E0FFF735FC054613
:101F900008E0FFF731FC401B41F28831884201D94B
:101FA000032061E62D4868300068C0F34000002837
:101FB000EFD1012F07D129483830006820F0805038
:101FC00026493831086000BFA069002845D0234861
:101FD000006800F00C0008285DD0A069022845D1F7
:101FE00000201F490866FFF707FC054606E0FFF7DB
:101FF00003FC401B022801D9032035E617480838A6
:102000000068C0F340600028F1D1D4E9070108431B
:10201000616A40EA81110122A06AC2EB500041EAE4
:1020200000412C20005D41EA00600C49091F086056
:1020300001200B490866FFF7DFFB054606E0FFF7C6
:10204000DBFB401B022801D903200DE603480838BA
:102050000068C0F340600028F1D049E00838024031
:1020600000004742800E4742007000400020214996
:102070000866FFF7C1FB054606E0FFF7BDFB401B06
:10208000022801D90320EFE51B480068C0F3406037
:102090000028F2D12CE0A069012800D1E4E516481F
:1020A000001D0668A069012820D006F48001E069BF
:1020B00081421BD106F03F01206A814216D147F6CA
:1020C000C0703040616AB0EB811F0FD106F440311F
:1020D0000122A06AC2EB5000B1EB004F06D106F01E
:1020E00070612C20005DB1EB006F01D00120BBE5D9
:1020F0000020B9E5000047420038024070B50446B0
:102100002546681EB0F1807F01D301200FE0681ED4
:102110004FF0E02148610F214FF0FF3000F098FEB2
:1021200000204FF0E021886107200861002070BD89
:1021300030B502460B4600BF92F83C00012801D1A1
:10214000022030BD012082F83C0000BF022082F84E
:102150003D00106844681068816824F070041868B5
:10216000044310684460184D1068A8421BD01068E2
:10217000B0F1804F17D0154D1068A84213D0144D00
:102180001068A8420FD0134D1068A8420BD0124D12
:102190001068A84207D0114D1068A84203D0104D16
:1021A0001068A84205D121F08001586801431068E9
:1021B0008160012082F83D0000BF002082F83C00D1
:1021C00000BF00BFBDE70000000001400004004068
:1021D00000080040000C00400004014000400140A5
:1021E0000018004010B504460CB9012010BD94F849
:1021F0003D0028B9002084F83C00204600F026F875
:10220000022084F83D00211D206800F0E7FB01203A
:1022100084F8460000BF84F83E0001213F200155AC
:10222000402001554120015500BF00BF012084F826
:10223000420043200155442001554520015500BF6F
:10224000012084F83D000020D0E7000008B50A4ACC
:10225000016891420FD100BF002100910749096830
:1022600041F00201054A11601146096801F00201BE
:10227000009100BF00BF08BD00040040403802408C
:10228000014691F83D00012801D00120704702204D
:1022900081F83D001A4B086898421BD00868B0F1DD
:1022A000804F17D0174B0868984213D0164B086818
:1022B00098420FD0154B086898420BD0144B086811
:1022C000984207D0134B0868984203D0124B086815
:1022D00098420CD10868806800F00702062A0CD0EA
:1022E0000868006840F001000B68186005E00868A5
:1022F000006840F001000B6818600020C6E700008D
:10230000000001400004004000080040000C0040B4
:10231000000401400040014000180040014600BF99
:102320000868006A41F21112104050B90868006A4A
:102330009210104028B90868006820F001000A686F
:10234000106000BF012081F83D00002070472DE99A
:10235000F04104460D4600BF94F83C00012802D12C
:102360000220BDE8F081012084F83C0000BF02207B
:1023700084F83D002068866826F0770626F47F46BC
:10238000206886602868502833D00CDC202850D084
:1023900004DC00284BD0102851D149E0302849D026
:1023A00040284CD139E060282DD0702807D0B0F5F6
:1023B000805F03D0B0F5005F41D10DE040E0D5E98A
:1023C00002136A68206800F075FB2068866846F092
:1023D00077062068866033E0D5E902136A682068D2
:1023E00000F068FB2068806840F4804021688860C5
:1023F00026E0EA686968206800F070FB50212068D8
:1024000000F063FB1CE0EA686968206800F079FB73
:102410006021206800F059FB12E0EA6869682068D2
:1024200000F05CFB4021206800F04FFB08E000BF9B
:1024300000BF00BF2968206800F047FB00E000BF34
:1024400000BF012084F83D0000BF002084F83C005C
:1024500000BF00BF85E710B504460CB9012010BDD0
:10246000A06900B100E000BF94F83D0028B9002049
:1024700084F83C00204600F027F8242084F83D0032
:102480002068C06820F400502168C860204600F031
:102490004DFB2068006920F49040216808612068A5
:1024A000406920F02A00216848612068C06840F433
:1024B00000502168C86000202064202084F83D007E
:1024C00084F83E000020CAE710B586B00446142107
:1024D00001A8FDF7D3FE1B492068884230D100BF18
:1024E000002000901848006840F01000164908606D
:1024F0000846006800F01000009000BF00BF00BF59
:102500000020009010481438006840F001000E4987
:10251000143908600846006800F00100009000BF10
:1025200000BF4FF4C0600190022002900020039091
:10253000032004900720059001A90448FFF754F8F0
:1025400006B010BD001001404438024000000240B7
:102550002DE9F84F04460E46174699464FF0000AFB
:1025600094F83D0020285AD106B117B90120BDE8E2
:10257000F88F00BF94F83C00012801D10220F6E753
:10258000012084F83C0000BF00202064212084F852
:102590003D00FFF731F98246A784E784A068B0F5D3
:1025A000805F04D1206910B90025B04602E03546AD
:1025B0004FF0000800BF002084F83C0000BF1BE083
:1025C0005346002280212046CDF8009000F0C4FB45
:1025D00008B10320CBE745B9B8F80000C0F3080004
:1025E0002168486008F1020803E028782168486003
:1025F0006D1CE08C401EE084E08C0028E0D1534646
:10260000002240212046CDF8009000F0A5FB08B143
:102610000320ACE7202084F83D000020A7E702203B
:10262000A5E700BFFEE7000000B587B000200490DA
:102630000590069000900190029003901D481E495D
:1026400008604FF48030486000211B4881600161C0
:10265000017680F820104FF08051C16249108162EC
:102660000021C1600121C16180F830104161FEF795
:102670006DFC08B1FEF7C2FA062004904FF400404A
:1026800005900020069004A90B48FEF7BBFA08B19C
:10269000FEF7B4FA00200090012001900020029083
:1026A00069460548FEF77CFB08B1FEF7A7FA07B0BC
:1026B00000BD000000200140AC0100201FB500203B
:1026C00000900190029003901348144908604FF461
:1026D000803048600021114881600161017680F8F6
:1026E0002010C1600121C161002180F8301001215A
:1026F0004161FEF72BFC08B1FEF780FA0120009043
:1027000001900020029069460448FEF749FB08B199
:10271000FEF774FA1FBD000000210140F401002003
:1027200008B500BF002000900A48006840F480000F
:10273000084908600846006800F48000009000BF67
:1027400000BF002211463820FFF7E0F83820FFF7DD
:10275000CDF808BD3038024000B587B0142102A87A
:10276000FDF78CFD00BF002001903748006840F065
:102770008000354908600846006800F0800001903C
:1027800000BF00BF00BF002001900846006840F075
:10279000010008600846006800F00100019000BFD9
:1027A00000BF00BF002001900846006840F008000C
:1027B00008600846006800F00800019000BF00BFF4
:1027C00000BF002001900846006840F0400008600B
:1027D0000846006800F04000019000BF00BF00BF45
:1027E000002001900846006840F00200086008469A
:1027F000006800F00200019000BF00BF0122FF212D
:102800001248FEF7F3FF01224FF422411048FEF771
:10281000EDFFFF2002900120039000200490032090
:10282000059002A90948FEF7DFFE4FF4224002900E
:1028300001200390002004900320059002A9044881
:10284000FEF7D2FE07B000BD30380240000C024057
:102850000018024000B587B0002003900490059056
:1028600006900190029014481449086003204860C3
:102870000021124881601421C16000210161816141
:10288000FFF7B0FC08B1FEF7B9F94FF480500390A0
:1028900003A90A48FFF75BFD08B1FEF7AFF9202056
:1028A00001900020029001A90448FFF741FC08B103
:1028B000FEF7A4F907B000BD000400409C02002010
:1028C00010B50B480B4908604FF4E1304860002117
:1028D00008488160C16001610C2141610021816172
:1028E000C161FFF7B8FD08B1FEF788F910BD00001F
:1028F00000100140E402002000BFFEE7FFF7A0F94E
:1029000000BFFEE77047704710B5FEF77BFF10BDB4
:1029100000B593B0302107A8FDF7B0FC142102A840
:10292000FDF7ACFC00BF002001902548006840F096
:102930008050234908600846006800F080500190EC
:1029400000BF00BF00BF002001901E48006840F497
:1029500080401C4908600846006800F480400190EF
:1029600000BF00BF012007900004089002200D90D6
:1029700041050E9104210F91A8211091022111917E
:102980000421129107A8FFF76BF908B1FEF736F999
:102990000F20029002200390002004904FF4A050DA
:1029A00005904FF480500690052102A8FFF702F829
:1029B00008B1FEF723F9FFF7BFF813B000BD000020
:1029C00040380240007000400348006840F4700046
:1029D000014908607047000088ED00E010B502680A
:1029E000294B98420ED0B0F1804F0BD0274B984224
:1029F00008D0274B984205D0264B984202D0264B50
:102A0000984203D122F070024B681A431E4B984241
:102A100020D0B0F1804F1DD01C4B98421AD01C4BD7
:102A2000984217D01B4B984214D01B4B984211D0A0
:102A30001A4B98420ED01A4B98420BD0194B984221
:102A400008D0194B984205D0184B984202D0184B29
:102A5000984203D122F44072CB681A4322F08003DB
:102A60004C6943EA040202608B68C3620B688362AC
:102A7000054B984202D0084B984201D10B69036381
:102A80000123436110BD000000000140000400402C
:102A900000080040000C00400004014000400140DC
:102AA000004401400048014000180040001C004064
:102AB0000020004030B50C46816821F47F4142EA95
:102AC000032525432943816030BD0A46816821F0F2
:102AD000700142F0070319438160704730B50B461F
:102AE0001446026A056A25F001050562816921F034
:102AF000F00141EA041122F00A021A4381610262E4
:102B000030BD30B50B461446056A25F01005056248
:102B10008169026A21F4704141EA043122F0A00285
:102B200042EA03128161026230BD00002DE9F84FD4
:102B300004462068006920F44050E1680843216899
:102B400008612169A068084361690843E169084395
:102B500000902068C06849F20C61884300990843DE
:102B60002168C8602068406920F44070A16908436A
:102B70002168486176492068884203D075492068F9
:102B8000884203D1FEF7F4FF814602E0FEF7E0FF42
:102B90008146E069B0F5004F6CD102206168A0FB6E
:102BA000015003461920A9FB007001462A46384609
:102BB000FDF72CFB6421B0FBF1F04FEA001A022074
:102BC0006168A0FB01510B461920A9FB00712A4640
:102BD0003846FDF71BFB834602206168A0FB0150CD
:102BE00003461920A9FB00712A463846FDF70EFB63
:102BF0006421B0FBF1F000EBC00101EB0010ABEB86
:102C00008000322101EBC0006421B0FBF1F000F044
:102C1000F8000AEB400A02206168A0FB015003465D
:102C20001920A9FB007001462A463846FDF7EEFA46
:102C3000834602206168A0FB015003461920A9FBCE
:102C400000712A463846FDF7E1FA6421B0FBF1F045
:102C500000EBC00101EB0010ABEB8000322101EB77
:102C6000C0006421B0FBF1F000F00700504421687F
:102C700088606AE004206168A0FB015003461920C7
:102C8000A9FB007001462A463846FDF7BFFA824686
:102C900004206168A0FB015003461920A9FB0070C5
:102CA00001462A463846FDF7B1FA6421B0FBF1F03F
:102CB00000EBC00101EB0010AAEB8000322101EB18
:102CC00000106421B0FBF1F000F0F00A042061680C
:102CD000A0FB017003461920A9FB00513A46284683
:102CE000FDF794FA6421B0FBF1F00AEB001A04201E
:102CF0006168A0FB01510B461920A9FB00712A460F
:102D00003846FDF783FA834604206168A0FB015032
:102D100003461920A9FB007001462A463846FDF7F4
:102D200075FA6421B0FBF1F000EBC00101EB00107B
:102D3000ABEB8000322101EB00106421B0FBF1F01D
:102D400000F00F00504421688860BDE8F88F000053
:102D500000100140001401402DE9F04104460D46E9
:102D600017469846069E21E0701CF8B12EB1FEF77A
:102D700043FDA0EB0800B04218D92068C06820F4D9
:102D8000D0702168C8602068406920F00100216887
:102D90004861202084F83D0084F83E0000BF0020F8
:102DA00084F83C0000BF0320BDE8F0812068006883
:102DB0002840A84201D1012000E00020B842D3D031
:102DC0000020F1E700BFFEE70FB4054B10B503A9E3
:102DD000044A029800F068FF10BC5DF814FB000084
:102DE0006D440008A401002003B40198410000983C
:102DF00050EAC12018BF04204A0D18BF40F001005E
:102E000040F2FF72B2EB515F08BF40F002000128B0
:102E100008BF052002B070474100080218BF042017
:102E20000A0E18BF40F001004FF07F4232EA010164
:102E300008BF40F00200012808BF052070470000CD
:102E400002480068C0F30220704700000CED00E06B
:102E500010B5002804DB0A07130E054A135406E0D8
:102E60000A07140E034A00F00F031B1FD45410BDB1
:102E700000E400E018ED00E070B54FF068422DED81
:102E8000048BF0EE408A18EE900AB0EE608A18EEDD
:102E9000101A02EB4003B3F1654F3CBF02EB410255
:102EA000B2F1654F7DD200BFC0F3C753C1F3C75223
:102EB0009A1A1B2A09DD10F0004F14BF9FED830AF8
:102EC0009FED830ABDEC048B70BD12F11A0F36DA48
:102ED00011F0004F09D010F0004F0CBF9FED7D0A9C
:102EE0009FED7D0ABDEC048B70BD88EE889A19EECB
:102EF000100AFFF791FF042808BF00F0F5FD18EE57
:102F0000900AFFF789FF054618EE100AFFF784FFC5
:102F1000044619EE100AFFF77FFF042D18BF052D98
:102F200008D1042C18BF052C04D1002804BF0220AE
:102F300000F0F2FDB0EE490ABDEC048B70BD42001A
:102F4000B2EB410F3AD910F0004F19BFDFED630A21
:102F50009FED630ADFED630A9FED630AB0EE481A46
:102F60000A46B1EE688A80F00041F0EE418A1046D0
:102F70000A1A5200B2F1807F34D2484010F0004F5C
:102F8000DFED5A1A9FED5A2A1DBFBEEE001A70EEF1
:102F9000E10A30EE420AB6EE001A08BF70EEA10A4E
:102FA00000E040E008BF30EE020AB0EE682A01EE11
:102FB000482A08EE818AC2EE081A15E011F0004F87
:102FC00004BF9FED4C0AF0EE400AD1D010F0004F44
:102FD00019BFDFED490A9FED490ADFED490A9FED70
:102FE000490AC5E7C8EE881A21EEA11A9FED462AC4
:102FF000DFED462A41EE022A9FED452A01EE222A04
:10300000DFED442A41EE022A9FED432ABDEC048BFA
:1030100001EE222A21EE811A01EE020A30EE210A87
:1030200030EE200A70BD4FF07F42B2EB400F28BF58
:10303000B2EB410F09D2F0EE480AB0EE680ABDECDF
:10304000048BBDE8704000F04BBD40EA01035B001B
:1030500008BF41F0FF410BD0B2EB400F08BFB2EB0D
:10306000410F08D120F0804008EE900A21F0804105
:1030700008EE101A18E7B2EB400F12BF5FEA4103E7
:1030800040F0FF4001F000413FF40EAFB2EB410FC2
:1030900012BF5FEA400200F0004041F0FF413FF400
:1030A00003AF4A0092EA40033FF5FEAE002AACBFF0
:1030B0009FED1A0A9FED1A0A68EE808A28EE008AB0
:1030C00018EE900A18EE101AEEE60000DB0FC9BFEA
:1030D000DB0FC93FDB0F4940DB0F49C00000C9BF10
:1030E00022AAFDB90000C93F22AAFD390060ED3EC9
:1030F000C30ACE3700000000000049C022AA7DBAF2
:103100000000494022AA7D3A2DAD65BD8FB8D53D5E
:103110000FB511BE61C84C3EA8AAAABE0000804FE0
:103120000000802F0000000010B52F499FED2C1BE0
:103130002DED020B84B0059820F000408842D8BFE6
:103140009DED040B2DDD2949884209D1049840B931
:103150004FF0010000F0E0FC00F0A2FC06B010BD52
:1031600005DB9DED040B00F08FFC06B010BD68463A
:103170009DED040B00F0A0F810F0030004BF9DEDDE
:10318000021B9DED000B0CD001280ED09DED021B03
:103190009DED000B022817D0012000F0DDFB06B0EA
:1031A00010BD00F0A5FA06B010BD9DED021B9DED0F
:1031B000000B012000F0D0FB51EC100B81F000411E
:1031C00006B041EC100B10BD00F092FA51EC100B60
:1031D00081F0004106B041EC100B10BD0000000072
:1031E0000000000000000000FB21E93F0000F07F2C
:1031F00010B52F499FED2C1B2DED020B84B00598C7
:1032000020F000408842DCBF00209DED040B32DD41
:103210002849884209D1049840B94FF0010000F0D4
:103220007BFC00F03DFC06B010BD05DB9DED040B02
:1032300000F02AFC06B010BD68469DED040B00F0BE
:103240003BF810F0030011D0012818D09DED021BAF
:103250009DED000B02281AD000F04AFA51EC100B39
:1032600081F0004106B041EC100B10BD9DED021B3A
:103270009DED000B012000F06FFB06B010BD9DED31
:10328000021B9DED000B00F033FA06B010BD0120CB
:1032900000F062FB51EC100B81F0004106B041ECF4
:1032A000100B10BD00000000000000000000000036
:1032B000FB21E93F0000F07F2DE9F14F04462DEDA1
:1032C000020B2DED088B8AB09FEDE70B80ED020B12
:1032D000139EE74826F0004585420ADC9DED120B5F
:1032E000002084ED000B0AB0BDEC088B03B0BDE8F4
:1032F000F08FE0489FEDE0AB9FEDE1BBA84247DDDA
:10330000E14F9FEDE39B9FEDE48B9DED120B53ECA2
:103310001A2B51EC100B002E1CDDFDF7DEF941ECF1
:10332000100BBD4208D053EC1B2B51EC100BFDF7DA
:10333000D4F9C4E900010BE053EC192B51EC100B4C
:10334000FDF7CBF953EC182BFDF7C7F9C4E90001E1
:103350000120C8E7FDF720F941EC100BBD4208D071
:1033600053EC1B2B51EC100BFDF716F9C4E90001CF
:103370000BE053EC192B51EC100BFDF70DF953EC4E
:10338000182BFDF709F9C4E900014FF0FF30AAE757
:10339000C348A84279DB9DED120B51EC100B01F0F4
:1033A00059F841EC180B9FEDC00B53EC102BFCF7B8
:1033B00070FF9FEDBF1B53EC112BFDF7EDF8FCF7F1
:1033C000F0FF0746FDF752FA41EC190B53EC1A2BAC
:1033D000FCF75FFF53EC182BFDF782F941EC180B5B
:1033E00053EC1B2B51EC190BFCF753FFDFF8C8A271
:1033F00041EC100B4FEA15580125FA4453EC102B01
:1034000051EC180BFDF769F9032DC4E900013DD01B
:10341000C1F30A5005EB4511A8EB000011398142B8
:1034200034DA0AEB051BB0EE48AA9BED000BF0EE78
:1034300068AA53EC102B51EC190BFCF72AFF41EC56
:103440001B0B51EC1A0B53EC1B2BFDF746F941EC0F
:10345000180B51EC1A0B53EC182BFDF73EF953ECFB
:103460001B2BFDF73AF99BED020B41EC1A0B53ECC9
:10347000102B51EC190BFCF70CFF53EC1A2BFDF73A
:103480002CF941EC100B6D1CB8E70EE0002EA8BF24
:103490003846BFF628AF94ED000B51EC100B81F0CD
:1034A0000041C4E9000178421DE7C6F3130040F46F
:1034B000801EC6F30A50A0F2F530471100F01F0538
:1034C000C5F12000DDF848B0089000200690079074
:1034D0000520EC467949002D07EB0002794408BF2E
:1034E00051F8221009D051F8223001EB8201AB4093
:1034F0004A68089922FA01F11943A1FB0E26A1FBA3
:103500000B131A449A4234BF0123002303EB06082D
:103510000CEB8003D3E901A60E448E4234BF012197
:10352000002192448A4411B1924502D903E09245A8
:1035300001D2012100E00021C3E901A641444CF879
:103540002010011EA0F10100C4DC029800F100501F
:10355000850F0298DDE903678000DDF81480FDF730
:1035600085F941EC1A0B3046FDF791F99FED541B9C
:1035700053EC112BFCF78DFE41EC1B0B3846FDF78D
:1035800086F99FED511B53EC112BFCF782FE41ECA9
:10359000180B4046FDF77BF99FED4D1B53EC112BAB
:1035A000FCF777FE41EC190B51EC180B53EC192B7F
:1035B000FCF7F2FF53EC1B2BFCF7EEFF53EC1A2B3E
:1035C000FCF7EAFFCDE90801002008909DED080B0B
:1035D00053EC1A2B51EC100BFDF77FF853EC1B2B1F
:1035E000FDF77BF853EC182BFDF777F853EC192B0C
:1035F000FDF776F89FED381B53EC112BFCF749FED5
:103600009FED370B41EC180B53EC102B9DED080B85
:1036100051EC100BFCF73DFE53EC182BFCF7BCFFF4
:103620009FED310B41EC180B53EC102B9DED080B6B
:1036300051EC100BFCF72DFE53EC182BFCF7ACFFF4
:1036400041EC100B139810F0004F06D06D4251EC76
:10365000100B81F0004141EC100B284684ED000B6B
:1036600041E6000000000000000000000000000033
:10367000FB21E93F7CD9024000004054FB21F93F87
:103680003163621A61B4D03DFB21F93F00000000B4
:103690000000601A61B4D03D7370032E8A19A33BF9
:1036A000FB2139410000000083C8C96D305FE43F51
:1036B000000000000000E03FBA1300000813000003
:1036C000000000000000103E000000000000103C60
:1036D000000000000000103A182D4454FB21F93D71
:1036E0003326A611460B113C00000054FB21F93D86
:1036F00010B52DED040B2DED088B82B0B0EE419A84
:10370000F0EE619A0B9820F000449FED4BABB4F1C2
:10371000795F11DA9DED0A0B51EC100BFCF741FEBD
:10372000002801BFB0EE4A0AF0EE6A0A02B0BDEC12
:10373000088B04BF04B010BD9DED0A0B53EC102B99
:1037400051EC100BFCF7A5FD41EC180B3C48062191
:10375000B0EE480AF0EE680A784400F081F853ECC5
:10376000182B51EC100BFCF794FD9DED0A0B41EC6E
:103770001B0B53EC192B51EC100BFCF78AFD41ECA1
:10378000190B53EC1B2B51EC180BFCF782FD53EC7F
:10379000192BFCF7A2FF9FED2C0B41EC190B53ECFE
:1037A000102B51EC180BFCF774FD41EC100B284862
:1037B000844210DA53EC192B51EC100BFCF78DFFFF
:1037C00053EC1A2BFCF78CFF41EC100B02B0BDEC54
:1037D000088B04B010BD1F48A042BCBF9FED1E1B4C
:1037E0008DED001B06DBA4F5001001900020009079
:1037F0009DED001B51EC100B53EC112BFCF76DFFF2
:103800009DED000B41EC180B53EC102B51EC1A0BF7
:10381000FCF763FF41EC1A0B53EC192B51EC180B1E
:10382000FCF75BFF53EC1A2BFCF75AFF41EC100B33
:10383000CCE7000000000000000000000000F03FA6
:103840002C10000000000000000000000000E03F1D
:103850003333D33F0000E93F000000000000D23FB7
:1038600070B504462DED028B4D1E00EBC500B0EE89
:10387000408AF0EE608A90ED000B35F0060017D01C
:1038800053EC182B51EC100BFCF703FD41EC100B23
:103890006D1E04EBC50090ED001B51EC100B53ECBA
:1038A000112BFCF779FE41EC100B35F00600E7D147
:1038B000022D36D0042D1CD0062D1CBFBDEC028B72
:1038C00070BD53EC182B51EC100BFCF7E2FC94ED9F
:1038D0000A1B53EC112BFCF75FFE53EC182BFCF783
:1038E000D8FC94ED081B53EC112BFCF755FE41EC72
:1038F000100B53EC182B51EC100BFCF7CAFC94ED99
:10390000061B53EC112BFCF747FE53EC182BFCF76E
:10391000C0FC94ED040B53EC102BFCF73DFE41EC86
:10392000100B53EC182B51EC100BFCF7B2FC94ED80
:10393000021B53EC112BFCF72FFE53EC182BFCF75A
:10394000A8FC94ED001B53EC112BFCF725FEBDECFD
:10395000028B41EC100B70BD31B504462DED040B0C
:103960002DED0A8BB0EE41BAF0EE61BA0B989DEDE9
:103970000A0B20F00040B0F1795F0DDA51EC100B2A
:10398000FFF732FA042808BF00F09AF89DED0A0B01
:10399000BDEC0A8B05B030BD53EC102B51EC100B75
:1039A000FCF777FC41EC180B9DED0A0B53EC182B40
:1039B00051EC100BFCF76DFC41EC190B2C48B0EEF0
:1039C000480AF0EE680A05217844FFF749FF9FEDA9
:1039D0002ACBB0EE40AAF0EE60AA9CB353EC1C2BAD
:1039E00051EC190BFCF755FC41EC1C0B53EC1A2B5A
:1039F00051EC190BFCF74DFC9FED210B41EC190B21
:103A000053EC102B51EC1B0BFCF743FC53EC192B24
:103A1000FCF763FE53EC182BFCF73BFC53EC1B2B21
:103A2000FCF75BFE53EC1C2BFCF757FE9DED0A1BCD
:103A300053EC112BFCF754FEBDEC0A8B05B041ECA6
:103A4000100B30BDFFE753EC1A2B51EC180BFCF7B1
:103A500020FC53EC1C2BFCF79FFD53EC192BFCF7BF
:103A600018FC9DED0A1B53EC112BFCF795FDE3E7C9
:103A7000B40E000000000000495555555555C5BF0E
:103A8000000000000000E03F10B553EC102B51EC9B
:103A9000100BFCF781FD41EC100B10BD0000000085
:103AA0009FED050B10B553EC102B51EC100BFCF7F0
:103AB0001AFE41EC100B10BD0000000000000000D9
:103AC0009FED050B10B553EC102B51EC100BFCF7D0
:103AD000E0FB41EC100B10BD0000000000000010E6
:103AE00030EE200A704700009FED020A20EE000A27
:103AF000704700000000001002E008C8121F08C153
:103B0000002AFAD170477047002001E001C1121F5E
:103B1000002AFBD17047000001490860704700008F
:103B2000A80100202DE9FF5F82B00021DDE904300B
:103B3000020DDDF840B0034318D044F61050A2F255
:103B4000FF3242431514119801281FD0A5EB0B003A
:103B5000401C5FEA000A4FF000064E4FDFF8389134
:103B6000B046504615D5CAF1000413E0119801245F
:103B70004AA3012801D16FEA0B010298119AC0E90A
:103B80000031C0E9024206B0BDE8F09FCBF1000071
:103B9000DFE704460021404A491842EB0450CDE9D2
:103BA000001012E0E00707D032463B464046494647
:103BB000FCF76FFB8046894632463B461046194665
:103BC000FCF767FB06460F466410002CEAD1DDE9DE
:103BD0000401DDE90023BAF1000F06DAFCF759FB16
:103BE00042464B46FCF755FB05E0FCF77CFD4246A0
:103BF0004B46FCF778FD04460E460022284BFCF7A6
:103C0000F9FD03D84FF0FF30014607E00022254BB5
:103C100020463146FCF7C0FCFCF7D4FD102409E037
:103C2000002C0ADB0A220023FCF7F0FA039B303257
:103C30001A55641E50EA0102F2D1641C039AC4F1C1
:103C400011031444119A012A03D0012208430DD113
:103C50000AE0084304D000204FF0110B119072E7E6
:103C6000A3EB0B056D1E0DE05B4504DD4FF000027C
:103C700005F1010504E003DA4FF00002A5F10105AA
:103C8000002AECD002981199C0E90231C0E9004540
:103C900079E70000000014400000F03F3000000011
:103CA0000000F0430000E03F2DE9FF4F95B09A4639
:103CB000884606460025EEE1252877D100242746D0
:103CC000F94A0121039400E0044316F8013F203B28
:103CD00001FA03F01042F7D130782A2811D06FF0A2
:103CE0002F033078A0F13002092A16D8039A44F045
:103CF000020402EB820203EB42021044761C0390A2
:103D0000EFE758F8042B0392002A03DA504244F4F8
:103D10000054039044F00204761C30782E2816D10B
:103D200016F8010F44F004042A280DD06FF02F027A
:103D30003078A0F13003092B09D807EB870302EB99
:103D40004303C718761CF3E758F8047B761C3078D9
:103D50006C280FD006DC4C2817D068280DD06A28B4
:103D600014D104E0742810D07A280FD10DE044F467
:103D700000140AE044F4801401E044F44014727822
:103D8000824202D104F58014761C761C30786628B5
:103D90000BD013DC582877D009DC002875D04528D3
:103DA000F6D04628F4D047281AD193E118E06328CA
:103DB00035D0642879D0652812D18BE1702873D072
:103DC00008DC6728F1D069286FD06E280DD06F28E5
:103DD00006D1ACE073282CD0752874D0782853D045
:103DE0005246179990476D1C54E1C4F302500228C3
:103DF00009D003280DD0D8F8001004280DD00D608C
:103E000008F1040846E1D8F80010EA17C1E90052A9
:103E1000F6E7D8F800100D80F2E70D70F0E718F81B
:103E2000041B8DF8001000208DF80100EB460120E6
:103E300003E058F804BB4FF0FF3061074FF000017A
:103E400002D40DE009F101018946B9420FDA81453A
:103E5000F8DB1BF809100029F4D108E009F1010191
:103E600089468142FADB1BF809100029F6D1039834
:103E70005346A0EB090721463846179A00F080FA0E
:103E8000284400EB090507E044E008E10DE01BF8D9
:103E9000010B524617999047B9F10109F7D25346E1
:103EA00021463846179AF2E039E00A21C4F302525B
:103EB0004FF0000B0091022A06D058F8040BC117EE
:103EC000032A09D00AE023E008F1070020F00702E6
:103ED000F2E80201904605E000B2C117042A01D1C0
:103EE00040B2C117002906DA0A460021404261EBC0
:103EF00002012D2202E0220504D52B228DF8042098
:103F0000012203E0E20701D02022F7E7914657E0C3
:103F10000A2100E010214FF0000B00910BE010216E
:103F20004FF0000B44F004040827009103E0082040
:103F30004FF0000B0090C4F30252022A05D058F84B
:103F4000040B0021032A08D008E008F1070020F044
:103F50000702F2E80201904603E080B2042A00D191
:103F6000C0B24FF0000922072AD53278702A07D054
:103F7000DDF800C08CF0100C5CEA0B0C05D00EE0F4
:103F800040228DF80420012208E050EA010306D007
:103F900030238DF804308DF8052002229146009BD5
:103FA00083F0080353EA0B030AD150EA010201D15E
:103FB000620705D530228DF804204FF001097F1EDD
:103FC0003278582A04D039A20C920CAA02920BE043
:103FD0003BA2F9E75B46009AFCF718F90C9B9B5C47
:103FE000029A521E0292137050EA0102F2D1029814
:103FF00004A9081A00F1200B600702D524F48034CC
:1040000000E001275F4502DDA7EB0B0000E0002088
:1040100000EB0B01009003984944401A0390E00321
:1040200006D453462146179A039800F0A9F905448F
:10403000002706E001A85246C05D179990476D1C05
:104040007F1C4F45F6DBE0030CD553462146179AFB
:10405000039800F095F9054404E030205246179982
:1040600090476D1C0099481E00900029F5DC08E07F
:104070000298029952460078491C0291179990477C
:104080006D1CBBF10001ABF1010BF1DC5BE100F059
:1040900065F90544761C307800287FF40DAE19B020
:1040A0002846BDE8F08F0000092801003031323386
:1040B0003435363738396162636465660000000064
:1040C000303132333435363738394142434445464E
:1040D00000000000600700D4062708F1070020F068
:1040E0000700F0E80223804603F0004C5FEA0C0072
:1040F00001D097A009E0200501D596A005E0E007D2
:1041000001D095A001E0AFF24C001390307823F07D
:10411000004365280CD006DC452809D046281DD070
:1041200047287FD13BE0662818D067287AD136E04F
:104130000021112F01DB112000E0781CCDE90001E6
:1041400004A90CA8FFF7EEFCDDE90D010C9A4FF075
:10415000000B07F10109109200914EE04FF0004072
:104160000097CDE9011004A90CA8FFF7DBFCDDE9FD
:104170000D020C9B0F994FF0000B9146109300928B
:1041800011B9791C00EB0109B7EB090003D4C0F1A8
:10419000FF3B07F10109A9EB0700019042E0012F65
:1041A00000DA01270021112F01DD112000E038463F
:1041B000CDE9000104A90CA8FFF7B4FCDDE90D016D
:1041C0000C9A00914FF0000BB946109221070FD4C2
:1041D000009A4A4503DA914601E0A9F10109B9F1D3
:1041E000010F05DD109AA9F10101515C3029F4D0CD
:1041F000B84202DA10F1040F03DA0121CDE901100F
:1042000010E0002803DC8344A9EB000102E0411C1C
:10421000494500DD8946A0EB0B00401C01904FF0A2
:1042200000400290200705D40198484502DB4FF07A
:10423000FF30019000208DF84B0002980DF14B07E4
:10424000B0F1004F25D002200C902B200D90029849
:1042500000280CDA404202902D200D9007E00A2140
:104260000298FCF7D0F83031029007F8011D0C9944
:10427000481E0C900029F2DC02980028EFD1791E2C
:104280000D980870307800F0200040F0450007F8E5
:10429000020D11A8C01BC01D02901398007800B138
:1042A000012000EB0901019801EBE0710298014443
:1042B0000398401A401E0390E00306D4534621465B
:1042C000179A039800F05CF805441398007818B129
:1042D0005246179990476D1CE00323D5534621465B
:1042E000179A039800F04CF805441BE0BBF1000F4F
:1042F00007DB0098584504DD1098179910F80B005B
:1043000001E0179930205246904701980BF1010BBC
:10431000401E05F10105019004D12E205246179947
:1043200090476D1CB9F10001A9F10109DEDC05E03F
:1043300017F8010B5246179990476D1C0299481EB9
:1043400002900029F4DC53462146179A03989EE612
:104350002D0000002B000000200000002DE9F0419E
:10436000044600251E461746880404D405E0394655
:104370002020B0476D1C641EF9D52846BDE8F081A9
:104380002DE9F041044600251E469046C80301D59C
:10439000302700E02027880404D505E04146384650
:1043A000B0476D1C641EF9D52846BDE8F0810000B9
:1043B00010B500224FF400410A48FDF717FA002219
:1043C0004FF400510748FDF711FA01225102054848
:1043D000FDF70CFA00224FF400710248FDF706FACF
:1043E00010BD00000018024010B50246174B1A60BD
:1043F0004FF40043164C23601B042360080E134B3C
:1044000018604FF4004323601B042360C1F307408E
:104410000E4B18604FF4004323601B042360C1F36C
:1044200007200A4B18604FF4004323601B042360ED
:10443000C8B2064B18604FF4004323601B0423608E
:104440009B0C23601B04236010BD0000140C024071
:104450001818024082B0CDE9000121F0004001901F
:104460009DED000B02B051EC100B704738B50446BF
:104470000D46E0B200900223012269460248FEF791
:1044800067F8002038BD0000E40200202DED068B07
:10449000ADF53D5DFDF7C2F9FEF73AFAFEF75CF9BE
:1044A000FEF73EF9FEF7C0F8FEF708F9FEF7D2F97D
:1044B000FEF706FA1D2500246F48FCF70FFE40F2B8
:1044C000ED320DF6EC716D48FCF7CCFBFFF770FF99
:1044D0006B4850F825100020FFF786FF6948FDF76C
:1044E000CFFE01206849086000BF69E000EE105A65
:1044F000B8EE400ADFED650A60EE200A00EE104AD1
:10450000B8EE400A20EE800ADFED610A80EE201A44
:1045100011EE106A3046FBF763FF41EC1A0BB0EE68
:104520004A0AF0EE6A0AFEF7FFFDB0EE409AF0EE9E
:10453000609A9FED580B53EC102B51EC190BFBF7C5
:10454000A8FE41EC180BFBF72CFF01B242F270728F
:104550006A4422F8141000EE105AB8EE400ADFED5B
:104560004B0A60EE200A00EE104AB8EE400A20EE38
:10457000800ADFED470A80EE201A11EE106A3046FD
:10458000FBF72EFF41EC1A0BB0EE4A0AF0EE6A0A76
:10459000FEF72EFEB0EE409AF0EE609A9FED3D0BD6
:1045A00053EC102B51EC190BFBF773FE41EC180B7D
:1045B000FBF7F7FE01B20DF5FD5222F81410641C52
:1045C000B4F57A7F92D300BF2F4800680028FBD152
:1045D000002414E00DF6EC71601D31F8200000B2EB
:1045E0000DF61C0121F814000DF6EC71601D51F858
:1045F0002000000C00B213A921F81400641CB4F5CB
:104600007A7FE7D30FA84FF47A730DF61C020DF5ED
:10461000FD51009001F5FA6000F048F80BA84FF446
:104620007A7313AA0DF5FD51009001F5FA6000F0C0
:104630003DF89DED110A10EE101A0846FBF7D0FE6A
:1046400041EC180B53EC182B14A0FEF7BDFB9DEDAD
:10465000120ADDED0E0A30EE600A10EE101A08465E
:10466000FBF7BEFE41EC180B53EC182B0DA0FEF728
:10467000ABFB00BFFEE70000F4010020AC0100200E
:10468000000000209C02002090010020C3F5C840DB
:1046900000007A4400000000C0FFDF40252E336692
:1046A0000D0A0000252E31660D0A00002DE9FC419F
:1046B0000546884616461F46089C6B463A462946DC
:1046C0003046FBF77FFDDDE90001FBF754FE00EE0D
:1046D000100ADFED220A20EE200A84ED000A6B4664
:1046E0003A4641463046FBF76DFDDDE90001FBF738
:1046F00042FE00EE100ADFED190A20EE200A84EDDA
:10470000010AD4ED000A60EEA00A94ED011AD4ED7E
:10471000011AB0EE600A01EE210AB5EEC00AF1EE10
:1047200010FA04DBF1EEC00AC4ED020A04E0DFED8A
:104730000C0AC4ED020A00BF94ED001AF0EE410A23
:1047400094ED011AB0EE410AFEF796FBDFED050A83
:1047500020EE200A84ED030ABDE8FC81000000324F
:1047600000000000E62E6542000610160006101636
:104770000000000000000000010203040607080911
:1047800000000000010203044C5555555555A53F46
:104790007751C1166CC156BF9015CB19A001FA3ED6
:1047A000AD529C804F7E92BEC4B1B4BD9EEE213E00
:1047B000D43888BEE9FAA8BD00004054FB21F93F77
:1047C0003163621A61B4D03D0000601A61B4D03D1B
:1047D0007370032E8A19A33B0000002E8A19A33B95
:1047E000C14920259A837B390000000000000000A9
:1047F0006E83F9A22915444ED15727FCC0DD34F54C
:10480000999562DB4190433CAB6351FE61C5BBDED1
:104810003A6E24B7E0D24D42EA2E49061C92D109E5
:104820001CEB1DFE3EA729B1F53582E88444BB2E62
:1048300026709CE9417E5FB439D69139F4395383AF
:104840008B5F849C3B28F9BDFF97F81F0F9805DE0E
:104850008B112FEF1F6D0A5ACF7E366DB709CB270C
:10486000663F464F2DEA5F9EC7BA27757BF1E5EBA1
:10487000F739073DEA92528AB15FFB6B085D8D1FE5
:10488000A6F810111111813FD561C119A0012ABFED
:104890007DFEB157E31DC73EEB9C2B8AE6E55ABE71
:1048A0007CD5CF5A3AD9E53DC84800080000002021
:1048B000AC010000A8080008604A0008AC01002014
:1048C0007C410000083B00083338862C6F0C010047
:1048D000A7920100DF18022C179F02004E2503004B
:1048E00086AB032CBE310400F6B704002D3E052C28
:1048F00065C405009D4A0600D5D0062C0C5707005C
:1049000044DD07007C63082CB4E90800EB6F090064
:1049100023F6092C5B7C0A0093020B00CA880B2C3F
:10492000020F0C003A950C00711B0D2CA9A10D0073
:10493000E1270E0019AE0E2C50340F0088BA0F007C
:10494000C040102CF8C610002F4D110067D3112C59
:104950009F591200D7DF12000E66132C46EC13008D
:104960007E721400B6F8142CED7E15002505160095
:104970005D8B162C94111700CC971700041E182C71
:104980003CA41800732A1900ABB0192CE3361A00A6
:104990001BBD1A0052431B2C8AC91B00C24F1C00AE
:1049A000FAD51C2C315C1D0069E21D00A1681E2C8B
:1049B000D9EE1E0010751F0048FB1F2C80812000BF
:1049C000B8072100EF8D212C271422005F9A2200C6
:1049D0009620232CCEA62300062D24003EB3242CA3
:1049E00075392500ADBF2500E545262C1DCC2600D8
:1049F000545227008CD8272CC45E2800FCE42800E1
:104A0000336B292C6BF12900A3772A00DBFD2A2CBC
:104A100012842B004A0A2C0082902C2CB9162D00EF
:104A2000F19C2D0029232E2C61A92E00982F2F00F8
:104A3000D0B52F2C083C300040C230007748312CD4
:104A4000AFCE3100E75432001FDB32AC5661330089
:104A50008EE73300C66D3442105201A324F40000E7
:040000050800018965
:00000001FF
