Component: ARM Compiler 5.06 update 7 (build 960) Tool: armlink [4d3601]

==============================================================================

Section Cross References

    startup_stm32f407xx.o(RESET) refers to startup_stm32f407xx.o(STACK) for __initial_sp
    startup_stm32f407xx.o(RESET) refers to startup_stm32f407xx.o(.text) for Reset_Handler
    startup_stm32f407xx.o(RESET) refers to stm32f4xx_it.o(i.NMI_Handler) for NMI_Handler
    startup_stm32f407xx.o(RESET) refers to stm32f4xx_it.o(i.HardFault_Handler) for HardFault_Handler
    startup_stm32f407xx.o(RESET) refers to stm32f4xx_it.o(i.MemManage_Handler) for MemManage_Handler
    startup_stm32f407xx.o(RESET) refers to stm32f4xx_it.o(i.BusFault_Handler) for BusFault_Handler
    startup_stm32f407xx.o(RESET) refers to stm32f4xx_it.o(i.UsageFault_Handler) for UsageFault_Handler
    startup_stm32f407xx.o(RESET) refers to stm32f4xx_it.o(i.SVC_Handler) for SVC_Handler
    startup_stm32f407xx.o(RESET) refers to stm32f4xx_it.o(i.DebugMon_Handler) for DebugMon_Handler
    startup_stm32f407xx.o(RESET) refers to stm32f4xx_it.o(i.PendSV_Handler) for PendSV_Handler
    startup_stm32f407xx.o(RESET) refers to stm32f4xx_it.o(i.SysTick_Handler) for SysTick_Handler
    startup_stm32f407xx.o(RESET) refers to stm32f4xx_it.o(i.DMA2_Stream0_IRQHandler) for DMA2_Stream0_IRQHandler
    startup_stm32f407xx.o(.text) refers to system_stm32f4xx.o(i.SystemInit) for SystemInit
    startup_stm32f407xx.o(.text) refers to entry.o(.ARM.Collect$$$$00000000) for __main
    my_dsp.o(i.my_dsp_dft_q15) refers to arm_dot_prod_q15.o(.text) for arm_dot_prod_q15
    my_dsp.o(i.my_dsp_dft_q15) refers to ffltl.o(.text) for __aeabi_l2f
    my_dsp.o(i.my_dsp_dft_q15) refers to atan2f.o(i.__hardfp_atan2f) for __hardfp_atan2f
    ad9850.o(i.ad9850_reset) refers to stm32f4xx_hal_gpio.o(i.HAL_GPIO_WritePin) for HAL_GPIO_WritePin
==============================================================================

Removing Unused input sections from the image.

    Removing startup_stm32f407xx.o(HEAP), (8192 bytes).
    Removing my_dsp.o(.rev16_text), (4 bytes).
    Removing my_dsp.o(.revsh_text), (4 bytes).
    Removing my_dsp.o(.rrx_text), (6 bytes).
    Removing ad9850.o(.rev16_text), (4 bytes).
    Removing ad9850.o(.revsh_text), (4 bytes).
    Removing ad9850.o(.rrx_text), (6 bytes).
    Removing ad9850.o(i.ad9850_reset_serial), (124 bytes).
    Removing ad9850.o(i.ad9850_wr_serial), (356 bytes).
    Removing main.o(.rev16_text), (4 bytes).
    Removing main.o(.revsh_text), (4 bytes).
    Removing main.o(.rrx_text), (6 bytes).
    Removing gpio.o(.rev16_text), (4 bytes).
    Removing gpio.o(.revsh_text), (4 bytes).
    Removing gpio.o(.rrx_text), (6 bytes).
    Removing adc.o(.rev16_text), (4 bytes).
    Removing adc.o(.revsh_text), (4 bytes).
    Removing adc.o(.rrx_text), (6 bytes).
==============================================================================

Image Symbol Table

    Local Symbols

    Symbol Name                              Value     Ov Type        Size  Object(Section)

    ../Core/Src/adc.c                        0x00000000   Number         0  adc.o ABSOLUTE
    ../Core/Src/dma.c                        0x00000000   Number         0  dma.o ABSOLUTE
    ../Core/Src/gpio.c                       0x00000000   Number         0  gpio.o ABSOLUTE
    ../Core/Src/main.c                       0x00000000   Number         0  main.o ABSOLUTE
    ../Core/Src/stm32f4xx_hal_msp.c          0x00000000   Number         0  stm32f4xx_hal_msp.o ABSOLUTE
    ../Core/Src/stm32f4xx_it.c               0x00000000   Number         0  stm32f4xx_it.o ABSOLUTE
    ../Core/Src/system_stm32f4xx.c           0x00000000   Number         0  system_stm32f4xx.o ABSOLUTE
    ../Core/Src/tim.c                        0x00000000   Number         0  tim.o ABSOLUTE
    ../Core/Src/usart.c                      0x00000000   Number         0  usart.o ABSOLUTE
    ../Drivers/STM32F4xx_HAL_Driver/Src/stm32f4xx_hal.c 0x00000000   Number         0  stm32f4xx_hal.o ABSOLUTE
    ../Drivers/STM32F4xx_HAL_Driver/Src/stm32f4xx_hal_adc.c 0x00000000   Number         0  stm32f4xx_hal_adc.o ABSOLUTE
    ../Drivers/STM32F4xx_HAL_Driver/Src/stm32f4xx_hal_adc_ex.c 0x00000000   Number         0  stm32f4xx_hal_adc_ex.o ABSOLUTE
    ../Drivers/STM32F4xx_HAL_Driver/Src/stm32f4xx_hal_cortex.c 0x00000000   Number         0  stm32f4xx_hal_cortex.o ABSOLUTE
    ../Drivers/STM32F4xx_HAL_Driver/Src/stm32f4xx_hal_dma.c 0x00000000   Number         0  stm32f4xx_hal_dma.o ABSOLUTE
    ../Drivers/STM32F4xx_HAL_Driver/Src/stm32f4xx_hal_dma_ex.c 0x00000000   Number         0  stm32f4xx_hal_dma_ex.o ABSOLUTE
    ../Drivers/STM32F4xx_HAL_Driver/Src/stm32f4xx_hal_exti.c 0x00000000   Number         0  stm32f4xx_hal_exti.o ABSOLUTE
    ../Drivers/STM32F4xx_HAL_Driver/Src/stm32f4xx_hal_flash.c 0x00000000   Number         0  stm32f4xx_hal_flash.o ABSOLUTE
    ../Drivers/STM32F4xx_HAL_Driver/Src/stm32f4xx_hal_flash_ex.c 0x00000000   Number         0  stm32f4xx_hal_flash_ex.o ABSOLUTE
    ../Drivers/STM32F4xx_HAL_Driver/Src/stm32f4xx_hal_flash_ramfunc.c 0x00000000   Number         0  stm32f4xx_hal_flash_ramfunc.o ABSOLUTE
    ../Drivers/STM32F4xx_HAL_Driver/Src/stm32f4xx_hal_gpio.c 0x00000000   Number         0  stm32f4xx_hal_gpio.o ABSOLUTE
    ../Drivers/STM32F4xx_HAL_Driver/Src/stm32f4xx_hal_pwr.c 0x00000000   Number         0  stm32f4xx_hal_pwr.o ABSOLUTE
    ../Drivers/STM32F4xx_HAL_Driver/Src/stm32f4xx_hal_pwr_ex.c 0x00000000   Number         0  stm32f4xx_hal_pwr_ex.o ABSOLUTE
    ../Drivers/STM32F4xx_HAL_Driver/Src/stm32f4xx_hal_rcc.c 0x00000000   Number         0  stm32f4xx_hal_rcc.o ABSOLUTE
    ../Drivers/STM32F4xx_HAL_Driver/Src/stm32f4xx_hal_rcc_ex.c 0x00000000   Number         0  stm32f4xx_hal_rcc_ex.o ABSOLUTE
    ../Drivers/STM32F4xx_HAL_Driver/Src/stm32f4xx_hal_tim.c 0x00000000   Number         0  stm32f4xx_hal_tim.o ABSOLUTE
    ../Drivers/STM32F4xx_HAL_Driver/Src/stm32f4xx_hal_tim_ex.c 0x00000000   Number         0  stm32f4xx_hal_tim_ex.o ABSOLUTE
    ../Drivers/STM32F4xx_HAL_Driver/Src/stm32f4xx_hal_uart.c 0x00000000   Number         0  stm32f4xx_hal_uart.o ABSOLUTE
    ../Drivers/STM32F4xx_HAL_Driver/Src/stm32f4xx_ll_adc.c 0x00000000   Number         0  stm32f4xx_ll_adc.o ABSOLUTE
    ../clib/../cmprslib/zerorunl.c           0x00000000   Number         0  __dczerorl.o ABSOLUTE
    ../clib/microlib/division.c              0x00000000   Number         0  uldiv.o ABSOLUTE
    ../clib/microlib/division.c              0x00000000   Number         0  uidiv.o ABSOLUTE
    ../clib/microlib/errno.c                 0x00000000   Number         0  errno.o ABSOLUTE
    ../clib/microlib/init/entry.s            0x00000000   Number         0  entry12a.o ABSOLUTE
    ../clib/microlib/init/entry.s            0x00000000   Number         0  entry11b.o ABSOLUTE
    ../clib/microlib/init/entry.s            0x00000000   Number         0  entry.o ABSOLUTE
    ../clib/microlib/init/entry.s            0x00000000   Number         0  entry11a.o ABSOLUTE
    ../clib/microlib/init/entry.s            0x00000000   Number         0  entry10b.o ABSOLUTE
    ../clib/microlib/init/entry.s            0x00000000   Number         0  entry7b.o ABSOLUTE
    ../clib/microlib/init/entry.s            0x00000000   Number         0  entry10a.o ABSOLUTE
    ../clib/microlib/init/entry.s            0x00000000   Number         0  entry9b.o ABSOLUTE
    ../clib/microlib/init/entry.s            0x00000000   Number         0  entry8b.o ABSOLUTE
    ../clib/microlib/init/entry.s            0x00000000   Number         0  entry8a.o ABSOLUTE
    ../clib/microlib/init/entry.s            0x00000000   Number         0  entry9a.o ABSOLUTE
    ../clib/microlib/init/entry.s            0x00000000   Number         0  entry7a.o ABSOLUTE
    ../clib/microlib/init/entry.s            0x00000000   Number         0  entry5.o ABSOLUTE
    ../clib/microlib/init/entry.s            0x00000000   Number         0  entry12b.o ABSOLUTE
    ../clib/microlib/init/entry.s            0x00000000   Number         0  entry2.o ABSOLUTE
    ../clib/microlib/longlong.c              0x00000000   Number         0  llsshr.o ABSOLUTE
    ../clib/microlib/longlong.c              0x00000000   Number         0  llushr.o ABSOLUTE
    ../clib/microlib/longlong.c              0x00000000   Number         0  llshl.o ABSOLUTE
    ../clib/microlib/printf/printf.c         0x00000000   Number         0  printf1.o ABSOLUTE
    ../clib/microlib/printf/printf.c         0x00000000   Number         0  printf0.o ABSOLUTE
    ../clib/microlib/printf/printf.c         0x00000000   Number         0  printfb.o ABSOLUTE
    ../clib/microlib/printf/printf.c         0x00000000   Number         0  printf7.o ABSOLUTE
    ../clib/microlib/printf/printf.c         0x00000000   Number         0  printf2.o ABSOLUTE
    ../clib/microlib/printf/printf.c         0x00000000   Number         0  printf8.o ABSOLUTE
    ../clib/microlib/printf/printf.c         0x00000000   Number         0  printf5.o ABSOLUTE
    ../clib/microlib/printf/printf.c         0x00000000   Number         0  printfa.o ABSOLUTE
    ../clib/microlib/printf/printf.c         0x00000000   Number         0  printf6.o ABSOLUTE
    ../clib/microlib/printf/printf.c         0x00000000   Number         0  printf4.o ABSOLUTE
    ../clib/microlib/printf/printf.c         0x00000000   Number         0  printf3.o ABSOLUTE
    ../clib/microlib/printf/stubs.s          0x00000000   Number         0  stubs.o ABSOLUTE
    ../clib/microlib/stdio/streams.c         0x00000000   Number         0  stdout.o ABSOLUTE
    ../clib/microlib/string/memset.c         0x00000000   Number         0  memseta.o ABSOLUTE
    ../clib/microlib/stubs.s                 0x00000000   Number         0  iusefp.o ABSOLUTE
    ../fplib/microlib/f2d.c                  0x00000000   Number         0  f2d.o ABSOLUTE
    ../fplib/microlib/fpadd.c                0x00000000   Number         0  dadd.o ABSOLUTE
    ../fplib/microlib/fpdiv.c                0x00000000   Number         0  ddiv.o ABSOLUTE
    ../fplib/microlib/fpepilogue.c           0x00000000   Number         0  depilogue.o ABSOLUTE
    ../fplib/microlib/fpepilogue.c           0x00000000   Number         0  fepilogue.o ABSOLUTE
    ../fplib/microlib/fpfix.c                0x00000000   Number         0  dfixi.o ABSOLUTE
    ../fplib/microlib/fpfix.c                0x00000000   Number         0  dfixul.o ABSOLUTE
    ../fplib/microlib/fpflt.c                0x00000000   Number         0  ffltl.o ABSOLUTE
    ../fplib/microlib/fpflt.c                0x00000000   Number         0  dfltui.o ABSOLUTE
    ../fplib/microlib/fpflt.c                0x00000000   Number         0  dflti.o ABSOLUTE
    ../fplib/microlib/fpmul.c                0x00000000   Number         0  dmul.o ABSOLUTE
    ../fplib/microlib/fpneg.c                0x00000000   Number         0  dneg.o ABSOLUTE
    ../mathlib/atan2f.c                      0x00000000   Number         0  atan2f_x.o ABSOLUTE
    ../mathlib/atan2f.c                      0x00000000   Number         0  atan2f.o ABSOLUTE
    ../mathlib/cos.c                         0x00000000   Number         0  cos_x.o ABSOLUTE
    ../mathlib/cos.c                         0x00000000   Number         0  cos.o ABSOLUTE
    ../mathlib/cos_i.c                       0x00000000   Number         0  cos_i.o ABSOLUTE
    ../mathlib/dunder.c                      0x00000000   Number         0  dunder.o ABSOLUTE
    ../mathlib/fabs.c                        0x00000000   Number         0  fabs.o ABSOLUTE
    ../mathlib/fpclassify.c                  0x00000000   Number         0  fpclassify.o ABSOLUTE
    ../mathlib/fpclassifyf.c                 0x00000000   Number         0  fpclassifyf.o ABSOLUTE
    ../mathlib/funder.c                      0x00000000   Number         0  funder.o ABSOLUTE
    ../mathlib/poly.c                        0x00000000   Number         0  poly.o ABSOLUTE
    ../mathlib/rred.c                        0x00000000   Number         0  rred.o ABSOLUTE
    ../mathlib/sin.c                         0x00000000   Number         0  sin.o ABSOLUTE
    ../mathlib/sin.c                         0x00000000   Number         0  sin_x.o ABSOLUTE
    ../mathlib/sin_i.c                       0x00000000   Number         0  sin_i_x.o ABSOLUTE
    ../mathlib/sin_i.c                       0x00000000   Number         0  sin_i.o ABSOLUTE
    ..\..\Source\BasicMathFunctions\arm_dot_prod_q15.c 0x00000000   Number         0  arm_dot_prod_q15.o ABSOLUTE
    ..\Core\Src\ad9850.c                     0x00000000   Number         0  ad9850.o ABSOLUTE
    ..\Core\Src\adc.c                        0x00000000   Number         0  adc.o ABSOLUTE
    ..\Core\Src\dma.c                        0x00000000   Number         0  dma.o ABSOLUTE
    ..\Core\Src\gpio.c                       0x00000000   Number         0  gpio.o ABSOLUTE
    ..\Core\Src\main.c                       0x00000000   Number         0  main.o ABSOLUTE
    ..\Core\Src\my_dsp.c                     0x00000000   Number         0  my_dsp.o ABSOLUTE
    ..\Core\Src\stm32f4xx_hal_msp.c          0x00000000   Number         0  stm32f4xx_hal_msp.o ABSOLUTE
    ..\Core\Src\stm32f4xx_it.c               0x00000000   Number         0  stm32f4xx_it.o ABSOLUTE
    ..\Core\Src\system_stm32f4xx.c           0x00000000   Number         0  system_stm32f4xx.o ABSOLUTE
    ..\Core\Src\tim.c                        0x00000000   Number         0  tim.o ABSOLUTE
    ..\Core\Src\usart.c                      0x00000000   Number         0  usart.o ABSOLUTE
    ..\Drivers\STM32F4xx_HAL_Driver\Src\stm32f4xx_hal.c 0x00000000   Number         0  stm32f4xx_hal.o ABSOLUTE
    ..\Drivers\STM32F4xx_HAL_Driver\Src\stm32f4xx_hal_adc.c 0x00000000   Number         0  stm32f4xx_hal_adc.o ABSOLUTE
    ..\Drivers\STM32F4xx_HAL_Driver\Src\stm32f4xx_hal_adc_ex.c 0x00000000   Number         0  stm32f4xx_hal_adc_ex.o ABSOLUTE
    ..\Drivers\STM32F4xx_HAL_Driver\Src\stm32f4xx_hal_cortex.c 0x00000000   Number         0  stm32f4xx_hal_cortex.o ABSOLUTE
    ..\Drivers\STM32F4xx_HAL_Driver\Src\stm32f4xx_hal_dma.c 0x00000000   Number         0  stm32f4xx_hal_dma.o ABSOLUTE
    ..\Drivers\STM32F4xx_HAL_Driver\Src\stm32f4xx_hal_dma_ex.c 0x00000000   Number         0  stm32f4xx_hal_dma_ex.o ABSOLUTE
    ..\Drivers\STM32F4xx_HAL_Driver\Src\stm32f4xx_hal_exti.c 0x00000000   Number         0  stm32f4xx_hal_exti.o ABSOLUTE
    ..\Drivers\STM32F4xx_HAL_Driver\Src\stm32f4xx_hal_flash.c 0x00000000   Number         0  stm32f4xx_hal_flash.o ABSOLUTE
    ..\Drivers\STM32F4xx_HAL_Driver\Src\stm32f4xx_hal_flash_ex.c 0x00000000   Number         0  stm32f4xx_hal_flash_ex.o ABSOLUTE
    ..\Drivers\STM32F4xx_HAL_Driver\Src\stm32f4xx_hal_flash_ramfunc.c 0x00000000   Number         0  stm32f4xx_hal_flash_ramfunc.o ABSOLUTE
    ..\Drivers\STM32F4xx_HAL_Driver\Src\stm32f4xx_hal_gpio.c 0x00000000   Number         0  stm32f4xx_hal_gpio.o ABSOLUTE
    ..\Drivers\STM32F4xx_HAL_Driver\Src\stm32f4xx_hal_pwr.c 0x00000000   Number         0  stm32f4xx_hal_pwr.o ABSOLUTE
    ..\Drivers\STM32F4xx_HAL_Driver\Src\stm32f4xx_hal_pwr_ex.c 0x00000000   Number         0  stm32f4xx_hal_pwr_ex.o ABSOLUTE
    ..\Drivers\STM32F4xx_HAL_Driver\Src\stm32f4xx_hal_rcc.c 0x00000000   Number         0  stm32f4xx_hal_rcc.o ABSOLUTE
    ..\Drivers\STM32F4xx_HAL_Driver\Src\stm32f4xx_hal_rcc_ex.c 0x00000000   Number         0  stm32f4xx_hal_rcc_ex.o ABSOLUTE
    ..\Drivers\STM32F4xx_HAL_Driver\Src\stm32f4xx_hal_tim.c 0x00000000   Number         0  stm32f4xx_hal_tim.o ABSOLUTE
    ..\Drivers\STM32F4xx_HAL_Driver\Src\stm32f4xx_hal_tim_ex.c 0x00000000   Number         0  stm32f4xx_hal_tim_ex.o ABSOLUTE
    ..\Drivers\STM32F4xx_HAL_Driver\Src\stm32f4xx_hal_uart.c 0x00000000   Number         0  stm32f4xx_hal_uart.o ABSOLUTE
    ..\\..\\Source\\BasicMathFunctions\\arm_dot_prod_q15.c 0x00000000   Number         0  arm_dot_prod_q15.o ABSOLUTE
    ..\\Core\\Src\\ad9850.c                  0x00000000   Number         0  ad9850.o ABSOLUTE
    ..\\Core\\Src\\my_dsp.c                  0x00000000   Number         0  my_dsp.o ABSOLUTE
    cdrcmple.s                               0x00000000   Number         0  cdrcmple.o ABSOLUTE
    dc.s                                     0x00000000   Number         0  dc.o ABSOLUTE
    handlers.s                               0x00000000   Number         0  handlers.o ABSOLUTE
    init.s                                   0x00000000   Number         0  init.o ABSOLUTE
    startup_stm32f407xx.s                    0x00000000   Number         0  startup_stm32f407xx.o ABSOLUTE
    RESET                                    0x08000000   Section      392  startup_stm32f407xx.o(RESET)
    .ARM.Collect$$$$00000000                 0x08000188   Section        0  entry.o(.ARM.Collect$$$$00000000)
    .ARM.Collect$$$$00000001                 0x08000188   Section        4  entry2.o(.ARM.Collect$$$$00000001)
    .ARM.Collect$$$$00000004                 0x0800018c   Section        4  entry5.o(.ARM.Collect$$$$00000004)
    .ARM.Collect$$$$00000008                 0x08000190   Section        0  entry7b.o(.ARM.Collect$$$$00000008)
    .ARM.Collect$$$$0000000A                 0x08000190   Section        0  entry8b.o(.ARM.Collect$$$$0000000A)
    .ARM.Collect$$$$0000000B                 0x08000190   Section        8  entry9a.o(.ARM.Collect$$$$0000000B)
    .ARM.Collect$$$$0000000E                 0x08000198   Section        4  entry12b.o(.ARM.Collect$$$$0000000E)
    .ARM.Collect$$$$0000000F                 0x0800019c   Section        0  entry10a.o(.ARM.Collect$$$$0000000F)
    .ARM.Collect$$$$00000011                 0x0800019c   Section        0  entry11a.o(.ARM.Collect$$$$00000011)
    .ARM.Collect$$$$00002712                 0x0800019c   Section        4  entry2.o(.ARM.Collect$$$$00002712)
    __lit__00000000                          0x0800019c   Data           4  entry2.o(.ARM.Collect$$$$00002712)
    .text                                    0x080001a0   Section       36  startup_stm32f407xx.o(.text)
    $v0                                      0x080001a0   Number         0  startup_stm32f407xx.o(.text)
    .text                                    0x080001c4   Section        0  arm_dot_prod_q15.o(.text)
    .text                                    0x0800020c   Section        0  uldiv.o(.text)
    .text                                    0x0800026e   Section        0  memseta.o(.text)
    .text                                    0x08000292   Section        0  dmul.o(.text)
    .text                                    0x08000376   Section        0  ffltl.o(.text)
    .text                                    0x080003a2   Section        0  dfixi.o(.text)
    .text                                    0x080003e0   Section        0  f2d.o(.text)
    .text                                    0x08000406   Section        0  uidiv.o(.text)
    .text                                    0x08000432   Section        0  llshl.o(.text)
    .text                                    0x08000450   Section        0  llushr.o(.text)
    .text                                    0x08000470   Section        0  fepilogue.o(.text)
    .text                                    0x08000470   Section        0  iusefp.o(.text)
    .text                                    0x080004de   Section        0  depilogue.o(.text)
    .text                                    0x08000598   Section        0  dadd.o(.text)
    .text                                    0x080006e6   Section        0  ddiv.o(.text)
    .text                                    0x080007c4   Section        0  dfixul.o(.text)
    .text                                    0x080007f4   Section       48  cdrcmple.o(.text)
    .text                                    0x08000824   Section       36  init.o(.text)
    .text                                    0x08000848   Section        0  llsshr.o(.text)
    .text                                    0x0800086c   Section        0  dflti.o(.text)
    .text                                    0x0800088e   Section        0  dfltui.o(.text)
    .text                                    0x080008a8   Section        0  __dczerorl.o(.text)
    i.ADC_Init                               0x080008e4   Section        0  stm32f4xx_hal_adc.o(i.ADC_Init)
    ADC_Init                                 0x080008e5   Thumb Code   344  stm32f4xx_hal_adc.o(i.ADC_Init)
    i.ADC_MultiModeDMAConvCplt               0x08000a44   Section        0  stm32f4xx_hal_adc_ex.o(i.ADC_MultiModeDMAConvCplt)
    ADC_MultiModeDMAConvCplt                 0x08000a45   Thumb Code   110  stm32f4xx_hal_adc_ex.o(i.ADC_MultiModeDMAConvCplt)
    i.ADC_MultiModeDMAError                  0x08000ab2   Section        0  stm32f4xx_hal_adc_ex.o(i.ADC_MultiModeDMAError)
    ADC_MultiModeDMAError                    0x08000ab3   Thumb Code    26  stm32f4xx_hal_adc_ex.o(i.ADC_MultiModeDMAError)
    i.ADC_MultiModeDMAHalfConvCplt           0x08000acc   Section        0  stm32f4xx_hal_adc_ex.o(i.ADC_MultiModeDMAHalfConvCplt)
    ADC_MultiModeDMAHalfConvCplt             0x08000acd   Thumb Code    14  stm32f4xx_hal_adc_ex.o(i.ADC_MultiModeDMAHalfConvCplt)
    i.BusFault_Handler                       0x08000ada   Section        0  stm32f4xx_it.o(i.BusFault_Handler)
    i.DMA2_Stream0_IRQHandler                0x08000ae0   Section        0  stm32f4xx_it.o(i.DMA2_Stream0_IRQHandler)
    i.DMA_CalcBaseAndBitshift                0x08000af0   Section        0  stm32f4xx_hal_dma.o(i.DMA_CalcBaseAndBitshift)
    DMA_CalcBaseAndBitshift                  0x08000af1   Thumb Code    46  stm32f4xx_hal_dma.o(i.DMA_CalcBaseAndBitshift)
    i.DMA_CheckFifoParam                     0x08000b24   Section        0  stm32f4xx_hal_dma.o(i.DMA_CheckFifoParam)
    DMA_CheckFifoParam                       0x08000b25   Thumb Code   170  stm32f4xx_hal_dma.o(i.DMA_CheckFifoParam)
    i.DMA_SetConfig                          0x08000bce   Section        0  stm32f4xx_hal_dma.o(i.DMA_SetConfig)
    DMA_SetConfig                            0x08000bcf   Thumb Code    44  stm32f4xx_hal_dma.o(i.DMA_SetConfig)
    i.DebugMon_Handler                       0x08000bfa   Section        0  stm32f4xx_it.o(i.DebugMon_Handler)
    i.Error_Handler                          0x08000bfc   Section        0  main.o(i.Error_Handler)
    i.HAL_ADCEx_MultiModeConfigChannel       0x08000c04   Section        0  stm32f4xx_hal_adc_ex.o(i.HAL_ADCEx_MultiModeConfigChannel)
    i.HAL_ADCEx_MultiModeStart_DMA           0x08000c64   Section        0  stm32f4xx_hal_adc_ex.o(i.HAL_ADCEx_MultiModeStart_DMA)
    i.HAL_ADC_ConfigChannel                  0x08000da0   Section        0  stm32f4xx_hal_adc.o(i.HAL_ADC_ConfigChannel)
    i.HAL_ADC_ConvCpltCallback               0x08000f2c   Section        0  main.o(i.HAL_ADC_ConvCpltCallback)
    i.HAL_ADC_ConvHalfCpltCallback           0x08000f48   Section        0  stm32f4xx_hal_adc.o(i.HAL_ADC_ConvHalfCpltCallback)
    i.HAL_ADC_ErrorCallback                  0x08000f4a   Section        0  stm32f4xx_hal_adc.o(i.HAL_ADC_ErrorCallback)
    i.HAL_ADC_Init                           0x08000f4c   Section        0  stm32f4xx_hal_adc.o(i.HAL_ADC_Init)
    i.HAL_ADC_MspInit                        0x08000fb4   Section        0  adc.o(i.HAL_ADC_MspInit)
    i.HAL_ADC_Start                          0x080010dc   Section        0  stm32f4xx_hal_adc.o(i.HAL_ADC_Start)
    i.HAL_DMA_IRQHandler                     0x08001228   Section        0  stm32f4xx_hal_dma.o(i.HAL_DMA_IRQHandler)
    i.HAL_DMA_Init                           0x08001468   Section        0  stm32f4xx_hal_dma.o(i.HAL_DMA_Init)
    i.HAL_DMA_Start_IT                       0x08001554   Section        0  stm32f4xx_hal_dma.o(i.HAL_DMA_Start_IT)
    i.HAL_GPIO_Init                          0x080015e8   Section        0  stm32f4xx_hal_gpio.o(i.HAL_GPIO_Init)
    i.HAL_GPIO_WritePin                      0x080017ec   Section        0  stm32f4xx_hal_gpio.o(i.HAL_GPIO_WritePin)
    i.HAL_GetTick                            0x080017f8   Section        0  stm32f4xx_hal.o(i.HAL_GetTick)
    i.HAL_IncTick                            0x08001804   Section        0  stm32f4xx_hal.o(i.HAL_IncTick)
    i.HAL_Init                               0x0800181c   Section        0  stm32f4xx_hal.o(i.HAL_Init)
    i.HAL_InitTick                           0x08001858   Section        0  stm32f4xx_hal.o(i.HAL_InitTick)
    i.HAL_MspInit                            0x080018a4   Section        0  stm32f4xx_hal_msp.o(i.HAL_MspInit)
    i.HAL_NVIC_EnableIRQ                     0x080018ec   Section        0  stm32f4xx_hal_cortex.o(i.HAL_NVIC_EnableIRQ)
    i.HAL_NVIC_SetPriority                   0x0800190c   Section        0  stm32f4xx_hal_cortex.o(i.HAL_NVIC_SetPriority)
    i.HAL_NVIC_SetPriorityGrouping           0x08001988   Section        0  stm32f4xx_hal_cortex.o(i.HAL_NVIC_SetPriorityGrouping)
    i.HAL_RCC_CSSCallback                    0x080019b0   Section        0  stm32f4xx_hal_rcc.o(i.HAL_RCC_CSSCallback)
    i.HAL_RCC_ClockConfig                    0x080019b4   Section        0  stm32f4xx_hal_rcc.o(i.HAL_RCC_ClockConfig)
    i.HAL_RCC_EnableCSS                      0x08001b38   Section        0  stm32f4xx_hal_rcc.o(i.HAL_RCC_EnableCSS)
    i.HAL_RCC_GetHCLKFreq                    0x08001b44   Section        0  stm32f4xx_hal_rcc.o(i.HAL_RCC_GetHCLKFreq)
    i.HAL_RCC_GetPCLK1Freq                   0x08001b50   Section        0  stm32f4xx_hal_rcc.o(i.HAL_RCC_GetPCLK1Freq)
    i.HAL_RCC_GetPCLK2Freq                   0x08001b70   Section        0  stm32f4xx_hal_rcc.o(i.HAL_RCC_GetPCLK2Freq)
    i.HAL_RCC_GetSysClockFreq                0x08001b90   Section        0  stm32f4xx_hal_rcc.o(i.HAL_RCC_GetSysClockFreq)
    i.HAL_RCC_NMI_IRQHandler                 0x08001c40   Section        0  stm32f4xx_hal_rcc.o(i.HAL_RCC_NMI_IRQHandler)
    i.HAL_RCC_OscConfig                      0x08001c60   Section        0  stm32f4xx_hal_rcc.o(i.HAL_RCC_OscConfig)
    i.HAL_SYSTICK_Config                     0x080020fc   Section        0  stm32f4xx_hal_cortex.o(i.HAL_SYSTICK_Config)
    i.HAL_TIMEx_MasterConfigSynchronization  0x08002130   Section        0  stm32f4xx_hal_tim_ex.o(i.HAL_TIMEx_MasterConfigSynchronization)
    i.HAL_TIM_Base_Init                      0x080021e4   Section        0  stm32f4xx_hal_tim.o(i.HAL_TIM_Base_Init)
    i.HAL_TIM_Base_MspInit                   0x0800224c   Section        0  tim.o(i.HAL_TIM_Base_MspInit)
    i.HAL_TIM_Base_Start                     0x08002280   Section        0  stm32f4xx_hal_tim.o(i.HAL_TIM_Base_Start)
    i.HAL_TIM_Base_Stop                      0x0800231c   Section        0  stm32f4xx_hal_tim.o(i.HAL_TIM_Base_Stop)
    i.HAL_TIM_ConfigClockSource              0x0800234e   Section        0  stm32f4xx_hal_tim.o(i.HAL_TIM_ConfigClockSource)
    i.HAL_UART_Init                          0x08002456   Section        0  stm32f4xx_hal_uart.o(i.HAL_UART_Init)
    i.HAL_UART_MspInit                       0x080024c8   Section        0  usart.o(i.HAL_UART_MspInit)
    i.HAL_UART_Transmit                      0x08002550   Section        0  stm32f4xx_hal_uart.o(i.HAL_UART_Transmit)
    i.HardFault_Handler                      0x08002622   Section        0  stm32f4xx_it.o(i.HardFault_Handler)
    i.MX_ADC1_Init                           0x08002628   Section        0  adc.o(i.MX_ADC1_Init)
    i.MX_ADC2_Init                           0x080026bc   Section        0  adc.o(i.MX_ADC2_Init)
    i.MX_DMA_Init                            0x08002720   Section        0  dma.o(i.MX_DMA_Init)
    i.MX_GPIO_Init                           0x08002758   Section        0  gpio.o(i.MX_GPIO_Init)
    i.MX_TIM3_Init                           0x08002854   Section        0  tim.o(i.MX_TIM3_Init)
    i.MX_USART1_UART_Init                    0x080028c0   Section        0  usart.o(i.MX_USART1_UART_Init)
    i.MemManage_Handler                      0x080028f8   Section        0  stm32f4xx_it.o(i.MemManage_Handler)
    i.NMI_Handler                            0x080028fc   Section        0  stm32f4xx_it.o(i.NMI_Handler)
    i.PendSV_Handler                         0x08002904   Section        0  stm32f4xx_it.o(i.PendSV_Handler)
    i.SVC_Handler                            0x08002906   Section        0  stm32f4xx_it.o(i.SVC_Handler)
    i.SysTick_Handler                        0x08002908   Section        0  stm32f4xx_it.o(i.SysTick_Handler)
    i.SystemClock_Config                     0x08002910   Section        0  main.o(i.SystemClock_Config)
    i.SystemInit                             0x080029c8   Section        0  system_stm32f4xx.o(i.SystemInit)
    i.TIM_Base_SetConfig                     0x080029dc   Section        0  stm32f4xx_hal_tim.o(i.TIM_Base_SetConfig)
    i.TIM_ETR_SetConfig                      0x08002ab4   Section        0  stm32f4xx_hal_tim.o(i.TIM_ETR_SetConfig)
    i.TIM_ITRx_SetConfig                     0x08002aca   Section        0  stm32f4xx_hal_tim.o(i.TIM_ITRx_SetConfig)
    TIM_ITRx_SetConfig                       0x08002acb   Thumb Code    18  stm32f4xx_hal_tim.o(i.TIM_ITRx_SetConfig)
    i.TIM_TI1_ConfigInputStage               0x08002adc   Section        0  stm32f4xx_hal_tim.o(i.TIM_TI1_ConfigInputStage)
    TIM_TI1_ConfigInputStage                 0x08002add   Thumb Code    38  stm32f4xx_hal_tim.o(i.TIM_TI1_ConfigInputStage)
    i.TIM_TI2_ConfigInputStage               0x08002b02   Section        0  stm32f4xx_hal_tim.o(i.TIM_TI2_ConfigInputStage)
    TIM_TI2_ConfigInputStage                 0x08002b03   Thumb Code    40  stm32f4xx_hal_tim.o(i.TIM_TI2_ConfigInputStage)
    i.UART_SetConfig                         0x08002b2c   Section        0  stm32f4xx_hal_uart.o(i.UART_SetConfig)
    UART_SetConfig                           0x08002b2d   Thumb Code   546  stm32f4xx_hal_uart.o(i.UART_SetConfig)
    i.UART_WaitOnFlagUntilTimeout            0x08002d58   Section        0  stm32f4xx_hal_uart.o(i.UART_WaitOnFlagUntilTimeout)
    UART_WaitOnFlagUntilTimeout              0x08002d59   Thumb Code   108  stm32f4xx_hal_uart.o(i.UART_WaitOnFlagUntilTimeout)
    i.UsageFault_Handler                     0x08002dc4   Section        0  stm32f4xx_it.o(i.UsageFault_Handler)
    i.__0printf                              0x08002dc8   Section        0  printfa.o(i.__0printf)
    i.__ARM_fpclassify                       0x08002de8   Section        0  fpclassify.o(i.__ARM_fpclassify)
    i.__ARM_fpclassifyf                      0x08002e18   Section        0  fpclassifyf.o(i.__ARM_fpclassifyf)
    i.__NVIC_GetPriorityGrouping             0x08002e40   Section        0  stm32f4xx_hal_cortex.o(i.__NVIC_GetPriorityGrouping)
    __NVIC_GetPriorityGrouping               0x08002e41   Thumb Code    10  stm32f4xx_hal_cortex.o(i.__NVIC_GetPriorityGrouping)
    i.__NVIC_SetPriority                     0x08002e50   Section        0  stm32f4xx_hal_cortex.o(i.__NVIC_SetPriority)
    __NVIC_SetPriority                       0x08002e51   Thumb Code    32  stm32f4xx_hal_cortex.o(i.__NVIC_SetPriority)
    i.__hardfp_atan2f                        0x08002e78   Section        0  atan2f.o(i.__hardfp_atan2f)
    i.__hardfp_cos                           0x08003128   Section        0  cos.o(i.__hardfp_cos)
    i.__hardfp_sin                           0x080031f0   Section        0  sin.o(i.__hardfp_sin)
    i.__ieee754_rem_pio2                     0x080032b8   Section        0  rred.o(i.__ieee754_rem_pio2)
    i.__kernel_cos                           0x080036f0   Section        0  cos_i.o(i.__kernel_cos)
    i.__kernel_poly                          0x08003860   Section        0  poly.o(i.__kernel_poly)
    i.__kernel_sin                           0x08003958   Section        0  sin_i.o(i.__kernel_sin)
    i.__mathlib_dbl_infnan                   0x08003a88   Section        0  dunder.o(i.__mathlib_dbl_infnan)
    i.__mathlib_dbl_invalid                  0x08003aa0   Section        0  dunder.o(i.__mathlib_dbl_invalid)
    i.__mathlib_dbl_underflow                0x08003ac0   Section        0  dunder.o(i.__mathlib_dbl_underflow)
    i.__mathlib_flt_infnan2                  0x08003ae0   Section        0  funder.o(i.__mathlib_flt_infnan2)
    i.__mathlib_flt_underflow                0x08003ae8   Section        0  funder.o(i.__mathlib_flt_underflow)
    i.__scatterload_copy                     0x08003af8   Section       14  handlers.o(i.__scatterload_copy)
    i.__scatterload_null                     0x08003b06   Section        2  handlers.o(i.__scatterload_null)
    i.__scatterload_zeroinit                 0x08003b08   Section       14  handlers.o(i.__scatterload_zeroinit)
    i.__set_errno                            0x08003b18   Section        0  errno.o(i.__set_errno)
    i._fp_digits                             0x08003b24   Section        0  printfa.o(i._fp_digits)
    _fp_digits                               0x08003b25   Thumb Code   366  printfa.o(i._fp_digits)
    i._printf_core                           0x08003ca8   Section        0  printfa.o(i._printf_core)
    _printf_core                             0x08003ca9   Thumb Code  1704  printfa.o(i._printf_core)
    i._printf_post_padding                   0x0800435c   Section        0  printfa.o(i._printf_post_padding)
    _printf_post_padding                     0x0800435d   Thumb Code    36  printfa.o(i._printf_post_padding)
    i._printf_pre_padding                    0x08004380   Section        0  printfa.o(i._printf_pre_padding)
    _printf_pre_padding                      0x08004381   Thumb Code    46  printfa.o(i._printf_pre_padding)
    i.ad9850_reset                           0x080043b0   Section        0  ad9850.o(i.ad9850_reset)
    i.ad9850_wr_parrel                       0x080043e8   Section        0  ad9850.o(i.ad9850_wr_parrel)
    i.fabs                                   0x08004454   Section        0  fabs.o(i.fabs)
    i.fputc                                  0x0800446c   Section        0  usart.o(i.fputc)
    i.main                                   0x0800448c   Section        0  main.o(i.main)
    i.my_dsp_dft_q15                         0x080046ac   Section        0  my_dsp.o(i.my_dsp_dft_q15)
    .constdata                               0x08004768   Section        8  stm32f4xx_hal_dma.o(.constdata)
    flagBitshiftOffset                       0x08004768   Data           8  stm32f4xx_hal_dma.o(.constdata)
    .constdata                               0x08004770   Section       24  system_stm32f4xx.o(.constdata)
    .constdata                               0x08004788   Section       48  cos_i.o(.constdata)
    C                                        0x08004788   Data          48  cos_i.o(.constdata)
    .constdata                               0x080047b8   Section      200  rred.o(.constdata)
    pio2s                                    0x080047b8   Data          48  rred.o(.constdata)
    twooverpi                                0x080047e8   Data         152  rred.o(.constdata)
    .constdata                               0x08004880   Section       40  sin_i.o(.constdata)
    S                                        0x08004880   Data          40  sin_i.o(.constdata)
    .data                                    0x20000000   Section      404  main.o(.data)
    .data                                    0x20000194   Section        9  stm32f4xx_hal.o(.data)
    .data                                    0x200001a0   Section        4  system_stm32f4xx.o(.data)
    .data                                    0x200001a4   Section        4  stdout.o(.data)
    .data                                    0x200001a8   Section        4  errno.o(.data)
    _errno                                   0x200001a8   Data           4  errno.o(.data)
    .bss                                     0x200001ac   Section      240  adc.o(.bss)
    .bss                                     0x2000029c   Section       72  tim.o(.bss)
    .bss                                     0x200002e4   Section       68  usart.o(.bss)
    STACK                                    0x20000328   Section    16384  startup_stm32f407xx.o(STACK)

    Global Symbols

    Symbol Name                              Value     Ov Type        Size  Object(Section)

    BuildAttributes$$THM_ISAv4$E$P$D$K$B$S$7EM$VFPi3$EXTD16$VFPS$VFMA$PE$A:L22UL41UL21$X:L11$S22US41US21$IEEE1$IW$USESV6$~STKCKD$USESV7$~SHL$OTIME$ROPI$IEEEX$EBA8$MICROLIB$REQ8$PRES8$EABIv2 0x00000000   Number         0  anon$$obj.o ABSOLUTE
    __ARM_use_no_argv                        0x00000000   Number         0  main.o ABSOLUTE
    _printf_a                                0x00000000   Number         0  stubs.o ABSOLUTE
    _printf_c                                0x00000000   Number         0  stubs.o ABSOLUTE
    _printf_charcount                        0x00000000   Number         0  stubs.o ABSOLUTE
    _printf_d                                0x00000000   Number         0  stubs.o ABSOLUTE
    _printf_e                                0x00000000   Number         0  stubs.o ABSOLUTE
    _printf_f                                0x00000000   Number         0  stubs.o ABSOLUTE
    _printf_flags                            0x00000000   Number         0  stubs.o ABSOLUTE
    _printf_fp_dec                           0x00000000   Number         0  stubs.o ABSOLUTE
    _printf_fp_hex                           0x00000000   Number         0  stubs.o ABSOLUTE
    _printf_g                                0x00000000   Number         0  stubs.o ABSOLUTE
    _printf_i                                0x00000000   Number         0  stubs.o ABSOLUTE
    _printf_int_dec                          0x00000000   Number         0  stubs.o ABSOLUTE
    _printf_l                                0x00000000   Number         0  stubs.o ABSOLUTE
    _printf_lc                               0x00000000   Number         0  stubs.o ABSOLUTE
    _printf_ll                               0x00000000   Number         0  stubs.o ABSOLUTE
    _printf_lld                              0x00000000   Number         0  stubs.o ABSOLUTE
    _printf_lli                              0x00000000   Number         0  stubs.o ABSOLUTE
    _printf_llo                              0x00000000   Number         0  stubs.o ABSOLUTE
    _printf_llu                              0x00000000   Number         0  stubs.o ABSOLUTE
    _printf_llx                              0x00000000   Number         0  stubs.o ABSOLUTE
    _printf_longlong_dec                     0x00000000   Number         0  stubs.o ABSOLUTE
    _printf_longlong_hex                     0x00000000   Number         0  stubs.o ABSOLUTE
    _printf_longlong_oct                     0x00000000   Number         0  stubs.o ABSOLUTE
    _printf_ls                               0x00000000   Number         0  stubs.o ABSOLUTE
    _printf_mbtowc                           0x00000000   Number         0  stubs.o ABSOLUTE
    _printf_n                                0x00000000   Number         0  stubs.o ABSOLUTE
    _printf_o                                0x00000000   Number         0  stubs.o ABSOLUTE
    _printf_p                                0x00000000   Number         0  stubs.o ABSOLUTE
    _printf_percent                          0x00000000   Number         0  stubs.o ABSOLUTE
    _printf_pre_padding                      0x00000000   Number         0  stubs.o ABSOLUTE
    _printf_return_value                     0x00000000   Number         0  stubs.o ABSOLUTE
    _printf_s                                0x00000000   Number         0  stubs.o ABSOLUTE
    _printf_sizespec                         0x00000000   Number         0  stubs.o ABSOLUTE
    _printf_str                              0x00000000   Number         0  stubs.o ABSOLUTE
    _printf_truncate_signed                  0x00000000   Number         0  stubs.o ABSOLUTE
    _printf_truncate_unsigned                0x00000000   Number         0  stubs.o ABSOLUTE
    _printf_u                                0x00000000   Number         0  stubs.o ABSOLUTE
    _printf_wc                               0x00000000   Number         0  stubs.o ABSOLUTE
    _printf_wctomb                           0x00000000   Number         0  stubs.o ABSOLUTE
    _printf_widthprec                        0x00000000   Number         0  stubs.o ABSOLUTE
    _printf_x                                0x00000000   Number         0  stubs.o ABSOLUTE
    __arm_fini_                               - Undefined Weak Reference
    __cpp_initialize__aeabi_                  - Undefined Weak Reference
    __cxa_finalize                            - Undefined Weak Reference
    _clock_init                               - Undefined Weak Reference
    _microlib_exit                            - Undefined Weak Reference
    __Vectors_Size                           0x00000188   Number         0  startup_stm32f407xx.o ABSOLUTE
    __Vectors                                0x08000000   Data           4  startup_stm32f407xx.o(RESET)
    __Vectors_End                            0x08000188   Data           0  startup_stm32f407xx.o(RESET)
    __main                                   0x08000189   Thumb Code     0  entry.o(.ARM.Collect$$$$00000000)
    _main_stk                                0x08000189   Thumb Code     0  entry2.o(.ARM.Collect$$$$00000001)
    _main_scatterload                        0x0800018d   Thumb Code     0  entry5.o(.ARM.Collect$$$$00000004)
    __main_after_scatterload                 0x08000191   Thumb Code     0  entry5.o(.ARM.Collect$$$$00000004)
    _main_clock                              0x08000191   Thumb Code     0  entry7b.o(.ARM.Collect$$$$00000008)
    _main_cpp_init                           0x08000191   Thumb Code     0  entry8b.o(.ARM.Collect$$$$0000000A)
    _main_init                               0x08000191   Thumb Code     0  entry9a.o(.ARM.Collect$$$$0000000B)
    __rt_lib_shutdown_fini                   0x08000199   Thumb Code     0  entry12b.o(.ARM.Collect$$$$0000000E)
    __rt_final_cpp                           0x0800019d   Thumb Code     0  entry10a.o(.ARM.Collect$$$$0000000F)
    __rt_final_exit                          0x0800019d   Thumb Code     0  entry11a.o(.ARM.Collect$$$$00000011)
    Reset_Handler                            0x080001a1   Thumb Code     8  startup_stm32f407xx.o(.text)
    ADC_IRQHandler                           0x080001bb   Thumb Code     0  startup_stm32f407xx.o(.text)
    CAN1_RX0_IRQHandler                      0x080001bb   Thumb Code     0  startup_stm32f407xx.o(.text)
    CAN1_RX1_IRQHandler                      0x080001bb   Thumb Code     0  startup_stm32f407xx.o(.text)
    CAN1_SCE_IRQHandler                      0x080001bb   Thumb Code     0  startup_stm32f407xx.o(.text)
    CAN1_TX_IRQHandler                       0x080001bb   Thumb Code     0  startup_stm32f407xx.o(.text)
    CAN2_RX0_IRQHandler                      0x080001bb   Thumb Code     0  startup_stm32f407xx.o(.text)
    CAN2_RX1_IRQHandler                      0x080001bb   Thumb Code     0  startup_stm32f407xx.o(.text)
    CAN2_SCE_IRQHandler                      0x080001bb   Thumb Code     0  startup_stm32f407xx.o(.text)
    CAN2_TX_IRQHandler                       0x080001bb   Thumb Code     0  startup_stm32f407xx.o(.text)
    DCMI_IRQHandler                          0x080001bb   Thumb Code     0  startup_stm32f407xx.o(.text)
    DMA1_Stream0_IRQHandler                  0x080001bb   Thumb Code     0  startup_stm32f407xx.o(.text)
    DMA1_Stream1_IRQHandler                  0x080001bb   Thumb Code     0  startup_stm32f407xx.o(.text)
    DMA1_Stream2_IRQHandler                  0x080001bb   Thumb Code     0  startup_stm32f407xx.o(.text)
    DMA1_Stream3_IRQHandler                  0x080001bb   Thumb Code     0  startup_stm32f407xx.o(.text)
    DMA1_Stream4_IRQHandler                  0x080001bb   Thumb Code     0  startup_stm32f407xx.o(.text)
    DMA1_Stream5_IRQHandler                  0x080001bb   Thumb Code     0  startup_stm32f407xx.o(.text)
    DMA1_Stream6_IRQHandler                  0x080001bb   Thumb Code     0  startup_stm32f407xx.o(.text)
    DMA1_Stream7_IRQHandler                  0x080001bb   Thumb Code     0  startup_stm32f407xx.o(.text)
    DMA2_Stream1_IRQHandler                  0x080001bb   Thumb Code     0  startup_stm32f407xx.o(.text)
    DMA2_Stream2_IRQHandler                  0x080001bb   Thumb Code     0  startup_stm32f407xx.o(.text)
    DMA2_Stream3_IRQHandler                  0x080001bb   Thumb Code     0  startup_stm32f407xx.o(.text)
    DMA2_Stream4_IRQHandler                  0x080001bb   Thumb Code     0  startup_stm32f407xx.o(.text)
    DMA2_Stream5_IRQHandler                  0x080001bb   Thumb Code     0  startup_stm32f407xx.o(.text)
    DMA2_Stream6_IRQHandler                  0x080001bb   Thumb Code     0  startup_stm32f407xx.o(.text)
    DMA2_Stream7_IRQHandler                  0x080001bb   Thumb Code     0  startup_stm32f407xx.o(.text)
    ETH_IRQHandler                           0x080001bb   Thumb Code     0  startup_stm32f407xx.o(.text)
    ETH_WKUP_IRQHandler                      0x080001bb   Thumb Code     0  startup_stm32f407xx.o(.text)
    EXTI0_IRQHandler                         0x080001bb   Thumb Code     0  startup_stm32f407xx.o(.text)
    EXTI15_10_IRQHandler                     0x080001bb   Thumb Code     0  startup_stm32f407xx.o(.text)
    EXTI1_IRQHandler                         0x080001bb   Thumb Code     0  startup_stm32f407xx.o(.text)
    EXTI2_IRQHandler                         0x080001bb   Thumb Code     0  startup_stm32f407xx.o(.text)
    EXTI3_IRQHandler                         0x080001bb   Thumb Code     0  startup_stm32f407xx.o(.text)
    EXTI4_IRQHandler                         0x080001bb   Thumb Code     0  startup_stm32f407xx.o(.text)
    EXTI9_5_IRQHandler                       0x080001bb   Thumb Code     0  startup_stm32f407xx.o(.text)
    FLASH_IRQHandler                         0x080001bb   Thumb Code     0  startup_stm32f407xx.o(.text)
    FMC_IRQHandler                           0x080001bb   Thumb Code     0  startup_stm32f407xx.o(.text)
    FPU_IRQHandler                           0x080001bb   Thumb Code     0  startup_stm32f407xx.o(.text)
    HASH_RNG_IRQHandler                      0x080001bb   Thumb Code     0  startup_stm32f407xx.o(.text)
    I2C1_ER_IRQHandler                       0x080001bb   Thumb Code     0  startup_stm32f407xx.o(.text)
    I2C1_EV_IRQHandler                       0x080001bb   Thumb Code     0  startup_stm32f407xx.o(.text)
    I2C2_ER_IRQHandler                       0x080001bb   Thumb Code     0  startup_stm32f407xx.o(.text)
    I2C2_EV_IRQHandler                       0x080001bb   Thumb Code     0  startup_stm32f407xx.o(.text)
    I2C3_ER_IRQHandler                       0x080001bb   Thumb Code     0  startup_stm32f407xx.o(.text)
    I2C3_EV_IRQHandler                       0x080001bb   Thumb Code     0  startup_stm32f407xx.o(.text)
    OTG_FS_IRQHandler                        0x080001bb   Thumb Code     0  startup_stm32f407xx.o(.text)
    OTG_FS_WKUP_IRQHandler                   0x080001bb   Thumb Code     0  startup_stm32f407xx.o(.text)
    OTG_HS_EP1_IN_IRQHandler                 0x080001bb   Thumb Code     0  startup_stm32f407xx.o(.text)
    OTG_HS_EP1_OUT_IRQHandler                0x080001bb   Thumb Code     0  startup_stm32f407xx.o(.text)
    OTG_HS_IRQHandler                        0x080001bb   Thumb Code     0  startup_stm32f407xx.o(.text)
    OTG_HS_WKUP_IRQHandler                   0x080001bb   Thumb Code     0  startup_stm32f407xx.o(.text)
    PVD_IRQHandler                           0x080001bb   Thumb Code     0  startup_stm32f407xx.o(.text)
    RCC_IRQHandler                           0x080001bb   Thumb Code     0  startup_stm32f407xx.o(.text)
    RTC_Alarm_IRQHandler                     0x080001bb   Thumb Code     0  startup_stm32f407xx.o(.text)
    RTC_WKUP_IRQHandler                      0x080001bb   Thumb Code     0  startup_stm32f407xx.o(.text)
    SDIO_IRQHandler                          0x080001bb   Thumb Code     0  startup_stm32f407xx.o(.text)
    SPI1_IRQHandler                          0x080001bb   Thumb Code     0  startup_stm32f407xx.o(.text)
    SPI2_IRQHandler                          0x080001bb   Thumb Code     0  startup_stm32f407xx.o(.text)
    SPI3_IRQHandler                          0x080001bb   Thumb Code     0  startup_stm32f407xx.o(.text)
    TAMP_STAMP_IRQHandler                    0x080001bb   Thumb Code     0  startup_stm32f407xx.o(.text)
    TIM1_BRK_TIM9_IRQHandler                 0x080001bb   Thumb Code     0  startup_stm32f407xx.o(.text)
    TIM1_CC_IRQHandler                       0x080001bb   Thumb Code     0  startup_stm32f407xx.o(.text)
    TIM1_TRG_COM_TIM11_IRQHandler            0x080001bb   Thumb Code     0  startup_stm32f407xx.o(.text)
    TIM1_UP_TIM10_IRQHandler                 0x080001bb   Thumb Code     0  startup_stm32f407xx.o(.text)
    TIM2_IRQHandler                          0x080001bb   Thumb Code     0  startup_stm32f407xx.o(.text)
    TIM3_IRQHandler                          0x080001bb   Thumb Code     0  startup_stm32f407xx.o(.text)
    TIM4_IRQHandler                          0x080001bb   Thumb Code     0  startup_stm32f407xx.o(.text)
    TIM5_IRQHandler                          0x080001bb   Thumb Code     0  startup_stm32f407xx.o(.text)
    TIM6_DAC_IRQHandler                      0x080001bb   Thumb Code     0  startup_stm32f407xx.o(.text)
    TIM7_IRQHandler                          0x080001bb   Thumb Code     0  startup_stm32f407xx.o(.text)
    TIM8_BRK_TIM12_IRQHandler                0x080001bb   Thumb Code     0  startup_stm32f407xx.o(.text)
    TIM8_CC_IRQHandler                       0x080001bb   Thumb Code     0  startup_stm32f407xx.o(.text)
    TIM8_TRG_COM_TIM14_IRQHandler            0x080001bb   Thumb Code     0  startup_stm32f407xx.o(.text)
    TIM8_UP_TIM13_IRQHandler                 0x080001bb   Thumb Code     0  startup_stm32f407xx.o(.text)
    UART4_IRQHandler                         0x080001bb   Thumb Code     0  startup_stm32f407xx.o(.text)
    UART5_IRQHandler                         0x080001bb   Thumb Code     0  startup_stm32f407xx.o(.text)
    USART1_IRQHandler                        0x080001bb   Thumb Code     0  startup_stm32f407xx.o(.text)
    USART2_IRQHandler                        0x080001bb   Thumb Code     0  startup_stm32f407xx.o(.text)
    USART3_IRQHandler                        0x080001bb   Thumb Code     0  startup_stm32f407xx.o(.text)
    USART6_IRQHandler                        0x080001bb   Thumb Code     0  startup_stm32f407xx.o(.text)
    WWDG_IRQHandler                          0x080001bb   Thumb Code     0  startup_stm32f407xx.o(.text)
    arm_dot_prod_q15                         0x080001c5   Thumb Code    72  arm_dot_prod_q15.o(.text)
    __aeabi_uldivmod                         0x0800020d   Thumb Code    98  uldiv.o(.text)
    __aeabi_memset                           0x0800026f   Thumb Code    14  memseta.o(.text)
    __aeabi_memset4                          0x0800026f   Thumb Code     0  memseta.o(.text)
    __aeabi_memset8                          0x0800026f   Thumb Code     0  memseta.o(.text)
    __aeabi_memclr                           0x0800027d   Thumb Code     4  memseta.o(.text)
    __aeabi_memclr4                          0x0800027d   Thumb Code     0  memseta.o(.text)
    __aeabi_memclr8                          0x0800027d   Thumb Code     0  memseta.o(.text)
    _memset$wrapper                          0x08000281   Thumb Code    18  memseta.o(.text)
    __aeabi_dmul                             0x08000293   Thumb Code   228  dmul.o(.text)
    __aeabi_l2f                              0x08000377   Thumb Code    44  ffltl.o(.text)
    __aeabi_d2iz                             0x080003a3   Thumb Code    62  dfixi.o(.text)
    __aeabi_f2d                              0x080003e1   Thumb Code    38  f2d.o(.text)
    __aeabi_uidiv                            0x08000407   Thumb Code     0  uidiv.o(.text)
    __aeabi_uidivmod                         0x08000407   Thumb Code    44  uidiv.o(.text)
    __aeabi_llsl                             0x08000433   Thumb Code    30  llshl.o(.text)
    _ll_shift_l                              0x08000433   Thumb Code     0  llshl.o(.text)
    __aeabi_llsr                             0x08000451   Thumb Code    32  llushr.o(.text)
    _ll_ushift_r                             0x08000451   Thumb Code     0  llushr.o(.text)
    __I$use$fp                               0x08000471   Thumb Code     0  iusefp.o(.text)
    _float_round                             0x08000471   Thumb Code    18  fepilogue.o(.text)
    _float_epilogue                          0x08000483   Thumb Code    92  fepilogue.o(.text)
    _double_round                            0x080004df   Thumb Code    30  depilogue.o(.text)
    _double_epilogue                         0x080004fd   Thumb Code   156  depilogue.o(.text)
    __aeabi_dadd                             0x08000599   Thumb Code   322  dadd.o(.text)
    __aeabi_dsub                             0x080006db   Thumb Code     6  dadd.o(.text)
    __aeabi_drsub                            0x080006e1   Thumb Code     6  dadd.o(.text)
    __aeabi_ddiv                             0x080006e7   Thumb Code   222  ddiv.o(.text)
    __aeabi_d2ulz                            0x080007c5   Thumb Code    48  dfixul.o(.text)
    __aeabi_cdrcmple                         0x080007f5   Thumb Code    48  cdrcmple.o(.text)
    __scatterload                            0x08000825   Thumb Code    28  init.o(.text)
    __scatterload_rt2                        0x08000825   Thumb Code     0  init.o(.text)
    __aeabi_lasr                             0x08000849   Thumb Code    36  llsshr.o(.text)
    _ll_sshift_r                             0x08000849   Thumb Code     0  llsshr.o(.text)
    __aeabi_i2d                              0x0800086d   Thumb Code    34  dflti.o(.text)
    __aeabi_ui2d                             0x0800088f   Thumb Code    26  dfltui.o(.text)
    __decompress                             0x080008a9   Thumb Code     0  __dczerorl.o(.text)
    __decompress0                            0x080008a9   Thumb Code    58  __dczerorl.o(.text)
    BusFault_Handler                         0x08000adb   Thumb Code     4  stm32f4xx_it.o(i.BusFault_Handler)
    DMA2_Stream0_IRQHandler                  0x08000ae1   Thumb Code    10  stm32f4xx_it.o(i.DMA2_Stream0_IRQHandler)
    DebugMon_Handler                         0x08000bfb   Thumb Code     2  stm32f4xx_it.o(i.DebugMon_Handler)
    Error_Handler                            0x08000bfd   Thumb Code     6  main.o(i.Error_Handler)
    HAL_ADCEx_MultiModeConfigChannel         0x08000c05   Thumb Code    92  stm32f4xx_hal_adc_ex.o(i.HAL_ADCEx_MultiModeConfigChannel)
    HAL_ADCEx_MultiModeStart_DMA             0x08000c65   Thumb Code   292  stm32f4xx_hal_adc_ex.o(i.HAL_ADCEx_MultiModeStart_DMA)
    HAL_ADC_ConfigChannel                    0x08000da1   Thumb Code   380  stm32f4xx_hal_adc.o(i.HAL_ADC_ConfigChannel)
    HAL_ADC_ConvCpltCallback                 0x08000f2d   Thumb Code    18  main.o(i.HAL_ADC_ConvCpltCallback)
    HAL_ADC_ConvHalfCpltCallback             0x08000f49   Thumb Code     2  stm32f4xx_hal_adc.o(i.HAL_ADC_ConvHalfCpltCallback)
    HAL_ADC_ErrorCallback                    0x08000f4b   Thumb Code     2  stm32f4xx_hal_adc.o(i.HAL_ADC_ErrorCallback)
    HAL_ADC_Init                             0x08000f4d   Thumb Code   100  stm32f4xx_hal_adc.o(i.HAL_ADC_Init)
    HAL_ADC_MspInit                          0x08000fb5   Thumb Code   270  adc.o(i.HAL_ADC_MspInit)
    HAL_ADC_Start                            0x080010dd   Thumb Code   308  stm32f4xx_hal_adc.o(i.HAL_ADC_Start)
    HAL_DMA_IRQHandler                       0x08001229   Thumb Code   570  stm32f4xx_hal_dma.o(i.HAL_DMA_IRQHandler)
    HAL_DMA_Init                             0x08001469   Thumb Code   232  stm32f4xx_hal_dma.o(i.HAL_DMA_Init)
    HAL_DMA_Start_IT                         0x08001555   Thumb Code   146  stm32f4xx_hal_dma.o(i.HAL_DMA_Start_IT)
    HAL_GPIO_Init                            0x080015e9   Thumb Code   470  stm32f4xx_hal_gpio.o(i.HAL_GPIO_Init)
    HAL_GPIO_WritePin                        0x080017ed   Thumb Code    12  stm32f4xx_hal_gpio.o(i.HAL_GPIO_WritePin)
    HAL_GetTick                              0x080017f9   Thumb Code     6  stm32f4xx_hal.o(i.HAL_GetTick)
    HAL_IncTick                              0x08001805   Thumb Code    16  stm32f4xx_hal.o(i.HAL_IncTick)
    HAL_Init                                 0x0800181d   Thumb Code    54  stm32f4xx_hal.o(i.HAL_Init)
    HAL_InitTick                             0x08001859   Thumb Code    64  stm32f4xx_hal.o(i.HAL_InitTick)
    HAL_MspInit                              0x080018a5   Thumb Code    68  stm32f4xx_hal_msp.o(i.HAL_MspInit)
    HAL_NVIC_EnableIRQ                       0x080018ed   Thumb Code    32  stm32f4xx_hal_cortex.o(i.HAL_NVIC_EnableIRQ)
    HAL_NVIC_SetPriority                     0x0800190d   Thumb Code   124  stm32f4xx_hal_cortex.o(i.HAL_NVIC_SetPriority)
    HAL_NVIC_SetPriorityGrouping             0x08001989   Thumb Code    32  stm32f4xx_hal_cortex.o(i.HAL_NVIC_SetPriorityGrouping)
    HAL_RCC_CSSCallback                      0x080019b1   Thumb Code     2  stm32f4xx_hal_rcc.o(i.HAL_RCC_CSSCallback)
    HAL_RCC_ClockConfig                      0x080019b5   Thumb Code   368  stm32f4xx_hal_rcc.o(i.HAL_RCC_ClockConfig)
    HAL_RCC_EnableCSS                        0x08001b39   Thumb Code     8  stm32f4xx_hal_rcc.o(i.HAL_RCC_EnableCSS)
    HAL_RCC_GetHCLKFreq                      0x08001b45   Thumb Code     6  stm32f4xx_hal_rcc.o(i.HAL_RCC_GetHCLKFreq)
    HAL_RCC_GetPCLK1Freq                     0x08001b51   Thumb Code    22  stm32f4xx_hal_rcc.o(i.HAL_RCC_GetPCLK1Freq)
    HAL_RCC_GetPCLK2Freq                     0x08001b71   Thumb Code    22  stm32f4xx_hal_rcc.o(i.HAL_RCC_GetPCLK2Freq)
    HAL_RCC_GetSysClockFreq                  0x08001b91   Thumb Code   162  stm32f4xx_hal_rcc.o(i.HAL_RCC_GetSysClockFreq)
    HAL_RCC_NMI_IRQHandler                   0x08001c41   Thumb Code    28  stm32f4xx_hal_rcc.o(i.HAL_RCC_NMI_IRQHandler)
    HAL_RCC_OscConfig                        0x08001c61   Thumb Code  1172  stm32f4xx_hal_rcc.o(i.HAL_RCC_OscConfig)
    HAL_SYSTICK_Config                       0x080020fd   Thumb Code    52  stm32f4xx_hal_cortex.o(i.HAL_SYSTICK_Config)
    HAL_TIMEx_MasterConfigSynchronization    0x08002131   Thumb Code   150  stm32f4xx_hal_tim_ex.o(i.HAL_TIMEx_MasterConfigSynchronization)
    HAL_TIM_Base_Init                        0x080021e5   Thumb Code   102  stm32f4xx_hal_tim.o(i.HAL_TIM_Base_Init)
    HAL_TIM_Base_MspInit                     0x0800224d   Thumb Code    44  tim.o(i.HAL_TIM_Base_MspInit)
    HAL_TIM_Base_Start                       0x08002281   Thumb Code   126  stm32f4xx_hal_tim.o(i.HAL_TIM_Base_Start)
    HAL_TIM_Base_Stop                        0x0800231d   Thumb Code    50  stm32f4xx_hal_tim.o(i.HAL_TIM_Base_Stop)
    HAL_TIM_ConfigClockSource                0x0800234f   Thumb Code   264  stm32f4xx_hal_tim.o(i.HAL_TIM_ConfigClockSource)
    HAL_UART_Init                            0x08002457   Thumb Code   114  stm32f4xx_hal_uart.o(i.HAL_UART_Init)
    HAL_UART_MspInit                         0x080024c9   Thumb Code   124  usart.o(i.HAL_UART_MspInit)
    HAL_UART_Transmit                        0x08002551   Thumb Code   210  stm32f4xx_hal_uart.o(i.HAL_UART_Transmit)
    HardFault_Handler                        0x08002623   Thumb Code     4  stm32f4xx_it.o(i.HardFault_Handler)
    MX_ADC1_Init                             0x08002629   Thumb Code   138  adc.o(i.MX_ADC1_Init)
    MX_ADC2_Init                             0x080026bd   Thumb Code    90  adc.o(i.MX_ADC2_Init)
    MX_DMA_Init                              0x08002721   Thumb Code    52  dma.o(i.MX_DMA_Init)
    MX_GPIO_Init                             0x08002759   Thumb Code   240  gpio.o(i.MX_GPIO_Init)
    MX_TIM3_Init                             0x08002855   Thumb Code   100  tim.o(i.MX_TIM3_Init)
    MX_USART1_UART_Init                      0x080028c1   Thumb Code    46  usart.o(i.MX_USART1_UART_Init)
    MemManage_Handler                        0x080028f9   Thumb Code     4  stm32f4xx_it.o(i.MemManage_Handler)
    NMI_Handler                              0x080028fd   Thumb Code     8  stm32f4xx_it.o(i.NMI_Handler)
    PendSV_Handler                           0x08002905   Thumb Code     2  stm32f4xx_it.o(i.PendSV_Handler)
    SVC_Handler                              0x08002907   Thumb Code     2  stm32f4xx_it.o(i.SVC_Handler)
    SysTick_Handler                          0x08002909   Thumb Code     8  stm32f4xx_it.o(i.SysTick_Handler)
    SystemClock_Config                       0x08002911   Thumb Code   174  main.o(i.SystemClock_Config)
    SystemInit                               0x080029c9   Thumb Code    14  system_stm32f4xx.o(i.SystemInit)
    TIM_Base_SetConfig                       0x080029dd   Thumb Code   170  stm32f4xx_hal_tim.o(i.TIM_Base_SetConfig)
    TIM_ETR_SetConfig                        0x08002ab5   Thumb Code    22  stm32f4xx_hal_tim.o(i.TIM_ETR_SetConfig)
    UsageFault_Handler                       0x08002dc5   Thumb Code     4  stm32f4xx_it.o(i.UsageFault_Handler)
    __0printf                                0x08002dc9   Thumb Code    22  printfa.o(i.__0printf)
    __1printf                                0x08002dc9   Thumb Code     0  printfa.o(i.__0printf)
    __2printf                                0x08002dc9   Thumb Code     0  printfa.o(i.__0printf)
    __c89printf                              0x08002dc9   Thumb Code     0  printfa.o(i.__0printf)
    printf                                   0x08002dc9   Thumb Code     0  printfa.o(i.__0printf)
    __ARM_fpclassify                         0x08002de9   Thumb Code    48  fpclassify.o(i.__ARM_fpclassify)
    __ARM_fpclassifyf                        0x08002e19   Thumb Code    38  fpclassifyf.o(i.__ARM_fpclassifyf)
    __hardfp_atan2f                          0x08002e79   Thumb Code   594  atan2f.o(i.__hardfp_atan2f)
    __hardfp_cos                             0x08003129   Thumb Code   180  cos.o(i.__hardfp_cos)
    __hardfp_sin                             0x080031f1   Thumb Code   180  sin.o(i.__hardfp_sin)
    __ieee754_rem_pio2                       0x080032b9   Thumb Code   938  rred.o(i.__ieee754_rem_pio2)
    __kernel_cos                             0x080036f1   Thumb Code   322  cos_i.o(i.__kernel_cos)
    __kernel_poly                            0x08003861   Thumb Code   248  poly.o(i.__kernel_poly)
    __kernel_sin                             0x08003959   Thumb Code   280  sin_i.o(i.__kernel_sin)
    __mathlib_dbl_infnan                     0x08003a89   Thumb Code    20  dunder.o(i.__mathlib_dbl_infnan)
    __mathlib_dbl_invalid                    0x08003aa1   Thumb Code    24  dunder.o(i.__mathlib_dbl_invalid)
    __mathlib_dbl_underflow                  0x08003ac1   Thumb Code    24  dunder.o(i.__mathlib_dbl_underflow)
    __mathlib_flt_infnan2                    0x08003ae1   Thumb Code     6  funder.o(i.__mathlib_flt_infnan2)
    __mathlib_flt_underflow                  0x08003ae9   Thumb Code    10  funder.o(i.__mathlib_flt_underflow)
    __scatterload_copy                       0x08003af9   Thumb Code    14  handlers.o(i.__scatterload_copy)
    __scatterload_null                       0x08003b07   Thumb Code     2  handlers.o(i.__scatterload_null)
    __scatterload_zeroinit                   0x08003b09   Thumb Code    14  handlers.o(i.__scatterload_zeroinit)
    __set_errno                              0x08003b19   Thumb Code     6  errno.o(i.__set_errno)
    ad9850_reset                             0x080043b1   Thumb Code    50  ad9850.o(i.ad9850_reset)
    ad9850_wr_parrel                         0x080043e9   Thumb Code    98  ad9850.o(i.ad9850_wr_parrel)
    fabs                                     0x08004455   Thumb Code    24  fabs.o(i.fabs)
    fputc                                    0x0800446d   Thumb Code    26  usart.o(i.fputc)
    main                                     0x0800448d   Thumb Code   490  main.o(i.main)
    my_dsp_dft_q15                           0x080046ad   Thumb Code   176  my_dsp.o(i.my_dsp_dft_q15)
    AHBPrescTable                            0x08004770   Data          16  system_stm32f4xx.o(.constdata)
    APBPrescTable                            0x08004780   Data           8  system_stm32f4xx.o(.constdata)
    Region$$Table$$Base                      0x080048a8   Number         0  anon$$obj.o(Region$$Table)
    Region$$Table$$Limit                     0x080048c8   Number         0  anon$$obj.o(Region$$Table)
    freqw                                    0x20000000   Data         400  main.o(.data)
    flag                                     0x20000190   Data           4  main.o(.data)
    uwTick                                   0x20000194   Data           4  stm32f4xx_hal.o(.data)
    uwTickPrio                               0x20000198   Data           4  stm32f4xx_hal.o(.data)
    uwTickFreq                               0x2000019c   Data           1  stm32f4xx_hal.o(.data)
    SystemCoreClock                          0x200001a0   Data           4  system_stm32f4xx.o(.data)
    __stdout                                 0x200001a4   Data           4  stdout.o(.data)
    hadc1                                    0x200001ac   Data          72  adc.o(.bss)
    hadc2                                    0x200001f4   Data          72  adc.o(.bss)
    hdma_adc1                                0x2000023c   Data          96  adc.o(.bss)
    htim3                                    0x2000029c   Data          72  tim.o(.bss)
    huart1                                   0x200002e4   Data          68  usart.o(.bss)
    __initial_sp                             0x20004328   Data           0  startup_stm32f407xx.o(STACK)



==============================================================================

Memory Map of the image

  Image Entry point : 0x08000189

  Load Region LR_IROM1 (Base: 0x08000000, Size: 0x00004a74, Max: 0x00100000, ABSOLUTE, COMPRESSED[0x00004a60])

    Execution Region ER_IROM1 (Exec base: 0x08000000, Load base: 0x08000000, Size: 0x000048c8, Max: 0x00100000, ABSOLUTE)

    Exec Addr    Load Addr    Size         Type   Attr      Idx    E Section Name        Object

    0x08000000   0x08000000   0x00000188   Data   RO            3    RESET               startup_stm32f407xx.o
    0x08000188   0x08000188   0x00000000   Code   RO         3493  * .ARM.Collect$$$$00000000  mc_w.l(entry.o)
    0x08000188   0x08000188   0x00000004   Code   RO         3813    .ARM.Collect$$$$00000001  mc_w.l(entry2.o)
    0x0800018c   0x0800018c   0x00000004   Code   RO         3816    .ARM.Collect$$$$00000004  mc_w.l(entry5.o)
    0x08000190   0x08000190   0x00000000   Code   RO         3818    .ARM.Collect$$$$00000008  mc_w.l(entry7b.o)
    0x08000190   0x08000190   0x00000000   Code   RO         3820    .ARM.Collect$$$$0000000A  mc_w.l(entry8b.o)
    0x08000190   0x08000190   0x00000008   Code   RO         3821    .ARM.Collect$$$$0000000B  mc_w.l(entry9a.o)
    0x08000198   0x08000198   0x00000004   Code   RO         3828    .ARM.Collect$$$$0000000E  mc_w.l(entry12b.o)
    0x0800019c   0x0800019c   0x00000000   Code   RO         3823    .ARM.Collect$$$$0000000F  mc_w.l(entry10a.o)
    0x0800019c   0x0800019c   0x00000000   Code   RO         3825    .ARM.Collect$$$$00000011  mc_w.l(entry11a.o)
    0x0800019c   0x0800019c   0x00000004   Code   RO         3814    .ARM.Collect$$$$00002712  mc_w.l(entry2.o)
    0x080001a0   0x080001a0   0x00000024   Code   RO            4    .text               startup_stm32f407xx.o
    0x080001c4   0x080001c4   0x00000048   Code   RO         3414    .text               arm_cortexM4lf_math.lib(arm_dot_prod_q15.o)
    0x0800020c   0x0800020c   0x00000062   Code   RO         3496    .text               mc_w.l(uldiv.o)
    0x0800026e   0x0800026e   0x00000024   Code   RO         3498    .text               mc_w.l(memseta.o)
    0x08000292   0x08000292   0x000000e4   Code   RO         3761    .text               mf_w.l(dmul.o)
    0x08000376   0x08000376   0x0000002c   Code   RO         3763    .text               mf_w.l(ffltl.o)
    0x080003a2   0x080003a2   0x0000003e   Code   RO         3765    .text               mf_w.l(dfixi.o)
    0x080003e0   0x080003e0   0x00000026   Code   RO         3767    .text               mf_w.l(f2d.o)
    0x08000406   0x08000406   0x0000002c   Code   RO         3830    .text               mc_w.l(uidiv.o)
    0x08000432   0x08000432   0x0000001e   Code   RO         3832    .text               mc_w.l(llshl.o)
    0x08000450   0x08000450   0x00000020   Code   RO         3834    .text               mc_w.l(llushr.o)
    0x08000470   0x08000470   0x00000000   Code   RO         3843    .text               mc_w.l(iusefp.o)
    0x08000470   0x08000470   0x0000006e   Code   RO         3844    .text               mf_w.l(fepilogue.o)
    0x080004de   0x080004de   0x000000ba   Code   RO         3846    .text               mf_w.l(depilogue.o)
    0x08000598   0x08000598   0x0000014e   Code   RO         3848    .text               mf_w.l(dadd.o)
    0x080006e6   0x080006e6   0x000000de   Code   RO         3850    .text               mf_w.l(ddiv.o)
    0x080007c4   0x080007c4   0x00000030   Code   RO         3854    .text               mf_w.l(dfixul.o)
    0x080007f4   0x080007f4   0x00000030   Code   RO         3856    .text               mf_w.l(cdrcmple.o)
    0x08000824   0x08000824   0x00000024   Code   RO         3868    .text               mc_w.l(init.o)
    0x08000848   0x08000848   0x00000024   Code   RO         3870    .text               mc_w.l(llsshr.o)
    0x0800086c   0x0800086c   0x00000022   Code   RO         3872    .text               mf_w.l(dflti.o)
    0x0800088e   0x0800088e   0x0000001a   Code   RO         3874    .text               mf_w.l(dfltui.o)
    0x080008a8   0x080008a8   0x0000003a   Code   RO         3884    .text               mc_w.l(__dczerorl.o)
    0x080008e2   0x080008e2   0x00000002   PAD
    0x080008e4   0x080008e4   0x00000160   Code   RO          569    i.ADC_Init          stm32f4xx_hal_adc.o
    0x08000a44   0x08000a44   0x0000006e   Code   RO          736    i.ADC_MultiModeDMAConvCplt  stm32f4xx_hal_adc_ex.o
    0x08000ab2   0x08000ab2   0x0000001a   Code   RO          737    i.ADC_MultiModeDMAError  stm32f4xx_hal_adc_ex.o
    0x08000acc   0x08000acc   0x0000000e   Code   RO          738    i.ADC_MultiModeDMAHalfConvCplt  stm32f4xx_hal_adc_ex.o
    0x08000ada   0x08000ada   0x00000004   Code   RO          460    i.BusFault_Handler  stm32f4xx_it.o
    0x08000ade   0x08000ade   0x00000002   PAD
    0x08000ae0   0x08000ae0   0x00000010   Code   RO          461    i.DMA2_Stream0_IRQHandler  stm32f4xx_it.o
    0x08000af0   0x08000af0   0x00000034   Code   RO         1348    i.DMA_CalcBaseAndBitshift  stm32f4xx_hal_dma.o
    0x08000b24   0x08000b24   0x000000aa   Code   RO         1349    i.DMA_CheckFifoParam  stm32f4xx_hal_dma.o
    0x08000bce   0x08000bce   0x0000002c   Code   RO         1350    i.DMA_SetConfig     stm32f4xx_hal_dma.o
    0x08000bfa   0x08000bfa   0x00000002   Code   RO          462    i.DebugMon_Handler  stm32f4xx_it.o
    0x08000bfc   0x08000bfc   0x00000006   Code   RO          201    i.Error_Handler     main.o
    0x08000c02   0x08000c02   0x00000002   PAD
    0x08000c04   0x08000c04   0x00000060   Code   RO          747    i.HAL_ADCEx_MultiModeConfigChannel  stm32f4xx_hal_adc_ex.o
    0x08000c64   0x08000c64   0x0000013c   Code   RO          749    i.HAL_ADCEx_MultiModeStart_DMA  stm32f4xx_hal_adc_ex.o
    0x08000da0   0x08000da0   0x0000018c   Code   RO          571    i.HAL_ADC_ConfigChannel  stm32f4xx_hal_adc.o
    0x08000f2c   0x08000f2c   0x0000001c   Code   RO          202    i.HAL_ADC_ConvCpltCallback  main.o
    0x08000f48   0x08000f48   0x00000002   Code   RO          573    i.HAL_ADC_ConvHalfCpltCallback  stm32f4xx_hal_adc.o
    0x08000f4a   0x08000f4a   0x00000002   Code   RO          575    i.HAL_ADC_ErrorCallback  stm32f4xx_hal_adc.o
    0x08000f4c   0x08000f4c   0x00000068   Code   RO          580    i.HAL_ADC_Init      stm32f4xx_hal_adc.o
    0x08000fb4   0x08000fb4   0x00000128   Code   RO          299    i.HAL_ADC_MspInit   adc.o
    0x080010dc   0x080010dc   0x0000014c   Code   RO          586    i.HAL_ADC_Start     stm32f4xx_hal_adc.o
    0x08001228   0x08001228   0x00000240   Code   RO         1356    i.HAL_DMA_IRQHandler  stm32f4xx_hal_dma.o
    0x08001468   0x08001468   0x000000ec   Code   RO         1357    i.HAL_DMA_Init      stm32f4xx_hal_dma.o
    0x08001554   0x08001554   0x00000092   Code   RO         1361    i.HAL_DMA_Start_IT  stm32f4xx_hal_dma.o
    0x080015e6   0x080015e6   0x00000002   PAD
    0x080015e8   0x080015e8   0x00000204   Code   RO         1244    i.HAL_GPIO_Init     stm32f4xx_hal_gpio.o
    0x080017ec   0x080017ec   0x0000000c   Code   RO         1248    i.HAL_GPIO_WritePin  stm32f4xx_hal_gpio.o
    0x080017f8   0x080017f8   0x0000000c   Code   RO         1781    i.HAL_GetTick       stm32f4xx_hal.o
    0x08001804   0x08001804   0x00000018   Code   RO         1787    i.HAL_IncTick       stm32f4xx_hal.o
    0x0800181c   0x0800181c   0x0000003c   Code   RO         1788    i.HAL_Init          stm32f4xx_hal.o
    0x08001858   0x08001858   0x0000004c   Code   RO         1789    i.HAL_InitTick      stm32f4xx_hal.o
    0x080018a4   0x080018a4   0x00000048   Code   RO          542    i.HAL_MspInit       stm32f4xx_hal_msp.o
    0x080018ec   0x080018ec   0x00000020   Code   RO         1633    i.HAL_NVIC_EnableIRQ  stm32f4xx_hal_cortex.o
    0x0800190c   0x0800190c   0x0000007c   Code   RO         1639    i.HAL_NVIC_SetPriority  stm32f4xx_hal_cortex.o
    0x08001988   0x08001988   0x00000028   Code   RO         1640    i.HAL_NVIC_SetPriorityGrouping  stm32f4xx_hal_cortex.o
    0x080019b0   0x080019b0   0x00000002   Code   RO          844    i.HAL_RCC_CSSCallback  stm32f4xx_hal_rcc.o
    0x080019b2   0x080019b2   0x00000002   PAD
    0x080019b4   0x080019b4   0x00000184   Code   RO          845    i.HAL_RCC_ClockConfig  stm32f4xx_hal_rcc.o
    0x08001b38   0x08001b38   0x0000000c   Code   RO          848    i.HAL_RCC_EnableCSS  stm32f4xx_hal_rcc.o
    0x08001b44   0x08001b44   0x0000000c   Code   RO          850    i.HAL_RCC_GetHCLKFreq  stm32f4xx_hal_rcc.o
    0x08001b50   0x08001b50   0x00000020   Code   RO          852    i.HAL_RCC_GetPCLK1Freq  stm32f4xx_hal_rcc.o
    0x08001b70   0x08001b70   0x00000020   Code   RO          853    i.HAL_RCC_GetPCLK2Freq  stm32f4xx_hal_rcc.o
    0x08001b90   0x08001b90   0x000000b0   Code   RO          854    i.HAL_RCC_GetSysClockFreq  stm32f4xx_hal_rcc.o
    0x08001c40   0x08001c40   0x00000020   Code   RO          856    i.HAL_RCC_NMI_IRQHandler  stm32f4xx_hal_rcc.o
    0x08001c60   0x08001c60   0x0000049c   Code   RO          857    i.HAL_RCC_OscConfig  stm32f4xx_hal_rcc.o
    0x080020fc   0x080020fc   0x00000034   Code   RO         1644    i.HAL_SYSTICK_Config  stm32f4xx_hal_cortex.o
    0x08002130   0x08002130   0x000000b4   Code   RO         2762    i.HAL_TIMEx_MasterConfigSynchronization  stm32f4xx_hal_tim_ex.o
    0x080021e4   0x080021e4   0x00000066   Code   RO         2028    i.HAL_TIM_Base_Init  stm32f4xx_hal_tim.o
    0x0800224a   0x0800224a   0x00000002   PAD
    0x0800224c   0x0800224c   0x00000034   Code   RO          371    i.HAL_TIM_Base_MspInit  tim.o
    0x08002280   0x08002280   0x0000009c   Code   RO         2031    i.HAL_TIM_Base_Start  stm32f4xx_hal_tim.o
    0x0800231c   0x0800231c   0x00000032   Code   RO         2034    i.HAL_TIM_Base_Stop  stm32f4xx_hal_tim.o
    0x0800234e   0x0800234e   0x00000108   Code   RO         2037    i.HAL_TIM_ConfigClockSource  stm32f4xx_hal_tim.o
    0x08002456   0x08002456   0x00000072   Code   RO         3039    i.HAL_UART_Init     stm32f4xx_hal_uart.o
    0x080024c8   0x080024c8   0x00000088   Code   RO          413    i.HAL_UART_MspInit  usart.o
    0x08002550   0x08002550   0x000000d2   Code   RO         3047    i.HAL_UART_Transmit  stm32f4xx_hal_uart.o
    0x08002622   0x08002622   0x00000004   Code   RO          463    i.HardFault_Handler  stm32f4xx_it.o
    0x08002626   0x08002626   0x00000002   PAD
    0x08002628   0x08002628   0x00000094   Code   RO          300    i.MX_ADC1_Init      adc.o
    0x080026bc   0x080026bc   0x00000064   Code   RO          301    i.MX_ADC2_Init      adc.o
    0x08002720   0x08002720   0x00000038   Code   RO          346    i.MX_DMA_Init       dma.o
    0x08002758   0x08002758   0x000000fc   Code   RO          274    i.MX_GPIO_Init      gpio.o
    0x08002854   0x08002854   0x0000006c   Code   RO          372    i.MX_TIM3_Init      tim.o
    0x080028c0   0x080028c0   0x00000038   Code   RO          414    i.MX_USART1_UART_Init  usart.o
    0x080028f8   0x080028f8   0x00000004   Code   RO          464    i.MemManage_Handler  stm32f4xx_it.o
    0x080028fc   0x080028fc   0x00000008   Code   RO          465    i.NMI_Handler       stm32f4xx_it.o
    0x08002904   0x08002904   0x00000002   Code   RO          466    i.PendSV_Handler    stm32f4xx_it.o
    0x08002906   0x08002906   0x00000002   Code   RO          467    i.SVC_Handler       stm32f4xx_it.o
    0x08002908   0x08002908   0x00000008   Code   RO          468    i.SysTick_Handler   stm32f4xx_it.o
    0x08002910   0x08002910   0x000000b8   Code   RO          203    i.SystemClock_Config  main.o
    0x080029c8   0x080029c8   0x00000014   Code   RO         3378    i.SystemInit        system_stm32f4xx.o
    0x080029dc   0x080029dc   0x000000d8   Code   RO         2121    i.TIM_Base_SetConfig  stm32f4xx_hal_tim.o
    0x08002ab4   0x08002ab4   0x00000016   Code   RO         2132    i.TIM_ETR_SetConfig  stm32f4xx_hal_tim.o
    0x08002aca   0x08002aca   0x00000012   Code   RO         2133    i.TIM_ITRx_SetConfig  stm32f4xx_hal_tim.o
    0x08002adc   0x08002adc   0x00000026   Code   RO         2139    i.TIM_TI1_ConfigInputStage  stm32f4xx_hal_tim.o
    0x08002b02   0x08002b02   0x00000028   Code   RO         2141    i.TIM_TI2_ConfigInputStage  stm32f4xx_hal_tim.o
    0x08002b2a   0x08002b2a   0x00000002   PAD
    0x08002b2c   0x08002b2c   0x0000022c   Code   RO         3066    i.UART_SetConfig    stm32f4xx_hal_uart.o
    0x08002d58   0x08002d58   0x0000006c   Code   RO         3070    i.UART_WaitOnFlagUntilTimeout  stm32f4xx_hal_uart.o
    0x08002dc4   0x08002dc4   0x00000004   Code   RO          469    i.UsageFault_Handler  stm32f4xx_it.o
    0x08002dc8   0x08002dc8   0x00000020   Code   RO         3733    i.__0printf         mc_w.l(printfa.o)
    0x08002de8   0x08002de8   0x00000030   Code   RO         3864    i.__ARM_fpclassify  m_wm.l(fpclassify.o)
    0x08002e18   0x08002e18   0x00000026   Code   RO         3786    i.__ARM_fpclassifyf  m_wm.l(fpclassifyf.o)
    0x08002e3e   0x08002e3e   0x00000002   PAD
    0x08002e40   0x08002e40   0x00000010   Code   RO         1646    i.__NVIC_GetPriorityGrouping  stm32f4xx_hal_cortex.o
    0x08002e50   0x08002e50   0x00000028   Code   RO         1647    i.__NVIC_SetPriority  stm32f4xx_hal_cortex.o
    0x08002e78   0x08002e78   0x000002ac   Code   RO         3457    i.__hardfp_atan2f   m_wm.l(atan2f.o)
    0x08003124   0x08003124   0x00000004   PAD
    0x08003128   0x08003128   0x000000c8   Code   RO         3469    i.__hardfp_cos      m_wm.l(cos.o)
    0x080031f0   0x080031f0   0x000000c8   Code   RO         3481    i.__hardfp_sin      m_wm.l(sin.o)
    0x080032b8   0x080032b8   0x00000438   Code   RO         3802    i.__ieee754_rem_pio2  m_wm.l(rred.o)
    0x080036f0   0x080036f0   0x00000170   Code   RO         3769    i.__kernel_cos      m_wm.l(cos_i.o)
    0x08003860   0x08003860   0x000000f8   Code   RO         3866    i.__kernel_poly     m_wm.l(poly.o)
    0x08003958   0x08003958   0x00000130   Code   RO         3807    i.__kernel_sin      m_wm.l(sin_i.o)
    0x08003a88   0x08003a88   0x00000014   Code   RO         3773    i.__mathlib_dbl_infnan  m_wm.l(dunder.o)
    0x08003a9c   0x08003a9c   0x00000004   PAD
    0x08003aa0   0x08003aa0   0x00000020   Code   RO         3775    i.__mathlib_dbl_invalid  m_wm.l(dunder.o)
    0x08003ac0   0x08003ac0   0x00000020   Code   RO         3778    i.__mathlib_dbl_underflow  m_wm.l(dunder.o)
    0x08003ae0   0x08003ae0   0x00000006   Code   RO         3790    i.__mathlib_flt_infnan2  m_wm.l(funder.o)
    0x08003ae6   0x08003ae6   0x00000002   PAD
    0x08003ae8   0x08003ae8   0x00000010   Code   RO         3794    i.__mathlib_flt_underflow  m_wm.l(funder.o)
    0x08003af8   0x08003af8   0x0000000e   Code   RO         3878    i.__scatterload_copy  mc_w.l(handlers.o)
    0x08003b06   0x08003b06   0x00000002   Code   RO         3879    i.__scatterload_null  mc_w.l(handlers.o)
    0x08003b08   0x08003b08   0x0000000e   Code   RO         3880    i.__scatterload_zeroinit  mc_w.l(handlers.o)
    0x08003b16   0x08003b16   0x00000002   PAD
    0x08003b18   0x08003b18   0x0000000c   Code   RO         3838    i.__set_errno       mc_w.l(errno.o)
    0x08003b24   0x08003b24   0x00000184   Code   RO         3740    i._fp_digits        mc_w.l(printfa.o)
    0x08003ca8   0x08003ca8   0x000006b4   Code   RO         3741    i._printf_core      mc_w.l(printfa.o)
    0x0800435c   0x0800435c   0x00000024   Code   RO         3742    i._printf_post_padding  mc_w.l(printfa.o)
    0x08004380   0x08004380   0x0000002e   Code   RO         3743    i._printf_pre_padding  mc_w.l(printfa.o)
    0x080043ae   0x080043ae   0x00000002   PAD
    0x080043b0   0x080043b0   0x00000038   Code   RO          156    i.ad9850_reset      ad9850.o
    0x080043e8   0x080043e8   0x0000006c   Code   RO          158    i.ad9850_wr_parrel  ad9850.o
    0x08004454   0x08004454   0x00000018   Code   RO         3860    i.fabs              m_wm.l(fabs.o)
    0x0800446c   0x0800446c   0x00000020   Code   RO          415    i.fputc             usart.o
    0x0800448c   0x0800448c   0x00000220   Code   RO          204    i.main              main.o
    0x080046ac   0x080046ac   0x000000bc   Code   RO           13    i.my_dsp_dft_q15    my_dsp.o
    0x08004768   0x08004768   0x00000008   Data   RO         1363    .constdata          stm32f4xx_hal_dma.o
    0x08004770   0x08004770   0x00000018   Data   RO         3379    .constdata          system_stm32f4xx.o
    0x08004788   0x08004788   0x00000030   Data   RO         3770    .constdata          m_wm.l(cos_i.o)
    0x080047b8   0x080047b8   0x000000c8   Data   RO         3804    .constdata          m_wm.l(rred.o)
    0x08004880   0x08004880   0x00000028   Data   RO         3808    .constdata          m_wm.l(sin_i.o)
    0x080048a8   0x080048a8   0x00000020   Data   RO         3876    Region$$Table       anon$$obj.o


    Execution Region RW_IRAM2 (Exec base: 0x10000000, Load base: 0x08004a60, Size: 0x00000000, Max: 0x00010000, ABSOLUTE)

    **** No section assigned to this execution region ****


    Execution Region RW_IRAM1 (Exec base: 0x20000000, Load base: 0x080048c8, Size: 0x00004328, Max: 0x00020000, ABSOLUTE, COMPRESSED[0x00000198])

    Exec Addr    Load Addr    Size         Type   Attr      Idx    E Section Name        Object

    0x20000000   COMPRESSED   0x00000194   Data   RW          205    .data               main.o
    0x20000194   COMPRESSED   0x00000009   Data   RW         1795    .data               stm32f4xx_hal.o
    0x2000019d   COMPRESSED   0x00000003   PAD
    0x200001a0   COMPRESSED   0x00000004   Data   RW         3380    .data               system_stm32f4xx.o
    0x200001a4   COMPRESSED   0x00000004   Data   RW         3829    .data               mc_w.l(stdout.o)
    0x200001a8   COMPRESSED   0x00000004   Data   RW         3839    .data               mc_w.l(errno.o)
    0x200001ac        -       0x000000f0   Zero   RW          302    .bss                adc.o
    0x2000029c        -       0x00000048   Zero   RW          373    .bss                tim.o
    0x200002e4        -       0x00000044   Zero   RW          416    .bss                usart.o
    0x20000328        -       0x00004000   Zero   RW            1    STACK               startup_stm32f407xx.o


==============================================================================

Image component sizes


      Code (inc. data)   RO Data    RW Data    ZI Data      Debug   Object Name

       164         16          0          0          0       1134   ad9850.o
       544         46          0          0        240       2540   adc.o
        56          4          0          0          0        750   dma.o
       252         12          0          0          0       1023   gpio.o
       762         74          0        404          0      18280   main.o
       188         12          0          0          0     723421   my_dsp.o
        36          8        392          0      16384        828   startup_stm32f407xx.o
       172         32          0          9          0       8705   stm32f4xx_hal.o
      1188         52          0          0          0       4746   stm32f4xx_hal_adc.o
       562         28          0          0          0       4090   stm32f4xx_hal_adc_ex.o
       304         22          0          0          0      34395   stm32f4xx_hal_cortex.o
      1224         16          8          0          0       5495   stm32f4xx_hal_dma.o
       528         46          0          0          0       2080   stm32f4xx_hal_gpio.o
        72          4          0          0          0        842   stm32f4xx_hal_msp.o
      1866         92          0          0          0       7187   stm32f4xx_hal_rcc.o
       906         76          0          0          0       6962   stm32f4xx_hal_tim.o
       180         30          0          0          0       1320   stm32f4xx_hal_tim_ex.o
       988         10          0          0          0       3740   stm32f4xx_hal_uart.o
        54          6          0          0          0       4664   stm32f4xx_it.o
        20          6         24          4          0       1103   system_stm32f4xx.o
       160         16          0          0         72       1630   tim.o
       224         28          0          0         68       2314   usart.o

    ----------------------------------------------------------------------
     10464        636        456        420      16764     837249   Object Totals
         0          0         32          0          0          0   (incl. Generated)
        14          0          0          3          0          0   (incl. Padding)

    ----------------------------------------------------------------------

      Code (inc. data)   RO Data    RW Data    ZI Data      Debug   Library Member Name

        72          0          0          0          0      17187   arm_dot_prod_q15.o
       684         90          0          0          0        208   atan2f.o
       200         20          0          0          0        164   cos.o
       368         46         48          0          0        200   cos_i.o
        84         16          0          0          0        372   dunder.o
        24          0          0          0          0        124   fabs.o
        48          0          0          0          0        124   fpclassify.o
        38          0          0          0          0        116   fpclassifyf.o
        22          6          0          0          0        232   funder.o
       248          0          0          0          0        152   poly.o
      1080        142        200          0          0        188   rred.o
       200         20          0          0          0        164   sin.o
       304         24         40          0          0        208   sin_i.o
        58          0          0          0          0          0   __dczerorl.o
         0          0          0          0          0          0   entry.o
         0          0          0          0          0          0   entry10a.o
         0          0          0          0          0          0   entry11a.o
         4          0          0          0          0          0   entry12b.o
         8          4          0          0          0          0   entry2.o
         4          0          0          0          0          0   entry5.o
         0          0          0          0          0          0   entry7b.o
         0          0          0          0          0          0   entry8b.o
         8          4          0          0          0          0   entry9a.o
        12          6          0          4          0         68   errno.o
        30          0          0          0          0          0   handlers.o
        36          8          0          0          0         68   init.o
         0          0          0          0          0          0   iusefp.o
        30          0          0          0          0         68   llshl.o
        36          0          0          0          0         68   llsshr.o
        32          0          0          0          0         68   llushr.o
        36          0          0          0          0        108   memseta.o
      2218         90          0          0          0        464   printfa.o
         0          0          0          4          0          0   stdout.o
        44          0          0          0          0         80   uidiv.o
        98          0          0          0          0         92   uldiv.o
        48          0          0          0          0         68   cdrcmple.o
       334          0          0          0          0        148   dadd.o
       222          0          0          0          0        100   ddiv.o
       186          0          0          0          0        176   depilogue.o
        62          0          0          0          0         80   dfixi.o
        48          0          0          0          0         68   dfixul.o
        34          0          0          0          0         76   dflti.o
        26          0          0          0          0         76   dfltui.o
       228          0          0          0          0         96   dmul.o
        38          0          0          0          0         68   f2d.o
       110          0          0          0          0        168   fepilogue.o
        44          0          0          0          0         92   ffltl.o

    ----------------------------------------------------------------------
      7424        480        288          8          0      21739   Library Totals
        18          4          0          0          0          0   (incl. Padding)

    ----------------------------------------------------------------------

      Code (inc. data)   RO Data    RW Data    ZI Data      Debug   Library Name

        72          0          0          0          0      17187   arm_cortexM4lf_math.lib
      3300        364        288          0          0       2252   m_wm.l
      2654        112          0          8          0       1084   mc_w.l
      1380          0          0          0          0       1216   mf_w.l

    ----------------------------------------------------------------------
      7424        480        288          8          0      21739   Library Totals

    ----------------------------------------------------------------------

==============================================================================


      Code (inc. data)   RO Data    RW Data    ZI Data      Debug   

     17888       1116        744        428      16764     849128   Grand Totals
     17888       1116        744        408      16764     849128   ELF Image Totals (compressed)
     17888       1116        744        408          0          0   ROM Totals

==============================================================================

    Total RO  Size (Code + RO Data)                18632 (  18.20kB)
    Total RW  Size (RW Data + ZI Data)             17192 (  16.79kB)
    Total ROM Size (Code + RO Data + RW Data)      19040 (  18.59kB)

==============================================================================

