:020000040800F2
:10000000A00500209D0100087F1400087D13000852
:100010007D14000823070008F51700080000000001
:100020000000000000000000000000008314000831
:10003000250700080000000081140008851400084E
:10004000B7010008B7010008B7010008B7010008B0
:10005000B7010008B7010008B7010008B7010008A0
:10006000B7010008B7010008B7010008B701000890
:10007000B7010008B7010008B7010008B701000880
:10008000B7010008B7010008B7010008B701000870
:10009000B7010008B7010008B7010008B701000860
:1000A000B7010008B7010008B7010008B701000850
:1000B000B7010008B7010008B7010008B701000840
:1000C000B7010008B7010008B7010008B701000830
:1000D000B7010008DD170008E9170008B70100089C
:1000E000B7010008B7010008B7010008B701000810
:1000F000B7010008B7010008B7010008B701000800
:10010000B7010008B7010008B7010008B7010008EF
:10011000B7010008B7010008B7010008B7010008DF
:10012000B7010008B7010008B7010008B7010008CF
:10013000B7010008B7010008B7010008B7010008BF
:10014000B7010008B7010008B7010008B7010008AF
:10015000B7010008B7010008B7010008B70100089F
:10016000B7010008B7010008B7010008B70100088F
:10017000B7010008B7010008B7010008000000003F
:10018000B7010008B7010008DFF80CD000F048FA0A
:100190000048004769210008A00500200648804764
:1001A00006480047FEE7FEE7FEE7FEE7FEE7FEE75C
:1001B000FEE7FEE7FEE7FEE70D15000889010008EF
:1001C0002DE9F05F0546002092469B46884606468C
:1001D000814640241BE0284641464746224600F01F
:1001E00057F853465A46C01A914110D31146184643
:1001F000224600F03EF82D1A67EB01084F462246D2
:100200000120002100F035F817EB00094E41201EB7
:10021000A4F10104DFDC484631462A464346BDE8E6
:10022000F09FD2B201E000F8012B491EFBD27047CB
:100230000022F6E710B513460A4604461946FFF7B2
:10024000F0FF204610BD30B50B46014600202022AD
:10025000012409E021FA02F59D4205D303FA02F5D3
:10026000491B04FA02F52844151EA2F10102F1DC33
:1002700030BD202A04DB203A00FA02F1002070474A
:100280009140C2F1200320FA03F3194390407047D4
:10029000202A04DB203A21FA02F00021704721FADB
:1002A00002F3D040C2F12002914008431946704742
:1002B0002DE9FE4F804681EA0300C00F0C460090F6
:1002C00021F0004123F00045B8EB0200A94105D21E
:1002D0004046214690461C460B46024623F000400D
:1002E000104347D0270DC7F30A00C3F30A51029009
:1002F000401A019040286BDAC3F3130040F4801BCE
:100300000098924620B10023D2EB030A63EB0B0B5B
:1003100001985946C0F140025046FFF7AAFF064631
:100320000D4650465946019A00F08CF910EB080032
:100330006141002487EA115284EAE7731A4340D0EE
:10034000009A62B3019A012A4FEA075215DC001B9A
:1003500061EB02014FF0004202EA0752CDE9004290
:10036000001C41F5801132462B4600F08CF903B099
:10037000BDE8F08F40462146F9E7001B61EB020122
:10038000001C41F5801300185B412018A2F50017EE
:1003900047EB030140EAD570B6196D4111E06D08D5
:1003A0004FEA360645EAC0754FEA0752001B61EB7B
:1003B0000201001C41F5801149084FEA3000001984
:1003C000514132462B4603B0BDE8F04F00F04CB926
:1003D0000098012240000023D0EB020263EBE0739F
:1003E000009821464FEAE074B8EB000061EB04018D
:1003F000E9E783F000435BE781F0004158E72DE92E
:10040000FE4F81EA030404F0004421F0004100940F
:100410004FF0000B23F0004350EA01045ED052EA93
:1004200003045BD0C3F30A54C1F30A552C44A4F26D
:10043000F3340194A0FB0254C1F3130141F4801181
:10044000C3F3130343F4801301FB024400FB034E88
:10045000840A970A44EA815447EA8357A4FB076851
:1004600002958D0A05FB07854FEA932C04FB0C547B
:100470002705029D4FEA065847EA1637B5EB0805EF
:100480006EEB070C870E920E47EA811742EA831241
:10049000A7FB0201B6EB0B0164EB00042B0D43EA52
:1004A0000C335E1844EB1C50DA465146E7FB020160
:1004B000C5F313044FEA0B3343EA14534FEA0432F3
:1004C000019C43EA0603A4F10C040294009CCDE9CC
:1004D00000B400F0D8F803B0BDE8F08F002001466A
:1004E000F9E72DE9F04D81EA030404F0004B21F017
:1004F000004514464FF0000A23F0004150EA05027F
:1005000020D054EA01021DD0C5F30A570246C5F3B4
:100510001303C1F31300C1F30A5640F4801543F4EA
:100520008013A7EB0608101BD64608F2FD3873EBC4
:10053000050002D308F1010801E092185B41B8F10F
:10054000000F03DA00200146BDE8F08D00204FF4D3
:100550008011064684460EE0171B73EB050705D392
:10056000121B63EB050306434CEA010C49084FEAF2
:10057000300092185B4150EA0107EDD152EA0300C6
:1005800012D082EA040083EA0501084305D0101B5B
:10059000AB4106D20122002306E000224FF00043C7
:1005A00002E06FF0010253101AEB06004CEB085109
:1005B00010EB0A0041EB0B01BDE8F04D00F054B820
:1005C000C1F30A52C1F3130140F2FF3341F4801129
:1005D0009A4202DA00200146704740F233439A42C1
:1005E000A2F2334202DC5242FFF752BEFFF741BE95
:1005F00030B5041E71F1000404DB4FF000444042AA
:1006000064EB0101141E73F1000405DB1C464FF07E
:100610000043524263EB0403994208BF904230BD4D
:10062000064C074D06E0E06840F0010394E807003F
:1006300098471034AC42F6D3FFF7AAFD3C220008DD
:100640005C220008202A06DBCB17203A41FA02F090
:1006500043EAE07306E041FA02F3D040C2F120021F
:10066000914008431946704710B5141E73F10004F9
:1006700008DA401C41F1000192185B411A4301D194
:1006800020F0010010BD2DE9F04D92469B4611B1BE
:10069000B1FA81F202E0B0FA80F220329046FFF720
:1006A000E8FD04460F4640EA0A0041EA0B015346C2
:1006B0005A46084313D0114653EA010019D0C8F135
:1006C00040025046FFF7E4FD05460E4650465946A7
:1006D0004246FFF7CEFD084305D0012004E0204646
:1006E0003946BDE8F08D0020054346EAE0762C430C
:1006F00037430A986305E40AA0EB08000022FD0ACC
:1007000044EA47540A3002D500200146E9E70105D2
:1007100010196941DDE9084500196941BDE8F04D4E
:10072000A2E7FEE77047704790F83510022903D022
:100730008021416501207047052180F8351000684F
:10074000016821F001010160002070472DE9F84F98
:1007500000224FF0010803254FF00F0E0B6808FA36
:1007600002F42340A3426ED14E68012E05D0022E22
:1007700003D0112E01D0122E12D186684FEA420CFE
:1007800005FA0CF7BE43CF6807FA0CF737438760CA
:100790004668A6430C79C4F3001494403443446083
:1007A000C668570005FA07FC8C6826EA0C06BC40B0
:1007B0003443C4604C68022C01D0122C13D1D408ED
:1007C00000EB8404A346D4F8209054074FEAD46A7F
:1007D0000EFA0AF629EA06090E6906FA0AF646EA48
:1007E0000906CBF8206006680C7926EA0C0604F0AE
:1007F0000304BC40344304604C68E40065D5364CC7
:10080000266846F480462660246822F0030604F435
:1008100080440094314C3444A446D4F808489607E8
:10082000370F0EFA07F6B4432D4EB04201D1002621
:1008300024E02C4EB04201D101261FE02A4EB042E6
:1008400002D102261AE040E0284EB04201D1032630
:1008500014E0274EB04201D104260FE0254EB042ED
:1008600001D105260AE0244EB04201D1062605E05A
:10087000224EB04201D1072600E00826BE402643A2
:10088000CCF808681E4E34684F689C43FF0300D5BF
:100890001C4334601A4C241D26684F689E43BF03D6
:1008A00000D51E432660164E083634684F689C43B8
:1008B000FF0200D51C433460114E0C3634684F687B
:1008C0009C43BF0200D51C433460521C102AFFF425
:1008D00045AFBDE8F88F00004438024000300140C9
:1008E000000002400004024000080240000C0240E8
:1008F000001002400014024000180240001C024098
:10090000003C01400AB1816170470904FBE7000027
:1009100001488068704700000C0000200248816890
:1009200002781144816070470C0000200B4810B51C
:10093000016841F400710160016841F48061016067
:10094000016841F480710160032000F06FF800201D
:1009500000F006F800F024F8002010BD003C024032
:1009600070B50D4D04464FF47A712878B1FBF0F064
:100970000A490968B1FBF0F000F004FB48B9102CFB
:1009800007D200222146501E00F030F800206C6093
:1009900070BD012070BD00000C0000201800002078
:1009A0000A4808B5016841F480410160006800F41C
:1009B000804000900548001F016841F080510160AF
:1009C000006800F08050009008BD000044380240EC
:1009D000002809DB00F01F0201219140400980003E
:1009E00000F1E020C0F8001170470000F0B40E4B99
:1009F0001B680C46C3F30223C3F10705042D00D97D
:100A00000425191D072901D2002300E0DB1E012661
:100A100006FA05F1491E214099409E40761E164077
:100A20003143F0BC00F00EBF0CED00E0064900F0D1
:100A3000070208684FF6FF03184040EA0220034A05
:100A400010430860704700000CED00E00000FA055C
:100A50002DE9F0470E46050065D0DFF81481D8F87F
:100A60000000F7B200F00F00B04207D288F8007023
:100A7000D8F8000000F00F00B04254D128683D4C77
:100A8000810712D5400703D5206840F4E05020606C
:100A90002878000703D5206840F460402060206873
:100AA000A96820F0F000084320602878C0072DD006
:100AB000304968680839012812D0022813D0032869
:100AC00011D00968890700292DDA216821F0030176
:100AD00001432160FFF71CFF814641F2883A0EE096
:100AE00009688903EFE709688901ECE7FFF710FF60
:100AF000A0EB0901514502D90320BDE8F087206829
:100B0000696800F00C00B0EB810FEFD1D8F800104D
:100B1000404601F00F01B14207D90770006800F0AC
:100B20000F00B04201D00120E7E72878400705D543
:100B30002068E96820F4E050084320602878000726
:100B400006D52068296920F4604040EAC100206091
:100B500000F038F82168084AC1F30311515CC8401D
:100B60000649086006480068FFF7FAFE0020C4E75F
:100B7000003C0240083802402422000818000020EF
:100B8000100000200448054900680968044AC1F3C0
:100B90008221515CC840704718000020083802408C
:100BA000342200080448054900680968044AC1F372
:100BB0004231515CC840704718000020083802409C
:100BC00034220008154810B5006810F00C021448D3
:100BD00013D01449042A0FD0082A0ED10F4C241F19
:100BE0002268236802F03F025B0207D52068C0F349
:100BF0008810A0FB010106E0084610BD2168C1F382
:100C00008811A1FB00010023FFF7DAFA2168C1F384
:100C10000141491C4900B0FBF1F010BD0838024009
:100C20000024F40040787D012DE9F84F04006ED0D7
:100C30002078DFF83C93C007A9F104054AD009F1F8
:100C400004000168C1F38101012908D00068C0F3E4
:100C5000810002280AD1D9F80000400206D5286890
:100C6000800337D560680028E1D033E06068B0F5D4
:100C7000803F10D0B0F5A02F286810D020F480302D
:100C80002860286820F4802028606068A8B1FFF7F9
:100C90003FFE06460DE0286840F48030F4E740F45B
:100CA00080202860F7E700BFFFF732FE801B642832
:100CB00073D828688003F7D50CE0FFF729FE0646B5
:100CC00005E000BFFFF724FE801B6428F0D82868E9
:100CD0008003F7D42078DFF89C8280074FF0000A69
:100CE0003ED5A348001D016811F00C0F08D0006824
:100CF000C0F3810002280BD1D9F80000400207D4CC
:100D00002868800716D5E068012800D112E02BE1A1
:100D1000E068B8B10120C8F80000FFF7F9FD064609
:100D200005E000BFFFF7F4FD801B0228C0D828684B
:100D30008007F7D52868216920F0F80040EAC10053
:100D400028600DE0C8F800A0FFF7E2FD064604E0C9
:100D5000FFF7DEFD801B02281FD828688007F7D424
:100D60002078000722D5824E83486169703671B1C0
:100D700001210160FFF7CCFD074604E0FFF7C8FD45
:100D8000C01B022809D830688007F7D50EE0C0F8EC
:100D900000A0FFF7BDFD074605E082E0FFF7B8FDC4
:100DA000C01B02287DD830688007F7D42078400720
:100DB00068D5DFF8BCB100270BF13C0BDBF8000075
:100DC000C0000BD4DBF8001041F08051CBF80010CC
:100DD000DBF80000012700F080500090674E30687B
:100DE000C00510D4306840F480703060FFF790FD8B
:100DF000009005E0FFF78CFD0099401A022850D8BA
:100E00003068C005F6D55A4EA0686C3601280FD060
:100E10000528306810D020F001003060306820F0E4
:100E200004003060A068B8B1FFF772FD00900FE0D9
:100E3000306840F00100F4E740F004003060F7E76C
:100E4000FFF766FD0099411A41F28830814266D869
:100E500030688007F4D50EE0FFF75AFD009007E0F8
:100E6000FFF756FD0099411A41F28830814256D869
:100E700030688007F4D42FB1DBF8001021F08051E6
:100E8000CBF80010A069C8B33949091D0968C1F33E
:100E9000810102294AD00228504607D0C8F86000D4
:100EA00000E03CE0FFF734FD04463BE04746C8F86D
:100EB0006000FFF72DFD064605E000BFFFF728FDA7
:100EC000801B02282BD828688001F7D4D4E90701B9
:100ED0000843A16A2A4A490802EB0141626A41EAD1
:100EE0008211084394F82C1040EA0161C9F80010FF
:100EF00001203866FFF70CFD044606E036E000BF2F
:100F0000FFF706FD001B022809D828688001F7D5E5
:100F10002CE000BFFFF7FCFC001B022802D90320D5
:100F2000BDE8F88F28688001F4D41FE00128F7D0CD
:100F3000D9F80000E26900F48001914214D1226ADC
:100F400000F03F0191420FD147F6C071626A014043
:100F5000914209D1A26A00F44031914204D1E16A80
:100F600000F07060884201D00120D9E70020D7E767
:100F70000438024000004742800E474200700040A3
:100F80000000FFFF10B5401EB0F1807F01D30120AB
:100F900010BD4FF0E02460610F21601700F052FC9B
:100FA0000020A06107202061002010BD70470000D4
:100FB00070B5026804461068D168536910F00F0FCD
:100FC00052D003F0010501F490762E435FD0C207A2
:100FD00005D0CA0503D5E26B42F00102E263420785
:100FE00005D5DA0703D0E26B42F00202E263820722
:100FF00005D5DA0703D0E26B42F00402E263020790
:1010000007D501F020022A4303D0E26B42F0080228
:10101000E263E26B002A33D0800604D5880602D54D
:10102000204600F097FA20684069E16BC0F3801019
:10103000090700D428B3204600F07EFA20684169F1
:1010400049061AD5416921F040014161606BA0B1A8
:101050001B490165606BFFF767FB002810D0606BD0
:10106000016DBDE870400847830610D58B060ED58C
:101070002046BDE8704000F06DBA2046FFF796FFAD
:1010800070BD2046FFF792FF0020E06370BD0306AD
:1010900006D50B0604D52046BDE8704000F03ABBEB
:1010A0004006F3D54806F1D5D168204621F040012D
:1010B000D160202184F8391000F05FF970BD000084
:1010C0002915000870B5040004D094F839000025F3
:1010D00010B106E0012070BD84F83850204600F0C1
:1010E00023F8242084F839002068C16821F40051D5
:1010F000C160204600F07AFA2068016921F490412D
:1011000001612068416921F02A0141612068C168BC
:1011100041F40051C160E563202084F8390084F86F
:101120003A00002070BD0000F0B587B004461421DD
:101130006846FFF77DF82A4F2368002229490224D8
:10114000032507262848BB4221D1264B14331F68AC
:1011500047F010071F601B6803F0100305930B682E
:1011600043F001030B60096802AB01F00101059136
:101170006902CDE9001483E864006946FFF7E6FAE6
:10118000002201212520FFF731FC252023E0174F05
:10119000BB4222D1134B10331F6847F400371F6046
:1011A0001B6803F4003305930B6843F001030B60E5
:1011B000096802AB01F0010105910C21CDE9001491
:1011C00083E864006946FFF7C1FA00220221262065
:1011D000FFF70CFC2620FFF7FBFB07B0F0BD00007B
:1011E000001001403038024000000240004400403E
:1011F00090F83A30202B22D1F9B1F2B190F8383082
:10120000012B1CD081628285C2850021C16322220C
:1012100080F83A2080F838100168CA6842F4807279
:10122000CA6001684A6942F001024A610068C16807
:1012300041F02001C160002070470120704702206A
:101240007047000070B50546006817490126174C25
:1012500088420FD1601C164A017860681154401C06
:1012600060600A2900D1267010490122491C1148EA
:10127000FFF7BEFF10492868884213D10B480C4A7B
:10128000C01C80320178A0681154401CA0600A295B
:1012900000D1A670BDE8704004490122C91C07486E
:1012A000FFF7A6BF70BD0000001001400000002045
:1012B00020000020200100200044004060010020A8
:1012C0002DE9F843044690F839001F4616460D46AE
:1012D000202850D1B5B1AEB194F8380001284AD0D9
:1012E000012084F838004FF00008C4F83C80212029
:1012F00084F83900FFF70CFBA6848146E68484F865
:10130000388026E00120BDE8F883E08C401EE084B0
:10131000A0684B46B0F5805F4FF000024FF08001AF
:101320002046009703D000F026FAE8B90DE000F05F
:1013300022FAC8B928882168C0F3080048602069EB
:1013400008B16D1C05E0AD1C03E0216815F8010B28
:101350004860E08C0028D8D14B460022402120462E
:10136000009700F008FA08B10320CCE7202084F8A9
:1013700039000020C7E70220C5E77047FEE70000FC
:1013800030B587B014216846FEF752FF1D4800248F
:10139000016841F004010160016801F00401059158
:1013A000016841F080010160016801F08001059150
:1013B000016841F001010160016801F0010105913E
:1013C000016841F00201016000680F4D00F0020069
:1013D0000590012202212846FFF794FA022000908E
:1013E0000120CDE90104694628460394FFF7AEF9D0
:1013F0001020CDE90004694628460294FFF7A6F9BB
:1014000007B030BD30380240000002400C4810B533
:101410000A4901604FF4E1314160002181600C22F2
:10142000C160C0E904128161C161FFF74BFE002871
:1014300003D0BDE81040FFF776B910BD00100140A1
:10144000200100200C4810B50A4901604FF41641F4
:101450004160002181600C22C160C0E904128161F9
:10146000C161FFF72FFE002803D0BDE81040FFF751
:101470005AB910BD0044004060010020FEE77047EB
:1014800070477047FFF74ABA30B593B030216846CD
:10149000FEF7CEFE14210CA8FEF7CAFE194800255F
:1014A000016841F080510160006800F080501190A7
:1014B0001548016841F4804101600068022400F48D
:1014C0008040119001200390102004900094069415
:1014D0000820CDE90750A820CDE9090404200B908D
:1014E0006846FFF7A1FB0CA90F2081E831004FF4FB
:1014F000A0500F90E002109005210CA8FFF7A8FA69
:1015000013B030BD4038024000700040054801680B
:1015100041F47001016003494FF0006080390860B8
:101520007047000088ED00E010B5806B0021C18598
:10153000C184FFF73BFD10BD0168CA6822F49072B8
:10154000CA6001684A6922F001024A61202180F8DC
:101550003A10704710B590F83A10222901D00220B5
:1015600010BD8168B1F5805F11D001690029016863
:101570001FD0496801F07F03816A4A1C82620B70A8
:10158000C18D491E0904090CC18518D02BE00269E0
:10159000816A002A0268526805D0D2B20A80816A44
:1015A000491C8162ECE7C2F308020A80816A891C47
:1015B000F7E74A68816A4B1C83620A70E0E70168BA
:1015C000CA6822F02002CA600168CA6822F48072E8
:1015D000CA6001684A6922F001024A61202180F84C
:1015E0003A10FFF72FFE002010BD00002DE9F0415A
:1015F000044600680169E26821F440511143016129
:101600002169A068E26908436169114308432168C0
:10161000CA6849F20C639A430243CA602068416970
:10162000A26921F4407111434161E06919276425E1
:101630003226B0F5004F354A354920684FF0000892
:1016400006D0884201D0904236D1FFF7ABFA35E0A0
:10165000884201D0904202D1FFF7A4FA01E0FFF7DF
:1016600091FA61684A18A0FB070148EB0803FEF7EE
:10167000A7FD0146B0FBF5F00201B1FBF5F06FF0FC
:101680001803584301EB800006EBC000B0FBF5F0F7
:1016900000F0F80002EB4002B1FBF5F0584301EB1B
:1016A000800006EBC000B0FBF5F000F007002168F9
:1016B00010448860BDE8F081FFF764FA61688B0F21
:1016C0008A00A0FB0701FEF77BFD0146B0FBF5F0A9
:1016D0006FF01802504301EB800006EB0010B0FBE6
:1016E000F5F000F0F002B1FBF5F002EB0012B1FBF7
:1016F000F5F06FF01803584301EB800006EB001083
:10170000B0FBF5F000F00F00D1E70000001401403D
:101710000010014090F83910212901D002207047B3
:101720008168B1F5805F016A0BD04A1C02620268D1
:1017300009785160C18C491E0904090CC1840ED07E
:1017400017E009880268C1F30801516001690029A6
:10175000016A02D0491C0162ECE7891CFBE70168C1
:10176000CA6822F08002CA600068C16841F0400186
:10177000C160002070472DE9F041984617460E469B
:101780000446069D1DE0681C1BD02DB1FFF7C0F874
:10179000A0EB0800A84214D92068C16821F4D071D8
:1017A000C1602068416921F001014161202084F875
:1017B000390084F83A00002084F838000320BDE89E
:1017C000F0812068006836EA000004D00020B842AA
:1017D000D9D00020F3E70120F9E700000148FFF726
:1017E000E7BB0000200100200148FFF7E1BB00003B
:1017F00060010020FEE700000FB4054B10B503A9FF
:10180000044A029800F000F910BC5DF814FB0000D7
:101810004D2100081C0000207CB5044600201D4618
:10182000164600290BD0491ECDE90041044B6A46FB
:101830002946304600F0E8F8009A002111707CBD7E
:10184000372100080907090E002804DB00F1E02019
:1018500080F80014704700F00F0000F1E02080F8DD
:10186000141D704702E008C8121F08C1002AFAD1EF
:1018700070477047002001E001C1121F002AFBD110
:10188000704700002DE9FF5F82B00021DDE90430E0
:10189000020DDDF840B0034318D044F61050A2F218
:1018A000FF3242431514119801281FD0A5EB0B00FD
:1018B000401C5FEA000A4FF000064E4FDFF83891F7
:1018C000B046504615D5CAF1000413E01198012422
:1018D0004AA3012801D16FEA0B010298119AC0E9CD
:1018E0000031C0E9024206B0BDE8F09FCBF1000034
:1018F000DFE704460021404A491842EB0450CDE995
:10190000001012E0E00707D032463B464046494609
:10191000FEF775FD8046894632463B46104619461D
:10192000FEF76DFD06460F466410002CEAD1DDE996
:101930000401DDE90023BAF1000F06DAFEF75FFDCE
:1019400042464B46FEF75BFD05E0FEF7CAFD424608
:101950004B46FEF7C6FD04460E460022284BFEF716
:1019600047FE03D84FF0FF30014607E00022254B29
:1019700020463146FEF79CFCFEF722FE102409E0CB
:10198000002C0ADB0A220023FEF71AFC039B3032EC
:101990001A55641E50EA0102F2D1641C039AC4F184
:1019A00011031444119A012A03D0012208430DD1D6
:1019B0000AE0084304D000204FF0110B119072E7A9
:1019C000A3EB0B056D1E0DE05B4504DD4FF000023F
:1019D00005F1010504E003DA4FF00002A5F101056D
:1019E000002AECD002981199C0E90231C0E9004503
:1019F00079E70000000014400000F03F30000000D4
:101A00000000F0430000E03F2DE9FF4F95B09B46FA
:101A10008946064600250FE2252877D1002427466F
:101A2000F84A0121059400E0044316F8013F203BE9
:101A300001FA03F01042F7D130782A2811D06FF064
:101A40002F033078A0F13002092A16D8059A44F005
:101A5000020402EB820203EB42021044761C059062
:101A6000EFE759F8042B0592002A03DA504244F4B8
:101A70000054059044F00204761C30782E2816D1CC
:101A800016F8010F44F004042A280DD06FF02F023D
:101A90003078A0F13003092B09D807EB870302EB5C
:101AA0004303C718761CF3E759F8047B761C30789B
:101AB0006C280FD006DC4C2817D068280DD06A2877
:101AC00014D104E0742810D07A280FD10DE044F42A
:101AD00000140AE044F4801401E044F440147278E5
:101AE000824202D104F58014761C761C3078662878
:101AF0000BD013DC582877D009DC002875D0452896
:101B0000F6D04628F4D047281AD19DE118E0632882
:101B100035D0642879D0652812D195E1702873D02A
:101B200008DC6728F1D069286FD06E280DD06F28A7
:101B300006D1B5E073282CD0752875D0782874D0DC
:101B40005A46179990476D1C75E1C4F3025002285C
:101B500009D003280DD0D9F8001004280DD00D604D
:101B600009F1040967E1D9F80010EA17C1E9005248
:101B7000F6E7D9F800100D80F2E70D70F0E719F8DC
:101B8000041B8DF8001000208DF80100EA460120AA
:101B900003E059F804AB4FF0FF3061074FF000014C
:101BA00002D40DE008F101018846B9420FDA804500
:101BB000F8DB1AF808100029F4D108E008F1010157
:101BC00088468142FADB1AF808100029F6D10598F8
:101BD0005B46A0EB080721463846179A00F094FAB6
:101BE000284400EB080507E04DE029E10DE01AF874
:101BF000010B5A4617999047B8F10108F7D25B4696
:101C000021463846179A13E142E00A220092C4F3B3
:101C100002524FF0000A022A08D059F804CB032AD6
:101C20004FEAEC710AD00DE029E02AE009F1070142
:101C300021F00702F2E802C1914609E00FFA8CFC9C
:101C40004FEAEC71042A03D14FFA8CFC4FEAEC7195
:101C5000002907DA0A460021DCF1000C61EB0201E1
:101C60002D2202E0220504D52B228DF8042001222A
:101C700003E0E20701D02022F7E7904659E00A216D
:101C800002E010220DE010214FF0000A00910BE05D
:101C900010224FF0000A44F004040827009203E0E9
:101CA00008224FF0000A0092C4F30252022A05D023
:101CB00059F804CB0021032A08D009E009F10701F3
:101CC00021F00702F2E802C1914605E01FFA8CFC00
:101CD000042A01D10CF0FF0C4FF00008220728D590
:101CE000702806D0009B83F0100353EA0A0305D046
:101CF0000EE040228DF80420012208E05CEA010297
:101D000006D030228DF804208DF80500022290467E
:101D1000009B83F0080353EA0A030AD15CEA01023C
:101D200001D1620705D530228DF804204FF001085B
:101D30007F1E582804D034A003900EA802900DE016
:101D400036A0F9E753466046009AFEF739FA844612
:101D50000398825C0298401E029002705CEA0100C7
:101D6000F0D1029806A9081A00F1200A600702D5EE
:101D700024F4803400E00127574502DDA7EB0A0078
:101D800000E0002000EB0A01009005984144401A51
:101D90000590E00306D45B462146179A059800F0AB
:101DA000B3F90544002706E001A85A46C05D17991B
:101DB00090476D1C7F1C4745F6DBE0030CD55B4666
:101DC0002146179A059800F09FF9054404E0302059
:101DD0005A46179990476D1C0099481E009000299B
:101DE000F5DC08E0029802995A460078491C0291F5
:101DF000179990476D1CBAF10001AAF1010AF1DCB4
:101E000065E10000092801003031323334353637BE
:101E10003839616263646566000000003031323336
:101E200034353637383941424344454600000000D6
:101E300000F058F90544761C307800287FF4ECADAA
:101E400019B02846BDE8F08F620700D4062709F1D3
:101E5000070222F0070CFCE80223E14603F00048E9
:101E60005FEA080C02D00FF2702C0DE05FEA045C10
:101E700002D50FF2682C07E05FEAC47C02D00FF2B3
:101E8000602C01E0AFF2700C4FF0FF3823F00043FC
:101E9000CDF850C065280CD006DC452809D046286E
:101EA0001DD047283DD13DE0662818D067287ED157
:101EB00038E00021112F01DB112000E0781CCDE972
:101EC000000106A90EA8FFF7DDFCDDE90F010E9A5F
:101ED00003910021009207F1010A04914DE04FF0B7
:101EE00000400097CDE9011006A90EA8FFF7CAFC33
:101EF000DDE90F0203920E9B11990022DDF80CA080
:101F00000093049211B9791C00EB010AB7EB0A00A7
:101F100004D4C0F1FF3007F1010A0490AAEB0700D6
:101F2000019044E0012F00DA01270021112F01DD8B
:101F3000112000E03846CDE9000106A90EA8FFF700
:101F4000A1FCDDE90F010E9A03910021049100929A
:101F5000BA4621070CD40399514500DA8A46BAF1F2
:101F6000010F05DD009AAAF10101515C302908D06A
:101F7000B84202DA10F1040F06DA0121CDE90110AE
:101F800015E0AAF10101E9E7002805DC0499014404
:101F90000491AAEB000102E0411C514500DD8A4694
:101FA0000499401A401C01904FF000400290200715
:101FB00004D40198504501DBCDF8048000208DF851
:101FC0004F0002980DF14F07B0F1004F25D02B20A4
:101FD0000E9002984FF0020800280CDA404202905E
:101FE0002D200E9007E00A210298FEF72CF93031DF
:101FF000029007F8011DB8F10001A8F10108F2DC18
:1020000002980028EFD1791E0E980870307800F001
:10201000200040F0450007F8020D12A8C01B00F197
:1020200007081498007800B1012000EB0A0101981C
:1020300001EBE07105984144401A401E0590E00311
:1020400006D45B462146179A059800F05DF80544D2
:102050001498007818B15A46179990476D1CE00300
:1020600024D55B462146179A059800F04DF80544A3
:102070001CE00498002807DBDDE90301884203DD4A
:102080000098405C179901E0179930205A46904714
:10209000049805F10105401C04900198401E019030
:1020A00004D12E205A46179990476D1CBAF10001B1
:1020B000AAF1010ADDDC05E017F8010B5A46179971
:1020C00090476D1CB8F10001A8F10108F4DC5B46F3
:1020D0002146179A0598ABE62D0000002B00000062
:1020E000200000002DE9F041044600251E46174659
:1020F000880404D405E039462020B0476D1C641ED6
:10210000F9D52846BDE8F0812DE9F04104460025C7
:102110001E469046C80301D5302700E020278804DA
:1021200004D505E041463846B0476D1C641EF9D51C
:102130002846BDE8F0814A68002A06D00A68531C88
:102140000B6010704868401E4860704708B5022355
:102150008DF80000012269460248FFF7B1F800201F
:1021600008BD000020010020FEF7E0FBFFF78CF91E
:10217000FFF706F9FFF74AF9FFF764F9012213495F
:102180001348FFF735F811490122891C1148FFF760
:102190002FF8114F0D4C0025641EA7F18006A07882
:1021A00038B1A0680C493D540CA0FFF725FBA57081
:1021B000A56020780028F2D060680749355480393E
:1021C00008A000F011F825706560E8E70100002024
:1021D0002001002060010020A000002025730D0ACE
:1021E00000000000257300000FB4802100B5A1B0ED
:1021F0006846FEF71DF823AB80216846229AFFF758
:102200000BFB82B24FF0FF3369460548FFF758F8E1
:1022100080216846FEF70CF821B05DF814FB000041
:102220006001002000000000000000000102030423
:102230000607080900000000010203045C220008F0
:102240000000002020000000641800087C22000824
:102250002000002080050000741800080000000025
:10226000000000000000000001000000100000005D
:0C227000000000000024F400000000004A
:040000050800018965
:00000001FF
