:020000040800F2
:1000000098150020A1010008CB1B0008AB190008BF
:10001000C91B000873040008211F0008000000002D
:10002000000000000000000000000000D11B0008DC
:100030002505000800000000CF1B0008D31B0008A6
:10004000BB010008BB010008BB010008BB010008A0
:10005000BB010008BB010008BB010008BB01000890
:10006000BB010008BB010008BB010008BB01000880
:10007000BB010008BB010008BB010008BB01000870
:10008000BB010008BB010008BB010008BB01000860
:10009000BB010008BB010008BB010008BB01000850
:1000A000BB010008BB010008BB010008BB01000840
:1000B000BB010008BB010008BB010008BB01000830
:1000C000BB010008BB010008BB010008BB01000820
:1000D000BB010008BB010008BB010008BB01000810
:1000E000BB010008BB010008BB010008BB01000800
:1000F000BB010008BB010008BB010008BB010008F0
:10010000BB010008BB010008BB010008BB010008DF
:10011000BB010008BB010008BB010008BB010008CF
:1001200075040008BB010008BB010008BB01000802
:10013000BB010008BB010008BB010008BB010008AF
:10014000BB010008BB010008BB010008BB0100089F
:10015000BB010008BB010008BB010008BB0100088F
:10016000BB010008BB010008BB010008BB0100087F
:10017000BB010008BB010008BB0100080000000033
:10018000BB010008BB010008DFF810D000F092F8B6
:1001900000480047F5200008AFF3008098150020C4
:1001A0000648804706480047FEE7FEE7FEE7FEE711
:1001B000FEE7FEE7FEE7FEE7FEE7FEE7611C00085C
:1001C000890100082DE9F05F0546002092469B4614
:1001D00088460646814640241BE02846414647465D
:1001E000224600F057F853465A46C01A914110D3A0
:1001F00011461846224600F03EF82D1A67EB01081A
:100200004F4622460120002100F035F817EB000987
:100210004E41201EA4F10104DFDC484631462A4647
:100220004346BDE8F09FD2B201E000F8012B491E21
:10023000FBD270470022F6E710B513460A46044683
:100240001946FFF7F0FF204610BD30B50B460146BA
:1002500000202022012409E021FA02F59D4205D365
:1002600003FA02F5491B04FA02F52844151EA2F10F
:100270000102F1DC30BD202A04DB203A00FA02F151
:10028000002070479140C2F1200320FA03F3194384
:1002900090407047202A04DB203A21FA02F0002126
:1002A000704721FA02F3D040C2F120029140084386
:1002B00019467047064C074D06E0E06840F0010320
:1002C00094E8070098471034AC42F6D3FFF760FF7C
:1002D000A4210008C4210008464910B54A6822F448
:1002E00040324A604A6843681A434A6001684A6873
:1002F00022F480724A6001684A68036942EA032274
:100300004A6001684A6822F040724A6001684A689F
:1003100083681A434A6001688A6822F400628A602E
:1003200001688A68C3681A438A60816A6FF07062E4
:10033000D14201688A6822F070628A6001688A6826
:100340000CD0836A1A438A6001688A6822F040529E
:100350008A6001688A68C36A1A4301E022F0405249
:100360008A6001688A6822F002028A6001688A68ED
:10037000037E42EA43028A6090F820100029016857
:100380004A680FD042F400624A6001684A6822F469
:1003900060424A6001684A68174C436A04EB433381
:1003A0001A4301E022F400624A600168CA6A22F43A
:1003B0007002CA620168CA6A838B104C04EB035353
:1003C0001A43CA6201688A6822F400728A6001686E
:1003D0008A6890F8303042EA43228A6001688A686D
:1003E00022F480628A6001688A68406942EA80205B
:1003F000886010BD0023014000E0FFFF0000F0FF17
:100400000146806B026C12F0500F03D0806BC26CFF
:1004100008461047016C41F40071016401688A6864
:1004200012F0405F17D1027EAAB9CA6A12F4700FA7
:1004300002D08A6852050ED44A6822F020024A602F
:10044000016C21F480710164016CC90403D4016C56
:1004500041F00101016400F0BDB9806B40210164ED
:10046000416C41F00401416400F0B6B9806B00F0CA
:10047000B2B9FEE7014800F0C3BA0000A81000209E
:1004800001681823CAB2103AB2FBF3F2054B6FF3BE
:100490000901032A9B5CC36500D9091D81650846D3
:1004A000704700008421000810B5014600208B69C8
:1004B0008A6A4FF0C07453B1B3F5005F15D072B1C2
:1004C000012A0CD0022A0AD0032A09D104E01AB169
:1004D000012A06D0022A03D1C96AC90100D5012028
:1004E00010BDC96AA142FAD010BD002AF7D0012A76
:1004F000F2D0022AF3D0032AF3D010BD30B504683D
:10050000256825F480252560046863608368402B96
:10051000036803D099600068C26030BD9A600068CB
:10052000C16030BD7047704710B590F83C20012A7B
:100530001FD0012200F83C2F0F4A536823F01F03FD
:10054000536053680C6823435360536823F440435B
:10055000536053684C6823435360536823F47063BB
:100560005360536889680B4353600021017008464B
:1005700010BD022010BD000000230140F8B5134655
:1005800000220446009290F83C00012807D0012088
:1005900084F83C0020688568ED0702D011E0022055
:1005A000F8BD856845F0010585603148314D00682A
:1005B000B0FBF5F000EB400000E0401E009000288A
:1005C000FBD120688568ED0748D0256C40F20166B4
:1005D000B54345F4807525644068400505D5206C19
:1005E00020F4005040F480502064206CC00404D5F6
:1005F000606C20F00600606400E0626484F83C20D7
:10060000A26B1D48D063A26B1C481064A26B1C48EF
:10061000D06422686FF0020010602068426842F0E7
:1006200080624260174894F83020002A426802D065
:1006300042F4005201E022F4005242600A4611499D
:10064000A06B083100F016FB2068816811F0405F54
:100650000CD1816841F08041816007E0206C40F05E
:1006600010002064606C40F0010060640020F8BD60
:100670001000002040420F00010400086D04000833
:100680005B0400080023014078B50024009490F832
:100690003C20012A19D0012280F83C200A68072357
:1006A0000568092A13D9EE680A3A02EB4202934020
:1006B0009E43EE600B788A680A3B03EB43039A4043
:1006C0000368DD682A43DA6010E0022078BD2E69F5
:1006D00002EB420293409E432E610B788A6803EB43
:1006E00043039A4003681D692A431A614A681F231D
:1006F000072A13D205686E6B521E02EB82029340EA
:100700009E436E630B790A885B1E92B203EB8303F0
:100710009A4003685D6B2A435A6327E005680D2AF7
:1007200012D22E6BD21F02EB820293409E432E63A5
:100730000B790A88DB1F92B203EB83039A400368AC
:100740001D6B2A431A6311E0EE6A0D3A02EB820236
:1007500093409E43EE620B790A880D3B92B203EB05
:1007600083039A400368DD6A2A43DA62164B056800
:10077000144A9D4206D10D68122D03D1556845F4E7
:100780008005556005689D4218D10B68102B01D07B
:10079000112B13D1536843F40003536009681029E7
:1007A0000CD10A490A4A0968B1FBF2F101EB810157
:1007B000490000E0491E00910029FBD180F83C402F
:1007C000002078BD002301400020014010000020DF
:1007D00040420F0070477047704770B504004FF0FB
:1007E000000503D0206C002610B107E0012070BD89
:1007F000204600F01DF8666484F83C60206CC0065A
:1008000010D4206C20F4885040F002002064204670
:10081000FFF762FD6664206C20F0020040F00100EA
:10082000206400E0012584F83C60284670BD00008B
:10083000F0B587B0064614216846FFF7FBFC2C494B
:10084000DFF8A8C03768002529481439012203239E
:10085000284C674530D1076847F480770760006807
:1008600000F480700590086840F001000860086896
:10087000694600F0010005908DE82C00204600F04C
:1008800043FA1E4C1C48C4E900050015A560C4E9E4
:100890000350800060618000C4E906054FF44030D9
:1008A000C4E90805204600F07BF908B1FFF73BFEDC
:1008B000B463A66307B0F0BD114EB742FAD1066823
:1008C00046F400760660006800F400700590086841
:1008D00040F0010008600868694600F001000590DA
:1008E0008DE82C00204600F00FFAE3E700200140DD
:1008F000443802400000024010640240A81000206A
:100900000021014018B50021009190F83C20012AF7
:1009100007D0012280F83C2002689368DB0702D0F0
:1009200011E0022018BD936843F0010393602E4A42
:100930002E4B1268B2FBF3F202EB420200E0521EB1
:100940000092002AFBD102689368DB0742D0036C57
:1009500040F20164A34343F48073036453685B056E
:1009600005D5036C23F4005343F480530364036CF4
:10097000DB0404D5436C23F00603436400E04164C8
:1009800080F83C101A496FF0220313604968006830
:10099000CA06184906D0884224D1816811F0405F08
:1009A00013D01FE08842F8D0134A904203D1D1F807
:1009B0000423D206F1D0114A904213D1D1F8041386
:1009C00001F01F011029E8D30CE0816841F080415B
:1009D000816007E0016C41F010010164416C41F05D
:1009E00001014164002018BD1000002040420F00AA
:1009F000002301400020014000210140002201406D
:100A00002DE9F84304464FF00009CDF80090634803
:100A10004FF41651A56D0068B0FBF1F72E6894F8FD
:100A20005C10082000FA01F131420FD021680A68F9
:100A300052070BD50A6822F004020A6094F85C1091
:100A40008840A860606D40F00100606594F85C101B
:100A50004FF0010808FA01F0304208D021684969D6
:100A6000090604D5A860606D40F00200606594F846
:100A70005C1004208840304208D02168096889074A
:100A800004D5A860606D40F00400606594F85C10C7
:100A900010208840304218D021680968090714D511
:100AA000A86020680168490304D50068000308D5E0
:100AB000A16C07E00168C90503D4016821F00801B1
:100AC0000160216C09B12046884794F85C10202011
:100AD0008840304231D021680968C9062DD5A86008
:100AE00094F8350005282068016806D0490347D5E9
:100AF000006800031DD4616C1CE021F01601016048
:100B00002068416921F080014161206C08B9A06C26
:100B100020B12068016821F00801016094F85C10A0
:100B20003F208840A86084F8349084F83580216D97
:100B30001FE0E16B09B120468847606D00282BD08B
:100B4000606DC00714D0052084F835002068016866
:100B500021F0010101600098401C0090B84203D8C8
:100B600020680068C007F6D184F8349084F8358096
:100B7000E16C002910D001B02046BDE8F0430847E1
:100B80000168C905D5D4016821F01001016084F81D
:100B9000349084F83580CCE7BDE8F883100000205D
:100BA0002DE9F041044600F0A5F906465CB10025A8
:100BB00084F83450022084F835002068016821F060
:100BC000010101600DE00120BDE8F08100F092F923
:100BD000801B052805D920206065032084F8350096
:100BE000F2E720680068C007F0D122681168204849
:100BF0000140D4E901031843D4E9033633431843D1
:100C000063691843A3691843E3691843236A1843C7
:100C10000843616A042903D1D4E90B13194308433B
:100C2000106020684069666A20F0070130460E4374
:100C3000012704280CD1A06A0643E06A40B120468F
:100C4000FFF732FC20B14020606584F83570BAE7C8
:100C5000206846612046FFF713FC94F85C203F2192
:100C600091408160656584F835700020ACE7000034
:100C70003F8010F02DE9F0410446866D90F8340075
:100C8000002501280DD0012084F8340094F8357037
:100C90000020012F07D084F8340002252846BDE843
:100CA000F0810220FBE7022784F83570606520465A
:100CB000FFF724FC94F85C103F208840B060206867
:100CC000016841F016010160206C20B120680168C4
:100CD00041F0080101602068016841F001010160F4
:100CE000DCE7000070B5044600F004F90546601C1E
:100CF00002D004480078044400F0FCF8401BA042F5
:100D0000FAD370BD040000202DE9F84FDFF8B8A138
:100D1000002201250AF1040B03264FF00F090BF105
:100D2000040E00BF0B6805FA02F42340A3426FD102
:100D30000F7907F00307012F01D0022F16D1876822
:100D40004FEA420806FA08FC27EA0C07D1F80CC063
:100D50000CFA08FC4CEA070CC0F808C04768A74327
:100D60000C79C4F3001494403C4344600C79E44390
:100D7000A4070AD0C4684FEA420C06FA0CF7BC4339
:100D80008F6807FA0CF72743C7600C7904F0030457
:100D9000022C12D1D40800EB840CDCF82040570759
:100DA000FF0E09FA07F824EA0804D1F8108008FABF
:100DB00007F848EA0408CCF8208004684FEA420C9F
:100DC00006FA0CF7BC430F7907F0030707FA0CF794
:100DD000274307604C68E40070D53C4C276847F413
:100DE00080472760246822F0030704F480440094BD
:100DF000374C07EB040CDCF8084897074FEA1778E4
:100E000009FA08F7BC43334FB84202D1002724E067
:100E100054E0314FB84201D101271EE02F4FB842B4
:100E200001D1022719E02E4FB84201D1032714E067
:100E30002C4FB84201D104270FE02B4FB84201D10B
:100E400005270AE0294FB84201D1062705E0284FBF
:100E5000B84201D1072700E0082707FA08F727431F
:100E6000CCF80878DAF800405746D1F804C09C4323
:100E70005FEACC3C00D51C433C60DBF800405F4699
:100E8000D1F804C09C435FEA8C3C00D51C433C6015
:100E9000DEF800407746D1F804C09C435FEACC2CD2
:100EA00000D51C433C60084F0C373C68D1F804C0A7
:100EB0009C435FEA8C2C00D51C433C60521C102ADA
:100EC000FFF430AFBDE8F88F003C014044380240E9
:100ED00000300140000002400004024000080240CF
:100EE000000C0240001002400014024000180240B2
:100EF000001C024001488068704700000400002088
:100F00000248816802781144816070470400002023
:100F10000B4810B5016841F400710160016841F4AB
:100F200080610160016841F480710160032000F07C
:100F30006FF8002000F006F800F024F8002010BD43
:100F4000003C024070B50D4D04464FF47A7128788C
:100F5000B1FBF0F00A490968B1FBF0F000F020FBAA
:100F600048B9102C07D200222146501E00F030F85C
:100F700000206C6070BD012070BD000004000020E6
:100F8000100000200A4808B5016841F48041016062
:100F9000006800F4804000900548001F016841F09F
:100FA00080510160006800F08050009008BD000092
:100FB00044380240002809DB00F01F020121914063
:100FC0004009800000F1E020C0F8001170470000E7
:100FD000F0B40E4B1B680C46C3F30223C3F10705A4
:100FE000042D00D90425191D072901D2002300E092
:100FF000DB1E012606FA05F1491E214099409E405C
:10100000761E16403143F0BC00F09CBF0CED00E0B2
:10101000064900F0070208684FF6FF03184040EA4F
:101020000220034A10430860704700000CED00E006
:101030000000FA05704700002DE9F0470E46050054
:1010400065D0DFF81481D8F80000F7B200F007008F
:10105000B04207D288F80070D8F8000000F007000E
:10106000B04254D128683D4C810712D5400703D5C2
:10107000206840F4E05020602878000703D52068FD
:1010800040F4604020602068A96820F0F000084328
:1010900020602878C0072DD03049686808390128B9
:1010A00012D0022813D0032811D00968890700291B
:1010B0002DDA216821F0030101432160FFF71AFFB7
:1010C000814641F2883A0EE009688903EFE7096832
:1010D0008901ECE7FFF70EFFA0EB0901514502D9AA
:1010E0000320BDE8F0872068696800F00C00B0EBD1
:1010F000810FEFD1D8F80010404601F00701B1424E
:1011000007D90770006800F00700B04201D0012045
:10111000E7E72878400705D52068E96820F4E05023
:10112000084320602878000706D52068296920F444
:10113000604040EAC100206000F03EF82168084AA3
:10114000C1F30311515CC8400649086006480068B5
:10115000FFF7F8FE0020C4E7003C024008380240D8
:101160008C21000810000020080000200149012007
:10117000C864704700004742044805490068096890
:10118000044AC1F38221515CC8407047100000201E
:10119000083802409C210008044805490068096895
:1011A000044AC1F34231515CC8407047100000202E
:1011B000083802409C210008154810B5006810F05E
:1011C0000C02144813D04110042A0FD0082A0ED163
:1011D0000F4C241F2268236802F03F025B0207D5F0
:1011E0002068C0F38810A0FB010106E0084610BD8E
:1011F0002168C1F38811A1FB00010023FEF7E2FF83
:101200002168C1F30141491C4900B0FBF1F010BD58
:10121000083802400024F400054810B500680006B4
:1012200005D5FFF707FF02498020891C087010BD13
:101230000C3802402DE9F84F04006ED02078DFF81A
:101240004C93C007A9F104054AD009F104000168D4
:10125000C1F38101012908D00068C0F38100022890
:101260000AD1D9F80000400206D52868800337D596
:1012700060680028E1D033E06068B0F5803F10D0AE
:10128000B0F5A02F286810D020F48030286028689E
:1012900020F4802028606068A8B1FFF72BFE064686
:1012A0000DE0286840F48030F4E740F480202860A6
:1012B000F7E700BFFFF71EFE801B642873D828687D
:1012C0008003F7D50CE0FFF715FE064605E000BFEA
:1012D000FFF710FE801B6428F0D828688003F7D43D
:1012E0002078DFF8AC8280074FF0000A3ED5A7488F
:1012F000001D016811F00C0F08D00068C0F38100D8
:1013000002280BD1D9F80000400207D428688007D2
:1013100016D5E068012800D112E033E1E068B8B1E9
:101320000120C8F80000FFF7E5FD064605E000BF14
:10133000FFF7E0FD801B0228C0D828688007F7D59A
:101340002868216920F0F80040EAC10028600DE01B
:10135000C8F800A0FFF7CEFD064604E0FFF7CAFD7F
:10136000801B02281FD828688007F7D42078000740
:1013700022D5864F87486169703771B101210160BC
:10138000FFF7B8FD064604E0FFF7B4FD801B022816
:1013900009D838688007F7D50EE0C0F800A0FFF73D
:1013A000A9FD064605E082E0FFF7A4FD801B0228A8
:1013B0007DD838688007F7D42078400768D5DFF8F3
:1013C000CCB100270BF13C0BDBF80000C0000BD4C4
:1013D000DBF8001041F08051CBF80010DBF8000082
:1013E000012700F0805000906B4E3068C00510D48B
:1013F000306840F480703060FFF77CFD009005E0BD
:10140000FFF778FD0099401A022850D83068C005CF
:10141000F6D55E4EA0686C3601280FD005283068DE
:1014200010D020F001003060306820F004003060FF
:10143000A068B8B1FFF75EFD00900FE0306840F0A3
:101440000100F4E740F004003060F7E7FFF752FDD9
:101450000099411A41F28830814266D8306880078D
:10146000F4D50EE0FFF746FD009007E0FFF742FDE0
:101470000099411A41F28830814256D8306880077D
:10148000F4D42FB1DBF8001021F08051CBF800101C
:10149000A069C8B33D49091D0968C1F3810102294A
:1014A0004AD00228504607D0C8F8600000E03CE06F
:1014B000FFF720FD04463BE04746C8F86000FFF711
:1014C00019FD064605E000BFFFF714FD801B02284A
:1014D0002BD828688001F7D4D4E907010843A16A12
:1014E0002E4A490802EB0141626A41EA821108432F
:1014F00094F82C1040EA0161C9F800100120386608
:10150000FFF7F8FC044606E03EE000BFFFF7F2FC00
:10151000001B022809D828688001F7D534E000BFF5
:10152000FFF7E8FC001B022802D90320BDE8F88F72
:1015300028688001F4D427E00128F7D0D9F800000A
:10154000E26900F4800191421CD1226A00F03F015F
:10155000914217D147F6C071626A0140B1EB821F18
:1015600010D1A26A4FF0FF3300F4403103EB520276
:10157000B1EB024F06D194F82C1000F07060B0EB84
:10158000016F01D00120D1E70020CFE704380240ED
:1015900000004742800E4742007000400000FFFFFD
:1015A00010B5401EB0F1807F01D3012010BD4FF077
:1015B000E02460610F21601700F0C4FC0020A061EE
:1015C00007202061002010BD70B590F83C20012A52
:1015D00032D0012480F83C40022280F83D2003688C
:1015E0005A689D6822F070060A6832435A60134BAD
:1015F00002689A4214D0B2F1804F11D0104B9A4237
:101600000ED0104B9A420BD00F4B9A4208D00F4B82
:101610009A4205D00E4B9A4202D00E4B9A4204D108
:10162000496825F080031943916080F83D4000210E
:1016300080F83C10084670BD022070BD00000140DB
:101640000004004000080040000C0040000401407D
:10165000004001400018004010B5040003D094F889
:101660003D0010B107E0012010BD002084F83C00CF
:10167000204600F01FF8022084F83D00211D20685C
:1016800000F0FCFA012084F8460084F83E0084F85B
:101690003F0084F8400084F8410084F8420084F858
:1016A000430084F8440084F8450084F83D0000209D
:1016B00010BD000008B500680649884208D10648F8
:1016C000016841F002010160006800F00200009032
:1016D00008BD0000000400404038024090F83D1072
:1016E000012901D001207047022180F83D100068D7
:1016F0001149884214D0B0F1804F11D00F4988426F
:101700000ED00F4988420BD00E49884208D00E49AE
:10171000884205D00D49884202D00D49884204D143
:10172000816801F00701062903D0016841F0010139
:1017300001600020704700000000014000040040EC
:1017400000080040000C004000040140004001403F
:101750000018004070B5044690F83C00012817D0EE
:10176000012584F83C50022084F83D0020688268FE
:1017700022F0770222F47F4282600868502830D03D
:101780000DDC20284DD005DC98B310283BD148E073
:10179000022070BD302844D0402834D139E0602880
:1017A00028D0702806D0B0F5805F2CD0B0F5005F4F
:1017B00029D10AE0CB68D1E90121206800F0C2FA02
:1017C0002068816841F0770109E0CB68D1E9012107
:1017D000206800F0B7FA2068816841F48041816098
:1017E00011E0CA684968206800F0BEFA50212068FC
:1017F00007E016E0CA684968206800F0C6FA602170
:10180000206800F0A9FA84F83D50002084F83C00DC
:1018100070BDCA684968206800F0A6FA40212068B7
:10182000EFE7226801461046EBE770B5040004D0EC
:1018300094F83D00002510B106E0012070BD84F849
:101840003C50204600F022F8242084F83D00206817
:10185000C16821F40051C160204600F0A9FA206857
:10186000016921F4904101612068416921F02A0158
:1018700041612068C16841F40051C16025642020A5
:1018800084F83D0084F83E00002070BD10B586B09D
:10189000044614216846FEF7CDFC144920688842AE
:1018A00021D113480021026842F010020260006852
:1018B00000F0100005900E481438026842F0010252
:1018C0000260006800F0010005904FF4C0600090D5
:1018D0000220CDE90101032003900720049069460E
:1018E0000448FFF711FA06B010BD000000100140D7
:1018F00044380240000002402DE9F843044690F8C5
:101900003D001F4616460D4620284CD1C5B1BEB13C
:1019100094F83C00012846D0012084F83C004FF0A8
:101920000008C4F84080212084F83D00FFF7E2FA67
:10193000A6848146E684A068B0F5805F03D004E009
:101940000120BDE8F883206928B12E465FF000052C
:1019500084F83C800EE00026FAE78021204600F063
:10196000ADFAA0B9AEB116F8010B21684860E08C61
:10197000401EE084E08C4B464FF0000200970028A8
:10198000EBD14FF04001204600F098FA30B103202F
:10199000D7E735F8020BC0F30800E6E7202084F80B
:1019A0003D000020CDE70220CBE7FEE730B587B051
:1019B00000241F4805940694049400940194029412
:1019C0001A49039401604FF48031C0E901140461A5
:1019D000047680F820400903C1620125C5614910E1
:1019E000C460816280F830504561FEF7F6FE08B1B0
:1019F000FEF799FD072004904FF4004005904FF446
:101A00004070069004A90A48FEF78EFD08B1FEF763
:101A10008AFDCDE90045694605480294FEF734FE8B
:101A2000002801D0FEF77FFD07B030BD0020014047
:101A3000181000207FB500241348009401940294EC
:101A40001049039401604FF48031C0E9011404612E
:101A5000047680F820400125C561C46080F83040DC
:101A60004561FEF7BAFE08B1FEF75DFDCDE9004520
:101A7000694605480294FEF707FE002801D0FEF7EC
:101A800052FD7FBD0021014060100020094808B5CB
:101A9000016841F4800101600068002200F48000C8
:101AA000009011463820FFF793FABDE8084038202F
:101AB000FFF780BA3038024000B587B0142168467D
:101AC000FEF7B8FB16480021026842F004020260EB
:101AD000026802F004020592026842F0800202608D
:101AE000026802F080020592026842F00102026080
:101AF000026802F001020592026842F002020260EE
:101B0000006800F002000590012000900320CDE95C
:101B1000010169460348FFF7F7F807B000BD000070
:101B2000303802400000024010B586B0002417484B
:101B30000094019402940394049413490594016061
:101B40000121C0E901140F21C0E903148461FFF7EA
:101B500083FD08B1FEF7E7FC4FF480500090694622
:101B60000A48FFF7F7FD08B1FEF7DDFC2020CDE9BC
:101B7000040404A90548FFF727FD002801D0FEF75B
:101B8000D2FC06B010BD0000000400400811002087
:101B90000C4810B50A4901604FF4E1314160002161
:101BA00081600C22C160C0E904128161C161FFF74C
:101BB0003CFE002803D0BDE81040FEF7B4BC10BDC9
:101BC0000010014050110020FEE7FFF725BB7047D1
:101BD0007047FFF795B9000030B593B030216846E3
:101BE000FEF728FB14210CA8FEF724FB1A48002559
:101BF000016841F080510160006800F08050119050
:101C00001648016841F4804101600068022400F434
:101C10008040119001200090000401908001CDE9E6
:101C2000064008AA0420A82182E813000B90684609
:101C3000FFF700FB0CA90F2081E831004FF4A05002
:101C40000F90E002109005210CA8FFF7F5F9FFF7BF
:101C50008DFA13B030BD00004038024000700040E3
:101C60000548016841F47001016003494FF00060CC
:101C7000803908607047000088ED00E0F0B5026828
:101C8000254C264D264E274F274B4FF0804CA04227
:101C900009D0604507D0A84205D0B04203D0B84271
:101CA00001D0984204D122F0700E4A6842EA0E0236
:101CB000A0421BD0604519D0A84217D0B04215D021
:101CC000B84213D0984211D0184DA8420ED0184DEA
:101CD000A8420BD0174DA84208D0174DA84205D0F6
:101CE000164DA84202D0164DA84203D122F44075E9
:101CF000CA682A434D6922F080022A4302608A683A
:101D0000C2620A688262A04201D0984201D1096988
:101D1000016301214161F0BD000001400004004069
:101D200000080040000C0040000401400040014059
:101D3000004401400048014000180040001C0040E1
:101D40000020004010B5846842EA032224F47F4456
:101D50000A432243826010BD826822F070020A4367
:101D600042F007018160704710B5036A046A24F0ED
:101D700001040462846924F0F00444EA021423F0AC
:101D80000A020A438461026210BD10B5036A23F09F
:101D9000100303628369046A23F4704343EA023246
:101DA00024F0A00343EA01118261016210BD00002A
:101DB00070B5044600680169E26821F4405111439E
:101DC00001612169A068E269084361691143084320
:101DD0002168CA6849F20C639A430243CA602068CA
:101DE0004169A26921F44071114341613149206880
:101DF000884202D03049884202D1FFF7CDF901E094
:101E0000FFF7BAF9E2690023192164253226B2F5F9
:101E1000004F626828D0A0FB0101930F9200FEF7EB
:101E2000D1F90146B0FBF5F06FF01802504301EB19
:101E3000800006EB0010B0FBF5F000F0F002B1FB03
:101E4000F5F002EB0012B1FBF5F06FF01803584308
:101E500001EB800006EB0010B0FBF5F000F00F0086
:101E600021681044886070BDA0FB010192185B419D
:101E7000FEF7A8F90146B0FBF5F00201B1FBF5F061
:101E80006FF01803584301EB800006EBC000B0FB75
:101E9000F5F000F0F80002EB4002B1FBF5F058431A
:101EA00001EB800006EBC000B0FBF5F000F007008E
:101EB000D6E7000000100140001401402DE9F04178
:101EC000984617460E460446069D1DE0681C1BD02A
:101ED0002DB1FFF70FF8A0EB0800A84214D9206835
:101EE000C16821F4D071C1602068416921F001010D
:101EF0004161202084F83D0084F83E00002084F8F1
:101F00003C000320BDE8F0812068006836EA00004C
:101F100004D00020B842D9D00020F3E70120F9E72F
:101F2000FEE700000FB4054B10B503A9044A029860
:101F300000F028F810BC5DF814FB0000D920000860
:101F4000140000200907090E002804DB00F1E0203E
:101F500080F80014704700F00F0000F1E02080F8D6
:101F6000141D704702E008C8121F08C1002AFAD1E8
:101F700070477047002001E001C1121F002AFBD109
:101F8000704700002DE9FF4F89B09B4604460025AD
:101F900006E025280BD05A460B999047641C6D1C0F
:101FA00020780028F5D10DB02846BDE8F08F002735
:101FB000B8460122474900E0074314F8013F203B9F
:101FC00002FA03F00842F7D120782E2819D114F82C
:101FD000010F47F004072A280ED06FF02F02207857
:101FE000A0F1300109290CD808EB880102EB41016E
:101FF00000EB0108641CF2E70A98641C50F8048B9B
:102000000A9020780028CED0642808D0692806D00D
:1020100075281ED05A460B9990476D1C58E00A99B6
:102020004FF00A0901C90A91002802DA40422D2125
:1020300002E0390504D52B218DF82010012103E0A1
:10204000F90704D02021F7E78A4608AE0DE0002109
:10205000FAE70A994FF00A0901C90A91F7E74946D8
:10206000FEF7F3F8303106F8011D0028F7D1ADEB8B
:10207000060000F12009780701D44FF00108C84597
:1020800002DDA8EB090000E000208046002706E002
:1020900008A85A46C05D0B9990476D1C7F1C574598
:1020A000F6DB04E030205A460B9990476D1CB8F1DE
:1020B0000001A8F10108F5DC05E016F8010B5A460D
:1020C0000B9990476D1CB9F10001A9F10109F4DCED
:1020D000641C65E70928010008B502238DF800009B
:1020E000012269460248FFF707FC002008BD0000F6
:1020F00050110020FEF70CFFFFF76EFDFFF7DCFC30
:10210000FFF7C4FCFFF752FCFFF742FDFFF70CFDA1
:10211000FFF790FC1448FEF7F5FB4FF4806632465B
:1021200012491348FEF72AFA1248FFF7D7FA4FF47C
:102130007A70FEF7D7FD104C00200C4D208080B245
:1021400035F8200081B20DA0FFF7ECFE208855F88D
:102150002000010C09A0FFF7E5FE2088401C80B29A
:102160002080B042EBD3FEE7601000201800002072
:1021700018100020081100200000002025640D0A1E
:1021800000000000000610160006101600000000F7
:102190000000000001020304060708090000000017
:1021A00001020304C4210008000000201800000000
:1021B000641F0008DC2100081800002080150000C2
:1021C000741F000800000000010000001000000063
:0C21D000000000000024F40000000000EB
:040000050800018965
:00000001FF
