:020000040800F2
:1000000040050020A101000847500008A91400087D
:10001000455000085D050008F55600080000000086
:10002000000000000000000000000000E95000088F
:100030009B0500080000000049500008EB50000834
:10004000BB010008BB010008BB010008BB010008A0
:10005000BB010008BB010008BB010008BB01000890
:10006000BB010008BB01000803060008BB01000833
:10007000BB010008BB010008BB010008BB01000870
:10008000BB010008BB010008BB010008BB01000860
:10009000BB010008BB010008BB010008BB01000850
:1000A000BB010008BB010008BB010008BB01000840
:1000B0007D510008BB010008BB010008BB0100081E
:1000C000BB010008BB010008BB010008BB01000820
:1000D000BB010008BB010008BB010008BB01000810
:1000E000BB010008BB010008BB010008BB01000800
:1000F000BB010008BB010008BB010008BB010008F0
:10010000BB010008BB010008BB010008BB010008DF
:10011000BB010008BB010008BB010008BB010008CF
:10012000BB010008BB010008BB010008BB010008BF
:10013000BB010008BB010008BB010008BB010008AF
:10014000BB010008BB010008BB010008BB0100089F
:10015000BB010008BB010008BB010008BB0100088F
:10016000BB010008BB010008BB010008BB0100087F
:10017000BB010008BB010008BB010008BB0100086F
:10018000BB010008BB010008DFF810D000F0D4F973
:100190000048004705580008AFF3008040050020E4
:1001A0000648804706480047FEE7FEE7FEE7FEE711
:1001B000FEE7FEE7FEE7FEE7FEE7FEE76151000827
:1001C000890100082DE9F05F0546002092469B4614
:1001D00088460646814640241BE02846414647465D
:1001E000224600F0EBF853465A46C01A914110D30C
:1001F00011461846224600F0D2F82D1A67EB010886
:100200004F4622460120002100F0C9F817EB0009F3
:100210004E41201EA4F10104DFDC484631462A4647
:100220004346BDE8F09F40EA01039B0703D009E085
:1002300008C9121F08C0042AFAD203E011F8013BD2
:1002400000F8013B521EF9D27047D2B201E000F82B
:10025000012B491EFBD270470022F6E710B513466A
:100260000A4604461946FFF7F0FF204610BD2DE967
:10027000FE4F81EA030404F0004421F000410094A1
:100280004FF0000B23F0004350EA01045ED052EA25
:1002900003045BD0C3F30A54C1F30A552C44A4F2FF
:1002A000F3340194A0FB0254C1F3130141F4801113
:1002B000C3F3130343F4801301FB024400FB034E1A
:1002C000840A970A44EA815447EA8357A4FB0768E3
:1002D00002958D0A05FB07854FEA932C04FB0C540D
:1002E0002705029D4FEA065847EA1637B5EB080581
:1002F0006EEB070C870E920E47EA811742EA8312D3
:10030000A7FB0201B6EB0B0164EB00042B0D43EAE3
:100310000C335E1844EB1C50DA465146E7FB0201F1
:10032000C5F313044FEA0B3343EA14534FEA043284
:10033000019C43EA0603A4F10C040294009CCDE95D
:1003400000B400F05AF803B0BDE8F08F0020014679
:10035000F9E70EB540F2334102910021CDE90011D9
:100360000A460B4600F049F803B000BDC1F30A523B
:1003700010B5C1F3130140F2FF3341F480119A42EA
:1003800001DA002010BD40F233439A42A2F2334218
:1003900003DC524200F012F810BD904010BD202A3C
:1003A00004DB203A00FA02F1002070479140C2F1CC
:1003B000200320FA03F3194390407047202A04DBFE
:1003C000203A21FA02F00021704721FA02F3D040CE
:1003D000C2F12002914008431946704710B5141E1F
:1003E00073F1000408DA401C41F1000192185B41EE
:1003F0001A4301D120F0010010BD2DE9F04D9246C5
:100400009B4611B1B1FA81F202E0B0FA80F22032DB
:100410009046FFF7C4FF04460F4640EA0A0041EA4F
:100420000B0153465A46084313D0114653EA0100C4
:1004300019D0C8F140025046FFF7C0FF05460E46EE
:10044000504659464246FFF7AAFF084305D001200F
:1004500004E020463946BDE8F08D0020054346EA19
:10046000E0762C4337430A986305E40AA0EB0800C2
:100470000022FD0A44EA47540A3002D50020014612
:10048000E9E7010510196941DDE9084500196941ED
:10049000BDE8F04DA2E72DE9F04D00231A461B1AE6
:1004A0008A4103DB00200146BDE8F08DC1F30A520A
:1004B000C1F3130141F480154FF0000BD10702D1B5
:1004C00000186D41521E0027044640F2FF113846C5
:1004D00001EB620A3E468046024600204FF480113E
:1004E000FFF76CFFC2197141BB1846EB0100B4EB7A
:1004F000030C75EB000C04D3E41A65EB00051746FA
:100500000E46241908F101006D4180463428E3DDD0
:10051000F91946EB0600091BA84103D24FF0FF3240
:10052000134601E0002213461BEB070046EB0A517D
:10053000BDE8F04DFFF752BF064C074D06E0E068FE
:1005400040F0010394E8070098471034AC42F6D31A
:10055000FFF71EFE2865000848650008FEE710B595
:10056000B0F90020B1F90030D21A00D55242B0F9EA
:100570000200B1F90210401A00D54042524300FB7C
:100580000020FFF7E6FE41EC100B05F0C4F851EC3B
:10059000100BFFF7EBFE80B210BD70472DE9F04164
:1005A00004460D3082B2A4F10C000D4680B20B4619
:1005B00001F02EF805F10D0083B2193881B2224600
:1005C000104601F025F86E1C04F10108B1B21FFAC3
:1005D00088F001F06AF8B1B2661EB0B201F065F8B9
:1005E0006F1EB9B21FFA88F001F05FF8B9B2B0B26D
:1005F00001F05BF829462046BDE8F041062201F0F3
:1006000060B8102000F0D6B87047000070B5B3F5A0
:10061000804F05D06FF0704140F82210002070BD6F
:1006200050F82240084B8E891C40D1E9003543EA3E
:1006300005138D6889692D0245EA06452B430B4356
:10064000234340F82230E9E70000F0CFF0B50C6812
:1006500050F82430114A1340D1E90125D1E903674C
:100660002A433E4332434E6932438E693243CE6958
:1006700032430E6A32434E6A32438E6A3243CE6A46
:100680003243CE6B096B32430A431A43082D01D122
:1006900042F0400240F824200020F0BD8000F0FF2E
:1006A00030B500EB820250688D8900F04043D1E9FB
:1006B000000440EA04108C68240244EA0544204304
:1006C0000C8A074D05EB045420430C7D6D0105EBAE
:1006D000046489692043084318435060002030BDFA
:1006E0000000F0FF70B5044600F056F90546601CA6
:1006F00002D004480078044400F04EF9401BA042A8
:10070000FAD370BD100000202DE9F04186B014210D
:100710006846FFF7A1FD20480168002939D1012171
:1007200001601E480024016841F001010160006879
:100730004FF4805800F001000C27CDF80080CDE97F
:100740000470032602250396CDE901546946144836
:1007500000F03CF84FF68070CDE9000502AA69462A
:1007600082E8D0000F4800F031F84CF23370CDE948
:10077000000502AA694682E8D0000B4800F026F87E
:1007800002AA694682E8D000CDE90085074800F05A
:100790001DF806B0BDE8F08108000020383802409E
:1007A0000014024000100240000C024000180240F9
:1007B00070470000044910B50A68024202D0086080
:1007C000FFF7F6FF10BD0000143C01402DE9F84F83
:1007D00000224FF0010803254FF00F0E0B6808FAB6
:1007E00002F42340A3426ED14E68012E05D0022EA2
:1007F00003D0112E01D0122E12D186684FEA420C7E
:1008000005FA0CF7BE43CF6807FA0CF73743876049
:100810004668A6430C79C4F3001494403443446002
:10082000C668570005FA07FC8C6826EA0C06BC402F
:100830003443C4604C68022C01D0122C13D1D4086C
:1008400000EB8404A346D4F8209054074FEAD46AFE
:100850000EFA0AF629EA06090E6906FA0AF646EAC7
:100860000906CBF8206006680C7926EA0C0604F02D
:100870000304BC40344304604C68E40065D5364C46
:10088000266846F480462660246822F0030604F4B5
:1008900080440094314C3444A446D4F80848960768
:1008A000370F0EFA07F6B4432D4EB04201D10026A1
:1008B00024E02C4EB04201D101261FE02A4EB04266
:1008C00002D102261AE040E0284EB04201D10326B0
:1008D00014E0274EB04201D104260FE0254EB0426D
:1008E00001D105260AE0244EB04201D1062605E0DA
:1008F000224EB04201D1072600E00826BE40264322
:10090000CCF808681E4E34684F689C43FF0300D53E
:100910001C4334601A4C241D26684F689E43BF0355
:1009200000D51E432660164E083634684F689C4337
:10093000FF0200D51C433460114E0C3634684F68FA
:100940009C43BF0200D51C433460521C102AFFF4A4
:1009500045AFBDE8F88F0000443802400030014048
:10096000000002400004024000080240000C024067
:10097000001002400014024000180240001C024017
:10098000003C01400069084000D0012070470AB1D6
:10099000816170470904FBE70148806870470000E7
:1009A000100000200248816802781144816070477D
:1009B000100000200B4810B5016841F4007101607F
:1009C000016841F480610160016841F48071016057
:1009D000032000F06FF8002000F006F800F024F883
:1009E000002010BD003C024070B50D4D04464FF490
:1009F0007A712878B1FBF0F00A490968B1FBF0F090
:100A000000F031FB48B9102C07D200222146501EBD
:100A100000F030F800206C6070BD012070BD000057
:100A2000100000201C0000200A4808B5016841F4AD
:100A300080410160006800F4804000900548001F7C
:100A4000016841F080510160006800F08050009022
:100A500008BD000044380240002809DB00F01F02F6
:100A6000012191404009800000F1E020C0F8001110
:100A700070470000F0B40E4B1B680C46C3F3022312
:100A8000C3F10705042D00D90425191D072901D23A
:100A9000002300E0DB1E012606FA05F1491E214075
:100AA00099409E40761E16403143F0BC04F023BEB0
:100AB0000CED00E0064900F0070208684FF6FF035E
:100AC000184040EA0220034A1043086070470000C3
:100AD0000CED00E00000FA052DE9F0470E46050098
:100AE00065D0DFF81481D8F80000F7B200F00F00ED
:100AF000B04207D288F80070D8F8000000F00F006C
:100B0000B04254D128683D4C810712D5400703D527
:100B1000206840F4E05020602878000703D5206862
:100B200040F4604020602068A96820F0F00008438D
:100B300020602878C0072DD030496868083901281E
:100B400012D0022813D0032811D009688907002980
:100B50002DDA216821F0030101432160FFF71CFF1A
:100B6000814641F2883A0EE009688903EFE7096897
:100B70008901ECE7FFF710FFA0EB0901514502D90D
:100B80000320BDE8F0872068696800F00C00B0EB36
:100B9000810FEFD1D8F80010404601F00F01B142AB
:100BA00007D90770006800F00F00B04201D00120A3
:100BB000E7E72878400705D52068E96820F4E05089
:100BC000084320602878000706D52068296920F4AA
:100BD000604040EAC100206000F038F82168084A0F
:100BE000C1F30311515CC84006490860064800681B
:100BF000FFF7FAFE0020C4E7003C0240083802403C
:100C00004C6400081C000020140000200448054922
:100C100000680968044AC1F38221515CC8407047EA
:100C20001C000020083802405C64000804480549A4
:100C300000680968044AC1F34231515CC8407047FA
:100C40001C000020083802405C640008154810B5FC
:100C5000006810F00C02144813D01449042A0FD075
:100C6000082A0ED10F4C241F2268236802F03F028D
:100C70005B0207D52068C0F38810A0FB010106E0E5
:100C8000084610BD2168C1F38811A1FB00010023B3
:100C9000FFF798FA2168C1F30141491C4900B0FBF4
:100CA000F1F010BD083802400024F40040787D01C6
:100CB0002DE9F84F04006ED02078DFF83C93C00790
:100CC000A9F104054AD009F104000168C1F38101CA
:100CD000012908D00068C0F3810002280AD1D9F8A0
:100CE0000000400206D52868800337D560680028D8
:100CF000E1D033E06068B0F5803F10D0B0F5A02FB0
:100D0000286810D020F480302860286820F48020E3
:100D100028606068A8B1FFF73FFE06460DE028682E
:100D200040F48030F4E740F480202860F7E700BF0B
:100D3000FFF732FE801B642873D828688003F7D53C
:100D40000CE0FFF729FE064605E000BFFFF724FE92
:100D5000801B6428F0D828688003F7D42078DFF857
:100D60009C8280074FF0000A3ED5A348001D016811
:100D700011F00C0F08D00068C0F3810002280BD1DD
:100D8000D9F80000400207D42868800716D5E0682B
:100D9000012800D112E02BE1E068B8B10120C8F8C9
:100DA0000000FFF7F9FD064605E000BFFFF7F4FD80
:100DB000801B0228C0D828688007F7D528682169D9
:100DC00020F0F80040EAC10028600DE0C8F800A05B
:100DD000FFF7E2FD064604E0FFF7DEFD801B022878
:100DE0001FD828688007F7D42078000722D5824EC4
:100DF00083486169703671B101210160FFF7CCFD54
:100E0000074604E0FFF7C8FDC01B022809D8306878
:100E10008007F7D50EE0C0F800A0FFF7BDFD07463C
:100E200005E082E0FFF7B8FDC01B02287DD83068DE
:100E30008007F7D42078400768D5DFF8BCB10027D9
:100E40000BF13C0BDBF80000C0000BD4DBF800100A
:100E500041F08051CBF80010DBF80000012700F0D2
:100E600080500090674E3068C00510D4306840F460
:100E700080703060FFF790FD009005E0FFF78CFD7B
:100E80000099401A022850D83068C005F6D55A4E4D
:100E9000A0686C3601280FD00528306810D020F0EB
:100EA00001003060306820F004003060A068B8B104
:100EB000FFF772FD00900FE0306840F00100F4E7AA
:100EC00040F004003060F7E7FFF766FD0099411A33
:100ED00041F28830814266D830688007F4D50EE050
:100EE000FFF75AFD009007E0FFF756FD0099411A01
:100EF00041F28830814256D830688007F4D42FB14F
:100F0000DBF8001021F08051CBF80010A069C8B3C5
:100F10003949091D0968C1F3810102294AD0022813
:100F2000504607D0C8F8600000E03CE0FFF734FD11
:100F300004463BE04746C8F86000FFF72DFD064633
:100F400005E000BFFFF728FD801B02282BD828688A
:100F50008001F7D4D4E907010843A16A2A4A490865
:100F600002EB0141626A41EA8211084394F82C10B5
:100F700040EA0161C9F8001001203866FFF70CFD56
:100F8000044606E036E000BFFFF706FD001B02281E
:100F900009D828688001F7D52CE000BFFFF7FCFCDA
:100FA000001B022802D90320BDE8F88F28688001C1
:100FB000F4D41FE00128F7D0D9F80000E26900F46A
:100FC0008001914214D1226A00F03F0191420FD179
:100FD00047F6C071626A0140914209D1A26A00F4E9
:100FE0004031914204D1E16A00F07060884201D042
:100FF0000120D9E70020D7E704380240000047422B
:10100000800E4742007000400000FFFF70B515469B
:101010000E46040003D094F8490010B107E0012007
:1010200070BD002084F84800204600F01AF804F152
:1010300008012068FFF70AFB3146A2682068FFF725
:101040002FFBD4E901022946236BFFF7DFFAA168E1
:10105000206850F8212042F0010240F821200020B1
:1010600070BDFFF751BB10B5401EB0F1807F01D3BA
:10107000012010BD4FF0E02460610F21601704F0E3
:101080003AFB0020A06107202061002010BD7047BE
:101090007047000070B590F83C20012A32D001243E
:1010A00080F83C40022280F83D2003685A689D6821
:1010B00022F070060A6832435A60134B02689A4263
:1010C00014D0B2F1804F11D0104B9A420ED0104B79
:1010D0009A420BD00F4B9A4208D00F4B9A4205D040
:1010E0000E4B9A4202D00E4B9A4204D1496825F029
:1010F00080031943916080F83D40002180F83C1046
:10110000084670BD022070BD000001400004004090
:1011100000080040000C0040000401400040014075
:101120000018004010B5040003D094F83D0010B141
:1011300007E0012010BD002084F83C00204600F0AC
:101140000DF8022084F83D00211D206804F01CF8F1
:10115000012084F83D00002010BD000008B50068A3
:10116000B0F1804F12D10A48016841F001010160DD
:101170000068002200F00100009001211C20FFF710
:1011800079FCBDE808401C20FFF766BC08BD0000E4
:101190004038024070B5044690F83C00012817D052
:1011A000012584F83C50022084F83D0020688268C4
:1011B00022F0770222F47F4282600868502830D003
:1011C0000DDC20284DD005DC98B310283BD148E039
:1011D000022070BD302844D0402834D139E0602846
:1011E00028D0702806D0B0F5805F2CD0B0F5005F15
:1011F00029D10AE0CB68D1E90121206804F028F860
:101200002068816841F0770109E0CB68D1E90121CC
:10121000206804F01DF82068816841F480418160F5
:1012200011E0CA684968206804F024F85021206859
:1012300007E016E0CA684968206804F02CF86021CD
:10124000206804F00FF884F83D50002084F83C003A
:1012500070BDCA684968206804F00CF84021206815
:10126000EFE7226801461046EBE7704770B5044689
:10127000006801694FF00005C943890715D4C168AA
:10128000C943890711D4E91E016101202077206834
:1012900080698007204602D0FFF7E7FF04E000F0F6
:1012A00098F8204600F096F8257720680169C94330
:1012B000490717D4C168C943490713D46FF0040123
:1012C0000161022020772068806910F4407F204669
:1012D00002D0FFF7CAFF04E000F07BF8204600F0E0
:1012E00079F8257720680169C943090716D4C168D0
:1012F000C943090712D46FF0080101610420207767
:101300002068C0698007204602D0FFF7AEFF04E0E6
:1013100000F05FF8204600F05DF82577206801694D
:10132000C943C90617D4C168C943C90613D46FF0AD
:1013300010010161082020772068C06910F4407F07
:10134000204602D0FFF791FF04E000F042F820466B
:1013500000F040F8257720680169C943C90708D122
:10136000C168C943C90704D1891E0161204600F044
:1013700032F820680169C943090609D4C168C94324
:10138000090605D46FF0800101612046FFF77FFE5A
:1013900020680169C943490609D4C168C94349069F
:1013A00005D46FF040010161204600F015F8206877
:1013B0000169C94389060BD4C168C943890607D4AA
:1013C0006FF0200101612046BDE87040FFF760BE6C
:1013D00070BD704770477047704770B5040004D007
:1013E00094F83900002510B106E0012070BD84F8A2
:1013F0003850204600F022F8242084F83900206874
:10140000C16821F40051C160204604F0DFF8206873
:10141000016921F4904101612068416921F02A01AC
:1014200041612068C16841F40051C160E56320203A
:1014300084F8390084F83A00002070BD10B586B0F9
:10144000044614216846FEF707FF144920688842C5
:1014500021D113480021026842F0100202600068A6
:1014600000F0100005900E481438026842F00102A6
:101470000260006800F0010005904FF4C060009029
:101480000220CDE901010320039007200490694662
:101490000448FFF79BF906B010BD000000100140A2
:1014A0004438024000000240FEE7000070B50A49DF
:1014B0000646002408884D8821464543204603F00F
:1014C00053FB03F065FC4FF0D84002E0A0F88060C9
:1014D000641CAC42FAD370BD5C0000202DE9F05FC3
:1014E0004A492A242B25898845F2105A4FF4305B4B
:1014F0004FF4285E4FF448764FF0F00C49F2413932
:101500004FF4A07345F210374FF4F07280B13F48AA
:101510004FF00108494580F806800380A0F802C01A
:1015200001D0B9423ED12C2606814481858157E005
:1015300036484FF00008494580F80680A0F800C002
:10154000438006D0A1F5D04CBCF1040C01D0B942C7
:101550000CD12C2606814481A1F5D0448581043C20
:1015600001D0B94244D10380428041E0514507D1C6
:10157000A0F808B0A0F80AE04FF42C5181810EE0E9
:10158000A1F5C853633B06D022210181202141816E
:10159000212181812CE02C210181458184810280DF
:1015A000468025E0A1F5D04CBCF1040C09D0514592
:1015B0000BD1A0F808B0A0F80AE04FF42C548481B5
:1015C00021E02C260681458109E0A1F5C85CBCF12B
:1015D000630C12D02224048121244481202484819C
:1015E000A1F5D044043C01D0B94201D1028043802E
:1015F000BDE8F05F002003F0E7B94FF02C0CA0F835
:1016000008C04481858106804280E9E75C000020B3
:101610002DE9FE4F161ACDE900104FF000085D1AB3
:1016200047464FF0FF30002E02DD4FF0010102E08F
:1016300003D14FF000018B4602E08346C6F100065D
:10164000002D02DD4FF0010002E003D14FF0000059
:10165000824602E08246C5F10005AE4201DD344615
:1016600000E02C46601C4FF00009029018E0009842
:1016700081B2019880B200F018F8B0442F44A04520
:1016800004DD0198A8EB040858440190A74203DD4B
:1016900000983F1B5044009009F101001FFA80F9A7
:1016A00002998945E3DDBDE8FE8F10B503F05CFAD1
:1016B00003F06EFB4FF0D8414FF47840A1F8800062
:1016C00010BD2DE9FC5F80460025144603200F461F
:1016D000A0EB440649E0381B81B208EB050A0190F3
:1016E0001FFA8AF0FFF7E1FF781B81B208EB0409CB
:1016F00000901FFA89F0FFF7D8FF07EB050B1FFAE0
:101700008BF11FFA89F0FFF7D0FF07EB04091FFAEE
:1017100089F11FFA8AF0FFF7C8FFA8EB050A1FFA44
:1017200089F11FFA8AF0FFF7C0FFA8EB04091FFA3E
:101730008BF11FFA89F0FFF7B8FF019881B21FFA09
:101740008AF0FFF7B2FF009881B21FFA89F0FFF725
:10175000ACFF6D1C002E03DA06EB8506B61D04E017
:10176000281B06EB8006641E0A36A542B3DDBDE8E1
:10177000FC9F00002DE9F047DFF8DC8092464246EE
:101780000C46B8F804500B0A9189060A5289A5F54F
:1017900013474FF0D849413F19D0A5F5A647103F50
:1017A00015D0A5F5AA47103F16D04746A5F5C85C49
:1017B000BE793F883F1A7F1EBCF1630C19D0A5F596
:1017C000D04CBCF1040C25D0012E32D032E04D4675
:1017D00025F87E2F6E8025E04D4625F87E2F6E8001
:1017E000521C2A80C0B2688029806B80491C2980E5
:1017F0001CE006B9B8B24D4625F87E2F020A6A8071
:10180000C6B26E806A80C0B2688029806B80E0B208
:1018100068800AE0012E00D1B8B24D4625F87E2F2F
:10182000020A6A80C0B2688029806B80E0B268805A
:1018300009E0B8B20146104603F0B4FAB8F80C005B
:10184000214603F0AFFA4846B8F8081020F87E1F8A
:10185000A0F802A0BDE8F0875C0000202DE9F05F51
:101860003220FEF73FFF0121002003F09BFA3220D7
:10187000FEF738FF4FF0D8440020A4F87E000A207D
:1018800003F09CFF03F076F8FA4D4FF6FF7B49F228
:101890004137A88045F2103845F2105641F66319D9
:1018A00046F6040AFF2804D3584502D0B0F5134F7A
:1018B00072D1D320A4F87E0003F05CF8A88003F076
:1018C00059F8A88003F056F80BEA0020A88003F02E
:1018D00051F8A9880843A880B8425DD0BF20A4F879
:1018E0007E0003F047F8A88003F044F8A88003F0D6
:1018F00041F8A88003F03EF80BEA0020A88003F02E
:1019000039F8A9880843A880504545D0D420A4F8C8
:101910007E0003F02FF8A88003F02CF8A88003F0D5
:1019200029F80BEA0020A88003F024F8A9880843CE
:10193000A880404530D04FF45A4024F87E0F03F081
:1019400019F8A8804FF45B40208003F013F80BEAED
:101950000020A8804FF45C4024F87E0903F00AF8C8
:10196000A9880843A880B0F5004F3AD0B04213D000
:10197000A120A4F87E0002F0FDFFA88002F0FAFF8B
:101980000BEA0020A88002F0F5FFA9880843A0F523
:10199000AE41A880613921D080B2B84205D040451F
:1019A00003D0B04201D048451DD14FF02040D0F8BF
:1019B0001C1121F00F01C0F81C11D0F81C1121F4EA
:1019C0007061C0F81C11D0F81C1141F00301C0F87F
:1019D0001C11D0F81C1141F4007122E0A5F804900C
:1019E000E3E7AE80E1E7504503D0A0F54541053976
:1019F00019D14FF02040D0F81C1121F00F01C0F890
:101A00001C11D0F81C1121F47061C0F81C11D0F821
:101A10001C1141F00A01C0F81C11D0F81C1141F44E
:101A20004061C0F81C11A888B8427DD1CF2024F8AD
:101A30007E0F00206080C120608030206080ED201B
:101A400020806420608003206080122060808120DC
:101A50006080E820208085206080102060807A20CF
:101A60006080CB202080392060802C206080002086
:101A700060803420608002206080F7202080202059
:101A80006080EA202080002060806080C02020806C
:101A90001B206080C120208001206080C520208024
:101AA000302060806080C7202080B7206080362092
:101AB0002080482060803A20208055206080B1201E
:101AC0002080002060801A206080B62020800A20BC
:101AD0006080A2206080F22020800020608026208C
:101AE000208001206080E02020800F2060802A205C
:101AF000608028206080082060800E2060800820A0
:101B0000608054206080A9206080432060800A208B
:101B100060800F2060800020608060806080608036
:101B2000E1202080002000E02FE060801520608010
:101B30001720608007206080112060800620608070
:101B40002B206080562060803C20608005206080D3
:101B5000102060800F2060803F20608060800F2018
:101B600060802B20208000206080608001206080C9
:101B70003F2060802A20208000206080608060807C
:101B8000EF206080112020806DE0504574D111203D
:101B900024F87E0F1420FEF7A5FDD020208007201A
:101BA0006080422060801D206080D1202080002045
:101BB00060801A20608009206080D220208001206F
:101BC000608022206080C0202080102060803B2028
:101BD0006080002060800220608011206080C5202D
:101BE000208003206080C820208000206080252085
:101BF00060802120608005206080002060800A20B5
:101C00006080652060802520608077206080502083
:101C100060800F20608000206080F82020800120FC
:101C20006080FE20208000206080022060802020D4
:101C3000208036202080082060803A202080552097
:101C400060802B20208000206080608001206080E8
:101C50003F2060802A20208000206080608001205A
:101C60006080DF2060807820FEF73CFD292001F0B5
:101C7000D3BD01E05C00002040457DD1ED20A4F8FB
:101C80007E000120A4F88000FE20A4F88000EE2051
:101C9000A4F87E00DE20A4F880002120A4F88000B3
:101CA000F120A4F87E000120A4F88000DF20A4F831
:101CB0007E001020A4F88000C420A4F87E008F20AD
:101CC000A4F88000C620A4F87E000020A4F88000BC
:101CD000E220A4F88000A4F88000A4F88000BF20CF
:101CE000A4F87E00AA20A4F88000B020A4F87E000A
:101CF0000D20A4F880000020A4F880000D20A4F896
:101D000080000020A4F880001120A4F880000020AA
:101D1000A4F880001920A4F880000020A4F8800016
:101D20002120A4F880000020A4F880002D20A4F831
:101D300080000020A4F880003D20A4F8800000204E
:101D4000A4F880005D20A4F880000020A4F88000A2
:101D50005D20A4F880000020A4F88000B120A4F841
:101D60007E008020A4F880000020A4F880008B2052
:101D7000A4F88000002000E0FDE3A4F88000962095
:101D8000A4F880000020A4F88000B220A4F87E000F
:101D90000020A4F88000A4F880000220A4F88000AD
:101DA0000020A4F880000320A4F880000020A4F8FC
:101DB0008000B320A4F87E000020A4F88000A4F8DE
:101DC0008000A4F88000A4F88000A4F88000A4F8A3
:101DD0008000A4F88000A4F88000A4F88000A4F893
:101DE0008000A4F88000A4F88000A4F88000A4F883
:101DF0008000A4F88000A4F88000A4F88000A4F873
:101E00008000A4F88000A4F88000A4F88000A4F862
:101E10008000A4F88000A4F88000B420A4F87E001C
:101E20008B20A4F880000020A4F880009620A4F85D
:101E300080000020A4F88000A120A4F880000020E9
:101E4000A4F88000B520A4F87E000220A4F8800049
:101E50000020A4F880000320A4F880000020A4F84B
:101E600080000420A4F880000020A4F88000B620A0
:101E7000A4F87E000020A4F88000A4F88000B72019
:101E8000A4F87E000020A4F88000A4F880003F2081
:101E9000A4F880000020A4F880005E20A4F8800050
:101EA0000020A4F880006420A4F880000020A4F89A
:101EB00080008C20A4F880000020A4F88000AC20D2
:101EC000A4F880000020A4F88000DC20A4F88000A2
:101ED0000020A4F880007020A4F880000020A4F85E
:101EE00080009020A4F880000020A4F88000EB205F
:101EF000A4F880000020A4F88000DC20A4F8800072
:101F00000020A4F88000B820A4F87E000020A4F8E7
:101F10008000A4F88000A4F88000A4F88000A4F851
:101F20008000A4F88000A4F88000A4F88000BA2003
:101F3000A4F87E002420A4F880000020A4F88000EB
:101F4000A4F88000A4F88000C120A4F87E0020201E
:101F5000A4F880000020A4F880005420A4F8800099
:101F60000020A4F88000FF20A4F880000020A4F83E
:101F70008000C220A4F87E000A20A4F8800000207F
:101F8000A4F880000420A4F880000020A4F88000B9
:101F9000C320A4F87E003C20A4F880000020A4F810
:101FA00080003A20A4F880000020A4F880003920A6
:101FB000A4F880000020A4F880003720A4F8800056
:101FC0000020A4F880003C20A4F880000020A4F8A1
:101FD00080003620A4F880000020A4F88000322081
:101FE000A4F880000020A4F880002F20A4F880002E
:101FF0000020A4F880002C20A4F880000020A4F881
:1020000080002920A4F880000020A4F88000262069
:10201000A4F880000020A4F880002420A4F8800008
:102020000020A4F880002420A4F880000020A4F858
:1020300080002320A4F880000020A4F880003C2029
:10204000A4F880000020A4F880003620A4F88000C6
:102050000020A4F880003220A4F880000020A4F81A
:1020600080002F20A4F880000020A4F880002C20FD
:10207000A4F880000020A4F880002920A4F88000A3
:102080000020A4F880002620A4F880000020A4F8F6
:1020900080002420A4F880000020A4F880002420E0
:1020A000A4F880000020A4F880002320A4F8800079
:1020B0000020A4F88000C420A4F87E006220A4F8C8
:1020C00080000020A4F880000520A4F880000020F3
:1020D000A4F880008420A4F880000020A4F88000E8
:1020E000F020A4F880000020A4F880001820A4F8B4
:1020F00080000020A4F88000A420A4F88000002024
:10210000A4F880001820A4F880000020A4F8800023
:102110005020A4F880000020A4F880000C20A4F82F
:1021200080000020A4F880001720A4F88000002080
:10213000A4F880009520A4F880000020A4F8800076
:10214000F320A4F880000020A4F88000E620A4F882
:1021500080000020A4F88000C520A4F87E00322072
:10216000A4F880000020A4F880004420A4F8800097
:102170000020A4F880006520A4F880000020A4F8C6
:1021800080007620A4F880000020A4F88000882039
:10219000A4F880000020A4F88000C620A4F87E00E7
:1021A0002020A4F880000020A4F880001720A4F8C4
:1021B00080000020A4F880000120A4F88000002006
:1021C000A4F88000C720A4F87E000020A4F88000B6
:1021D000A4F88000A4F88000A4F88000C820A4F827
:1021E0007E000020A4F88000A4F88000A4F88000FD
:1021F000A4F88000C920A4F87E000020A4F8800084
:10220000A4F88000A4F88000A4F88000A4F880005E
:10221000A4F88000A4F88000A4F88000A4F880004E
:10222000A4F88000A4F88000A4F88000A4F880003E
:10223000A4F88000A4F88000A4F88000E020A4F8AE
:102240007E001620A4F880000020A4F880001C2046
:10225000A4F880000020A4F880002120A4F88000C9
:102260000020A4F880003620A4F880000020A4F804
:1022700080004620A4F880000020A4F880005220AE
:10228000A4F880000020A4F880006420A4F8800056
:102290000020A4F880007A20A4F880000020A4F890
:1022A00080008B20A4F880000020A4F880009920F2
:1022B000A4F880000020A4F88000A820A4F88000E2
:1022C0000020A4F88000B920A4F880000020A4F821
:1022D0008000C420A4F880000020A4F88000CA2058
:1022E000A4F880000020A4F88000D220A4F8800088
:1022F0000020A4F88000D920A4F880000020A4F8D1
:102300008000E020A4F880000020A4F88000F320E2
:10231000A4F880000020A4F88000E120A4F87E004A
:102320001620A4F880000020A4F880001C20A4F847
:1023300080000020A4F880002220A4F88000002063
:10234000A4F880003620A4F880000020A4F88000C3
:102350004520A4F880000020A4F880005220A4F8B2
:1023600080000020A4F880006420A4F880000020F1
:10237000A4F880007A20A4F880000020A4F880004F
:102380008B20A4F880000020A4F880009920A4F8F5
:1023900080000020A4F88000A820A4F8800000207D
:1023A000A4F88000B920A4F880000020A4F88000E0
:1023B000C420A4F880000020A4F88000CA20A4F85B
:1023C00080000020A4F88000D220A4F88000002023
:1023D000A4F88000D820A4F880000020A4F8800091
:1023E000E020A4F880000020A4F88000F320A4F8E6
:1023F00080000020A4F88000E220A4F87E000520E0
:10240000A4F880000020A4F880000B20A4F880002D
:102410000020A4F880001B20A4F880000020A4F86D
:1024200080003420A4F880000020A4F8800044201C
:10243000A4F880000020A4F880004F20A4F88000B9
:102440000020A4F880006120A4F880000020A4F8F7
:1024500080007920A4F880000020A4F88000882063
:10246000A4F880000020A4F880009720A4F8800041
:102470000020A4F88000A620A4F880000020A4F882
:102480008000B720A4F880000020A4F88000C220BB
:10249000A4F880000020A4F88000C720A4F88000E1
:1024A0000020A4F88000D120A4F880000020A4F827
:1024B0008000D620A4F880000020A4F88000DD2051
:1024C000A4F880000020A4F88000F320A4F8800085
:1024D0000020A4F88000E320A4F87E000520A4F8E2
:1024E00080000020A4F880000A20A4F880000020CA
:1024F000A4F880001C20A4F880000020A4F880002C
:102500003320A4F880000020A4F880004420A4F820
:1025100080000020A4F880005020A4F88000002053
:10252000A4F880006220A4F880000020A4F88000B5
:102530007820A4F880000020A4F880008820A4F867
:1025400080000020A4F880009720A4F880000020DC
:10255000A4F88000A620A4F880000020A4F8800041
:10256000B720A4F880000020A4F88000C220A4F8BE
:102570008000002000E0CFE1A4F88000C720A4F88C
:1025800080000020A4F88000D120A4F88000002062
:10259000A4F88000D520A4F880000020A4F88000D2
:1025A000DD20A4F880000020A4F88000F320A4F827
:1025B00080000020A4F88000E420A4F87E00012020
:1025C000A4F880000020A4F880000120A4F8800076
:1025D000002024F8800F022024F8020900206080E7
:1025E0002A206080002060803C2060800020608085
:1025F0004B206080002060805D2060800020608033
:1026000074206080002060808420608000206080D2
:102610009320608000206080A22060800020608085
:10262000B320608000206080BE2060800020608039
:10263000C420608000206080CD2060800020608009
:10264000D320608000206080DD20608000206080DA
:10265000F320608000206080E520208000206080E2
:10266000608060806080022060800020608029207F
:102670006080002060803C206080002060804B20D3
:102680006080002060805D20608000206080742079
:102690006080002060808420608000206080932023
:1026A000608000206080A220608000206080B320D5
:1026B000608000206080BE20608000206080C42098
:1026C000608000206080CD20608000206080D3206A
:1026D000608000206080DC20608000206080F3202B
:1026E000608000206080E620208011206080002033
:1026F0006080342060800020608056206080002050
:1027000060807620608000206080772060800020DC
:1027100060806620608000206080882060800020CB
:1027200060809920608000206080BB206080002055
:10273000608099206080002060806620608000209A
:1027400060805520608000206080552060800020DF
:1027500060804520608000206080432060800020F1
:1027600060804420608000206080E720208032204C
:10277000608000206080552060800020608076208E
:10278000608000206080662060800020608067207C
:10279000608000206080672060800020608087204B
:1027A0006080002060809920608000206080BB20D5
:1027B0006080002060809920608000206080772009
:1027C000608000206080442060800020608056206F
:1027D00060800020608023206080002060803320A3
:1027E0006080002060804520608000206080E820BC
:1027F00020800020608060809920608000206080C0
:1028000087206080002060808820608000206080B9
:1028100077206080002060806620608000206080DB
:102820008820608000206080AA2060800020608076
:10283000BB20608000206080992060800020608044
:1028400066206080002060805520608000206080CD
:1028500055206080002060804420608000206080DF
:1028600044206080002060805520608000206080CF
:10287000E9202080AA206080002060806080608045
:102880002080AA206080CF2020800020608060808F
:102890006080608060806080608060806080608038
:1028A0006080608060806080608060806080F020F8
:1028B0002080002060805020608000206080608048
:1028C0006080F320208000206080F9202080062096
:1028D00060801020608029206080002060803A2085
:1028E000208055206080112020806420FDF7FAFEB2
:1028F00029202080352020800020608051202080E9
:10290000FF206080532020802C2060805520208074
:10291000822060802C20FDE3B0427DD14FF47045D1
:102920005521284602F03EFA6E1CAA21304602F0DC
:1029300039FAAF1C5221384602F034FA4FF203083C
:102940000821404602F02EFA4FF2040901214846C0
:1029500002F028FA0D214FF4304002F023FA0D2145
:102960004BF2010002F01EFA0D214BF2020002F0C0
:1029700019FA4FF4364A3421504602F013FA342142
:102980004BF2016002F00EFA34214BF2026002F0C9
:1029900009FA0D214FF4314002F004FA0D214BF2F7
:1029A000011002F0FFF90D214BF2021002F0FAF9CA
:1029B00034214FF4374002F0F5F934214BF2017025
:1029C00002F0F0F934214BF2027002F0EBF9002131
:1029D0004FF4324002F0E6F900214BF2012002F000
:1029E000E1F900214BF2022002F0DCF924214FF43E
:1029F000384002F0D7F924214BF6010002F0D2F959
:102A000024214BF6020002F0CDF901214FF43F40A2
:102A100002F0C8F90F2100E0FEE34FF4334002F06A
:102A2000C1F90F214BF2013002F0BCF90F214BF23A
:102A3000023002F0B7F934214FF4394002F0B2F914
:102A400034214BF6011002F0ADF934214BF602109F
:102A500002F0A8F908214FF4354002F0A3F908214B
:102A60004BF2015002F09EF908214BF2025002F0A5
:102A700099F903214FF4424002F094F924214FF4D4
:102A80003A4002F08FF924214BF6012002F08AF936
:102A900024214BF6022002F085F900214FF43C403E
:102AA00002F080F978214BF6014002F07BF9002119
:102AB0004BF6024002F076F900214FF43D4002F05F
:102AC00071F978214BF6015002F06CF900214BF6B8
:102AD000025002F067F900214FF43E4002F062F923
:102AE00064214BF6016002F05DF900214FF4514082
:102AF00002F058F933214DF2011002F053F9002190
:102B00004DF2021002F04EF934214DF2031002F0A2
:102B100049F900214DF2041002F044F93A214DF236
:102B2000051002F03FF900214DF2061002F03AF9CB
:102B30004A214DF2071002F035F900214DF208103C
:102B400002F030F95C214DF2091002F02BF900215E
:102B50004DF20A1002F026F981214DF20B1002F01D
:102B600021F900214DF20C1002F01CF9A6214DF2C2
:102B70000D1002F017F900214DF20E1002F012F9BB
:102B8000E5214DF20F1002F00DF901214DF2101068
:102B900002F008F913214DF2111002F003F901219E
:102BA0004DF2121002F0FEF854214DF2131002F013
:102BB000F9F801214DF2141002F0F4F882214DF2DF
:102BC000151002F0EFF801214DF2161002F0EAF8AC
:102BD000CA214DF2171002F0E5F802214DF218104B
:102BE00002F0E0F800214DF2191002F0DBF80221AA
:102BF0004DF21A1002F0D6F801214DF21B1002F02E
:102C0000D1F802214DF21C1002F0CCF834214DF223
:102C10001D1002F0C7F802214DF21E1002F0C2F89A
:102C200067214DF21F1002F0BDF802214DF2201075
:102C300002F0B8F884214DF2211002F0B3F802211D
:102C40004DF2221002F0AEF8A4214DF2231002F052
:102C5000A9F802214DF2241002F0A4F8B7214DF298
:102C6000251002F09FF802214DF2261002F09AF88A
:102C7000CF214DF2271002F095F802214DF22810D5
:102C800002F090F8DE214DF2291002F08BF80221BB
:102C90004DF22A1002F086F8F2214DF22B1002F0CC
:102CA00081F802214DF22C1002F07CF8FE214DF249
:102CB0002D1002F077F803214DF22E1002F072F879
:102CC00010214DF22F1002F06DF803214DF230105B
:102CD00002F068F833214DF2311002F063F803215D
:102CE0004DF2321002F05EF86D214DF2331002F019
:102CF00059F800214FF4524002F054F833214DF2BC
:102D0000012002F04FF800214DF2022002F04AF8B3
:102D100034214DF2032002F045F800214DF2042049
:102D200002F040F83A214DF2052002F03BF8002174
:102D30004DF2062002F036F84A214DF2072002F04B
:102D400031F800214DF2082002F02CF85C214DF200
:102D5000092002F027F800214DF20A2002F022F8A3
:102D600081214DF20B2002F01DF800214DF20C20C4
:102D700002F018F8A6214DF20D2002F013F8002100
:102D80004DF20E2002F00EF8E5214DF20F2002F078
:102D900009F801214DF2102002F004F813214DF240
:102DA000112001F0FFFF01214DF2122001F0FAFF86
:102DB00054214DF2132001F0F5FF01214DF21420B2
:102DC00001F0F0FF82214DF2152001F0EBFF01210F
:102DD0004DF2162001F0E6FFCA214DF2172001F056
:102DE000E1FF02214DF2182001F0DCFF00214DF23D
:102DF000192001F0D7FF02214DF21A2001F0D2FF75
:102E000001214DF21B2001F0CDFF02214DF21C20CB
:102E100001F0C8FF34214DF21D2001F0C3FF022153
:102E20004DF21E2001F0BEFF67214DF21F2001F080
:102E3000B9FF02214DF2202001F0B4FF84214DF2B0
:102E4000212001F0AFFF02214DF2222001F0AAFF64
:102E5000A4214DF2232001F0A5FF02214DF22420F0
:102E600001F0A0FFB7214DF2252001F09BFF0221C8
:102E70004DF2262001F096FFCF214DF2272001F0E0
:102E800091FF02214DF2282001F08CFFDE214DF24E
:102E9000292001F087FF02214DF22A2001F082FF54
:102EA000F2214DF22B2001F07DFF02214DF22C206A
:102EB00001F078FFFE214DF22D2001F073FF032178
:102EC0004DF22E2001F06EFF10214DF22F2001F067
:102ED00069FF03214DF2302001F064FF33214DF2F0
:102EE000312001F05FFF03214DF2322001F05AFF43
:102EF0006D214DF2332001F055FF00214FF4534076
:102F000001F050FF33214DF2013001F04BFF002161
:102F10004DF2023001F046FF34214DF2033001F052
:102F200041FF00214DF2043001F03CFF3A214DF207
:102F3000053001F037FF00214DF2063001F032FF7D
:102F40004A214DF2073001F02DFF00214DF20830EB
:102F500001F028FF5C214DF2093001F023FF002130
:102F60004DF20A3001F01EFF81214DF20B3001F0CD
:102F700019FF00214DF20C3001F014FFA6214DF293
:102F80000D3001F00FFF00214DF20E3001F00AFF6D
:102F9000E5214DF20F3001F005FF01214DF2103017
:102FA00001F000FF13214DF2113001F0FBFE012171
:102FB0004DF2123001F0F6FE54214DF2133001F0C3
:102FC000F1FE01214DF2143001F0ECFE82214DF2B0
:102FD000153001F0E7FE01214DF2163001F0E2FE5E
:102FE000CA214DF2173001F0DDFE02214DF21830FA
:102FF00001F0D8FE00214DF2193001F0D3FE02217C
:103000004DF21A3001F0CEFE01214DF21B3001F0DD
:10301000C9FE02214DF21C3001F0C4FE34214DF2F4
:103020001D3001F0BFFE02214DF21E3001F0BAFE4C
:1030300067214DF21F3001F0B5FE02214DF2203024
:1030400001F0B0FE84214DF2213001F0ABFE0221EF
:103050004DF2223001F0A6FEA4214DF2233001F002
:10306000A1FE02214DF2243001F09CFEB7214DF269
:10307000253001F097FE02214DF2263001F092FE3C
:10308000CF214DF2273001F08DFE02214DF2283084
:1030900001F088FEDE214DF2293001F083FE02218D
:1030A0004DF22A3001F07EFEF2214DF22B3001F07C
:1030B00079FE02214DF22C3001F074FEFE214DF21A
:1030C0002D3001F06FFE03214DF22E3001F06AFE2B
:1030D00010214DF22F3001F065FE03214DF230300A
:1030E00001F060FE33214DF2313001F05BFE03212F
:1030F0004DF2323001F056FE6D214DF2333001F0C9
:1031000051FE00214FF4544001F04CFE33214DF2AA
:10311000014000E080E301F045FE00214DF2024055
:1031200001F040FE34214DF2034001F03BFE00214E
:103130004DF2044001F036FE3A214DF2054001F017
:1031400031FE00214DF2064001F02CFE4A214DF2E5
:10315000074001F027FE00214DF2084001F022FE59
:103160005C214DF2094001F01DFE00214DF20A40A4
:1031700001F018FE81214DF20B4001F013FE0021F9
:103180004DF20C4001F00EFEA6214DF20D4001F073
:1031900009FE00214DF20E4001F004FEE5214DF242
:1031A0000F4001F0FFFD01214DF2104001F0FAFD4A
:1031B00013214DF2114001F0F5FD01214DF21240B5
:1031C00001F0F0FD54214DF2134001F0EBFD01211F
:1031D0004DF2144001F0E6FD82214DF2154001F060
:1031E000E1FD01214DF2164001F0DCFDCA214DF256
:1031F000174001F0D7FD02214DF2184001F0D2FD39
:1032000000214DF2194001F0CDFD02214DF21A408E
:1032100001F0C8FD012100E000E34DF21B4001F088
:10322000C1FD02214DF21C4001F0BCFD34214DF2E4
:103230001D4001F0B7FD02214DF21E4001F0B2FD2C
:1032400067214DF21F4001F0ADFD02214DF22040FB
:1032500001F0A8FD84214DF2214001F0A3FD0221DF
:103260004DF2224001F09EFDA4214DF2234001F0D9
:1032700099FD02214DF2244001F094FDB7214DF259
:10328000254001F08FFD02214DF2264001F08AFD1C
:10329000CF214DF2274001F085FD02214DF228405B
:1032A00001F080FDDE214DF2294001F07BFD02217D
:1032B0004DF22A4001F076FDF2214DF22B4001F053
:1032C00071FD02214DF22C4001F06CFDFE214DF20A
:1032D0002D4001F067FD03214DF22E4001F062FD0B
:1032E00010214DF22F4001F05DFD03214DF23040E1
:1032F00001F058FD33214DF2314001F053FD03211F
:103300004DF2324001F04EFD6D214DF2334001F09F
:1033100049FD00214FF4554001F044FD33214DF2A9
:10332000015001F03FFD00214DF2025001F03AFD45
:1033300034214DF2035001F035FD00214DF20450CF
:1033400001F030FD3A214DF2055001F02BFD002136
:103350004DF2065001F026FD4A214DF2075001F0D2
:1033600021FD00214DF2085001F01CFD5C214DF2C1
:10337000095001F017FD00214DF20A5001F012FD35
:1033800081214DF20B5001F00DFD00214DF20C504A
:1033900001F008FDA6214DF20D5001F003FD0021C2
:1033A0004DF20E5001F0FEFCE5214DF20F5001F000
:1033B000F9FC01214DF2105001F0F4FC13214DF203
:1033C000115001F0EFFC01214DF2125001F0EAFC26
:1033D00054214DF2135001F0E5FC01214DF214503F
:1033E00001F0E0FC82214DF2155001F0DBFC0121DF
:1033F0004DF2165001F0D6FCCA214DF2175001F0E3
:10340000D1FC02214DF2185001F0CCFC00214DF20C
:10341000195001F0C7FC02214DF21A5001F0C2FC14
:1034200001214DF21B5001F0BDFC02214DF21C5058
:1034300001F0B8FC34214DF21D5001F0B3FC022123
:103440004DF21E5001F0AEFC67214DF21F5001F00D
:10345000A9FC02214DF2205001F0A4FC84214DF280
:10346000215001F09FFC02214DF2225001F09AFC04
:10347000A4214DF2235001F095FC02214DF224507D
:1034800001F090FCB7214DF2255001F08BFC022198
:103490004DF2265001F086FCCF214DF2275001F06D
:1034A00081FC02214DF2285001F07CFCDE214DF21E
:1034B000295001F077FC02214DF22A5001F072FCF4
:1034C000F2214DF22B5001F06DFC02214DF22C50F7
:1034D00001F068FCFE214DF22D5001F063FC032148
:1034E0004DF22E5001F05EFC10214DF22F5001F0F4
:1034F00059FC03214DF2305001F054FC33214DF2C0
:10350000315001F04FFC03214DF2325001F04AFCE2
:103510006D214DF2335001F045FC00214FF456402F
:1035200001F040FC33214DF2016001F03BFC002131
:103530004DF2026001F036FC34214DF2036001F0DF
:1035400031FC00214DF2046001F02CFC3A214DF2D7
:10355000056001F027FC00214DF2066001F022FC1D
:103560004A214DF2076001F01DFC00214DF2086078
:1035700001F018FC5C214DF2096001F013FC002100
:103580004DF20A6001F00EFC81214DF20B6001F05A
:1035900009FC00214DF20C6001F004FCA6214DF263
:1035A0000D6001F0FFFB00214DF20E6001F0FAFB0F
:1035B000E5214DF20F6001F0F5FB01214DF21060A5
:1035C00001F0F0FB13214DF2116001F0EBFB012142
:1035D0004DF2126001F0E6FB54214DF2136001F050
:1035E000E1FB01214DF2146001F0DCFB82214DF280
:1035F000156001F0D7FB01214DF2166001F0D2FBFE
:10360000CA214DF2176001F0CDFB02214DF2186086
:1036100001F0C8FB00214DF2196001F0C3FB02214B
:103620004DF21A6001F0BEFB01214DF21B6001F06A
:10363000B9FB02214DF21C6001F0B4FB34214DF2C4
:103640001D6001F0AFFB02214DF21E6001F0AAFBEC
:1036500067214DF21F6001F0A5FB02214DF22060B1
:1036600001F0A0FB84214DF2216001F09BFB0221BF
:103670004DF2226001F096FBA4214DF2236001F08F
:1036800091FB02214DF2246001F08CFBB7214DF239
:10369000256001F087FB02214DF2266001F082FBDC
:1036A000CF214DF2276001F07DFB02214DF2286011
:1036B00001F078FBDE214DF2296001F073FB02215D
:1036C0004DF22A6001F06EFBF2214DF22B6001F009
:1036D00069FB02214DF22C6001F064FBFE214DF2EA
:1036E0002D6001F05FFB03214DF22E6001F05AFBCB
:1036F00010214DF22F6001F055FB03214DF2306097
:1037000001F050FB33214DF2316001F04BFB0321FE
:103710004DF2326001F046FB6D214DF2336001F055
:1037200041FB5521284601F03DFBAA21304601F01E
:1037300039FB5221384601F035FB0821404601F0A3
:1037400031FB0021484601F02DFBCC214FF43140E4
:1037500001F028FB00214BF2011001F023FB0521B1
:10376000504601F01FFB70214FF4374001F01AFB67
:1037700070214BF2017001F015FB01214FF438402C
:1037800001F010FB03214BF6010001F00BFB0321BC
:103790004BF6020001F006FB03214BF6030001F09B
:1037A00001FB02214FF43C4001F0FCFA00214BF6F2
:1037B000014001F0F7FA00214BF6024001F0F2FA65
:1037C000D0214FF4494001F0EDFA02214CF60110EE
:1037D00001F0E8FA50214CF6021001F0E3FA502112
:1037E0004CF6031001F0DEFA50214CF6041001F003
:1037F000D9FA00214FF4545001F0D4FA55214FF476
:10380000685001F0CFFA4FF4885024F87E0F7820EA
:1038100001F0D4FF4FF424502080BEE0A0F5134106
:103820004FF480754FF4E06740F2022A4FF42748C6
:1038300025397DD0FE1DA0F51341283979D0A0F59A
:1038400013414FF48878203974D0A0F513413139F1
:1038500071D0A0F5A84108396ED0A0F5A8514FF459
:103860004078053969D0A0F53541053966D0A0F515
:10387000454105397ED0A0F58A4131397BD0A0F58C
:103880008A41353978D0484577D1E22024F87E0F37
:103890001D2060800220608004206080642001F090
:1038A0008DFFE0202080012060800A20FCF71AFFB5
:1038B000E0202080032060800C20FCF713FF012013
:1038C00020800A20FCF70EFFE62020802F20608059
:1038D000FF2060806080B020208020206080002059
:1038E00060800320608040F21F3060800120608093
:1038F00040F2DF10608000206080B420208004202F
:10390000608040F21F406080002060802E20608038
:1039100000206080608060806080B620208002206F
:1039200060804FF40370608000206080172006E004
:1039300040E00BE1C7E16FE245E3E1E3FEE36080D5
:1039400015206080002060806080F02020800320AF
:10395000608029202080D020208000206080BE2030
:10396000208005206080FE20608001206080002093
:10397000608003E0FEE3FEE3FEE30EE06080608033
:10398000B82020800320608001206080BA20208041
:1039900001206080642000F0F7FF0120FDF79EFD0C
:1039A0000122D103FE48FCF7F2FF5846BDE8F05F64
:1039B000FDF77CBD47F6F001E52001F0F3F929465B
:1039C000012001F0EFF93946022001F0EBF941F254
:1039D0003001032001F0E6F90021042001F0E2F9B2
:1039E0005146082001F0DEF90021092001F0DAF942
:1039F00000210A2001F0D6F900210C2001F0D2F9B3
:103A000000210D2001F0CEF900210F2001F0CAF9AC
:103A10000021102001F0C6F90721112001F0C2F9A0
:103A20000021122001F0BEF90021132001F0BAF9A3
:103A30000021072001F0B6F941F29061102001F059
:103A4000B1F940F22721112001F0ACF99D2112209B
:103A500001F0A8F94FF4C851132001F0A3F9252172
:103A6000292001F09FF90D212B2001F09BF907215E
:103A7000302001F097F940F20331312001F092F942
:103A80000321322001F08EF940F20621352001F0A9
:103A900089F90821362001F085F940F206413720E6
:103AA00001F080F94FF44171382001F07BF90721D2
:103AB000392001F077F940F202613C2001F072F9FF
:103AC00008213D2001F06EF90021502001F06AF933
:103AD000EF21512001F066F90021522001F062F936
:103AE00040F23F11532001F05DF94146602001F0A2
:103AF00059F90121612001F055F900216A2001F0F6
:103B000051F90021802001F04DF90021812001F0C0
:103B100049F90021822001F045F90021832001F0BC
:103B200041F90021842001F03DF90021852001F0B8
:103B300039F91021902001F035F94FF4C06192203D
:103B400001F030F940F233110720FDE341F28F011B
:103B5000EC2001F027F941F23421EF2001F022F9A5
:103B60002946012001F01EF93946022001F01AF918
:103B700041F23001032001F015F90021042001F089
:103B800011F95146082001F00DF90021092001F03A
:103B900009F900210A2001F005F901210C2001F0AA
:103BA00001F900210D2001F0FDF800210F2001F0A6
:103BB000F9F80021102001F0F5F80721112001F09B
:103BC000F1F80021122001F0EDF80021132001F09E
:103BD000E9F80121072001F0E5F83220FCF782FD29
:103BE00041F29041102001F0DDF840F22721112030
:103BF00001F0D8F83220FCF775FD8A21122001F07F
:103C0000D1F83220FCF76EFD4FF4D051132001F0B3
:103C1000C9F80621292001F0C5F80D212B2001F05B
:103C2000C1F83220FCF75EFD0021202001F0BAF837
:103C30000021212001F0B6F83220FCF753FD0021CD
:103C4000302001F0AFF840F20461312001F0AAF811
:103C500040F20531322001F0A5F80021352001F0B5
:103C6000A1F840F60941362001F09CF84FF40171AB
:103C7000372001F097F840F20131382001F092F836
:103C80003146392001F08EF800213C2001F08AF8FD
:103C900040F60A213D2001F085F83220FCF722FD94
:103CA0000021502001F07EF8EF21512001F07AF838
:103CB0000021522001F076F840F23F11532001F02C
:103CC00071F8414654E10021084601F06BF829469D
:103CD000012001F067F83946022001F063F841F253
:103CE0003001032001F05EF80021042001F05AF8B1
:103CF0005146082001F056F80021092001F052F841
:103D000000210A2001F04EF801210C2001F04AF8B0
:103D100000210D2001F046F800210F2001F042F8AB
:103D20003220FCF7DFFC40F20111072001F03AF8E5
:103D30003220FCF7D7FC4FF48651102001F032F806
:103D40000721112001F02EF844464146122001F0CF
:103D500029F84FF43061132001F024F800212920C4
:103D600001F020F844F210012B2001F01BF8002193
:103D7000502001F017F8EF21512001F013F8002135
:103D8000522001F00FF840F23F11532001F00AF8E1
:103D90004FF41C51602001F005F80121612001E081
:103DA0000004024000F0FEFF00216A2000F0FAFF4C
:103DB0000021802000F0F6FF0021812000F0F2FFBA
:103DC0000021822000F0EEFF0021832000F0EAFFB6
:103DD0000021842000F0E6FF0021852000F0E2FFB2
:103DE0001021902000F0DEFF0021922000F0DAFF89
:103DF0000121932000F0D6FF2146952000F0D2FF4C
:103E00000021972000F0CEFF0021982000F0CAFF8B
:103E100040F27311072083E341F21401E72000F020
:103E2000C1FF2946012000F0BDFF4FF400710220C0
:103E300000F0B8FF41F23801032000F0B3FF514613
:103E4000082000F0AFFF0021092000F0ABFF0021A7
:103E50000A2000F0A7FF00210C2000F0A3FF0021A2
:103E60000D2000F09FFF00210F2000F09BFF00219C
:103E7000102000F097FF0721112000F093FF002190
:103E8000122000F08FFF0021132000F08BFFC820CC
:103E9000FCF728FC41F29061102000F083FF40F213
:103EA0002721112000F07EFF3220FCF71BFC0C21A3
:103EB000122000F077FF3220FCF714FC4FF4006171
:103EC000132000F06FFF1121292000F06BFF0B2160
:103ED0002B2000F067FF3220FCF704FC002120209B
:103EE00000F060FF40F23F142146212000F05AFF0D
:103EF0000021302000F056FF4FF483752946312011
:103F000000F050FF0021322000F04CFF4FF401710F
:103F1000352000F047FF41F20A61362000F042FFF1
:103F20003146372000F03EFF2946382000F03AFFA6
:103F30003146392000F036FF40F202413C2000F0CB
:103F400031FF40F60F413D2000F02CFF00215020B2
:103F500000F028FFEF21512000F024FF0021522023
:103F600000F020FF2146532000F01CFF4FF41C51AD
:103F7000602000F017FF0121612000F013FF0021F5
:103F80006A2000F00FFF0021802000F00BFF0021CD
:103F9000812000F007FF0021822000F003FF0021B4
:103FA000832000F0FFFE0021842000F0FBFE0021B2
:103FB000852000F0F7FE1021902000F0F3FE4FF472
:103FC000C0619220FEE32946012000F0EBFE394655
:103FD000022000F0E7FE41F23001032000F0E2FE93
:103FE0000021042000F0DEFE40F20721082000F04E
:103FF000D9FE0021092000F0D5FE00210A2000F0A2
:10400000D1FE00210C2000F0CDFE00210D2000F09B
:10401000C9FE00210F2000F0C5FE1420FCF762FB52
:1040200041F2B061102000F0BDFE0121112000F02E
:10403000B9FE0121172000F0B5FE4FF49C7112204B
:1040400000F0B0FE4FF40061132000F0ABFE092138
:10405000292000F0A7FE09212A2000F0A3FE00215C
:10406000A42000F09FFE0021502000F09BFEEF21D5
:10407000512000F097FE0021522000F093FE40F204
:104080003F11532000F08EFE4FF41C51602000F0D1
:1040900089FE0121612000F085FE00216A2000F0E8
:1040A00081FE0021802000F07DFE0021812000F0B3
:1040B00079FE0021822000F075FE0021832000F0AF
:1040C00071FE0021842000F06DFE0021852000F0AB
:1040D00069FE1321902000F065FE0021922000F07F
:1040E00061FE0321932000F05DFE4146952000F023
:1040F00059FE40F27311072000F054FE32200DE10A
:104100000021072000F04EFE3220FCF7EBFA4FF4BE
:104110008E71122000F046FE0121A42000F042FE24
:104120000F21082000F03EFE08210A2000F03AFE90
:1041300008210D2000F036FE314600E0F2E030208C
:1041400000F030FE0721312000F02CFE40F2036128
:10415000322000F027FE3946332000F023FE51467E
:10416000342000F01FFE0221352000F01BFE41F636
:104170000F7102E0D5E19EE254E3362000F012FE1A
:104180003146372000F00EFE0021382000F00AFEF4
:104190000021392000F006FE31463A2000F002FEF0
:1041A00000213B2000F0FEFD07213C2000F0FAFD3D
:1041B00000213D2000F0F6FD3220FCF793FA0121AA
:1041C000072000F0EFFD0121172000F0EBFD322069
:1041D000FCF788FA4FF4BD51102000F0E3FD40F2E7
:1041E0001721112000F0DEFD4FF48F71122000F036
:1041F000D9FD4FF47061132000F0D4FD00212A2076
:1042000000F0D0FD0A21292000F0CCFD4FF49F7171
:10421000122000F0C7FD0021502000F0C3FDEF2167
:10422000512000F0BFFD0021522000F0BBFD40F204
:104230003F11532000F0B6FD4FF41C51602000F0F8
:10424000B1FD0121612000F0ADFD00216A2000F0E8
:10425000A9FD0021802000F0A5FD0021812000F0B3
:10426000A1FD0021822000F09DFD0021832000F0AF
:1042700099FD0021842000F095FD0021852000F0AB
:1042800091FD1321902000F08DFD4146922000F019
:1042900089FD0521932000F085FD0021952000F087
:1042A00081FD0021972000F07DFD0021982000F085
:1042B00079FD2946012000F075FD3946022000F005
:1042C00071FD41F23801032000F06CFD0021042053
:1042D00000F068FD00210C2000F064FD00210F209B
:1042E00000F060FD0021202000F05CFD0021212075
:1042F00000F058FD2121072000F054FD1420FCF7A8
:10430000F1F96121072000F04DFD1420FCF7EAF9D6
:1043100040F27311072000F045FD1420FCF7E2F98C
:10432000FFF73BBB0021084600F03CFD002108469A
:1043300000F038FD0021084600F034FD0021084659
:1043400000F030FD012100E0E6E0A42000F02AFDAD
:104350001420FCF7C7F94FF41C542146602000F0EC
:1043600021FD56465146082000F01CFD4FF4057112
:10437000302000F017FD43F21571312000F012FDDE
:1043800040F20461322000F00DFD40F6166133204A
:1043900000F008FD42F21121342000F003FD4FF43B
:1043A000A851352000F0FEFC48F20751362000F0FD
:1043B000F9FC41F20741372000F0F4FC41F20341DF
:1043C000382000F0EFFC2021392000F0EBFC1A210E
:1043D000902000F0E7FC0021102000F0E3FC072112
:1043E000112000F0DFFC0021122000F0DBFC002196
:1043F000132000F0D7FC1420FCF774F94FF4E661A9
:10440000102000F0CFFC40F23711112000F0CAFC60
:104410001420FCF767F94FF4DC71122000F0C2FCA5
:104420001420FCF75FF94FF47061132000F0BAFC20
:1044300080212A2000F0B6FC4821292000F0B2FC9F
:104440001420FCF74FF92946012000F0ABFC394657
:10445000022000F0A7FC41F23801032000F0A2FC8A
:104460003146082000F09EFC00210A2000F09AFC52
:1044700000210C2000F096FC00210D2000F092FCA1
:1044800030210E2000F08EFC0021502000F08AFC2C
:10449000EF21512000F086FC0021522000F082FC28
:1044A00040F23F11532000F07DFC2146602000F0D7
:1044B00079FC0121612000F075FC00216A2000F0E8
:1044C00071FC1121902000F06DFC4FF4C06192202E
:1044D00000F068FC40F20241932000F063FC0221EE
:1044E000942000F05FFC1420FCF7FCF80121072069
:1044F00000F058FC1420FCF7F5F86121072000F0CB
:1045000051FC40F27311072000F04CFC00212020E8
:1045100000F048FC0021212000F044FC2221002072
:104520007DE10021084600F03DFC0021084600F036
:1045300039FC1420FCF7D6F80021084600F032FCC4
:104540000021084600F02EFC0021084600F02AFC5D
:104550000021084600F026FC0121A42000F022FCE6
:104560001420FCF7BFF84FF41C51602000F01AFC37
:1045700040F60601082000F015FC40F203763146B3
:10458000302000F00FFC0121312000F00BFC042151
:10459000322000F007FC4FF48171332000F002FC60
:1045A00044464146342000F0FDFB40F20311352023
:1045B00000F0F8FB1F21362000F0F4FB31463720D5
:1045C00000F0F0FB0121382000F0ECFB0421392041
:1045D00000F0E8FB1521902000F0E4FB4FF482612D
:1045E000102000F0DFFB40F24721112000F0DAFB41
:1045F0004FF4DE71122000F0D5FB4FF46061132000
:1046000000F0D0FB7820FCF76DF82946012000F07F
:10461000C9FB4FF40071022000F0C4FB41F23001ED
:10462000032000F0BFFB08210A2000F0BBFB0021A3
:104630000C2000F0B7FB20210E2000F0B3FB00217E
:104640000F2000F0AFFB0021202000F0ABFB002189
:10465000212000F0A7FB3D212A2000F0A3FB14201D
:10466000FCF740F82D21292000F09CFB0021502070
:1046700000F098FB4DF2EF01512000F093FB002178
:10468000522000F08FFB40F23F11532000F08AFBD4
:104690000021612000F086FB00216A2000F082FBEF
:1046A0002146922000F07EFB0521932000F07AFB4A
:1046B0002946FFF7AFBB0121002000F073FB0A2061
:1046C000FCF710F841F22861102000F06BFB0E217E
:1046D000122000F067FB40F63921132000F062FB46
:1046E0000A20FBF7FFFF4021112000F05BFB502167
:1046F000152000F057FB0A20FBF7F4FF1E211220C3
:1047000000F050FB0A20FBF7EDFF4FF4B1511020F1
:1047100000F048FB42F63921132000F043FB0A2049
:10472000FBF7E0FF2946012000F03CFB4146022058
:1047300000F038FB41F23801032000F033FB514612
:10474000082000F02FFB08210A2000F02BFB00219D
:10475000302000F027FB40F20241312000F022FB24
:104760004FF48371322000F01DFB40F203513320DF
:1047700000F018FB4FF48271342000F013FB40F27C
:104780000131352000F00EFB3146362000F00AFBE7
:1047900040F20531372000F005FB4FF4027138205C
:1047A00000F000FB40F60B71392000F0FBFA02210B
:1047B000412000F0F7FA4FF41C51602000F0F2FAAB
:1047C000012100E0D1E0612000F0ECFA4FF4047127
:1047D000902000F0E7FA4FF48571922000F0E2FAA1
:1047E0000421932000F0DEFA2946A02000F0DAFA36
:1047F0000121072000F0D6FA2121072000F0D2FA8B
:104800002321072000F0CEFA3321072000F0CAFA56
:1048100040F23311072000F0C5FA0021A02000F07B
:10482000C1FA7DE53021152000F0BCFA10219A2054
:1048300000F0B8FA2021112000F0B4FA43F2284128
:10484000102000F0AFFA0221122000F0ABFA41F282
:104850003801132000F0A6FA2820FBF743FF1221AD
:10486000084600F09FFA2820FBF73CFF43F2204166
:10487000102000F097FA43F23801132000F092FA6A
:104880004620FBF72FFF0021302000F08BFA40F28A
:104890000241312000F086FA40F20731322000F068
:1048A00081FA4FF44171332000F07CFA0421342066
:1048B00000F078FA40F20141352000F073FA3146F9
:1048C000362000F06FFA40F20531372000F06AFA26
:1048D0004FF4C2642146382000F064FA21463920A2
:1048E00000F060FA2946012000F05CFA41460220FF
:1048F00000F058FA41F23001032000F053FA40F67C
:104900000801082000F04EFA08210A2000F04AFAB7
:104910004FF41C51602000F045FA0121612000F0A5
:1049200041FA4FF49F71902000F03CFA2946922002
:1049300000F038FA2946932000F034FA4FF4405141
:10494000A02000F02FFA1021A32000F02BFA012163
:10495000072000F027FA2121072000F023FA232165
:10496000072000F01FFA3321072000F01BFA40F265
:1049700033119EE608B54FF0D840B0F88000ADF88E
:104980000000BDF8000008BD10B54FF0D844BE21AE
:1049900024F87E1F05216180FBF7DBFC9FED081BDF
:1049A00053EC112BFBF763FCFBF7E0FC608001206C
:1049B0006080FF20608000206080608010BD00006B
:1049C00066666666666604402DE9F041654C002522
:1049D0002146A379898846F6040241F66317012B24
:1049E00001D02BB11DE091421BD0B94202D118E099
:1049F000B94216D1082814D2DFE800F00406080AEC
:104A00000C0E101206200CE007200AE0042008E03B
:104A1000052006E0012004E0002002E0032000E081
:104A20000220A1F5134C45F2103345F21056BCF1AB
:104A3000410C07D0914205D0994203D0B14201D038
:104A4000B94272D1082812D2DFE800F0110406083A
:104A50000A0C0E1080250AE0402508E0C02506E07B
:104A6000202504E0602502E0A02500E0E0253620B6
:104A7000994205D0B14203D0B94201D045F00805B2
:104A8000914201D145F00205294600F08BF9A18839
:104A9000B9420AD0A8062088628802D5904202D383
:104AA00003E0904201D9228060804FF0D840B142AB
:104AB000618920F87E1F21D1002242804A1C028099
:104AC000002242808A1C02802288521E130A4380E0
:104AD000C91C0180D1B24180A1890180002242809D
:104AE0004A1C0280002242808A1C02806288521E78
:104AF000130A4380C91C0180D1B212E00021418019
:104B000041802188491E0A0A4280C9B24180A18998
:104B100001800021418041806188491E0A0A42804B
:104B2000C9B24180BDE8F081FFE7082812D2DFE872
:104B300000F0040608110A0C0E1030250AE01025BA
:104B400008E0202506E0382504E0282502E01825A5
:104B500000E0082545F48051BDE8F041032000F055
:104B600021B900005C0000202DE9F05F0C46434EA7
:104B700001463046B5888289230A4FEA112C4089C4
:104B8000A5F513474FF0D84AE146413F1CD0A5F5A3
:104B9000A647103F18D0B34696F806C03688A5F54C
:104BA000D047A6EB0108A8F10108043F11D0A5F5F4
:104BB000C857633F1FD0A5F5AA475E46103F44D0B3
:104BC000BCF1010F4FD050E0554625F87E0F6046EE
:104BD00008E0BCF1010F01D11FFA88F1554625F814
:104BE0007E0F080A6880C8B268802A806B80E0B2B5
:104BF0006880BDE8F09FBCF1000F19D0554625F83C
:104C00007E0FA5F80290C8B26880761E300A6880D0
:104C1000F0B26880504620F87E2F4380E1B2418098
:104C2000BBF80210491E0A0A4280C9B24180E0E77F
:104C300051461FFA88F521F87E0F002048804880F1
:104C4000280A4880E8B24880E4E7554625F87E0FF8
:104C5000A5F80290401C2880C8B268802A806B802A
:104C6000521C2A80C3E71FFA88F100F09BF8B08934
:104C70002146BDE8F05F00F095B800005C00002020
:104C80002DE9FF5F1D460C468A46580700D00120DB
:104C900000EBD500690810FB01F0203A00F0FF0995
:104CA000D0B20026DFF888B002903DE00C2D0DD088
:104CB000102D3BD11F49029801EB00104FF0000866
:104CC000875D380609D54FF478420AE002981A4900
:104CD00000EB400001EB8000F0E70E9828B94FF69A
:104CE000FF7221460098FCF745FD7806070E641C0C
:104CF000BBF80200A4B2A04218D9A4EB0A00A84253
:104D000009D100985446401C80B20090BBF80010B6
:104D100081420BD906E008F1010000F0FF08B8F16C
:104D2000080FCED3761CF6B24E45BFD3BDE8FF9F29
:104D30005C0000205C5E0008E85900082DE9F84F8F
:104D4000044600F0FF0910190D46DDE90AB61FFA06
:104D500080F8581987B24FF0000A12E0444503D397
:104D600005EB0B004C4685B2BD420FD25B4629468F
:104D70002046CDF800A0FFF783FF04EB5B0084B270
:104D8000761C3278A2F120005E28E7D9BDE8F88FC2
:104D900003484FF0D8410089A1F87E007047000019
:104DA0005C0000204FF0D84222F87E0F51807047FF
:104DB00010B501460E220248FBF735FA002010BD5F
:104DC0005C00002010B58EB01C216846FBF744FA49
:104DD0001C2107A8FBF740FA1A484FF02041102287
:104DE000016019494160062181600021C160C0E96C
:104DF00004128161C16113020162C0E909139302C7
:104E0000C0E90B1341638163416409200F23082427
:104E10008DE819000DF10C0C11248CE81600CDE979
:104E200006100DF1240C08938CE817000D9107AAC9
:104E300069460448FCF7EAF8002801D0FBF7E4FBD8
:104E40000EB010BD6C000020040100A02DE9F04759
:104E500086B014216846FBF7FFF94C48002401682E
:104E600041F010010160016801F010010591016835
:104E700041F004010160016801F00401059101683D
:104E800041F080010160016801F080010591016835
:104E900041F002010160016801F002010591016821
:104EA00041F020010160016801F0200105910168D5
:104EB00041F008010160016801F0080105910168F5
:104EC00041F001010160016801F0010105910168F3
:104ED00041F0400101600068DFF8B48000F040005C
:104EE0004FF400560590002231464046FBF74FFD37
:104EF000DFF8A0A0002248F201015046FBF747FD71
:104F0000DFF89490B710002239464846FBF73FFD82
:104F10001020009021480125CDE90105694620486F
:104F2000FBF754FC0096CDE90154694640460394D2
:104F3000FBF74CFC0095CDE90154694650460394BB
:104F4000FBF744FC06208DE8310069465046FBF72C
:104F50003DFC0097CDE90154694648460394FBF7B0
:104F600035FCE803CDE90005CDE902546946504619
:104F7000FBF72CFC002201210A20FBF77BFD0A2015
:104F8000FBF76AFD06B0BDE8F0870000303802404C
:104F900000080240000402400014024000002110FA
:104FA0000010024010B586B0002417480094019408
:104FB0000294039404944FF080410594016040F200
:104FC000E731C0E9011440F63301C0E903148461FC
:104FD000FCF7A8F808B1FBF717FB4FF480500090DE
:104FE00069460948FCF7D6F808B1FBF70DFB0494B5
:104FF00004A905480594FCF74DF8002801D0FBF7FB
:1050000003FB06B010BD0000BC0000200C4810B52A
:105010000A4901604FF4E1314160002181600C22B6
:10502000C160C0E904128161C161FCF7D6F90028B2
:1050300003D0BDE81040FBF7E7BA10BD00100140F7
:10504000FC000020FEE770477047000070B5054681
:1050500002212348FBF796FC224C30B1207A00064F
:1050600001D57F202072207A70BD04F1060104F181
:10507000040015B100F0E2F92CE000F0DFF948B3CC
:1050800018480C30B0F9081090ED001A00EE101A14
:10509000A18800EE901AB8EEC00AF8EE600A01EEA0
:1050A000200ABCEEC00A10EE101A2180B0F90A10D6
:1050B00090ED011A00EE101AE088F8EEC00A00EE3A
:1050C000100AB8EE400A41EE000ABCEEE00A10EE0B
:1050D000100A6080207A0006C5D4C020C2E7000014
:1050E00000040240240000207047FBF75BBC000076
:1050F00010B592B030216846FBF7AEF814210CA829
:10510000FBF7AAF814480024016841F080510160BF
:10511000006800F0805011901048016841F480410F
:1051200001600068069400F4804011900220009015
:1051300001200390102004906846FBF7B9FD0F2072
:10514000CDE90C040E940F9400210CA81094FBF7E9
:10515000C3FC12B010BD0000403802400070004097
:105160000548016841F47001016003494FF0006097
:10517000803908607047000088ED00E00148FCF7C6
:1051800075B80000BC000020F0B50268254C264D23
:10519000264E274F274B4FF0804CA04209D0604548
:1051A00007D0A84205D0B04203D0B84201D09842FF
:1051B00004D122F0700E4A6842EA0E02A0421BD0CF
:1051C000604519D0A84217D0B04215D0B84213D0CC
:1051D000984211D0184DA8420ED0184DA8420BD0BD
:1051E000174DA84208D0174DA84205D0164DA84229
:1051F00002D0164DA84203D122F44075CA682A4352
:105200004D6922F080022A4302608A68C2620A68FD
:105210008262A04201D0984201D109690163012153
:105220004161F0BD00000140000400400008004062
:10523000000C0040000401400040014000440140D7
:105240000048014000180040001C004000200040C1
:1052500010B5846842EA032224F47F440A432243BF
:10526000826010BD826822F070020A4342F007019A
:105270008160704710B5036A046A24F00104046277
:10528000846924F0F00444EA021423F00A020A4379
:105290008461026210BD10B5036A23F0100303623B
:1052A0008369046A23F4704343EA023224F0A003C2
:1052B00043EA01118261016210BD00002DE9F05F37
:1052C000DFF8EC8005460024224601214046FBF72A
:1052D0005EFBDFF8E0904FF4006700223946484655
:1052E000FBF755FB4FF4005B002259463248FBF7B1
:1052F0004EFBBA4600264746280601D5012200E0AB
:10530000002251464846FBF742FB6806050E002284
:1053100001213846FBF73BFB012000F04FFA012248
:1053200011463846FBF733FB761CF6B2082EE3D362
:10533000062000F043FA002201213E463846FBF7E2
:1053400026FB012000F03AFA012211463046FBF715
:105350001EFB012000F032FA002201213046FBF74B
:1053600016FB00254FF6FF7707EA440400220121CF
:105370003046FBF70CFB012000F020FA0122114619
:105380003046FBF704FB04213046FBF7FBFA08B17B
:10539000641CA4B26D1CEDB2102DE5D324090122CA
:1053A00059460548FBF7F3FA2046BDE8F09F000098
:1053B000000402400014024000080240FEB5064608
:1053C00000256C463046FFF779FF24F815006D1C68
:1053D000ADB2052DF6D30020431C99B20CE000BFFE
:1053E00034F8102034F81150AA4203D924F8105090
:1053F00024F81120491C89B20529F1D398B2042858
:10540000EAD300215FF0010034F81020401C114461
:1054100080B289B20428F7D30320B1FBF0F0FEBDBF
:1054200070B505460C46D020FFF7C8FF0646902011
:10543000FFF7C4FF2E802080012070BD7FB50C4691
:105440000546694602A8FFF7EBFF00282FD001A907
:1054500003A8FFF7E5FF002829D0BDF80C30BDF800
:105460000820934203D803F13200824205D39A42C6
:105470001FD802F1320083421BD2BDF80410BDF8E0
:105480000000814203D801F13206B04204D38842C1
:105490000FD8323081420CD2D01840082880BDF895
:1054A0000000BDF80410084440082080012004B02A
:1054B00070BD0020FBE700002DE9FC5F07464FF6BA
:1054C000FF790D4600244846FBF7F0FF36481421CB
:1054D000143F018041808780C1800181143D458156
:1054E0008781C5819FED310AA0F11C010026DFF8FC
:1054F000C0A081ED000A4FF0100883460127A0F1FB
:1055000028054846FBF7D2FF16B9DAF8001001E08B
:10551000DAF804107823CDE90081EB225021232012
:10552000FFF70CFC0BEB84013BF8240049884FF497
:105530007842FBF733F80120FFF788FD287AB7EBB4
:10554000901FF8D11848A988103820F8241000EBD3
:105550008400E9884180287A641C20F04000E4B28D
:105560002872042CCDD300F0D3F9B8B100F076F94D
:105570004C464846FBF79AFF0EA1CDE900818223F5
:10558000EB226E212320FFF7D9FB4FF4C870FBF705
:10559000A9F82046BDE8FC5FFBF788BF0024012680
:1055A0004846FBF783FFB3E74C00002000000000F3
:1055B00000000020546F7563682053637265656E48
:1055C0002041646A757374204F4B21002DE9F0412E
:1055D000044600680169E26821F440511143016109
:1055E0002169A068E26908436169114308432168A1
:1055F000CA6849F20C639A430243CA602068416951
:10560000A26921F4407111434161E06919276425C1
:105610003226B0F5004F354A354920684FF0000872
:1056200006D0884201D0904236D1FBF7FFFA35E030
:10563000884201D0904202D1FBF7F8FA01E0FBF773
:10564000E5FA61684A18A0FB070148EB0803FAF77E
:10565000B9FD0146B0FBF5F00201B1FBF5F06FF0CA
:105660001803584301EB800006EBC000B0FBF5F0D7
:1056700000F0F80002EB4002B1FBF5F0584301EBFB
:10568000800006EBC000B0FBF5F000F007002168D9
:1056900010448860BDE8F081FBF7B8FA61688B0FB1
:1056A0008A00A0FB0701FAF78DFD0146B0FBF5F07B
:1056B0006FF01802504301EB800006EB0010B0FBC6
:1056C000F5F000F0F002B1FBF5F002EB0012B1FBD7
:1056D000F5F06FF01803584301EB800006EB001063
:1056E000B0FBF5F000F00F00D1E70000001401401E
:1056F00000100140FEE70907090E002804DB00F155
:10570000E02080F80014704700F00F0000F1E02066
:1057100080F8141D704700B52DED048BB0EE409A53
:10572000F0EE609A83B051EC190BFAF7B4FE41EC3D
:10573000180B18EE100A18EE901A8DED008B002849
:1057400018BF0120084320F00040C0F17F6000F145
:10575000E040C00F14D019EE101A19EE900A8DED2A
:10576000009B002918BF0121084320F00040C0F130
:105770007F6000F1E040C00F04BF012000F018F886
:10578000B0EE480A03B0F0EE680ABDEC048B00BD31
:1057900002E008C8121F08C1002AFAD170477047FA
:1057A000002001E001C1121F002AFBD17047000058
:1057B00001490860704700002000002030B54FF01C
:1057C000E02185B08A6901924A69521C08B101231F
:1057D00000E00023C01A50434FF47A73B0FBF3F398
:1057E000019C002000948C690194DDE90045AC42E5
:1057F00000D21444641B204400958342F3D805B0C2
:1058000030BD00001CB5FBF7D5F8FFF771FCFFF7C2
:105810001DFBFFF7D7FAFFF7C5FBFFF7F7FB0C48B7
:10582000FFF7C6FAFCF71AF80020FBF757FE4FF413
:10583000A071F020FFF740FE102006A1CDE9000185
:1058400003464022C8216420FFF778FAFEE70000F3
:105850005C0000207670703D0000000070B52B48A1
:1058600086880588711B00EE101AA0F110013544DE
:10587000B1F90440B1F90030F8EEC00AE21A00EEC6
:10588000102A2344A0F11C02B8EEC01A80EE810A4F
:1058900000EE905A01EE103AF8EE600AB8EEC11A26
:1058A00082ED000A40EE410AB6EE000A60EE800A80
:1058B000FDEEE00A10EE903A1381438940881C1AED
:1058C00000EE904AB1F90A40B1F90210B8EEE01AC0
:1058D000651A00EE905A1844F8EEE01AC1EE210A5B
:1058E00001EE100A601801EE900AB8EE411AF8EEC7
:1058F000E11AC2ED010A00EEE11A21EE000ABDEE46
:10590000C00A10EE100A508170BD00004C0000204B
:105910002DE9F041324C2DED028B211D2046FAF786
:105920001EFE04F10C010546081F88460746FAF7DB
:1059300016FE2A180AD0291A00D549426423594371
:1059400091FBF2F100EE101AB8EEC08A254E18EE67
:10595000101AB14241DCEDB3E0B339462048FAF702
:10596000FEFD05464146201DFAF7F9FD01466A187D
:105970000AD0681A00D540426423584390FBF2F0E5
:1059800000EE100AB8EEC08A18EE100AB04224DC0D
:1059900005B3F9B13946201DFAF7E1FD0446414649
:1059A0000F48FAF7DCFD22180AD0211A00D5494227
:1059B0006423594391FBF2F100EE101AB8EEC08A4D
:1059C00018EE101AB14208DC24B118B10120BDEC68
:1059D000028B00E001E0BDE8F0810020F7E7000065
:1059E0003C000020000040400000000000000000DB
:1059F00000000000000000003F4000000000000028
:105A000000003000400030004000000009000BC0E2
:105A10003D000BC03D00090018C024407FE022403B
:105A200031800000180024C01B000D80324001802E
:105A300003801C4027401C8007400040100060008D
:105A400000000000000000000000000000001F80B7
:105A5000204040200000402020401F800000000027
:105A6000090006001F800600090000000400040071
:105A70003F800400040000000010006000000000EF
:105A80000000000004000400040004000400000002
:105A9000000000400000000000000000002001C0E5
:105AA00006003800400000001F80204020402040B9
:105AB0001F800000000010403FC0004000000000B8
:105AC00018C021402240244018400000108020408F
:105AD000244024401B80000002000D0011003FC044
:105AE000014000003C8024402440244023800000EA
:105AF0001F802440244034400380000030002000F8
:105B000027C03800200000001B802440244024408F
:105B10001B8000001C0022C0224022401F80000089
:105B2000000000000840000000000000000000002D
:105B30000460000000000000000004000A001100E2
:105B40002080404009000900090009000900000008
:105B500000004040208011000A00040018002000CE
:105B600023402400180000001F80204027402940C7
:105B70001F400000004007C039000F0001C0004076
:105B800020403FC0244024401B8000001F80204054
:105B9000204020403080000020403FC02040204076
:105BA0001F80000020403FC024402E4030C0000035
:105BB00020403FC024402E00300000000F00108025
:105BC000204022403380020020403FC004000400F7
:105BD0003FC02040204020403FC0204020400000E7
:105BE0000060202020203FC02000200020403FC037
:105BF00024400B0030C0204020403FC020400040E7
:105C0000004000C03FC03C0003C03C003FC000005B
:105C100020403FC00C4023003FC020001F80204098
:105C2000204020401F80000020403FC0244024002E
:105C3000180000001F802140214020E01FA000002C
:105C400020403FC02440260019C0004018C0244016
:105C50002440224031800000300020403FC02040DE
:105C60003000000020003F80004000403F802000C6
:105C700020003E0001C0070038002000380007C0A7
:105C80003C0007C038000000204039C0060039C081
:105C9000204000002000384007C0384020000000AD
:105CA000304021C02640384020C0000000000000E5
:105CB0007FE0402040200000000070000C000380C6
:105CC000004000000000402040207FE00000000075
:105CD0000000200040002000000000000010001024
:105CE0000010001000100010000000004000000034
:105CF00000000000000002800540054003C0004095
:105D000020003FC0044004400380000000000380E6
:105D1000044004400640000000000380044024408A
:105D20003FC00040000003800540054003400000E4
:105D3000000004401FC0244024402000000002E076
:105D4000055005500650042020403FC00440040088
:105D500003C000400000044027C0004000000000D5
:105D600000100010041027E00000000020403FC099
:105D70000140070004C00440204020403FC00040D4
:105D80000040000007C0040007C0040003C000007A
:105D9000044007C00440040003C00040000003802A
:105DA0000440044003800000041007F00450044045
:105DB00003800000000003800440045007F000103E
:105DC000044007C002400400040000000000064038
:105DD0000540054004C00000000004001F8004408E
:105DE00000400000040007800040044007C000405D
:105DF0000400070004C0018006000400060001C082
:105E0000070001C006000000044006C0010006C0F3
:105E1000044000000410071004E0018006000400A4
:105E20000000044005C006400440000000000000DF
:105E300004007BE040200000000000000000FFF0B4
:105E400000000000000040207BE004000000000093
:105E500040008000400020002000400000000000C2
:105E60000000000000000000000000000000000032
:105E700000001FCC000C0000000000000000080023
:105E8000300060000800300060000000022003FCC9
:105E90001E20022003FC1E200220000000000E181D
:105EA00011043FFF10840C78000000000F001084E4
:105EB0000F3800C0077818840078000000780F843D
:105EC00010C411240E9800E4008400080800680043
:105ED0007000000000000000000000000000000052
:105EE000000007E0181820044002000000004002F3
:105EF0002004181807E000000000000002400240E3
:105F000001800FF00180024002400000008000800C
:105F100000800FF800800080008000000001000D6C
:105F2000000E0000000000000000000000000080E3
:105F30000080008000800080008000800000000C55
:105F4000000C00000000000000000000000000063F
:105F5000001800600180060018002000000007F013
:105F6000080810041004080807F0000000000804E6
:105F700008041FFC000400040000000000000E0CD8
:105F800010141024104411840E0C000000000C1892
:105F900010041104110412880C700000000000E0CD
:105FA0000320042408241FFC0024000000001F9884
:105FB000108411041104108810700000000007F014
:105FC00008881104110418880070000000001C00EB
:105FD000100010FC13001C001000000000000E3820
:105FE00011441084108411440E3800000000070092
:105FF000088C10441044088807F0000000000000DE
:106000000000030C030C0000000000000000000072
:1060100000010106000000000000000000000080F8
:106020000140022004100808100400000220022091
:1060300002200220022002200220000000001004A2
:1060400008080410022001400080000000000E003B
:106050001200100C106C10800F00000003E00C18F0
:1060600013E4142417C4082807D000000004003CDF
:1060700003C41C40074000E4001C000410041FFC83
:106080001104110411040E880070000003E00C18C4
:1060900010041004100410081C10000010041FFC51
:1060A000100410041004080807F0000010041FFC7E
:1060B0001104110417C410040818000010041FFC78
:1060C0001104110017C010000800000003E00C18B4
:1060D0001004100410441C780040000010041FFC41
:1060E00010840080008010841FFC10040000100445
:1060F00010041FFC10041004000000000003000145
:10610000100110011FFE10001000000010041FFC01
:10611000110403801464181C1004000010041FFCF8
:106120001004000400040004000C000010041FFC14
:106130001F0000FC1F001FFC1004000010041FFCC7
:106140000C04030000E010181FFC100007F0080802
:10615000100410041004080807F0000010041FFCCD
:1061600010841080108010800F00000007F00818C5
:1061700010241024101C080A07F2000010041FFC51
:106180001104110011C011300E0C000400000E1C8F
:1061900011041084108410441C38000018001000F2
:1061A00010041FFC100410001800000010001FF85D
:1061B00010040004000410041FF8100010001E005A
:1061C00011E0001C007013801C0010001FC0103C68
:1061D00000E01F0000E0103C1FC000001004180C7D
:1061E000163401C001C01634180C100410001C0035
:1061F000130400FC13041C00100000000804101C11
:106200001064108413041C04101800000000000027
:1062100000007FFE4002400240020000000030000B
:106220000C0003800060001C00030000000040021E
:10623000400240027FFE000000000000000000005D
:10624000200040004000400020000000000100014C
:1062500000010001000100010001000100004000F8
:106260004000200000000000000000000000009836
:10627000012401440144014400FC000410001FFCFF
:106280000088010401040088007000000000007014
:10629000008801040104010400880000000000706F
:1062A00000880104010411081FFC0004000000F82C
:1062B000014401440144014400C8000000000104FD
:1062C00001040FFC1104110411001800000000D695
:1062D00001290129012901C90106000010041FFC40
:1062E000008401000100010400FC0004000001041E
:1062F000190419FC00040004000000000000000361
:1063000000010101190119FE0000000010041FFC2A
:106310000024004001B4010C01040000000010043E
:1063200010041FFC0004000400000000010401FC34
:106330000104010001FC0104010000FC010401FC56
:10634000008401000100010400FC0004000000F8CA
:10635000010401040104010400F80000010101FF2F
:106360000085010401040088007000000000007036
:10637000008801040104010501FF0001010401047A
:1063800001FC00840104010001800000000000CC39
:1063900001240124012401240198000000000100CF
:1063A000010007F80104010400000000010001F8E9
:1063B000000400040004010801FC00040100018045
:1063C0000170000C001001600180010001F0010C5F
:1063D000003001C00030010C01F001000000010498
:1063E000018C00740170018C010400000101018125
:1063F0000171000E0018016001800100000001849D
:10640000010C013401440184010C00000000000073
:106410000000000001003EFC4002400200000000BD
:1064200000000000FFFF000000000000000040022C
:1064300040023EFC0100000000000000000060007F
:10644000800080004000400020002000000000008C
:106450000000000001020304060708090000000014
:1064600001020304506C65617365207573652074C7
:106470006865207374796C757320636C69636B2035
:106480007468652063726F7373206F6E2074686523
:106490002073637265656E2E5468652063726F7336
:1064A000732077696C6C20616C77617973206D6FF4
:1064B000766520756E74696C2074686520736372EC
:1064C00065656E2061646A7573746D656E742069AC
:1064D0007320636F6D706C657465642E000000003E
:1064E000546F7563682073637265656E2063616CB9
:1064F0006962726174696F6E206661696C7572653C
:106500002C506C656173652072652063616C6962F3
:10651000726174652074686520746F756368207398
:10652000637265656E2E000048650008000000205B
:1065300024000000905700086C650008240000202B
:106540001C050000A057000864640008E06400080F
:10655000000000000000000001000000100000002A
:0C656000000000000024F4000000000017
:040000050800018965
:00000001FF
