:020000040800F2
:1000000090040020A1010008FF100008AB0F0008B9
:10001000FD100008AD020008EF120008000000000B
:1000200000000000000000000000000007110008B0
:10003000AF020008000000000511000809110008C7
:10004000BB010008BB010008BB010008BB010008A0
:10005000BB010008BB010008BB010008BB01000890
:10006000BB010008BB010008BB010008BB01000880
:10007000BB010008BB010008BB010008BB01000870
:10008000BB010008BB010008BB010008BB01000860
:10009000BB010008BB010008BB010008BB01000850
:1000A000BB010008BB010008BB010008BB01000840
:1000B000B1110008BB010008BB010008BB0100082A
:1000C000BB010008BB010008BB010008BB01000820
:1000D000BB010008BB010008BB010008BB01000810
:1000E000BB010008BB010008BB010008BB01000800
:1000F000BB010008BB010008BB010008BB010008F0
:10010000BB010008BB010008BB010008BB010008DF
:10011000BB010008BB010008BB010008BB010008CF
:10012000BB010008BB010008BB010008BB010008BF
:10013000BB010008BB010008BB010008BB010008AF
:10014000BB010008BB010008BB010008BB0100089F
:10015000BB010008BB010008BB010008BB0100088F
:10016000BB010008BB010008BB010008BB0100087F
:10017000BB010008BB010008BB0100080000000033
:10018000BB010008BB010008DFF810D000F07CF8CC
:100190000048004731130008AFF3008090040020AE
:1001A0000648804706480047FEE7FEE7FEE7FEE711
:1001B000FEE7FEE7FEE7FEE7FEE7FEE7A111000827
:1001C000890100082DE9F05F0546002092469B4614
:1001D00088460646814640241BE02846414647465D
:1001E000224600F041F853465A46C01A914110D3B6
:1001F00011461846224600F028F82D1A67EB010830
:100200004F4622460120002100F01FF817EB00099D
:100210004E41201EA4F10104DFDC484631462A4647
:100220004346BDE8F09FD2B201E000F8012B491E21
:10023000FBD270470022F6E710B513460A46044683
:100240001946FFF7F0FF204610BD202A04DB203AB4
:1002500000FA02F1002070479140C2F1200320FA19
:1002600003F3194390407047202A04DB203A21FA17
:1002700002F00021704721FA02F3D040C2F12002BF
:100280009140084319467047064C074D06E0E06868
:1002900040F0010394E8070098471034AC42F6D3CD
:1002A000FFF776FF90130008B0130008FEE77047D1
:1002B00072B6FEE72DE9F84FDFF8B8A1002201255C
:1002C0000AF1040B03264FF00F090BF1040E00BFD7
:1002D0000B6805FA02F42340A3426FD10F7907F0AF
:1002E0000307012F01D0022F16D187684FEA420879
:1002F00006FA08FC27EA0C07D1F80CC00CFA08FC37
:100300004CEA070CC0F808C04768A7430C79C4F34F
:10031000001494403C4344600C79E443A4070AD0A1
:10032000C4684FEA420C06FA0CF7BC438F6807FA20
:100330000CF72743C7600C7904F00304022C12D198
:10034000D40800EB840CDCF820405707FF0E09FAB4
:1003500007F824EA0804D1F8108008FA07F848EAF8
:100360000408CCF8208004684FEA420C06FA0CF727
:10037000BC430F7907F0030707FA0CF72743076020
:100380004C68E40070D53C4C276847F480472760F0
:10039000246822F0030704F480440094374C07EBF0
:1003A000040CDCF8084897074FEA177809FA08F7B1
:1003B000BC43334FB84202D1002724E054E0314F10
:1003C000B84201D101271EE02F4FB84201D10227C8
:1003D00019E02E4FB84201D1032714E02C4FB84248
:1003E00001D104270FE02B4FB84201D105270AE0C5
:1003F000294FB84201D1062705E0284FB84201D164
:10040000072700E0082707FA08F72743CCF8087801
:10041000DAF800405746D1F804C09C435FEACC3C70
:1004200000D51C433C60DBF800405F46D1F804C0B7
:100430009C435FEA8C3C00D51C433C60DEF80040E6
:100440007746D1F804C09C435FEACC2C00D51C430E
:100450003C60084F0C373C68D1F804C09C435FEA0D
:100460008C2C00D51C433C60521C102AFFF430AF8A
:10047000BDE8F88F003C01404438024000300140A4
:10048000000002400004024000080240000C02404C
:10049000001002400014024000180240001C0240FC
:1004A0000AB1816170470904FBE7000001488068D8
:1004B000704700003400002002488168027811442F
:1004C00081607047340000200B4810B5016841F48A
:1004D00000710160016841F480610160016841F4CC
:1004E00080710160032000F06FF8002000F006F832
:1004F00000F024F8002010BD003C024070B50D4D06
:1005000004464FF47A712878B1FBF0F00A49096883
:10051000B1FBF0F000F000FB48B9102C07D200222C
:100520002146501E00F030F800206C6070BD0120A4
:1005300070BD000034000020400000200A4808B5CB
:10054000016841F480410160006800F4804000903F
:100550000548001F016841F080510160006800F00B
:100560008050009008BD000044380240002809DB9C
:1005700000F01F02012191404009800000F1E020BD
:10058000C0F8001170470000F0B40E4B1B680C4619
:10059000C3F30223C3F10705042D00D90425191D57
:1005A000072901D2002300E0DB1E012606FA05F12F
:1005B000491E214099409E40761E16403143F0BCB2
:1005C00000F096BE0CED00E0064900F00702086856
:1005D0004FF6FF03184040EA0220034A1043086028
:1005E000704700000CED00E00000FA0570470000C5
:1005F0002DE9F0470E46050065D0DFF81481D8F8E4
:100600000000F7B200F00700B04207D288F800708F
:10061000D8F8000000F00700B04254D128683D4CE3
:10062000810712D5400703D5206840F4E0502060D0
:100630002878000703D5206840F4604020602068D7
:10064000A96820F0F000084320602878C0072DD06A
:10065000304968680839012812D0022813D00328CD
:1006600011D00968890700292DDA216821F00301DA
:1006700001432160FFF71AFF814641F2883A0EE0FC
:1006800009688903EFE709688901ECE7FFF70EFFC6
:10069000A0EB0901514502D90320BDE8F08720688D
:1006A000696800F00C00B0EB810FEFD1D8F80010B2
:1006B000404601F00701B14207D90770006800F019
:1006C0000700B04201D00120E7E72878400705D5B0
:1006D0002068E96820F4E05008432060287800078B
:1006E00006D52068296920F4604040EAC1002060F6
:1006F00000F01EF82168084AC1F30311515CC8409C
:100700000649086006480068FFF7F8FE0020C4E7C5
:10071000003C0240083802408013000840000020DE
:100720003800002001490120C8647047000047429A
:10073000154810B5006810F00C02144813D0411091
:10074000042A0FD0082A0ED10F4C241F22682368D8
:1007500002F03F025B0207D52068C0F38810A0FBBF
:10076000010106E0084610BD2168C1F38811A1FB14
:1007700000010023FFF726FD2168C1F30141491C58
:100780004900B0FBF1F010BD083802400024F4002D
:10079000054810B50068000605D5FFF727FF024998
:1007A0008020891C087010BD0C3802402DE9F84FDC
:1007B00004006ED02078DFF84C93C007A9F104053F
:1007C0004AD009F104000168C1F38101012908D070
:1007D0000068C0F3810002280AD1D9F80000400265
:1007E00006D52868800337D560680028E1D033E05B
:1007F0006068B0F5803F10D0B0F5A02F286810D009
:1008000020F480302860286820F480202860606808
:10081000A8B1FFF74BFE06460DE0286840F4803093
:10082000F4E740F480202860F7E700BFFFF73EFEC2
:10083000801B642873D828688003F7D50CE0FFF785
:1008400035FE064605E000BFFFF730FE801B64283A
:10085000F0D828688003F7D42078DFF8AC828007CE
:100860004FF0000A3ED5A748001D016811F00C0F9B
:1008700008D00068C0F3810002280BD1D9F800002D
:10088000400207D42868800716D5E068012800D107
:1008900012E033E1E068B8B10120C8F80000FFF7CA
:1008A00005FE064605E000BFFFF700FE801B02289C
:1008B000C0D828688007F7D52868216920F0F8009B
:1008C00040EAC10028600DE0C8F800A0FFF7EEFD87
:1008D000064604E0FFF7EAFD801B02281FD82868BF
:1008E0008007F7D42078000722D5864F87486169B2
:1008F000703771B101210160FFF7D8FD064604E0B1
:10090000FFF7D4FD801B022809D838688007F7D587
:100910000EE0C0F800A0FFF7C9FD064605E082E042
:10092000FFF7C4FD801B02287DD838688007F7D404
:100930002078400768D5DFF8CCB100270BF13C0BDD
:10094000DBF80000C0000BD4DBF8001041F0805150
:10095000CBF80010DBF80000012700F08050009079
:100960006B4E3068C00510D4306840F48070306041
:10097000FFF79CFD009005E0FFF798FD0099401AF5
:10098000022850D83068C005F6D55E4EA0686C3697
:1009900001280FD00528306810D020F00100306009
:1009A000306820F004003060A068B8B1FFF77EFD29
:1009B00000900FE0306840F00100F4E740F00400E0
:1009C0003060F7E7FFF772FD0099411A41F2883075
:1009D000814266D830688007F4D50EE0FFF766FDE7
:1009E000009007E0FFF762FD0099411A41F288305C
:1009F000814256D830688007F4D42FB1DBF800105C
:100A000021F08051CBF80010A069C8B33D49091D01
:100A10000968C1F3810102294AD00228504607D053
:100A2000C8F8600000E03CE0FFF740FD04463BE012
:100A30004746C8F86000FFF739FD064605E000BFED
:100A4000FFF734FD801B02282BD828688001F7D4DB
:100A5000D4E907010843A16A2E4A490802EB014183
:100A6000626A41EA8211084394F82C1040EA01615D
:100A7000C9F8001001203866FFF718FD044606E0AB
:100A80003EE000BFFFF712FD001B022809D82868CE
:100A90008001F7D534E000BFFFF708FD001B0228F6
:100AA00002D90320BDE8F88F28688001F4D427E03C
:100AB0000128F7D0D9F80000E26900F480019142E2
:100AC0001CD1226A00F03F01914217D147F6C07154
:100AD000626A0140B1EB821F10D1A26A4FF0FF336E
:100AE00000F4403103EB5202B1EB024F06D194F80F
:100AF0002C1000F07060B0EB016F01D00120D1E745
:100B00000020CFE70438024000004742800E4742F1
:100B1000007000400000FFFF10B5401EB0F1807F64
:100B200001D3012010BD4FF0E02460610F21601758
:100B300000F0DEFB0020A06107202061002010BD36
:100B40007047704770B590F83C20012A32D00124DC
:100B500080F83C40022280F83D2003685A689D6876
:100B600022F070060A6832435A60134B02689A42B8
:100B700014D0B2F1804F11D0104B9A420ED0104BCE
:100B80009A420BD00F4B9A4208D00F4B9A4205D095
:100B90000E4B9A4202D00E4B9A4204D1496825F07E
:100BA00080031943916080F83D40002180F83C109B
:100BB000084670BD022070BD0000014000040040E6
:100BC00000080040000C00400004014000400140CB
:100BD0000018004010B5040003D094F83D0010B197
:100BE00007E0012010BD002084F83C00204600F002
:100BF0001FF8022084F83D00211D206800F0DEFA75
:100C0000012084F8460084F83E0084F83F0084F810
:100C1000400084F8410084F8420084F8430084F8DE
:100C2000440084F8450084F83D00002010BD000019
:100C300008B50068B0F1804F12D10A48016841F050
:100C4000010101600068002200F001000090012114
:100C50001C20FFF799FCBDE808401C20FFF786BC6C
:100C600008BD00004038024090F83D10012901D035
:100C700001207047022180F83D100168CA6842F0E7
:100C80000102CA6000681149884214D0B0F1804F57
:100C900011D00F4988420ED00E4988420BD00E4920
:100CA000884208D00D49884205D00D49884202D0BB
:100CB0000C49884204D1816801F00701062903D05C
:100CC000016841F00101016000207047000001400F
:100CD0000004004000080040000C004000040140F7
:100CE000004001400018004070B5044690F83C00F8
:100CF000012817D0012584F83C50022084F83D00DB
:100D00002068826822F0770222F47F4282600868BD
:100D1000502830D00DDC20284DD005DC98B31028A9
:100D20003BD148E0022070BD302844D0402834D167
:100D300039E0602828D0702806D0B0F5805F2CD02C
:100D4000B0F5005F29D10AE0CB68D1E90121206824
:100D500000F098FA2068816841F0770109E0CB68DB
:100D6000D1E90121206800F08DFA2068816841F402
:100D70008041816011E0CA684968206800F094FAF7
:100D80005021206807E016E0CA684968206800F032
:100D90009CFA6021206800F07FFA84F83D50002022
:100DA00084F83C0070BDCA684968206800F07CFA8D
:100DB00040212068EFE7226801461046EBE77047C4
:100DC00070B50446006801694FF00005C943890702
:100DD00015D4C168C943890711D4E91E01610120F6
:100DE0002077206880698007204602D0FFF7E7FF60
:100DF00004E000F098F8204600F096F82577206887
:100E00000169C943490717D4C168C943490713D4C5
:100E10006FF004010161022020772068806910F4DE
:100E2000407F204602D0FFF7CAFF04E000F07BF8C5
:100E3000204600F079F8257720680169C943090741
:100E400016D4C168C943090712D46FF008010161C3
:100E5000042020772068C0698007204602D0FFF771
:100E6000AEFF04E000F05FF8204600F05DF8257763
:100E700020680169C943C90617D4C168C943C906B6
:100E800013D46FF010010161082020772068C06939
:100E900010F4407F204602D0FFF791FF04E000F0FD
:100EA00042F8204600F040F8257720680169C943E0
:100EB000C90708D1C168C943C90704D1891E0161A6
:100EC000204600F033F820680169C943090609D4B7
:100ED000C168C943090605D46FF08001016120464D
:100EE000FFF72EFE20680169C943490609D4C1688D
:100EF000C943490605D46FF040010161204600F066
:100F000053F820680169C94389060BD4C168C943F5
:100F1000890607D46FF0200101612046BDE87040CA
:100F2000FFF70FBE70BD704770470000F0B51A495B
:100F30000068096888422BD1184900270F601848BB
:100F40004FF40042026003070360164E351F2C78F1
:100F500056F824604FEA166CC1F800C002600360C6
:100F6000C6F3074CC1F800C002600360C6F3072C4B
:100F7000C1F800C002600360F6B20E600260036058
:100F800091100160090401600B2C02D0641C2C70CC
:100F9000F0BD2F70F0BD000044000020140C024092
:100FA00018180240040000207047FEE72DE9F047C2
:100FB00086B014216846FFF73DF9344800240168E3
:100FC00041F004010160016801F00401059101682C
:100FD00041F080010160016801F080010591016824
:100FE00041F001010160016801F001010591016812
:100FF00041F008010160016801F0080105910168F4
:1010000041F040010160016801F040010591016873
:1010100041F0020101600068DFF8749000F0020006
:1010200005900122FF214846FFF73AFADFF864A055
:101030004FF40077002239465046FFF731FA4FF45B
:101040002048012241465046FFF72AFAFF20012599
:101050000326CDE90005CDE9024669464846FFF77B
:1010600029F90097CDE90154694650460394FFF7EA
:1010700021F9CDF800800396CDE901546946504628
:10108000FFF718F906B0BDE8F087000030380240DD
:10109000000C02400018024010B586B0002416482B
:1010A000009401940294039404944FF080410594B9
:1010B00001600921C0E90114AE21C0E90314846173
:1010C000FFF788FD08B1FFF7F3F84FF48050009068
:1010D00069460948FFF708FE08B1FFF7E9F80494EC
:1010E00004A905480594FFF72DFD002801D0FFF75E
:1010F000DFF806B010BD000044000020FEE7FFF757
:1011000047FBFEE770477047FFF7D6B930B593B09D
:1011100030216846FFF78EF814210CA8FFF78AF8F3
:101120001D480025016841F080510160006800F011
:10113000805011901948016841F4804101600068B5
:10114000022400F4804011900120009000040190DE
:101150008001CDE9064008AA0420A82182E81300F6
:101160000B906846FFF722FB08B172B6FEE70CA9A8
:101170000F2081E831004FF4A0500F904FF48050C1
:10118000109005210CA8FFF733FA08B172B6FEE7FC
:10119000FFF7C8FA13B030BD40380240007000407D
:1011A0000248016841F470010160704788ED00E079
:1011B0000148FFF705BE000044000020F0B50268BA
:1011C000254C264D264E274F274B4FF0804CA042F2
:1011D00009D0604507D0A84205D0B04203D0B8423C
:1011E00001D0984204D122F0700E4A6842EA0E0201
:1011F000A0421BD0604519D0A84217D0B04215D0EC
:10120000B84213D0984211D0184DA8420ED0184DB4
:10121000A8420BD0174DA84208D0174DA84205D0C0
:10122000164DA84202D0164DA84203D122F44075B3
:10123000CA682A434D6922F080022A4302608A6804
:10124000C2620A688262A04201D0984201D1096953
:10125000016301214161F0BD000001400004004034
:1012600000080040000C0040000401400040014024
:10127000004401400048014000180040001C0040AC
:101280000020004010B5846842EA032224F47F4421
:101290000A432243826010BD826822F070020A4332
:1012A00042F007018160704710B5036A046A24F0B8
:1012B00001040462846924F0F00444EA021423F077
:1012C0000A020A438461026210BD10B5036A23F06A
:1012D000100303628369046A23F4704343EA023211
:1012E00024F0A00343EA01118261016210BDFEE710
:1012F0000907090E002804DB00F1E02080F8001443
:10130000704700F00F0000F1E02080F8141D7047D6
:1013100002E008C8121F08C1002AFAD170477047BE
:10132000002001E001C1121F002AFBD1704700001C
:10133000FFF7CAF8FFF7EAFEFFF738FEFFF7ACFE4B
:101340000D4C00224FF400412046FFF7A9F800227F
:101350004FF400512046FFF7A3F801225502294619
:101360002046FFF79DF8002229462046FFF798F80F
:101370000248FFF779FCFEE7001802404400002015
:101380000000000000000000010203040607080935
:10139000B0130008000000204400000010130008F3
:1013A000F4130008440000204C040000201300083F
:1013B000000000003866190200A5170288D6120244
:1013C000C04A0C0210BB050280F00002482FFF014A
:1013D00080F0000210BB0502C04A0C0288D612023F
:1013E00000A517020100000010000000000000002E
:0413F0000024F400E1
:040000050800018965
:00000001FF
